{
	"OneRingNFT_flat_flat.sol": {
		"NFTOracle": {
			"abi": [
				{
					"inputs": [],
					"stateMutability": "nonpayable",
					"type": "constructor"
				},
				{
					"anonymous": false,
					"inputs": [
						{
							"indexed": true,
							"internalType": "address",
							"name": "previousOwner",
							"type": "address"
						},
						{
							"indexed": true,
							"internalType": "address",
							"name": "newOwner",
							"type": "address"
						}
					],
					"name": "OwnershipTransferred",
					"type": "event"
				},
				{
					"inputs": [],
					"name": "ID",
					"outputs": [
						{
							"internalType": "uint256",
							"name": "",
							"type": "uint256"
						}
					],
					"stateMutability": "view",
					"type": "function"
				},
				{
					"inputs": [
						{
							"internalType": "string",
							"name": "_hash",
							"type": "string"
						}
					],
					"name": "checkNFTByHash",
					"outputs": [
						{
							"internalType": "bool",
							"name": "",
							"type": "bool"
						}
					],
					"stateMutability": "view",
					"type": "function"
				},
				{
					"inputs": [
						{
							"internalType": "uint256",
							"name": "_ID",
							"type": "uint256"
						}
					],
					"name": "checkNFTByID",
					"outputs": [
						{
							"internalType": "bool",
							"name": "",
							"type": "bool"
						}
					],
					"stateMutability": "view",
					"type": "function"
				},
				{
					"inputs": [
						{
							"internalType": "uint256",
							"name": "_ID",
							"type": "uint256"
						},
						{
							"internalType": "bool",
							"name": "_result",
							"type": "bool"
						}
					],
					"name": "detectNFT",
					"outputs": [],
					"stateMutability": "nonpayable",
					"type": "function"
				},
				{
					"inputs": [],
					"name": "owner",
					"outputs": [
						{
							"internalType": "address",
							"name": "",
							"type": "address"
						}
					],
					"stateMutability": "view",
					"type": "function"
				},
				{
					"inputs": [],
					"name": "renounceOwnership",
					"outputs": [],
					"stateMutability": "nonpayable",
					"type": "function"
				},
				{
					"inputs": [
						{
							"internalType": "address",
							"name": "newOwner",
							"type": "address"
						}
					],
					"name": "transferOwnership",
					"outputs": [],
					"stateMutability": "nonpayable",
					"type": "function"
				},
				{
					"inputs": [
						{
							"internalType": "string",
							"name": "_hash",
							"type": "string"
						},
						{
							"internalType": "string",
							"name": "_ipfs",
							"type": "string"
						}
					],
					"name": "uploadNFT",
					"outputs": [
						{
							"internalType": "uint256",
							"name": "",
							"type": "uint256"
						}
					],
					"stateMutability": "nonpayable",
					"type": "function"
				}
			],
			"devdoc": {
				"kind": "dev",
				"methods": {
					"owner()": {
						"details": "Returns the address of the current owner."
					},
					"renounceOwnership()": {
						"details": "Leaves the contract without owner. It will not be possible to call `onlyOwner` functions anymore. Can only be called by the current owner. NOTE: Renouncing ownership will leave the contract without an owner, thereby removing any functionality that is only available to the owner."
					},
					"transferOwnership(address)": {
						"details": "Transfers ownership of the contract to a new account (`newOwner`). Can only be called by the current owner."
					}
				},
				"version": 1
			},
			"evm": {
				"assembly": "    /* \"OneRingNFT_flat_flat.sol\":3418:6192  contract NFTOracle is Ownable{... */\n  mstore(0x40, 0x80)\n    /* \"OneRingNFT_flat_flat.sol\":3822:3823  1 */\n  0x01\n    /* \"OneRingNFT_flat_flat.sol\":3805:3823  uint public ID = 1 */\n  dup1\n  sstore\n    /* \"OneRingNFT_flat_flat.sol\":3484:3507  constructor ()  {... */\n  callvalue\n  dup1\n  iszero\n  tag_1\n  jumpi\n  0x00\n  dup1\n  revert\ntag_1:\n  pop\n    /* \"OneRingNFT_flat_flat.sol\":1810:1842  _transferOwnership(_msgSender()) */\n  tag_5\n    /* \"OneRingNFT_flat_flat.sol\":1829:1841  _msgSender() */\n  tag_6\n    /* \"OneRingNFT_flat_flat.sol\":1829:1839  _msgSender */\n  shl(0x20, tag_7)\n    /* \"OneRingNFT_flat_flat.sol\":1829:1841  _msgSender() */\n  0x20\n  shr\n  jump\t// in\ntag_6:\n    /* \"OneRingNFT_flat_flat.sol\":1810:1828  _transferOwnership */\n  shl(0x20, tag_8)\n    /* \"OneRingNFT_flat_flat.sol\":1810:1842  _transferOwnership(_msgSender()) */\n  0x20\n  shr\n  jump\t// in\ntag_5:\n    /* \"OneRingNFT_flat_flat.sol\":3418:6192  contract NFTOracle is Ownable{... */\n  jump(tag_10)\n    /* \"OneRingNFT_flat_flat.sol\":693:789  function _msgSender() internal view virtual returns (address) {... */\ntag_7:\n    /* \"OneRingNFT_flat_flat.sol\":746:753  address */\n  0x00\n    /* \"OneRingNFT_flat_flat.sol\":772:782  msg.sender */\n  caller\n    /* \"OneRingNFT_flat_flat.sol\":765:782  return msg.sender */\n  swap1\n  pop\n    /* \"OneRingNFT_flat_flat.sol\":693:789  function _msgSender() internal view virtual returns (address) {... */\n  swap1\n  jump\t// out\n    /* \"OneRingNFT_flat_flat.sol\":3159:3346  function _transferOwnership(address newOwner) internal virtual {... */\ntag_8:\n    /* \"OneRingNFT_flat_flat.sol\":3232:3248  address oldOwner */\n  0x00\n    /* \"OneRingNFT_flat_flat.sol\":3251:3257  _owner */\n  dup1\n  0x00\n  swap1\n  sload\n  swap1\n  0x0100\n  exp\n  swap1\n  div\n  0xffffffffffffffffffffffffffffffffffffffff\n  and\n    /* \"OneRingNFT_flat_flat.sol\":3232:3257  address oldOwner = _owner */\n  swap1\n  pop\n    /* \"OneRingNFT_flat_flat.sol\":3276:3284  newOwner */\n  dup2\n    /* \"OneRingNFT_flat_flat.sol\":3267:3273  _owner */\n  0x00\n  dup1\n    /* \"OneRingNFT_flat_flat.sol\":3267:3284  _owner = newOwner */\n  0x0100\n  exp\n  dup2\n  sload\n  dup2\n  0xffffffffffffffffffffffffffffffffffffffff\n  mul\n  not\n  and\n  swap1\n  dup4\n  0xffffffffffffffffffffffffffffffffffffffff\n  and\n  mul\n  or\n  swap1\n  sstore\n  pop\n    /* \"OneRingNFT_flat_flat.sol\":3330:3338  newOwner */\n  dup2\n    /* \"OneRingNFT_flat_flat.sol\":3299:3339  OwnershipTransferred(oldOwner, newOwner) */\n  0xffffffffffffffffffffffffffffffffffffffff\n  and\n    /* \"OneRingNFT_flat_flat.sol\":3320:3328  oldOwner */\n  dup2\n    /* \"OneRingNFT_flat_flat.sol\":3299:3339  OwnershipTransferred(oldOwner, newOwner) */\n  0xffffffffffffffffffffffffffffffffffffffff\n  and\n  0x8be0079c531659141344cd1fd0a4f28419497f9722a3daafe3b4186f6b6457e0\n  mload(0x40)\n  mload(0x40)\n  dup1\n  swap2\n  sub\n  swap1\n  log3\n    /* \"OneRingNFT_flat_flat.sol\":3222:3346  {... */\n  pop\n    /* \"OneRingNFT_flat_flat.sol\":3159:3346  function _transferOwnership(address newOwner) internal virtual {... */\n  pop\n  jump\t// out\n    /* \"OneRingNFT_flat_flat.sol\":3418:6192  contract NFTOracle is Ownable{... */\ntag_10:\n  dataSize(sub_0)\n  dup1\n  dataOffset(sub_0)\n  0x00\n  codecopy\n  0x00\n  return\nstop\n\nsub_0: assembly {\n        /* \"OneRingNFT_flat_flat.sol\":3418:6192  contract NFTOracle is Ownable{... */\n      mstore(0x40, 0x80)\n      callvalue\n      dup1\n      iszero\n      tag_1\n      jumpi\n      0x00\n      dup1\n      revert\n    tag_1:\n      pop\n      jumpi(tag_2, lt(calldatasize, 0x04))\n      shr(0xe0, calldataload(0x00))\n      dup1\n      0xb3cea217\n      gt\n      tag_11\n      jumpi\n      dup1\n      0xb3cea217\n      eq\n      tag_7\n      jumpi\n      dup1\n      0xb5e3029f\n      eq\n      tag_8\n      jumpi\n      dup1\n      0xd0aeae96\n      eq\n      tag_9\n      jumpi\n      dup1\n      0xf2fde38b\n      eq\n      tag_10\n      jumpi\n      jump(tag_2)\n    tag_11:\n      dup1\n      0x1c5a3e52\n      eq\n      tag_3\n      jumpi\n      dup1\n      0x3a4f2d24\n      eq\n      tag_4\n      jumpi\n      dup1\n      0x715018a6\n      eq\n      tag_5\n      jumpi\n      dup1\n      0x8da5cb5b\n      eq\n      tag_6\n      jumpi\n    tag_2:\n      0x00\n      dup1\n      revert\n        /* \"OneRingNFT_flat_flat.sol\":5045:5434  function detectNFT(uint _ID,bool _result) public onlyOwner{... */\n    tag_3:\n      tag_12\n      0x04\n      dup1\n      calldatasize\n      sub\n      dup2\n      add\n      swap1\n      tag_13\n      swap2\n      swap1\n      tag_14\n      jump\t// in\n    tag_13:\n      tag_15\n      jump\t// in\n    tag_12:\n      stop\n        /* \"OneRingNFT_flat_flat.sol\":4578:5011  function uploadNFT(string memory _hash,string memory _ipfs)  public returns(uint256){... */\n    tag_4:\n      tag_16\n      0x04\n      dup1\n      calldatasize\n      sub\n      dup2\n      add\n      swap1\n      tag_17\n      swap2\n      swap1\n      tag_18\n      jump\t// in\n    tag_17:\n      tag_19\n      jump\t// in\n    tag_16:\n      mload(0x40)\n      tag_20\n      swap2\n      swap1\n      tag_21\n      jump\t// in\n    tag_20:\n      mload(0x40)\n      dup1\n      swap2\n      sub\n      swap1\n      return\n        /* \"OneRingNFT_flat_flat.sol\":2557:2658  function renounceOwnership() public virtual onlyOwner {... */\n    tag_5:\n      tag_22\n      tag_23\n      jump\t// in\n    tag_22:\n      stop\n        /* \"OneRingNFT_flat_flat.sol\":1925:2010  function owner() public view virtual returns (address) {... */\n    tag_6:\n      tag_24\n      tag_25\n      jump\t// in\n    tag_24:\n      mload(0x40)\n      tag_26\n      swap2\n      swap1\n      tag_27\n      jump\t// in\n    tag_26:\n      mload(0x40)\n      dup1\n      swap2\n      sub\n      swap1\n      return\n        /* \"OneRingNFT_flat_flat.sol\":3805:3823  uint public ID = 1 */\n    tag_7:\n      tag_28\n      tag_29\n      jump\t// in\n    tag_28:\n      mload(0x40)\n      tag_30\n      swap2\n      swap1\n      tag_21\n      jump\t// in\n    tag_30:\n      mload(0x40)\n      dup1\n      swap2\n      sub\n      swap1\n      return\n        /* \"OneRingNFT_flat_flat.sol\":4299:4555  function checkNFTByID(uint _ID) public view returns(bool){... */\n    tag_8:\n      tag_31\n      0x04\n      dup1\n      calldatasize\n      sub\n      dup2\n      add\n      swap1\n      tag_32\n      swap2\n      swap1\n      tag_33\n      jump\t// in\n    tag_32:\n      tag_34\n      jump\t// in\n    tag_31:\n      mload(0x40)\n      tag_35\n      swap2\n      swap1\n      tag_36\n      jump\t// in\n    tag_35:\n      mload(0x40)\n      dup1\n      swap2\n      sub\n      swap1\n      return\n        /* \"OneRingNFT_flat_flat.sol\":3972:4229  function checkNFTByHash(string memory _hash) public view returns(bool) {... */\n    tag_9:\n      tag_37\n      0x04\n      dup1\n      calldatasize\n      sub\n      dup2\n      add\n      swap1\n      tag_38\n      swap2\n      swap1\n      tag_39\n      jump\t// in\n    tag_38:\n      tag_40\n      jump\t// in\n    tag_37:\n      mload(0x40)\n      tag_41\n      swap2\n      swap1\n      tag_36\n      jump\t// in\n    tag_41:\n      mload(0x40)\n      dup1\n      swap2\n      sub\n      swap1\n      return\n        /* \"OneRingNFT_flat_flat.sol\":2807:3005  function transferOwnership(address newOwner) public virtual onlyOwner {... */\n    tag_10:\n      tag_42\n      0x04\n      dup1\n      calldatasize\n      sub\n      dup2\n      add\n      swap1\n      tag_43\n      swap2\n      swap1\n      tag_44\n      jump\t// in\n    tag_43:\n      tag_45\n      jump\t// in\n    tag_42:\n      stop\n        /* \"OneRingNFT_flat_flat.sol\":5045:5434  function detectNFT(uint _ID,bool _result) public onlyOwner{... */\n    tag_15:\n        /* \"OneRingNFT_flat_flat.sol\":2148:2160  _msgSender() */\n      tag_47\n        /* \"OneRingNFT_flat_flat.sol\":2148:2158  _msgSender */\n      tag_48\n        /* \"OneRingNFT_flat_flat.sol\":2148:2160  _msgSender() */\n      jump\t// in\n    tag_47:\n        /* \"OneRingNFT_flat_flat.sol\":2137:2160  owner() == _msgSender() */\n      0xffffffffffffffffffffffffffffffffffffffff\n      and\n        /* \"OneRingNFT_flat_flat.sol\":2137:2144  owner() */\n      tag_49\n        /* \"OneRingNFT_flat_flat.sol\":2137:2142  owner */\n      tag_25\n        /* \"OneRingNFT_flat_flat.sol\":2137:2144  owner() */\n      jump\t// in\n    tag_49:\n        /* \"OneRingNFT_flat_flat.sol\":2137:2160  owner() == _msgSender() */\n      0xffffffffffffffffffffffffffffffffffffffff\n      and\n      eq\n        /* \"OneRingNFT_flat_flat.sol\":2129:2197  require(owner() == _msgSender(), \"Ownable: caller is not the owner\") */\n      tag_50\n      jumpi\n      mload(0x40)\n      0x08c379a000000000000000000000000000000000000000000000000000000000\n      dup2\n      mstore\n      0x04\n      add\n      tag_51\n      swap1\n      tag_52\n      jump\t// in\n    tag_51:\n      mload(0x40)\n      dup1\n      swap2\n      sub\n      swap1\n      revert\n    tag_50:\n        /* \"OneRingNFT_flat_flat.sol\":5217:5222  false */\n      0x00\n        /* \"OneRingNFT_flat_flat.sol\":5195:5222  nfts[_ID].isDetected==false */\n      iszero\n      iszero\n        /* \"OneRingNFT_flat_flat.sol\":5195:5199  nfts */\n      0x02\n        /* \"OneRingNFT_flat_flat.sol\":5195:5204  nfts[_ID] */\n      0x00\n        /* \"OneRingNFT_flat_flat.sol\":5200:5203  _ID */\n      dup5\n        /* \"OneRingNFT_flat_flat.sol\":5195:5204  nfts[_ID] */\n      dup2\n      mstore\n      0x20\n      add\n      swap1\n      dup2\n      mstore\n      0x20\n      add\n      0x00\n      keccak256\n        /* \"OneRingNFT_flat_flat.sol\":5195:5215  nfts[_ID].isDetected */\n      0x03\n      add\n      0x00\n      swap1\n      sload\n      swap1\n      0x0100\n      exp\n      swap1\n      div\n      0xff\n      and\n        /* \"OneRingNFT_flat_flat.sol\":5195:5222  nfts[_ID].isDetected==false */\n      iszero\n      iszero\n      eq\n        /* \"OneRingNFT_flat_flat.sol\":5195:5260  nfts[_ID].isDetected==false&&nfts[_ID].state==NFTState.Undetected */\n      dup1\n      iszero\n      tag_54\n      jumpi\n      pop\n        /* \"OneRingNFT_flat_flat.sol\":5241:5260  NFTState.Undetected */\n      0x00\n        /* \"OneRingNFT_flat_flat.sol\":5224:5260  nfts[_ID].state==NFTState.Undetected */\n      0x01\n      dup2\n      gt\n      iszero\n      tag_55\n      jumpi\n      tag_56\n      tag_57\n      jump\t// in\n    tag_56:\n    tag_55:\n        /* \"OneRingNFT_flat_flat.sol\":5224:5228  nfts */\n      0x02\n        /* \"OneRingNFT_flat_flat.sol\":5224:5233  nfts[_ID] */\n      0x00\n        /* \"OneRingNFT_flat_flat.sol\":5229:5232  _ID */\n      dup5\n        /* \"OneRingNFT_flat_flat.sol\":5224:5233  nfts[_ID] */\n      dup2\n      mstore\n      0x20\n      add\n      swap1\n      dup2\n      mstore\n      0x20\n      add\n      0x00\n      keccak256\n        /* \"OneRingNFT_flat_flat.sol\":5224:5239  nfts[_ID].state */\n      0x00\n      add\n      0x00\n      swap1\n      sload\n      swap1\n      0x0100\n      exp\n      swap1\n      div\n      0xff\n      and\n        /* \"OneRingNFT_flat_flat.sol\":5224:5260  nfts[_ID].state==NFTState.Undetected */\n      0x01\n      dup2\n      gt\n      iszero\n      tag_58\n      jumpi\n      tag_59\n      tag_57\n      jump\t// in\n    tag_59:\n    tag_58:\n      eq\n        /* \"OneRingNFT_flat_flat.sol\":5195:5260  nfts[_ID].isDetected==false&&nfts[_ID].state==NFTState.Undetected */\n    tag_54:\n        /* \"OneRingNFT_flat_flat.sol\":5187:5311  require(nfts[_ID].isDetected==false&&nfts[_ID].state==NFTState.Undetected,\"The NFT does not meet the detection conditions!\") */\n      tag_60\n      jumpi\n      mload(0x40)\n      0x08c379a000000000000000000000000000000000000000000000000000000000\n      dup2\n      mstore\n      0x04\n      add\n      tag_61\n      swap1\n      tag_62\n      jump\t// in\n    tag_61:\n      mload(0x40)\n      dup1\n      swap2\n      sub\n      swap1\n      revert\n    tag_60:\n        /* \"OneRingNFT_flat_flat.sol\":5340:5347  _result */\n      dup1\n        /* \"OneRingNFT_flat_flat.sol\":5321:5325  nfts */\n      0x02\n        /* \"OneRingNFT_flat_flat.sol\":5321:5330  nfts[_ID] */\n      0x00\n        /* \"OneRingNFT_flat_flat.sol\":5326:5329  _ID */\n      dup5\n        /* \"OneRingNFT_flat_flat.sol\":5321:5330  nfts[_ID] */\n      dup2\n      mstore\n      0x20\n      add\n      swap1\n      dup2\n      mstore\n      0x20\n      add\n      0x00\n      keccak256\n        /* \"OneRingNFT_flat_flat.sol\":5321:5337  nfts[_ID].result */\n      0x03\n      add\n      0x01\n        /* \"OneRingNFT_flat_flat.sol\":5321:5347  nfts[_ID].result = _result */\n      0x0100\n      exp\n      dup2\n      sload\n      dup2\n      0xff\n      mul\n      not\n      and\n      swap1\n      dup4\n      iszero\n      iszero\n      mul\n      or\n      swap1\n      sstore\n      pop\n        /* \"OneRingNFT_flat_flat.sol\":5379:5384  false */\n      0x00\n        /* \"OneRingNFT_flat_flat.sol\":5357:5361  nfts */\n      0x02\n        /* \"OneRingNFT_flat_flat.sol\":5357:5365  nfts[ID] */\n      0x00\n        /* \"OneRingNFT_flat_flat.sol\":5362:5364  ID */\n      sload(0x01)\n        /* \"OneRingNFT_flat_flat.sol\":5357:5365  nfts[ID] */\n      dup2\n      mstore\n      0x20\n      add\n      swap1\n      dup2\n      mstore\n      0x20\n      add\n      0x00\n      keccak256\n        /* \"OneRingNFT_flat_flat.sol\":5357:5376  nfts[ID].isDetected */\n      0x03\n      add\n      0x00\n        /* \"OneRingNFT_flat_flat.sol\":5357:5384  nfts[ID].isDetected = false */\n      0x0100\n      exp\n      dup2\n      sload\n      dup2\n      0xff\n      mul\n      not\n      and\n      swap1\n      dup4\n      iszero\n      iszero\n      mul\n      or\n      swap1\n      sstore\n      pop\n        /* \"OneRingNFT_flat_flat.sol\":5411:5428  NFTState.Detected */\n      0x01\n        /* \"OneRingNFT_flat_flat.sol\":5394:5398  nfts */\n      0x02\n        /* \"OneRingNFT_flat_flat.sol\":5394:5402  nfts[ID] */\n      0x00\n        /* \"OneRingNFT_flat_flat.sol\":5399:5401  ID */\n      sload(0x01)\n        /* \"OneRingNFT_flat_flat.sol\":5394:5402  nfts[ID] */\n      dup2\n      mstore\n      0x20\n      add\n      swap1\n      dup2\n      mstore\n      0x20\n      add\n      0x00\n      keccak256\n        /* \"OneRingNFT_flat_flat.sol\":5394:5408  nfts[ID].state */\n      0x00\n      add\n      0x00\n        /* \"OneRingNFT_flat_flat.sol\":5394:5428  nfts[ID].state = NFTState.Detected */\n      0x0100\n      exp\n      dup2\n      sload\n      dup2\n      0xff\n      mul\n      not\n      and\n      swap1\n      dup4\n      0x01\n      dup2\n      gt\n      iszero\n      tag_63\n      jumpi\n      tag_64\n      tag_57\n      jump\t// in\n    tag_64:\n    tag_63:\n      mul\n      or\n      swap1\n      sstore\n      pop\n        /* \"OneRingNFT_flat_flat.sol\":5045:5434  function detectNFT(uint _ID,bool _result) public onlyOwner{... */\n      pop\n      pop\n      jump\t// out\n        /* \"OneRingNFT_flat_flat.sol\":4578:5011  function uploadNFT(string memory _hash,string memory _ipfs)  public returns(uint256){... */\n    tag_19:\n        /* \"OneRingNFT_flat_flat.sol\":4654:4661  uint256 */\n      0x00\n        /* \"OneRingNFT_flat_flat.sol\":4679:4698  hashIsExists(_hash) */\n      tag_66\n        /* \"OneRingNFT_flat_flat.sol\":4692:4697  _hash */\n      dup4\n        /* \"OneRingNFT_flat_flat.sol\":4679:4691  hashIsExists */\n      tag_67\n        /* \"OneRingNFT_flat_flat.sol\":4679:4698  hashIsExists(_hash) */\n      jump\t// in\n    tag_66:\n        /* \"OneRingNFT_flat_flat.sol\":4679:4719  hashIsExists(_hash)&&ipfsIsExists(_ipfs) */\n      dup1\n      iszero\n      tag_68\n      jumpi\n      pop\n        /* \"OneRingNFT_flat_flat.sol\":4700:4719  ipfsIsExists(_ipfs) */\n      tag_69\n        /* \"OneRingNFT_flat_flat.sol\":4713:4718  _ipfs */\n      dup3\n        /* \"OneRingNFT_flat_flat.sol\":4700:4712  ipfsIsExists */\n      tag_70\n        /* \"OneRingNFT_flat_flat.sol\":4700:4719  ipfsIsExists(_ipfs) */\n      jump\t// in\n    tag_69:\n        /* \"OneRingNFT_flat_flat.sol\":4679:4719  hashIsExists(_hash)&&ipfsIsExists(_ipfs) */\n    tag_68:\n        /* \"OneRingNFT_flat_flat.sol\":4671:4754  require(hashIsExists(_hash)&&ipfsIsExists(_ipfs),\"Unable to repeat the detection!\") */\n      tag_71\n      jumpi\n      mload(0x40)\n      0x08c379a000000000000000000000000000000000000000000000000000000000\n      dup2\n      mstore\n      0x04\n      add\n      tag_72\n      swap1\n      tag_73\n      jump\t// in\n    tag_72:\n      mload(0x40)\n      dup1\n      swap2\n      sub\n      swap1\n      revert\n    tag_71:\n        /* \"OneRingNFT_flat_flat.sol\":4779:4784  _hash */\n      dup3\n        /* \"OneRingNFT_flat_flat.sol\":4763:4767  nfts */\n      0x02\n        /* \"OneRingNFT_flat_flat.sol\":4763:4771  nfts[ID] */\n      0x00\n        /* \"OneRingNFT_flat_flat.sol\":4768:4770  ID */\n      sload(0x01)\n        /* \"OneRingNFT_flat_flat.sol\":4763:4771  nfts[ID] */\n      dup2\n      mstore\n      0x20\n      add\n      swap1\n      dup2\n      mstore\n      0x20\n      add\n      0x00\n      keccak256\n        /* \"OneRingNFT_flat_flat.sol\":4763:4776  nfts[ID].hash */\n      0x01\n      add\n        /* \"OneRingNFT_flat_flat.sol\":4763:4784  nfts[ID].hash = _hash */\n      swap1\n      dup1\n      mload\n      swap1\n      0x20\n      add\n      swap1\n      tag_74\n      swap3\n      swap2\n      swap1\n      tag_75\n      jump\t// in\n    tag_74:\n      pop\n        /* \"OneRingNFT_flat_flat.sol\":4809:4814  _ipfs */\n      dup2\n        /* \"OneRingNFT_flat_flat.sol\":4793:4797  nfts */\n      0x02\n        /* \"OneRingNFT_flat_flat.sol\":4793:4801  nfts[ID] */\n      0x00\n        /* \"OneRingNFT_flat_flat.sol\":4798:4800  ID */\n      sload(0x01)\n        /* \"OneRingNFT_flat_flat.sol\":4793:4801  nfts[ID] */\n      dup2\n      mstore\n      0x20\n      add\n      swap1\n      dup2\n      mstore\n      0x20\n      add\n      0x00\n      keccak256\n        /* \"OneRingNFT_flat_flat.sol\":4793:4806  nfts[ID].IPFS */\n      0x02\n      add\n        /* \"OneRingNFT_flat_flat.sol\":4793:4814  nfts[ID].IPFS = _ipfs */\n      swap1\n      dup1\n      mload\n      swap1\n      0x20\n      add\n      swap1\n      tag_76\n      swap3\n      swap2\n      swap1\n      tag_75\n      jump\t// in\n    tag_76:\n      pop\n        /* \"OneRingNFT_flat_flat.sol\":4840:4859  NFTState.Undetected */\n      0x00\n        /* \"OneRingNFT_flat_flat.sol\":4823:4827  nfts */\n      0x02\n        /* \"OneRingNFT_flat_flat.sol\":4823:4831  nfts[ID] */\n      0x00\n        /* \"OneRingNFT_flat_flat.sol\":4828:4830  ID */\n      sload(0x01)\n        /* \"OneRingNFT_flat_flat.sol\":4823:4831  nfts[ID] */\n      dup2\n      mstore\n      0x20\n      add\n      swap1\n      dup2\n      mstore\n      0x20\n      add\n      0x00\n      keccak256\n        /* \"OneRingNFT_flat_flat.sol\":4823:4837  nfts[ID].state */\n      0x00\n      add\n      0x00\n        /* \"OneRingNFT_flat_flat.sol\":4823:4859  nfts[ID].state = NFTState.Undetected */\n      0x0100\n      exp\n      dup2\n      sload\n      dup2\n      0xff\n      mul\n      not\n      and\n      swap1\n      dup4\n      0x01\n      dup2\n      gt\n      iszero\n      tag_77\n      jumpi\n      tag_78\n      tag_57\n      jump\t// in\n    tag_78:\n    tag_77:\n      mul\n      or\n      swap1\n      sstore\n      pop\n        /* \"OneRingNFT_flat_flat.sol\":4891:4896  false */\n      0x00\n        /* \"OneRingNFT_flat_flat.sol\":4869:4873  nfts */\n      0x02\n        /* \"OneRingNFT_flat_flat.sol\":4869:4877  nfts[ID] */\n      0x00\n        /* \"OneRingNFT_flat_flat.sol\":4874:4876  ID */\n      sload(0x01)\n        /* \"OneRingNFT_flat_flat.sol\":4869:4877  nfts[ID] */\n      dup2\n      mstore\n      0x20\n      add\n      swap1\n      dup2\n      mstore\n      0x20\n      add\n      0x00\n      keccak256\n        /* \"OneRingNFT_flat_flat.sol\":4869:4888  nfts[ID].isDetected */\n      0x03\n      add\n      0x00\n        /* \"OneRingNFT_flat_flat.sol\":4869:4896  nfts[ID].isDetected = false */\n      0x0100\n      exp\n      dup2\n      sload\n      dup2\n      0xff\n      mul\n      not\n      and\n      swap1\n      dup4\n      iszero\n      iszero\n      mul\n      or\n      swap1\n      sstore\n      pop\n        /* \"OneRingNFT_flat_flat.sol\":4923:4928  false */\n      0x00\n        /* \"OneRingNFT_flat_flat.sol\":4905:4909  nfts */\n      0x02\n        /* \"OneRingNFT_flat_flat.sol\":4905:4913  nfts[ID] */\n      0x00\n        /* \"OneRingNFT_flat_flat.sol\":4910:4912  ID */\n      sload(0x01)\n        /* \"OneRingNFT_flat_flat.sol\":4905:4913  nfts[ID] */\n      dup2\n      mstore\n      0x20\n      add\n      swap1\n      dup2\n      mstore\n      0x20\n      add\n      0x00\n      keccak256\n        /* \"OneRingNFT_flat_flat.sol\":4905:4920  nfts[ID].result */\n      0x03\n      add\n      0x01\n        /* \"OneRingNFT_flat_flat.sol\":4905:4928  nfts[ID].result = false */\n      0x0100\n      exp\n      dup2\n      sload\n      dup2\n      0xff\n      mul\n      not\n      and\n      swap1\n      dup4\n      iszero\n      iszero\n      mul\n      or\n      swap1\n      sstore\n      pop\n        /* \"OneRingNFT_flat_flat.sol\":4957:4967  msg.sender */\n      caller\n        /* \"OneRingNFT_flat_flat.sol\":4937:4941  nfts */\n      0x02\n        /* \"OneRingNFT_flat_flat.sol\":4937:4945  nfts[ID] */\n      0x00\n        /* \"OneRingNFT_flat_flat.sol\":4942:4944  ID */\n      sload(0x01)\n        /* \"OneRingNFT_flat_flat.sol\":4937:4945  nfts[ID] */\n      dup2\n      mstore\n      0x20\n      add\n      swap1\n      dup2\n      mstore\n      0x20\n      add\n      0x00\n      keccak256\n        /* \"OneRingNFT_flat_flat.sol\":4937:4954  nfts[ID].uploader */\n      0x03\n      add\n      0x02\n        /* \"OneRingNFT_flat_flat.sol\":4937:4967  nfts[ID].uploader = msg.sender */\n      0x0100\n      exp\n      dup2\n      sload\n      dup2\n      0xffffffffffffffffffffffffffffffffffffffff\n      mul\n      not\n      and\n      swap1\n      dup4\n      0xffffffffffffffffffffffffffffffffffffffff\n      and\n      mul\n      or\n      swap1\n      sstore\n      pop\n        /* \"OneRingNFT_flat_flat.sol\":4984:4985  1 */\n      0x01\n        /* \"OneRingNFT_flat_flat.sol\":4981:4983  ID */\n      dup1\n      sload\n        /* \"OneRingNFT_flat_flat.sol\":4981:4985  ID+1 */\n      tag_79\n      swap2\n      swap1\n      tag_80\n      jump\t// in\n    tag_79:\n        /* \"OneRingNFT_flat_flat.sol\":4976:4978  ID */\n      0x01\n        /* \"OneRingNFT_flat_flat.sol\":4976:4985  ID = ID+1 */\n      dup2\n      swap1\n      sstore\n      pop\n        /* \"OneRingNFT_flat_flat.sol\":5004:5005  1 */\n      0x01\n        /* \"OneRingNFT_flat_flat.sol\":5001:5003  ID */\n      dup1\n      sload\n        /* \"OneRingNFT_flat_flat.sol\":5001:5005  ID-1 */\n      tag_81\n      swap2\n      swap1\n      tag_82\n      jump\t// in\n    tag_81:\n        /* \"OneRingNFT_flat_flat.sol\":4994:5005  return ID-1 */\n      swap1\n      pop\n        /* \"OneRingNFT_flat_flat.sol\":4578:5011  function uploadNFT(string memory _hash,string memory _ipfs)  public returns(uint256){... */\n      swap3\n      swap2\n      pop\n      pop\n      jump\t// out\n        /* \"OneRingNFT_flat_flat.sol\":2557:2658  function renounceOwnership() public virtual onlyOwner {... */\n    tag_23:\n        /* \"OneRingNFT_flat_flat.sol\":2148:2160  _msgSender() */\n      tag_84\n        /* \"OneRingNFT_flat_flat.sol\":2148:2158  _msgSender */\n      tag_48\n        /* \"OneRingNFT_flat_flat.sol\":2148:2160  _msgSender() */\n      jump\t// in\n    tag_84:\n        /* \"OneRingNFT_flat_flat.sol\":2137:2160  owner() == _msgSender() */\n      0xffffffffffffffffffffffffffffffffffffffff\n      and\n        /* \"OneRingNFT_flat_flat.sol\":2137:2144  owner() */\n      tag_85\n        /* \"OneRingNFT_flat_flat.sol\":2137:2142  owner */\n      tag_25\n        /* \"OneRingNFT_flat_flat.sol\":2137:2144  owner() */\n      jump\t// in\n    tag_85:\n        /* \"OneRingNFT_flat_flat.sol\":2137:2160  owner() == _msgSender() */\n      0xffffffffffffffffffffffffffffffffffffffff\n      and\n      eq\n        /* \"OneRingNFT_flat_flat.sol\":2129:2197  require(owner() == _msgSender(), \"Ownable: caller is not the owner\") */\n      tag_86\n      jumpi\n      mload(0x40)\n      0x08c379a000000000000000000000000000000000000000000000000000000000\n      dup2\n      mstore\n      0x04\n      add\n      tag_87\n      swap1\n      tag_52\n      jump\t// in\n    tag_87:\n      mload(0x40)\n      dup1\n      swap2\n      sub\n      swap1\n      revert\n    tag_86:\n        /* \"OneRingNFT_flat_flat.sol\":2621:2651  _transferOwnership(address(0)) */\n      tag_89\n        /* \"OneRingNFT_flat_flat.sol\":2648:2649  0 */\n      0x00\n        /* \"OneRingNFT_flat_flat.sol\":2621:2639  _transferOwnership */\n      tag_90\n        /* \"OneRingNFT_flat_flat.sol\":2621:2651  _transferOwnership(address(0)) */\n      jump\t// in\n    tag_89:\n        /* \"OneRingNFT_flat_flat.sol\":2557:2658  function renounceOwnership() public virtual onlyOwner {... */\n      jump\t// out\n        /* \"OneRingNFT_flat_flat.sol\":1925:2010  function owner() public view virtual returns (address) {... */\n    tag_25:\n        /* \"OneRingNFT_flat_flat.sol\":1971:1978  address */\n      0x00\n        /* \"OneRingNFT_flat_flat.sol\":1997:2003  _owner */\n      dup1\n      0x00\n      swap1\n      sload\n      swap1\n      0x0100\n      exp\n      swap1\n      div\n      0xffffffffffffffffffffffffffffffffffffffff\n      and\n        /* \"OneRingNFT_flat_flat.sol\":1990:2003  return _owner */\n      swap1\n      pop\n        /* \"OneRingNFT_flat_flat.sol\":1925:2010  function owner() public view virtual returns (address) {... */\n      swap1\n      jump\t// out\n        /* \"OneRingNFT_flat_flat.sol\":3805:3823  uint public ID = 1 */\n    tag_29:\n      sload(0x01)\n      dup2\n      jump\t// out\n        /* \"OneRingNFT_flat_flat.sol\":4299:4555  function checkNFTByID(uint _ID) public view returns(bool){... */\n    tag_34:\n        /* \"OneRingNFT_flat_flat.sol\":4351:4355  bool */\n      0x00\n        /* \"OneRingNFT_flat_flat.sol\":4455:4457  ID */\n      sload(0x01)\n        /* \"OneRingNFT_flat_flat.sol\":4451:4454  _ID */\n      dup3\n        /* \"OneRingNFT_flat_flat.sol\":4451:4457  _ID<ID */\n      lt\n        /* \"OneRingNFT_flat_flat.sol\":4443:4488  require(_ID<ID,\"This ID of NFT don't exists\") */\n      tag_93\n      jumpi\n      mload(0x40)\n      0x08c379a000000000000000000000000000000000000000000000000000000000\n      dup2\n      mstore\n      0x04\n      add\n      tag_94\n      swap1\n      tag_95\n      jump\t// in\n    tag_94:\n      mload(0x40)\n      dup1\n      swap2\n      sub\n      swap1\n      revert\n    tag_93:\n        /* \"OneRingNFT_flat_flat.sol\":4497:4511  NFT memory nft */\n      0x00\n        /* \"OneRingNFT_flat_flat.sol\":4514:4518  nfts */\n      0x02\n        /* \"OneRingNFT_flat_flat.sol\":4514:4523  nfts[_ID] */\n      0x00\n        /* \"OneRingNFT_flat_flat.sol\":4519:4522  _ID */\n      dup5\n        /* \"OneRingNFT_flat_flat.sol\":4514:4523  nfts[_ID] */\n      dup2\n      mstore\n      0x20\n      add\n      swap1\n      dup2\n      mstore\n      0x20\n      add\n      0x00\n      keccak256\n        /* \"OneRingNFT_flat_flat.sol\":4497:4523  NFT memory nft = nfts[_ID] */\n      mload(0x40)\n      dup1\n      0xc0\n      add\n      0x40\n      mstore\n      swap1\n      dup2\n      0x00\n      dup3\n      add\n      0x00\n      swap1\n      sload\n      swap1\n      0x0100\n      exp\n      swap1\n      div\n      0xff\n      and\n      0x01\n      dup2\n      gt\n      iszero\n      tag_96\n      jumpi\n      tag_97\n      tag_57\n      jump\t// in\n    tag_97:\n    tag_96:\n      0x01\n      dup2\n      gt\n      iszero\n      tag_98\n      jumpi\n      tag_99\n      tag_57\n      jump\t// in\n    tag_99:\n    tag_98:\n      dup2\n      mstore\n      0x20\n      add\n      0x01\n      dup3\n      add\n      dup1\n      sload\n      tag_100\n      swap1\n      tag_101\n      jump\t// in\n    tag_100:\n      dup1\n      0x1f\n      add\n      0x20\n      dup1\n      swap2\n      div\n      mul\n      0x20\n      add\n      mload(0x40)\n      swap1\n      dup2\n      add\n      0x40\n      mstore\n      dup1\n      swap3\n      swap2\n      swap1\n      dup2\n      dup2\n      mstore\n      0x20\n      add\n      dup3\n      dup1\n      sload\n      tag_102\n      swap1\n      tag_101\n      jump\t// in\n    tag_102:\n      dup1\n      iszero\n      tag_103\n      jumpi\n      dup1\n      0x1f\n      lt\n      tag_104\n      jumpi\n      0x0100\n      dup1\n      dup4\n      sload\n      div\n      mul\n      dup4\n      mstore\n      swap2\n      0x20\n      add\n      swap2\n      jump(tag_103)\n    tag_104:\n      dup3\n      add\n      swap2\n      swap1\n      0x00\n      mstore\n      keccak256(0x00, 0x20)\n      swap1\n    tag_105:\n      dup2\n      sload\n      dup2\n      mstore\n      swap1\n      0x01\n      add\n      swap1\n      0x20\n      add\n      dup1\n      dup4\n      gt\n      tag_105\n      jumpi\n      dup3\n      swap1\n      sub\n      0x1f\n      and\n      dup3\n      add\n      swap2\n    tag_103:\n      pop\n      pop\n      pop\n      pop\n      pop\n      dup2\n      mstore\n      0x20\n      add\n      0x02\n      dup3\n      add\n      dup1\n      sload\n      tag_106\n      swap1\n      tag_101\n      jump\t// in\n    tag_106:\n      dup1\n      0x1f\n      add\n      0x20\n      dup1\n      swap2\n      div\n      mul\n      0x20\n      add\n      mload(0x40)\n      swap1\n      dup2\n      add\n      0x40\n      mstore\n      dup1\n      swap3\n      swap2\n      swap1\n      dup2\n      dup2\n      mstore\n      0x20\n      add\n      dup3\n      dup1\n      sload\n      tag_107\n      swap1\n      tag_101\n      jump\t// in\n    tag_107:\n      dup1\n      iszero\n      tag_108\n      jumpi\n      dup1\n      0x1f\n      lt\n      tag_109\n      jumpi\n      0x0100\n      dup1\n      dup4\n      sload\n      div\n      mul\n      dup4\n      mstore\n      swap2\n      0x20\n      add\n      swap2\n      jump(tag_108)\n    tag_109:\n      dup3\n      add\n      swap2\n      swap1\n      0x00\n      mstore\n      keccak256(0x00, 0x20)\n      swap1\n    tag_110:\n      dup2\n      sload\n      dup2\n      mstore\n      swap1\n      0x01\n      add\n      swap1\n      0x20\n      add\n      dup1\n      dup4\n      gt\n      tag_110\n      jumpi\n      dup3\n      swap1\n      sub\n      0x1f\n      and\n      dup3\n      add\n      swap2\n    tag_108:\n      pop\n      pop\n      pop\n      pop\n      pop\n      dup2\n      mstore\n      0x20\n      add\n      0x03\n      dup3\n      add\n      0x00\n      swap1\n      sload\n      swap1\n      0x0100\n      exp\n      swap1\n      div\n      0xff\n      and\n      iszero\n      iszero\n      iszero\n      iszero\n      dup2\n      mstore\n      0x20\n      add\n      0x03\n      dup3\n      add\n      0x01\n      swap1\n      sload\n      swap1\n      0x0100\n      exp\n      swap1\n      div\n      0xff\n      and\n      iszero\n      iszero\n      iszero\n      iszero\n      dup2\n      mstore\n      0x20\n      add\n      0x03\n      dup3\n      add\n      0x02\n      swap1\n      sload\n      swap1\n      0x0100\n      exp\n      swap1\n      div\n      0xffffffffffffffffffffffffffffffffffffffff\n      and\n      0xffffffffffffffffffffffffffffffffffffffff\n      and\n      0xffffffffffffffffffffffffffffffffffffffff\n      and\n      dup2\n      mstore\n      pop\n      pop\n      swap1\n      pop\n        /* \"OneRingNFT_flat_flat.sol\":4539:4542  nft */\n      dup1\n        /* \"OneRingNFT_flat_flat.sol\":4539:4549  nft.result */\n      0x80\n      add\n      mload\n        /* \"OneRingNFT_flat_flat.sol\":4532:4549  return nft.result */\n      swap2\n      pop\n      pop\n        /* \"OneRingNFT_flat_flat.sol\":4299:4555  function checkNFTByID(uint _ID) public view returns(bool){... */\n      swap2\n      swap1\n      pop\n      jump\t// out\n        /* \"OneRingNFT_flat_flat.sol\":3972:4229  function checkNFTByHash(string memory _hash) public view returns(bool) {... */\n    tag_40:\n        /* \"OneRingNFT_flat_flat.sol\":4037:4041  bool */\n      0x00\n        /* \"OneRingNFT_flat_flat.sol\":4056:4062  uint i */\n      dup1\n        /* \"OneRingNFT_flat_flat.sol\":4063:4064  0 */\n      0x00\n        /* \"OneRingNFT_flat_flat.sol\":4056:4064  uint i=0 */\n      swap1\n      pop\n        /* \"OneRingNFT_flat_flat.sol\":4052:4202  for(uint i=0;i<ID;i++){... */\n    tag_112:\n        /* \"OneRingNFT_flat_flat.sol\":4067:4069  ID */\n      sload(0x01)\n        /* \"OneRingNFT_flat_flat.sol\":4065:4066  i */\n      dup2\n        /* \"OneRingNFT_flat_flat.sol\":4065:4069  i<ID */\n      lt\n        /* \"OneRingNFT_flat_flat.sol\":4052:4202  for(uint i=0;i<ID;i++){... */\n      iszero\n      tag_113\n      jumpi\n        /* \"OneRingNFT_flat_flat.sol\":4091:4125  compareStrings(nfts[i].hash,_hash) */\n      tag_115\n        /* \"OneRingNFT_flat_flat.sol\":4106:4110  nfts */\n      0x02\n        /* \"OneRingNFT_flat_flat.sol\":4106:4113  nfts[i] */\n      0x00\n        /* \"OneRingNFT_flat_flat.sol\":4111:4112  i */\n      dup4\n        /* \"OneRingNFT_flat_flat.sol\":4106:4113  nfts[i] */\n      dup2\n      mstore\n      0x20\n      add\n      swap1\n      dup2\n      mstore\n      0x20\n      add\n      0x00\n      keccak256\n        /* \"OneRingNFT_flat_flat.sol\":4106:4118  nfts[i].hash */\n      0x01\n      add\n        /* \"OneRingNFT_flat_flat.sol\":4091:4125  compareStrings(nfts[i].hash,_hash) */\n      dup1\n      sload\n      tag_116\n      swap1\n      tag_101\n      jump\t// in\n    tag_116:\n      dup1\n      0x1f\n      add\n      0x20\n      dup1\n      swap2\n      div\n      mul\n      0x20\n      add\n      mload(0x40)\n      swap1\n      dup2\n      add\n      0x40\n      mstore\n      dup1\n      swap3\n      swap2\n      swap1\n      dup2\n      dup2\n      mstore\n      0x20\n      add\n      dup3\n      dup1\n      sload\n      tag_117\n      swap1\n      tag_101\n      jump\t// in\n    tag_117:\n      dup1\n      iszero\n      tag_118\n      jumpi\n      dup1\n      0x1f\n      lt\n      tag_119\n      jumpi\n      0x0100\n      dup1\n      dup4\n      sload\n      div\n      mul\n      dup4\n      mstore\n      swap2\n      0x20\n      add\n      swap2\n      jump(tag_118)\n    tag_119:\n      dup3\n      add\n      swap2\n      swap1\n      0x00\n      mstore\n      keccak256(0x00, 0x20)\n      swap1\n    tag_120:\n      dup2\n      sload\n      dup2\n      mstore\n      swap1\n      0x01\n      add\n      swap1\n      0x20\n      add\n      dup1\n      dup4\n      gt\n      tag_120\n      jumpi\n      dup3\n      swap1\n      sub\n      0x1f\n      and\n      dup3\n      add\n      swap2\n    tag_118:\n      pop\n      pop\n      pop\n      pop\n      pop\n        /* \"OneRingNFT_flat_flat.sol\":4119:4124  _hash */\n      dup5\n        /* \"OneRingNFT_flat_flat.sol\":4091:4105  compareStrings */\n      tag_121\n        /* \"OneRingNFT_flat_flat.sol\":4091:4125  compareStrings(nfts[i].hash,_hash) */\n      jump\t// in\n    tag_115:\n        /* \"OneRingNFT_flat_flat.sol\":4091:4147  compareStrings(nfts[i].hash,_hash)&&nfts[i].result==true */\n      dup1\n      iszero\n      tag_122\n      jumpi\n      pop\n        /* \"OneRingNFT_flat_flat.sol\":4143:4147  true */\n      0x01\n        /* \"OneRingNFT_flat_flat.sol\":4127:4147  nfts[i].result==true */\n      iszero\n      iszero\n        /* \"OneRingNFT_flat_flat.sol\":4127:4131  nfts */\n      0x02\n        /* \"OneRingNFT_flat_flat.sol\":4127:4134  nfts[i] */\n      0x00\n        /* \"OneRingNFT_flat_flat.sol\":4132:4133  i */\n      dup4\n        /* \"OneRingNFT_flat_flat.sol\":4127:4134  nfts[i] */\n      dup2\n      mstore\n      0x20\n      add\n      swap1\n      dup2\n      mstore\n      0x20\n      add\n      0x00\n      keccak256\n        /* \"OneRingNFT_flat_flat.sol\":4127:4141  nfts[i].result */\n      0x03\n      add\n      0x01\n      swap1\n      sload\n      swap1\n      0x0100\n      exp\n      swap1\n      div\n      0xff\n      and\n        /* \"OneRingNFT_flat_flat.sol\":4127:4147  nfts[i].result==true */\n      iszero\n      iszero\n      eq\n        /* \"OneRingNFT_flat_flat.sol\":4091:4147  compareStrings(nfts[i].hash,_hash)&&nfts[i].result==true */\n    tag_122:\n        /* \"OneRingNFT_flat_flat.sol\":4088:4192  if(compareStrings(nfts[i].hash,_hash)&&nfts[i].result==true){... */\n      iszero\n      tag_123\n      jumpi\n        /* \"OneRingNFT_flat_flat.sol\":4173:4177  true */\n      0x01\n        /* \"OneRingNFT_flat_flat.sol\":4166:4177  return true */\n      swap2\n      pop\n      pop\n      jump(tag_111)\n        /* \"OneRingNFT_flat_flat.sol\":4088:4192  if(compareStrings(nfts[i].hash,_hash)&&nfts[i].result==true){... */\n    tag_123:\n        /* \"OneRingNFT_flat_flat.sol\":4070:4073  i++ */\n      dup1\n      dup1\n      tag_124\n      swap1\n      tag_125\n      jump\t// in\n    tag_124:\n      swap2\n      pop\n      pop\n        /* \"OneRingNFT_flat_flat.sol\":4052:4202  for(uint i=0;i<ID;i++){... */\n      jump(tag_112)\n    tag_113:\n      pop\n        /* \"OneRingNFT_flat_flat.sol\":4218:4223  false */\n      0x00\n        /* \"OneRingNFT_flat_flat.sol\":4211:4223  return false */\n      swap1\n      pop\n        /* \"OneRingNFT_flat_flat.sol\":3972:4229  function checkNFTByHash(string memory _hash) public view returns(bool) {... */\n    tag_111:\n      swap2\n      swap1\n      pop\n      jump\t// out\n        /* \"OneRingNFT_flat_flat.sol\":2807:3005  function transferOwnership(address newOwner) public virtual onlyOwner {... */\n    tag_45:\n        /* \"OneRingNFT_flat_flat.sol\":2148:2160  _msgSender() */\n      tag_127\n        /* \"OneRingNFT_flat_flat.sol\":2148:2158  _msgSender */\n      tag_48\n        /* \"OneRingNFT_flat_flat.sol\":2148:2160  _msgSender() */\n      jump\t// in\n    tag_127:\n        /* \"OneRingNFT_flat_flat.sol\":2137:2160  owner() == _msgSender() */\n      0xffffffffffffffffffffffffffffffffffffffff\n      and\n        /* \"OneRingNFT_flat_flat.sol\":2137:2144  owner() */\n      tag_128\n        /* \"OneRingNFT_flat_flat.sol\":2137:2142  owner */\n      tag_25\n        /* \"OneRingNFT_flat_flat.sol\":2137:2144  owner() */\n      jump\t// in\n    tag_128:\n        /* \"OneRingNFT_flat_flat.sol\":2137:2160  owner() == _msgSender() */\n      0xffffffffffffffffffffffffffffffffffffffff\n      and\n      eq\n        /* \"OneRingNFT_flat_flat.sol\":2129:2197  require(owner() == _msgSender(), \"Ownable: caller is not the owner\") */\n      tag_129\n      jumpi\n      mload(0x40)\n      0x08c379a000000000000000000000000000000000000000000000000000000000\n      dup2\n      mstore\n      0x04\n      add\n      tag_130\n      swap1\n      tag_52\n      jump\t// in\n    tag_130:\n      mload(0x40)\n      dup1\n      swap2\n      sub\n      swap1\n      revert\n    tag_129:\n        /* \"OneRingNFT_flat_flat.sol\":2915:2916  0 */\n      0x00\n        /* \"OneRingNFT_flat_flat.sol\":2895:2917  newOwner != address(0) */\n      0xffffffffffffffffffffffffffffffffffffffff\n      and\n        /* \"OneRingNFT_flat_flat.sol\":2895:2903  newOwner */\n      dup2\n        /* \"OneRingNFT_flat_flat.sol\":2895:2917  newOwner != address(0) */\n      0xffffffffffffffffffffffffffffffffffffffff\n      and\n      eq\n      iszero\n        /* \"OneRingNFT_flat_flat.sol\":2887:2960  require(newOwner != address(0), \"Ownable: new owner is the zero address\") */\n      tag_132\n      jumpi\n      mload(0x40)\n      0x08c379a000000000000000000000000000000000000000000000000000000000\n      dup2\n      mstore\n      0x04\n      add\n      tag_133\n      swap1\n      tag_134\n      jump\t// in\n    tag_133:\n      mload(0x40)\n      dup1\n      swap2\n      sub\n      swap1\n      revert\n    tag_132:\n        /* \"OneRingNFT_flat_flat.sol\":2970:2998  _transferOwnership(newOwner) */\n      tag_135\n        /* \"OneRingNFT_flat_flat.sol\":2989:2997  newOwner */\n      dup2\n        /* \"OneRingNFT_flat_flat.sol\":2970:2988  _transferOwnership */\n      tag_90\n        /* \"OneRingNFT_flat_flat.sol\":2970:2998  _transferOwnership(newOwner) */\n      jump\t// in\n    tag_135:\n        /* \"OneRingNFT_flat_flat.sol\":2807:3005  function transferOwnership(address newOwner) public virtual onlyOwner {... */\n      pop\n      jump\t// out\n        /* \"OneRingNFT_flat_flat.sol\":693:789  function _msgSender() internal view virtual returns (address) {... */\n    tag_48:\n        /* \"OneRingNFT_flat_flat.sol\":746:753  address */\n      0x00\n        /* \"OneRingNFT_flat_flat.sol\":772:782  msg.sender */\n      caller\n        /* \"OneRingNFT_flat_flat.sol\":765:782  return msg.sender */\n      swap1\n      pop\n        /* \"OneRingNFT_flat_flat.sol\":693:789  function _msgSender() internal view virtual returns (address) {... */\n      swap1\n      jump\t// out\n        /* \"OneRingNFT_flat_flat.sol\":5518:5754  function  hashIsExists(string memory _hash) private view returns(bool){... */\n    tag_67:\n        /* \"OneRingNFT_flat_flat.sol\":5583:5587  bool */\n      0x00\n        /* \"OneRingNFT_flat_flat.sol\":5602:5608  uint i */\n      dup1\n        /* \"OneRingNFT_flat_flat.sol\":5609:5610  0 */\n      0x00\n        /* \"OneRingNFT_flat_flat.sol\":5602:5610  uint i=0 */\n      swap1\n      pop\n        /* \"OneRingNFT_flat_flat.sol\":5598:5727  for(uint i=0;i<ID;i++){... */\n    tag_138:\n        /* \"OneRingNFT_flat_flat.sol\":5613:5615  ID */\n      sload(0x01)\n        /* \"OneRingNFT_flat_flat.sol\":5611:5612  i */\n      dup2\n        /* \"OneRingNFT_flat_flat.sol\":5611:5615  i<ID */\n      lt\n        /* \"OneRingNFT_flat_flat.sol\":5598:5727  for(uint i=0;i<ID;i++){... */\n      iszero\n      tag_139\n      jumpi\n        /* \"OneRingNFT_flat_flat.sol\":5637:5671  compareStrings(nfts[i].hash,_hash) */\n      tag_141\n        /* \"OneRingNFT_flat_flat.sol\":5652:5656  nfts */\n      0x02\n        /* \"OneRingNFT_flat_flat.sol\":5652:5659  nfts[i] */\n      0x00\n        /* \"OneRingNFT_flat_flat.sol\":5657:5658  i */\n      dup4\n        /* \"OneRingNFT_flat_flat.sol\":5652:5659  nfts[i] */\n      dup2\n      mstore\n      0x20\n      add\n      swap1\n      dup2\n      mstore\n      0x20\n      add\n      0x00\n      keccak256\n        /* \"OneRingNFT_flat_flat.sol\":5652:5664  nfts[i].hash */\n      0x01\n      add\n        /* \"OneRingNFT_flat_flat.sol\":5637:5671  compareStrings(nfts[i].hash,_hash) */\n      dup1\n      sload\n      tag_142\n      swap1\n      tag_101\n      jump\t// in\n    tag_142:\n      dup1\n      0x1f\n      add\n      0x20\n      dup1\n      swap2\n      div\n      mul\n      0x20\n      add\n      mload(0x40)\n      swap1\n      dup2\n      add\n      0x40\n      mstore\n      dup1\n      swap3\n      swap2\n      swap1\n      dup2\n      dup2\n      mstore\n      0x20\n      add\n      dup3\n      dup1\n      sload\n      tag_143\n      swap1\n      tag_101\n      jump\t// in\n    tag_143:\n      dup1\n      iszero\n      tag_144\n      jumpi\n      dup1\n      0x1f\n      lt\n      tag_145\n      jumpi\n      0x0100\n      dup1\n      dup4\n      sload\n      div\n      mul\n      dup4\n      mstore\n      swap2\n      0x20\n      add\n      swap2\n      jump(tag_144)\n    tag_145:\n      dup3\n      add\n      swap2\n      swap1\n      0x00\n      mstore\n      keccak256(0x00, 0x20)\n      swap1\n    tag_146:\n      dup2\n      sload\n      dup2\n      mstore\n      swap1\n      0x01\n      add\n      swap1\n      0x20\n      add\n      dup1\n      dup4\n      gt\n      tag_146\n      jumpi\n      dup3\n      swap1\n      sub\n      0x1f\n      and\n      dup3\n      add\n      swap2\n    tag_144:\n      pop\n      pop\n      pop\n      pop\n      pop\n        /* \"OneRingNFT_flat_flat.sol\":5665:5670  _hash */\n      dup5\n        /* \"OneRingNFT_flat_flat.sol\":5637:5651  compareStrings */\n      tag_121\n        /* \"OneRingNFT_flat_flat.sol\":5637:5671  compareStrings(nfts[i].hash,_hash) */\n      jump\t// in\n    tag_141:\n        /* \"OneRingNFT_flat_flat.sol\":5634:5717  if(compareStrings(nfts[i].hash,_hash)){... */\n      iszero\n      tag_147\n      jumpi\n        /* \"OneRingNFT_flat_flat.sol\":5697:5702  false */\n      0x00\n        /* \"OneRingNFT_flat_flat.sol\":5690:5702  return false */\n      swap2\n      pop\n      pop\n      jump(tag_137)\n        /* \"OneRingNFT_flat_flat.sol\":5634:5717  if(compareStrings(nfts[i].hash,_hash)){... */\n    tag_147:\n        /* \"OneRingNFT_flat_flat.sol\":5616:5619  i++ */\n      dup1\n      dup1\n      tag_148\n      swap1\n      tag_125\n      jump\t// in\n    tag_148:\n      swap2\n      pop\n      pop\n        /* \"OneRingNFT_flat_flat.sol\":5598:5727  for(uint i=0;i<ID;i++){... */\n      jump(tag_138)\n    tag_139:\n      pop\n        /* \"OneRingNFT_flat_flat.sol\":5743:5747  true */\n      0x01\n        /* \"OneRingNFT_flat_flat.sol\":5736:5747  return true */\n      swap1\n      pop\n        /* \"OneRingNFT_flat_flat.sol\":5518:5754  function  hashIsExists(string memory _hash) private view returns(bool){... */\n    tag_137:\n      swap2\n      swap1\n      pop\n      jump\t// out\n        /* \"OneRingNFT_flat_flat.sol\":5759:5994  function ipfsIsExists(string memory _ipfs) private view returns(bool){... */\n    tag_70:\n        /* \"OneRingNFT_flat_flat.sol\":5823:5827  bool */\n      0x00\n        /* \"OneRingNFT_flat_flat.sol\":5842:5848  uint i */\n      dup1\n        /* \"OneRingNFT_flat_flat.sol\":5849:5850  0 */\n      0x00\n        /* \"OneRingNFT_flat_flat.sol\":5842:5850  uint i=0 */\n      swap1\n      pop\n        /* \"OneRingNFT_flat_flat.sol\":5838:5967  for(uint i=0;i<ID;i++){... */\n    tag_150:\n        /* \"OneRingNFT_flat_flat.sol\":5853:5855  ID */\n      sload(0x01)\n        /* \"OneRingNFT_flat_flat.sol\":5851:5852  i */\n      dup2\n        /* \"OneRingNFT_flat_flat.sol\":5851:5855  i<ID */\n      lt\n        /* \"OneRingNFT_flat_flat.sol\":5838:5967  for(uint i=0;i<ID;i++){... */\n      iszero\n      tag_151\n      jumpi\n        /* \"OneRingNFT_flat_flat.sol\":5877:5911  compareStrings(nfts[i].IPFS,_ipfs) */\n      tag_153\n        /* \"OneRingNFT_flat_flat.sol\":5892:5896  nfts */\n      0x02\n        /* \"OneRingNFT_flat_flat.sol\":5892:5899  nfts[i] */\n      0x00\n        /* \"OneRingNFT_flat_flat.sol\":5897:5898  i */\n      dup4\n        /* \"OneRingNFT_flat_flat.sol\":5892:5899  nfts[i] */\n      dup2\n      mstore\n      0x20\n      add\n      swap1\n      dup2\n      mstore\n      0x20\n      add\n      0x00\n      keccak256\n        /* \"OneRingNFT_flat_flat.sol\":5892:5904  nfts[i].IPFS */\n      0x02\n      add\n        /* \"OneRingNFT_flat_flat.sol\":5877:5911  compareStrings(nfts[i].IPFS,_ipfs) */\n      dup1\n      sload\n      tag_154\n      swap1\n      tag_101\n      jump\t// in\n    tag_154:\n      dup1\n      0x1f\n      add\n      0x20\n      dup1\n      swap2\n      div\n      mul\n      0x20\n      add\n      mload(0x40)\n      swap1\n      dup2\n      add\n      0x40\n      mstore\n      dup1\n      swap3\n      swap2\n      swap1\n      dup2\n      dup2\n      mstore\n      0x20\n      add\n      dup3\n      dup1\n      sload\n      tag_155\n      swap1\n      tag_101\n      jump\t// in\n    tag_155:\n      dup1\n      iszero\n      tag_156\n      jumpi\n      dup1\n      0x1f\n      lt\n      tag_157\n      jumpi\n      0x0100\n      dup1\n      dup4\n      sload\n      div\n      mul\n      dup4\n      mstore\n      swap2\n      0x20\n      add\n      swap2\n      jump(tag_156)\n    tag_157:\n      dup3\n      add\n      swap2\n      swap1\n      0x00\n      mstore\n      keccak256(0x00, 0x20)\n      swap1\n    tag_158:\n      dup2\n      sload\n      dup2\n      mstore\n      swap1\n      0x01\n      add\n      swap1\n      0x20\n      add\n      dup1\n      dup4\n      gt\n      tag_158\n      jumpi\n      dup3\n      swap1\n      sub\n      0x1f\n      and\n      dup3\n      add\n      swap2\n    tag_156:\n      pop\n      pop\n      pop\n      pop\n      pop\n        /* \"OneRingNFT_flat_flat.sol\":5905:5910  _ipfs */\n      dup5\n        /* \"OneRingNFT_flat_flat.sol\":5877:5891  compareStrings */\n      tag_121\n        /* \"OneRingNFT_flat_flat.sol\":5877:5911  compareStrings(nfts[i].IPFS,_ipfs) */\n      jump\t// in\n    tag_153:\n        /* \"OneRingNFT_flat_flat.sol\":5874:5957  if(compareStrings(nfts[i].IPFS,_ipfs)){... */\n      iszero\n      tag_159\n      jumpi\n        /* \"OneRingNFT_flat_flat.sol\":5937:5942  false */\n      0x00\n        /* \"OneRingNFT_flat_flat.sol\":5930:5942  return false */\n      swap2\n      pop\n      pop\n      jump(tag_149)\n        /* \"OneRingNFT_flat_flat.sol\":5874:5957  if(compareStrings(nfts[i].IPFS,_ipfs)){... */\n    tag_159:\n        /* \"OneRingNFT_flat_flat.sol\":5856:5859  i++ */\n      dup1\n      dup1\n      tag_160\n      swap1\n      tag_125\n      jump\t// in\n    tag_160:\n      swap2\n      pop\n      pop\n        /* \"OneRingNFT_flat_flat.sol\":5838:5967  for(uint i=0;i<ID;i++){... */\n      jump(tag_150)\n    tag_151:\n      pop\n        /* \"OneRingNFT_flat_flat.sol\":5983:5987  true */\n      0x01\n        /* \"OneRingNFT_flat_flat.sol\":5976:5987  return true */\n      swap1\n      pop\n        /* \"OneRingNFT_flat_flat.sol\":5759:5994  function ipfsIsExists(string memory _ipfs) private view returns(bool){... */\n    tag_149:\n      swap2\n      swap1\n      pop\n      jump\t// out\n        /* \"OneRingNFT_flat_flat.sol\":3159:3346  function _transferOwnership(address newOwner) internal virtual {... */\n    tag_90:\n        /* \"OneRingNFT_flat_flat.sol\":3232:3248  address oldOwner */\n      0x00\n        /* \"OneRingNFT_flat_flat.sol\":3251:3257  _owner */\n      dup1\n      0x00\n      swap1\n      sload\n      swap1\n      0x0100\n      exp\n      swap1\n      div\n      0xffffffffffffffffffffffffffffffffffffffff\n      and\n        /* \"OneRingNFT_flat_flat.sol\":3232:3257  address oldOwner = _owner */\n      swap1\n      pop\n        /* \"OneRingNFT_flat_flat.sol\":3276:3284  newOwner */\n      dup2\n        /* \"OneRingNFT_flat_flat.sol\":3267:3273  _owner */\n      0x00\n      dup1\n        /* \"OneRingNFT_flat_flat.sol\":3267:3284  _owner = newOwner */\n      0x0100\n      exp\n      dup2\n      sload\n      dup2\n      0xffffffffffffffffffffffffffffffffffffffff\n      mul\n      not\n      and\n      swap1\n      dup4\n      0xffffffffffffffffffffffffffffffffffffffff\n      and\n      mul\n      or\n      swap1\n      sstore\n      pop\n        /* \"OneRingNFT_flat_flat.sol\":3330:3338  newOwner */\n      dup2\n        /* \"OneRingNFT_flat_flat.sol\":3299:3339  OwnershipTransferred(oldOwner, newOwner) */\n      0xffffffffffffffffffffffffffffffffffffffff\n      and\n        /* \"OneRingNFT_flat_flat.sol\":3320:3328  oldOwner */\n      dup2\n        /* \"OneRingNFT_flat_flat.sol\":3299:3339  OwnershipTransferred(oldOwner, newOwner) */\n      0xffffffffffffffffffffffffffffffffffffffff\n      and\n      0x8be0079c531659141344cd1fd0a4f28419497f9722a3daafe3b4186f6b6457e0\n      mload(0x40)\n      mload(0x40)\n      dup1\n      swap2\n      sub\n      swap1\n      log3\n        /* \"OneRingNFT_flat_flat.sol\":3222:3346  {... */\n      pop\n        /* \"OneRingNFT_flat_flat.sol\":3159:3346  function _transferOwnership(address newOwner) internal virtual {... */\n      pop\n      jump\t// out\n        /* \"OneRingNFT_flat_flat.sol\":6004:6187  function  compareStrings(string memory a, string memory b) private pure returns(bool) {... */\n    tag_121:\n        /* \"OneRingNFT_flat_flat.sol\":6084:6088  bool */\n      0x00\n        /* \"OneRingNFT_flat_flat.sol\":6175:6176  b */\n      dup2\n        /* \"OneRingNFT_flat_flat.sol\":6157:6178  abi.encodePacked((b)) */\n      add(0x20, mload(0x40))\n      tag_163\n      swap2\n      swap1\n      tag_164\n      jump\t// in\n    tag_163:\n      mload(0x40)\n      0x20\n      dup2\n      dup4\n      sub\n      sub\n      dup2\n      mstore\n      swap1\n      0x40\n      mstore\n        /* \"OneRingNFT_flat_flat.sol\":6147:6179  keccak256(abi.encodePacked((b))) */\n      dup1\n      mload\n      swap1\n      0x20\n      add\n      keccak256\n        /* \"OneRingNFT_flat_flat.sol\":6139:6140  a */\n      dup4\n        /* \"OneRingNFT_flat_flat.sol\":6121:6142  abi.encodePacked((a)) */\n      add(0x20, mload(0x40))\n      tag_165\n      swap2\n      swap1\n      tag_164\n      jump\t// in\n    tag_165:\n      mload(0x40)\n      0x20\n      dup2\n      dup4\n      sub\n      sub\n      dup2\n      mstore\n      swap1\n      0x40\n      mstore\n        /* \"OneRingNFT_flat_flat.sol\":6111:6143  keccak256(abi.encodePacked((a))) */\n      dup1\n      mload\n      swap1\n      0x20\n      add\n      keccak256\n        /* \"OneRingNFT_flat_flat.sol\":6111:6179  keccak256(abi.encodePacked((a))) == keccak256(abi.encodePacked((b))) */\n      eq\n        /* \"OneRingNFT_flat_flat.sol\":6103:6180  return (keccak256(abi.encodePacked((a))) == keccak256(abi.encodePacked((b)))) */\n      swap1\n      pop\n        /* \"OneRingNFT_flat_flat.sol\":6004:6187  function  compareStrings(string memory a, string memory b) private pure returns(bool) {... */\n      swap3\n      swap2\n      pop\n      pop\n      jump\t// out\n    tag_75:\n      dup3\n      dup1\n      sload\n      tag_166\n      swap1\n      tag_101\n      jump\t// in\n    tag_166:\n      swap1\n      0x00\n      mstore\n      keccak256(0x00, 0x20)\n      swap1\n      0x1f\n      add\n      0x20\n      swap1\n      div\n      dup2\n      add\n      swap3\n      dup3\n      tag_168\n      jumpi\n      0x00\n      dup6\n      sstore\n      jump(tag_167)\n    tag_168:\n      dup3\n      0x1f\n      lt\n      tag_169\n      jumpi\n      dup1\n      mload\n      not(0xff)\n      and\n      dup4\n      dup1\n      add\n      or\n      dup6\n      sstore\n      jump(tag_167)\n    tag_169:\n      dup3\n      dup1\n      add\n      0x01\n      add\n      dup6\n      sstore\n      dup3\n      iszero\n      tag_167\n      jumpi\n      swap2\n      dup3\n      add\n    tag_170:\n      dup3\n      dup2\n      gt\n      iszero\n      tag_171\n      jumpi\n      dup3\n      mload\n      dup3\n      sstore\n      swap2\n      0x20\n      add\n      swap2\n      swap1\n      0x01\n      add\n      swap1\n      jump(tag_170)\n    tag_171:\n    tag_167:\n      pop\n      swap1\n      pop\n      tag_172\n      swap2\n      swap1\n      tag_173\n      jump\t// in\n    tag_172:\n      pop\n      swap1\n      jump\t// out\n    tag_173:\n    tag_174:\n      dup1\n      dup3\n      gt\n      iszero\n      tag_175\n      jumpi\n      0x00\n      dup2\n      0x00\n      swap1\n      sstore\n      pop\n      0x01\n      add\n      jump(tag_174)\n    tag_175:\n      pop\n      swap1\n      jump\t// out\n        /* \"#utility.yul\":7:419   */\n    tag_177:\n        /* \"#utility.yul\":85:90   */\n      0x00\n        /* \"#utility.yul\":110:176   */\n      tag_179\n        /* \"#utility.yul\":126:175   */\n      tag_180\n        /* \"#utility.yul\":168:174   */\n      dup5\n        /* \"#utility.yul\":126:175   */\n      tag_181\n      jump\t// in\n    tag_180:\n        /* \"#utility.yul\":110:176   */\n      tag_182\n      jump\t// in\n    tag_179:\n        /* \"#utility.yul\":101:176   */\n      swap1\n      pop\n        /* \"#utility.yul\":199:205   */\n      dup3\n        /* \"#utility.yul\":192:197   */\n      dup2\n        /* \"#utility.yul\":185:206   */\n      mstore\n        /* \"#utility.yul\":237:241   */\n      0x20\n        /* \"#utility.yul\":230:235   */\n      dup2\n        /* \"#utility.yul\":226:242   */\n      add\n        /* \"#utility.yul\":275:278   */\n      dup5\n        /* \"#utility.yul\":266:272   */\n      dup5\n        /* \"#utility.yul\":261:264   */\n      dup5\n        /* \"#utility.yul\":257:273   */\n      add\n        /* \"#utility.yul\":254:279   */\n      gt\n        /* \"#utility.yul\":251:363   */\n      iszero\n      tag_183\n      jumpi\n        /* \"#utility.yul\":282:361   */\n      tag_184\n      tag_185\n      jump\t// in\n    tag_184:\n        /* \"#utility.yul\":251:363   */\n    tag_183:\n        /* \"#utility.yul\":372:413   */\n      tag_186\n        /* \"#utility.yul\":406:412   */\n      dup5\n        /* \"#utility.yul\":401:404   */\n      dup3\n        /* \"#utility.yul\":396:399   */\n      dup6\n        /* \"#utility.yul\":372:413   */\n      tag_187\n      jump\t// in\n    tag_186:\n        /* \"#utility.yul\":91:419   */\n      pop\n        /* \"#utility.yul\":7:419   */\n      swap4\n      swap3\n      pop\n      pop\n      pop\n      jump\t// out\n        /* \"#utility.yul\":425:564   */\n    tag_188:\n        /* \"#utility.yul\":471:476   */\n      0x00\n        /* \"#utility.yul\":509:515   */\n      dup2\n        /* \"#utility.yul\":496:516   */\n      calldataload\n        /* \"#utility.yul\":487:516   */\n      swap1\n      pop\n        /* \"#utility.yul\":525:558   */\n      tag_190\n        /* \"#utility.yul\":552:557   */\n      dup2\n        /* \"#utility.yul\":525:558   */\n      tag_191\n      jump\t// in\n    tag_190:\n        /* \"#utility.yul\":425:564   */\n      swap3\n      swap2\n      pop\n      pop\n      jump\t// out\n        /* \"#utility.yul\":570:703   */\n    tag_192:\n        /* \"#utility.yul\":613:618   */\n      0x00\n        /* \"#utility.yul\":651:657   */\n      dup2\n        /* \"#utility.yul\":638:658   */\n      calldataload\n        /* \"#utility.yul\":629:658   */\n      swap1\n      pop\n        /* \"#utility.yul\":667:697   */\n      tag_194\n        /* \"#utility.yul\":691:696   */\n      dup2\n        /* \"#utility.yul\":667:697   */\n      tag_195\n      jump\t// in\n    tag_194:\n        /* \"#utility.yul\":570:703   */\n      swap3\n      swap2\n      pop\n      pop\n      jump\t// out\n        /* \"#utility.yul\":723:1063   */\n    tag_196:\n        /* \"#utility.yul\":779:784   */\n      0x00\n        /* \"#utility.yul\":828:831   */\n      dup3\n        /* \"#utility.yul\":821:825   */\n      0x1f\n        /* \"#utility.yul\":813:819   */\n      dup4\n        /* \"#utility.yul\":809:826   */\n      add\n        /* \"#utility.yul\":805:832   */\n      slt\n        /* \"#utility.yul\":795:917   */\n      tag_198\n      jumpi\n        /* \"#utility.yul\":836:915   */\n      tag_199\n      tag_200\n      jump\t// in\n    tag_199:\n        /* \"#utility.yul\":795:917   */\n    tag_198:\n        /* \"#utility.yul\":953:959   */\n      dup2\n        /* \"#utility.yul\":940:960   */\n      calldataload\n        /* \"#utility.yul\":978:1057   */\n      tag_201\n        /* \"#utility.yul\":1053:1056   */\n      dup5\n        /* \"#utility.yul\":1045:1051   */\n      dup3\n        /* \"#utility.yul\":1038:1042   */\n      0x20\n        /* \"#utility.yul\":1030:1036   */\n      dup7\n        /* \"#utility.yul\":1026:1043   */\n      add\n        /* \"#utility.yul\":978:1057   */\n      tag_177\n      jump\t// in\n    tag_201:\n        /* \"#utility.yul\":969:1057   */\n      swap2\n      pop\n        /* \"#utility.yul\":785:1063   */\n      pop\n        /* \"#utility.yul\":723:1063   */\n      swap3\n      swap2\n      pop\n      pop\n      jump\t// out\n        /* \"#utility.yul\":1069:1208   */\n    tag_202:\n        /* \"#utility.yul\":1115:1120   */\n      0x00\n        /* \"#utility.yul\":1153:1159   */\n      dup2\n        /* \"#utility.yul\":1140:1160   */\n      calldataload\n        /* \"#utility.yul\":1131:1160   */\n      swap1\n      pop\n        /* \"#utility.yul\":1169:1202   */\n      tag_204\n        /* \"#utility.yul\":1196:1201   */\n      dup2\n        /* \"#utility.yul\":1169:1202   */\n      tag_205\n      jump\t// in\n    tag_204:\n        /* \"#utility.yul\":1069:1208   */\n      swap3\n      swap2\n      pop\n      pop\n      jump\t// out\n        /* \"#utility.yul\":1214:1543   */\n    tag_44:\n        /* \"#utility.yul\":1273:1279   */\n      0x00\n        /* \"#utility.yul\":1322:1324   */\n      0x20\n        /* \"#utility.yul\":1310:1319   */\n      dup3\n        /* \"#utility.yul\":1301:1308   */\n      dup5\n        /* \"#utility.yul\":1297:1320   */\n      sub\n        /* \"#utility.yul\":1293:1325   */\n      slt\n        /* \"#utility.yul\":1290:1409   */\n      iszero\n      tag_207\n      jumpi\n        /* \"#utility.yul\":1328:1407   */\n      tag_208\n      tag_209\n      jump\t// in\n    tag_208:\n        /* \"#utility.yul\":1290:1409   */\n    tag_207:\n        /* \"#utility.yul\":1448:1449   */\n      0x00\n        /* \"#utility.yul\":1473:1526   */\n      tag_210\n        /* \"#utility.yul\":1518:1525   */\n      dup5\n        /* \"#utility.yul\":1509:1515   */\n      dup3\n        /* \"#utility.yul\":1498:1507   */\n      dup6\n        /* \"#utility.yul\":1494:1516   */\n      add\n        /* \"#utility.yul\":1473:1526   */\n      tag_188\n      jump\t// in\n    tag_210:\n        /* \"#utility.yul\":1463:1526   */\n      swap2\n      pop\n        /* \"#utility.yul\":1419:1536   */\n      pop\n        /* \"#utility.yul\":1214:1543   */\n      swap3\n      swap2\n      pop\n      pop\n      jump\t// out\n        /* \"#utility.yul\":1549:2058   */\n    tag_39:\n        /* \"#utility.yul\":1618:1624   */\n      0x00\n        /* \"#utility.yul\":1667:1669   */\n      0x20\n        /* \"#utility.yul\":1655:1664   */\n      dup3\n        /* \"#utility.yul\":1646:1653   */\n      dup5\n        /* \"#utility.yul\":1642:1665   */\n      sub\n        /* \"#utility.yul\":1638:1670   */\n      slt\n        /* \"#utility.yul\":1635:1754   */\n      iszero\n      tag_212\n      jumpi\n        /* \"#utility.yul\":1673:1752   */\n      tag_213\n      tag_209\n      jump\t// in\n    tag_213:\n        /* \"#utility.yul\":1635:1754   */\n    tag_212:\n        /* \"#utility.yul\":1821:1822   */\n      0x00\n        /* \"#utility.yul\":1810:1819   */\n      dup3\n        /* \"#utility.yul\":1806:1823   */\n      add\n        /* \"#utility.yul\":1793:1824   */\n      calldataload\n        /* \"#utility.yul\":1851:1869   */\n      0xffffffffffffffff\n        /* \"#utility.yul\":1843:1849   */\n      dup2\n        /* \"#utility.yul\":1840:1870   */\n      gt\n        /* \"#utility.yul\":1837:1954   */\n      iszero\n      tag_214\n      jumpi\n        /* \"#utility.yul\":1873:1952   */\n      tag_215\n      tag_216\n      jump\t// in\n    tag_215:\n        /* \"#utility.yul\":1837:1954   */\n    tag_214:\n        /* \"#utility.yul\":1978:2041   */\n      tag_217\n        /* \"#utility.yul\":2033:2040   */\n      dup5\n        /* \"#utility.yul\":2024:2030   */\n      dup3\n        /* \"#utility.yul\":2013:2022   */\n      dup6\n        /* \"#utility.yul\":2009:2031   */\n      add\n        /* \"#utility.yul\":1978:2041   */\n      tag_196\n      jump\t// in\n    tag_217:\n        /* \"#utility.yul\":1968:2041   */\n      swap2\n      pop\n        /* \"#utility.yul\":1764:2051   */\n      pop\n        /* \"#utility.yul\":1549:2058   */\n      swap3\n      swap2\n      pop\n      pop\n      jump\t// out\n        /* \"#utility.yul\":2064:2898   */\n    tag_18:\n        /* \"#utility.yul\":2152:2158   */\n      0x00\n        /* \"#utility.yul\":2160:2166   */\n      dup1\n        /* \"#utility.yul\":2209:2211   */\n      0x40\n        /* \"#utility.yul\":2197:2206   */\n      dup4\n        /* \"#utility.yul\":2188:2195   */\n      dup6\n        /* \"#utility.yul\":2184:2207   */\n      sub\n        /* \"#utility.yul\":2180:2212   */\n      slt\n        /* \"#utility.yul\":2177:2296   */\n      iszero\n      tag_219\n      jumpi\n        /* \"#utility.yul\":2215:2294   */\n      tag_220\n      tag_209\n      jump\t// in\n    tag_220:\n        /* \"#utility.yul\":2177:2296   */\n    tag_219:\n        /* \"#utility.yul\":2363:2364   */\n      0x00\n        /* \"#utility.yul\":2352:2361   */\n      dup4\n        /* \"#utility.yul\":2348:2365   */\n      add\n        /* \"#utility.yul\":2335:2366   */\n      calldataload\n        /* \"#utility.yul\":2393:2411   */\n      0xffffffffffffffff\n        /* \"#utility.yul\":2385:2391   */\n      dup2\n        /* \"#utility.yul\":2382:2412   */\n      gt\n        /* \"#utility.yul\":2379:2496   */\n      iszero\n      tag_221\n      jumpi\n        /* \"#utility.yul\":2415:2494   */\n      tag_222\n      tag_216\n      jump\t// in\n    tag_222:\n        /* \"#utility.yul\":2379:2496   */\n    tag_221:\n        /* \"#utility.yul\":2520:2583   */\n      tag_223\n        /* \"#utility.yul\":2575:2582   */\n      dup6\n        /* \"#utility.yul\":2566:2572   */\n      dup3\n        /* \"#utility.yul\":2555:2564   */\n      dup7\n        /* \"#utility.yul\":2551:2573   */\n      add\n        /* \"#utility.yul\":2520:2583   */\n      tag_196\n      jump\t// in\n    tag_223:\n        /* \"#utility.yul\":2510:2583   */\n      swap3\n      pop\n        /* \"#utility.yul\":2306:2593   */\n      pop\n        /* \"#utility.yul\":2660:2662   */\n      0x20\n        /* \"#utility.yul\":2649:2658   */\n      dup4\n        /* \"#utility.yul\":2645:2663   */\n      add\n        /* \"#utility.yul\":2632:2664   */\n      calldataload\n        /* \"#utility.yul\":2691:2709   */\n      0xffffffffffffffff\n        /* \"#utility.yul\":2683:2689   */\n      dup2\n        /* \"#utility.yul\":2680:2710   */\n      gt\n        /* \"#utility.yul\":2677:2794   */\n      iszero\n      tag_224\n      jumpi\n        /* \"#utility.yul\":2713:2792   */\n      tag_225\n      tag_216\n      jump\t// in\n    tag_225:\n        /* \"#utility.yul\":2677:2794   */\n    tag_224:\n        /* \"#utility.yul\":2818:2881   */\n      tag_226\n        /* \"#utility.yul\":2873:2880   */\n      dup6\n        /* \"#utility.yul\":2864:2870   */\n      dup3\n        /* \"#utility.yul\":2853:2862   */\n      dup7\n        /* \"#utility.yul\":2849:2871   */\n      add\n        /* \"#utility.yul\":2818:2881   */\n      tag_196\n      jump\t// in\n    tag_226:\n        /* \"#utility.yul\":2808:2881   */\n      swap2\n      pop\n        /* \"#utility.yul\":2603:2891   */\n      pop\n        /* \"#utility.yul\":2064:2898   */\n      swap3\n      pop\n      swap3\n      swap1\n      pop\n      jump\t// out\n        /* \"#utility.yul\":2904:3233   */\n    tag_33:\n        /* \"#utility.yul\":2963:2969   */\n      0x00\n        /* \"#utility.yul\":3012:3014   */\n      0x20\n        /* \"#utility.yul\":3000:3009   */\n      dup3\n        /* \"#utility.yul\":2991:2998   */\n      dup5\n        /* \"#utility.yul\":2987:3010   */\n      sub\n        /* \"#utility.yul\":2983:3015   */\n      slt\n        /* \"#utility.yul\":2980:3099   */\n      iszero\n      tag_228\n      jumpi\n        /* \"#utility.yul\":3018:3097   */\n      tag_229\n      tag_209\n      jump\t// in\n    tag_229:\n        /* \"#utility.yul\":2980:3099   */\n    tag_228:\n        /* \"#utility.yul\":3138:3139   */\n      0x00\n        /* \"#utility.yul\":3163:3216   */\n      tag_230\n        /* \"#utility.yul\":3208:3215   */\n      dup5\n        /* \"#utility.yul\":3199:3205   */\n      dup3\n        /* \"#utility.yul\":3188:3197   */\n      dup6\n        /* \"#utility.yul\":3184:3206   */\n      add\n        /* \"#utility.yul\":3163:3216   */\n      tag_202\n      jump\t// in\n    tag_230:\n        /* \"#utility.yul\":3153:3216   */\n      swap2\n      pop\n        /* \"#utility.yul\":3109:3226   */\n      pop\n        /* \"#utility.yul\":2904:3233   */\n      swap3\n      swap2\n      pop\n      pop\n      jump\t// out\n        /* \"#utility.yul\":3239:3707   */\n    tag_14:\n        /* \"#utility.yul\":3304:3310   */\n      0x00\n        /* \"#utility.yul\":3312:3318   */\n      dup1\n        /* \"#utility.yul\":3361:3363   */\n      0x40\n        /* \"#utility.yul\":3349:3358   */\n      dup4\n        /* \"#utility.yul\":3340:3347   */\n      dup6\n        /* \"#utility.yul\":3336:3359   */\n      sub\n        /* \"#utility.yul\":3332:3364   */\n      slt\n        /* \"#utility.yul\":3329:3448   */\n      iszero\n      tag_232\n      jumpi\n        /* \"#utility.yul\":3367:3446   */\n      tag_233\n      tag_209\n      jump\t// in\n    tag_233:\n        /* \"#utility.yul\":3329:3448   */\n    tag_232:\n        /* \"#utility.yul\":3487:3488   */\n      0x00\n        /* \"#utility.yul\":3512:3565   */\n      tag_234\n        /* \"#utility.yul\":3557:3564   */\n      dup6\n        /* \"#utility.yul\":3548:3554   */\n      dup3\n        /* \"#utility.yul\":3537:3546   */\n      dup7\n        /* \"#utility.yul\":3533:3555   */\n      add\n        /* \"#utility.yul\":3512:3565   */\n      tag_202\n      jump\t// in\n    tag_234:\n        /* \"#utility.yul\":3502:3565   */\n      swap3\n      pop\n        /* \"#utility.yul\":3458:3575   */\n      pop\n        /* \"#utility.yul\":3614:3616   */\n      0x20\n        /* \"#utility.yul\":3640:3690   */\n      tag_235\n        /* \"#utility.yul\":3682:3689   */\n      dup6\n        /* \"#utility.yul\":3673:3679   */\n      dup3\n        /* \"#utility.yul\":3662:3671   */\n      dup7\n        /* \"#utility.yul\":3658:3680   */\n      add\n        /* \"#utility.yul\":3640:3690   */\n      tag_192\n      jump\t// in\n    tag_235:\n        /* \"#utility.yul\":3630:3690   */\n      swap2\n      pop\n        /* \"#utility.yul\":3585:3700   */\n      pop\n        /* \"#utility.yul\":3239:3707   */\n      swap3\n      pop\n      swap3\n      swap1\n      pop\n      jump\t// out\n        /* \"#utility.yul\":3713:3831   */\n    tag_236:\n        /* \"#utility.yul\":3800:3824   */\n      tag_238\n        /* \"#utility.yul\":3818:3823   */\n      dup2\n        /* \"#utility.yul\":3800:3824   */\n      tag_239\n      jump\t// in\n    tag_238:\n        /* \"#utility.yul\":3795:3798   */\n      dup3\n        /* \"#utility.yul\":3788:3825   */\n      mstore\n        /* \"#utility.yul\":3713:3831   */\n      pop\n      pop\n      jump\t// out\n        /* \"#utility.yul\":3837:3946   */\n    tag_240:\n        /* \"#utility.yul\":3918:3939   */\n      tag_242\n        /* \"#utility.yul\":3933:3938   */\n      dup2\n        /* \"#utility.yul\":3918:3939   */\n      tag_243\n      jump\t// in\n    tag_242:\n        /* \"#utility.yul\":3913:3916   */\n      dup3\n        /* \"#utility.yul\":3906:3940   */\n      mstore\n        /* \"#utility.yul\":3837:3946   */\n      pop\n      pop\n      jump\t// out\n        /* \"#utility.yul\":3952:4329   */\n    tag_244:\n        /* \"#utility.yul\":4058:4061   */\n      0x00\n        /* \"#utility.yul\":4086:4125   */\n      tag_246\n        /* \"#utility.yul\":4119:4124   */\n      dup3\n        /* \"#utility.yul\":4086:4125   */\n      tag_247\n      jump\t// in\n    tag_246:\n        /* \"#utility.yul\":4141:4230   */\n      tag_248\n        /* \"#utility.yul\":4223:4229   */\n      dup2\n        /* \"#utility.yul\":4218:4221   */\n      dup6\n        /* \"#utility.yul\":4141:4230   */\n      tag_249\n      jump\t// in\n    tag_248:\n        /* \"#utility.yul\":4134:4230   */\n      swap4\n      pop\n        /* \"#utility.yul\":4239:4291   */\n      tag_250\n        /* \"#utility.yul\":4284:4290   */\n      dup2\n        /* \"#utility.yul\":4279:4282   */\n      dup6\n        /* \"#utility.yul\":4272:4276   */\n      0x20\n        /* \"#utility.yul\":4265:4270   */\n      dup7\n        /* \"#utility.yul\":4261:4277   */\n      add\n        /* \"#utility.yul\":4239:4291   */\n      tag_251\n      jump\t// in\n    tag_250:\n        /* \"#utility.yul\":4316:4322   */\n      dup1\n        /* \"#utility.yul\":4311:4314   */\n      dup5\n        /* \"#utility.yul\":4307:4323   */\n      add\n        /* \"#utility.yul\":4300:4323   */\n      swap2\n      pop\n        /* \"#utility.yul\":4062:4329   */\n      pop\n        /* \"#utility.yul\":3952:4329   */\n      swap3\n      swap2\n      pop\n      pop\n      jump\t// out\n        /* \"#utility.yul\":4335:4701   */\n    tag_252:\n        /* \"#utility.yul\":4477:4480   */\n      0x00\n        /* \"#utility.yul\":4498:4565   */\n      tag_254\n        /* \"#utility.yul\":4562:4564   */\n      0x1b\n        /* \"#utility.yul\":4557:4560   */\n      dup4\n        /* \"#utility.yul\":4498:4565   */\n      tag_255\n      jump\t// in\n    tag_254:\n        /* \"#utility.yul\":4491:4565   */\n      swap2\n      pop\n        /* \"#utility.yul\":4574:4667   */\n      tag_256\n        /* \"#utility.yul\":4663:4666   */\n      dup3\n        /* \"#utility.yul\":4574:4667   */\n      tag_257\n      jump\t// in\n    tag_256:\n        /* \"#utility.yul\":4692:4694   */\n      0x20\n        /* \"#utility.yul\":4687:4690   */\n      dup3\n        /* \"#utility.yul\":4683:4695   */\n      add\n        /* \"#utility.yul\":4676:4695   */\n      swap1\n      pop\n        /* \"#utility.yul\":4335:4701   */\n      swap2\n      swap1\n      pop\n      jump\t// out\n        /* \"#utility.yul\":4707:5073   */\n    tag_258:\n        /* \"#utility.yul\":4849:4852   */\n      0x00\n        /* \"#utility.yul\":4870:4937   */\n      tag_260\n        /* \"#utility.yul\":4934:4936   */\n      0x26\n        /* \"#utility.yul\":4929:4932   */\n      dup4\n        /* \"#utility.yul\":4870:4937   */\n      tag_255\n      jump\t// in\n    tag_260:\n        /* \"#utility.yul\":4863:4937   */\n      swap2\n      pop\n        /* \"#utility.yul\":4946:5039   */\n      tag_261\n        /* \"#utility.yul\":5035:5038   */\n      dup3\n        /* \"#utility.yul\":4946:5039   */\n      tag_262\n      jump\t// in\n    tag_261:\n        /* \"#utility.yul\":5064:5066   */\n      0x40\n        /* \"#utility.yul\":5059:5062   */\n      dup3\n        /* \"#utility.yul\":5055:5067   */\n      add\n        /* \"#utility.yul\":5048:5067   */\n      swap1\n      pop\n        /* \"#utility.yul\":4707:5073   */\n      swap2\n      swap1\n      pop\n      jump\t// out\n        /* \"#utility.yul\":5079:5445   */\n    tag_263:\n        /* \"#utility.yul\":5221:5224   */\n      0x00\n        /* \"#utility.yul\":5242:5309   */\n      tag_265\n        /* \"#utility.yul\":5306:5308   */\n      0x1f\n        /* \"#utility.yul\":5301:5304   */\n      dup4\n        /* \"#utility.yul\":5242:5309   */\n      tag_255\n      jump\t// in\n    tag_265:\n        /* \"#utility.yul\":5235:5309   */\n      swap2\n      pop\n        /* \"#utility.yul\":5318:5411   */\n      tag_266\n        /* \"#utility.yul\":5407:5410   */\n      dup3\n        /* \"#utility.yul\":5318:5411   */\n      tag_267\n      jump\t// in\n    tag_266:\n        /* \"#utility.yul\":5436:5438   */\n      0x20\n        /* \"#utility.yul\":5431:5434   */\n      dup3\n        /* \"#utility.yul\":5427:5439   */\n      add\n        /* \"#utility.yul\":5420:5439   */\n      swap1\n      pop\n        /* \"#utility.yul\":5079:5445   */\n      swap2\n      swap1\n      pop\n      jump\t// out\n        /* \"#utility.yul\":5451:5817   */\n    tag_268:\n        /* \"#utility.yul\":5593:5596   */\n      0x00\n        /* \"#utility.yul\":5614:5681   */\n      tag_270\n        /* \"#utility.yul\":5678:5680   */\n      0x2f\n        /* \"#utility.yul\":5673:5676   */\n      dup4\n        /* \"#utility.yul\":5614:5681   */\n      tag_255\n      jump\t// in\n    tag_270:\n        /* \"#utility.yul\":5607:5681   */\n      swap2\n      pop\n        /* \"#utility.yul\":5690:5783   */\n      tag_271\n        /* \"#utility.yul\":5779:5782   */\n      dup3\n        /* \"#utility.yul\":5690:5783   */\n      tag_272\n      jump\t// in\n    tag_271:\n        /* \"#utility.yul\":5808:5810   */\n      0x40\n        /* \"#utility.yul\":5803:5806   */\n      dup3\n        /* \"#utility.yul\":5799:5811   */\n      add\n        /* \"#utility.yul\":5792:5811   */\n      swap1\n      pop\n        /* \"#utility.yul\":5451:5817   */\n      swap2\n      swap1\n      pop\n      jump\t// out\n        /* \"#utility.yul\":5823:6189   */\n    tag_273:\n        /* \"#utility.yul\":5965:5968   */\n      0x00\n        /* \"#utility.yul\":5986:6053   */\n      tag_275\n        /* \"#utility.yul\":6050:6052   */\n      0x20\n        /* \"#utility.yul\":6045:6048   */\n      dup4\n        /* \"#utility.yul\":5986:6053   */\n      tag_255\n      jump\t// in\n    tag_275:\n        /* \"#utility.yul\":5979:6053   */\n      swap2\n      pop\n        /* \"#utility.yul\":6062:6155   */\n      tag_276\n        /* \"#utility.yul\":6151:6154   */\n      dup3\n        /* \"#utility.yul\":6062:6155   */\n      tag_277\n      jump\t// in\n    tag_276:\n        /* \"#utility.yul\":6180:6182   */\n      0x20\n        /* \"#utility.yul\":6175:6178   */\n      dup3\n        /* \"#utility.yul\":6171:6183   */\n      add\n        /* \"#utility.yul\":6164:6183   */\n      swap1\n      pop\n        /* \"#utility.yul\":5823:6189   */\n      swap2\n      swap1\n      pop\n      jump\t// out\n        /* \"#utility.yul\":6195:6313   */\n    tag_278:\n        /* \"#utility.yul\":6282:6306   */\n      tag_280\n        /* \"#utility.yul\":6300:6305   */\n      dup2\n        /* \"#utility.yul\":6282:6306   */\n      tag_281\n      jump\t// in\n    tag_280:\n        /* \"#utility.yul\":6277:6280   */\n      dup3\n        /* \"#utility.yul\":6270:6307   */\n      mstore\n        /* \"#utility.yul\":6195:6313   */\n      pop\n      pop\n      jump\t// out\n        /* \"#utility.yul\":6319:6594   */\n    tag_164:\n        /* \"#utility.yul\":6451:6454   */\n      0x00\n        /* \"#utility.yul\":6473:6568   */\n      tag_283\n        /* \"#utility.yul\":6564:6567   */\n      dup3\n        /* \"#utility.yul\":6555:6561   */\n      dup5\n        /* \"#utility.yul\":6473:6568   */\n      tag_244\n      jump\t// in\n    tag_283:\n        /* \"#utility.yul\":6466:6568   */\n      swap2\n      pop\n        /* \"#utility.yul\":6585:6588   */\n      dup2\n        /* \"#utility.yul\":6578:6588   */\n      swap1\n      pop\n        /* \"#utility.yul\":6319:6594   */\n      swap3\n      swap2\n      pop\n      pop\n      jump\t// out\n        /* \"#utility.yul\":6600:6822   */\n    tag_27:\n        /* \"#utility.yul\":6693:6697   */\n      0x00\n        /* \"#utility.yul\":6731:6733   */\n      0x20\n        /* \"#utility.yul\":6720:6729   */\n      dup3\n        /* \"#utility.yul\":6716:6734   */\n      add\n        /* \"#utility.yul\":6708:6734   */\n      swap1\n      pop\n        /* \"#utility.yul\":6744:6815   */\n      tag_285\n        /* \"#utility.yul\":6812:6813   */\n      0x00\n        /* \"#utility.yul\":6801:6810   */\n      dup4\n        /* \"#utility.yul\":6797:6814   */\n      add\n        /* \"#utility.yul\":6788:6794   */\n      dup5\n        /* \"#utility.yul\":6744:6815   */\n      tag_236\n      jump\t// in\n    tag_285:\n        /* \"#utility.yul\":6600:6822   */\n      swap3\n      swap2\n      pop\n      pop\n      jump\t// out\n        /* \"#utility.yul\":6828:7038   */\n    tag_36:\n        /* \"#utility.yul\":6915:6919   */\n      0x00\n        /* \"#utility.yul\":6953:6955   */\n      0x20\n        /* \"#utility.yul\":6942:6951   */\n      dup3\n        /* \"#utility.yul\":6938:6956   */\n      add\n        /* \"#utility.yul\":6930:6956   */\n      swap1\n      pop\n        /* \"#utility.yul\":6966:7031   */\n      tag_287\n        /* \"#utility.yul\":7028:7029   */\n      0x00\n        /* \"#utility.yul\":7017:7026   */\n      dup4\n        /* \"#utility.yul\":7013:7030   */\n      add\n        /* \"#utility.yul\":7004:7010   */\n      dup5\n        /* \"#utility.yul\":6966:7031   */\n      tag_240\n      jump\t// in\n    tag_287:\n        /* \"#utility.yul\":6828:7038   */\n      swap3\n      swap2\n      pop\n      pop\n      jump\t// out\n        /* \"#utility.yul\":7044:7463   */\n    tag_95:\n        /* \"#utility.yul\":7210:7214   */\n      0x00\n        /* \"#utility.yul\":7248:7250   */\n      0x20\n        /* \"#utility.yul\":7237:7246   */\n      dup3\n        /* \"#utility.yul\":7233:7251   */\n      add\n        /* \"#utility.yul\":7225:7251   */\n      swap1\n      pop\n        /* \"#utility.yul\":7297:7306   */\n      dup2\n        /* \"#utility.yul\":7291:7295   */\n      dup2\n        /* \"#utility.yul\":7287:7307   */\n      sub\n        /* \"#utility.yul\":7283:7284   */\n      0x00\n        /* \"#utility.yul\":7272:7281   */\n      dup4\n        /* \"#utility.yul\":7268:7285   */\n      add\n        /* \"#utility.yul\":7261:7308   */\n      mstore\n        /* \"#utility.yul\":7325:7456   */\n      tag_289\n        /* \"#utility.yul\":7451:7455   */\n      dup2\n        /* \"#utility.yul\":7325:7456   */\n      tag_252\n      jump\t// in\n    tag_289:\n        /* \"#utility.yul\":7317:7456   */\n      swap1\n      pop\n        /* \"#utility.yul\":7044:7463   */\n      swap2\n      swap1\n      pop\n      jump\t// out\n        /* \"#utility.yul\":7469:7888   */\n    tag_134:\n        /* \"#utility.yul\":7635:7639   */\n      0x00\n        /* \"#utility.yul\":7673:7675   */\n      0x20\n        /* \"#utility.yul\":7662:7671   */\n      dup3\n        /* \"#utility.yul\":7658:7676   */\n      add\n        /* \"#utility.yul\":7650:7676   */\n      swap1\n      pop\n        /* \"#utility.yul\":7722:7731   */\n      dup2\n        /* \"#utility.yul\":7716:7720   */\n      dup2\n        /* \"#utility.yul\":7712:7732   */\n      sub\n        /* \"#utility.yul\":7708:7709   */\n      0x00\n        /* \"#utility.yul\":7697:7706   */\n      dup4\n        /* \"#utility.yul\":7693:7710   */\n      add\n        /* \"#utility.yul\":7686:7733   */\n      mstore\n        /* \"#utility.yul\":7750:7881   */\n      tag_291\n        /* \"#utility.yul\":7876:7880   */\n      dup2\n        /* \"#utility.yul\":7750:7881   */\n      tag_258\n      jump\t// in\n    tag_291:\n        /* \"#utility.yul\":7742:7881   */\n      swap1\n      pop\n        /* \"#utility.yul\":7469:7888   */\n      swap2\n      swap1\n      pop\n      jump\t// out\n        /* \"#utility.yul\":7894:8313   */\n    tag_73:\n        /* \"#utility.yul\":8060:8064   */\n      0x00\n        /* \"#utility.yul\":8098:8100   */\n      0x20\n        /* \"#utility.yul\":8087:8096   */\n      dup3\n        /* \"#utility.yul\":8083:8101   */\n      add\n        /* \"#utility.yul\":8075:8101   */\n      swap1\n      pop\n        /* \"#utility.yul\":8147:8156   */\n      dup2\n        /* \"#utility.yul\":8141:8145   */\n      dup2\n        /* \"#utility.yul\":8137:8157   */\n      sub\n        /* \"#utility.yul\":8133:8134   */\n      0x00\n        /* \"#utility.yul\":8122:8131   */\n      dup4\n        /* \"#utility.yul\":8118:8135   */\n      add\n        /* \"#utility.yul\":8111:8158   */\n      mstore\n        /* \"#utility.yul\":8175:8306   */\n      tag_293\n        /* \"#utility.yul\":8301:8305   */\n      dup2\n        /* \"#utility.yul\":8175:8306   */\n      tag_263\n      jump\t// in\n    tag_293:\n        /* \"#utility.yul\":8167:8306   */\n      swap1\n      pop\n        /* \"#utility.yul\":7894:8313   */\n      swap2\n      swap1\n      pop\n      jump\t// out\n        /* \"#utility.yul\":8319:8738   */\n    tag_62:\n        /* \"#utility.yul\":8485:8489   */\n      0x00\n        /* \"#utility.yul\":8523:8525   */\n      0x20\n        /* \"#utility.yul\":8512:8521   */\n      dup3\n        /* \"#utility.yul\":8508:8526   */\n      add\n        /* \"#utility.yul\":8500:8526   */\n      swap1\n      pop\n        /* \"#utility.yul\":8572:8581   */\n      dup2\n        /* \"#utility.yul\":8566:8570   */\n      dup2\n        /* \"#utility.yul\":8562:8582   */\n      sub\n        /* \"#utility.yul\":8558:8559   */\n      0x00\n        /* \"#utility.yul\":8547:8556   */\n      dup4\n        /* \"#utility.yul\":8543:8560   */\n      add\n        /* \"#utility.yul\":8536:8583   */\n      mstore\n        /* \"#utility.yul\":8600:8731   */\n      tag_295\n        /* \"#utility.yul\":8726:8730   */\n      dup2\n        /* \"#utility.yul\":8600:8731   */\n      tag_268\n      jump\t// in\n    tag_295:\n        /* \"#utility.yul\":8592:8731   */\n      swap1\n      pop\n        /* \"#utility.yul\":8319:8738   */\n      swap2\n      swap1\n      pop\n      jump\t// out\n        /* \"#utility.yul\":8744:9163   */\n    tag_52:\n        /* \"#utility.yul\":8910:8914   */\n      0x00\n        /* \"#utility.yul\":8948:8950   */\n      0x20\n        /* \"#utility.yul\":8937:8946   */\n      dup3\n        /* \"#utility.yul\":8933:8951   */\n      add\n        /* \"#utility.yul\":8925:8951   */\n      swap1\n      pop\n        /* \"#utility.yul\":8997:9006   */\n      dup2\n        /* \"#utility.yul\":8991:8995   */\n      dup2\n        /* \"#utility.yul\":8987:9007   */\n      sub\n        /* \"#utility.yul\":8983:8984   */\n      0x00\n        /* \"#utility.yul\":8972:8981   */\n      dup4\n        /* \"#utility.yul\":8968:8985   */\n      add\n        /* \"#utility.yul\":8961:9008   */\n      mstore\n        /* \"#utility.yul\":9025:9156   */\n      tag_297\n        /* \"#utility.yul\":9151:9155   */\n      dup2\n        /* \"#utility.yul\":9025:9156   */\n      tag_273\n      jump\t// in\n    tag_297:\n        /* \"#utility.yul\":9017:9156   */\n      swap1\n      pop\n        /* \"#utility.yul\":8744:9163   */\n      swap2\n      swap1\n      pop\n      jump\t// out\n        /* \"#utility.yul\":9169:9391   */\n    tag_21:\n        /* \"#utility.yul\":9262:9266   */\n      0x00\n        /* \"#utility.yul\":9300:9302   */\n      0x20\n        /* \"#utility.yul\":9289:9298   */\n      dup3\n        /* \"#utility.yul\":9285:9303   */\n      add\n        /* \"#utility.yul\":9277:9303   */\n      swap1\n      pop\n        /* \"#utility.yul\":9313:9384   */\n      tag_299\n        /* \"#utility.yul\":9381:9382   */\n      0x00\n        /* \"#utility.yul\":9370:9379   */\n      dup4\n        /* \"#utility.yul\":9366:9383   */\n      add\n        /* \"#utility.yul\":9357:9363   */\n      dup5\n        /* \"#utility.yul\":9313:9384   */\n      tag_278\n      jump\t// in\n    tag_299:\n        /* \"#utility.yul\":9169:9391   */\n      swap3\n      swap2\n      pop\n      pop\n      jump\t// out\n        /* \"#utility.yul\":9397:9526   */\n    tag_182:\n        /* \"#utility.yul\":9431:9437   */\n      0x00\n        /* \"#utility.yul\":9458:9478   */\n      tag_301\n      tag_302\n      jump\t// in\n    tag_301:\n        /* \"#utility.yul\":9448:9478   */\n      swap1\n      pop\n        /* \"#utility.yul\":9487:9520   */\n      tag_303\n        /* \"#utility.yul\":9515:9519   */\n      dup3\n        /* \"#utility.yul\":9507:9513   */\n      dup3\n        /* \"#utility.yul\":9487:9520   */\n      tag_304\n      jump\t// in\n    tag_303:\n        /* \"#utility.yul\":9397:9526   */\n      swap2\n      swap1\n      pop\n      jump\t// out\n        /* \"#utility.yul\":9532:9607   */\n    tag_302:\n        /* \"#utility.yul\":9565:9571   */\n      0x00\n        /* \"#utility.yul\":9598:9600   */\n      0x40\n        /* \"#utility.yul\":9592:9601   */\n      mload\n        /* \"#utility.yul\":9582:9601   */\n      swap1\n      pop\n        /* \"#utility.yul\":9532:9607   */\n      swap1\n      jump\t// out\n        /* \"#utility.yul\":9613:9921   */\n    tag_181:\n        /* \"#utility.yul\":9675:9679   */\n      0x00\n        /* \"#utility.yul\":9765:9783   */\n      0xffffffffffffffff\n        /* \"#utility.yul\":9757:9763   */\n      dup3\n        /* \"#utility.yul\":9754:9784   */\n      gt\n        /* \"#utility.yul\":9751:9807   */\n      iszero\n      tag_307\n      jumpi\n        /* \"#utility.yul\":9787:9805   */\n      tag_308\n      tag_309\n      jump\t// in\n    tag_308:\n        /* \"#utility.yul\":9751:9807   */\n    tag_307:\n        /* \"#utility.yul\":9825:9854   */\n      tag_310\n        /* \"#utility.yul\":9847:9853   */\n      dup3\n        /* \"#utility.yul\":9825:9854   */\n      tag_311\n      jump\t// in\n    tag_310:\n        /* \"#utility.yul\":9817:9854   */\n      swap1\n      pop\n        /* \"#utility.yul\":9909:9913   */\n      0x20\n        /* \"#utility.yul\":9903:9907   */\n      dup2\n        /* \"#utility.yul\":9899:9914   */\n      add\n        /* \"#utility.yul\":9891:9914   */\n      swap1\n      pop\n        /* \"#utility.yul\":9613:9921   */\n      swap2\n      swap1\n      pop\n      jump\t// out\n        /* \"#utility.yul\":9927:10026   */\n    tag_247:\n        /* \"#utility.yul\":9979:9985   */\n      0x00\n        /* \"#utility.yul\":10013:10018   */\n      dup2\n        /* \"#utility.yul\":10007:10019   */\n      mload\n        /* \"#utility.yul\":9997:10019   */\n      swap1\n      pop\n        /* \"#utility.yul\":9927:10026   */\n      swap2\n      swap1\n      pop\n      jump\t// out\n        /* \"#utility.yul\":10032:10201   */\n    tag_255:\n        /* \"#utility.yul\":10116:10127   */\n      0x00\n        /* \"#utility.yul\":10150:10156   */\n      dup3\n        /* \"#utility.yul\":10145:10148   */\n      dup3\n        /* \"#utility.yul\":10138:10157   */\n      mstore\n        /* \"#utility.yul\":10190:10194   */\n      0x20\n        /* \"#utility.yul\":10185:10188   */\n      dup3\n        /* \"#utility.yul\":10181:10195   */\n      add\n        /* \"#utility.yul\":10166:10195   */\n      swap1\n      pop\n        /* \"#utility.yul\":10032:10201   */\n      swap3\n      swap2\n      pop\n      pop\n      jump\t// out\n        /* \"#utility.yul\":10207:10355   */\n    tag_249:\n        /* \"#utility.yul\":10309:10320   */\n      0x00\n        /* \"#utility.yul\":10346:10349   */\n      dup2\n        /* \"#utility.yul\":10331:10349   */\n      swap1\n      pop\n        /* \"#utility.yul\":10207:10355   */\n      swap3\n      swap2\n      pop\n      pop\n      jump\t// out\n        /* \"#utility.yul\":10361:10666   */\n    tag_80:\n        /* \"#utility.yul\":10401:10404   */\n      0x00\n        /* \"#utility.yul\":10420:10440   */\n      tag_316\n        /* \"#utility.yul\":10438:10439   */\n      dup3\n        /* \"#utility.yul\":10420:10440   */\n      tag_281\n      jump\t// in\n    tag_316:\n        /* \"#utility.yul\":10415:10440   */\n      swap2\n      pop\n        /* \"#utility.yul\":10454:10474   */\n      tag_317\n        /* \"#utility.yul\":10472:10473   */\n      dup4\n        /* \"#utility.yul\":10454:10474   */\n      tag_281\n      jump\t// in\n    tag_317:\n        /* \"#utility.yul\":10449:10474   */\n      swap3\n      pop\n        /* \"#utility.yul\":10608:10609   */\n      dup3\n        /* \"#utility.yul\":10540:10606   */\n      0xffffffffffffffffffffffffffffffffffffffffffffffffffffffffffffffff\n        /* \"#utility.yul\":10536:10610   */\n      sub\n        /* \"#utility.yul\":10533:10534   */\n      dup3\n        /* \"#utility.yul\":10530:10611   */\n      gt\n        /* \"#utility.yul\":10527:10634   */\n      iszero\n      tag_318\n      jumpi\n        /* \"#utility.yul\":10614:10632   */\n      tag_319\n      tag_320\n      jump\t// in\n    tag_319:\n        /* \"#utility.yul\":10527:10634   */\n    tag_318:\n        /* \"#utility.yul\":10658:10659   */\n      dup3\n        /* \"#utility.yul\":10655:10656   */\n      dup3\n        /* \"#utility.yul\":10651:10660   */\n      add\n        /* \"#utility.yul\":10644:10660   */\n      swap1\n      pop\n        /* \"#utility.yul\":10361:10666   */\n      swap3\n      swap2\n      pop\n      pop\n      jump\t// out\n        /* \"#utility.yul\":10672:10863   */\n    tag_82:\n        /* \"#utility.yul\":10712:10716   */\n      0x00\n        /* \"#utility.yul\":10732:10752   */\n      tag_322\n        /* \"#utility.yul\":10750:10751   */\n      dup3\n        /* \"#utility.yul\":10732:10752   */\n      tag_281\n      jump\t// in\n    tag_322:\n        /* \"#utility.yul\":10727:10752   */\n      swap2\n      pop\n        /* \"#utility.yul\":10766:10786   */\n      tag_323\n        /* \"#utility.yul\":10784:10785   */\n      dup4\n        /* \"#utility.yul\":10766:10786   */\n      tag_281\n      jump\t// in\n    tag_323:\n        /* \"#utility.yul\":10761:10786   */\n      swap3\n      pop\n        /* \"#utility.yul\":10805:10806   */\n      dup3\n        /* \"#utility.yul\":10802:10803   */\n      dup3\n        /* \"#utility.yul\":10799:10807   */\n      lt\n        /* \"#utility.yul\":10796:10830   */\n      iszero\n      tag_324\n      jumpi\n        /* \"#utility.yul\":10810:10828   */\n      tag_325\n      tag_320\n      jump\t// in\n    tag_325:\n        /* \"#utility.yul\":10796:10830   */\n    tag_324:\n        /* \"#utility.yul\":10855:10856   */\n      dup3\n        /* \"#utility.yul\":10852:10853   */\n      dup3\n        /* \"#utility.yul\":10848:10857   */\n      sub\n        /* \"#utility.yul\":10840:10857   */\n      swap1\n      pop\n        /* \"#utility.yul\":10672:10863   */\n      swap3\n      swap2\n      pop\n      pop\n      jump\t// out\n        /* \"#utility.yul\":10869:10965   */\n    tag_239:\n        /* \"#utility.yul\":10906:10913   */\n      0x00\n        /* \"#utility.yul\":10935:10959   */\n      tag_327\n        /* \"#utility.yul\":10953:10958   */\n      dup3\n        /* \"#utility.yul\":10935:10959   */\n      tag_328\n      jump\t// in\n    tag_327:\n        /* \"#utility.yul\":10924:10959   */\n      swap1\n      pop\n        /* \"#utility.yul\":10869:10965   */\n      swap2\n      swap1\n      pop\n      jump\t// out\n        /* \"#utility.yul\":10971:11061   */\n    tag_243:\n        /* \"#utility.yul\":11005:11012   */\n      0x00\n        /* \"#utility.yul\":11048:11053   */\n      dup2\n        /* \"#utility.yul\":11041:11054   */\n      iszero\n        /* \"#utility.yul\":11034:11055   */\n      iszero\n        /* \"#utility.yul\":11023:11055   */\n      swap1\n      pop\n        /* \"#utility.yul\":10971:11061   */\n      swap2\n      swap1\n      pop\n      jump\t// out\n        /* \"#utility.yul\":11067:11193   */\n    tag_328:\n        /* \"#utility.yul\":11104:11111   */\n      0x00\n        /* \"#utility.yul\":11144:11186   */\n      0xffffffffffffffffffffffffffffffffffffffff\n        /* \"#utility.yul\":11137:11142   */\n      dup3\n        /* \"#utility.yul\":11133:11187   */\n      and\n        /* \"#utility.yul\":11122:11187   */\n      swap1\n      pop\n        /* \"#utility.yul\":11067:11193   */\n      swap2\n      swap1\n      pop\n      jump\t// out\n        /* \"#utility.yul\":11199:11276   */\n    tag_281:\n        /* \"#utility.yul\":11236:11243   */\n      0x00\n        /* \"#utility.yul\":11265:11270   */\n      dup2\n        /* \"#utility.yul\":11254:11270   */\n      swap1\n      pop\n        /* \"#utility.yul\":11199:11276   */\n      swap2\n      swap1\n      pop\n      jump\t// out\n        /* \"#utility.yul\":11282:11436   */\n    tag_187:\n        /* \"#utility.yul\":11366:11372   */\n      dup3\n        /* \"#utility.yul\":11361:11364   */\n      dup2\n        /* \"#utility.yul\":11356:11359   */\n      dup4\n        /* \"#utility.yul\":11343:11373   */\n      calldatacopy\n        /* \"#utility.yul\":11428:11429   */\n      0x00\n        /* \"#utility.yul\":11419:11425   */\n      dup4\n        /* \"#utility.yul\":11414:11417   */\n      dup4\n        /* \"#utility.yul\":11410:11426   */\n      add\n        /* \"#utility.yul\":11403:11430   */\n      mstore\n        /* \"#utility.yul\":11282:11436   */\n      pop\n      pop\n      pop\n      jump\t// out\n        /* \"#utility.yul\":11442:11749   */\n    tag_251:\n        /* \"#utility.yul\":11510:11511   */\n      0x00\n        /* \"#utility.yul\":11520:11633   */\n    tag_334:\n        /* \"#utility.yul\":11534:11540   */\n      dup4\n        /* \"#utility.yul\":11531:11532   */\n      dup2\n        /* \"#utility.yul\":11528:11541   */\n      lt\n        /* \"#utility.yul\":11520:11633   */\n      iszero\n      tag_336\n      jumpi\n        /* \"#utility.yul\":11619:11620   */\n      dup1\n        /* \"#utility.yul\":11614:11617   */\n      dup3\n        /* \"#utility.yul\":11610:11621   */\n      add\n        /* \"#utility.yul\":11604:11622   */\n      mload\n        /* \"#utility.yul\":11600:11601   */\n      dup2\n        /* \"#utility.yul\":11595:11598   */\n      dup5\n        /* \"#utility.yul\":11591:11602   */\n      add\n        /* \"#utility.yul\":11584:11623   */\n      mstore\n        /* \"#utility.yul\":11556:11558   */\n      0x20\n        /* \"#utility.yul\":11553:11554   */\n      dup2\n        /* \"#utility.yul\":11549:11559   */\n      add\n        /* \"#utility.yul\":11544:11559   */\n      swap1\n      pop\n        /* \"#utility.yul\":11520:11633   */\n      jump(tag_334)\n    tag_336:\n        /* \"#utility.yul\":11651:11657   */\n      dup4\n        /* \"#utility.yul\":11648:11649   */\n      dup2\n        /* \"#utility.yul\":11645:11658   */\n      gt\n        /* \"#utility.yul\":11642:11743   */\n      iszero\n      tag_337\n      jumpi\n        /* \"#utility.yul\":11731:11732   */\n      0x00\n        /* \"#utility.yul\":11722:11728   */\n      dup5\n        /* \"#utility.yul\":11717:11720   */\n      dup5\n        /* \"#utility.yul\":11713:11729   */\n      add\n        /* \"#utility.yul\":11706:11733   */\n      mstore\n        /* \"#utility.yul\":11642:11743   */\n    tag_337:\n        /* \"#utility.yul\":11491:11749   */\n      pop\n        /* \"#utility.yul\":11442:11749   */\n      pop\n      pop\n      pop\n      jump\t// out\n        /* \"#utility.yul\":11755:12075   */\n    tag_101:\n        /* \"#utility.yul\":11799:11805   */\n      0x00\n        /* \"#utility.yul\":11836:11837   */\n      0x02\n        /* \"#utility.yul\":11830:11834   */\n      dup3\n        /* \"#utility.yul\":11826:11838   */\n      div\n        /* \"#utility.yul\":11816:11838   */\n      swap1\n      pop\n        /* \"#utility.yul\":11883:11884   */\n      0x01\n        /* \"#utility.yul\":11877:11881   */\n      dup3\n        /* \"#utility.yul\":11873:11885   */\n      and\n        /* \"#utility.yul\":11904:11922   */\n      dup1\n        /* \"#utility.yul\":11894:11975   */\n      tag_339\n      jumpi\n        /* \"#utility.yul\":11960:11964   */\n      0x7f\n        /* \"#utility.yul\":11952:11958   */\n      dup3\n        /* \"#utility.yul\":11948:11965   */\n      and\n        /* \"#utility.yul\":11938:11965   */\n      swap2\n      pop\n        /* \"#utility.yul\":11894:11975   */\n    tag_339:\n        /* \"#utility.yul\":12022:12024   */\n      0x20\n        /* \"#utility.yul\":12014:12020   */\n      dup3\n        /* \"#utility.yul\":12011:12025   */\n      lt\n        /* \"#utility.yul\":11991:12009   */\n      dup2\n        /* \"#utility.yul\":11988:12026   */\n      eq\n        /* \"#utility.yul\":11985:12069   */\n      iszero\n      tag_340\n      jumpi\n        /* \"#utility.yul\":12041:12059   */\n      tag_341\n      tag_342\n      jump\t// in\n    tag_341:\n        /* \"#utility.yul\":11985:12069   */\n    tag_340:\n        /* \"#utility.yul\":11806:12075   */\n      pop\n        /* \"#utility.yul\":11755:12075   */\n      swap2\n      swap1\n      pop\n      jump\t// out\n        /* \"#utility.yul\":12081:12362   */\n    tag_304:\n        /* \"#utility.yul\":12164:12191   */\n      tag_344\n        /* \"#utility.yul\":12186:12190   */\n      dup3\n        /* \"#utility.yul\":12164:12191   */\n      tag_311\n      jump\t// in\n    tag_344:\n        /* \"#utility.yul\":12156:12162   */\n      dup2\n        /* \"#utility.yul\":12152:12192   */\n      add\n        /* \"#utility.yul\":12294:12300   */\n      dup2\n        /* \"#utility.yul\":12282:12292   */\n      dup2\n        /* \"#utility.yul\":12279:12301   */\n      lt\n        /* \"#utility.yul\":12258:12276   */\n      0xffffffffffffffff\n        /* \"#utility.yul\":12246:12256   */\n      dup3\n        /* \"#utility.yul\":12243:12277   */\n      gt\n        /* \"#utility.yul\":12240:12302   */\n      or\n        /* \"#utility.yul\":12237:12325   */\n      iszero\n      tag_345\n      jumpi\n        /* \"#utility.yul\":12305:12323   */\n      tag_346\n      tag_309\n      jump\t// in\n    tag_346:\n        /* \"#utility.yul\":12237:12325   */\n    tag_345:\n        /* \"#utility.yul\":12345:12355   */\n      dup1\n        /* \"#utility.yul\":12341:12343   */\n      0x40\n        /* \"#utility.yul\":12334:12356   */\n      mstore\n        /* \"#utility.yul\":12124:12362   */\n      pop\n        /* \"#utility.yul\":12081:12362   */\n      pop\n      pop\n      jump\t// out\n        /* \"#utility.yul\":12368:12601   */\n    tag_125:\n        /* \"#utility.yul\":12407:12410   */\n      0x00\n        /* \"#utility.yul\":12430:12454   */\n      tag_348\n        /* \"#utility.yul\":12448:12453   */\n      dup3\n        /* \"#utility.yul\":12430:12454   */\n      tag_281\n      jump\t// in\n    tag_348:\n        /* \"#utility.yul\":12421:12454   */\n      swap2\n      pop\n        /* \"#utility.yul\":12476:12542   */\n      0xffffffffffffffffffffffffffffffffffffffffffffffffffffffffffffffff\n        /* \"#utility.yul\":12469:12474   */\n      dup3\n        /* \"#utility.yul\":12466:12543   */\n      eq\n        /* \"#utility.yul\":12463:12566   */\n      iszero\n      tag_349\n      jumpi\n        /* \"#utility.yul\":12546:12564   */\n      tag_350\n      tag_320\n      jump\t// in\n    tag_350:\n        /* \"#utility.yul\":12463:12566   */\n    tag_349:\n        /* \"#utility.yul\":12593:12594   */\n      0x01\n        /* \"#utility.yul\":12586:12591   */\n      dup3\n        /* \"#utility.yul\":12582:12595   */\n      add\n        /* \"#utility.yul\":12575:12595   */\n      swap1\n      pop\n        /* \"#utility.yul\":12368:12601   */\n      swap2\n      swap1\n      pop\n      jump\t// out\n        /* \"#utility.yul\":12607:12787   */\n    tag_320:\n        /* \"#utility.yul\":12655:12732   */\n      0x4e487b7100000000000000000000000000000000000000000000000000000000\n        /* \"#utility.yul\":12652:12653   */\n      0x00\n        /* \"#utility.yul\":12645:12733   */\n      mstore\n        /* \"#utility.yul\":12752:12756   */\n      0x11\n        /* \"#utility.yul\":12749:12750   */\n      0x04\n        /* \"#utility.yul\":12742:12757   */\n      mstore\n        /* \"#utility.yul\":12776:12780   */\n      0x24\n        /* \"#utility.yul\":12773:12774   */\n      0x00\n        /* \"#utility.yul\":12766:12781   */\n      revert\n        /* \"#utility.yul\":12793:12973   */\n    tag_57:\n        /* \"#utility.yul\":12841:12918   */\n      0x4e487b7100000000000000000000000000000000000000000000000000000000\n        /* \"#utility.yul\":12838:12839   */\n      0x00\n        /* \"#utility.yul\":12831:12919   */\n      mstore\n        /* \"#utility.yul\":12938:12942   */\n      0x21\n        /* \"#utility.yul\":12935:12936   */\n      0x04\n        /* \"#utility.yul\":12928:12943   */\n      mstore\n        /* \"#utility.yul\":12962:12966   */\n      0x24\n        /* \"#utility.yul\":12959:12960   */\n      0x00\n        /* \"#utility.yul\":12952:12967   */\n      revert\n        /* \"#utility.yul\":12979:13159   */\n    tag_342:\n        /* \"#utility.yul\":13027:13104   */\n      0x4e487b7100000000000000000000000000000000000000000000000000000000\n        /* \"#utility.yul\":13024:13025   */\n      0x00\n        /* \"#utility.yul\":13017:13105   */\n      mstore\n        /* \"#utility.yul\":13124:13128   */\n      0x22\n        /* \"#utility.yul\":13121:13122   */\n      0x04\n        /* \"#utility.yul\":13114:13129   */\n      mstore\n        /* \"#utility.yul\":13148:13152   */\n      0x24\n        /* \"#utility.yul\":13145:13146   */\n      0x00\n        /* \"#utility.yul\":13138:13153   */\n      revert\n        /* \"#utility.yul\":13165:13345   */\n    tag_309:\n        /* \"#utility.yul\":13213:13290   */\n      0x4e487b7100000000000000000000000000000000000000000000000000000000\n        /* \"#utility.yul\":13210:13211   */\n      0x00\n        /* \"#utility.yul\":13203:13291   */\n      mstore\n        /* \"#utility.yul\":13310:13314   */\n      0x41\n        /* \"#utility.yul\":13307:13308   */\n      0x04\n        /* \"#utility.yul\":13300:13315   */\n      mstore\n        /* \"#utility.yul\":13334:13338   */\n      0x24\n        /* \"#utility.yul\":13331:13332   */\n      0x00\n        /* \"#utility.yul\":13324:13339   */\n      revert\n        /* \"#utility.yul\":13351:13468   */\n    tag_200:\n        /* \"#utility.yul\":13460:13461   */\n      0x00\n        /* \"#utility.yul\":13457:13458   */\n      dup1\n        /* \"#utility.yul\":13450:13462   */\n      revert\n        /* \"#utility.yul\":13474:13591   */\n    tag_185:\n        /* \"#utility.yul\":13583:13584   */\n      0x00\n        /* \"#utility.yul\":13580:13581   */\n      dup1\n        /* \"#utility.yul\":13573:13585   */\n      revert\n        /* \"#utility.yul\":13597:13714   */\n    tag_216:\n        /* \"#utility.yul\":13706:13707   */\n      0x00\n        /* \"#utility.yul\":13703:13704   */\n      dup1\n        /* \"#utility.yul\":13696:13708   */\n      revert\n        /* \"#utility.yul\":13720:13837   */\n    tag_209:\n        /* \"#utility.yul\":13829:13830   */\n      0x00\n        /* \"#utility.yul\":13826:13827   */\n      dup1\n        /* \"#utility.yul\":13819:13831   */\n      revert\n        /* \"#utility.yul\":13843:13945   */\n    tag_311:\n        /* \"#utility.yul\":13884:13890   */\n      0x00\n        /* \"#utility.yul\":13935:13937   */\n      0x1f\n        /* \"#utility.yul\":13931:13938   */\n      not\n        /* \"#utility.yul\":13926:13928   */\n      0x1f\n        /* \"#utility.yul\":13919:13924   */\n      dup4\n        /* \"#utility.yul\":13915:13929   */\n      add\n        /* \"#utility.yul\":13911:13939   */\n      and\n        /* \"#utility.yul\":13901:13939   */\n      swap1\n      pop\n        /* \"#utility.yul\":13843:13945   */\n      swap2\n      swap1\n      pop\n      jump\t// out\n        /* \"#utility.yul\":13951:14128   */\n    tag_257:\n        /* \"#utility.yul\":14091:14120   */\n      0x54686973204944206f66204e465420646f6e2774206578697374730000000000\n        /* \"#utility.yul\":14087:14088   */\n      0x00\n        /* \"#utility.yul\":14079:14085   */\n      dup3\n        /* \"#utility.yul\":14075:14089   */\n      add\n        /* \"#utility.yul\":14068:14121   */\n      mstore\n        /* \"#utility.yul\":13951:14128   */\n      pop\n      jump\t// out\n        /* \"#utility.yul\":14134:14359   */\n    tag_262:\n        /* \"#utility.yul\":14274:14308   */\n      0x4f776e61626c653a206e6577206f776e657220697320746865207a65726f2061\n        /* \"#utility.yul\":14270:14271   */\n      0x00\n        /* \"#utility.yul\":14262:14268   */\n      dup3\n        /* \"#utility.yul\":14258:14272   */\n      add\n        /* \"#utility.yul\":14251:14309   */\n      mstore\n        /* \"#utility.yul\":14343:14351   */\n      0x6464726573730000000000000000000000000000000000000000000000000000\n        /* \"#utility.yul\":14338:14340   */\n      0x20\n        /* \"#utility.yul\":14330:14336   */\n      dup3\n        /* \"#utility.yul\":14326:14341   */\n      add\n        /* \"#utility.yul\":14319:14352   */\n      mstore\n        /* \"#utility.yul\":14134:14359   */\n      pop\n      jump\t// out\n        /* \"#utility.yul\":14365:14546   */\n    tag_267:\n        /* \"#utility.yul\":14505:14538   */\n      0x556e61626c6520746f207265706561742074686520646574656374696f6e2100\n        /* \"#utility.yul\":14501:14502   */\n      0x00\n        /* \"#utility.yul\":14493:14499   */\n      dup3\n        /* \"#utility.yul\":14489:14503   */\n      add\n        /* \"#utility.yul\":14482:14539   */\n      mstore\n        /* \"#utility.yul\":14365:14546   */\n      pop\n      jump\t// out\n        /* \"#utility.yul\":14552:14786   */\n    tag_272:\n        /* \"#utility.yul\":14692:14726   */\n      0x546865204e465420646f6573206e6f74206d6565742074686520646574656374\n        /* \"#utility.yul\":14688:14689   */\n      0x00\n        /* \"#utility.yul\":14680:14686   */\n      dup3\n        /* \"#utility.yul\":14676:14690   */\n      add\n        /* \"#utility.yul\":14669:14727   */\n      mstore\n        /* \"#utility.yul\":14761:14778   */\n      0x696f6e20636f6e646974696f6e73210000000000000000000000000000000000\n        /* \"#utility.yul\":14756:14758   */\n      0x20\n        /* \"#utility.yul\":14748:14754   */\n      dup3\n        /* \"#utility.yul\":14744:14759   */\n      add\n        /* \"#utility.yul\":14737:14779   */\n      mstore\n        /* \"#utility.yul\":14552:14786   */\n      pop\n      jump\t// out\n        /* \"#utility.yul\":14792:14974   */\n    tag_277:\n        /* \"#utility.yul\":14932:14966   */\n      0x4f776e61626c653a2063616c6c6572206973206e6f7420746865206f776e6572\n        /* \"#utility.yul\":14928:14929   */\n      0x00\n        /* \"#utility.yul\":14920:14926   */\n      dup3\n        /* \"#utility.yul\":14916:14930   */\n      add\n        /* \"#utility.yul\":14909:14967   */\n      mstore\n        /* \"#utility.yul\":14792:14974   */\n      pop\n      jump\t// out\n        /* \"#utility.yul\":14980:15102   */\n    tag_191:\n        /* \"#utility.yul\":15053:15077   */\n      tag_366\n        /* \"#utility.yul\":15071:15076   */\n      dup2\n        /* \"#utility.yul\":15053:15077   */\n      tag_239\n      jump\t// in\n    tag_366:\n        /* \"#utility.yul\":15046:15051   */\n      dup2\n        /* \"#utility.yul\":15043:15078   */\n      eq\n        /* \"#utility.yul\":15033:15096   */\n      tag_367\n      jumpi\n        /* \"#utility.yul\":15092:15093   */\n      0x00\n        /* \"#utility.yul\":15089:15090   */\n      dup1\n        /* \"#utility.yul\":15082:15094   */\n      revert\n        /* \"#utility.yul\":15033:15096   */\n    tag_367:\n        /* \"#utility.yul\":14980:15102   */\n      pop\n      jump\t// out\n        /* \"#utility.yul\":15108:15224   */\n    tag_195:\n        /* \"#utility.yul\":15178:15199   */\n      tag_369\n        /* \"#utility.yul\":15193:15198   */\n      dup2\n        /* \"#utility.yul\":15178:15199   */\n      tag_243\n      jump\t// in\n    tag_369:\n        /* \"#utility.yul\":15171:15176   */\n      dup2\n        /* \"#utility.yul\":15168:15200   */\n      eq\n        /* \"#utility.yul\":15158:15218   */\n      tag_370\n      jumpi\n        /* \"#utility.yul\":15214:15215   */\n      0x00\n        /* \"#utility.yul\":15211:15212   */\n      dup1\n        /* \"#utility.yul\":15204:15216   */\n      revert\n        /* \"#utility.yul\":15158:15218   */\n    tag_370:\n        /* \"#utility.yul\":15108:15224   */\n      pop\n      jump\t// out\n        /* \"#utility.yul\":15230:15352   */\n    tag_205:\n        /* \"#utility.yul\":15303:15327   */\n      tag_372\n        /* \"#utility.yul\":15321:15326   */\n      dup2\n        /* \"#utility.yul\":15303:15327   */\n      tag_281\n      jump\t// in\n    tag_372:\n        /* \"#utility.yul\":15296:15301   */\n      dup2\n        /* \"#utility.yul\":15293:15328   */\n      eq\n        /* \"#utility.yul\":15283:15346   */\n      tag_373\n      jumpi\n        /* \"#utility.yul\":15342:15343   */\n      0x00\n        /* \"#utility.yul\":15339:15340   */\n      dup1\n        /* \"#utility.yul\":15332:15344   */\n      revert\n        /* \"#utility.yul\":15283:15346   */\n    tag_373:\n        /* \"#utility.yul\":15230:15352   */\n      pop\n      jump\t// out\n\n    auxdata: 0xa2646970667358221220e93a5c04b9423223f51b5927fcc5742a2499b6f2253bc778980aaa4144293d6064736f6c63430008070033\n}\n",
				"bytecode": {
					"linkReferences": {},
					"object": "60806040526001805534801561001457600080fd5b5061003161002661003660201b60201c565b61003e60201b60201c565b610102565b600033905090565b60008060009054906101000a900473ffffffffffffffffffffffffffffffffffffffff169050816000806101000a81548173ffffffffffffffffffffffffffffffffffffffff021916908373ffffffffffffffffffffffffffffffffffffffff1602179055508173ffffffffffffffffffffffffffffffffffffffff168173ffffffffffffffffffffffffffffffffffffffff167f8be0079c531659141344cd1fd0a4f28419497f9722a3daafe3b4186f6b6457e060405160405180910390a35050565b6116e1806101116000396000f3fe608060405234801561001057600080fd5b50600436106100885760003560e01c8063b3cea2171161005b578063b3cea21714610101578063b5e3029f1461011f578063d0aeae961461014f578063f2fde38b1461017f57610088565b80631c5a3e521461008d5780633a4f2d24146100a9578063715018a6146100d95780638da5cb5b146100e3575b600080fd5b6100a760048036038101906100a29190610fda565b61019b565b005b6100c360048036038101906100be9190610f35565b610378565b6040516100d09190611214565b60405180910390f35b6100e1610551565b005b6100eb6105d9565b6040516100f8919061113e565b60405180910390f35b610109610602565b6040516101169190611214565b60405180910390f35b61013960048036038101906101349190610fad565b610608565b6040516101469190611159565b60405180910390f35b61016960048036038101906101649190610eec565b610868565b6040516101769190611159565b60405180910390f35b61019960048036038101906101949190610ebf565b610982565b005b6101a3610a7a565b73ffffffffffffffffffffffffffffffffffffffff166101c16105d9565b73ffffffffffffffffffffffffffffffffffffffff1614610217576040517f08c379a000000000000000000000000000000000000000000000000000000000815260040161020e906111f4565b60405180910390fd5b600015156002600084815260200190815260200160002060030160009054906101000a900460ff16151514801561029557506000600181111561025d5761025c61149b565b5b6002600084815260200190815260200160002060000160009054906101000a900460ff1660018111156102935761029261149b565b5b145b6102d4576040517f08c379a00000000000000000000000000000000000000000000000000000000081526004016102cb906111d4565b60405180910390fd5b806002600084815260200190815260200160002060030160016101000a81548160ff021916908315150217905550600060026000600154815260200190815260200160002060030160006101000a81548160ff021916908315150217905550600160026000600154815260200190815260200160002060000160006101000a81548160ff0219169083600181111561036f5761036e61149b565b5b02179055505050565b600061038383610a82565b8015610394575061039382610b69565b5b6103d3576040517f08c379a00000000000000000000000000000000000000000000000000000000081526004016103ca906111b4565b60405180910390fd5b8260026000600154815260200190815260200160002060010190805190602001906103ff929190610d6d565b5081600260006001548152602001908152602001600020600201908051906020019061042c929190610d6d565b50600060026000600154815260200190815260200160002060000160006101000a81548160ff021916908360018111156104695761046861149b565b5b0217905550600060026000600154815260200190815260200160002060030160006101000a81548160ff021916908315150217905550600060026000600154815260200190815260200160002060030160016101000a81548160ff0219169083151502179055503360026000600154815260200190815260200160002060030160026101000a81548173ffffffffffffffffffffffffffffffffffffffff021916908373ffffffffffffffffffffffffffffffffffffffff1602179055506001805461053591906112ac565b600181905550600180546105499190611302565b905092915050565b610559610a7a565b73ffffffffffffffffffffffffffffffffffffffff166105776105d9565b73ffffffffffffffffffffffffffffffffffffffff16146105cd576040517f08c379a00000000000000000000000000000000000000000000000000000000081526004016105c4906111f4565b60405180910390fd5b6105d76000610c50565b565b60008060009054906101000a900473ffffffffffffffffffffffffffffffffffffffff16905090565b60015481565b6000600154821061064e576040517f08c379a000000000000000000000000000000000000000000000000000000000815260040161064590611174565b60405180910390fd5b6000600260008481526020019081526020016000206040518060c00160405290816000820160009054906101000a900460ff1660018111156106935761069261149b565b5b60018111156106a5576106a461149b565b5b81526020016001820180546106b9906113c0565b80601f01602080910402602001604051908101604052809291908181526020018280546106e5906113c0565b80156107325780601f1061070757610100808354040283529160200191610732565b820191906000526020600020905b81548152906001019060200180831161071557829003601f168201915b5050505050815260200160028201805461074b906113c0565b80601f0160208091040260200160405190810160405280929190818152602001828054610777906113c0565b80156107c45780601f10610799576101008083540402835291602001916107c4565b820191906000526020600020905b8154815290600101906020018083116107a757829003601f168201915b505050505081526020016003820160009054906101000a900460ff161515151581526020016003820160019054906101000a900460ff161515151581526020016003820160029054906101000a900473ffffffffffffffffffffffffffffffffffffffff1673ffffffffffffffffffffffffffffffffffffffff1673ffffffffffffffffffffffffffffffffffffffff168152505090508060800151915050919050565b600080600090505b6001548110156109775761092260026000838152602001908152602001600020600101805461089e906113c0565b80601f01602080910402602001604051908101604052809291908181526020018280546108ca906113c0565b80156109175780601f106108ec57610100808354040283529160200191610917565b820191906000526020600020905b8154815290600101906020018083116108fa57829003601f168201915b505050505084610d14565b80156109555750600115156002600083815260200190815260200160002060030160019054906101000a900460ff161515145b1561096457600191505061097d565b808061096f90611423565b915050610870565b50600090505b919050565b61098a610a7a565b73ffffffffffffffffffffffffffffffffffffffff166109a86105d9565b73ffffffffffffffffffffffffffffffffffffffff16146109fe576040517f08c379a00000000000000000000000000000000000000000000000000000000081526004016109f5906111f4565b60405180910390fd5b600073ffffffffffffffffffffffffffffffffffffffff168173ffffffffffffffffffffffffffffffffffffffff161415610a6e576040517f08c379a0000000000000000000000000000000000000000000000000000000008152600401610a6590611194565b60405180910390fd5b610a7781610c50565b50565b600033905090565b600080600090505b600154811015610b5e57610b3c600260008381526020019081526020016000206001018054610ab8906113c0565b80601f0160208091040260200160405190810160405280929190818152602001828054610ae4906113c0565b8015610b315780601f10610b0657610100808354040283529160200191610b31565b820191906000526020600020905b815481529060010190602001808311610b1457829003601f168201915b505050505084610d14565b15610b4b576000915050610b64565b8080610b5690611423565b915050610a8a565b50600190505b919050565b600080600090505b600154811015610c4557610c23600260008381526020019081526020016000206002018054610b9f906113c0565b80601f0160208091040260200160405190810160405280929190818152602001828054610bcb906113c0565b8015610c185780601f10610bed57610100808354040283529160200191610c18565b820191906000526020600020905b815481529060010190602001808311610bfb57829003601f168201915b505050505084610d14565b15610c32576000915050610c4b565b8080610c3d90611423565b915050610b71565b50600190505b919050565b60008060009054906101000a900473ffffffffffffffffffffffffffffffffffffffff169050816000806101000a81548173ffffffffffffffffffffffffffffffffffffffff021916908373ffffffffffffffffffffffffffffffffffffffff1602179055508173ffffffffffffffffffffffffffffffffffffffff168173ffffffffffffffffffffffffffffffffffffffff167f8be0079c531659141344cd1fd0a4f28419497f9722a3daafe3b4186f6b6457e060405160405180910390a35050565b600081604051602001610d279190611127565b6040516020818303038152906040528051906020012083604051602001610d4e9190611127565b6040516020818303038152906040528051906020012014905092915050565b828054610d79906113c0565b90600052602060002090601f016020900481019282610d9b5760008555610de2565b82601f10610db457805160ff1916838001178555610de2565b82800160010185558215610de2579182015b82811115610de1578251825591602001919060010190610dc6565b5b509050610def9190610df3565b5090565b5b80821115610e0c576000816000905550600101610df4565b5090565b6000610e23610e1e84611254565b61122f565b905082815260208101848484011115610e3f57610e3e61152d565b5b610e4a84828561137e565b509392505050565b600081359050610e6181611666565b92915050565b600081359050610e768161167d565b92915050565b600082601f830112610e9157610e90611528565b5b8135610ea1848260208601610e10565b91505092915050565b600081359050610eb981611694565b92915050565b600060208284031215610ed557610ed4611537565b5b6000610ee384828501610e52565b91505092915050565b600060208284031215610f0257610f01611537565b5b600082013567ffffffffffffffff811115610f2057610f1f611532565b5b610f2c84828501610e7c565b91505092915050565b60008060408385031215610f4c57610f4b611537565b5b600083013567ffffffffffffffff811115610f6a57610f69611532565b5b610f7685828601610e7c565b925050602083013567ffffffffffffffff811115610f9757610f96611532565b5b610fa385828601610e7c565b9150509250929050565b600060208284031215610fc357610fc2611537565b5b6000610fd184828501610eaa565b91505092915050565b60008060408385031215610ff157610ff0611537565b5b6000610fff85828601610eaa565b925050602061101085828601610e67565b9150509250929050565b61102381611336565b82525050565b61103281611348565b82525050565b600061104382611285565b61104d81856112a1565b935061105d81856020860161138d565b80840191505092915050565b6000611076601b83611290565b91506110818261154d565b602082019050919050565b6000611099602683611290565b91506110a482611576565b604082019050919050565b60006110bc601f83611290565b91506110c7826115c5565b602082019050919050565b60006110df602f83611290565b91506110ea826115ee565b604082019050919050565b6000611102602083611290565b915061110d8261163d565b602082019050919050565b61112181611374565b82525050565b60006111338284611038565b915081905092915050565b6000602082019050611153600083018461101a565b92915050565b600060208201905061116e6000830184611029565b92915050565b6000602082019050818103600083015261118d81611069565b9050919050565b600060208201905081810360008301526111ad8161108c565b9050919050565b600060208201905081810360008301526111cd816110af565b9050919050565b600060208201905081810360008301526111ed816110d2565b9050919050565b6000602082019050818103600083015261120d816110f5565b9050919050565b60006020820190506112296000830184611118565b92915050565b600061123961124a565b905061124582826113f2565b919050565b6000604051905090565b600067ffffffffffffffff82111561126f5761126e6114f9565b5b6112788261153c565b9050602081019050919050565b600081519050919050565b600082825260208201905092915050565b600081905092915050565b60006112b782611374565b91506112c283611374565b9250827fffffffffffffffffffffffffffffffffffffffffffffffffffffffffffffffff038211156112f7576112f661146c565b5b828201905092915050565b600061130d82611374565b915061131883611374565b92508282101561132b5761132a61146c565b5b828203905092915050565b600061134182611354565b9050919050565b60008115159050919050565b600073ffffffffffffffffffffffffffffffffffffffff82169050919050565b6000819050919050565b82818337600083830152505050565b60005b838110156113ab578082015181840152602081019050611390565b838111156113ba576000848401525b50505050565b600060028204905060018216806113d857607f821691505b602082108114156113ec576113eb6114ca565b5b50919050565b6113fb8261153c565b810181811067ffffffffffffffff8211171561141a576114196114f9565b5b80604052505050565b600061142e82611374565b91507fffffffffffffffffffffffffffffffffffffffffffffffffffffffffffffffff8214156114615761146061146c565b5b600182019050919050565b7f4e487b7100000000000000000000000000000000000000000000000000000000600052601160045260246000fd5b7f4e487b7100000000000000000000000000000000000000000000000000000000600052602160045260246000fd5b7f4e487b7100000000000000000000000000000000000000000000000000000000600052602260045260246000fd5b7f4e487b7100000000000000000000000000000000000000000000000000000000600052604160045260246000fd5b600080fd5b600080fd5b600080fd5b600080fd5b6000601f19601f8301169050919050565b7f54686973204944206f66204e465420646f6e2774206578697374730000000000600082015250565b7f4f776e61626c653a206e6577206f776e657220697320746865207a65726f206160008201527f6464726573730000000000000000000000000000000000000000000000000000602082015250565b7f556e61626c6520746f207265706561742074686520646574656374696f6e2100600082015250565b7f546865204e465420646f6573206e6f74206d656574207468652064657465637460008201527f696f6e20636f6e646974696f6e73210000000000000000000000000000000000602082015250565b7f4f776e61626c653a2063616c6c6572206973206e6f7420746865206f776e6572600082015250565b61166f81611336565b811461167a57600080fd5b50565b61168681611348565b811461169157600080fd5b50565b61169d81611374565b81146116a857600080fd5b5056fea2646970667358221220e93a5c04b9423223f51b5927fcc5742a2499b6f2253bc778980aaa4144293d6064736f6c63430008070033",
					"opcodes": "PUSH1 0x80 PUSH1 0x40 MSTORE PUSH1 0x1 DUP1 SSTORE CALLVALUE DUP1 ISZERO PUSH2 0x14 JUMPI PUSH1 0x0 DUP1 REVERT JUMPDEST POP PUSH2 0x31 PUSH2 0x26 PUSH2 0x36 PUSH1 0x20 SHL PUSH1 0x20 SHR JUMP JUMPDEST PUSH2 0x3E PUSH1 0x20 SHL PUSH1 0x20 SHR JUMP JUMPDEST PUSH2 0x102 JUMP JUMPDEST PUSH1 0x0 CALLER SWAP1 POP SWAP1 JUMP JUMPDEST PUSH1 0x0 DUP1 PUSH1 0x0 SWAP1 SLOAD SWAP1 PUSH2 0x100 EXP SWAP1 DIV PUSH20 0xFFFFFFFFFFFFFFFFFFFFFFFFFFFFFFFFFFFFFFFF AND SWAP1 POP DUP2 PUSH1 0x0 DUP1 PUSH2 0x100 EXP DUP2 SLOAD DUP2 PUSH20 0xFFFFFFFFFFFFFFFFFFFFFFFFFFFFFFFFFFFFFFFF MUL NOT AND SWAP1 DUP4 PUSH20 0xFFFFFFFFFFFFFFFFFFFFFFFFFFFFFFFFFFFFFFFF AND MUL OR SWAP1 SSTORE POP DUP2 PUSH20 0xFFFFFFFFFFFFFFFFFFFFFFFFFFFFFFFFFFFFFFFF AND DUP2 PUSH20 0xFFFFFFFFFFFFFFFFFFFFFFFFFFFFFFFFFFFFFFFF AND PUSH32 0x8BE0079C531659141344CD1FD0A4F28419497F9722A3DAAFE3B4186F6B6457E0 PUSH1 0x40 MLOAD PUSH1 0x40 MLOAD DUP1 SWAP2 SUB SWAP1 LOG3 POP POP JUMP JUMPDEST PUSH2 0x16E1 DUP1 PUSH2 0x111 PUSH1 0x0 CODECOPY PUSH1 0x0 RETURN INVALID PUSH1 0x80 PUSH1 0x40 MSTORE CALLVALUE DUP1 ISZERO PUSH2 0x10 JUMPI PUSH1 0x0 DUP1 REVERT JUMPDEST POP PUSH1 0x4 CALLDATASIZE LT PUSH2 0x88 JUMPI PUSH1 0x0 CALLDATALOAD PUSH1 0xE0 SHR DUP1 PUSH4 0xB3CEA217 GT PUSH2 0x5B JUMPI DUP1 PUSH4 0xB3CEA217 EQ PUSH2 0x101 JUMPI DUP1 PUSH4 0xB5E3029F EQ PUSH2 0x11F JUMPI DUP1 PUSH4 0xD0AEAE96 EQ PUSH2 0x14F JUMPI DUP1 PUSH4 0xF2FDE38B EQ PUSH2 0x17F JUMPI PUSH2 0x88 JUMP JUMPDEST DUP1 PUSH4 0x1C5A3E52 EQ PUSH2 0x8D JUMPI DUP1 PUSH4 0x3A4F2D24 EQ PUSH2 0xA9 JUMPI DUP1 PUSH4 0x715018A6 EQ PUSH2 0xD9 JUMPI DUP1 PUSH4 0x8DA5CB5B EQ PUSH2 0xE3 JUMPI JUMPDEST PUSH1 0x0 DUP1 REVERT JUMPDEST PUSH2 0xA7 PUSH1 0x4 DUP1 CALLDATASIZE SUB DUP2 ADD SWAP1 PUSH2 0xA2 SWAP2 SWAP1 PUSH2 0xFDA JUMP JUMPDEST PUSH2 0x19B JUMP JUMPDEST STOP JUMPDEST PUSH2 0xC3 PUSH1 0x4 DUP1 CALLDATASIZE SUB DUP2 ADD SWAP1 PUSH2 0xBE SWAP2 SWAP1 PUSH2 0xF35 JUMP JUMPDEST PUSH2 0x378 JUMP JUMPDEST PUSH1 0x40 MLOAD PUSH2 0xD0 SWAP2 SWAP1 PUSH2 0x1214 JUMP JUMPDEST PUSH1 0x40 MLOAD DUP1 SWAP2 SUB SWAP1 RETURN JUMPDEST PUSH2 0xE1 PUSH2 0x551 JUMP JUMPDEST STOP JUMPDEST PUSH2 0xEB PUSH2 0x5D9 JUMP JUMPDEST PUSH1 0x40 MLOAD PUSH2 0xF8 SWAP2 SWAP1 PUSH2 0x113E JUMP JUMPDEST PUSH1 0x40 MLOAD DUP1 SWAP2 SUB SWAP1 RETURN JUMPDEST PUSH2 0x109 PUSH2 0x602 JUMP JUMPDEST PUSH1 0x40 MLOAD PUSH2 0x116 SWAP2 SWAP1 PUSH2 0x1214 JUMP JUMPDEST PUSH1 0x40 MLOAD DUP1 SWAP2 SUB SWAP1 RETURN JUMPDEST PUSH2 0x139 PUSH1 0x4 DUP1 CALLDATASIZE SUB DUP2 ADD SWAP1 PUSH2 0x134 SWAP2 SWAP1 PUSH2 0xFAD JUMP JUMPDEST PUSH2 0x608 JUMP JUMPDEST PUSH1 0x40 MLOAD PUSH2 0x146 SWAP2 SWAP1 PUSH2 0x1159 JUMP JUMPDEST PUSH1 0x40 MLOAD DUP1 SWAP2 SUB SWAP1 RETURN JUMPDEST PUSH2 0x169 PUSH1 0x4 DUP1 CALLDATASIZE SUB DUP2 ADD SWAP1 PUSH2 0x164 SWAP2 SWAP1 PUSH2 0xEEC JUMP JUMPDEST PUSH2 0x868 JUMP JUMPDEST PUSH1 0x40 MLOAD PUSH2 0x176 SWAP2 SWAP1 PUSH2 0x1159 JUMP JUMPDEST PUSH1 0x40 MLOAD DUP1 SWAP2 SUB SWAP1 RETURN JUMPDEST PUSH2 0x199 PUSH1 0x4 DUP1 CALLDATASIZE SUB DUP2 ADD SWAP1 PUSH2 0x194 SWAP2 SWAP1 PUSH2 0xEBF JUMP JUMPDEST PUSH2 0x982 JUMP JUMPDEST STOP JUMPDEST PUSH2 0x1A3 PUSH2 0xA7A JUMP JUMPDEST PUSH20 0xFFFFFFFFFFFFFFFFFFFFFFFFFFFFFFFFFFFFFFFF AND PUSH2 0x1C1 PUSH2 0x5D9 JUMP JUMPDEST PUSH20 0xFFFFFFFFFFFFFFFFFFFFFFFFFFFFFFFFFFFFFFFF AND EQ PUSH2 0x217 JUMPI PUSH1 0x40 MLOAD PUSH32 0x8C379A000000000000000000000000000000000000000000000000000000000 DUP2 MSTORE PUSH1 0x4 ADD PUSH2 0x20E SWAP1 PUSH2 0x11F4 JUMP JUMPDEST PUSH1 0x40 MLOAD DUP1 SWAP2 SUB SWAP1 REVERT JUMPDEST PUSH1 0x0 ISZERO ISZERO PUSH1 0x2 PUSH1 0x0 DUP5 DUP2 MSTORE PUSH1 0x20 ADD SWAP1 DUP2 MSTORE PUSH1 0x20 ADD PUSH1 0x0 KECCAK256 PUSH1 0x3 ADD PUSH1 0x0 SWAP1 SLOAD SWAP1 PUSH2 0x100 EXP SWAP1 DIV PUSH1 0xFF AND ISZERO ISZERO EQ DUP1 ISZERO PUSH2 0x295 JUMPI POP PUSH1 0x0 PUSH1 0x1 DUP2 GT ISZERO PUSH2 0x25D JUMPI PUSH2 0x25C PUSH2 0x149B JUMP JUMPDEST JUMPDEST PUSH1 0x2 PUSH1 0x0 DUP5 DUP2 MSTORE PUSH1 0x20 ADD SWAP1 DUP2 MSTORE PUSH1 0x20 ADD PUSH1 0x0 KECCAK256 PUSH1 0x0 ADD PUSH1 0x0 SWAP1 SLOAD SWAP1 PUSH2 0x100 EXP SWAP1 DIV PUSH1 0xFF AND PUSH1 0x1 DUP2 GT ISZERO PUSH2 0x293 JUMPI PUSH2 0x292 PUSH2 0x149B JUMP JUMPDEST JUMPDEST EQ JUMPDEST PUSH2 0x2D4 JUMPI PUSH1 0x40 MLOAD PUSH32 0x8C379A000000000000000000000000000000000000000000000000000000000 DUP2 MSTORE PUSH1 0x4 ADD PUSH2 0x2CB SWAP1 PUSH2 0x11D4 JUMP JUMPDEST PUSH1 0x40 MLOAD DUP1 SWAP2 SUB SWAP1 REVERT JUMPDEST DUP1 PUSH1 0x2 PUSH1 0x0 DUP5 DUP2 MSTORE PUSH1 0x20 ADD SWAP1 DUP2 MSTORE PUSH1 0x20 ADD PUSH1 0x0 KECCAK256 PUSH1 0x3 ADD PUSH1 0x1 PUSH2 0x100 EXP DUP2 SLOAD DUP2 PUSH1 0xFF MUL NOT AND SWAP1 DUP4 ISZERO ISZERO MUL OR SWAP1 SSTORE POP PUSH1 0x0 PUSH1 0x2 PUSH1 0x0 PUSH1 0x1 SLOAD DUP2 MSTORE PUSH1 0x20 ADD SWAP1 DUP2 MSTORE PUSH1 0x20 ADD PUSH1 0x0 KECCAK256 PUSH1 0x3 ADD PUSH1 0x0 PUSH2 0x100 EXP DUP2 SLOAD DUP2 PUSH1 0xFF MUL NOT AND SWAP1 DUP4 ISZERO ISZERO MUL OR SWAP1 SSTORE POP PUSH1 0x1 PUSH1 0x2 PUSH1 0x0 PUSH1 0x1 SLOAD DUP2 MSTORE PUSH1 0x20 ADD SWAP1 DUP2 MSTORE PUSH1 0x20 ADD PUSH1 0x0 KECCAK256 PUSH1 0x0 ADD PUSH1 0x0 PUSH2 0x100 EXP DUP2 SLOAD DUP2 PUSH1 0xFF MUL NOT AND SWAP1 DUP4 PUSH1 0x1 DUP2 GT ISZERO PUSH2 0x36F JUMPI PUSH2 0x36E PUSH2 0x149B JUMP JUMPDEST JUMPDEST MUL OR SWAP1 SSTORE POP POP POP JUMP JUMPDEST PUSH1 0x0 PUSH2 0x383 DUP4 PUSH2 0xA82 JUMP JUMPDEST DUP1 ISZERO PUSH2 0x394 JUMPI POP PUSH2 0x393 DUP3 PUSH2 0xB69 JUMP JUMPDEST JUMPDEST PUSH2 0x3D3 JUMPI PUSH1 0x40 MLOAD PUSH32 0x8C379A000000000000000000000000000000000000000000000000000000000 DUP2 MSTORE PUSH1 0x4 ADD PUSH2 0x3CA SWAP1 PUSH2 0x11B4 JUMP JUMPDEST PUSH1 0x40 MLOAD DUP1 SWAP2 SUB SWAP1 REVERT JUMPDEST DUP3 PUSH1 0x2 PUSH1 0x0 PUSH1 0x1 SLOAD DUP2 MSTORE PUSH1 0x20 ADD SWAP1 DUP2 MSTORE PUSH1 0x20 ADD PUSH1 0x0 KECCAK256 PUSH1 0x1 ADD SWAP1 DUP1 MLOAD SWAP1 PUSH1 0x20 ADD SWAP1 PUSH2 0x3FF SWAP3 SWAP2 SWAP1 PUSH2 0xD6D JUMP JUMPDEST POP DUP2 PUSH1 0x2 PUSH1 0x0 PUSH1 0x1 SLOAD DUP2 MSTORE PUSH1 0x20 ADD SWAP1 DUP2 MSTORE PUSH1 0x20 ADD PUSH1 0x0 KECCAK256 PUSH1 0x2 ADD SWAP1 DUP1 MLOAD SWAP1 PUSH1 0x20 ADD SWAP1 PUSH2 0x42C SWAP3 SWAP2 SWAP1 PUSH2 0xD6D JUMP JUMPDEST POP PUSH1 0x0 PUSH1 0x2 PUSH1 0x0 PUSH1 0x1 SLOAD DUP2 MSTORE PUSH1 0x20 ADD SWAP1 DUP2 MSTORE PUSH1 0x20 ADD PUSH1 0x0 KECCAK256 PUSH1 0x0 ADD PUSH1 0x0 PUSH2 0x100 EXP DUP2 SLOAD DUP2 PUSH1 0xFF MUL NOT AND SWAP1 DUP4 PUSH1 0x1 DUP2 GT ISZERO PUSH2 0x469 JUMPI PUSH2 0x468 PUSH2 0x149B JUMP JUMPDEST JUMPDEST MUL OR SWAP1 SSTORE POP PUSH1 0x0 PUSH1 0x2 PUSH1 0x0 PUSH1 0x1 SLOAD DUP2 MSTORE PUSH1 0x20 ADD SWAP1 DUP2 MSTORE PUSH1 0x20 ADD PUSH1 0x0 KECCAK256 PUSH1 0x3 ADD PUSH1 0x0 PUSH2 0x100 EXP DUP2 SLOAD DUP2 PUSH1 0xFF MUL NOT AND SWAP1 DUP4 ISZERO ISZERO MUL OR SWAP1 SSTORE POP PUSH1 0x0 PUSH1 0x2 PUSH1 0x0 PUSH1 0x1 SLOAD DUP2 MSTORE PUSH1 0x20 ADD SWAP1 DUP2 MSTORE PUSH1 0x20 ADD PUSH1 0x0 KECCAK256 PUSH1 0x3 ADD PUSH1 0x1 PUSH2 0x100 EXP DUP2 SLOAD DUP2 PUSH1 0xFF MUL NOT AND SWAP1 DUP4 ISZERO ISZERO MUL OR SWAP1 SSTORE POP CALLER PUSH1 0x2 PUSH1 0x0 PUSH1 0x1 SLOAD DUP2 MSTORE PUSH1 0x20 ADD SWAP1 DUP2 MSTORE PUSH1 0x20 ADD PUSH1 0x0 KECCAK256 PUSH1 0x3 ADD PUSH1 0x2 PUSH2 0x100 EXP DUP2 SLOAD DUP2 PUSH20 0xFFFFFFFFFFFFFFFFFFFFFFFFFFFFFFFFFFFFFFFF MUL NOT AND SWAP1 DUP4 PUSH20 0xFFFFFFFFFFFFFFFFFFFFFFFFFFFFFFFFFFFFFFFF AND MUL OR SWAP1 SSTORE POP PUSH1 0x1 DUP1 SLOAD PUSH2 0x535 SWAP2 SWAP1 PUSH2 0x12AC JUMP JUMPDEST PUSH1 0x1 DUP2 SWAP1 SSTORE POP PUSH1 0x1 DUP1 SLOAD PUSH2 0x549 SWAP2 SWAP1 PUSH2 0x1302 JUMP JUMPDEST SWAP1 POP SWAP3 SWAP2 POP POP JUMP JUMPDEST PUSH2 0x559 PUSH2 0xA7A JUMP JUMPDEST PUSH20 0xFFFFFFFFFFFFFFFFFFFFFFFFFFFFFFFFFFFFFFFF AND PUSH2 0x577 PUSH2 0x5D9 JUMP JUMPDEST PUSH20 0xFFFFFFFFFFFFFFFFFFFFFFFFFFFFFFFFFFFFFFFF AND EQ PUSH2 0x5CD JUMPI PUSH1 0x40 MLOAD PUSH32 0x8C379A000000000000000000000000000000000000000000000000000000000 DUP2 MSTORE PUSH1 0x4 ADD PUSH2 0x5C4 SWAP1 PUSH2 0x11F4 JUMP JUMPDEST PUSH1 0x40 MLOAD DUP1 SWAP2 SUB SWAP1 REVERT JUMPDEST PUSH2 0x5D7 PUSH1 0x0 PUSH2 0xC50 JUMP JUMPDEST JUMP JUMPDEST PUSH1 0x0 DUP1 PUSH1 0x0 SWAP1 SLOAD SWAP1 PUSH2 0x100 EXP SWAP1 DIV PUSH20 0xFFFFFFFFFFFFFFFFFFFFFFFFFFFFFFFFFFFFFFFF AND SWAP1 POP SWAP1 JUMP JUMPDEST PUSH1 0x1 SLOAD DUP2 JUMP JUMPDEST PUSH1 0x0 PUSH1 0x1 SLOAD DUP3 LT PUSH2 0x64E JUMPI PUSH1 0x40 MLOAD PUSH32 0x8C379A000000000000000000000000000000000000000000000000000000000 DUP2 MSTORE PUSH1 0x4 ADD PUSH2 0x645 SWAP1 PUSH2 0x1174 JUMP JUMPDEST PUSH1 0x40 MLOAD DUP1 SWAP2 SUB SWAP1 REVERT JUMPDEST PUSH1 0x0 PUSH1 0x2 PUSH1 0x0 DUP5 DUP2 MSTORE PUSH1 0x20 ADD SWAP1 DUP2 MSTORE PUSH1 0x20 ADD PUSH1 0x0 KECCAK256 PUSH1 0x40 MLOAD DUP1 PUSH1 0xC0 ADD PUSH1 0x40 MSTORE SWAP1 DUP2 PUSH1 0x0 DUP3 ADD PUSH1 0x0 SWAP1 SLOAD SWAP1 PUSH2 0x100 EXP SWAP1 DIV PUSH1 0xFF AND PUSH1 0x1 DUP2 GT ISZERO PUSH2 0x693 JUMPI PUSH2 0x692 PUSH2 0x149B JUMP JUMPDEST JUMPDEST PUSH1 0x1 DUP2 GT ISZERO PUSH2 0x6A5 JUMPI PUSH2 0x6A4 PUSH2 0x149B JUMP JUMPDEST JUMPDEST DUP2 MSTORE PUSH1 0x20 ADD PUSH1 0x1 DUP3 ADD DUP1 SLOAD PUSH2 0x6B9 SWAP1 PUSH2 0x13C0 JUMP JUMPDEST DUP1 PUSH1 0x1F ADD PUSH1 0x20 DUP1 SWAP2 DIV MUL PUSH1 0x20 ADD PUSH1 0x40 MLOAD SWAP1 DUP2 ADD PUSH1 0x40 MSTORE DUP1 SWAP3 SWAP2 SWAP1 DUP2 DUP2 MSTORE PUSH1 0x20 ADD DUP3 DUP1 SLOAD PUSH2 0x6E5 SWAP1 PUSH2 0x13C0 JUMP JUMPDEST DUP1 ISZERO PUSH2 0x732 JUMPI DUP1 PUSH1 0x1F LT PUSH2 0x707 JUMPI PUSH2 0x100 DUP1 DUP4 SLOAD DIV MUL DUP4 MSTORE SWAP2 PUSH1 0x20 ADD SWAP2 PUSH2 0x732 JUMP JUMPDEST DUP3 ADD SWAP2 SWAP1 PUSH1 0x0 MSTORE PUSH1 0x20 PUSH1 0x0 KECCAK256 SWAP1 JUMPDEST DUP2 SLOAD DUP2 MSTORE SWAP1 PUSH1 0x1 ADD SWAP1 PUSH1 0x20 ADD DUP1 DUP4 GT PUSH2 0x715 JUMPI DUP3 SWAP1 SUB PUSH1 0x1F AND DUP3 ADD SWAP2 JUMPDEST POP POP POP POP POP DUP2 MSTORE PUSH1 0x20 ADD PUSH1 0x2 DUP3 ADD DUP1 SLOAD PUSH2 0x74B SWAP1 PUSH2 0x13C0 JUMP JUMPDEST DUP1 PUSH1 0x1F ADD PUSH1 0x20 DUP1 SWAP2 DIV MUL PUSH1 0x20 ADD PUSH1 0x40 MLOAD SWAP1 DUP2 ADD PUSH1 0x40 MSTORE DUP1 SWAP3 SWAP2 SWAP1 DUP2 DUP2 MSTORE PUSH1 0x20 ADD DUP3 DUP1 SLOAD PUSH2 0x777 SWAP1 PUSH2 0x13C0 JUMP JUMPDEST DUP1 ISZERO PUSH2 0x7C4 JUMPI DUP1 PUSH1 0x1F LT PUSH2 0x799 JUMPI PUSH2 0x100 DUP1 DUP4 SLOAD DIV MUL DUP4 MSTORE SWAP2 PUSH1 0x20 ADD SWAP2 PUSH2 0x7C4 JUMP JUMPDEST DUP3 ADD SWAP2 SWAP1 PUSH1 0x0 MSTORE PUSH1 0x20 PUSH1 0x0 KECCAK256 SWAP1 JUMPDEST DUP2 SLOAD DUP2 MSTORE SWAP1 PUSH1 0x1 ADD SWAP1 PUSH1 0x20 ADD DUP1 DUP4 GT PUSH2 0x7A7 JUMPI DUP3 SWAP1 SUB PUSH1 0x1F AND DUP3 ADD SWAP2 JUMPDEST POP POP POP POP POP DUP2 MSTORE PUSH1 0x20 ADD PUSH1 0x3 DUP3 ADD PUSH1 0x0 SWAP1 SLOAD SWAP1 PUSH2 0x100 EXP SWAP1 DIV PUSH1 0xFF AND ISZERO ISZERO ISZERO ISZERO DUP2 MSTORE PUSH1 0x20 ADD PUSH1 0x3 DUP3 ADD PUSH1 0x1 SWAP1 SLOAD SWAP1 PUSH2 0x100 EXP SWAP1 DIV PUSH1 0xFF AND ISZERO ISZERO ISZERO ISZERO DUP2 MSTORE PUSH1 0x20 ADD PUSH1 0x3 DUP3 ADD PUSH1 0x2 SWAP1 SLOAD SWAP1 PUSH2 0x100 EXP SWAP1 DIV PUSH20 0xFFFFFFFFFFFFFFFFFFFFFFFFFFFFFFFFFFFFFFFF AND PUSH20 0xFFFFFFFFFFFFFFFFFFFFFFFFFFFFFFFFFFFFFFFF AND PUSH20 0xFFFFFFFFFFFFFFFFFFFFFFFFFFFFFFFFFFFFFFFF AND DUP2 MSTORE POP POP SWAP1 POP DUP1 PUSH1 0x80 ADD MLOAD SWAP2 POP POP SWAP2 SWAP1 POP JUMP JUMPDEST PUSH1 0x0 DUP1 PUSH1 0x0 SWAP1 POP JUMPDEST PUSH1 0x1 SLOAD DUP2 LT ISZERO PUSH2 0x977 JUMPI PUSH2 0x922 PUSH1 0x2 PUSH1 0x0 DUP4 DUP2 MSTORE PUSH1 0x20 ADD SWAP1 DUP2 MSTORE PUSH1 0x20 ADD PUSH1 0x0 KECCAK256 PUSH1 0x1 ADD DUP1 SLOAD PUSH2 0x89E SWAP1 PUSH2 0x13C0 JUMP JUMPDEST DUP1 PUSH1 0x1F ADD PUSH1 0x20 DUP1 SWAP2 DIV MUL PUSH1 0x20 ADD PUSH1 0x40 MLOAD SWAP1 DUP2 ADD PUSH1 0x40 MSTORE DUP1 SWAP3 SWAP2 SWAP1 DUP2 DUP2 MSTORE PUSH1 0x20 ADD DUP3 DUP1 SLOAD PUSH2 0x8CA SWAP1 PUSH2 0x13C0 JUMP JUMPDEST DUP1 ISZERO PUSH2 0x917 JUMPI DUP1 PUSH1 0x1F LT PUSH2 0x8EC JUMPI PUSH2 0x100 DUP1 DUP4 SLOAD DIV MUL DUP4 MSTORE SWAP2 PUSH1 0x20 ADD SWAP2 PUSH2 0x917 JUMP JUMPDEST DUP3 ADD SWAP2 SWAP1 PUSH1 0x0 MSTORE PUSH1 0x20 PUSH1 0x0 KECCAK256 SWAP1 JUMPDEST DUP2 SLOAD DUP2 MSTORE SWAP1 PUSH1 0x1 ADD SWAP1 PUSH1 0x20 ADD DUP1 DUP4 GT PUSH2 0x8FA JUMPI DUP3 SWAP1 SUB PUSH1 0x1F AND DUP3 ADD SWAP2 JUMPDEST POP POP POP POP POP DUP5 PUSH2 0xD14 JUMP JUMPDEST DUP1 ISZERO PUSH2 0x955 JUMPI POP PUSH1 0x1 ISZERO ISZERO PUSH1 0x2 PUSH1 0x0 DUP4 DUP2 MSTORE PUSH1 0x20 ADD SWAP1 DUP2 MSTORE PUSH1 0x20 ADD PUSH1 0x0 KECCAK256 PUSH1 0x3 ADD PUSH1 0x1 SWAP1 SLOAD SWAP1 PUSH2 0x100 EXP SWAP1 DIV PUSH1 0xFF AND ISZERO ISZERO EQ JUMPDEST ISZERO PUSH2 0x964 JUMPI PUSH1 0x1 SWAP2 POP POP PUSH2 0x97D JUMP JUMPDEST DUP1 DUP1 PUSH2 0x96F SWAP1 PUSH2 0x1423 JUMP JUMPDEST SWAP2 POP POP PUSH2 0x870 JUMP JUMPDEST POP PUSH1 0x0 SWAP1 POP JUMPDEST SWAP2 SWAP1 POP JUMP JUMPDEST PUSH2 0x98A PUSH2 0xA7A JUMP JUMPDEST PUSH20 0xFFFFFFFFFFFFFFFFFFFFFFFFFFFFFFFFFFFFFFFF AND PUSH2 0x9A8 PUSH2 0x5D9 JUMP JUMPDEST PUSH20 0xFFFFFFFFFFFFFFFFFFFFFFFFFFFFFFFFFFFFFFFF AND EQ PUSH2 0x9FE JUMPI PUSH1 0x40 MLOAD PUSH32 0x8C379A000000000000000000000000000000000000000000000000000000000 DUP2 MSTORE PUSH1 0x4 ADD PUSH2 0x9F5 SWAP1 PUSH2 0x11F4 JUMP JUMPDEST PUSH1 0x40 MLOAD DUP1 SWAP2 SUB SWAP1 REVERT JUMPDEST PUSH1 0x0 PUSH20 0xFFFFFFFFFFFFFFFFFFFFFFFFFFFFFFFFFFFFFFFF AND DUP2 PUSH20 0xFFFFFFFFFFFFFFFFFFFFFFFFFFFFFFFFFFFFFFFF AND EQ ISZERO PUSH2 0xA6E JUMPI PUSH1 0x40 MLOAD PUSH32 0x8C379A000000000000000000000000000000000000000000000000000000000 DUP2 MSTORE PUSH1 0x4 ADD PUSH2 0xA65 SWAP1 PUSH2 0x1194 JUMP JUMPDEST PUSH1 0x40 MLOAD DUP1 SWAP2 SUB SWAP1 REVERT JUMPDEST PUSH2 0xA77 DUP2 PUSH2 0xC50 JUMP JUMPDEST POP JUMP JUMPDEST PUSH1 0x0 CALLER SWAP1 POP SWAP1 JUMP JUMPDEST PUSH1 0x0 DUP1 PUSH1 0x0 SWAP1 POP JUMPDEST PUSH1 0x1 SLOAD DUP2 LT ISZERO PUSH2 0xB5E JUMPI PUSH2 0xB3C PUSH1 0x2 PUSH1 0x0 DUP4 DUP2 MSTORE PUSH1 0x20 ADD SWAP1 DUP2 MSTORE PUSH1 0x20 ADD PUSH1 0x0 KECCAK256 PUSH1 0x1 ADD DUP1 SLOAD PUSH2 0xAB8 SWAP1 PUSH2 0x13C0 JUMP JUMPDEST DUP1 PUSH1 0x1F ADD PUSH1 0x20 DUP1 SWAP2 DIV MUL PUSH1 0x20 ADD PUSH1 0x40 MLOAD SWAP1 DUP2 ADD PUSH1 0x40 MSTORE DUP1 SWAP3 SWAP2 SWAP1 DUP2 DUP2 MSTORE PUSH1 0x20 ADD DUP3 DUP1 SLOAD PUSH2 0xAE4 SWAP1 PUSH2 0x13C0 JUMP JUMPDEST DUP1 ISZERO PUSH2 0xB31 JUMPI DUP1 PUSH1 0x1F LT PUSH2 0xB06 JUMPI PUSH2 0x100 DUP1 DUP4 SLOAD DIV MUL DUP4 MSTORE SWAP2 PUSH1 0x20 ADD SWAP2 PUSH2 0xB31 JUMP JUMPDEST DUP3 ADD SWAP2 SWAP1 PUSH1 0x0 MSTORE PUSH1 0x20 PUSH1 0x0 KECCAK256 SWAP1 JUMPDEST DUP2 SLOAD DUP2 MSTORE SWAP1 PUSH1 0x1 ADD SWAP1 PUSH1 0x20 ADD DUP1 DUP4 GT PUSH2 0xB14 JUMPI DUP3 SWAP1 SUB PUSH1 0x1F AND DUP3 ADD SWAP2 JUMPDEST POP POP POP POP POP DUP5 PUSH2 0xD14 JUMP JUMPDEST ISZERO PUSH2 0xB4B JUMPI PUSH1 0x0 SWAP2 POP POP PUSH2 0xB64 JUMP JUMPDEST DUP1 DUP1 PUSH2 0xB56 SWAP1 PUSH2 0x1423 JUMP JUMPDEST SWAP2 POP POP PUSH2 0xA8A JUMP JUMPDEST POP PUSH1 0x1 SWAP1 POP JUMPDEST SWAP2 SWAP1 POP JUMP JUMPDEST PUSH1 0x0 DUP1 PUSH1 0x0 SWAP1 POP JUMPDEST PUSH1 0x1 SLOAD DUP2 LT ISZERO PUSH2 0xC45 JUMPI PUSH2 0xC23 PUSH1 0x2 PUSH1 0x0 DUP4 DUP2 MSTORE PUSH1 0x20 ADD SWAP1 DUP2 MSTORE PUSH1 0x20 ADD PUSH1 0x0 KECCAK256 PUSH1 0x2 ADD DUP1 SLOAD PUSH2 0xB9F SWAP1 PUSH2 0x13C0 JUMP JUMPDEST DUP1 PUSH1 0x1F ADD PUSH1 0x20 DUP1 SWAP2 DIV MUL PUSH1 0x20 ADD PUSH1 0x40 MLOAD SWAP1 DUP2 ADD PUSH1 0x40 MSTORE DUP1 SWAP3 SWAP2 SWAP1 DUP2 DUP2 MSTORE PUSH1 0x20 ADD DUP3 DUP1 SLOAD PUSH2 0xBCB SWAP1 PUSH2 0x13C0 JUMP JUMPDEST DUP1 ISZERO PUSH2 0xC18 JUMPI DUP1 PUSH1 0x1F LT PUSH2 0xBED JUMPI PUSH2 0x100 DUP1 DUP4 SLOAD DIV MUL DUP4 MSTORE SWAP2 PUSH1 0x20 ADD SWAP2 PUSH2 0xC18 JUMP JUMPDEST DUP3 ADD SWAP2 SWAP1 PUSH1 0x0 MSTORE PUSH1 0x20 PUSH1 0x0 KECCAK256 SWAP1 JUMPDEST DUP2 SLOAD DUP2 MSTORE SWAP1 PUSH1 0x1 ADD SWAP1 PUSH1 0x20 ADD DUP1 DUP4 GT PUSH2 0xBFB JUMPI DUP3 SWAP1 SUB PUSH1 0x1F AND DUP3 ADD SWAP2 JUMPDEST POP POP POP POP POP DUP5 PUSH2 0xD14 JUMP JUMPDEST ISZERO PUSH2 0xC32 JUMPI PUSH1 0x0 SWAP2 POP POP PUSH2 0xC4B JUMP JUMPDEST DUP1 DUP1 PUSH2 0xC3D SWAP1 PUSH2 0x1423 JUMP JUMPDEST SWAP2 POP POP PUSH2 0xB71 JUMP JUMPDEST POP PUSH1 0x1 SWAP1 POP JUMPDEST SWAP2 SWAP1 POP JUMP JUMPDEST PUSH1 0x0 DUP1 PUSH1 0x0 SWAP1 SLOAD SWAP1 PUSH2 0x100 EXP SWAP1 DIV PUSH20 0xFFFFFFFFFFFFFFFFFFFFFFFFFFFFFFFFFFFFFFFF AND SWAP1 POP DUP2 PUSH1 0x0 DUP1 PUSH2 0x100 EXP DUP2 SLOAD DUP2 PUSH20 0xFFFFFFFFFFFFFFFFFFFFFFFFFFFFFFFFFFFFFFFF MUL NOT AND SWAP1 DUP4 PUSH20 0xFFFFFFFFFFFFFFFFFFFFFFFFFFFFFFFFFFFFFFFF AND MUL OR SWAP1 SSTORE POP DUP2 PUSH20 0xFFFFFFFFFFFFFFFFFFFFFFFFFFFFFFFFFFFFFFFF AND DUP2 PUSH20 0xFFFFFFFFFFFFFFFFFFFFFFFFFFFFFFFFFFFFFFFF AND PUSH32 0x8BE0079C531659141344CD1FD0A4F28419497F9722A3DAAFE3B4186F6B6457E0 PUSH1 0x40 MLOAD PUSH1 0x40 MLOAD DUP1 SWAP2 SUB SWAP1 LOG3 POP POP JUMP JUMPDEST PUSH1 0x0 DUP2 PUSH1 0x40 MLOAD PUSH1 0x20 ADD PUSH2 0xD27 SWAP2 SWAP1 PUSH2 0x1127 JUMP JUMPDEST PUSH1 0x40 MLOAD PUSH1 0x20 DUP2 DUP4 SUB SUB DUP2 MSTORE SWAP1 PUSH1 0x40 MSTORE DUP1 MLOAD SWAP1 PUSH1 0x20 ADD KECCAK256 DUP4 PUSH1 0x40 MLOAD PUSH1 0x20 ADD PUSH2 0xD4E SWAP2 SWAP1 PUSH2 0x1127 JUMP JUMPDEST PUSH1 0x40 MLOAD PUSH1 0x20 DUP2 DUP4 SUB SUB DUP2 MSTORE SWAP1 PUSH1 0x40 MSTORE DUP1 MLOAD SWAP1 PUSH1 0x20 ADD KECCAK256 EQ SWAP1 POP SWAP3 SWAP2 POP POP JUMP JUMPDEST DUP3 DUP1 SLOAD PUSH2 0xD79 SWAP1 PUSH2 0x13C0 JUMP JUMPDEST SWAP1 PUSH1 0x0 MSTORE PUSH1 0x20 PUSH1 0x0 KECCAK256 SWAP1 PUSH1 0x1F ADD PUSH1 0x20 SWAP1 DIV DUP2 ADD SWAP3 DUP3 PUSH2 0xD9B JUMPI PUSH1 0x0 DUP6 SSTORE PUSH2 0xDE2 JUMP JUMPDEST DUP3 PUSH1 0x1F LT PUSH2 0xDB4 JUMPI DUP1 MLOAD PUSH1 0xFF NOT AND DUP4 DUP1 ADD OR DUP6 SSTORE PUSH2 0xDE2 JUMP JUMPDEST DUP3 DUP1 ADD PUSH1 0x1 ADD DUP6 SSTORE DUP3 ISZERO PUSH2 0xDE2 JUMPI SWAP2 DUP3 ADD JUMPDEST DUP3 DUP2 GT ISZERO PUSH2 0xDE1 JUMPI DUP3 MLOAD DUP3 SSTORE SWAP2 PUSH1 0x20 ADD SWAP2 SWAP1 PUSH1 0x1 ADD SWAP1 PUSH2 0xDC6 JUMP JUMPDEST JUMPDEST POP SWAP1 POP PUSH2 0xDEF SWAP2 SWAP1 PUSH2 0xDF3 JUMP JUMPDEST POP SWAP1 JUMP JUMPDEST JUMPDEST DUP1 DUP3 GT ISZERO PUSH2 0xE0C JUMPI PUSH1 0x0 DUP2 PUSH1 0x0 SWAP1 SSTORE POP PUSH1 0x1 ADD PUSH2 0xDF4 JUMP JUMPDEST POP SWAP1 JUMP JUMPDEST PUSH1 0x0 PUSH2 0xE23 PUSH2 0xE1E DUP5 PUSH2 0x1254 JUMP JUMPDEST PUSH2 0x122F JUMP JUMPDEST SWAP1 POP DUP3 DUP2 MSTORE PUSH1 0x20 DUP2 ADD DUP5 DUP5 DUP5 ADD GT ISZERO PUSH2 0xE3F JUMPI PUSH2 0xE3E PUSH2 0x152D JUMP JUMPDEST JUMPDEST PUSH2 0xE4A DUP5 DUP3 DUP6 PUSH2 0x137E JUMP JUMPDEST POP SWAP4 SWAP3 POP POP POP JUMP JUMPDEST PUSH1 0x0 DUP2 CALLDATALOAD SWAP1 POP PUSH2 0xE61 DUP2 PUSH2 0x1666 JUMP JUMPDEST SWAP3 SWAP2 POP POP JUMP JUMPDEST PUSH1 0x0 DUP2 CALLDATALOAD SWAP1 POP PUSH2 0xE76 DUP2 PUSH2 0x167D JUMP JUMPDEST SWAP3 SWAP2 POP POP JUMP JUMPDEST PUSH1 0x0 DUP3 PUSH1 0x1F DUP4 ADD SLT PUSH2 0xE91 JUMPI PUSH2 0xE90 PUSH2 0x1528 JUMP JUMPDEST JUMPDEST DUP2 CALLDATALOAD PUSH2 0xEA1 DUP5 DUP3 PUSH1 0x20 DUP7 ADD PUSH2 0xE10 JUMP JUMPDEST SWAP2 POP POP SWAP3 SWAP2 POP POP JUMP JUMPDEST PUSH1 0x0 DUP2 CALLDATALOAD SWAP1 POP PUSH2 0xEB9 DUP2 PUSH2 0x1694 JUMP JUMPDEST SWAP3 SWAP2 POP POP JUMP JUMPDEST PUSH1 0x0 PUSH1 0x20 DUP3 DUP5 SUB SLT ISZERO PUSH2 0xED5 JUMPI PUSH2 0xED4 PUSH2 0x1537 JUMP JUMPDEST JUMPDEST PUSH1 0x0 PUSH2 0xEE3 DUP5 DUP3 DUP6 ADD PUSH2 0xE52 JUMP JUMPDEST SWAP2 POP POP SWAP3 SWAP2 POP POP JUMP JUMPDEST PUSH1 0x0 PUSH1 0x20 DUP3 DUP5 SUB SLT ISZERO PUSH2 0xF02 JUMPI PUSH2 0xF01 PUSH2 0x1537 JUMP JUMPDEST JUMPDEST PUSH1 0x0 DUP3 ADD CALLDATALOAD PUSH8 0xFFFFFFFFFFFFFFFF DUP2 GT ISZERO PUSH2 0xF20 JUMPI PUSH2 0xF1F PUSH2 0x1532 JUMP JUMPDEST JUMPDEST PUSH2 0xF2C DUP5 DUP3 DUP6 ADD PUSH2 0xE7C JUMP JUMPDEST SWAP2 POP POP SWAP3 SWAP2 POP POP JUMP JUMPDEST PUSH1 0x0 DUP1 PUSH1 0x40 DUP4 DUP6 SUB SLT ISZERO PUSH2 0xF4C JUMPI PUSH2 0xF4B PUSH2 0x1537 JUMP JUMPDEST JUMPDEST PUSH1 0x0 DUP4 ADD CALLDATALOAD PUSH8 0xFFFFFFFFFFFFFFFF DUP2 GT ISZERO PUSH2 0xF6A JUMPI PUSH2 0xF69 PUSH2 0x1532 JUMP JUMPDEST JUMPDEST PUSH2 0xF76 DUP6 DUP3 DUP7 ADD PUSH2 0xE7C JUMP JUMPDEST SWAP3 POP POP PUSH1 0x20 DUP4 ADD CALLDATALOAD PUSH8 0xFFFFFFFFFFFFFFFF DUP2 GT ISZERO PUSH2 0xF97 JUMPI PUSH2 0xF96 PUSH2 0x1532 JUMP JUMPDEST JUMPDEST PUSH2 0xFA3 DUP6 DUP3 DUP7 ADD PUSH2 0xE7C JUMP JUMPDEST SWAP2 POP POP SWAP3 POP SWAP3 SWAP1 POP JUMP JUMPDEST PUSH1 0x0 PUSH1 0x20 DUP3 DUP5 SUB SLT ISZERO PUSH2 0xFC3 JUMPI PUSH2 0xFC2 PUSH2 0x1537 JUMP JUMPDEST JUMPDEST PUSH1 0x0 PUSH2 0xFD1 DUP5 DUP3 DUP6 ADD PUSH2 0xEAA JUMP JUMPDEST SWAP2 POP POP SWAP3 SWAP2 POP POP JUMP JUMPDEST PUSH1 0x0 DUP1 PUSH1 0x40 DUP4 DUP6 SUB SLT ISZERO PUSH2 0xFF1 JUMPI PUSH2 0xFF0 PUSH2 0x1537 JUMP JUMPDEST JUMPDEST PUSH1 0x0 PUSH2 0xFFF DUP6 DUP3 DUP7 ADD PUSH2 0xEAA JUMP JUMPDEST SWAP3 POP POP PUSH1 0x20 PUSH2 0x1010 DUP6 DUP3 DUP7 ADD PUSH2 0xE67 JUMP JUMPDEST SWAP2 POP POP SWAP3 POP SWAP3 SWAP1 POP JUMP JUMPDEST PUSH2 0x1023 DUP2 PUSH2 0x1336 JUMP JUMPDEST DUP3 MSTORE POP POP JUMP JUMPDEST PUSH2 0x1032 DUP2 PUSH2 0x1348 JUMP JUMPDEST DUP3 MSTORE POP POP JUMP JUMPDEST PUSH1 0x0 PUSH2 0x1043 DUP3 PUSH2 0x1285 JUMP JUMPDEST PUSH2 0x104D DUP2 DUP6 PUSH2 0x12A1 JUMP JUMPDEST SWAP4 POP PUSH2 0x105D DUP2 DUP6 PUSH1 0x20 DUP7 ADD PUSH2 0x138D JUMP JUMPDEST DUP1 DUP5 ADD SWAP2 POP POP SWAP3 SWAP2 POP POP JUMP JUMPDEST PUSH1 0x0 PUSH2 0x1076 PUSH1 0x1B DUP4 PUSH2 0x1290 JUMP JUMPDEST SWAP2 POP PUSH2 0x1081 DUP3 PUSH2 0x154D JUMP JUMPDEST PUSH1 0x20 DUP3 ADD SWAP1 POP SWAP2 SWAP1 POP JUMP JUMPDEST PUSH1 0x0 PUSH2 0x1099 PUSH1 0x26 DUP4 PUSH2 0x1290 JUMP JUMPDEST SWAP2 POP PUSH2 0x10A4 DUP3 PUSH2 0x1576 JUMP JUMPDEST PUSH1 0x40 DUP3 ADD SWAP1 POP SWAP2 SWAP1 POP JUMP JUMPDEST PUSH1 0x0 PUSH2 0x10BC PUSH1 0x1F DUP4 PUSH2 0x1290 JUMP JUMPDEST SWAP2 POP PUSH2 0x10C7 DUP3 PUSH2 0x15C5 JUMP JUMPDEST PUSH1 0x20 DUP3 ADD SWAP1 POP SWAP2 SWAP1 POP JUMP JUMPDEST PUSH1 0x0 PUSH2 0x10DF PUSH1 0x2F DUP4 PUSH2 0x1290 JUMP JUMPDEST SWAP2 POP PUSH2 0x10EA DUP3 PUSH2 0x15EE JUMP JUMPDEST PUSH1 0x40 DUP3 ADD SWAP1 POP SWAP2 SWAP1 POP JUMP JUMPDEST PUSH1 0x0 PUSH2 0x1102 PUSH1 0x20 DUP4 PUSH2 0x1290 JUMP JUMPDEST SWAP2 POP PUSH2 0x110D DUP3 PUSH2 0x163D JUMP JUMPDEST PUSH1 0x20 DUP3 ADD SWAP1 POP SWAP2 SWAP1 POP JUMP JUMPDEST PUSH2 0x1121 DUP2 PUSH2 0x1374 JUMP JUMPDEST DUP3 MSTORE POP POP JUMP JUMPDEST PUSH1 0x0 PUSH2 0x1133 DUP3 DUP5 PUSH2 0x1038 JUMP JUMPDEST SWAP2 POP DUP2 SWAP1 POP SWAP3 SWAP2 POP POP JUMP JUMPDEST PUSH1 0x0 PUSH1 0x20 DUP3 ADD SWAP1 POP PUSH2 0x1153 PUSH1 0x0 DUP4 ADD DUP5 PUSH2 0x101A JUMP JUMPDEST SWAP3 SWAP2 POP POP JUMP JUMPDEST PUSH1 0x0 PUSH1 0x20 DUP3 ADD SWAP1 POP PUSH2 0x116E PUSH1 0x0 DUP4 ADD DUP5 PUSH2 0x1029 JUMP JUMPDEST SWAP3 SWAP2 POP POP JUMP JUMPDEST PUSH1 0x0 PUSH1 0x20 DUP3 ADD SWAP1 POP DUP2 DUP2 SUB PUSH1 0x0 DUP4 ADD MSTORE PUSH2 0x118D DUP2 PUSH2 0x1069 JUMP JUMPDEST SWAP1 POP SWAP2 SWAP1 POP JUMP JUMPDEST PUSH1 0x0 PUSH1 0x20 DUP3 ADD SWAP1 POP DUP2 DUP2 SUB PUSH1 0x0 DUP4 ADD MSTORE PUSH2 0x11AD DUP2 PUSH2 0x108C JUMP JUMPDEST SWAP1 POP SWAP2 SWAP1 POP JUMP JUMPDEST PUSH1 0x0 PUSH1 0x20 DUP3 ADD SWAP1 POP DUP2 DUP2 SUB PUSH1 0x0 DUP4 ADD MSTORE PUSH2 0x11CD DUP2 PUSH2 0x10AF JUMP JUMPDEST SWAP1 POP SWAP2 SWAP1 POP JUMP JUMPDEST PUSH1 0x0 PUSH1 0x20 DUP3 ADD SWAP1 POP DUP2 DUP2 SUB PUSH1 0x0 DUP4 ADD MSTORE PUSH2 0x11ED DUP2 PUSH2 0x10D2 JUMP JUMPDEST SWAP1 POP SWAP2 SWAP1 POP JUMP JUMPDEST PUSH1 0x0 PUSH1 0x20 DUP3 ADD SWAP1 POP DUP2 DUP2 SUB PUSH1 0x0 DUP4 ADD MSTORE PUSH2 0x120D DUP2 PUSH2 0x10F5 JUMP JUMPDEST SWAP1 POP SWAP2 SWAP1 POP JUMP JUMPDEST PUSH1 0x0 PUSH1 0x20 DUP3 ADD SWAP1 POP PUSH2 0x1229 PUSH1 0x0 DUP4 ADD DUP5 PUSH2 0x1118 JUMP JUMPDEST SWAP3 SWAP2 POP POP JUMP JUMPDEST PUSH1 0x0 PUSH2 0x1239 PUSH2 0x124A JUMP JUMPDEST SWAP1 POP PUSH2 0x1245 DUP3 DUP3 PUSH2 0x13F2 JUMP JUMPDEST SWAP2 SWAP1 POP JUMP JUMPDEST PUSH1 0x0 PUSH1 0x40 MLOAD SWAP1 POP SWAP1 JUMP JUMPDEST PUSH1 0x0 PUSH8 0xFFFFFFFFFFFFFFFF DUP3 GT ISZERO PUSH2 0x126F JUMPI PUSH2 0x126E PUSH2 0x14F9 JUMP JUMPDEST JUMPDEST PUSH2 0x1278 DUP3 PUSH2 0x153C JUMP JUMPDEST SWAP1 POP PUSH1 0x20 DUP2 ADD SWAP1 POP SWAP2 SWAP1 POP JUMP JUMPDEST PUSH1 0x0 DUP2 MLOAD SWAP1 POP SWAP2 SWAP1 POP JUMP JUMPDEST PUSH1 0x0 DUP3 DUP3 MSTORE PUSH1 0x20 DUP3 ADD SWAP1 POP SWAP3 SWAP2 POP POP JUMP JUMPDEST PUSH1 0x0 DUP2 SWAP1 POP SWAP3 SWAP2 POP POP JUMP JUMPDEST PUSH1 0x0 PUSH2 0x12B7 DUP3 PUSH2 0x1374 JUMP JUMPDEST SWAP2 POP PUSH2 0x12C2 DUP4 PUSH2 0x1374 JUMP JUMPDEST SWAP3 POP DUP3 PUSH32 0xFFFFFFFFFFFFFFFFFFFFFFFFFFFFFFFFFFFFFFFFFFFFFFFFFFFFFFFFFFFFFFFF SUB DUP3 GT ISZERO PUSH2 0x12F7 JUMPI PUSH2 0x12F6 PUSH2 0x146C JUMP JUMPDEST JUMPDEST DUP3 DUP3 ADD SWAP1 POP SWAP3 SWAP2 POP POP JUMP JUMPDEST PUSH1 0x0 PUSH2 0x130D DUP3 PUSH2 0x1374 JUMP JUMPDEST SWAP2 POP PUSH2 0x1318 DUP4 PUSH2 0x1374 JUMP JUMPDEST SWAP3 POP DUP3 DUP3 LT ISZERO PUSH2 0x132B JUMPI PUSH2 0x132A PUSH2 0x146C JUMP JUMPDEST JUMPDEST DUP3 DUP3 SUB SWAP1 POP SWAP3 SWAP2 POP POP JUMP JUMPDEST PUSH1 0x0 PUSH2 0x1341 DUP3 PUSH2 0x1354 JUMP JUMPDEST SWAP1 POP SWAP2 SWAP1 POP JUMP JUMPDEST PUSH1 0x0 DUP2 ISZERO ISZERO SWAP1 POP SWAP2 SWAP1 POP JUMP JUMPDEST PUSH1 0x0 PUSH20 0xFFFFFFFFFFFFFFFFFFFFFFFFFFFFFFFFFFFFFFFF DUP3 AND SWAP1 POP SWAP2 SWAP1 POP JUMP JUMPDEST PUSH1 0x0 DUP2 SWAP1 POP SWAP2 SWAP1 POP JUMP JUMPDEST DUP3 DUP2 DUP4 CALLDATACOPY PUSH1 0x0 DUP4 DUP4 ADD MSTORE POP POP POP JUMP JUMPDEST PUSH1 0x0 JUMPDEST DUP4 DUP2 LT ISZERO PUSH2 0x13AB JUMPI DUP1 DUP3 ADD MLOAD DUP2 DUP5 ADD MSTORE PUSH1 0x20 DUP2 ADD SWAP1 POP PUSH2 0x1390 JUMP JUMPDEST DUP4 DUP2 GT ISZERO PUSH2 0x13BA JUMPI PUSH1 0x0 DUP5 DUP5 ADD MSTORE JUMPDEST POP POP POP POP JUMP JUMPDEST PUSH1 0x0 PUSH1 0x2 DUP3 DIV SWAP1 POP PUSH1 0x1 DUP3 AND DUP1 PUSH2 0x13D8 JUMPI PUSH1 0x7F DUP3 AND SWAP2 POP JUMPDEST PUSH1 0x20 DUP3 LT DUP2 EQ ISZERO PUSH2 0x13EC JUMPI PUSH2 0x13EB PUSH2 0x14CA JUMP JUMPDEST JUMPDEST POP SWAP2 SWAP1 POP JUMP JUMPDEST PUSH2 0x13FB DUP3 PUSH2 0x153C JUMP JUMPDEST DUP2 ADD DUP2 DUP2 LT PUSH8 0xFFFFFFFFFFFFFFFF DUP3 GT OR ISZERO PUSH2 0x141A JUMPI PUSH2 0x1419 PUSH2 0x14F9 JUMP JUMPDEST JUMPDEST DUP1 PUSH1 0x40 MSTORE POP POP POP JUMP JUMPDEST PUSH1 0x0 PUSH2 0x142E DUP3 PUSH2 0x1374 JUMP JUMPDEST SWAP2 POP PUSH32 0xFFFFFFFFFFFFFFFFFFFFFFFFFFFFFFFFFFFFFFFFFFFFFFFFFFFFFFFFFFFFFFFF DUP3 EQ ISZERO PUSH2 0x1461 JUMPI PUSH2 0x1460 PUSH2 0x146C JUMP JUMPDEST JUMPDEST PUSH1 0x1 DUP3 ADD SWAP1 POP SWAP2 SWAP1 POP JUMP JUMPDEST PUSH32 0x4E487B7100000000000000000000000000000000000000000000000000000000 PUSH1 0x0 MSTORE PUSH1 0x11 PUSH1 0x4 MSTORE PUSH1 0x24 PUSH1 0x0 REVERT JUMPDEST PUSH32 0x4E487B7100000000000000000000000000000000000000000000000000000000 PUSH1 0x0 MSTORE PUSH1 0x21 PUSH1 0x4 MSTORE PUSH1 0x24 PUSH1 0x0 REVERT JUMPDEST PUSH32 0x4E487B7100000000000000000000000000000000000000000000000000000000 PUSH1 0x0 MSTORE PUSH1 0x22 PUSH1 0x4 MSTORE PUSH1 0x24 PUSH1 0x0 REVERT JUMPDEST PUSH32 0x4E487B7100000000000000000000000000000000000000000000000000000000 PUSH1 0x0 MSTORE PUSH1 0x41 PUSH1 0x4 MSTORE PUSH1 0x24 PUSH1 0x0 REVERT JUMPDEST PUSH1 0x0 DUP1 REVERT JUMPDEST PUSH1 0x0 DUP1 REVERT JUMPDEST PUSH1 0x0 DUP1 REVERT JUMPDEST PUSH1 0x0 DUP1 REVERT JUMPDEST PUSH1 0x0 PUSH1 0x1F NOT PUSH1 0x1F DUP4 ADD AND SWAP1 POP SWAP2 SWAP1 POP JUMP JUMPDEST PUSH32 0x54686973204944206F66204E465420646F6E2774206578697374730000000000 PUSH1 0x0 DUP3 ADD MSTORE POP JUMP JUMPDEST PUSH32 0x4F776E61626C653A206E6577206F776E657220697320746865207A65726F2061 PUSH1 0x0 DUP3 ADD MSTORE PUSH32 0x6464726573730000000000000000000000000000000000000000000000000000 PUSH1 0x20 DUP3 ADD MSTORE POP JUMP JUMPDEST PUSH32 0x556E61626C6520746F207265706561742074686520646574656374696F6E2100 PUSH1 0x0 DUP3 ADD MSTORE POP JUMP JUMPDEST PUSH32 0x546865204E465420646F6573206E6F74206D6565742074686520646574656374 PUSH1 0x0 DUP3 ADD MSTORE PUSH32 0x696F6E20636F6E646974696F6E73210000000000000000000000000000000000 PUSH1 0x20 DUP3 ADD MSTORE POP JUMP JUMPDEST PUSH32 0x4F776E61626C653A2063616C6C6572206973206E6F7420746865206F776E6572 PUSH1 0x0 DUP3 ADD MSTORE POP JUMP JUMPDEST PUSH2 0x166F DUP2 PUSH2 0x1336 JUMP JUMPDEST DUP2 EQ PUSH2 0x167A JUMPI PUSH1 0x0 DUP1 REVERT JUMPDEST POP JUMP JUMPDEST PUSH2 0x1686 DUP2 PUSH2 0x1348 JUMP JUMPDEST DUP2 EQ PUSH2 0x1691 JUMPI PUSH1 0x0 DUP1 REVERT JUMPDEST POP JUMP JUMPDEST PUSH2 0x169D DUP2 PUSH2 0x1374 JUMP JUMPDEST DUP2 EQ PUSH2 0x16A8 JUMPI PUSH1 0x0 DUP1 REVERT JUMPDEST POP JUMP INVALID LOG2 PUSH5 0x6970667358 0x22 SLT KECCAK256 0xE9 GASPRICE 0x5C DIV 0xB9 TIMESTAMP ORIGIN 0x23 CREATE2 SHL MSIZE 0x27 0xFC 0xC5 PUSH21 0x2A2499B6F2253BC778980AAA4144293D6064736F6C PUSH4 0x43000807 STOP CALLER "
				},
				"gasEstimates": {
					"creation": {
						"codeDepositCost": "1171400",
						"executionCost": "infinite",
						"totalCost": "infinite"
					},
					"external": {
						"ID()": "2429",
						"checkNFTByHash(string)": "infinite",
						"checkNFTByID(uint256)": "infinite",
						"detectNFT(uint256,bool)": "84707",
						"owner()": "2589",
						"renounceOwnership()": "30419",
						"transferOwnership(address)": "30789",
						"uploadNFT(string,string)": "infinite"
					},
					"internal": {
						"compareStrings(string memory,string memory)": "infinite",
						"hashIsExists(string memory)": "infinite",
						"ipfsIsExists(string memory)": "infinite"
					}
				},
				"methodIdentifiers": {
					"ID()": "b3cea217",
					"checkNFTByHash(string)": "d0aeae96",
					"checkNFTByID(uint256)": "b5e3029f",
					"detectNFT(uint256,bool)": "1c5a3e52",
					"owner()": "8da5cb5b",
					"renounceOwnership()": "715018a6",
					"transferOwnership(address)": "f2fde38b",
					"uploadNFT(string,string)": "3a4f2d24"
				}
			},
			"userdoc": {
				"kind": "user",
				"methods": {},
				"version": 1
			}
		}
	}
}