{
	"oracle_flat.sol": {
		"NFTOracle": {
			"abi": [
				{
					"inputs": [],
					"stateMutability": "nonpayable",
					"type": "constructor"
				},
				{
					"anonymous": false,
					"inputs": [
						{
							"indexed": true,
							"internalType": "address",
							"name": "previousOwner",
							"type": "address"
						},
						{
							"indexed": true,
							"internalType": "address",
							"name": "newOwner",
							"type": "address"
						}
					],
					"name": "OwnershipTransferred",
					"type": "event"
				},
				{
					"inputs": [],
					"name": "ID",
					"outputs": [
						{
							"internalType": "uint256",
							"name": "",
							"type": "uint256"
						}
					],
					"stateMutability": "view",
					"type": "function"
				},
				{
					"inputs": [],
					"name": "arrayLimit",
					"outputs": [
						{
							"internalType": "uint16",
							"name": "",
							"type": "uint16"
						}
					],
					"stateMutability": "view",
					"type": "function"
				},
				{
					"inputs": [
						{
							"internalType": "uint256[]",
							"name": "_ID",
							"type": "uint256[]"
						},
						{
							"internalType": "bool[]",
							"name": "_result",
							"type": "bool[]"
						}
					],
					"name": "batchDetectNFT",
					"outputs": [],
					"stateMutability": "nonpayable",
					"type": "function"
				},
				{
					"inputs": [
						{
							"internalType": "string",
							"name": "_hash",
							"type": "string"
						}
					],
					"name": "checkNFTByHash",
					"outputs": [
						{
							"internalType": "bool",
							"name": "",
							"type": "bool"
						}
					],
					"stateMutability": "view",
					"type": "function"
				},
				{
					"inputs": [
						{
							"internalType": "uint256",
							"name": "_ID",
							"type": "uint256"
						}
					],
					"name": "checkNFTByID",
					"outputs": [
						{
							"internalType": "bool",
							"name": "",
							"type": "bool"
						}
					],
					"stateMutability": "view",
					"type": "function"
				},
				{
					"inputs": [
						{
							"internalType": "uint256",
							"name": "_ID",
							"type": "uint256"
						}
					],
					"name": "checkNFTByIDDetail",
					"outputs": [
						{
							"components": [
								{
									"internalType": "enum NFTOracle.NFTState",
									"name": "state",
									"type": "uint8"
								},
								{
									"internalType": "string",
									"name": "hash",
									"type": "string"
								},
								{
									"internalType": "string",
									"name": "IPFS",
									"type": "string"
								},
								{
									"internalType": "bool",
									"name": "isDetected",
									"type": "bool"
								},
								{
									"internalType": "bool",
									"name": "result",
									"type": "bool"
								},
								{
									"internalType": "address",
									"name": "uploader",
									"type": "address"
								}
							],
							"internalType": "struct NFTOracle.NFT",
							"name": "",
							"type": "tuple"
						}
					],
					"stateMutability": "view",
					"type": "function"
				},
				{
					"inputs": [
						{
							"internalType": "uint256",
							"name": "_ID",
							"type": "uint256"
						},
						{
							"internalType": "bool",
							"name": "_result",
							"type": "bool"
						}
					],
					"name": "detectNFT",
					"outputs": [],
					"stateMutability": "nonpayable",
					"type": "function"
				},
				{
					"inputs": [],
					"name": "owner",
					"outputs": [
						{
							"internalType": "address",
							"name": "",
							"type": "address"
						}
					],
					"stateMutability": "view",
					"type": "function"
				},
				{
					"inputs": [],
					"name": "renounceOwnership",
					"outputs": [],
					"stateMutability": "nonpayable",
					"type": "function"
				},
				{
					"inputs": [
						{
							"internalType": "address",
							"name": "newOwner",
							"type": "address"
						}
					],
					"name": "transferOwnership",
					"outputs": [],
					"stateMutability": "nonpayable",
					"type": "function"
				},
				{
					"inputs": [
						{
							"internalType": "string",
							"name": "_hash",
							"type": "string"
						},
						{
							"internalType": "string",
							"name": "_ipfs",
							"type": "string"
						}
					],
					"name": "uploadNFT",
					"outputs": [
						{
							"internalType": "uint256",
							"name": "",
							"type": "uint256"
						}
					],
					"stateMutability": "nonpayable",
					"type": "function"
				}
			],
			"devdoc": {
				"kind": "dev",
				"methods": {
					"owner()": {
						"details": "Returns the address of the current owner."
					},
					"renounceOwnership()": {
						"details": "Leaves the contract without owner. It will not be possible to call `onlyOwner` functions anymore. Can only be called by the current owner. NOTE: Renouncing ownership will leave the contract without an owner, thereby removing any functionality that is only available to the owner."
					},
					"transferOwnership(address)": {
						"details": "Transfers ownership of the contract to a new account (`newOwner`). Can only be called by the current owner."
					}
				},
				"version": 1
			},
			"evm": {
				"assembly": "    /* \"oracle_flat.sol\":3501:7669  contract NFTOracle is Ownable{\r... */\n  mstore(0x40, 0x80)\n    /* \"oracle_flat.sol\":3611:3614  200 */\n  0xc8\n    /* \"oracle_flat.sol\":3584:3614  uint16 public arrayLimit = 200 */\n  0x00\n  exp(0x0100, 0x14)\n  dup2\n  sload\n  dup2\n  0xffff\n  mul\n  not\n  and\n  swap1\n  dup4\n  0xffff\n  and\n  mul\n  or\n  swap1\n  sstore\n  pop\n    /* \"oracle_flat.sol\":4002:4003  1 */\n  0x01\n    /* \"oracle_flat.sol\":3985:4003  uint public ID = 1 */\n  dup1\n  sstore\n    /* \"oracle_flat.sol\":3650:3675  constructor ()  {\r... */\n  callvalue\n  dup1\n  iszero\n  tag_1\n  jumpi\n  0x00\n  dup1\n  revert\ntag_1:\n  pop\n    /* \"oracle_flat.sol\":1836:1868  _transferOwnership(_msgSender()) */\n  tag_5\n    /* \"oracle_flat.sol\":1855:1867  _msgSender() */\n  tag_6\n    /* \"oracle_flat.sol\":1855:1865  _msgSender */\n  shl(0x20, tag_7)\n    /* \"oracle_flat.sol\":1855:1867  _msgSender() */\n  0x20\n  shr\n  jump\t// in\ntag_6:\n    /* \"oracle_flat.sol\":1836:1854  _transferOwnership */\n  shl(0x20, tag_8)\n    /* \"oracle_flat.sol\":1836:1868  _transferOwnership(_msgSender()) */\n  0x20\n  shr\n  jump\t// in\ntag_5:\n    /* \"oracle_flat.sol\":3501:7669  contract NFTOracle is Ownable{\r... */\n  jump(tag_10)\n    /* \"oracle_flat.sol\":681:779  function _msgSender() internal view virtual returns (address) {\r... */\ntag_7:\n    /* \"oracle_flat.sol\":734:741  address */\n  0x00\n    /* \"oracle_flat.sol\":761:771  msg.sender */\n  caller\n    /* \"oracle_flat.sol\":754:771  return msg.sender */\n  swap1\n  pop\n    /* \"oracle_flat.sol\":681:779  function _msgSender() internal view virtual returns (address) {\r... */\n  swap1\n  jump\t// out\n    /* \"oracle_flat.sol\":3227:3418  function _transferOwnership(address newOwner) internal virtual {\r... */\ntag_8:\n    /* \"oracle_flat.sol\":3301:3317  address oldOwner */\n  0x00\n    /* \"oracle_flat.sol\":3320:3326  _owner */\n  dup1\n  0x00\n  swap1\n  sload\n  swap1\n  0x0100\n  exp\n  swap1\n  div\n  0xffffffffffffffffffffffffffffffffffffffff\n  and\n    /* \"oracle_flat.sol\":3301:3326  address oldOwner = _owner */\n  swap1\n  pop\n    /* \"oracle_flat.sol\":3346:3354  newOwner */\n  dup2\n    /* \"oracle_flat.sol\":3337:3343  _owner */\n  0x00\n  dup1\n    /* \"oracle_flat.sol\":3337:3354  _owner = newOwner */\n  0x0100\n  exp\n  dup2\n  sload\n  dup2\n  0xffffffffffffffffffffffffffffffffffffffff\n  mul\n  not\n  and\n  swap1\n  dup4\n  0xffffffffffffffffffffffffffffffffffffffff\n  and\n  mul\n  or\n  swap1\n  sstore\n  pop\n    /* \"oracle_flat.sol\":3401:3409  newOwner */\n  dup2\n    /* \"oracle_flat.sol\":3370:3410  OwnershipTransferred(oldOwner, newOwner) */\n  0xffffffffffffffffffffffffffffffffffffffff\n  and\n    /* \"oracle_flat.sol\":3391:3399  oldOwner */\n  dup2\n    /* \"oracle_flat.sol\":3370:3410  OwnershipTransferred(oldOwner, newOwner) */\n  0xffffffffffffffffffffffffffffffffffffffff\n  and\n  0x8be0079c531659141344cd1fd0a4f28419497f9722a3daafe3b4186f6b6457e0\n  mload(0x40)\n  mload(0x40)\n  dup1\n  swap2\n  sub\n  swap1\n  log3\n    /* \"oracle_flat.sol\":3290:3418  {\r... */\n  pop\n    /* \"oracle_flat.sol\":3227:3418  function _transferOwnership(address newOwner) internal virtual {\r... */\n  pop\n  jump\t// out\n    /* \"oracle_flat.sol\":3501:7669  contract NFTOracle is Ownable{\r... */\ntag_10:\n  dataSize(sub_0)\n  dup1\n  dataOffset(sub_0)\n  0x00\n  codecopy\n  0x00\n  return\nstop\n\nsub_0: assembly {\n        /* \"oracle_flat.sol\":3501:7669  contract NFTOracle is Ownable{\r... */\n      mstore(0x40, 0x80)\n      callvalue\n      dup1\n      iszero\n      tag_1\n      jumpi\n      0x00\n      dup1\n      revert\n    tag_1:\n      pop\n      jumpi(tag_2, lt(calldatasize, 0x04))\n      shr(0xe0, calldataload(0x00))\n      dup1\n      0xb3cea217\n      gt\n      tag_14\n      jumpi\n      dup1\n      0xb3cea217\n      eq\n      tag_8\n      jumpi\n      dup1\n      0xb4ae641c\n      eq\n      tag_9\n      jumpi\n      dup1\n      0xb5e3029f\n      eq\n      tag_10\n      jumpi\n      dup1\n      0xbd0dea20\n      eq\n      tag_11\n      jumpi\n      dup1\n      0xd0aeae96\n      eq\n      tag_12\n      jumpi\n      dup1\n      0xf2fde38b\n      eq\n      tag_13\n      jumpi\n      jump(tag_2)\n    tag_14:\n      dup1\n      0x138f0727\n      eq\n      tag_3\n      jumpi\n      dup1\n      0x1c5a3e52\n      eq\n      tag_4\n      jumpi\n      dup1\n      0x3a4f2d24\n      eq\n      tag_5\n      jumpi\n      dup1\n      0x715018a6\n      eq\n      tag_6\n      jumpi\n      dup1\n      0x8da5cb5b\n      eq\n      tag_7\n      jumpi\n    tag_2:\n      0x00\n      dup1\n      revert\n        /* \"oracle_flat.sol\":4863:5129  function checkNFTByIDDetail(uint _ID) public view returns(NFT memory){\r... */\n    tag_3:\n      tag_15\n      0x04\n      dup1\n      calldatasize\n      sub\n      dup2\n      add\n      swap1\n      tag_16\n      swap2\n      swap1\n      tag_17\n      jump\t// in\n    tag_16:\n      tag_18\n      jump\t// in\n    tag_15:\n      mload(0x40)\n      tag_19\n      swap2\n      swap1\n      tag_20\n      jump\t// in\n    tag_19:\n      mload(0x40)\n      dup1\n      swap2\n      sub\n      swap1\n      return\n        /* \"oracle_flat.sol\":5643:6037  function detectNFT(uint _ID,bool _result) public onlyOwner{\r... */\n    tag_4:\n      tag_21\n      0x04\n      dup1\n      calldatasize\n      sub\n      dup2\n      add\n      swap1\n      tag_22\n      swap2\n      swap1\n      tag_23\n      jump\t// in\n    tag_22:\n      tag_24\n      jump\t// in\n    tag_21:\n      stop\n        /* \"oracle_flat.sol\":5155:5598  function uploadNFT(string memory _hash,string memory _ipfs)  public returns(uint256){\r... */\n    tag_5:\n      tag_25\n      0x04\n      dup1\n      calldatasize\n      sub\n      dup2\n      add\n      swap1\n      tag_26\n      swap2\n      swap1\n      tag_27\n      jump\t// in\n    tag_26:\n      tag_28\n      jump\t// in\n    tag_25:\n      mload(0x40)\n      tag_29\n      swap2\n      swap1\n      tag_30\n      jump\t// in\n    tag_29:\n      mload(0x40)\n      dup1\n      swap2\n      sub\n      swap1\n      return\n        /* \"oracle_flat.sol\":2608:2711  function renounceOwnership() public virtual onlyOwner {\r... */\n    tag_6:\n      tag_31\n      tag_32\n      jump\t// in\n    tag_31:\n      stop\n        /* \"oracle_flat.sol\":1957:2044  function owner() public view virtual returns (address) {\r... */\n    tag_7:\n      tag_33\n      tag_34\n      jump\t// in\n    tag_33:\n      mload(0x40)\n      tag_35\n      swap2\n      swap1\n      tag_36\n      jump\t// in\n    tag_35:\n      mload(0x40)\n      dup1\n      swap2\n      sub\n      swap1\n      return\n        /* \"oracle_flat.sol\":3985:4003  uint public ID = 1 */\n    tag_8:\n      tag_37\n      tag_38\n      jump\t// in\n    tag_37:\n      mload(0x40)\n      tag_39\n      swap2\n      swap1\n      tag_30\n      jump\t// in\n    tag_39:\n      mload(0x40)\n      dup1\n      swap2\n      sub\n      swap1\n      return\n        /* \"oracle_flat.sol\":3584:3614  uint16 public arrayLimit = 200 */\n    tag_9:\n      tag_40\n      tag_41\n      jump\t// in\n    tag_40:\n      mload(0x40)\n      tag_42\n      swap2\n      swap1\n      tag_43\n      jump\t// in\n    tag_42:\n      mload(0x40)\n      dup1\n      swap2\n      sub\n      swap1\n      return\n        /* \"oracle_flat.sol\":4512:4773  function checkNFTByID(uint _ID) public view returns(bool){\r... */\n    tag_10:\n      tag_44\n      0x04\n      dup1\n      calldatasize\n      sub\n      dup2\n      add\n      swap1\n      tag_45\n      swap2\n      swap1\n      tag_17\n      jump\t// in\n    tag_45:\n      tag_46\n      jump\t// in\n    tag_44:\n      mload(0x40)\n      tag_47\n      swap2\n      swap1\n      tag_48\n      jump\t// in\n    tag_47:\n      mload(0x40)\n      dup1\n      swap2\n      sub\n      swap1\n      return\n        /* \"oracle_flat.sol\":6086:6885  function batchDetectNFT(uint[] memory _ID,bool[] memory _result) public onlyOwner{\r... */\n    tag_11:\n      tag_49\n      0x04\n      dup1\n      calldatasize\n      sub\n      dup2\n      add\n      swap1\n      tag_50\n      swap2\n      swap1\n      tag_51\n      jump\t// in\n    tag_50:\n      tag_52\n      jump\t// in\n    tag_49:\n      stop\n        /* \"oracle_flat.sol\":4156:4420  function checkNFTByHash(string memory _hash) public view returns(bool) {\r... */\n    tag_12:\n      tag_53\n      0x04\n      dup1\n      calldatasize\n      sub\n      dup2\n      add\n      swap1\n      tag_54\n      swap2\n      swap1\n      tag_55\n      jump\t// in\n    tag_54:\n      tag_56\n      jump\t// in\n    tag_53:\n      mload(0x40)\n      tag_57\n      swap2\n      swap1\n      tag_48\n      jump\t// in\n    tag_57:\n      mload(0x40)\n      dup1\n      swap2\n      sub\n      swap1\n      return\n        /* \"oracle_flat.sol\":2866:3067  function transferOwnership(address newOwner) public virtual onlyOwner {\r... */\n    tag_13:\n      tag_58\n      0x04\n      dup1\n      calldatasize\n      sub\n      dup2\n      add\n      swap1\n      tag_59\n      swap2\n      swap1\n      tag_60\n      jump\t// in\n    tag_59:\n      tag_61\n      jump\t// in\n    tag_58:\n      stop\n        /* \"oracle_flat.sol\":4863:5129  function checkNFTByIDDetail(uint _ID) public view returns(NFT memory){\r... */\n    tag_18:\n        /* \"oracle_flat.sol\":4921:4931  NFT memory */\n      tag_62\n      tag_63\n      jump\t// in\n    tag_62:\n        /* \"oracle_flat.sol\":5033:5035  ID */\n      sload(0x01)\n        /* \"oracle_flat.sol\":5029:5032  _ID */\n      dup3\n        /* \"oracle_flat.sol\":5029:5035  _ID<ID */\n      lt\n        /* \"oracle_flat.sol\":5021:5066  require(_ID<ID,\"This ID of NFT don't exists\") */\n      tag_65\n      jumpi\n      mload(0x40)\n      0x08c379a000000000000000000000000000000000000000000000000000000000\n      dup2\n      mstore\n      0x04\n      add\n      tag_66\n      swap1\n      tag_67\n      jump\t// in\n    tag_66:\n      mload(0x40)\n      dup1\n      swap2\n      sub\n      swap1\n      revert\n    tag_65:\n        /* \"oracle_flat.sol\":5076:5090  NFT memory nft */\n      0x00\n        /* \"oracle_flat.sol\":5093:5097  nfts */\n      0x02\n        /* \"oracle_flat.sol\":5093:5102  nfts[_ID] */\n      0x00\n        /* \"oracle_flat.sol\":5098:5101  _ID */\n      dup5\n        /* \"oracle_flat.sol\":5093:5102  nfts[_ID] */\n      dup2\n      mstore\n      0x20\n      add\n      swap1\n      dup2\n      mstore\n      0x20\n      add\n      0x00\n      keccak256\n        /* \"oracle_flat.sol\":5076:5102  NFT memory nft = nfts[_ID] */\n      mload(0x40)\n      dup1\n      0xc0\n      add\n      0x40\n      mstore\n      swap1\n      dup2\n      0x00\n      dup3\n      add\n      0x00\n      swap1\n      sload\n      swap1\n      0x0100\n      exp\n      swap1\n      div\n      0xff\n      and\n      0x01\n      dup2\n      gt\n      iszero\n      tag_68\n      jumpi\n      tag_69\n      tag_70\n      jump\t// in\n    tag_69:\n    tag_68:\n      0x01\n      dup2\n      gt\n      iszero\n      tag_71\n      jumpi\n      tag_72\n      tag_70\n      jump\t// in\n    tag_72:\n    tag_71:\n      dup2\n      mstore\n      0x20\n      add\n      0x01\n      dup3\n      add\n      dup1\n      sload\n      tag_73\n      swap1\n      tag_74\n      jump\t// in\n    tag_73:\n      dup1\n      0x1f\n      add\n      0x20\n      dup1\n      swap2\n      div\n      mul\n      0x20\n      add\n      mload(0x40)\n      swap1\n      dup2\n      add\n      0x40\n      mstore\n      dup1\n      swap3\n      swap2\n      swap1\n      dup2\n      dup2\n      mstore\n      0x20\n      add\n      dup3\n      dup1\n      sload\n      tag_75\n      swap1\n      tag_74\n      jump\t// in\n    tag_75:\n      dup1\n      iszero\n      tag_76\n      jumpi\n      dup1\n      0x1f\n      lt\n      tag_77\n      jumpi\n      0x0100\n      dup1\n      dup4\n      sload\n      div\n      mul\n      dup4\n      mstore\n      swap2\n      0x20\n      add\n      swap2\n      jump(tag_76)\n    tag_77:\n      dup3\n      add\n      swap2\n      swap1\n      0x00\n      mstore\n      keccak256(0x00, 0x20)\n      swap1\n    tag_78:\n      dup2\n      sload\n      dup2\n      mstore\n      swap1\n      0x01\n      add\n      swap1\n      0x20\n      add\n      dup1\n      dup4\n      gt\n      tag_78\n      jumpi\n      dup3\n      swap1\n      sub\n      0x1f\n      and\n      dup3\n      add\n      swap2\n    tag_76:\n      pop\n      pop\n      pop\n      pop\n      pop\n      dup2\n      mstore\n      0x20\n      add\n      0x02\n      dup3\n      add\n      dup1\n      sload\n      tag_79\n      swap1\n      tag_74\n      jump\t// in\n    tag_79:\n      dup1\n      0x1f\n      add\n      0x20\n      dup1\n      swap2\n      div\n      mul\n      0x20\n      add\n      mload(0x40)\n      swap1\n      dup2\n      add\n      0x40\n      mstore\n      dup1\n      swap3\n      swap2\n      swap1\n      dup2\n      dup2\n      mstore\n      0x20\n      add\n      dup3\n      dup1\n      sload\n      tag_80\n      swap1\n      tag_74\n      jump\t// in\n    tag_80:\n      dup1\n      iszero\n      tag_81\n      jumpi\n      dup1\n      0x1f\n      lt\n      tag_82\n      jumpi\n      0x0100\n      dup1\n      dup4\n      sload\n      div\n      mul\n      dup4\n      mstore\n      swap2\n      0x20\n      add\n      swap2\n      jump(tag_81)\n    tag_82:\n      dup3\n      add\n      swap2\n      swap1\n      0x00\n      mstore\n      keccak256(0x00, 0x20)\n      swap1\n    tag_83:\n      dup2\n      sload\n      dup2\n      mstore\n      swap1\n      0x01\n      add\n      swap1\n      0x20\n      add\n      dup1\n      dup4\n      gt\n      tag_83\n      jumpi\n      dup3\n      swap1\n      sub\n      0x1f\n      and\n      dup3\n      add\n      swap2\n    tag_81:\n      pop\n      pop\n      pop\n      pop\n      pop\n      dup2\n      mstore\n      0x20\n      add\n      0x03\n      dup3\n      add\n      0x00\n      swap1\n      sload\n      swap1\n      0x0100\n      exp\n      swap1\n      div\n      0xff\n      and\n      iszero\n      iszero\n      iszero\n      iszero\n      dup2\n      mstore\n      0x20\n      add\n      0x03\n      dup3\n      add\n      0x01\n      swap1\n      sload\n      swap1\n      0x0100\n      exp\n      swap1\n      div\n      0xff\n      and\n      iszero\n      iszero\n      iszero\n      iszero\n      dup2\n      mstore\n      0x20\n      add\n      0x03\n      dup3\n      add\n      0x02\n      swap1\n      sload\n      swap1\n      0x0100\n      exp\n      swap1\n      div\n      0xffffffffffffffffffffffffffffffffffffffff\n      and\n      0xffffffffffffffffffffffffffffffffffffffff\n      and\n      0xffffffffffffffffffffffffffffffffffffffff\n      and\n      dup2\n      mstore\n      pop\n      pop\n      swap1\n      pop\n        /* \"oracle_flat.sol\":5119:5122  nft */\n      dup1\n        /* \"oracle_flat.sol\":5112:5122  return nft */\n      swap2\n      pop\n      pop\n        /* \"oracle_flat.sol\":4863:5129  function checkNFTByIDDetail(uint _ID) public view returns(NFT memory){\r... */\n      swap2\n      swap1\n      pop\n      jump\t// out\n        /* \"oracle_flat.sol\":5643:6037  function detectNFT(uint _ID,bool _result) public onlyOwner{\r... */\n    tag_24:\n        /* \"oracle_flat.sol\":2188:2200  _msgSender() */\n      tag_85\n        /* \"oracle_flat.sol\":2188:2198  _msgSender */\n      tag_86\n        /* \"oracle_flat.sol\":2188:2200  _msgSender() */\n      jump\t// in\n    tag_85:\n        /* \"oracle_flat.sol\":2177:2200  owner() == _msgSender() */\n      0xffffffffffffffffffffffffffffffffffffffff\n      and\n        /* \"oracle_flat.sol\":2177:2184  owner() */\n      tag_87\n        /* \"oracle_flat.sol\":2177:2182  owner */\n      tag_34\n        /* \"oracle_flat.sol\":2177:2184  owner() */\n      jump\t// in\n    tag_87:\n        /* \"oracle_flat.sol\":2177:2200  owner() == _msgSender() */\n      0xffffffffffffffffffffffffffffffffffffffff\n      and\n      eq\n        /* \"oracle_flat.sol\":2169:2237  require(owner() == _msgSender(), \"Ownable: caller is not the owner\") */\n      tag_88\n      jumpi\n      mload(0x40)\n      0x08c379a000000000000000000000000000000000000000000000000000000000\n      dup2\n      mstore\n      0x04\n      add\n      tag_89\n      swap1\n      tag_90\n      jump\t// in\n    tag_89:\n      mload(0x40)\n      dup1\n      swap2\n      sub\n      swap1\n      revert\n    tag_88:\n        /* \"oracle_flat.sol\":5817:5822  false */\n      0x00\n        /* \"oracle_flat.sol\":5795:5822  nfts[_ID].isDetected==false */\n      iszero\n      iszero\n        /* \"oracle_flat.sol\":5795:5799  nfts */\n      0x02\n        /* \"oracle_flat.sol\":5795:5804  nfts[_ID] */\n      0x00\n        /* \"oracle_flat.sol\":5800:5803  _ID */\n      dup5\n        /* \"oracle_flat.sol\":5795:5804  nfts[_ID] */\n      dup2\n      mstore\n      0x20\n      add\n      swap1\n      dup2\n      mstore\n      0x20\n      add\n      0x00\n      keccak256\n        /* \"oracle_flat.sol\":5795:5815  nfts[_ID].isDetected */\n      0x03\n      add\n      0x00\n      swap1\n      sload\n      swap1\n      0x0100\n      exp\n      swap1\n      div\n      0xff\n      and\n        /* \"oracle_flat.sol\":5795:5822  nfts[_ID].isDetected==false */\n      iszero\n      iszero\n      eq\n        /* \"oracle_flat.sol\":5795:5860  nfts[_ID].isDetected==false&&nfts[_ID].state==NFTState.Undetected */\n      dup1\n      iszero\n      tag_92\n      jumpi\n      pop\n        /* \"oracle_flat.sol\":5841:5860  NFTState.Undetected */\n      0x00\n        /* \"oracle_flat.sol\":5824:5860  nfts[_ID].state==NFTState.Undetected */\n      0x01\n      dup2\n      gt\n      iszero\n      tag_93\n      jumpi\n      tag_94\n      tag_70\n      jump\t// in\n    tag_94:\n    tag_93:\n        /* \"oracle_flat.sol\":5824:5828  nfts */\n      0x02\n        /* \"oracle_flat.sol\":5824:5833  nfts[_ID] */\n      0x00\n        /* \"oracle_flat.sol\":5829:5832  _ID */\n      dup5\n        /* \"oracle_flat.sol\":5824:5833  nfts[_ID] */\n      dup2\n      mstore\n      0x20\n      add\n      swap1\n      dup2\n      mstore\n      0x20\n      add\n      0x00\n      keccak256\n        /* \"oracle_flat.sol\":5824:5839  nfts[_ID].state */\n      0x00\n      add\n      0x00\n      swap1\n      sload\n      swap1\n      0x0100\n      exp\n      swap1\n      div\n      0xff\n      and\n        /* \"oracle_flat.sol\":5824:5860  nfts[_ID].state==NFTState.Undetected */\n      0x01\n      dup2\n      gt\n      iszero\n      tag_95\n      jumpi\n      tag_96\n      tag_70\n      jump\t// in\n    tag_96:\n    tag_95:\n      eq\n        /* \"oracle_flat.sol\":5795:5860  nfts[_ID].isDetected==false&&nfts[_ID].state==NFTState.Undetected */\n    tag_92:\n        /* \"oracle_flat.sol\":5787:5911  require(nfts[_ID].isDetected==false&&nfts[_ID].state==NFTState.Undetected,\"The NFT does not meet the detection conditions!\") */\n      tag_97\n      jumpi\n      mload(0x40)\n      0x08c379a000000000000000000000000000000000000000000000000000000000\n      dup2\n      mstore\n      0x04\n      add\n      tag_98\n      swap1\n      tag_99\n      jump\t// in\n    tag_98:\n      mload(0x40)\n      dup1\n      swap2\n      sub\n      swap1\n      revert\n    tag_97:\n        /* \"oracle_flat.sol\":5941:5948  _result */\n      dup1\n        /* \"oracle_flat.sol\":5922:5926  nfts */\n      0x02\n        /* \"oracle_flat.sol\":5922:5931  nfts[_ID] */\n      0x00\n        /* \"oracle_flat.sol\":5927:5930  _ID */\n      dup5\n        /* \"oracle_flat.sol\":5922:5931  nfts[_ID] */\n      dup2\n      mstore\n      0x20\n      add\n      swap1\n      dup2\n      mstore\n      0x20\n      add\n      0x00\n      keccak256\n        /* \"oracle_flat.sol\":5922:5938  nfts[_ID].result */\n      0x03\n      add\n      0x01\n        /* \"oracle_flat.sol\":5922:5948  nfts[_ID].result = _result */\n      0x0100\n      exp\n      dup2\n      sload\n      dup2\n      0xff\n      mul\n      not\n      and\n      swap1\n      dup4\n      iszero\n      iszero\n      mul\n      or\n      swap1\n      sstore\n      pop\n        /* \"oracle_flat.sol\":5981:5985  true */\n      0x01\n        /* \"oracle_flat.sol\":5959:5963  nfts */\n      0x02\n        /* \"oracle_flat.sol\":5959:5967  nfts[ID] */\n      0x00\n        /* \"oracle_flat.sol\":5964:5966  ID */\n      sload(0x01)\n        /* \"oracle_flat.sol\":5959:5967  nfts[ID] */\n      dup2\n      mstore\n      0x20\n      add\n      swap1\n      dup2\n      mstore\n      0x20\n      add\n      0x00\n      keccak256\n        /* \"oracle_flat.sol\":5959:5978  nfts[ID].isDetected */\n      0x03\n      add\n      0x00\n        /* \"oracle_flat.sol\":5959:5985  nfts[ID].isDetected = true */\n      0x0100\n      exp\n      dup2\n      sload\n      dup2\n      0xff\n      mul\n      not\n      and\n      swap1\n      dup4\n      iszero\n      iszero\n      mul\n      or\n      swap1\n      sstore\n      pop\n        /* \"oracle_flat.sol\":6013:6030  NFTState.Detected */\n      0x01\n        /* \"oracle_flat.sol\":5996:6000  nfts */\n      0x02\n        /* \"oracle_flat.sol\":5996:6004  nfts[ID] */\n      0x00\n        /* \"oracle_flat.sol\":6001:6003  ID */\n      sload(0x01)\n        /* \"oracle_flat.sol\":5996:6004  nfts[ID] */\n      dup2\n      mstore\n      0x20\n      add\n      swap1\n      dup2\n      mstore\n      0x20\n      add\n      0x00\n      keccak256\n        /* \"oracle_flat.sol\":5996:6010  nfts[ID].state */\n      0x00\n      add\n      0x00\n        /* \"oracle_flat.sol\":5996:6030  nfts[ID].state = NFTState.Detected */\n      0x0100\n      exp\n      dup2\n      sload\n      dup2\n      0xff\n      mul\n      not\n      and\n      swap1\n      dup4\n      0x01\n      dup2\n      gt\n      iszero\n      tag_100\n      jumpi\n      tag_101\n      tag_70\n      jump\t// in\n    tag_101:\n    tag_100:\n      mul\n      or\n      swap1\n      sstore\n      pop\n        /* \"oracle_flat.sol\":5643:6037  function detectNFT(uint _ID,bool _result) public onlyOwner{\r... */\n      pop\n      pop\n      jump\t// out\n        /* \"oracle_flat.sol\":5155:5598  function uploadNFT(string memory _hash,string memory _ipfs)  public returns(uint256){\r... */\n    tag_28:\n        /* \"oracle_flat.sol\":5231:5238  uint256 */\n      0x00\n        /* \"oracle_flat.sol\":5257:5276  hashIsExists(_hash) */\n      tag_103\n        /* \"oracle_flat.sol\":5270:5275  _hash */\n      dup4\n        /* \"oracle_flat.sol\":5257:5269  hashIsExists */\n      tag_104\n        /* \"oracle_flat.sol\":5257:5276  hashIsExists(_hash) */\n      jump\t// in\n    tag_103:\n        /* \"oracle_flat.sol\":5257:5297  hashIsExists(_hash)&&ipfsIsExists(_ipfs) */\n      dup1\n      iszero\n      tag_105\n      jumpi\n      pop\n        /* \"oracle_flat.sol\":5278:5297  ipfsIsExists(_ipfs) */\n      tag_106\n        /* \"oracle_flat.sol\":5291:5296  _ipfs */\n      dup3\n        /* \"oracle_flat.sol\":5278:5290  ipfsIsExists */\n      tag_107\n        /* \"oracle_flat.sol\":5278:5297  ipfsIsExists(_ipfs) */\n      jump\t// in\n    tag_106:\n        /* \"oracle_flat.sol\":5257:5297  hashIsExists(_hash)&&ipfsIsExists(_ipfs) */\n    tag_105:\n        /* \"oracle_flat.sol\":5249:5332  require(hashIsExists(_hash)&&ipfsIsExists(_ipfs),\"Unable to repeat the detection!\") */\n      tag_108\n      jumpi\n      mload(0x40)\n      0x08c379a000000000000000000000000000000000000000000000000000000000\n      dup2\n      mstore\n      0x04\n      add\n      tag_109\n      swap1\n      tag_110\n      jump\t// in\n    tag_109:\n      mload(0x40)\n      dup1\n      swap2\n      sub\n      swap1\n      revert\n    tag_108:\n        /* \"oracle_flat.sol\":5358:5363  _hash */\n      dup3\n        /* \"oracle_flat.sol\":5342:5346  nfts */\n      0x02\n        /* \"oracle_flat.sol\":5342:5350  nfts[ID] */\n      0x00\n        /* \"oracle_flat.sol\":5347:5349  ID */\n      sload(0x01)\n        /* \"oracle_flat.sol\":5342:5350  nfts[ID] */\n      dup2\n      mstore\n      0x20\n      add\n      swap1\n      dup2\n      mstore\n      0x20\n      add\n      0x00\n      keccak256\n        /* \"oracle_flat.sol\":5342:5355  nfts[ID].hash */\n      0x01\n      add\n        /* \"oracle_flat.sol\":5342:5363  nfts[ID].hash = _hash */\n      swap1\n      dup1\n      mload\n      swap1\n      0x20\n      add\n      swap1\n      tag_111\n      swap3\n      swap2\n      swap1\n      tag_112\n      jump\t// in\n    tag_111:\n      pop\n        /* \"oracle_flat.sol\":5389:5394  _ipfs */\n      dup2\n        /* \"oracle_flat.sol\":5373:5377  nfts */\n      0x02\n        /* \"oracle_flat.sol\":5373:5381  nfts[ID] */\n      0x00\n        /* \"oracle_flat.sol\":5378:5380  ID */\n      sload(0x01)\n        /* \"oracle_flat.sol\":5373:5381  nfts[ID] */\n      dup2\n      mstore\n      0x20\n      add\n      swap1\n      dup2\n      mstore\n      0x20\n      add\n      0x00\n      keccak256\n        /* \"oracle_flat.sol\":5373:5386  nfts[ID].IPFS */\n      0x02\n      add\n        /* \"oracle_flat.sol\":5373:5394  nfts[ID].IPFS = _ipfs */\n      swap1\n      dup1\n      mload\n      swap1\n      0x20\n      add\n      swap1\n      tag_113\n      swap3\n      swap2\n      swap1\n      tag_112\n      jump\t// in\n    tag_113:\n      pop\n        /* \"oracle_flat.sol\":5421:5440  NFTState.Undetected */\n      0x00\n        /* \"oracle_flat.sol\":5404:5408  nfts */\n      0x02\n        /* \"oracle_flat.sol\":5404:5412  nfts[ID] */\n      0x00\n        /* \"oracle_flat.sol\":5409:5411  ID */\n      sload(0x01)\n        /* \"oracle_flat.sol\":5404:5412  nfts[ID] */\n      dup2\n      mstore\n      0x20\n      add\n      swap1\n      dup2\n      mstore\n      0x20\n      add\n      0x00\n      keccak256\n        /* \"oracle_flat.sol\":5404:5418  nfts[ID].state */\n      0x00\n      add\n      0x00\n        /* \"oracle_flat.sol\":5404:5440  nfts[ID].state = NFTState.Undetected */\n      0x0100\n      exp\n      dup2\n      sload\n      dup2\n      0xff\n      mul\n      not\n      and\n      swap1\n      dup4\n      0x01\n      dup2\n      gt\n      iszero\n      tag_114\n      jumpi\n      tag_115\n      tag_70\n      jump\t// in\n    tag_115:\n    tag_114:\n      mul\n      or\n      swap1\n      sstore\n      pop\n        /* \"oracle_flat.sol\":5473:5478  false */\n      0x00\n        /* \"oracle_flat.sol\":5451:5455  nfts */\n      0x02\n        /* \"oracle_flat.sol\":5451:5459  nfts[ID] */\n      0x00\n        /* \"oracle_flat.sol\":5456:5458  ID */\n      sload(0x01)\n        /* \"oracle_flat.sol\":5451:5459  nfts[ID] */\n      dup2\n      mstore\n      0x20\n      add\n      swap1\n      dup2\n      mstore\n      0x20\n      add\n      0x00\n      keccak256\n        /* \"oracle_flat.sol\":5451:5470  nfts[ID].isDetected */\n      0x03\n      add\n      0x00\n        /* \"oracle_flat.sol\":5451:5478  nfts[ID].isDetected = false */\n      0x0100\n      exp\n      dup2\n      sload\n      dup2\n      0xff\n      mul\n      not\n      and\n      swap1\n      dup4\n      iszero\n      iszero\n      mul\n      or\n      swap1\n      sstore\n      pop\n        /* \"oracle_flat.sol\":5506:5511  false */\n      0x00\n        /* \"oracle_flat.sol\":5488:5492  nfts */\n      0x02\n        /* \"oracle_flat.sol\":5488:5496  nfts[ID] */\n      0x00\n        /* \"oracle_flat.sol\":5493:5495  ID */\n      sload(0x01)\n        /* \"oracle_flat.sol\":5488:5496  nfts[ID] */\n      dup2\n      mstore\n      0x20\n      add\n      swap1\n      dup2\n      mstore\n      0x20\n      add\n      0x00\n      keccak256\n        /* \"oracle_flat.sol\":5488:5503  nfts[ID].result */\n      0x03\n      add\n      0x01\n        /* \"oracle_flat.sol\":5488:5511  nfts[ID].result = false */\n      0x0100\n      exp\n      dup2\n      sload\n      dup2\n      0xff\n      mul\n      not\n      and\n      swap1\n      dup4\n      iszero\n      iszero\n      mul\n      or\n      swap1\n      sstore\n      pop\n        /* \"oracle_flat.sol\":5541:5551  msg.sender */\n      caller\n        /* \"oracle_flat.sol\":5521:5525  nfts */\n      0x02\n        /* \"oracle_flat.sol\":5521:5529  nfts[ID] */\n      0x00\n        /* \"oracle_flat.sol\":5526:5528  ID */\n      sload(0x01)\n        /* \"oracle_flat.sol\":5521:5529  nfts[ID] */\n      dup2\n      mstore\n      0x20\n      add\n      swap1\n      dup2\n      mstore\n      0x20\n      add\n      0x00\n      keccak256\n        /* \"oracle_flat.sol\":5521:5538  nfts[ID].uploader */\n      0x03\n      add\n      0x02\n        /* \"oracle_flat.sol\":5521:5551  nfts[ID].uploader = msg.sender */\n      0x0100\n      exp\n      dup2\n      sload\n      dup2\n      0xffffffffffffffffffffffffffffffffffffffff\n      mul\n      not\n      and\n      swap1\n      dup4\n      0xffffffffffffffffffffffffffffffffffffffff\n      and\n      mul\n      or\n      swap1\n      sstore\n      pop\n        /* \"oracle_flat.sol\":5569:5570  1 */\n      0x01\n        /* \"oracle_flat.sol\":5566:5568  ID */\n      dup1\n      sload\n        /* \"oracle_flat.sol\":5566:5570  ID+1 */\n      tag_116\n      swap2\n      swap1\n      tag_117\n      jump\t// in\n    tag_116:\n        /* \"oracle_flat.sol\":5561:5563  ID */\n      0x01\n        /* \"oracle_flat.sol\":5561:5570  ID = ID+1 */\n      dup2\n      swap1\n      sstore\n      pop\n        /* \"oracle_flat.sol\":5590:5591  1 */\n      0x01\n        /* \"oracle_flat.sol\":5587:5589  ID */\n      dup1\n      sload\n        /* \"oracle_flat.sol\":5587:5591  ID-1 */\n      tag_118\n      swap2\n      swap1\n      tag_119\n      jump\t// in\n    tag_118:\n        /* \"oracle_flat.sol\":5580:5591  return ID-1 */\n      swap1\n      pop\n        /* \"oracle_flat.sol\":5155:5598  function uploadNFT(string memory _hash,string memory _ipfs)  public returns(uint256){\r... */\n      swap3\n      swap2\n      pop\n      pop\n      jump\t// out\n        /* \"oracle_flat.sol\":2608:2711  function renounceOwnership() public virtual onlyOwner {\r... */\n    tag_32:\n        /* \"oracle_flat.sol\":2188:2200  _msgSender() */\n      tag_121\n        /* \"oracle_flat.sol\":2188:2198  _msgSender */\n      tag_86\n        /* \"oracle_flat.sol\":2188:2200  _msgSender() */\n      jump\t// in\n    tag_121:\n        /* \"oracle_flat.sol\":2177:2200  owner() == _msgSender() */\n      0xffffffffffffffffffffffffffffffffffffffff\n      and\n        /* \"oracle_flat.sol\":2177:2184  owner() */\n      tag_122\n        /* \"oracle_flat.sol\":2177:2182  owner */\n      tag_34\n        /* \"oracle_flat.sol\":2177:2184  owner() */\n      jump\t// in\n    tag_122:\n        /* \"oracle_flat.sol\":2177:2200  owner() == _msgSender() */\n      0xffffffffffffffffffffffffffffffffffffffff\n      and\n      eq\n        /* \"oracle_flat.sol\":2169:2237  require(owner() == _msgSender(), \"Ownable: caller is not the owner\") */\n      tag_123\n      jumpi\n      mload(0x40)\n      0x08c379a000000000000000000000000000000000000000000000000000000000\n      dup2\n      mstore\n      0x04\n      add\n      tag_124\n      swap1\n      tag_90\n      jump\t// in\n    tag_124:\n      mload(0x40)\n      dup1\n      swap2\n      sub\n      swap1\n      revert\n    tag_123:\n        /* \"oracle_flat.sol\":2673:2703  _transferOwnership(address(0)) */\n      tag_126\n        /* \"oracle_flat.sol\":2700:2701  0 */\n      0x00\n        /* \"oracle_flat.sol\":2673:2691  _transferOwnership */\n      tag_127\n        /* \"oracle_flat.sol\":2673:2703  _transferOwnership(address(0)) */\n      jump\t// in\n    tag_126:\n        /* \"oracle_flat.sol\":2608:2711  function renounceOwnership() public virtual onlyOwner {\r... */\n      jump\t// out\n        /* \"oracle_flat.sol\":1957:2044  function owner() public view virtual returns (address) {\r... */\n    tag_34:\n        /* \"oracle_flat.sol\":2003:2010  address */\n      0x00\n        /* \"oracle_flat.sol\":2030:2036  _owner */\n      dup1\n      0x00\n      swap1\n      sload\n      swap1\n      0x0100\n      exp\n      swap1\n      div\n      0xffffffffffffffffffffffffffffffffffffffff\n      and\n        /* \"oracle_flat.sol\":2023:2036  return _owner */\n      swap1\n      pop\n        /* \"oracle_flat.sol\":1957:2044  function owner() public view virtual returns (address) {\r... */\n      swap1\n      jump\t// out\n        /* \"oracle_flat.sol\":3985:4003  uint public ID = 1 */\n    tag_38:\n      sload(0x01)\n      dup2\n      jump\t// out\n        /* \"oracle_flat.sol\":3584:3614  uint16 public arrayLimit = 200 */\n    tag_41:\n      0x00\n      0x14\n      swap1\n      sload\n      swap1\n      0x0100\n      exp\n      swap1\n      div\n      0xffff\n      and\n      dup2\n      jump\t// out\n        /* \"oracle_flat.sol\":4512:4773  function checkNFTByID(uint _ID) public view returns(bool){\r... */\n    tag_46:\n        /* \"oracle_flat.sol\":4564:4568  bool */\n      0x00\n        /* \"oracle_flat.sol\":4670:4672  ID */\n      sload(0x01)\n        /* \"oracle_flat.sol\":4666:4669  _ID */\n      dup3\n        /* \"oracle_flat.sol\":4666:4672  _ID<ID */\n      lt\n        /* \"oracle_flat.sol\":4658:4703  require(_ID<ID,\"This ID of NFT don't exists\") */\n      tag_130\n      jumpi\n      mload(0x40)\n      0x08c379a000000000000000000000000000000000000000000000000000000000\n      dup2\n      mstore\n      0x04\n      add\n      tag_131\n      swap1\n      tag_67\n      jump\t// in\n    tag_131:\n      mload(0x40)\n      dup1\n      swap2\n      sub\n      swap1\n      revert\n    tag_130:\n        /* \"oracle_flat.sol\":4713:4727  NFT memory nft */\n      0x00\n        /* \"oracle_flat.sol\":4730:4734  nfts */\n      0x02\n        /* \"oracle_flat.sol\":4730:4739  nfts[_ID] */\n      0x00\n        /* \"oracle_flat.sol\":4735:4738  _ID */\n      dup5\n        /* \"oracle_flat.sol\":4730:4739  nfts[_ID] */\n      dup2\n      mstore\n      0x20\n      add\n      swap1\n      dup2\n      mstore\n      0x20\n      add\n      0x00\n      keccak256\n        /* \"oracle_flat.sol\":4713:4739  NFT memory nft = nfts[_ID] */\n      mload(0x40)\n      dup1\n      0xc0\n      add\n      0x40\n      mstore\n      swap1\n      dup2\n      0x00\n      dup3\n      add\n      0x00\n      swap1\n      sload\n      swap1\n      0x0100\n      exp\n      swap1\n      div\n      0xff\n      and\n      0x01\n      dup2\n      gt\n      iszero\n      tag_132\n      jumpi\n      tag_133\n      tag_70\n      jump\t// in\n    tag_133:\n    tag_132:\n      0x01\n      dup2\n      gt\n      iszero\n      tag_134\n      jumpi\n      tag_135\n      tag_70\n      jump\t// in\n    tag_135:\n    tag_134:\n      dup2\n      mstore\n      0x20\n      add\n      0x01\n      dup3\n      add\n      dup1\n      sload\n      tag_136\n      swap1\n      tag_74\n      jump\t// in\n    tag_136:\n      dup1\n      0x1f\n      add\n      0x20\n      dup1\n      swap2\n      div\n      mul\n      0x20\n      add\n      mload(0x40)\n      swap1\n      dup2\n      add\n      0x40\n      mstore\n      dup1\n      swap3\n      swap2\n      swap1\n      dup2\n      dup2\n      mstore\n      0x20\n      add\n      dup3\n      dup1\n      sload\n      tag_137\n      swap1\n      tag_74\n      jump\t// in\n    tag_137:\n      dup1\n      iszero\n      tag_138\n      jumpi\n      dup1\n      0x1f\n      lt\n      tag_139\n      jumpi\n      0x0100\n      dup1\n      dup4\n      sload\n      div\n      mul\n      dup4\n      mstore\n      swap2\n      0x20\n      add\n      swap2\n      jump(tag_138)\n    tag_139:\n      dup3\n      add\n      swap2\n      swap1\n      0x00\n      mstore\n      keccak256(0x00, 0x20)\n      swap1\n    tag_140:\n      dup2\n      sload\n      dup2\n      mstore\n      swap1\n      0x01\n      add\n      swap1\n      0x20\n      add\n      dup1\n      dup4\n      gt\n      tag_140\n      jumpi\n      dup3\n      swap1\n      sub\n      0x1f\n      and\n      dup3\n      add\n      swap2\n    tag_138:\n      pop\n      pop\n      pop\n      pop\n      pop\n      dup2\n      mstore\n      0x20\n      add\n      0x02\n      dup3\n      add\n      dup1\n      sload\n      tag_141\n      swap1\n      tag_74\n      jump\t// in\n    tag_141:\n      dup1\n      0x1f\n      add\n      0x20\n      dup1\n      swap2\n      div\n      mul\n      0x20\n      add\n      mload(0x40)\n      swap1\n      dup2\n      add\n      0x40\n      mstore\n      dup1\n      swap3\n      swap2\n      swap1\n      dup2\n      dup2\n      mstore\n      0x20\n      add\n      dup3\n      dup1\n      sload\n      tag_142\n      swap1\n      tag_74\n      jump\t// in\n    tag_142:\n      dup1\n      iszero\n      tag_143\n      jumpi\n      dup1\n      0x1f\n      lt\n      tag_144\n      jumpi\n      0x0100\n      dup1\n      dup4\n      sload\n      div\n      mul\n      dup4\n      mstore\n      swap2\n      0x20\n      add\n      swap2\n      jump(tag_143)\n    tag_144:\n      dup3\n      add\n      swap2\n      swap1\n      0x00\n      mstore\n      keccak256(0x00, 0x20)\n      swap1\n    tag_145:\n      dup2\n      sload\n      dup2\n      mstore\n      swap1\n      0x01\n      add\n      swap1\n      0x20\n      add\n      dup1\n      dup4\n      gt\n      tag_145\n      jumpi\n      dup3\n      swap1\n      sub\n      0x1f\n      and\n      dup3\n      add\n      swap2\n    tag_143:\n      pop\n      pop\n      pop\n      pop\n      pop\n      dup2\n      mstore\n      0x20\n      add\n      0x03\n      dup3\n      add\n      0x00\n      swap1\n      sload\n      swap1\n      0x0100\n      exp\n      swap1\n      div\n      0xff\n      and\n      iszero\n      iszero\n      iszero\n      iszero\n      dup2\n      mstore\n      0x20\n      add\n      0x03\n      dup3\n      add\n      0x01\n      swap1\n      sload\n      swap1\n      0x0100\n      exp\n      swap1\n      div\n      0xff\n      and\n      iszero\n      iszero\n      iszero\n      iszero\n      dup2\n      mstore\n      0x20\n      add\n      0x03\n      dup3\n      add\n      0x02\n      swap1\n      sload\n      swap1\n      0x0100\n      exp\n      swap1\n      div\n      0xffffffffffffffffffffffffffffffffffffffff\n      and\n      0xffffffffffffffffffffffffffffffffffffffff\n      and\n      0xffffffffffffffffffffffffffffffffffffffff\n      and\n      dup2\n      mstore\n      pop\n      pop\n      swap1\n      pop\n        /* \"oracle_flat.sol\":4756:4759  nft */\n      dup1\n        /* \"oracle_flat.sol\":4756:4766  nft.result */\n      0x80\n      add\n      mload\n        /* \"oracle_flat.sol\":4749:4766  return nft.result */\n      swap2\n      pop\n      pop\n        /* \"oracle_flat.sol\":4512:4773  function checkNFTByID(uint _ID) public view returns(bool){\r... */\n      swap2\n      swap1\n      pop\n      jump\t// out\n        /* \"oracle_flat.sol\":6086:6885  function batchDetectNFT(uint[] memory _ID,bool[] memory _result) public onlyOwner{\r... */\n    tag_52:\n        /* \"oracle_flat.sol\":2188:2200  _msgSender() */\n      tag_147\n        /* \"oracle_flat.sol\":2188:2198  _msgSender */\n      tag_86\n        /* \"oracle_flat.sol\":2188:2200  _msgSender() */\n      jump\t// in\n    tag_147:\n        /* \"oracle_flat.sol\":2177:2200  owner() == _msgSender() */\n      0xffffffffffffffffffffffffffffffffffffffff\n      and\n        /* \"oracle_flat.sol\":2177:2184  owner() */\n      tag_148\n        /* \"oracle_flat.sol\":2177:2182  owner */\n      tag_34\n        /* \"oracle_flat.sol\":2177:2184  owner() */\n      jump\t// in\n    tag_148:\n        /* \"oracle_flat.sol\":2177:2200  owner() == _msgSender() */\n      0xffffffffffffffffffffffffffffffffffffffff\n      and\n      eq\n        /* \"oracle_flat.sol\":2169:2237  require(owner() == _msgSender(), \"Ownable: caller is not the owner\") */\n      tag_149\n      jumpi\n      mload(0x40)\n      0x08c379a000000000000000000000000000000000000000000000000000000000\n      dup2\n      mstore\n      0x04\n      add\n      tag_150\n      swap1\n      tag_90\n      jump\t// in\n    tag_150:\n      mload(0x40)\n      dup1\n      swap2\n      sub\n      swap1\n      revert\n    tag_149:\n        /* \"oracle_flat.sol\":6264:6274  arrayLimit */\n      0x00\n      0x14\n      swap1\n      sload\n      swap1\n      0x0100\n      exp\n      swap1\n      div\n      0xffff\n      and\n        /* \"oracle_flat.sol\":6250:6274  _ID.length <= arrayLimit */\n      0xffff\n      and\n        /* \"oracle_flat.sol\":6250:6253  _ID */\n      dup3\n        /* \"oracle_flat.sol\":6250:6260  _ID.length */\n      mload\n        /* \"oracle_flat.sol\":6250:6274  _ID.length <= arrayLimit */\n      gt\n      iszero\n        /* \"oracle_flat.sol\":6242:6303  require(_ID.length <= arrayLimit, \"length beyond arrayLimit\") */\n      tag_152\n      jumpi\n      mload(0x40)\n      0x08c379a000000000000000000000000000000000000000000000000000000000\n      dup2\n      mstore\n      0x04\n      add\n      tag_153\n      swap1\n      tag_154\n      jump\t// in\n    tag_153:\n      mload(0x40)\n      dup1\n      swap2\n      sub\n      swap1\n      revert\n    tag_152:\n        /* \"oracle_flat.sol\":6379:6386  _result */\n      dup1\n        /* \"oracle_flat.sol\":6379:6393  _result.length */\n      mload\n        /* \"oracle_flat.sol\":6367:6370  _ID */\n      dup3\n        /* \"oracle_flat.sol\":6367:6377  _ID.length */\n      mload\n        /* \"oracle_flat.sol\":6367:6393  _ID.length==_result.length */\n      eq\n        /* \"oracle_flat.sol\":6359:6452  require(_ID.length==_result.length,\"The length of _ID should equal to the length of _result\") */\n      tag_155\n      jumpi\n      mload(0x40)\n      0x08c379a000000000000000000000000000000000000000000000000000000000\n      dup2\n      mstore\n      0x04\n      add\n      tag_156\n      swap1\n      tag_157\n      jump\t// in\n    tag_156:\n      mload(0x40)\n      dup1\n      swap2\n      sub\n      swap1\n      revert\n    tag_155:\n        /* \"oracle_flat.sol\":6469:6476  uint8 i */\n      0x00\n        /* \"oracle_flat.sol\":6465:6870  for(uint8 i = 0; i < _ID.length; i++){\r... */\n    tag_158:\n        /* \"oracle_flat.sol\":6486:6489  _ID */\n      dup3\n        /* \"oracle_flat.sol\":6486:6496  _ID.length */\n      mload\n        /* \"oracle_flat.sol\":6482:6483  i */\n      dup2\n        /* \"oracle_flat.sol\":6482:6496  i < _ID.length */\n      0xff\n      and\n      lt\n        /* \"oracle_flat.sol\":6465:6870  for(uint8 i = 0; i < _ID.length; i++){\r... */\n      iszero\n      tag_159\n      jumpi\n        /* \"oracle_flat.sol\":6517:6527  uint nftid */\n      0x00\n        /* \"oracle_flat.sol\":6530:6533  _ID */\n      dup4\n        /* \"oracle_flat.sol\":6534:6535  i */\n      dup3\n        /* \"oracle_flat.sol\":6530:6536  _ID[i] */\n      0xff\n      and\n      dup2\n      mload\n      dup2\n      lt\n      tag_161\n      jumpi\n      tag_162\n      tag_163\n      jump\t// in\n    tag_162:\n    tag_161:\n      0x20\n      mul\n      0x20\n      add\n      add\n      mload\n        /* \"oracle_flat.sol\":6517:6536  uint nftid = _ID[i] */\n      swap1\n      pop\n        /* \"oracle_flat.sol\":6551:6563  bool resulti */\n      0x00\n        /* \"oracle_flat.sol\":6566:6573  _result */\n      dup4\n        /* \"oracle_flat.sol\":6574:6575  i */\n      dup4\n        /* \"oracle_flat.sol\":6566:6576  _result[i] */\n      0xff\n      and\n      dup2\n      mload\n      dup2\n      lt\n      tag_164\n      jumpi\n      tag_165\n      tag_163\n      jump\t// in\n    tag_165:\n    tag_164:\n      0x20\n      mul\n      0x20\n      add\n      add\n      mload\n        /* \"oracle_flat.sol\":6551:6576  bool resulti = _result[i] */\n      swap1\n      pop\n        /* \"oracle_flat.sol\":6623:6628  false */\n      0x00\n        /* \"oracle_flat.sol\":6599:6628  nfts[nftid].isDetected==false */\n      iszero\n      iszero\n        /* \"oracle_flat.sol\":6599:6603  nfts */\n      0x02\n        /* \"oracle_flat.sol\":6599:6610  nfts[nftid] */\n      0x00\n        /* \"oracle_flat.sol\":6604:6609  nftid */\n      dup5\n        /* \"oracle_flat.sol\":6599:6610  nfts[nftid] */\n      dup2\n      mstore\n      0x20\n      add\n      swap1\n      dup2\n      mstore\n      0x20\n      add\n      0x00\n      keccak256\n        /* \"oracle_flat.sol\":6599:6621  nfts[nftid].isDetected */\n      0x03\n      add\n      0x00\n      swap1\n      sload\n      swap1\n      0x0100\n      exp\n      swap1\n      div\n      0xff\n      and\n        /* \"oracle_flat.sol\":6599:6628  nfts[nftid].isDetected==false */\n      iszero\n      iszero\n      eq\n        /* \"oracle_flat.sol\":6599:6668  nfts[nftid].isDetected==false&&nfts[nftid].state==NFTState.Undetected */\n      dup1\n      iszero\n      tag_166\n      jumpi\n      pop\n        /* \"oracle_flat.sol\":6649:6668  NFTState.Undetected */\n      0x00\n        /* \"oracle_flat.sol\":6630:6668  nfts[nftid].state==NFTState.Undetected */\n      0x01\n      dup2\n      gt\n      iszero\n      tag_167\n      jumpi\n      tag_168\n      tag_70\n      jump\t// in\n    tag_168:\n    tag_167:\n        /* \"oracle_flat.sol\":6630:6634  nfts */\n      0x02\n        /* \"oracle_flat.sol\":6630:6641  nfts[nftid] */\n      0x00\n        /* \"oracle_flat.sol\":6635:6640  nftid */\n      dup5\n        /* \"oracle_flat.sol\":6630:6641  nfts[nftid] */\n      dup2\n      mstore\n      0x20\n      add\n      swap1\n      dup2\n      mstore\n      0x20\n      add\n      0x00\n      keccak256\n        /* \"oracle_flat.sol\":6630:6647  nfts[nftid].state */\n      0x00\n      add\n      0x00\n      swap1\n      sload\n      swap1\n      0x0100\n      exp\n      swap1\n      div\n      0xff\n      and\n        /* \"oracle_flat.sol\":6630:6668  nfts[nftid].state==NFTState.Undetected */\n      0x01\n      dup2\n      gt\n      iszero\n      tag_169\n      jumpi\n      tag_170\n      tag_70\n      jump\t// in\n    tag_170:\n    tag_169:\n      eq\n        /* \"oracle_flat.sol\":6599:6668  nfts[nftid].isDetected==false&&nfts[nftid].state==NFTState.Undetected */\n    tag_166:\n        /* \"oracle_flat.sol\":6591:6719  require(nfts[nftid].isDetected==false&&nfts[nftid].state==NFTState.Undetected,\"The NFT does not meet the detection conditions!\") */\n      tag_171\n      jumpi\n      mload(0x40)\n      0x08c379a000000000000000000000000000000000000000000000000000000000\n      dup2\n      mstore\n      0x04\n      add\n      tag_172\n      swap1\n      tag_99\n      jump\t// in\n    tag_172:\n      mload(0x40)\n      dup1\n      swap2\n      sub\n      swap1\n      revert\n    tag_171:\n        /* \"oracle_flat.sol\":6755:6762  resulti */\n      dup1\n        /* \"oracle_flat.sol\":6734:6738  nfts */\n      0x02\n        /* \"oracle_flat.sol\":6734:6745  nfts[nftid] */\n      0x00\n        /* \"oracle_flat.sol\":6739:6744  nftid */\n      dup5\n        /* \"oracle_flat.sol\":6734:6745  nfts[nftid] */\n      dup2\n      mstore\n      0x20\n      add\n      swap1\n      dup2\n      mstore\n      0x20\n      add\n      0x00\n      keccak256\n        /* \"oracle_flat.sol\":6734:6752  nfts[nftid].result */\n      0x03\n      add\n      0x01\n        /* \"oracle_flat.sol\":6734:6762  nfts[nftid].result = resulti */\n      0x0100\n      exp\n      dup2\n      sload\n      dup2\n      0xff\n      mul\n      not\n      and\n      swap1\n      dup4\n      iszero\n      iszero\n      mul\n      or\n      swap1\n      sstore\n      pop\n        /* \"oracle_flat.sol\":6802:6806  true */\n      0x01\n        /* \"oracle_flat.sol\":6777:6781  nfts */\n      0x02\n        /* \"oracle_flat.sol\":6777:6788  nfts[nftid] */\n      0x00\n        /* \"oracle_flat.sol\":6782:6787  nftid */\n      dup5\n        /* \"oracle_flat.sol\":6777:6788  nfts[nftid] */\n      dup2\n      mstore\n      0x20\n      add\n      swap1\n      dup2\n      mstore\n      0x20\n      add\n      0x00\n      keccak256\n        /* \"oracle_flat.sol\":6777:6799  nfts[nftid].isDetected */\n      0x03\n      add\n      0x00\n        /* \"oracle_flat.sol\":6777:6806  nfts[nftid].isDetected = true */\n      0x0100\n      exp\n      dup2\n      sload\n      dup2\n      0xff\n      mul\n      not\n      and\n      swap1\n      dup4\n      iszero\n      iszero\n      mul\n      or\n      swap1\n      sstore\n      pop\n        /* \"oracle_flat.sol\":6841:6858  NFTState.Detected */\n      0x01\n        /* \"oracle_flat.sol\":6821:6825  nfts */\n      0x02\n        /* \"oracle_flat.sol\":6821:6832  nfts[nftid] */\n      0x00\n        /* \"oracle_flat.sol\":6826:6831  nftid */\n      dup5\n        /* \"oracle_flat.sol\":6821:6832  nfts[nftid] */\n      dup2\n      mstore\n      0x20\n      add\n      swap1\n      dup2\n      mstore\n      0x20\n      add\n      0x00\n      keccak256\n        /* \"oracle_flat.sol\":6821:6838  nfts[nftid].state */\n      0x00\n      add\n      0x00\n        /* \"oracle_flat.sol\":6821:6858  nfts[nftid].state = NFTState.Detected */\n      0x0100\n      exp\n      dup2\n      sload\n      dup2\n      0xff\n      mul\n      not\n      and\n      swap1\n      dup4\n      0x01\n      dup2\n      gt\n      iszero\n      tag_173\n      jumpi\n      tag_174\n      tag_70\n      jump\t// in\n    tag_174:\n    tag_173:\n      mul\n      or\n      swap1\n      sstore\n      pop\n        /* \"oracle_flat.sol\":6502:6870  {\r... */\n      pop\n      pop\n        /* \"oracle_flat.sol\":6498:6501  i++ */\n      dup1\n      dup1\n      tag_175\n      swap1\n      tag_176\n      jump\t// in\n    tag_175:\n      swap2\n      pop\n      pop\n        /* \"oracle_flat.sol\":6465:6870  for(uint8 i = 0; i < _ID.length; i++){\r... */\n      jump(tag_158)\n    tag_159:\n      pop\n        /* \"oracle_flat.sol\":6086:6885  function batchDetectNFT(uint[] memory _ID,bool[] memory _result) public onlyOwner{\r... */\n      pop\n      pop\n      jump\t// out\n        /* \"oracle_flat.sol\":4156:4420  function checkNFTByHash(string memory _hash) public view returns(bool) {\r... */\n    tag_56:\n        /* \"oracle_flat.sol\":4221:4225  bool */\n      0x00\n        /* \"oracle_flat.sol\":4241:4247  uint i */\n      dup1\n        /* \"oracle_flat.sol\":4248:4249  0 */\n      0x00\n        /* \"oracle_flat.sol\":4241:4249  uint i=0 */\n      swap1\n      pop\n        /* \"oracle_flat.sol\":4237:4391  for(uint i=0;i<ID;i++){\r... */\n    tag_178:\n        /* \"oracle_flat.sol\":4252:4254  ID */\n      sload(0x01)\n        /* \"oracle_flat.sol\":4250:4251  i */\n      dup2\n        /* \"oracle_flat.sol\":4250:4254  i<ID */\n      lt\n        /* \"oracle_flat.sol\":4237:4391  for(uint i=0;i<ID;i++){\r... */\n      iszero\n      tag_179\n      jumpi\n        /* \"oracle_flat.sol\":4277:4311  compareStrings(nfts[i].hash,_hash) */\n      tag_181\n        /* \"oracle_flat.sol\":4292:4296  nfts */\n      0x02\n        /* \"oracle_flat.sol\":4292:4299  nfts[i] */\n      0x00\n        /* \"oracle_flat.sol\":4297:4298  i */\n      dup4\n        /* \"oracle_flat.sol\":4292:4299  nfts[i] */\n      dup2\n      mstore\n      0x20\n      add\n      swap1\n      dup2\n      mstore\n      0x20\n      add\n      0x00\n      keccak256\n        /* \"oracle_flat.sol\":4292:4304  nfts[i].hash */\n      0x01\n      add\n        /* \"oracle_flat.sol\":4277:4311  compareStrings(nfts[i].hash,_hash) */\n      dup1\n      sload\n      tag_182\n      swap1\n      tag_74\n      jump\t// in\n    tag_182:\n      dup1\n      0x1f\n      add\n      0x20\n      dup1\n      swap2\n      div\n      mul\n      0x20\n      add\n      mload(0x40)\n      swap1\n      dup2\n      add\n      0x40\n      mstore\n      dup1\n      swap3\n      swap2\n      swap1\n      dup2\n      dup2\n      mstore\n      0x20\n      add\n      dup3\n      dup1\n      sload\n      tag_183\n      swap1\n      tag_74\n      jump\t// in\n    tag_183:\n      dup1\n      iszero\n      tag_184\n      jumpi\n      dup1\n      0x1f\n      lt\n      tag_185\n      jumpi\n      0x0100\n      dup1\n      dup4\n      sload\n      div\n      mul\n      dup4\n      mstore\n      swap2\n      0x20\n      add\n      swap2\n      jump(tag_184)\n    tag_185:\n      dup3\n      add\n      swap2\n      swap1\n      0x00\n      mstore\n      keccak256(0x00, 0x20)\n      swap1\n    tag_186:\n      dup2\n      sload\n      dup2\n      mstore\n      swap1\n      0x01\n      add\n      swap1\n      0x20\n      add\n      dup1\n      dup4\n      gt\n      tag_186\n      jumpi\n      dup3\n      swap1\n      sub\n      0x1f\n      and\n      dup3\n      add\n      swap2\n    tag_184:\n      pop\n      pop\n      pop\n      pop\n      pop\n        /* \"oracle_flat.sol\":4305:4310  _hash */\n      dup5\n        /* \"oracle_flat.sol\":4277:4291  compareStrings */\n      tag_187\n        /* \"oracle_flat.sol\":4277:4311  compareStrings(nfts[i].hash,_hash) */\n      jump\t// in\n    tag_181:\n        /* \"oracle_flat.sol\":4277:4333  compareStrings(nfts[i].hash,_hash)&&nfts[i].result==true */\n      dup1\n      iszero\n      tag_188\n      jumpi\n      pop\n        /* \"oracle_flat.sol\":4329:4333  true */\n      0x01\n        /* \"oracle_flat.sol\":4313:4333  nfts[i].result==true */\n      iszero\n      iszero\n        /* \"oracle_flat.sol\":4313:4317  nfts */\n      0x02\n        /* \"oracle_flat.sol\":4313:4320  nfts[i] */\n      0x00\n        /* \"oracle_flat.sol\":4318:4319  i */\n      dup4\n        /* \"oracle_flat.sol\":4313:4320  nfts[i] */\n      dup2\n      mstore\n      0x20\n      add\n      swap1\n      dup2\n      mstore\n      0x20\n      add\n      0x00\n      keccak256\n        /* \"oracle_flat.sol\":4313:4327  nfts[i].result */\n      0x03\n      add\n      0x01\n      swap1\n      sload\n      swap1\n      0x0100\n      exp\n      swap1\n      div\n      0xff\n      and\n        /* \"oracle_flat.sol\":4313:4333  nfts[i].result==true */\n      iszero\n      iszero\n      eq\n        /* \"oracle_flat.sol\":4277:4333  compareStrings(nfts[i].hash,_hash)&&nfts[i].result==true */\n    tag_188:\n        /* \"oracle_flat.sol\":4274:4380  if(compareStrings(nfts[i].hash,_hash)&&nfts[i].result==true){\r... */\n      iszero\n      tag_189\n      jumpi\n        /* \"oracle_flat.sol\":4360:4364  true */\n      0x01\n        /* \"oracle_flat.sol\":4353:4364  return true */\n      swap2\n      pop\n      pop\n      jump(tag_177)\n        /* \"oracle_flat.sol\":4274:4380  if(compareStrings(nfts[i].hash,_hash)&&nfts[i].result==true){\r... */\n    tag_189:\n        /* \"oracle_flat.sol\":4255:4258  i++ */\n      dup1\n      dup1\n      tag_190\n      swap1\n      tag_191\n      jump\t// in\n    tag_190:\n      swap2\n      pop\n      pop\n        /* \"oracle_flat.sol\":4237:4391  for(uint i=0;i<ID;i++){\r... */\n      jump(tag_178)\n    tag_179:\n      pop\n        /* \"oracle_flat.sol\":4408:4413  false */\n      0x00\n        /* \"oracle_flat.sol\":4401:4413  return false */\n      swap1\n      pop\n        /* \"oracle_flat.sol\":4156:4420  function checkNFTByHash(string memory _hash) public view returns(bool) {\r... */\n    tag_177:\n      swap2\n      swap1\n      pop\n      jump\t// out\n        /* \"oracle_flat.sol\":2866:3067  function transferOwnership(address newOwner) public virtual onlyOwner {\r... */\n    tag_61:\n        /* \"oracle_flat.sol\":2188:2200  _msgSender() */\n      tag_193\n        /* \"oracle_flat.sol\":2188:2198  _msgSender */\n      tag_86\n        /* \"oracle_flat.sol\":2188:2200  _msgSender() */\n      jump\t// in\n    tag_193:\n        /* \"oracle_flat.sol\":2177:2200  owner() == _msgSender() */\n      0xffffffffffffffffffffffffffffffffffffffff\n      and\n        /* \"oracle_flat.sol\":2177:2184  owner() */\n      tag_194\n        /* \"oracle_flat.sol\":2177:2182  owner */\n      tag_34\n        /* \"oracle_flat.sol\":2177:2184  owner() */\n      jump\t// in\n    tag_194:\n        /* \"oracle_flat.sol\":2177:2200  owner() == _msgSender() */\n      0xffffffffffffffffffffffffffffffffffffffff\n      and\n      eq\n        /* \"oracle_flat.sol\":2169:2237  require(owner() == _msgSender(), \"Ownable: caller is not the owner\") */\n      tag_195\n      jumpi\n      mload(0x40)\n      0x08c379a000000000000000000000000000000000000000000000000000000000\n      dup2\n      mstore\n      0x04\n      add\n      tag_196\n      swap1\n      tag_90\n      jump\t// in\n    tag_196:\n      mload(0x40)\n      dup1\n      swap2\n      sub\n      swap1\n      revert\n    tag_195:\n        /* \"oracle_flat.sol\":2975:2976  0 */\n      0x00\n        /* \"oracle_flat.sol\":2955:2977  newOwner != address(0) */\n      0xffffffffffffffffffffffffffffffffffffffff\n      and\n        /* \"oracle_flat.sol\":2955:2963  newOwner */\n      dup2\n        /* \"oracle_flat.sol\":2955:2977  newOwner != address(0) */\n      0xffffffffffffffffffffffffffffffffffffffff\n      and\n      eq\n      iszero\n        /* \"oracle_flat.sol\":2947:3020  require(newOwner != address(0), \"Ownable: new owner is the zero address\") */\n      tag_198\n      jumpi\n      mload(0x40)\n      0x08c379a000000000000000000000000000000000000000000000000000000000\n      dup2\n      mstore\n      0x04\n      add\n      tag_199\n      swap1\n      tag_200\n      jump\t// in\n    tag_199:\n      mload(0x40)\n      dup1\n      swap2\n      sub\n      swap1\n      revert\n    tag_198:\n        /* \"oracle_flat.sol\":3031:3059  _transferOwnership(newOwner) */\n      tag_201\n        /* \"oracle_flat.sol\":3050:3058  newOwner */\n      dup2\n        /* \"oracle_flat.sol\":3031:3049  _transferOwnership */\n      tag_127\n        /* \"oracle_flat.sol\":3031:3059  _transferOwnership(newOwner) */\n      jump\t// in\n    tag_201:\n        /* \"oracle_flat.sol\":2866:3067  function transferOwnership(address newOwner) public virtual onlyOwner {\r... */\n      pop\n      jump\t// out\n        /* \"oracle_flat.sol\":681:779  function _msgSender() internal view virtual returns (address) {\r... */\n    tag_86:\n        /* \"oracle_flat.sol\":734:741  address */\n      0x00\n        /* \"oracle_flat.sol\":761:771  msg.sender */\n      caller\n        /* \"oracle_flat.sol\":754:771  return msg.sender */\n      swap1\n      pop\n        /* \"oracle_flat.sol\":681:779  function _msgSender() internal view virtual returns (address) {\r... */\n      swap1\n      jump\t// out\n        /* \"oracle_flat.sol\":6972:7215  function  hashIsExists(string memory _hash) private view returns(bool){\r... */\n    tag_104:\n        /* \"oracle_flat.sol\":7037:7041  bool */\n      0x00\n        /* \"oracle_flat.sol\":7057:7063  uint i */\n      dup1\n        /* \"oracle_flat.sol\":7064:7065  0 */\n      0x00\n        /* \"oracle_flat.sol\":7057:7065  uint i=0 */\n      swap1\n      pop\n        /* \"oracle_flat.sol\":7053:7186  for(uint i=0;i<ID;i++){\r... */\n    tag_204:\n        /* \"oracle_flat.sol\":7068:7070  ID */\n      sload(0x01)\n        /* \"oracle_flat.sol\":7066:7067  i */\n      dup2\n        /* \"oracle_flat.sol\":7066:7070  i<ID */\n      lt\n        /* \"oracle_flat.sol\":7053:7186  for(uint i=0;i<ID;i++){\r... */\n      iszero\n      tag_205\n      jumpi\n        /* \"oracle_flat.sol\":7093:7127  compareStrings(nfts[i].hash,_hash) */\n      tag_207\n        /* \"oracle_flat.sol\":7108:7112  nfts */\n      0x02\n        /* \"oracle_flat.sol\":7108:7115  nfts[i] */\n      0x00\n        /* \"oracle_flat.sol\":7113:7114  i */\n      dup4\n        /* \"oracle_flat.sol\":7108:7115  nfts[i] */\n      dup2\n      mstore\n      0x20\n      add\n      swap1\n      dup2\n      mstore\n      0x20\n      add\n      0x00\n      keccak256\n        /* \"oracle_flat.sol\":7108:7120  nfts[i].hash */\n      0x01\n      add\n        /* \"oracle_flat.sol\":7093:7127  compareStrings(nfts[i].hash,_hash) */\n      dup1\n      sload\n      tag_208\n      swap1\n      tag_74\n      jump\t// in\n    tag_208:\n      dup1\n      0x1f\n      add\n      0x20\n      dup1\n      swap2\n      div\n      mul\n      0x20\n      add\n      mload(0x40)\n      swap1\n      dup2\n      add\n      0x40\n      mstore\n      dup1\n      swap3\n      swap2\n      swap1\n      dup2\n      dup2\n      mstore\n      0x20\n      add\n      dup3\n      dup1\n      sload\n      tag_209\n      swap1\n      tag_74\n      jump\t// in\n    tag_209:\n      dup1\n      iszero\n      tag_210\n      jumpi\n      dup1\n      0x1f\n      lt\n      tag_211\n      jumpi\n      0x0100\n      dup1\n      dup4\n      sload\n      div\n      mul\n      dup4\n      mstore\n      swap2\n      0x20\n      add\n      swap2\n      jump(tag_210)\n    tag_211:\n      dup3\n      add\n      swap2\n      swap1\n      0x00\n      mstore\n      keccak256(0x00, 0x20)\n      swap1\n    tag_212:\n      dup2\n      sload\n      dup2\n      mstore\n      swap1\n      0x01\n      add\n      swap1\n      0x20\n      add\n      dup1\n      dup4\n      gt\n      tag_212\n      jumpi\n      dup3\n      swap1\n      sub\n      0x1f\n      and\n      dup3\n      add\n      swap2\n    tag_210:\n      pop\n      pop\n      pop\n      pop\n      pop\n        /* \"oracle_flat.sol\":7121:7126  _hash */\n      dup5\n        /* \"oracle_flat.sol\":7093:7107  compareStrings */\n      tag_187\n        /* \"oracle_flat.sol\":7093:7127  compareStrings(nfts[i].hash,_hash) */\n      jump\t// in\n    tag_207:\n        /* \"oracle_flat.sol\":7090:7175  if(compareStrings(nfts[i].hash,_hash)){\r... */\n      iszero\n      tag_213\n      jumpi\n        /* \"oracle_flat.sol\":7154:7159  false */\n      0x00\n        /* \"oracle_flat.sol\":7147:7159  return false */\n      swap2\n      pop\n      pop\n      jump(tag_203)\n        /* \"oracle_flat.sol\":7090:7175  if(compareStrings(nfts[i].hash,_hash)){\r... */\n    tag_213:\n        /* \"oracle_flat.sol\":7071:7074  i++ */\n      dup1\n      dup1\n      tag_214\n      swap1\n      tag_191\n      jump\t// in\n    tag_214:\n      swap2\n      pop\n      pop\n        /* \"oracle_flat.sol\":7053:7186  for(uint i=0;i<ID;i++){\r... */\n      jump(tag_204)\n    tag_205:\n      pop\n        /* \"oracle_flat.sol\":7203:7207  true */\n      0x01\n        /* \"oracle_flat.sol\":7196:7207  return true */\n      swap1\n      pop\n        /* \"oracle_flat.sol\":6972:7215  function  hashIsExists(string memory _hash) private view returns(bool){\r... */\n    tag_203:\n      swap2\n      swap1\n      pop\n      jump\t// out\n        /* \"oracle_flat.sol\":7221:7463  function ipfsIsExists(string memory _ipfs) private view returns(bool){\r... */\n    tag_107:\n        /* \"oracle_flat.sol\":7285:7289  bool */\n      0x00\n        /* \"oracle_flat.sol\":7305:7311  uint i */\n      dup1\n        /* \"oracle_flat.sol\":7312:7313  0 */\n      0x00\n        /* \"oracle_flat.sol\":7305:7313  uint i=0 */\n      swap1\n      pop\n        /* \"oracle_flat.sol\":7301:7434  for(uint i=0;i<ID;i++){\r... */\n    tag_216:\n        /* \"oracle_flat.sol\":7316:7318  ID */\n      sload(0x01)\n        /* \"oracle_flat.sol\":7314:7315  i */\n      dup2\n        /* \"oracle_flat.sol\":7314:7318  i<ID */\n      lt\n        /* \"oracle_flat.sol\":7301:7434  for(uint i=0;i<ID;i++){\r... */\n      iszero\n      tag_217\n      jumpi\n        /* \"oracle_flat.sol\":7341:7375  compareStrings(nfts[i].IPFS,_ipfs) */\n      tag_219\n        /* \"oracle_flat.sol\":7356:7360  nfts */\n      0x02\n        /* \"oracle_flat.sol\":7356:7363  nfts[i] */\n      0x00\n        /* \"oracle_flat.sol\":7361:7362  i */\n      dup4\n        /* \"oracle_flat.sol\":7356:7363  nfts[i] */\n      dup2\n      mstore\n      0x20\n      add\n      swap1\n      dup2\n      mstore\n      0x20\n      add\n      0x00\n      keccak256\n        /* \"oracle_flat.sol\":7356:7368  nfts[i].IPFS */\n      0x02\n      add\n        /* \"oracle_flat.sol\":7341:7375  compareStrings(nfts[i].IPFS,_ipfs) */\n      dup1\n      sload\n      tag_220\n      swap1\n      tag_74\n      jump\t// in\n    tag_220:\n      dup1\n      0x1f\n      add\n      0x20\n      dup1\n      swap2\n      div\n      mul\n      0x20\n      add\n      mload(0x40)\n      swap1\n      dup2\n      add\n      0x40\n      mstore\n      dup1\n      swap3\n      swap2\n      swap1\n      dup2\n      dup2\n      mstore\n      0x20\n      add\n      dup3\n      dup1\n      sload\n      tag_221\n      swap1\n      tag_74\n      jump\t// in\n    tag_221:\n      dup1\n      iszero\n      tag_222\n      jumpi\n      dup1\n      0x1f\n      lt\n      tag_223\n      jumpi\n      0x0100\n      dup1\n      dup4\n      sload\n      div\n      mul\n      dup4\n      mstore\n      swap2\n      0x20\n      add\n      swap2\n      jump(tag_222)\n    tag_223:\n      dup3\n      add\n      swap2\n      swap1\n      0x00\n      mstore\n      keccak256(0x00, 0x20)\n      swap1\n    tag_224:\n      dup2\n      sload\n      dup2\n      mstore\n      swap1\n      0x01\n      add\n      swap1\n      0x20\n      add\n      dup1\n      dup4\n      gt\n      tag_224\n      jumpi\n      dup3\n      swap1\n      sub\n      0x1f\n      and\n      dup3\n      add\n      swap2\n    tag_222:\n      pop\n      pop\n      pop\n      pop\n      pop\n        /* \"oracle_flat.sol\":7369:7374  _ipfs */\n      dup5\n        /* \"oracle_flat.sol\":7341:7355  compareStrings */\n      tag_187\n        /* \"oracle_flat.sol\":7341:7375  compareStrings(nfts[i].IPFS,_ipfs) */\n      jump\t// in\n    tag_219:\n        /* \"oracle_flat.sol\":7338:7423  if(compareStrings(nfts[i].IPFS,_ipfs)){\r... */\n      iszero\n      tag_225\n      jumpi\n        /* \"oracle_flat.sol\":7402:7407  false */\n      0x00\n        /* \"oracle_flat.sol\":7395:7407  return false */\n      swap2\n      pop\n      pop\n      jump(tag_215)\n        /* \"oracle_flat.sol\":7338:7423  if(compareStrings(nfts[i].IPFS,_ipfs)){\r... */\n    tag_225:\n        /* \"oracle_flat.sol\":7319:7322  i++ */\n      dup1\n      dup1\n      tag_226\n      swap1\n      tag_191\n      jump\t// in\n    tag_226:\n      swap2\n      pop\n      pop\n        /* \"oracle_flat.sol\":7301:7434  for(uint i=0;i<ID;i++){\r... */\n      jump(tag_216)\n    tag_217:\n      pop\n        /* \"oracle_flat.sol\":7451:7455  true */\n      0x01\n        /* \"oracle_flat.sol\":7444:7455  return true */\n      swap1\n      pop\n        /* \"oracle_flat.sol\":7221:7463  function ipfsIsExists(string memory _ipfs) private view returns(bool){\r... */\n    tag_215:\n      swap2\n      swap1\n      pop\n      jump\t// out\n        /* \"oracle_flat.sol\":3227:3418  function _transferOwnership(address newOwner) internal virtual {\r... */\n    tag_127:\n        /* \"oracle_flat.sol\":3301:3317  address oldOwner */\n      0x00\n        /* \"oracle_flat.sol\":3320:3326  _owner */\n      dup1\n      0x00\n      swap1\n      sload\n      swap1\n      0x0100\n      exp\n      swap1\n      div\n      0xffffffffffffffffffffffffffffffffffffffff\n      and\n        /* \"oracle_flat.sol\":3301:3326  address oldOwner = _owner */\n      swap1\n      pop\n        /* \"oracle_flat.sol\":3346:3354  newOwner */\n      dup2\n        /* \"oracle_flat.sol\":3337:3343  _owner */\n      0x00\n      dup1\n        /* \"oracle_flat.sol\":3337:3354  _owner = newOwner */\n      0x0100\n      exp\n      dup2\n      sload\n      dup2\n      0xffffffffffffffffffffffffffffffffffffffff\n      mul\n      not\n      and\n      swap1\n      dup4\n      0xffffffffffffffffffffffffffffffffffffffff\n      and\n      mul\n      or\n      swap1\n      sstore\n      pop\n        /* \"oracle_flat.sol\":3401:3409  newOwner */\n      dup2\n        /* \"oracle_flat.sol\":3370:3410  OwnershipTransferred(oldOwner, newOwner) */\n      0xffffffffffffffffffffffffffffffffffffffff\n      and\n        /* \"oracle_flat.sol\":3391:3399  oldOwner */\n      dup2\n        /* \"oracle_flat.sol\":3370:3410  OwnershipTransferred(oldOwner, newOwner) */\n      0xffffffffffffffffffffffffffffffffffffffff\n      and\n      0x8be0079c531659141344cd1fd0a4f28419497f9722a3daafe3b4186f6b6457e0\n      mload(0x40)\n      mload(0x40)\n      dup1\n      swap2\n      sub\n      swap1\n      log3\n        /* \"oracle_flat.sol\":3290:3418  {\r... */\n      pop\n        /* \"oracle_flat.sol\":3227:3418  function _transferOwnership(address newOwner) internal virtual {\r... */\n      pop\n      jump\t// out\n        /* \"oracle_flat.sol\":7475:7660  function  compareStrings(string memory a, string memory b) private pure returns(bool) {\r... */\n    tag_187:\n        /* \"oracle_flat.sol\":7555:7559  bool */\n      0x00\n        /* \"oracle_flat.sol\":7647:7648  b */\n      dup2\n        /* \"oracle_flat.sol\":7629:7650  abi.encodePacked((b)) */\n      add(0x20, mload(0x40))\n      tag_229\n      swap2\n      swap1\n      tag_230\n      jump\t// in\n    tag_229:\n      mload(0x40)\n      0x20\n      dup2\n      dup4\n      sub\n      sub\n      dup2\n      mstore\n      swap1\n      0x40\n      mstore\n        /* \"oracle_flat.sol\":7619:7651  keccak256(abi.encodePacked((b))) */\n      dup1\n      mload\n      swap1\n      0x20\n      add\n      keccak256\n        /* \"oracle_flat.sol\":7611:7612  a */\n      dup4\n        /* \"oracle_flat.sol\":7593:7614  abi.encodePacked((a)) */\n      add(0x20, mload(0x40))\n      tag_231\n      swap2\n      swap1\n      tag_230\n      jump\t// in\n    tag_231:\n      mload(0x40)\n      0x20\n      dup2\n      dup4\n      sub\n      sub\n      dup2\n      mstore\n      swap1\n      0x40\n      mstore\n        /* \"oracle_flat.sol\":7583:7615  keccak256(abi.encodePacked((a))) */\n      dup1\n      mload\n      swap1\n      0x20\n      add\n      keccak256\n        /* \"oracle_flat.sol\":7583:7651  keccak256(abi.encodePacked((a))) == keccak256(abi.encodePacked((b))) */\n      eq\n        /* \"oracle_flat.sol\":7575:7652  return (keccak256(abi.encodePacked((a))) == keccak256(abi.encodePacked((b)))) */\n      swap1\n      pop\n        /* \"oracle_flat.sol\":7475:7660  function  compareStrings(string memory a, string memory b) private pure returns(bool) {\r... */\n      swap3\n      swap2\n      pop\n      pop\n      jump\t// out\n    tag_63:\n      mload(0x40)\n      dup1\n      0xc0\n      add\n      0x40\n      mstore\n      dup1\n      0x00\n      0x01\n      dup2\n      gt\n      iszero\n      tag_232\n      jumpi\n      tag_233\n      tag_70\n      jump\t// in\n    tag_233:\n    tag_232:\n      dup2\n      mstore\n      0x20\n      add\n      0x60\n      dup2\n      mstore\n      0x20\n      add\n      0x60\n      dup2\n      mstore\n      0x20\n      add\n      iszero(iszero(0x00))\n      dup2\n      mstore\n      0x20\n      add\n      iszero(iszero(0x00))\n      dup2\n      mstore\n      0x20\n      add\n      and(0xffffffffffffffffffffffffffffffffffffffff, 0x00)\n      dup2\n      mstore\n      pop\n      swap1\n      jump\t// out\n    tag_112:\n      dup3\n      dup1\n      sload\n      tag_234\n      swap1\n      tag_74\n      jump\t// in\n    tag_234:\n      swap1\n      0x00\n      mstore\n      keccak256(0x00, 0x20)\n      swap1\n      0x1f\n      add\n      0x20\n      swap1\n      div\n      dup2\n      add\n      swap3\n      dup3\n      tag_236\n      jumpi\n      0x00\n      dup6\n      sstore\n      jump(tag_235)\n    tag_236:\n      dup3\n      0x1f\n      lt\n      tag_237\n      jumpi\n      dup1\n      mload\n      not(0xff)\n      and\n      dup4\n      dup1\n      add\n      or\n      dup6\n      sstore\n      jump(tag_235)\n    tag_237:\n      dup3\n      dup1\n      add\n      0x01\n      add\n      dup6\n      sstore\n      dup3\n      iszero\n      tag_235\n      jumpi\n      swap2\n      dup3\n      add\n    tag_238:\n      dup3\n      dup2\n      gt\n      iszero\n      tag_239\n      jumpi\n      dup3\n      mload\n      dup3\n      sstore\n      swap2\n      0x20\n      add\n      swap2\n      swap1\n      0x01\n      add\n      swap1\n      jump(tag_238)\n    tag_239:\n    tag_235:\n      pop\n      swap1\n      pop\n      tag_240\n      swap2\n      swap1\n      tag_241\n      jump\t// in\n    tag_240:\n      pop\n      swap1\n      jump\t// out\n    tag_241:\n    tag_242:\n      dup1\n      dup3\n      gt\n      iszero\n      tag_243\n      jumpi\n      0x00\n      dup2\n      0x00\n      swap1\n      sstore\n      pop\n      0x01\n      add\n      jump(tag_242)\n    tag_243:\n      pop\n      swap1\n      jump\t// out\n        /* \"#utility.yul\":21:734   */\n    tag_245:\n        /* \"#utility.yul\":114:119   */\n      0x00\n        /* \"#utility.yul\":139:217   */\n      tag_247\n        /* \"#utility.yul\":155:216   */\n      tag_248\n        /* \"#utility.yul\":209:215   */\n      dup5\n        /* \"#utility.yul\":155:216   */\n      tag_249\n      jump\t// in\n    tag_248:\n        /* \"#utility.yul\":139:217   */\n      tag_250\n      jump\t// in\n    tag_247:\n        /* \"#utility.yul\":130:217   */\n      swap1\n      pop\n        /* \"#utility.yul\":237:242   */\n      dup1\n        /* \"#utility.yul\":266:272   */\n      dup4\n        /* \"#utility.yul\":259:264   */\n      dup3\n        /* \"#utility.yul\":252:273   */\n      mstore\n        /* \"#utility.yul\":300:304   */\n      0x20\n        /* \"#utility.yul\":293:298   */\n      dup3\n        /* \"#utility.yul\":289:305   */\n      add\n        /* \"#utility.yul\":282:305   */\n      swap1\n      pop\n        /* \"#utility.yul\":326:332   */\n      dup3\n        /* \"#utility.yul\":376:379   */\n      dup6\n        /* \"#utility.yul\":368:372   */\n      0x20\n        /* \"#utility.yul\":360:366   */\n      dup7\n        /* \"#utility.yul\":356:373   */\n      mul\n        /* \"#utility.yul\":351:354   */\n      dup3\n        /* \"#utility.yul\":347:374   */\n      add\n        /* \"#utility.yul\":344:380   */\n      gt\n        /* \"#utility.yul\":341:484   */\n      iszero\n      tag_251\n      jumpi\n        /* \"#utility.yul\":395:474   */\n      tag_252\n      tag_253\n      jump\t// in\n    tag_252:\n        /* \"#utility.yul\":341:484   */\n    tag_251:\n        /* \"#utility.yul\":508:509   */\n      0x00\n        /* \"#utility.yul\":493:728   */\n    tag_254:\n        /* \"#utility.yul\":518:524   */\n      dup6\n        /* \"#utility.yul\":515:516   */\n      dup2\n        /* \"#utility.yul\":512:525   */\n      lt\n        /* \"#utility.yul\":493:728   */\n      iszero\n      tag_256\n      jumpi\n        /* \"#utility.yul\":586:589   */\n      dup2\n        /* \"#utility.yul\":615:649   */\n      tag_257\n        /* \"#utility.yul\":645:648   */\n      dup9\n        /* \"#utility.yul\":633:643   */\n      dup3\n        /* \"#utility.yul\":615:649   */\n      tag_258\n      jump\t// in\n    tag_257:\n        /* \"#utility.yul\":610:613   */\n      dup5\n        /* \"#utility.yul\":603:650   */\n      mstore\n        /* \"#utility.yul\":679:683   */\n      0x20\n        /* \"#utility.yul\":674:677   */\n      dup5\n        /* \"#utility.yul\":670:684   */\n      add\n        /* \"#utility.yul\":663:684   */\n      swap4\n      pop\n        /* \"#utility.yul\":713:717   */\n      0x20\n        /* \"#utility.yul\":708:711   */\n      dup4\n        /* \"#utility.yul\":704:718   */\n      add\n        /* \"#utility.yul\":697:718   */\n      swap3\n      pop\n        /* \"#utility.yul\":553:728   */\n      pop\n        /* \"#utility.yul\":540:541   */\n      0x01\n        /* \"#utility.yul\":537:538   */\n      dup2\n        /* \"#utility.yul\":533:542   */\n      add\n        /* \"#utility.yul\":528:542   */\n      swap1\n      pop\n        /* \"#utility.yul\":493:728   */\n      jump(tag_254)\n    tag_256:\n        /* \"#utility.yul\":497:511   */\n      pop\n        /* \"#utility.yul\":120:734   */\n      pop\n      pop\n        /* \"#utility.yul\":21:734   */\n      swap4\n      swap3\n      pop\n      pop\n      pop\n      jump\t// out\n        /* \"#utility.yul\":757:1479   */\n    tag_259:\n        /* \"#utility.yul\":853:858   */\n      0x00\n        /* \"#utility.yul\":878:959   */\n      tag_261\n        /* \"#utility.yul\":894:958   */\n      tag_262\n        /* \"#utility.yul\":951:957   */\n      dup5\n        /* \"#utility.yul\":894:958   */\n      tag_263\n      jump\t// in\n    tag_262:\n        /* \"#utility.yul\":878:959   */\n      tag_250\n      jump\t// in\n    tag_261:\n        /* \"#utility.yul\":869:959   */\n      swap1\n      pop\n        /* \"#utility.yul\":979:984   */\n      dup1\n        /* \"#utility.yul\":1008:1014   */\n      dup4\n        /* \"#utility.yul\":1001:1006   */\n      dup3\n        /* \"#utility.yul\":994:1015   */\n      mstore\n        /* \"#utility.yul\":1042:1046   */\n      0x20\n        /* \"#utility.yul\":1035:1040   */\n      dup3\n        /* \"#utility.yul\":1031:1047   */\n      add\n        /* \"#utility.yul\":1024:1047   */\n      swap1\n      pop\n        /* \"#utility.yul\":1068:1074   */\n      dup3\n        /* \"#utility.yul\":1118:1121   */\n      dup6\n        /* \"#utility.yul\":1110:1114   */\n      0x20\n        /* \"#utility.yul\":1102:1108   */\n      dup7\n        /* \"#utility.yul\":1098:1115   */\n      mul\n        /* \"#utility.yul\":1093:1096   */\n      dup3\n        /* \"#utility.yul\":1089:1116   */\n      add\n        /* \"#utility.yul\":1086:1122   */\n      gt\n        /* \"#utility.yul\":1083:1226   */\n      iszero\n      tag_264\n      jumpi\n        /* \"#utility.yul\":1137:1216   */\n      tag_265\n      tag_253\n      jump\t// in\n    tag_265:\n        /* \"#utility.yul\":1083:1226   */\n    tag_264:\n        /* \"#utility.yul\":1250:1251   */\n      0x00\n        /* \"#utility.yul\":1235:1473   */\n    tag_266:\n        /* \"#utility.yul\":1260:1266   */\n      dup6\n        /* \"#utility.yul\":1257:1258   */\n      dup2\n        /* \"#utility.yul\":1254:1267   */\n      lt\n        /* \"#utility.yul\":1235:1473   */\n      iszero\n      tag_268\n      jumpi\n        /* \"#utility.yul\":1328:1331   */\n      dup2\n        /* \"#utility.yul\":1357:1394   */\n      tag_269\n        /* \"#utility.yul\":1390:1393   */\n      dup9\n        /* \"#utility.yul\":1378:1388   */\n      dup3\n        /* \"#utility.yul\":1357:1394   */\n      tag_270\n      jump\t// in\n    tag_269:\n        /* \"#utility.yul\":1352:1355   */\n      dup5\n        /* \"#utility.yul\":1345:1395   */\n      mstore\n        /* \"#utility.yul\":1424:1428   */\n      0x20\n        /* \"#utility.yul\":1419:1422   */\n      dup5\n        /* \"#utility.yul\":1415:1429   */\n      add\n        /* \"#utility.yul\":1408:1429   */\n      swap4\n      pop\n        /* \"#utility.yul\":1458:1462   */\n      0x20\n        /* \"#utility.yul\":1453:1456   */\n      dup4\n        /* \"#utility.yul\":1449:1463   */\n      add\n        /* \"#utility.yul\":1442:1463   */\n      swap3\n      pop\n        /* \"#utility.yul\":1295:1473   */\n      pop\n        /* \"#utility.yul\":1282:1283   */\n      0x01\n        /* \"#utility.yul\":1279:1280   */\n      dup2\n        /* \"#utility.yul\":1275:1284   */\n      add\n        /* \"#utility.yul\":1270:1284   */\n      swap1\n      pop\n        /* \"#utility.yul\":1235:1473   */\n      jump(tag_266)\n    tag_268:\n        /* \"#utility.yul\":1239:1253   */\n      pop\n        /* \"#utility.yul\":859:1479   */\n      pop\n      pop\n        /* \"#utility.yul\":757:1479   */\n      swap4\n      swap3\n      pop\n      pop\n      pop\n      jump\t// out\n        /* \"#utility.yul\":1485:1897   */\n    tag_271:\n        /* \"#utility.yul\":1563:1568   */\n      0x00\n        /* \"#utility.yul\":1588:1654   */\n      tag_273\n        /* \"#utility.yul\":1604:1653   */\n      tag_274\n        /* \"#utility.yul\":1646:1652   */\n      dup5\n        /* \"#utility.yul\":1604:1653   */\n      tag_275\n      jump\t// in\n    tag_274:\n        /* \"#utility.yul\":1588:1654   */\n      tag_250\n      jump\t// in\n    tag_273:\n        /* \"#utility.yul\":1579:1654   */\n      swap1\n      pop\n        /* \"#utility.yul\":1677:1683   */\n      dup3\n        /* \"#utility.yul\":1670:1675   */\n      dup2\n        /* \"#utility.yul\":1663:1684   */\n      mstore\n        /* \"#utility.yul\":1715:1719   */\n      0x20\n        /* \"#utility.yul\":1708:1713   */\n      dup2\n        /* \"#utility.yul\":1704:1720   */\n      add\n        /* \"#utility.yul\":1753:1756   */\n      dup5\n        /* \"#utility.yul\":1744:1750   */\n      dup5\n        /* \"#utility.yul\":1739:1742   */\n      dup5\n        /* \"#utility.yul\":1735:1751   */\n      add\n        /* \"#utility.yul\":1732:1757   */\n      gt\n        /* \"#utility.yul\":1729:1841   */\n      iszero\n      tag_276\n      jumpi\n        /* \"#utility.yul\":1760:1839   */\n      tag_277\n      tag_278\n      jump\t// in\n    tag_277:\n        /* \"#utility.yul\":1729:1841   */\n    tag_276:\n        /* \"#utility.yul\":1850:1891   */\n      tag_279\n        /* \"#utility.yul\":1884:1890   */\n      dup5\n        /* \"#utility.yul\":1879:1882   */\n      dup3\n        /* \"#utility.yul\":1874:1877   */\n      dup6\n        /* \"#utility.yul\":1850:1891   */\n      tag_280\n      jump\t// in\n    tag_279:\n        /* \"#utility.yul\":1569:1897   */\n      pop\n        /* \"#utility.yul\":1485:1897   */\n      swap4\n      swap3\n      pop\n      pop\n      pop\n      jump\t// out\n        /* \"#utility.yul\":1903:2042   */\n    tag_281:\n        /* \"#utility.yul\":1949:1954   */\n      0x00\n        /* \"#utility.yul\":1987:1993   */\n      dup2\n        /* \"#utility.yul\":1974:1994   */\n      calldataload\n        /* \"#utility.yul\":1965:1994   */\n      swap1\n      pop\n        /* \"#utility.yul\":2003:2036   */\n      tag_283\n        /* \"#utility.yul\":2030:2035   */\n      dup2\n        /* \"#utility.yul\":2003:2036   */\n      tag_284\n      jump\t// in\n    tag_283:\n        /* \"#utility.yul\":1903:2042   */\n      swap3\n      swap2\n      pop\n      pop\n      jump\t// out\n        /* \"#utility.yul\":2062:2426   */\n    tag_285:\n        /* \"#utility.yul\":2130:2135   */\n      0x00\n        /* \"#utility.yul\":2179:2182   */\n      dup3\n        /* \"#utility.yul\":2172:2176   */\n      0x1f\n        /* \"#utility.yul\":2164:2170   */\n      dup4\n        /* \"#utility.yul\":2160:2177   */\n      add\n        /* \"#utility.yul\":2156:2183   */\n      slt\n        /* \"#utility.yul\":2146:2268   */\n      tag_287\n      jumpi\n        /* \"#utility.yul\":2187:2266   */\n      tag_288\n      tag_289\n      jump\t// in\n    tag_288:\n        /* \"#utility.yul\":2146:2268   */\n    tag_287:\n        /* \"#utility.yul\":2304:2310   */\n      dup2\n        /* \"#utility.yul\":2291:2311   */\n      calldataload\n        /* \"#utility.yul\":2329:2420   */\n      tag_290\n        /* \"#utility.yul\":2416:2419   */\n      dup5\n        /* \"#utility.yul\":2408:2414   */\n      dup3\n        /* \"#utility.yul\":2401:2405   */\n      0x20\n        /* \"#utility.yul\":2393:2399   */\n      dup7\n        /* \"#utility.yul\":2389:2406   */\n      add\n        /* \"#utility.yul\":2329:2420   */\n      tag_245\n      jump\t// in\n    tag_290:\n        /* \"#utility.yul\":2320:2420   */\n      swap2\n      pop\n        /* \"#utility.yul\":2136:2426   */\n      pop\n        /* \"#utility.yul\":2062:2426   */\n      swap3\n      swap2\n      pop\n      pop\n      jump\t// out\n        /* \"#utility.yul\":2449:2819   */\n    tag_291:\n        /* \"#utility.yul\":2520:2525   */\n      0x00\n        /* \"#utility.yul\":2569:2572   */\n      dup3\n        /* \"#utility.yul\":2562:2566   */\n      0x1f\n        /* \"#utility.yul\":2554:2560   */\n      dup4\n        /* \"#utility.yul\":2550:2567   */\n      add\n        /* \"#utility.yul\":2546:2573   */\n      slt\n        /* \"#utility.yul\":2536:2658   */\n      tag_293\n      jumpi\n        /* \"#utility.yul\":2577:2656   */\n      tag_294\n      tag_289\n      jump\t// in\n    tag_294:\n        /* \"#utility.yul\":2536:2658   */\n    tag_293:\n        /* \"#utility.yul\":2694:2700   */\n      dup2\n        /* \"#utility.yul\":2681:2701   */\n      calldataload\n        /* \"#utility.yul\":2719:2813   */\n      tag_295\n        /* \"#utility.yul\":2809:2812   */\n      dup5\n        /* \"#utility.yul\":2801:2807   */\n      dup3\n        /* \"#utility.yul\":2794:2798   */\n      0x20\n        /* \"#utility.yul\":2786:2792   */\n      dup7\n        /* \"#utility.yul\":2782:2799   */\n      add\n        /* \"#utility.yul\":2719:2813   */\n      tag_259\n      jump\t// in\n    tag_295:\n        /* \"#utility.yul\":2710:2813   */\n      swap2\n      pop\n        /* \"#utility.yul\":2526:2819   */\n      pop\n        /* \"#utility.yul\":2449:2819   */\n      swap3\n      swap2\n      pop\n      pop\n      jump\t// out\n        /* \"#utility.yul\":2825:2958   */\n    tag_258:\n        /* \"#utility.yul\":2868:2873   */\n      0x00\n        /* \"#utility.yul\":2906:2912   */\n      dup2\n        /* \"#utility.yul\":2893:2913   */\n      calldataload\n        /* \"#utility.yul\":2884:2913   */\n      swap1\n      pop\n        /* \"#utility.yul\":2922:2952   */\n      tag_297\n        /* \"#utility.yul\":2946:2951   */\n      dup2\n        /* \"#utility.yul\":2922:2952   */\n      tag_298\n      jump\t// in\n    tag_297:\n        /* \"#utility.yul\":2825:2958   */\n      swap3\n      swap2\n      pop\n      pop\n      jump\t// out\n        /* \"#utility.yul\":2978:3318   */\n    tag_299:\n        /* \"#utility.yul\":3034:3039   */\n      0x00\n        /* \"#utility.yul\":3083:3086   */\n      dup3\n        /* \"#utility.yul\":3076:3080   */\n      0x1f\n        /* \"#utility.yul\":3068:3074   */\n      dup4\n        /* \"#utility.yul\":3064:3081   */\n      add\n        /* \"#utility.yul\":3060:3087   */\n      slt\n        /* \"#utility.yul\":3050:3172   */\n      tag_301\n      jumpi\n        /* \"#utility.yul\":3091:3170   */\n      tag_302\n      tag_289\n      jump\t// in\n    tag_302:\n        /* \"#utility.yul\":3050:3172   */\n    tag_301:\n        /* \"#utility.yul\":3208:3214   */\n      dup2\n        /* \"#utility.yul\":3195:3215   */\n      calldataload\n        /* \"#utility.yul\":3233:3312   */\n      tag_303\n        /* \"#utility.yul\":3308:3311   */\n      dup5\n        /* \"#utility.yul\":3300:3306   */\n      dup3\n        /* \"#utility.yul\":3293:3297   */\n      0x20\n        /* \"#utility.yul\":3285:3291   */\n      dup7\n        /* \"#utility.yul\":3281:3298   */\n      add\n        /* \"#utility.yul\":3233:3312   */\n      tag_271\n      jump\t// in\n    tag_303:\n        /* \"#utility.yul\":3224:3312   */\n      swap2\n      pop\n        /* \"#utility.yul\":3040:3318   */\n      pop\n        /* \"#utility.yul\":2978:3318   */\n      swap3\n      swap2\n      pop\n      pop\n      jump\t// out\n        /* \"#utility.yul\":3324:3463   */\n    tag_270:\n        /* \"#utility.yul\":3370:3375   */\n      0x00\n        /* \"#utility.yul\":3408:3414   */\n      dup2\n        /* \"#utility.yul\":3395:3415   */\n      calldataload\n        /* \"#utility.yul\":3386:3415   */\n      swap1\n      pop\n        /* \"#utility.yul\":3424:3457   */\n      tag_305\n        /* \"#utility.yul\":3451:3456   */\n      dup2\n        /* \"#utility.yul\":3424:3457   */\n      tag_306\n      jump\t// in\n    tag_305:\n        /* \"#utility.yul\":3324:3463   */\n      swap3\n      swap2\n      pop\n      pop\n      jump\t// out\n        /* \"#utility.yul\":3469:3798   */\n    tag_60:\n        /* \"#utility.yul\":3528:3534   */\n      0x00\n        /* \"#utility.yul\":3577:3579   */\n      0x20\n        /* \"#utility.yul\":3565:3574   */\n      dup3\n        /* \"#utility.yul\":3556:3563   */\n      dup5\n        /* \"#utility.yul\":3552:3575   */\n      sub\n        /* \"#utility.yul\":3548:3580   */\n      slt\n        /* \"#utility.yul\":3545:3664   */\n      iszero\n      tag_308\n      jumpi\n        /* \"#utility.yul\":3583:3662   */\n      tag_309\n      tag_310\n      jump\t// in\n    tag_309:\n        /* \"#utility.yul\":3545:3664   */\n    tag_308:\n        /* \"#utility.yul\":3703:3704   */\n      0x00\n        /* \"#utility.yul\":3728:3781   */\n      tag_311\n        /* \"#utility.yul\":3773:3780   */\n      dup5\n        /* \"#utility.yul\":3764:3770   */\n      dup3\n        /* \"#utility.yul\":3753:3762   */\n      dup6\n        /* \"#utility.yul\":3749:3771   */\n      add\n        /* \"#utility.yul\":3728:3781   */\n      tag_281\n      jump\t// in\n    tag_311:\n        /* \"#utility.yul\":3718:3781   */\n      swap2\n      pop\n        /* \"#utility.yul\":3674:3791   */\n      pop\n        /* \"#utility.yul\":3469:3798   */\n      swap3\n      swap2\n      pop\n      pop\n      jump\t// out\n        /* \"#utility.yul\":3804:4692   */\n    tag_51:\n        /* \"#utility.yul\":3919:3925   */\n      0x00\n        /* \"#utility.yul\":3927:3933   */\n      dup1\n        /* \"#utility.yul\":3976:3978   */\n      0x40\n        /* \"#utility.yul\":3964:3973   */\n      dup4\n        /* \"#utility.yul\":3955:3962   */\n      dup6\n        /* \"#utility.yul\":3951:3974   */\n      sub\n        /* \"#utility.yul\":3947:3979   */\n      slt\n        /* \"#utility.yul\":3944:4063   */\n      iszero\n      tag_313\n      jumpi\n        /* \"#utility.yul\":3982:4061   */\n      tag_314\n      tag_310\n      jump\t// in\n    tag_314:\n        /* \"#utility.yul\":3944:4063   */\n    tag_313:\n        /* \"#utility.yul\":4130:4131   */\n      0x00\n        /* \"#utility.yul\":4119:4128   */\n      dup4\n        /* \"#utility.yul\":4115:4132   */\n      add\n        /* \"#utility.yul\":4102:4133   */\n      calldataload\n        /* \"#utility.yul\":4160:4178   */\n      0xffffffffffffffff\n        /* \"#utility.yul\":4152:4158   */\n      dup2\n        /* \"#utility.yul\":4149:4179   */\n      gt\n        /* \"#utility.yul\":4146:4263   */\n      iszero\n      tag_315\n      jumpi\n        /* \"#utility.yul\":4182:4261   */\n      tag_316\n      tag_317\n      jump\t// in\n    tag_316:\n        /* \"#utility.yul\":4146:4263   */\n    tag_315:\n        /* \"#utility.yul\":4287:4365   */\n      tag_318\n        /* \"#utility.yul\":4357:4364   */\n      dup6\n        /* \"#utility.yul\":4348:4354   */\n      dup3\n        /* \"#utility.yul\":4337:4346   */\n      dup7\n        /* \"#utility.yul\":4333:4355   */\n      add\n        /* \"#utility.yul\":4287:4365   */\n      tag_291\n      jump\t// in\n    tag_318:\n        /* \"#utility.yul\":4277:4365   */\n      swap3\n      pop\n        /* \"#utility.yul\":4073:4375   */\n      pop\n        /* \"#utility.yul\":4442:4444   */\n      0x20\n        /* \"#utility.yul\":4431:4440   */\n      dup4\n        /* \"#utility.yul\":4427:4445   */\n      add\n        /* \"#utility.yul\":4414:4446   */\n      calldataload\n        /* \"#utility.yul\":4473:4491   */\n      0xffffffffffffffff\n        /* \"#utility.yul\":4465:4471   */\n      dup2\n        /* \"#utility.yul\":4462:4492   */\n      gt\n        /* \"#utility.yul\":4459:4576   */\n      iszero\n      tag_319\n      jumpi\n        /* \"#utility.yul\":4495:4574   */\n      tag_320\n      tag_317\n      jump\t// in\n    tag_320:\n        /* \"#utility.yul\":4459:4576   */\n    tag_319:\n        /* \"#utility.yul\":4600:4675   */\n      tag_321\n        /* \"#utility.yul\":4667:4674   */\n      dup6\n        /* \"#utility.yul\":4658:4664   */\n      dup3\n        /* \"#utility.yul\":4647:4656   */\n      dup7\n        /* \"#utility.yul\":4643:4665   */\n      add\n        /* \"#utility.yul\":4600:4675   */\n      tag_285\n      jump\t// in\n    tag_321:\n        /* \"#utility.yul\":4590:4675   */\n      swap2\n      pop\n        /* \"#utility.yul\":4385:4685   */\n      pop\n        /* \"#utility.yul\":3804:4692   */\n      swap3\n      pop\n      swap3\n      swap1\n      pop\n      jump\t// out\n        /* \"#utility.yul\":4698:5207   */\n    tag_55:\n        /* \"#utility.yul\":4767:4773   */\n      0x00\n        /* \"#utility.yul\":4816:4818   */\n      0x20\n        /* \"#utility.yul\":4804:4813   */\n      dup3\n        /* \"#utility.yul\":4795:4802   */\n      dup5\n        /* \"#utility.yul\":4791:4814   */\n      sub\n        /* \"#utility.yul\":4787:4819   */\n      slt\n        /* \"#utility.yul\":4784:4903   */\n      iszero\n      tag_323\n      jumpi\n        /* \"#utility.yul\":4822:4901   */\n      tag_324\n      tag_310\n      jump\t// in\n    tag_324:\n        /* \"#utility.yul\":4784:4903   */\n    tag_323:\n        /* \"#utility.yul\":4970:4971   */\n      0x00\n        /* \"#utility.yul\":4959:4968   */\n      dup3\n        /* \"#utility.yul\":4955:4972   */\n      add\n        /* \"#utility.yul\":4942:4973   */\n      calldataload\n        /* \"#utility.yul\":5000:5018   */\n      0xffffffffffffffff\n        /* \"#utility.yul\":4992:4998   */\n      dup2\n        /* \"#utility.yul\":4989:5019   */\n      gt\n        /* \"#utility.yul\":4986:5103   */\n      iszero\n      tag_325\n      jumpi\n        /* \"#utility.yul\":5022:5101   */\n      tag_326\n      tag_317\n      jump\t// in\n    tag_326:\n        /* \"#utility.yul\":4986:5103   */\n    tag_325:\n        /* \"#utility.yul\":5127:5190   */\n      tag_327\n        /* \"#utility.yul\":5182:5189   */\n      dup5\n        /* \"#utility.yul\":5173:5179   */\n      dup3\n        /* \"#utility.yul\":5162:5171   */\n      dup6\n        /* \"#utility.yul\":5158:5180   */\n      add\n        /* \"#utility.yul\":5127:5190   */\n      tag_299\n      jump\t// in\n    tag_327:\n        /* \"#utility.yul\":5117:5190   */\n      swap2\n      pop\n        /* \"#utility.yul\":4913:5200   */\n      pop\n        /* \"#utility.yul\":4698:5207   */\n      swap3\n      swap2\n      pop\n      pop\n      jump\t// out\n        /* \"#utility.yul\":5213:6047   */\n    tag_27:\n        /* \"#utility.yul\":5301:5307   */\n      0x00\n        /* \"#utility.yul\":5309:5315   */\n      dup1\n        /* \"#utility.yul\":5358:5360   */\n      0x40\n        /* \"#utility.yul\":5346:5355   */\n      dup4\n        /* \"#utility.yul\":5337:5344   */\n      dup6\n        /* \"#utility.yul\":5333:5356   */\n      sub\n        /* \"#utility.yul\":5329:5361   */\n      slt\n        /* \"#utility.yul\":5326:5445   */\n      iszero\n      tag_329\n      jumpi\n        /* \"#utility.yul\":5364:5443   */\n      tag_330\n      tag_310\n      jump\t// in\n    tag_330:\n        /* \"#utility.yul\":5326:5445   */\n    tag_329:\n        /* \"#utility.yul\":5512:5513   */\n      0x00\n        /* \"#utility.yul\":5501:5510   */\n      dup4\n        /* \"#utility.yul\":5497:5514   */\n      add\n        /* \"#utility.yul\":5484:5515   */\n      calldataload\n        /* \"#utility.yul\":5542:5560   */\n      0xffffffffffffffff\n        /* \"#utility.yul\":5534:5540   */\n      dup2\n        /* \"#utility.yul\":5531:5561   */\n      gt\n        /* \"#utility.yul\":5528:5645   */\n      iszero\n      tag_331\n      jumpi\n        /* \"#utility.yul\":5564:5643   */\n      tag_332\n      tag_317\n      jump\t// in\n    tag_332:\n        /* \"#utility.yul\":5528:5645   */\n    tag_331:\n        /* \"#utility.yul\":5669:5732   */\n      tag_333\n        /* \"#utility.yul\":5724:5731   */\n      dup6\n        /* \"#utility.yul\":5715:5721   */\n      dup3\n        /* \"#utility.yul\":5704:5713   */\n      dup7\n        /* \"#utility.yul\":5700:5722   */\n      add\n        /* \"#utility.yul\":5669:5732   */\n      tag_299\n      jump\t// in\n    tag_333:\n        /* \"#utility.yul\":5659:5732   */\n      swap3\n      pop\n        /* \"#utility.yul\":5455:5742   */\n      pop\n        /* \"#utility.yul\":5809:5811   */\n      0x20\n        /* \"#utility.yul\":5798:5807   */\n      dup4\n        /* \"#utility.yul\":5794:5812   */\n      add\n        /* \"#utility.yul\":5781:5813   */\n      calldataload\n        /* \"#utility.yul\":5840:5858   */\n      0xffffffffffffffff\n        /* \"#utility.yul\":5832:5838   */\n      dup2\n        /* \"#utility.yul\":5829:5859   */\n      gt\n        /* \"#utility.yul\":5826:5943   */\n      iszero\n      tag_334\n      jumpi\n        /* \"#utility.yul\":5862:5941   */\n      tag_335\n      tag_317\n      jump\t// in\n    tag_335:\n        /* \"#utility.yul\":5826:5943   */\n    tag_334:\n        /* \"#utility.yul\":5967:6030   */\n      tag_336\n        /* \"#utility.yul\":6022:6029   */\n      dup6\n        /* \"#utility.yul\":6013:6019   */\n      dup3\n        /* \"#utility.yul\":6002:6011   */\n      dup7\n        /* \"#utility.yul\":5998:6020   */\n      add\n        /* \"#utility.yul\":5967:6030   */\n      tag_299\n      jump\t// in\n    tag_336:\n        /* \"#utility.yul\":5957:6030   */\n      swap2\n      pop\n        /* \"#utility.yul\":5752:6040   */\n      pop\n        /* \"#utility.yul\":5213:6047   */\n      swap3\n      pop\n      swap3\n      swap1\n      pop\n      jump\t// out\n        /* \"#utility.yul\":6053:6382   */\n    tag_17:\n        /* \"#utility.yul\":6112:6118   */\n      0x00\n        /* \"#utility.yul\":6161:6163   */\n      0x20\n        /* \"#utility.yul\":6149:6158   */\n      dup3\n        /* \"#utility.yul\":6140:6147   */\n      dup5\n        /* \"#utility.yul\":6136:6159   */\n      sub\n        /* \"#utility.yul\":6132:6164   */\n      slt\n        /* \"#utility.yul\":6129:6248   */\n      iszero\n      tag_338\n      jumpi\n        /* \"#utility.yul\":6167:6246   */\n      tag_339\n      tag_310\n      jump\t// in\n    tag_339:\n        /* \"#utility.yul\":6129:6248   */\n    tag_338:\n        /* \"#utility.yul\":6287:6288   */\n      0x00\n        /* \"#utility.yul\":6312:6365   */\n      tag_340\n        /* \"#utility.yul\":6357:6364   */\n      dup5\n        /* \"#utility.yul\":6348:6354   */\n      dup3\n        /* \"#utility.yul\":6337:6346   */\n      dup6\n        /* \"#utility.yul\":6333:6355   */\n      add\n        /* \"#utility.yul\":6312:6365   */\n      tag_270\n      jump\t// in\n    tag_340:\n        /* \"#utility.yul\":6302:6365   */\n      swap2\n      pop\n        /* \"#utility.yul\":6258:6375   */\n      pop\n        /* \"#utility.yul\":6053:6382   */\n      swap3\n      swap2\n      pop\n      pop\n      jump\t// out\n        /* \"#utility.yul\":6388:6856   */\n    tag_23:\n        /* \"#utility.yul\":6453:6459   */\n      0x00\n        /* \"#utility.yul\":6461:6467   */\n      dup1\n        /* \"#utility.yul\":6510:6512   */\n      0x40\n        /* \"#utility.yul\":6498:6507   */\n      dup4\n        /* \"#utility.yul\":6489:6496   */\n      dup6\n        /* \"#utility.yul\":6485:6508   */\n      sub\n        /* \"#utility.yul\":6481:6513   */\n      slt\n        /* \"#utility.yul\":6478:6597   */\n      iszero\n      tag_342\n      jumpi\n        /* \"#utility.yul\":6516:6595   */\n      tag_343\n      tag_310\n      jump\t// in\n    tag_343:\n        /* \"#utility.yul\":6478:6597   */\n    tag_342:\n        /* \"#utility.yul\":6636:6637   */\n      0x00\n        /* \"#utility.yul\":6661:6714   */\n      tag_344\n        /* \"#utility.yul\":6706:6713   */\n      dup6\n        /* \"#utility.yul\":6697:6703   */\n      dup3\n        /* \"#utility.yul\":6686:6695   */\n      dup7\n        /* \"#utility.yul\":6682:6704   */\n      add\n        /* \"#utility.yul\":6661:6714   */\n      tag_270\n      jump\t// in\n    tag_344:\n        /* \"#utility.yul\":6651:6714   */\n      swap3\n      pop\n        /* \"#utility.yul\":6607:6724   */\n      pop\n        /* \"#utility.yul\":6763:6765   */\n      0x20\n        /* \"#utility.yul\":6789:6839   */\n      tag_345\n        /* \"#utility.yul\":6831:6838   */\n      dup6\n        /* \"#utility.yul\":6822:6828   */\n      dup3\n        /* \"#utility.yul\":6811:6820   */\n      dup7\n        /* \"#utility.yul\":6807:6829   */\n      add\n        /* \"#utility.yul\":6789:6839   */\n      tag_258\n      jump\t// in\n    tag_345:\n        /* \"#utility.yul\":6779:6839   */\n      swap2\n      pop\n        /* \"#utility.yul\":6734:6849   */\n      pop\n        /* \"#utility.yul\":6388:6856   */\n      swap3\n      pop\n      swap3\n      swap1\n      pop\n      jump\t// out\n        /* \"#utility.yul\":6862:6970   */\n    tag_346:\n        /* \"#utility.yul\":6939:6963   */\n      tag_348\n        /* \"#utility.yul\":6957:6962   */\n      dup2\n        /* \"#utility.yul\":6939:6963   */\n      tag_349\n      jump\t// in\n    tag_348:\n        /* \"#utility.yul\":6934:6937   */\n      dup3\n        /* \"#utility.yul\":6927:6964   */\n      mstore\n        /* \"#utility.yul\":6862:6970   */\n      pop\n      pop\n      jump\t// out\n        /* \"#utility.yul\":6976:7094   */\n    tag_350:\n        /* \"#utility.yul\":7063:7087   */\n      tag_352\n        /* \"#utility.yul\":7081:7086   */\n      dup2\n        /* \"#utility.yul\":7063:7087   */\n      tag_349\n      jump\t// in\n    tag_352:\n        /* \"#utility.yul\":7058:7061   */\n      dup3\n        /* \"#utility.yul\":7051:7088   */\n      mstore\n        /* \"#utility.yul\":6976:7094   */\n      pop\n      pop\n      jump\t// out\n        /* \"#utility.yul\":7100:7199   */\n    tag_353:\n        /* \"#utility.yul\":7171:7192   */\n      tag_355\n        /* \"#utility.yul\":7186:7191   */\n      dup2\n        /* \"#utility.yul\":7171:7192   */\n      tag_356\n      jump\t// in\n    tag_355:\n        /* \"#utility.yul\":7166:7169   */\n      dup3\n        /* \"#utility.yul\":7159:7193   */\n      mstore\n        /* \"#utility.yul\":7100:7199   */\n      pop\n      pop\n      jump\t// out\n        /* \"#utility.yul\":7205:7314   */\n    tag_357:\n        /* \"#utility.yul\":7286:7307   */\n      tag_359\n        /* \"#utility.yul\":7301:7306   */\n      dup2\n        /* \"#utility.yul\":7286:7307   */\n      tag_356\n      jump\t// in\n    tag_359:\n        /* \"#utility.yul\":7281:7284   */\n      dup3\n        /* \"#utility.yul\":7274:7308   */\n      mstore\n        /* \"#utility.yul\":7205:7314   */\n      pop\n      pop\n      jump\t// out\n        /* \"#utility.yul\":7320:7461   */\n    tag_360:\n        /* \"#utility.yul\":7407:7454   */\n      tag_362\n        /* \"#utility.yul\":7448:7453   */\n      dup2\n        /* \"#utility.yul\":7407:7454   */\n      tag_363\n      jump\t// in\n    tag_362:\n        /* \"#utility.yul\":7402:7405   */\n      dup3\n        /* \"#utility.yul\":7395:7455   */\n      mstore\n        /* \"#utility.yul\":7320:7461   */\n      pop\n      pop\n      jump\t// out\n        /* \"#utility.yul\":7467:7811   */\n    tag_364:\n        /* \"#utility.yul\":7545:7548   */\n      0x00\n        /* \"#utility.yul\":7573:7612   */\n      tag_366\n        /* \"#utility.yul\":7606:7611   */\n      dup3\n        /* \"#utility.yul\":7573:7612   */\n      tag_367\n      jump\t// in\n    tag_366:\n        /* \"#utility.yul\":7628:7689   */\n      tag_368\n        /* \"#utility.yul\":7682:7688   */\n      dup2\n        /* \"#utility.yul\":7677:7680   */\n      dup6\n        /* \"#utility.yul\":7628:7689   */\n      tag_369\n      jump\t// in\n    tag_368:\n        /* \"#utility.yul\":7621:7689   */\n      swap4\n      pop\n        /* \"#utility.yul\":7698:7750   */\n      tag_370\n        /* \"#utility.yul\":7743:7749   */\n      dup2\n        /* \"#utility.yul\":7738:7741   */\n      dup6\n        /* \"#utility.yul\":7731:7735   */\n      0x20\n        /* \"#utility.yul\":7724:7729   */\n      dup7\n        /* \"#utility.yul\":7720:7736   */\n      add\n        /* \"#utility.yul\":7698:7750   */\n      tag_371\n      jump\t// in\n    tag_370:\n        /* \"#utility.yul\":7775:7804   */\n      tag_372\n        /* \"#utility.yul\":7797:7803   */\n      dup2\n        /* \"#utility.yul\":7775:7804   */\n      tag_373\n      jump\t// in\n    tag_372:\n        /* \"#utility.yul\":7770:7773   */\n      dup5\n        /* \"#utility.yul\":7766:7805   */\n      add\n        /* \"#utility.yul\":7759:7805   */\n      swap2\n      pop\n        /* \"#utility.yul\":7549:7811   */\n      pop\n        /* \"#utility.yul\":7467:7811   */\n      swap3\n      swap2\n      pop\n      pop\n      jump\t// out\n        /* \"#utility.yul\":7817:8194   */\n    tag_374:\n        /* \"#utility.yul\":7923:7926   */\n      0x00\n        /* \"#utility.yul\":7951:7990   */\n      tag_376\n        /* \"#utility.yul\":7984:7989   */\n      dup3\n        /* \"#utility.yul\":7951:7990   */\n      tag_367\n      jump\t// in\n    tag_376:\n        /* \"#utility.yul\":8006:8095   */\n      tag_377\n        /* \"#utility.yul\":8088:8094   */\n      dup2\n        /* \"#utility.yul\":8083:8086   */\n      dup6\n        /* \"#utility.yul\":8006:8095   */\n      tag_378\n      jump\t// in\n    tag_377:\n        /* \"#utility.yul\":7999:8095   */\n      swap4\n      pop\n        /* \"#utility.yul\":8104:8156   */\n      tag_379\n        /* \"#utility.yul\":8149:8155   */\n      dup2\n        /* \"#utility.yul\":8144:8147   */\n      dup6\n        /* \"#utility.yul\":8137:8141   */\n      0x20\n        /* \"#utility.yul\":8130:8135   */\n      dup7\n        /* \"#utility.yul\":8126:8142   */\n      add\n        /* \"#utility.yul\":8104:8156   */\n      tag_371\n      jump\t// in\n    tag_379:\n        /* \"#utility.yul\":8181:8187   */\n      dup1\n        /* \"#utility.yul\":8176:8179   */\n      dup5\n        /* \"#utility.yul\":8172:8188   */\n      add\n        /* \"#utility.yul\":8165:8188   */\n      swap2\n      pop\n        /* \"#utility.yul\":7927:8194   */\n      pop\n        /* \"#utility.yul\":7817:8194   */\n      swap3\n      swap2\n      pop\n      pop\n      jump\t// out\n        /* \"#utility.yul\":8200:8566   */\n    tag_380:\n        /* \"#utility.yul\":8342:8345   */\n      0x00\n        /* \"#utility.yul\":8363:8430   */\n      tag_382\n        /* \"#utility.yul\":8427:8429   */\n      0x1b\n        /* \"#utility.yul\":8422:8425   */\n      dup4\n        /* \"#utility.yul\":8363:8430   */\n      tag_383\n      jump\t// in\n    tag_382:\n        /* \"#utility.yul\":8356:8430   */\n      swap2\n      pop\n        /* \"#utility.yul\":8439:8532   */\n      tag_384\n        /* \"#utility.yul\":8528:8531   */\n      dup3\n        /* \"#utility.yul\":8439:8532   */\n      tag_385\n      jump\t// in\n    tag_384:\n        /* \"#utility.yul\":8557:8559   */\n      0x20\n        /* \"#utility.yul\":8552:8555   */\n      dup3\n        /* \"#utility.yul\":8548:8560   */\n      add\n        /* \"#utility.yul\":8541:8560   */\n      swap1\n      pop\n        /* \"#utility.yul\":8200:8566   */\n      swap2\n      swap1\n      pop\n      jump\t// out\n        /* \"#utility.yul\":8572:8938   */\n    tag_386:\n        /* \"#utility.yul\":8714:8717   */\n      0x00\n        /* \"#utility.yul\":8735:8802   */\n      tag_388\n        /* \"#utility.yul\":8799:8801   */\n      0x26\n        /* \"#utility.yul\":8794:8797   */\n      dup4\n        /* \"#utility.yul\":8735:8802   */\n      tag_383\n      jump\t// in\n    tag_388:\n        /* \"#utility.yul\":8728:8802   */\n      swap2\n      pop\n        /* \"#utility.yul\":8811:8904   */\n      tag_389\n        /* \"#utility.yul\":8900:8903   */\n      dup3\n        /* \"#utility.yul\":8811:8904   */\n      tag_390\n      jump\t// in\n    tag_389:\n        /* \"#utility.yul\":8929:8931   */\n      0x40\n        /* \"#utility.yul\":8924:8927   */\n      dup3\n        /* \"#utility.yul\":8920:8932   */\n      add\n        /* \"#utility.yul\":8913:8932   */\n      swap1\n      pop\n        /* \"#utility.yul\":8572:8938   */\n      swap2\n      swap1\n      pop\n      jump\t// out\n        /* \"#utility.yul\":8944:9310   */\n    tag_391:\n        /* \"#utility.yul\":9086:9089   */\n      0x00\n        /* \"#utility.yul\":9107:9174   */\n      tag_393\n        /* \"#utility.yul\":9171:9173   */\n      0x1f\n        /* \"#utility.yul\":9166:9169   */\n      dup4\n        /* \"#utility.yul\":9107:9174   */\n      tag_383\n      jump\t// in\n    tag_393:\n        /* \"#utility.yul\":9100:9174   */\n      swap2\n      pop\n        /* \"#utility.yul\":9183:9276   */\n      tag_394\n        /* \"#utility.yul\":9272:9275   */\n      dup3\n        /* \"#utility.yul\":9183:9276   */\n      tag_395\n      jump\t// in\n    tag_394:\n        /* \"#utility.yul\":9301:9303   */\n      0x20\n        /* \"#utility.yul\":9296:9299   */\n      dup3\n        /* \"#utility.yul\":9292:9304   */\n      add\n        /* \"#utility.yul\":9285:9304   */\n      swap1\n      pop\n        /* \"#utility.yul\":8944:9310   */\n      swap2\n      swap1\n      pop\n      jump\t// out\n        /* \"#utility.yul\":9316:9682   */\n    tag_396:\n        /* \"#utility.yul\":9458:9461   */\n      0x00\n        /* \"#utility.yul\":9479:9546   */\n      tag_398\n        /* \"#utility.yul\":9543:9545   */\n      0x2f\n        /* \"#utility.yul\":9538:9541   */\n      dup4\n        /* \"#utility.yul\":9479:9546   */\n      tag_383\n      jump\t// in\n    tag_398:\n        /* \"#utility.yul\":9472:9546   */\n      swap2\n      pop\n        /* \"#utility.yul\":9555:9648   */\n      tag_399\n        /* \"#utility.yul\":9644:9647   */\n      dup3\n        /* \"#utility.yul\":9555:9648   */\n      tag_400\n      jump\t// in\n    tag_399:\n        /* \"#utility.yul\":9673:9675   */\n      0x40\n        /* \"#utility.yul\":9668:9671   */\n      dup3\n        /* \"#utility.yul\":9664:9676   */\n      add\n        /* \"#utility.yul\":9657:9676   */\n      swap1\n      pop\n        /* \"#utility.yul\":9316:9682   */\n      swap2\n      swap1\n      pop\n      jump\t// out\n        /* \"#utility.yul\":9688:10054   */\n    tag_401:\n        /* \"#utility.yul\":9830:9833   */\n      0x00\n        /* \"#utility.yul\":9851:9918   */\n      tag_403\n        /* \"#utility.yul\":9915:9917   */\n      0x20\n        /* \"#utility.yul\":9910:9913   */\n      dup4\n        /* \"#utility.yul\":9851:9918   */\n      tag_383\n      jump\t// in\n    tag_403:\n        /* \"#utility.yul\":9844:9918   */\n      swap2\n      pop\n        /* \"#utility.yul\":9927:10020   */\n      tag_404\n        /* \"#utility.yul\":10016:10019   */\n      dup3\n        /* \"#utility.yul\":9927:10020   */\n      tag_405\n      jump\t// in\n    tag_404:\n        /* \"#utility.yul\":10045:10047   */\n      0x20\n        /* \"#utility.yul\":10040:10043   */\n      dup3\n        /* \"#utility.yul\":10036:10048   */\n      add\n        /* \"#utility.yul\":10029:10048   */\n      swap1\n      pop\n        /* \"#utility.yul\":9688:10054   */\n      swap2\n      swap1\n      pop\n      jump\t// out\n        /* \"#utility.yul\":10060:10426   */\n    tag_406:\n        /* \"#utility.yul\":10202:10205   */\n      0x00\n        /* \"#utility.yul\":10223:10290   */\n      tag_408\n        /* \"#utility.yul\":10287:10289   */\n      0x37\n        /* \"#utility.yul\":10282:10285   */\n      dup4\n        /* \"#utility.yul\":10223:10290   */\n      tag_383\n      jump\t// in\n    tag_408:\n        /* \"#utility.yul\":10216:10290   */\n      swap2\n      pop\n        /* \"#utility.yul\":10299:10392   */\n      tag_409\n        /* \"#utility.yul\":10388:10391   */\n      dup3\n        /* \"#utility.yul\":10299:10392   */\n      tag_410\n      jump\t// in\n    tag_409:\n        /* \"#utility.yul\":10417:10419   */\n      0x40\n        /* \"#utility.yul\":10412:10415   */\n      dup3\n        /* \"#utility.yul\":10408:10420   */\n      add\n        /* \"#utility.yul\":10401:10420   */\n      swap1\n      pop\n        /* \"#utility.yul\":10060:10426   */\n      swap2\n      swap1\n      pop\n      jump\t// out\n        /* \"#utility.yul\":10432:10798   */\n    tag_411:\n        /* \"#utility.yul\":10574:10577   */\n      0x00\n        /* \"#utility.yul\":10595:10662   */\n      tag_413\n        /* \"#utility.yul\":10659:10661   */\n      0x18\n        /* \"#utility.yul\":10654:10657   */\n      dup4\n        /* \"#utility.yul\":10595:10662   */\n      tag_383\n      jump\t// in\n    tag_413:\n        /* \"#utility.yul\":10588:10662   */\n      swap2\n      pop\n        /* \"#utility.yul\":10671:10764   */\n      tag_414\n        /* \"#utility.yul\":10760:10763   */\n      dup3\n        /* \"#utility.yul\":10671:10764   */\n      tag_415\n      jump\t// in\n    tag_414:\n        /* \"#utility.yul\":10789:10791   */\n      0x20\n        /* \"#utility.yul\":10784:10787   */\n      dup3\n        /* \"#utility.yul\":10780:10792   */\n      add\n        /* \"#utility.yul\":10773:10792   */\n      swap1\n      pop\n        /* \"#utility.yul\":10432:10798   */\n      swap2\n      swap1\n      pop\n      jump\t// out\n        /* \"#utility.yul\":10856:12230   */\n    tag_416:\n        /* \"#utility.yul\":10965:10968   */\n      0x00\n        /* \"#utility.yul\":11001:11005   */\n      0xc0\n        /* \"#utility.yul\":10996:10999   */\n      dup4\n        /* \"#utility.yul\":10992:11006   */\n      add\n        /* \"#utility.yul\":11089:11093   */\n      0x00\n        /* \"#utility.yul\":11082:11087   */\n      dup4\n        /* \"#utility.yul\":11078:11094   */\n      add\n        /* \"#utility.yul\":11072:11095   */\n      mload\n        /* \"#utility.yul\":11108:11181   */\n      tag_418\n        /* \"#utility.yul\":11175:11179   */\n      0x00\n        /* \"#utility.yul\":11170:11173   */\n      dup7\n        /* \"#utility.yul\":11166:11180   */\n      add\n        /* \"#utility.yul\":11152:11164   */\n      dup3\n        /* \"#utility.yul\":11108:11181   */\n      tag_360\n      jump\t// in\n    tag_418:\n        /* \"#utility.yul\":11016:11191   */\n      pop\n        /* \"#utility.yul\":11273:11277   */\n      0x20\n        /* \"#utility.yul\":11266:11271   */\n      dup4\n        /* \"#utility.yul\":11262:11278   */\n      add\n        /* \"#utility.yul\":11256:11279   */\n      mload\n        /* \"#utility.yul\":11326:11329   */\n      dup5\n        /* \"#utility.yul\":11320:11324   */\n      dup3\n        /* \"#utility.yul\":11316:11330   */\n      sub\n        /* \"#utility.yul\":11309:11313   */\n      0x20\n        /* \"#utility.yul\":11304:11307   */\n      dup7\n        /* \"#utility.yul\":11300:11314   */\n      add\n        /* \"#utility.yul\":11293:11331   */\n      mstore\n        /* \"#utility.yul\":11352:11425   */\n      tag_419\n        /* \"#utility.yul\":11420:11424   */\n      dup3\n        /* \"#utility.yul\":11406:11418   */\n      dup3\n        /* \"#utility.yul\":11352:11425   */\n      tag_364\n      jump\t// in\n    tag_419:\n        /* \"#utility.yul\":11344:11425   */\n      swap2\n      pop\n        /* \"#utility.yul\":11201:11436   */\n      pop\n        /* \"#utility.yul\":11518:11522   */\n      0x40\n        /* \"#utility.yul\":11511:11516   */\n      dup4\n        /* \"#utility.yul\":11507:11523   */\n      add\n        /* \"#utility.yul\":11501:11524   */\n      mload\n        /* \"#utility.yul\":11571:11574   */\n      dup5\n        /* \"#utility.yul\":11565:11569   */\n      dup3\n        /* \"#utility.yul\":11561:11575   */\n      sub\n        /* \"#utility.yul\":11554:11558   */\n      0x40\n        /* \"#utility.yul\":11549:11552   */\n      dup7\n        /* \"#utility.yul\":11545:11559   */\n      add\n        /* \"#utility.yul\":11538:11576   */\n      mstore\n        /* \"#utility.yul\":11597:11670   */\n      tag_420\n        /* \"#utility.yul\":11665:11669   */\n      dup3\n        /* \"#utility.yul\":11651:11663   */\n      dup3\n        /* \"#utility.yul\":11597:11670   */\n      tag_364\n      jump\t// in\n    tag_420:\n        /* \"#utility.yul\":11589:11670   */\n      swap2\n      pop\n        /* \"#utility.yul\":11446:11681   */\n      pop\n        /* \"#utility.yul\":11769:11773   */\n      0x60\n        /* \"#utility.yul\":11762:11767   */\n      dup4\n        /* \"#utility.yul\":11758:11774   */\n      add\n        /* \"#utility.yul\":11752:11775   */\n      mload\n        /* \"#utility.yul\":11788:11845   */\n      tag_421\n        /* \"#utility.yul\":11839:11843   */\n      0x60\n        /* \"#utility.yul\":11834:11837   */\n      dup7\n        /* \"#utility.yul\":11830:11844   */\n      add\n        /* \"#utility.yul\":11816:11828   */\n      dup3\n        /* \"#utility.yul\":11788:11845   */\n      tag_353\n      jump\t// in\n    tag_421:\n        /* \"#utility.yul\":11691:11855   */\n      pop\n        /* \"#utility.yul\":11939:11943   */\n      0x80\n        /* \"#utility.yul\":11932:11937   */\n      dup4\n        /* \"#utility.yul\":11928:11944   */\n      add\n        /* \"#utility.yul\":11922:11945   */\n      mload\n        /* \"#utility.yul\":11958:12015   */\n      tag_422\n        /* \"#utility.yul\":12009:12013   */\n      0x80\n        /* \"#utility.yul\":12004:12007   */\n      dup7\n        /* \"#utility.yul\":12000:12014   */\n      add\n        /* \"#utility.yul\":11986:11998   */\n      dup3\n        /* \"#utility.yul\":11958:12015   */\n      tag_353\n      jump\t// in\n    tag_422:\n        /* \"#utility.yul\":11865:12025   */\n      pop\n        /* \"#utility.yul\":12111:12115   */\n      0xa0\n        /* \"#utility.yul\":12104:12109   */\n      dup4\n        /* \"#utility.yul\":12100:12116   */\n      add\n        /* \"#utility.yul\":12094:12117   */\n      mload\n        /* \"#utility.yul\":12130:12193   */\n      tag_423\n        /* \"#utility.yul\":12187:12191   */\n      0xa0\n        /* \"#utility.yul\":12182:12185   */\n      dup7\n        /* \"#utility.yul\":12178:12192   */\n      add\n        /* \"#utility.yul\":12164:12176   */\n      dup3\n        /* \"#utility.yul\":12130:12193   */\n      tag_346\n      jump\t// in\n    tag_423:\n        /* \"#utility.yul\":12035:12203   */\n      pop\n        /* \"#utility.yul\":12220:12224   */\n      dup1\n        /* \"#utility.yul\":12213:12224   */\n      swap2\n      pop\n        /* \"#utility.yul\":10970:12230   */\n      pop\n        /* \"#utility.yul\":10856:12230   */\n      swap3\n      swap2\n      pop\n      pop\n      jump\t// out\n        /* \"#utility.yul\":12236:12351   */\n    tag_424:\n        /* \"#utility.yul\":12321:12344   */\n      tag_426\n        /* \"#utility.yul\":12338:12343   */\n      dup2\n        /* \"#utility.yul\":12321:12344   */\n      tag_427\n      jump\t// in\n    tag_426:\n        /* \"#utility.yul\":12316:12319   */\n      dup3\n        /* \"#utility.yul\":12309:12345   */\n      mstore\n        /* \"#utility.yul\":12236:12351   */\n      pop\n      pop\n      jump\t// out\n        /* \"#utility.yul\":12357:12475   */\n    tag_428:\n        /* \"#utility.yul\":12444:12468   */\n      tag_430\n        /* \"#utility.yul\":12462:12467   */\n      dup2\n        /* \"#utility.yul\":12444:12468   */\n      tag_431\n      jump\t// in\n    tag_430:\n        /* \"#utility.yul\":12439:12442   */\n      dup3\n        /* \"#utility.yul\":12432:12469   */\n      mstore\n        /* \"#utility.yul\":12357:12475   */\n      pop\n      pop\n      jump\t// out\n        /* \"#utility.yul\":12481:12756   */\n    tag_230:\n        /* \"#utility.yul\":12613:12616   */\n      0x00\n        /* \"#utility.yul\":12635:12730   */\n      tag_433\n        /* \"#utility.yul\":12726:12729   */\n      dup3\n        /* \"#utility.yul\":12717:12723   */\n      dup5\n        /* \"#utility.yul\":12635:12730   */\n      tag_374\n      jump\t// in\n    tag_433:\n        /* \"#utility.yul\":12628:12730   */\n      swap2\n      pop\n        /* \"#utility.yul\":12747:12750   */\n      dup2\n        /* \"#utility.yul\":12740:12750   */\n      swap1\n      pop\n        /* \"#utility.yul\":12481:12756   */\n      swap3\n      swap2\n      pop\n      pop\n      jump\t// out\n        /* \"#utility.yul\":12762:12984   */\n    tag_36:\n        /* \"#utility.yul\":12855:12859   */\n      0x00\n        /* \"#utility.yul\":12893:12895   */\n      0x20\n        /* \"#utility.yul\":12882:12891   */\n      dup3\n        /* \"#utility.yul\":12878:12896   */\n      add\n        /* \"#utility.yul\":12870:12896   */\n      swap1\n      pop\n        /* \"#utility.yul\":12906:12977   */\n      tag_435\n        /* \"#utility.yul\":12974:12975   */\n      0x00\n        /* \"#utility.yul\":12963:12972   */\n      dup4\n        /* \"#utility.yul\":12959:12976   */\n      add\n        /* \"#utility.yul\":12950:12956   */\n      dup5\n        /* \"#utility.yul\":12906:12977   */\n      tag_350\n      jump\t// in\n    tag_435:\n        /* \"#utility.yul\":12762:12984   */\n      swap3\n      swap2\n      pop\n      pop\n      jump\t// out\n        /* \"#utility.yul\":12990:13200   */\n    tag_48:\n        /* \"#utility.yul\":13077:13081   */\n      0x00\n        /* \"#utility.yul\":13115:13117   */\n      0x20\n        /* \"#utility.yul\":13104:13113   */\n      dup3\n        /* \"#utility.yul\":13100:13118   */\n      add\n        /* \"#utility.yul\":13092:13118   */\n      swap1\n      pop\n        /* \"#utility.yul\":13128:13193   */\n      tag_437\n        /* \"#utility.yul\":13190:13191   */\n      0x00\n        /* \"#utility.yul\":13179:13188   */\n      dup4\n        /* \"#utility.yul\":13175:13192   */\n      add\n        /* \"#utility.yul\":13166:13172   */\n      dup5\n        /* \"#utility.yul\":13128:13193   */\n      tag_357\n      jump\t// in\n    tag_437:\n        /* \"#utility.yul\":12990:13200   */\n      swap3\n      swap2\n      pop\n      pop\n      jump\t// out\n        /* \"#utility.yul\":13206:13625   */\n    tag_67:\n        /* \"#utility.yul\":13372:13376   */\n      0x00\n        /* \"#utility.yul\":13410:13412   */\n      0x20\n        /* \"#utility.yul\":13399:13408   */\n      dup3\n        /* \"#utility.yul\":13395:13413   */\n      add\n        /* \"#utility.yul\":13387:13413   */\n      swap1\n      pop\n        /* \"#utility.yul\":13459:13468   */\n      dup2\n        /* \"#utility.yul\":13453:13457   */\n      dup2\n        /* \"#utility.yul\":13449:13469   */\n      sub\n        /* \"#utility.yul\":13445:13446   */\n      0x00\n        /* \"#utility.yul\":13434:13443   */\n      dup4\n        /* \"#utility.yul\":13430:13447   */\n      add\n        /* \"#utility.yul\":13423:13470   */\n      mstore\n        /* \"#utility.yul\":13487:13618   */\n      tag_439\n        /* \"#utility.yul\":13613:13617   */\n      dup2\n        /* \"#utility.yul\":13487:13618   */\n      tag_380\n      jump\t// in\n    tag_439:\n        /* \"#utility.yul\":13479:13618   */\n      swap1\n      pop\n        /* \"#utility.yul\":13206:13625   */\n      swap2\n      swap1\n      pop\n      jump\t// out\n        /* \"#utility.yul\":13631:14050   */\n    tag_200:\n        /* \"#utility.yul\":13797:13801   */\n      0x00\n        /* \"#utility.yul\":13835:13837   */\n      0x20\n        /* \"#utility.yul\":13824:13833   */\n      dup3\n        /* \"#utility.yul\":13820:13838   */\n      add\n        /* \"#utility.yul\":13812:13838   */\n      swap1\n      pop\n        /* \"#utility.yul\":13884:13893   */\n      dup2\n        /* \"#utility.yul\":13878:13882   */\n      dup2\n        /* \"#utility.yul\":13874:13894   */\n      sub\n        /* \"#utility.yul\":13870:13871   */\n      0x00\n        /* \"#utility.yul\":13859:13868   */\n      dup4\n        /* \"#utility.yul\":13855:13872   */\n      add\n        /* \"#utility.yul\":13848:13895   */\n      mstore\n        /* \"#utility.yul\":13912:14043   */\n      tag_441\n        /* \"#utility.yul\":14038:14042   */\n      dup2\n        /* \"#utility.yul\":13912:14043   */\n      tag_386\n      jump\t// in\n    tag_441:\n        /* \"#utility.yul\":13904:14043   */\n      swap1\n      pop\n        /* \"#utility.yul\":13631:14050   */\n      swap2\n      swap1\n      pop\n      jump\t// out\n        /* \"#utility.yul\":14056:14475   */\n    tag_110:\n        /* \"#utility.yul\":14222:14226   */\n      0x00\n        /* \"#utility.yul\":14260:14262   */\n      0x20\n        /* \"#utility.yul\":14249:14258   */\n      dup3\n        /* \"#utility.yul\":14245:14263   */\n      add\n        /* \"#utility.yul\":14237:14263   */\n      swap1\n      pop\n        /* \"#utility.yul\":14309:14318   */\n      dup2\n        /* \"#utility.yul\":14303:14307   */\n      dup2\n        /* \"#utility.yul\":14299:14319   */\n      sub\n        /* \"#utility.yul\":14295:14296   */\n      0x00\n        /* \"#utility.yul\":14284:14293   */\n      dup4\n        /* \"#utility.yul\":14280:14297   */\n      add\n        /* \"#utility.yul\":14273:14320   */\n      mstore\n        /* \"#utility.yul\":14337:14468   */\n      tag_443\n        /* \"#utility.yul\":14463:14467   */\n      dup2\n        /* \"#utility.yul\":14337:14468   */\n      tag_391\n      jump\t// in\n    tag_443:\n        /* \"#utility.yul\":14329:14468   */\n      swap1\n      pop\n        /* \"#utility.yul\":14056:14475   */\n      swap2\n      swap1\n      pop\n      jump\t// out\n        /* \"#utility.yul\":14481:14900   */\n    tag_99:\n        /* \"#utility.yul\":14647:14651   */\n      0x00\n        /* \"#utility.yul\":14685:14687   */\n      0x20\n        /* \"#utility.yul\":14674:14683   */\n      dup3\n        /* \"#utility.yul\":14670:14688   */\n      add\n        /* \"#utility.yul\":14662:14688   */\n      swap1\n      pop\n        /* \"#utility.yul\":14734:14743   */\n      dup2\n        /* \"#utility.yul\":14728:14732   */\n      dup2\n        /* \"#utility.yul\":14724:14744   */\n      sub\n        /* \"#utility.yul\":14720:14721   */\n      0x00\n        /* \"#utility.yul\":14709:14718   */\n      dup4\n        /* \"#utility.yul\":14705:14722   */\n      add\n        /* \"#utility.yul\":14698:14745   */\n      mstore\n        /* \"#utility.yul\":14762:14893   */\n      tag_445\n        /* \"#utility.yul\":14888:14892   */\n      dup2\n        /* \"#utility.yul\":14762:14893   */\n      tag_396\n      jump\t// in\n    tag_445:\n        /* \"#utility.yul\":14754:14893   */\n      swap1\n      pop\n        /* \"#utility.yul\":14481:14900   */\n      swap2\n      swap1\n      pop\n      jump\t// out\n        /* \"#utility.yul\":14906:15325   */\n    tag_90:\n        /* \"#utility.yul\":15072:15076   */\n      0x00\n        /* \"#utility.yul\":15110:15112   */\n      0x20\n        /* \"#utility.yul\":15099:15108   */\n      dup3\n        /* \"#utility.yul\":15095:15113   */\n      add\n        /* \"#utility.yul\":15087:15113   */\n      swap1\n      pop\n        /* \"#utility.yul\":15159:15168   */\n      dup2\n        /* \"#utility.yul\":15153:15157   */\n      dup2\n        /* \"#utility.yul\":15149:15169   */\n      sub\n        /* \"#utility.yul\":15145:15146   */\n      0x00\n        /* \"#utility.yul\":15134:15143   */\n      dup4\n        /* \"#utility.yul\":15130:15147   */\n      add\n        /* \"#utility.yul\":15123:15170   */\n      mstore\n        /* \"#utility.yul\":15187:15318   */\n      tag_447\n        /* \"#utility.yul\":15313:15317   */\n      dup2\n        /* \"#utility.yul\":15187:15318   */\n      tag_401\n      jump\t// in\n    tag_447:\n        /* \"#utility.yul\":15179:15318   */\n      swap1\n      pop\n        /* \"#utility.yul\":14906:15325   */\n      swap2\n      swap1\n      pop\n      jump\t// out\n        /* \"#utility.yul\":15331:15750   */\n    tag_157:\n        /* \"#utility.yul\":15497:15501   */\n      0x00\n        /* \"#utility.yul\":15535:15537   */\n      0x20\n        /* \"#utility.yul\":15524:15533   */\n      dup3\n        /* \"#utility.yul\":15520:15538   */\n      add\n        /* \"#utility.yul\":15512:15538   */\n      swap1\n      pop\n        /* \"#utility.yul\":15584:15593   */\n      dup2\n        /* \"#utility.yul\":15578:15582   */\n      dup2\n        /* \"#utility.yul\":15574:15594   */\n      sub\n        /* \"#utility.yul\":15570:15571   */\n      0x00\n        /* \"#utility.yul\":15559:15568   */\n      dup4\n        /* \"#utility.yul\":15555:15572   */\n      add\n        /* \"#utility.yul\":15548:15595   */\n      mstore\n        /* \"#utility.yul\":15612:15743   */\n      tag_449\n        /* \"#utility.yul\":15738:15742   */\n      dup2\n        /* \"#utility.yul\":15612:15743   */\n      tag_406\n      jump\t// in\n    tag_449:\n        /* \"#utility.yul\":15604:15743   */\n      swap1\n      pop\n        /* \"#utility.yul\":15331:15750   */\n      swap2\n      swap1\n      pop\n      jump\t// out\n        /* \"#utility.yul\":15756:16175   */\n    tag_154:\n        /* \"#utility.yul\":15922:15926   */\n      0x00\n        /* \"#utility.yul\":15960:15962   */\n      0x20\n        /* \"#utility.yul\":15949:15958   */\n      dup3\n        /* \"#utility.yul\":15945:15963   */\n      add\n        /* \"#utility.yul\":15937:15963   */\n      swap1\n      pop\n        /* \"#utility.yul\":16009:16018   */\n      dup2\n        /* \"#utility.yul\":16003:16007   */\n      dup2\n        /* \"#utility.yul\":15999:16019   */\n      sub\n        /* \"#utility.yul\":15995:15996   */\n      0x00\n        /* \"#utility.yul\":15984:15993   */\n      dup4\n        /* \"#utility.yul\":15980:15997   */\n      add\n        /* \"#utility.yul\":15973:16020   */\n      mstore\n        /* \"#utility.yul\":16037:16168   */\n      tag_451\n        /* \"#utility.yul\":16163:16167   */\n      dup2\n        /* \"#utility.yul\":16037:16168   */\n      tag_411\n      jump\t// in\n    tag_451:\n        /* \"#utility.yul\":16029:16168   */\n      swap1\n      pop\n        /* \"#utility.yul\":15756:16175   */\n      swap2\n      swap1\n      pop\n      jump\t// out\n        /* \"#utility.yul\":16181:16534   */\n    tag_20:\n        /* \"#utility.yul\":16314:16318   */\n      0x00\n        /* \"#utility.yul\":16352:16354   */\n      0x20\n        /* \"#utility.yul\":16341:16350   */\n      dup3\n        /* \"#utility.yul\":16337:16355   */\n      add\n        /* \"#utility.yul\":16329:16355   */\n      swap1\n      pop\n        /* \"#utility.yul\":16401:16410   */\n      dup2\n        /* \"#utility.yul\":16395:16399   */\n      dup2\n        /* \"#utility.yul\":16391:16411   */\n      sub\n        /* \"#utility.yul\":16387:16388   */\n      0x00\n        /* \"#utility.yul\":16376:16385   */\n      dup4\n        /* \"#utility.yul\":16372:16389   */\n      add\n        /* \"#utility.yul\":16365:16412   */\n      mstore\n        /* \"#utility.yul\":16429:16527   */\n      tag_453\n        /* \"#utility.yul\":16522:16526   */\n      dup2\n        /* \"#utility.yul\":16513:16519   */\n      dup5\n        /* \"#utility.yul\":16429:16527   */\n      tag_416\n      jump\t// in\n    tag_453:\n        /* \"#utility.yul\":16421:16527   */\n      swap1\n      pop\n        /* \"#utility.yul\":16181:16534   */\n      swap3\n      swap2\n      pop\n      pop\n      jump\t// out\n        /* \"#utility.yul\":16540:16758   */\n    tag_43:\n        /* \"#utility.yul\":16631:16635   */\n      0x00\n        /* \"#utility.yul\":16669:16671   */\n      0x20\n        /* \"#utility.yul\":16658:16667   */\n      dup3\n        /* \"#utility.yul\":16654:16672   */\n      add\n        /* \"#utility.yul\":16646:16672   */\n      swap1\n      pop\n        /* \"#utility.yul\":16682:16751   */\n      tag_455\n        /* \"#utility.yul\":16748:16749   */\n      0x00\n        /* \"#utility.yul\":16737:16746   */\n      dup4\n        /* \"#utility.yul\":16733:16750   */\n      add\n        /* \"#utility.yul\":16724:16730   */\n      dup5\n        /* \"#utility.yul\":16682:16751   */\n      tag_424\n      jump\t// in\n    tag_455:\n        /* \"#utility.yul\":16540:16758   */\n      swap3\n      swap2\n      pop\n      pop\n      jump\t// out\n        /* \"#utility.yul\":16764:16986   */\n    tag_30:\n        /* \"#utility.yul\":16857:16861   */\n      0x00\n        /* \"#utility.yul\":16895:16897   */\n      0x20\n        /* \"#utility.yul\":16884:16893   */\n      dup3\n        /* \"#utility.yul\":16880:16898   */\n      add\n        /* \"#utility.yul\":16872:16898   */\n      swap1\n      pop\n        /* \"#utility.yul\":16908:16979   */\n      tag_457\n        /* \"#utility.yul\":16976:16977   */\n      0x00\n        /* \"#utility.yul\":16965:16974   */\n      dup4\n        /* \"#utility.yul\":16961:16978   */\n      add\n        /* \"#utility.yul\":16952:16958   */\n      dup5\n        /* \"#utility.yul\":16908:16979   */\n      tag_428\n      jump\t// in\n    tag_457:\n        /* \"#utility.yul\":16764:16986   */\n      swap3\n      swap2\n      pop\n      pop\n      jump\t// out\n        /* \"#utility.yul\":16992:17121   */\n    tag_250:\n        /* \"#utility.yul\":17026:17032   */\n      0x00\n        /* \"#utility.yul\":17053:17073   */\n      tag_459\n      tag_460\n      jump\t// in\n    tag_459:\n        /* \"#utility.yul\":17043:17073   */\n      swap1\n      pop\n        /* \"#utility.yul\":17082:17115   */\n      tag_461\n        /* \"#utility.yul\":17110:17114   */\n      dup3\n        /* \"#utility.yul\":17102:17108   */\n      dup3\n        /* \"#utility.yul\":17082:17115   */\n      tag_462\n      jump\t// in\n    tag_461:\n        /* \"#utility.yul\":16992:17121   */\n      swap2\n      swap1\n      pop\n      jump\t// out\n        /* \"#utility.yul\":17127:17202   */\n    tag_460:\n        /* \"#utility.yul\":17160:17166   */\n      0x00\n        /* \"#utility.yul\":17193:17195   */\n      0x40\n        /* \"#utility.yul\":17187:17196   */\n      mload\n        /* \"#utility.yul\":17177:17196   */\n      swap1\n      pop\n        /* \"#utility.yul\":17127:17202   */\n      swap1\n      jump\t// out\n        /* \"#utility.yul\":17208:17516   */\n    tag_249:\n        /* \"#utility.yul\":17282:17286   */\n      0x00\n        /* \"#utility.yul\":17372:17390   */\n      0xffffffffffffffff\n        /* \"#utility.yul\":17364:17370   */\n      dup3\n        /* \"#utility.yul\":17361:17391   */\n      gt\n        /* \"#utility.yul\":17358:17414   */\n      iszero\n      tag_465\n      jumpi\n        /* \"#utility.yul\":17394:17412   */\n      tag_466\n      tag_467\n      jump\t// in\n    tag_466:\n        /* \"#utility.yul\":17358:17414   */\n    tag_465:\n        /* \"#utility.yul\":17444:17448   */\n      0x20\n        /* \"#utility.yul\":17436:17442   */\n      dup3\n        /* \"#utility.yul\":17432:17449   */\n      mul\n        /* \"#utility.yul\":17424:17449   */\n      swap1\n      pop\n        /* \"#utility.yul\":17504:17508   */\n      0x20\n        /* \"#utility.yul\":17498:17502   */\n      dup2\n        /* \"#utility.yul\":17494:17509   */\n      add\n        /* \"#utility.yul\":17486:17509   */\n      swap1\n      pop\n        /* \"#utility.yul\":17208:17516   */\n      swap2\n      swap1\n      pop\n      jump\t// out\n        /* \"#utility.yul\":17522:17833   */\n    tag_263:\n        /* \"#utility.yul\":17599:17603   */\n      0x00\n        /* \"#utility.yul\":17689:17707   */\n      0xffffffffffffffff\n        /* \"#utility.yul\":17681:17687   */\n      dup3\n        /* \"#utility.yul\":17678:17708   */\n      gt\n        /* \"#utility.yul\":17675:17731   */\n      iszero\n      tag_469\n      jumpi\n        /* \"#utility.yul\":17711:17729   */\n      tag_470\n      tag_467\n      jump\t// in\n    tag_470:\n        /* \"#utility.yul\":17675:17731   */\n    tag_469:\n        /* \"#utility.yul\":17761:17765   */\n      0x20\n        /* \"#utility.yul\":17753:17759   */\n      dup3\n        /* \"#utility.yul\":17749:17766   */\n      mul\n        /* \"#utility.yul\":17741:17766   */\n      swap1\n      pop\n        /* \"#utility.yul\":17821:17825   */\n      0x20\n        /* \"#utility.yul\":17815:17819   */\n      dup2\n        /* \"#utility.yul\":17811:17826   */\n      add\n        /* \"#utility.yul\":17803:17826   */\n      swap1\n      pop\n        /* \"#utility.yul\":17522:17833   */\n      swap2\n      swap1\n      pop\n      jump\t// out\n        /* \"#utility.yul\":17839:18147   */\n    tag_275:\n        /* \"#utility.yul\":17901:17905   */\n      0x00\n        /* \"#utility.yul\":17991:18009   */\n      0xffffffffffffffff\n        /* \"#utility.yul\":17983:17989   */\n      dup3\n        /* \"#utility.yul\":17980:18010   */\n      gt\n        /* \"#utility.yul\":17977:18033   */\n      iszero\n      tag_472\n      jumpi\n        /* \"#utility.yul\":18013:18031   */\n      tag_473\n      tag_467\n      jump\t// in\n    tag_473:\n        /* \"#utility.yul\":17977:18033   */\n    tag_472:\n        /* \"#utility.yul\":18051:18080   */\n      tag_474\n        /* \"#utility.yul\":18073:18079   */\n      dup3\n        /* \"#utility.yul\":18051:18080   */\n      tag_373\n      jump\t// in\n    tag_474:\n        /* \"#utility.yul\":18043:18080   */\n      swap1\n      pop\n        /* \"#utility.yul\":18135:18139   */\n      0x20\n        /* \"#utility.yul\":18129:18133   */\n      dup2\n        /* \"#utility.yul\":18125:18140   */\n      add\n        /* \"#utility.yul\":18117:18140   */\n      swap1\n      pop\n        /* \"#utility.yul\":17839:18147   */\n      swap2\n      swap1\n      pop\n      jump\t// out\n        /* \"#utility.yul\":18153:18252   */\n    tag_367:\n        /* \"#utility.yul\":18205:18211   */\n      0x00\n        /* \"#utility.yul\":18239:18244   */\n      dup2\n        /* \"#utility.yul\":18233:18245   */\n      mload\n        /* \"#utility.yul\":18223:18245   */\n      swap1\n      pop\n        /* \"#utility.yul\":18153:18252   */\n      swap2\n      swap1\n      pop\n      jump\t// out\n        /* \"#utility.yul\":18258:18417   */\n    tag_369:\n        /* \"#utility.yul\":18332:18343   */\n      0x00\n        /* \"#utility.yul\":18366:18372   */\n      dup3\n        /* \"#utility.yul\":18361:18364   */\n      dup3\n        /* \"#utility.yul\":18354:18373   */\n      mstore\n        /* \"#utility.yul\":18406:18410   */\n      0x20\n        /* \"#utility.yul\":18401:18404   */\n      dup3\n        /* \"#utility.yul\":18397:18411   */\n      add\n        /* \"#utility.yul\":18382:18411   */\n      swap1\n      pop\n        /* \"#utility.yul\":18258:18417   */\n      swap3\n      swap2\n      pop\n      pop\n      jump\t// out\n        /* \"#utility.yul\":18423:18592   */\n    tag_383:\n        /* \"#utility.yul\":18507:18518   */\n      0x00\n        /* \"#utility.yul\":18541:18547   */\n      dup3\n        /* \"#utility.yul\":18536:18539   */\n      dup3\n        /* \"#utility.yul\":18529:18548   */\n      mstore\n        /* \"#utility.yul\":18581:18585   */\n      0x20\n        /* \"#utility.yul\":18576:18579   */\n      dup3\n        /* \"#utility.yul\":18572:18586   */\n      add\n        /* \"#utility.yul\":18557:18586   */\n      swap1\n      pop\n        /* \"#utility.yul\":18423:18592   */\n      swap3\n      swap2\n      pop\n      pop\n      jump\t// out\n        /* \"#utility.yul\":18598:18746   */\n    tag_378:\n        /* \"#utility.yul\":18700:18711   */\n      0x00\n        /* \"#utility.yul\":18737:18740   */\n      dup2\n        /* \"#utility.yul\":18722:18740   */\n      swap1\n      pop\n        /* \"#utility.yul\":18598:18746   */\n      swap3\n      swap2\n      pop\n      pop\n      jump\t// out\n        /* \"#utility.yul\":18752:19057   */\n    tag_117:\n        /* \"#utility.yul\":18792:18795   */\n      0x00\n        /* \"#utility.yul\":18811:18831   */\n      tag_480\n        /* \"#utility.yul\":18829:18830   */\n      dup3\n        /* \"#utility.yul\":18811:18831   */\n      tag_431\n      jump\t// in\n    tag_480:\n        /* \"#utility.yul\":18806:18831   */\n      swap2\n      pop\n        /* \"#utility.yul\":18845:18865   */\n      tag_481\n        /* \"#utility.yul\":18863:18864   */\n      dup4\n        /* \"#utility.yul\":18845:18865   */\n      tag_431\n      jump\t// in\n    tag_481:\n        /* \"#utility.yul\":18840:18865   */\n      swap3\n      pop\n        /* \"#utility.yul\":18999:19000   */\n      dup3\n        /* \"#utility.yul\":18931:18997   */\n      0xffffffffffffffffffffffffffffffffffffffffffffffffffffffffffffffff\n        /* \"#utility.yul\":18927:19001   */\n      sub\n        /* \"#utility.yul\":18924:18925   */\n      dup3\n        /* \"#utility.yul\":18921:19002   */\n      gt\n        /* \"#utility.yul\":18918:19025   */\n      iszero\n      tag_482\n      jumpi\n        /* \"#utility.yul\":19005:19023   */\n      tag_483\n      tag_484\n      jump\t// in\n    tag_483:\n        /* \"#utility.yul\":18918:19025   */\n    tag_482:\n        /* \"#utility.yul\":19049:19050   */\n      dup3\n        /* \"#utility.yul\":19046:19047   */\n      dup3\n        /* \"#utility.yul\":19042:19051   */\n      add\n        /* \"#utility.yul\":19035:19051   */\n      swap1\n      pop\n        /* \"#utility.yul\":18752:19057   */\n      swap3\n      swap2\n      pop\n      pop\n      jump\t// out\n        /* \"#utility.yul\":19063:19254   */\n    tag_119:\n        /* \"#utility.yul\":19103:19107   */\n      0x00\n        /* \"#utility.yul\":19123:19143   */\n      tag_486\n        /* \"#utility.yul\":19141:19142   */\n      dup3\n        /* \"#utility.yul\":19123:19143   */\n      tag_431\n      jump\t// in\n    tag_486:\n        /* \"#utility.yul\":19118:19143   */\n      swap2\n      pop\n        /* \"#utility.yul\":19157:19177   */\n      tag_487\n        /* \"#utility.yul\":19175:19176   */\n      dup4\n        /* \"#utility.yul\":19157:19177   */\n      tag_431\n      jump\t// in\n    tag_487:\n        /* \"#utility.yul\":19152:19177   */\n      swap3\n      pop\n        /* \"#utility.yul\":19196:19197   */\n      dup3\n        /* \"#utility.yul\":19193:19194   */\n      dup3\n        /* \"#utility.yul\":19190:19198   */\n      lt\n        /* \"#utility.yul\":19187:19221   */\n      iszero\n      tag_488\n      jumpi\n        /* \"#utility.yul\":19201:19219   */\n      tag_489\n      tag_484\n      jump\t// in\n    tag_489:\n        /* \"#utility.yul\":19187:19221   */\n    tag_488:\n        /* \"#utility.yul\":19246:19247   */\n      dup3\n        /* \"#utility.yul\":19243:19244   */\n      dup3\n        /* \"#utility.yul\":19239:19248   */\n      sub\n        /* \"#utility.yul\":19231:19248   */\n      swap1\n      pop\n        /* \"#utility.yul\":19063:19254   */\n      swap3\n      swap2\n      pop\n      pop\n      jump\t// out\n        /* \"#utility.yul\":19260:19356   */\n    tag_349:\n        /* \"#utility.yul\":19297:19304   */\n      0x00\n        /* \"#utility.yul\":19326:19350   */\n      tag_491\n        /* \"#utility.yul\":19344:19349   */\n      dup3\n        /* \"#utility.yul\":19326:19350   */\n      tag_492\n      jump\t// in\n    tag_491:\n        /* \"#utility.yul\":19315:19350   */\n      swap1\n      pop\n        /* \"#utility.yul\":19260:19356   */\n      swap2\n      swap1\n      pop\n      jump\t// out\n        /* \"#utility.yul\":19362:19452   */\n    tag_356:\n        /* \"#utility.yul\":19396:19403   */\n      0x00\n        /* \"#utility.yul\":19439:19444   */\n      dup2\n        /* \"#utility.yul\":19432:19445   */\n      iszero\n        /* \"#utility.yul\":19425:19446   */\n      iszero\n        /* \"#utility.yul\":19414:19446   */\n      swap1\n      pop\n        /* \"#utility.yul\":19362:19452   */\n      swap2\n      swap1\n      pop\n      jump\t// out\n        /* \"#utility.yul\":19458:19593   */\n    tag_494:\n        /* \"#utility.yul\":19507:19514   */\n      0x00\n        /* \"#utility.yul\":19536:19541   */\n      dup2\n        /* \"#utility.yul\":19525:19541   */\n      swap1\n      pop\n        /* \"#utility.yul\":19542:19587   */\n      tag_496\n        /* \"#utility.yul\":19581:19586   */\n      dup3\n        /* \"#utility.yul\":19542:19587   */\n      tag_497\n      jump\t// in\n    tag_496:\n        /* \"#utility.yul\":19458:19593   */\n      swap2\n      swap1\n      pop\n      jump\t// out\n        /* \"#utility.yul\":19599:19688   */\n    tag_427:\n        /* \"#utility.yul\":19635:19642   */\n      0x00\n        /* \"#utility.yul\":19675:19681   */\n      0xffff\n        /* \"#utility.yul\":19668:19673   */\n      dup3\n        /* \"#utility.yul\":19664:19682   */\n      and\n        /* \"#utility.yul\":19653:19682   */\n      swap1\n      pop\n        /* \"#utility.yul\":19599:19688   */\n      swap2\n      swap1\n      pop\n      jump\t// out\n        /* \"#utility.yul\":19694:19820   */\n    tag_492:\n        /* \"#utility.yul\":19731:19738   */\n      0x00\n        /* \"#utility.yul\":19771:19813   */\n      0xffffffffffffffffffffffffffffffffffffffff\n        /* \"#utility.yul\":19764:19769   */\n      dup3\n        /* \"#utility.yul\":19760:19814   */\n      and\n        /* \"#utility.yul\":19749:19814   */\n      swap1\n      pop\n        /* \"#utility.yul\":19694:19820   */\n      swap2\n      swap1\n      pop\n      jump\t// out\n        /* \"#utility.yul\":19826:19903   */\n    tag_431:\n        /* \"#utility.yul\":19863:19870   */\n      0x00\n        /* \"#utility.yul\":19892:19897   */\n      dup2\n        /* \"#utility.yul\":19881:19897   */\n      swap1\n      pop\n        /* \"#utility.yul\":19826:19903   */\n      swap2\n      swap1\n      pop\n      jump\t// out\n        /* \"#utility.yul\":19909:19995   */\n    tag_501:\n        /* \"#utility.yul\":19944:19951   */\n      0x00\n        /* \"#utility.yul\":19984:19988   */\n      0xff\n        /* \"#utility.yul\":19977:19982   */\n      dup3\n        /* \"#utility.yul\":19973:19989   */\n      and\n        /* \"#utility.yul\":19962:19989   */\n      swap1\n      pop\n        /* \"#utility.yul\":19909:19995   */\n      swap2\n      swap1\n      pop\n      jump\t// out\n        /* \"#utility.yul\":20001:20136   */\n    tag_363:\n        /* \"#utility.yul\":20061:20070   */\n      0x00\n        /* \"#utility.yul\":20094:20130   */\n      tag_504\n        /* \"#utility.yul\":20124:20129   */\n      dup3\n        /* \"#utility.yul\":20094:20130   */\n      tag_494\n      jump\t// in\n    tag_504:\n        /* \"#utility.yul\":20081:20130   */\n      swap1\n      pop\n        /* \"#utility.yul\":20001:20136   */\n      swap2\n      swap1\n      pop\n      jump\t// out\n        /* \"#utility.yul\":20142:20296   */\n    tag_280:\n        /* \"#utility.yul\":20226:20232   */\n      dup3\n        /* \"#utility.yul\":20221:20224   */\n      dup2\n        /* \"#utility.yul\":20216:20219   */\n      dup4\n        /* \"#utility.yul\":20203:20233   */\n      calldatacopy\n        /* \"#utility.yul\":20288:20289   */\n      0x00\n        /* \"#utility.yul\":20279:20285   */\n      dup4\n        /* \"#utility.yul\":20274:20277   */\n      dup4\n        /* \"#utility.yul\":20270:20286   */\n      add\n        /* \"#utility.yul\":20263:20290   */\n      mstore\n        /* \"#utility.yul\":20142:20296   */\n      pop\n      pop\n      pop\n      jump\t// out\n        /* \"#utility.yul\":20302:20609   */\n    tag_371:\n        /* \"#utility.yul\":20370:20371   */\n      0x00\n        /* \"#utility.yul\":20380:20493   */\n    tag_507:\n        /* \"#utility.yul\":20394:20400   */\n      dup4\n        /* \"#utility.yul\":20391:20392   */\n      dup2\n        /* \"#utility.yul\":20388:20401   */\n      lt\n        /* \"#utility.yul\":20380:20493   */\n      iszero\n      tag_509\n      jumpi\n        /* \"#utility.yul\":20479:20480   */\n      dup1\n        /* \"#utility.yul\":20474:20477   */\n      dup3\n        /* \"#utility.yul\":20470:20481   */\n      add\n        /* \"#utility.yul\":20464:20482   */\n      mload\n        /* \"#utility.yul\":20460:20461   */\n      dup2\n        /* \"#utility.yul\":20455:20458   */\n      dup5\n        /* \"#utility.yul\":20451:20462   */\n      add\n        /* \"#utility.yul\":20444:20483   */\n      mstore\n        /* \"#utility.yul\":20416:20418   */\n      0x20\n        /* \"#utility.yul\":20413:20414   */\n      dup2\n        /* \"#utility.yul\":20409:20419   */\n      add\n        /* \"#utility.yul\":20404:20419   */\n      swap1\n      pop\n        /* \"#utility.yul\":20380:20493   */\n      jump(tag_507)\n    tag_509:\n        /* \"#utility.yul\":20511:20517   */\n      dup4\n        /* \"#utility.yul\":20508:20509   */\n      dup2\n        /* \"#utility.yul\":20505:20518   */\n      gt\n        /* \"#utility.yul\":20502:20603   */\n      iszero\n      tag_510\n      jumpi\n        /* \"#utility.yul\":20591:20592   */\n      0x00\n        /* \"#utility.yul\":20582:20588   */\n      dup5\n        /* \"#utility.yul\":20577:20580   */\n      dup5\n        /* \"#utility.yul\":20573:20589   */\n      add\n        /* \"#utility.yul\":20566:20593   */\n      mstore\n        /* \"#utility.yul\":20502:20603   */\n    tag_510:\n        /* \"#utility.yul\":20351:20609   */\n      pop\n        /* \"#utility.yul\":20302:20609   */\n      pop\n      pop\n      pop\n      jump\t// out\n        /* \"#utility.yul\":20615:20935   */\n    tag_74:\n        /* \"#utility.yul\":20659:20665   */\n      0x00\n        /* \"#utility.yul\":20696:20697   */\n      0x02\n        /* \"#utility.yul\":20690:20694   */\n      dup3\n        /* \"#utility.yul\":20686:20698   */\n      div\n        /* \"#utility.yul\":20676:20698   */\n      swap1\n      pop\n        /* \"#utility.yul\":20743:20744   */\n      0x01\n        /* \"#utility.yul\":20737:20741   */\n      dup3\n        /* \"#utility.yul\":20733:20745   */\n      and\n        /* \"#utility.yul\":20764:20782   */\n      dup1\n        /* \"#utility.yul\":20754:20835   */\n      tag_512\n      jumpi\n        /* \"#utility.yul\":20820:20824   */\n      0x7f\n        /* \"#utility.yul\":20812:20818   */\n      dup3\n        /* \"#utility.yul\":20808:20825   */\n      and\n        /* \"#utility.yul\":20798:20825   */\n      swap2\n      pop\n        /* \"#utility.yul\":20754:20835   */\n    tag_512:\n        /* \"#utility.yul\":20882:20884   */\n      0x20\n        /* \"#utility.yul\":20874:20880   */\n      dup3\n        /* \"#utility.yul\":20871:20885   */\n      lt\n        /* \"#utility.yul\":20851:20869   */\n      dup2\n        /* \"#utility.yul\":20848:20886   */\n      eq\n        /* \"#utility.yul\":20845:20929   */\n      iszero\n      tag_513\n      jumpi\n        /* \"#utility.yul\":20901:20919   */\n      tag_514\n      tag_515\n      jump\t// in\n    tag_514:\n        /* \"#utility.yul\":20845:20929   */\n    tag_513:\n        /* \"#utility.yul\":20666:20935   */\n      pop\n        /* \"#utility.yul\":20615:20935   */\n      swap2\n      swap1\n      pop\n      jump\t// out\n        /* \"#utility.yul\":20941:21222   */\n    tag_462:\n        /* \"#utility.yul\":21024:21051   */\n      tag_517\n        /* \"#utility.yul\":21046:21050   */\n      dup3\n        /* \"#utility.yul\":21024:21051   */\n      tag_373\n      jump\t// in\n    tag_517:\n        /* \"#utility.yul\":21016:21022   */\n      dup2\n        /* \"#utility.yul\":21012:21052   */\n      add\n        /* \"#utility.yul\":21154:21160   */\n      dup2\n        /* \"#utility.yul\":21142:21152   */\n      dup2\n        /* \"#utility.yul\":21139:21161   */\n      lt\n        /* \"#utility.yul\":21118:21136   */\n      0xffffffffffffffff\n        /* \"#utility.yul\":21106:21116   */\n      dup3\n        /* \"#utility.yul\":21103:21137   */\n      gt\n        /* \"#utility.yul\":21100:21162   */\n      or\n        /* \"#utility.yul\":21097:21185   */\n      iszero\n      tag_518\n      jumpi\n        /* \"#utility.yul\":21165:21183   */\n      tag_519\n      tag_467\n      jump\t// in\n    tag_519:\n        /* \"#utility.yul\":21097:21185   */\n    tag_518:\n        /* \"#utility.yul\":21205:21215   */\n      dup1\n        /* \"#utility.yul\":21201:21203   */\n      0x40\n        /* \"#utility.yul\":21194:21216   */\n      mstore\n        /* \"#utility.yul\":20984:21222   */\n      pop\n        /* \"#utility.yul\":20941:21222   */\n      pop\n      pop\n      jump\t// out\n        /* \"#utility.yul\":21228:21461   */\n    tag_191:\n        /* \"#utility.yul\":21267:21270   */\n      0x00\n        /* \"#utility.yul\":21290:21314   */\n      tag_521\n        /* \"#utility.yul\":21308:21313   */\n      dup3\n        /* \"#utility.yul\":21290:21314   */\n      tag_431\n      jump\t// in\n    tag_521:\n        /* \"#utility.yul\":21281:21314   */\n      swap2\n      pop\n        /* \"#utility.yul\":21336:21402   */\n      0xffffffffffffffffffffffffffffffffffffffffffffffffffffffffffffffff\n        /* \"#utility.yul\":21329:21334   */\n      dup3\n        /* \"#utility.yul\":21326:21403   */\n      eq\n        /* \"#utility.yul\":21323:21426   */\n      iszero\n      tag_522\n      jumpi\n        /* \"#utility.yul\":21406:21424   */\n      tag_523\n      tag_484\n      jump\t// in\n    tag_523:\n        /* \"#utility.yul\":21323:21426   */\n    tag_522:\n        /* \"#utility.yul\":21453:21454   */\n      0x01\n        /* \"#utility.yul\":21446:21451   */\n      dup3\n        /* \"#utility.yul\":21442:21455   */\n      add\n        /* \"#utility.yul\":21435:21455   */\n      swap1\n      pop\n        /* \"#utility.yul\":21228:21461   */\n      swap2\n      swap1\n      pop\n      jump\t// out\n        /* \"#utility.yul\":21467:21634   */\n    tag_176:\n        /* \"#utility.yul\":21504:21507   */\n      0x00\n        /* \"#utility.yul\":21527:21549   */\n      tag_525\n        /* \"#utility.yul\":21543:21548   */\n      dup3\n        /* \"#utility.yul\":21527:21549   */\n      tag_501\n      jump\t// in\n    tag_525:\n        /* \"#utility.yul\":21518:21549   */\n      swap2\n      pop\n        /* \"#utility.yul\":21571:21575   */\n      0xff\n        /* \"#utility.yul\":21564:21569   */\n      dup3\n        /* \"#utility.yul\":21561:21576   */\n      eq\n        /* \"#utility.yul\":21558:21599   */\n      iszero\n      tag_526\n      jumpi\n        /* \"#utility.yul\":21579:21597   */\n      tag_527\n      tag_484\n      jump\t// in\n    tag_527:\n        /* \"#utility.yul\":21558:21599   */\n    tag_526:\n        /* \"#utility.yul\":21626:21627   */\n      0x01\n        /* \"#utility.yul\":21619:21624   */\n      dup3\n        /* \"#utility.yul\":21615:21628   */\n      add\n        /* \"#utility.yul\":21608:21628   */\n      swap1\n      pop\n        /* \"#utility.yul\":21467:21634   */\n      swap2\n      swap1\n      pop\n      jump\t// out\n        /* \"#utility.yul\":21640:21820   */\n    tag_484:\n        /* \"#utility.yul\":21688:21765   */\n      0x4e487b7100000000000000000000000000000000000000000000000000000000\n        /* \"#utility.yul\":21685:21686   */\n      0x00\n        /* \"#utility.yul\":21678:21766   */\n      mstore\n        /* \"#utility.yul\":21785:21789   */\n      0x11\n        /* \"#utility.yul\":21782:21783   */\n      0x04\n        /* \"#utility.yul\":21775:21790   */\n      mstore\n        /* \"#utility.yul\":21809:21813   */\n      0x24\n        /* \"#utility.yul\":21806:21807   */\n      0x00\n        /* \"#utility.yul\":21799:21814   */\n      revert\n        /* \"#utility.yul\":21826:22006   */\n    tag_70:\n        /* \"#utility.yul\":21874:21951   */\n      0x4e487b7100000000000000000000000000000000000000000000000000000000\n        /* \"#utility.yul\":21871:21872   */\n      0x00\n        /* \"#utility.yul\":21864:21952   */\n      mstore\n        /* \"#utility.yul\":21971:21975   */\n      0x21\n        /* \"#utility.yul\":21968:21969   */\n      0x04\n        /* \"#utility.yul\":21961:21976   */\n      mstore\n        /* \"#utility.yul\":21995:21999   */\n      0x24\n        /* \"#utility.yul\":21992:21993   */\n      0x00\n        /* \"#utility.yul\":21985:22000   */\n      revert\n        /* \"#utility.yul\":22012:22192   */\n    tag_515:\n        /* \"#utility.yul\":22060:22137   */\n      0x4e487b7100000000000000000000000000000000000000000000000000000000\n        /* \"#utility.yul\":22057:22058   */\n      0x00\n        /* \"#utility.yul\":22050:22138   */\n      mstore\n        /* \"#utility.yul\":22157:22161   */\n      0x22\n        /* \"#utility.yul\":22154:22155   */\n      0x04\n        /* \"#utility.yul\":22147:22162   */\n      mstore\n        /* \"#utility.yul\":22181:22185   */\n      0x24\n        /* \"#utility.yul\":22178:22179   */\n      0x00\n        /* \"#utility.yul\":22171:22186   */\n      revert\n        /* \"#utility.yul\":22198:22378   */\n    tag_163:\n        /* \"#utility.yul\":22246:22323   */\n      0x4e487b7100000000000000000000000000000000000000000000000000000000\n        /* \"#utility.yul\":22243:22244   */\n      0x00\n        /* \"#utility.yul\":22236:22324   */\n      mstore\n        /* \"#utility.yul\":22343:22347   */\n      0x32\n        /* \"#utility.yul\":22340:22341   */\n      0x04\n        /* \"#utility.yul\":22333:22348   */\n      mstore\n        /* \"#utility.yul\":22367:22371   */\n      0x24\n        /* \"#utility.yul\":22364:22365   */\n      0x00\n        /* \"#utility.yul\":22357:22372   */\n      revert\n        /* \"#utility.yul\":22384:22564   */\n    tag_467:\n        /* \"#utility.yul\":22432:22509   */\n      0x4e487b7100000000000000000000000000000000000000000000000000000000\n        /* \"#utility.yul\":22429:22430   */\n      0x00\n        /* \"#utility.yul\":22422:22510   */\n      mstore\n        /* \"#utility.yul\":22529:22533   */\n      0x41\n        /* \"#utility.yul\":22526:22527   */\n      0x04\n        /* \"#utility.yul\":22519:22534   */\n      mstore\n        /* \"#utility.yul\":22553:22557   */\n      0x24\n        /* \"#utility.yul\":22550:22551   */\n      0x00\n        /* \"#utility.yul\":22543:22558   */\n      revert\n        /* \"#utility.yul\":22570:22687   */\n    tag_289:\n        /* \"#utility.yul\":22679:22680   */\n      0x00\n        /* \"#utility.yul\":22676:22677   */\n      dup1\n        /* \"#utility.yul\":22669:22681   */\n      revert\n        /* \"#utility.yul\":22693:22810   */\n    tag_253:\n        /* \"#utility.yul\":22802:22803   */\n      0x00\n        /* \"#utility.yul\":22799:22800   */\n      dup1\n        /* \"#utility.yul\":22792:22804   */\n      revert\n        /* \"#utility.yul\":22816:22933   */\n    tag_278:\n        /* \"#utility.yul\":22925:22926   */\n      0x00\n        /* \"#utility.yul\":22922:22923   */\n      dup1\n        /* \"#utility.yul\":22915:22927   */\n      revert\n        /* \"#utility.yul\":22939:23056   */\n    tag_317:\n        /* \"#utility.yul\":23048:23049   */\n      0x00\n        /* \"#utility.yul\":23045:23046   */\n      dup1\n        /* \"#utility.yul\":23038:23050   */\n      revert\n        /* \"#utility.yul\":23062:23179   */\n    tag_310:\n        /* \"#utility.yul\":23171:23172   */\n      0x00\n        /* \"#utility.yul\":23168:23169   */\n      dup1\n        /* \"#utility.yul\":23161:23173   */\n      revert\n        /* \"#utility.yul\":23185:23287   */\n    tag_373:\n        /* \"#utility.yul\":23226:23232   */\n      0x00\n        /* \"#utility.yul\":23277:23279   */\n      0x1f\n        /* \"#utility.yul\":23273:23280   */\n      not\n        /* \"#utility.yul\":23268:23270   */\n      0x1f\n        /* \"#utility.yul\":23261:23266   */\n      dup4\n        /* \"#utility.yul\":23257:23271   */\n      add\n        /* \"#utility.yul\":23253:23281   */\n      and\n        /* \"#utility.yul\":23243:23281   */\n      swap1\n      pop\n        /* \"#utility.yul\":23185:23287   */\n      swap2\n      swap1\n      pop\n      jump\t// out\n        /* \"#utility.yul\":23293:23470   */\n    tag_385:\n        /* \"#utility.yul\":23433:23462   */\n      0x54686973204944206f66204e465420646f6e2774206578697374730000000000\n        /* \"#utility.yul\":23429:23430   */\n      0x00\n        /* \"#utility.yul\":23421:23427   */\n      dup3\n        /* \"#utility.yul\":23417:23431   */\n      add\n        /* \"#utility.yul\":23410:23463   */\n      mstore\n        /* \"#utility.yul\":23293:23470   */\n      pop\n      jump\t// out\n        /* \"#utility.yul\":23476:23701   */\n    tag_390:\n        /* \"#utility.yul\":23616:23650   */\n      0x4f776e61626c653a206e6577206f776e657220697320746865207a65726f2061\n        /* \"#utility.yul\":23612:23613   */\n      0x00\n        /* \"#utility.yul\":23604:23610   */\n      dup3\n        /* \"#utility.yul\":23600:23614   */\n      add\n        /* \"#utility.yul\":23593:23651   */\n      mstore\n        /* \"#utility.yul\":23685:23693   */\n      0x6464726573730000000000000000000000000000000000000000000000000000\n        /* \"#utility.yul\":23680:23682   */\n      0x20\n        /* \"#utility.yul\":23672:23678   */\n      dup3\n        /* \"#utility.yul\":23668:23683   */\n      add\n        /* \"#utility.yul\":23661:23694   */\n      mstore\n        /* \"#utility.yul\":23476:23701   */\n      pop\n      jump\t// out\n        /* \"#utility.yul\":23707:23888   */\n    tag_395:\n        /* \"#utility.yul\":23847:23880   */\n      0x556e61626c6520746f207265706561742074686520646574656374696f6e2100\n        /* \"#utility.yul\":23843:23844   */\n      0x00\n        /* \"#utility.yul\":23835:23841   */\n      dup3\n        /* \"#utility.yul\":23831:23845   */\n      add\n        /* \"#utility.yul\":23824:23881   */\n      mstore\n        /* \"#utility.yul\":23707:23888   */\n      pop\n      jump\t// out\n        /* \"#utility.yul\":23894:24128   */\n    tag_400:\n        /* \"#utility.yul\":24034:24068   */\n      0x546865204e465420646f6573206e6f74206d6565742074686520646574656374\n        /* \"#utility.yul\":24030:24031   */\n      0x00\n        /* \"#utility.yul\":24022:24028   */\n      dup3\n        /* \"#utility.yul\":24018:24032   */\n      add\n        /* \"#utility.yul\":24011:24069   */\n      mstore\n        /* \"#utility.yul\":24103:24120   */\n      0x696f6e20636f6e646974696f6e73210000000000000000000000000000000000\n        /* \"#utility.yul\":24098:24100   */\n      0x20\n        /* \"#utility.yul\":24090:24096   */\n      dup3\n        /* \"#utility.yul\":24086:24101   */\n      add\n        /* \"#utility.yul\":24079:24121   */\n      mstore\n        /* \"#utility.yul\":23894:24128   */\n      pop\n      jump\t// out\n        /* \"#utility.yul\":24134:24316   */\n    tag_405:\n        /* \"#utility.yul\":24274:24308   */\n      0x4f776e61626c653a2063616c6c6572206973206e6f7420746865206f776e6572\n        /* \"#utility.yul\":24270:24271   */\n      0x00\n        /* \"#utility.yul\":24262:24268   */\n      dup3\n        /* \"#utility.yul\":24258:24272   */\n      add\n        /* \"#utility.yul\":24251:24309   */\n      mstore\n        /* \"#utility.yul\":24134:24316   */\n      pop\n      jump\t// out\n        /* \"#utility.yul\":24322:24564   */\n    tag_410:\n        /* \"#utility.yul\":24462:24496   */\n      0x546865206c656e677468206f66205f49442073686f756c6420657175616c2074\n        /* \"#utility.yul\":24458:24459   */\n      0x00\n        /* \"#utility.yul\":24450:24456   */\n      dup3\n        /* \"#utility.yul\":24446:24460   */\n      add\n        /* \"#utility.yul\":24439:24497   */\n      mstore\n        /* \"#utility.yul\":24531:24556   */\n      0x6f20746865206c656e677468206f66205f726573756c74000000000000000000\n        /* \"#utility.yul\":24526:24528   */\n      0x20\n        /* \"#utility.yul\":24518:24524   */\n      dup3\n        /* \"#utility.yul\":24514:24529   */\n      add\n        /* \"#utility.yul\":24507:24557   */\n      mstore\n        /* \"#utility.yul\":24322:24564   */\n      pop\n      jump\t// out\n        /* \"#utility.yul\":24570:24744   */\n    tag_415:\n        /* \"#utility.yul\":24710:24736   */\n      0x6c656e677468206265796f6e642061727261794c696d69740000000000000000\n        /* \"#utility.yul\":24706:24707   */\n      0x00\n        /* \"#utility.yul\":24698:24704   */\n      dup3\n        /* \"#utility.yul\":24694:24708   */\n      add\n        /* \"#utility.yul\":24687:24737   */\n      mstore\n        /* \"#utility.yul\":24570:24744   */\n      pop\n      jump\t// out\n        /* \"#utility.yul\":24750:24867   */\n    tag_497:\n        /* \"#utility.yul\":24835:24836   */\n      0x02\n        /* \"#utility.yul\":24828:24833   */\n      dup2\n        /* \"#utility.yul\":24825:24837   */\n      lt\n        /* \"#utility.yul\":24815:24861   */\n      tag_547\n      jumpi\n        /* \"#utility.yul\":24841:24859   */\n      tag_548\n      tag_70\n      jump\t// in\n    tag_548:\n        /* \"#utility.yul\":24815:24861   */\n    tag_547:\n        /* \"#utility.yul\":24750:24867   */\n      pop\n      jump\t// out\n        /* \"#utility.yul\":24873:24995   */\n    tag_284:\n        /* \"#utility.yul\":24946:24970   */\n      tag_550\n        /* \"#utility.yul\":24964:24969   */\n      dup2\n        /* \"#utility.yul\":24946:24970   */\n      tag_349\n      jump\t// in\n    tag_550:\n        /* \"#utility.yul\":24939:24944   */\n      dup2\n        /* \"#utility.yul\":24936:24971   */\n      eq\n        /* \"#utility.yul\":24926:24989   */\n      tag_551\n      jumpi\n        /* \"#utility.yul\":24985:24986   */\n      0x00\n        /* \"#utility.yul\":24982:24983   */\n      dup1\n        /* \"#utility.yul\":24975:24987   */\n      revert\n        /* \"#utility.yul\":24926:24989   */\n    tag_551:\n        /* \"#utility.yul\":24873:24995   */\n      pop\n      jump\t// out\n        /* \"#utility.yul\":25001:25117   */\n    tag_298:\n        /* \"#utility.yul\":25071:25092   */\n      tag_553\n        /* \"#utility.yul\":25086:25091   */\n      dup2\n        /* \"#utility.yul\":25071:25092   */\n      tag_356\n      jump\t// in\n    tag_553:\n        /* \"#utility.yul\":25064:25069   */\n      dup2\n        /* \"#utility.yul\":25061:25093   */\n      eq\n        /* \"#utility.yul\":25051:25111   */\n      tag_554\n      jumpi\n        /* \"#utility.yul\":25107:25108   */\n      0x00\n        /* \"#utility.yul\":25104:25105   */\n      dup1\n        /* \"#utility.yul\":25097:25109   */\n      revert\n        /* \"#utility.yul\":25051:25111   */\n    tag_554:\n        /* \"#utility.yul\":25001:25117   */\n      pop\n      jump\t// out\n        /* \"#utility.yul\":25123:25245   */\n    tag_306:\n        /* \"#utility.yul\":25196:25220   */\n      tag_556\n        /* \"#utility.yul\":25214:25219   */\n      dup2\n        /* \"#utility.yul\":25196:25220   */\n      tag_431\n      jump\t// in\n    tag_556:\n        /* \"#utility.yul\":25189:25194   */\n      dup2\n        /* \"#utility.yul\":25186:25221   */\n      eq\n        /* \"#utility.yul\":25176:25239   */\n      tag_557\n      jumpi\n        /* \"#utility.yul\":25235:25236   */\n      0x00\n        /* \"#utility.yul\":25232:25233   */\n      dup1\n        /* \"#utility.yul\":25225:25237   */\n      revert\n        /* \"#utility.yul\":25176:25239   */\n    tag_557:\n        /* \"#utility.yul\":25123:25245   */\n      pop\n      jump\t// out\n\n    auxdata: 0xa2646970667358221220214142ca07f7e0f578a38718de5e9a70b0f29007efe8d149b44b3fc6351a3a9d64736f6c63430008070033\n}\n",
				"bytecode": {
					"linkReferences": {},
					"object": "608060405260c8600060146101000a81548161ffff021916908361ffff1602179055506001805534801561003257600080fd5b5061004f61004461005460201b60201c565b61005c60201b60201c565b610120565b600033905090565b60008060009054906101000a900473ffffffffffffffffffffffffffffffffffffffff169050816000806101000a81548173ffffffffffffffffffffffffffffffffffffffff021916908373ffffffffffffffffffffffffffffffffffffffff1602179055508173ffffffffffffffffffffffffffffffffffffffff168173ffffffffffffffffffffffffffffffffffffffff167f8be0079c531659141344cd1fd0a4f28419497f9722a3daafe3b4186f6b6457e060405160405180910390a35050565b61223180620001306000396000f3fe608060405234801561001057600080fd5b50600436106100a95760003560e01c8063b3cea21711610071578063b3cea21714610152578063b4ae641c14610170578063b5e3029f1461018e578063bd0dea20146101be578063d0aeae96146101da578063f2fde38b1461020a576100a9565b8063138f0727146100ae5780631c5a3e52146100de5780633a4f2d24146100fa578063715018a61461012a5780638da5cb5b14610134575b600080fd5b6100c860048036038101906100c391906117a2565b610226565b6040516100d59190611b94565b60405180910390f35b6100f860048036038101906100f391906117cf565b610488565b005b610114600480360381019061010f919061172a565b610665565b6040516101219190611bd1565b60405180910390f35b61013261083e565b005b61013c6108c6565b6040516101499190611a7e565b60405180910390f35b61015a6108ef565b6040516101679190611bd1565b60405180910390f35b6101786108f5565b6040516101859190611bb6565b60405180910390f35b6101a860048036038101906101a391906117a2565b610909565b6040516101b59190611a99565b60405180910390f35b6101d860048036038101906101d39190611669565b610b69565b005b6101f460048036038101906101ef91906116e1565b610e47565b6040516102019190611a99565b60405180910390f35b610224600480360381019061021f919061163c565b610f61565b005b61022e61134c565b6001548210610272576040517f08c379a000000000000000000000000000000000000000000000000000000000815260040161026990611ab4565b60405180910390fd5b6000600260008481526020019081526020016000206040518060c00160405290816000820160009054906101000a900460ff1660018111156102b7576102b6611f2b565b5b60018111156102c9576102c8611f2b565b5b81526020016001820180546102dd90611e26565b80601f016020809104026020016040519081016040528092919081815260200182805461030990611e26565b80156103565780601f1061032b57610100808354040283529160200191610356565b820191906000526020600020905b81548152906001019060200180831161033957829003601f168201915b5050505050815260200160028201805461036f90611e26565b80601f016020809104026020016040519081016040528092919081815260200182805461039b90611e26565b80156103e85780601f106103bd576101008083540402835291602001916103e8565b820191906000526020600020905b8154815290600101906020018083116103cb57829003601f168201915b505050505081526020016003820160009054906101000a900460ff161515151581526020016003820160019054906101000a900460ff161515151581526020016003820160029054906101000a900473ffffffffffffffffffffffffffffffffffffffff1673ffffffffffffffffffffffffffffffffffffffff1673ffffffffffffffffffffffffffffffffffffffff1681525050905080915050919050565b610490611059565b73ffffffffffffffffffffffffffffffffffffffff166104ae6108c6565b73ffffffffffffffffffffffffffffffffffffffff1614610504576040517f08c379a00000000000000000000000000000000000000000000000000000000081526004016104fb90611b34565b60405180910390fd5b600015156002600084815260200190815260200160002060030160009054906101000a900460ff16151514801561058257506000600181111561054a57610549611f2b565b5b6002600084815260200190815260200160002060000160009054906101000a900460ff1660018111156105805761057f611f2b565b5b145b6105c1576040517f08c379a00000000000000000000000000000000000000000000000000000000081526004016105b890611b14565b60405180910390fd5b806002600084815260200190815260200160002060030160016101000a81548160ff021916908315150217905550600160026000600154815260200190815260200160002060030160006101000a81548160ff021916908315150217905550600160026000600154815260200190815260200160002060000160006101000a81548160ff0219169083600181111561065c5761065b611f2b565b5b02179055505050565b600061067083611061565b8015610681575061068082611148565b5b6106c0576040517f08c379a00000000000000000000000000000000000000000000000000000000081526004016106b790611af4565b60405180910390fd5b8260026000600154815260200190815260200160002060010190805190602001906106ec9291906113ae565b508160026000600154815260200190815260200160002060020190805190602001906107199291906113ae565b50600060026000600154815260200190815260200160002060000160006101000a81548160ff0219169083600181111561075657610755611f2b565b5b0217905550600060026000600154815260200190815260200160002060030160006101000a81548160ff021916908315150217905550600060026000600154815260200190815260200160002060030160016101000a81548160ff0219169083151502179055503360026000600154815260200190815260200160002060030160026101000a81548173ffffffffffffffffffffffffffffffffffffffff021916908373ffffffffffffffffffffffffffffffffffffffff160217905550600180546108229190611cd2565b600181905550600180546108369190611d28565b905092915050565b610846611059565b73ffffffffffffffffffffffffffffffffffffffff166108646108c6565b73ffffffffffffffffffffffffffffffffffffffff16146108ba576040517f08c379a00000000000000000000000000000000000000000000000000000000081526004016108b190611b34565b60405180910390fd5b6108c4600061122f565b565b60008060009054906101000a900473ffffffffffffffffffffffffffffffffffffffff16905090565b60015481565b600060149054906101000a900461ffff1681565b6000600154821061094f576040517f08c379a000000000000000000000000000000000000000000000000000000000815260040161094690611ab4565b60405180910390fd5b6000600260008481526020019081526020016000206040518060c00160405290816000820160009054906101000a900460ff16600181111561099457610993611f2b565b5b60018111156109a6576109a5611f2b565b5b81526020016001820180546109ba90611e26565b80601f01602080910402602001604051908101604052809291908181526020018280546109e690611e26565b8015610a335780601f10610a0857610100808354040283529160200191610a33565b820191906000526020600020905b815481529060010190602001808311610a1657829003601f168201915b50505050508152602001600282018054610a4c90611e26565b80601f0160208091040260200160405190810160405280929190818152602001828054610a7890611e26565b8015610ac55780601f10610a9a57610100808354040283529160200191610ac5565b820191906000526020600020905b815481529060010190602001808311610aa857829003601f168201915b505050505081526020016003820160009054906101000a900460ff161515151581526020016003820160019054906101000a900460ff161515151581526020016003820160029054906101000a900473ffffffffffffffffffffffffffffffffffffffff1673ffffffffffffffffffffffffffffffffffffffff1673ffffffffffffffffffffffffffffffffffffffff168152505090508060800151915050919050565b610b71611059565b73ffffffffffffffffffffffffffffffffffffffff16610b8f6108c6565b73ffffffffffffffffffffffffffffffffffffffff1614610be5576040517f08c379a0000000000000000000000000000000000000000000000000000000008152600401610bdc90611b34565b60405180910390fd5b600060149054906101000a900461ffff1661ffff1682511115610c3d576040517f08c379a0000000000000000000000000000000000000000000000000000000008152600401610c3490611b74565b60405180910390fd5b8051825114610c81576040517f08c379a0000000000000000000000000000000000000000000000000000000008152600401610c7890611b54565b60405180910390fd5b60005b82518160ff161015610e42576000838260ff1681518110610ca857610ca7611f89565b5b602002602001015190506000838360ff1681518110610cca57610cc9611f89565b5b60200260200101519050600015156002600084815260200190815260200160002060030160009054906101000a900460ff161515148015610d52575060006001811115610d1a57610d19611f2b565b5b6002600084815260200190815260200160002060000160009054906101000a900460ff166001811115610d5057610d4f611f2b565b5b145b610d91576040517f08c379a0000000000000000000000000000000000000000000000000000000008152600401610d8890611b14565b60405180910390fd5b806002600084815260200190815260200160002060030160016101000a81548160ff02191690831515021790555060016002600084815260200190815260200160002060030160006101000a81548160ff02191690831515021790555060016002600084815260200190815260200160002060000160006101000a81548160ff02191690836001811115610e2857610e27611f2b565b5b021790555050508080610e3a90611ed2565b915050610c84565b505050565b600080600090505b600154811015610f5657610f01600260008381526020019081526020016000206001018054610e7d90611e26565b80601f0160208091040260200160405190810160405280929190818152602001828054610ea990611e26565b8015610ef65780601f10610ecb57610100808354040283529160200191610ef6565b820191906000526020600020905b815481529060010190602001808311610ed957829003601f168201915b5050505050846112f3565b8015610f345750600115156002600083815260200190815260200160002060030160019054906101000a900460ff161515145b15610f43576001915050610f5c565b8080610f4e90611e89565b915050610e4f565b50600090505b919050565b610f69611059565b73ffffffffffffffffffffffffffffffffffffffff16610f876108c6565b73ffffffffffffffffffffffffffffffffffffffff1614610fdd576040517f08c379a0000000000000000000000000000000000000000000000000000000008152600401610fd490611b34565b60405180910390fd5b600073ffffffffffffffffffffffffffffffffffffffff168173ffffffffffffffffffffffffffffffffffffffff16141561104d576040517f08c379a000000000000000000000000000000000000000000000000000000000815260040161104490611ad4565b60405180910390fd5b6110568161122f565b50565b600033905090565b600080600090505b60015481101561113d5761111b60026000838152602001908152602001600020600101805461109790611e26565b80601f01602080910402602001604051908101604052809291908181526020018280546110c390611e26565b80156111105780601f106110e557610100808354040283529160200191611110565b820191906000526020600020905b8154815290600101906020018083116110f357829003601f168201915b5050505050846112f3565b1561112a576000915050611143565b808061113590611e89565b915050611069565b50600190505b919050565b600080600090505b6001548110156112245761120260026000838152602001908152602001600020600201805461117e90611e26565b80601f01602080910402602001604051908101604052809291908181526020018280546111aa90611e26565b80156111f75780601f106111cc576101008083540402835291602001916111f7565b820191906000526020600020905b8154815290600101906020018083116111da57829003601f168201915b5050505050846112f3565b1561121157600091505061122a565b808061121c90611e89565b915050611150565b50600190505b919050565b60008060009054906101000a900473ffffffffffffffffffffffffffffffffffffffff169050816000806101000a81548173ffffffffffffffffffffffffffffffffffffffff021916908373ffffffffffffffffffffffffffffffffffffffff1602179055508173ffffffffffffffffffffffffffffffffffffffff168173ffffffffffffffffffffffffffffffffffffffff167f8be0079c531659141344cd1fd0a4f28419497f9722a3daafe3b4186f6b6457e060405160405180910390a35050565b6000816040516020016113069190611a67565b604051602081830303815290604052805190602001208360405160200161132d9190611a67565b6040516020818303038152906040528051906020012014905092915050565b6040518060c001604052806000600181111561136b5761136a611f2b565b5b81526020016060815260200160608152602001600015158152602001600015158152602001600073ffffffffffffffffffffffffffffffffffffffff1681525090565b8280546113ba90611e26565b90600052602060002090601f0160209004810192826113dc5760008555611423565b82601f106113f557805160ff1916838001178555611423565b82800160010185558215611423579182015b82811115611422578251825591602001919060010190611407565b5b5090506114309190611434565b5090565b5b8082111561144d576000816000905550600101611435565b5090565b600061146461145f84611c11565b611bec565b9050808382526020820190508285602086028201111561148757611486611fec565b5b60005b858110156114b7578161149d88826115e4565b84526020840193506020830192505060018101905061148a565b5050509392505050565b60006114d46114cf84611c3d565b611bec565b905080838252602082019050828560208602820111156114f7576114f6611fec565b5b60005b85811015611527578161150d8882611627565b8452602084019350602083019250506001810190506114fa565b5050509392505050565b600061154461153f84611c69565b611bec565b9050828152602081018484840111156115605761155f611ff1565b5b61156b848285611de4565b509392505050565b600081359050611582816121b6565b92915050565b600082601f83011261159d5761159c611fe7565b5b81356115ad848260208601611451565b91505092915050565b600082601f8301126115cb576115ca611fe7565b5b81356115db8482602086016114c1565b91505092915050565b6000813590506115f3816121cd565b92915050565b600082601f83011261160e5761160d611fe7565b5b813561161e848260208601611531565b91505092915050565b600081359050611636816121e4565b92915050565b60006020828403121561165257611651611ffb565b5b600061166084828501611573565b91505092915050565b600080604083850312156116805761167f611ffb565b5b600083013567ffffffffffffffff81111561169e5761169d611ff6565b5b6116aa858286016115b6565b925050602083013567ffffffffffffffff8111156116cb576116ca611ff6565b5b6116d785828601611588565b9150509250929050565b6000602082840312156116f7576116f6611ffb565b5b600082013567ffffffffffffffff81111561171557611714611ff6565b5b611721848285016115f9565b91505092915050565b6000806040838503121561174157611740611ffb565b5b600083013567ffffffffffffffff81111561175f5761175e611ff6565b5b61176b858286016115f9565b925050602083013567ffffffffffffffff81111561178c5761178b611ff6565b5b611798858286016115f9565b9150509250929050565b6000602082840312156117b8576117b7611ffb565b5b60006117c684828501611627565b91505092915050565b600080604083850312156117e6576117e5611ffb565b5b60006117f485828601611627565b9250506020611805858286016115e4565b9150509250929050565b61181881611d5c565b82525050565b61182781611d5c565b82525050565b61183681611d6e565b82525050565b61184581611d6e565b82525050565b61185481611dd2565b82525050565b600061186582611c9a565b61186f8185611ca5565b935061187f818560208601611df3565b61188881612000565b840191505092915050565b600061189e82611c9a565b6118a88185611cc7565b93506118b8818560208601611df3565b80840191505092915050565b60006118d1601b83611cb6565b91506118dc82612011565b602082019050919050565b60006118f4602683611cb6565b91506118ff8261203a565b604082019050919050565b6000611917601f83611cb6565b915061192282612089565b602082019050919050565b600061193a602f83611cb6565b9150611945826120b2565b604082019050919050565b600061195d602083611cb6565b915061196882612101565b602082019050919050565b6000611980603783611cb6565b915061198b8261212a565b604082019050919050565b60006119a3601883611cb6565b91506119ae82612179565b602082019050919050565b600060c0830160008301516119d1600086018261184b565b50602083015184820360208601526119e9828261185a565b91505060408301518482036040860152611a03828261185a565b9150506060830151611a18606086018261182d565b506080830151611a2b608086018261182d565b5060a0830151611a3e60a086018261180f565b508091505092915050565b611a5281611d8d565b82525050565b611a6181611dbb565b82525050565b6000611a738284611893565b915081905092915050565b6000602082019050611a93600083018461181e565b92915050565b6000602082019050611aae600083018461183c565b92915050565b60006020820190508181036000830152611acd816118c4565b9050919050565b60006020820190508181036000830152611aed816118e7565b9050919050565b60006020820190508181036000830152611b0d8161190a565b9050919050565b60006020820190508181036000830152611b2d8161192d565b9050919050565b60006020820190508181036000830152611b4d81611950565b9050919050565b60006020820190508181036000830152611b6d81611973565b9050919050565b60006020820190508181036000830152611b8d81611996565b9050919050565b60006020820190508181036000830152611bae81846119b9565b905092915050565b6000602082019050611bcb6000830184611a49565b92915050565b6000602082019050611be66000830184611a58565b92915050565b6000611bf6611c07565b9050611c028282611e58565b919050565b6000604051905090565b600067ffffffffffffffff821115611c2c57611c2b611fb8565b5b602082029050602081019050919050565b600067ffffffffffffffff821115611c5857611c57611fb8565b5b602082029050602081019050919050565b600067ffffffffffffffff821115611c8457611c83611fb8565b5b611c8d82612000565b9050602081019050919050565b600081519050919050565b600082825260208201905092915050565b600082825260208201905092915050565b600081905092915050565b6000611cdd82611dbb565b9150611ce883611dbb565b9250827fffffffffffffffffffffffffffffffffffffffffffffffffffffffffffffffff03821115611d1d57611d1c611efc565b5b828201905092915050565b6000611d3382611dbb565b9150611d3e83611dbb565b925082821015611d5157611d50611efc565b5b828203905092915050565b6000611d6782611d9b565b9050919050565b60008115159050919050565b6000819050611d88826121a2565b919050565b600061ffff82169050919050565b600073ffffffffffffffffffffffffffffffffffffffff82169050919050565b6000819050919050565b600060ff82169050919050565b6000611ddd82611d7a565b9050919050565b82818337600083830152505050565b60005b83811015611e11578082015181840152602081019050611df6565b83811115611e20576000848401525b50505050565b60006002820490506001821680611e3e57607f821691505b60208210811415611e5257611e51611f5a565b5b50919050565b611e6182612000565b810181811067ffffffffffffffff82111715611e8057611e7f611fb8565b5b80604052505050565b6000611e9482611dbb565b91507fffffffffffffffffffffffffffffffffffffffffffffffffffffffffffffffff821415611ec757611ec6611efc565b5b600182019050919050565b6000611edd82611dc5565b915060ff821415611ef157611ef0611efc565b5b600182019050919050565b7f4e487b7100000000000000000000000000000000000000000000000000000000600052601160045260246000fd5b7f4e487b7100000000000000000000000000000000000000000000000000000000600052602160045260246000fd5b7f4e487b7100000000000000000000000000000000000000000000000000000000600052602260045260246000fd5b7f4e487b7100000000000000000000000000000000000000000000000000000000600052603260045260246000fd5b7f4e487b7100000000000000000000000000000000000000000000000000000000600052604160045260246000fd5b600080fd5b600080fd5b600080fd5b600080fd5b600080fd5b6000601f19601f8301169050919050565b7f54686973204944206f66204e465420646f6e2774206578697374730000000000600082015250565b7f4f776e61626c653a206e6577206f776e657220697320746865207a65726f206160008201527f6464726573730000000000000000000000000000000000000000000000000000602082015250565b7f556e61626c6520746f207265706561742074686520646574656374696f6e2100600082015250565b7f546865204e465420646f6573206e6f74206d656574207468652064657465637460008201527f696f6e20636f6e646974696f6e73210000000000000000000000000000000000602082015250565b7f4f776e61626c653a2063616c6c6572206973206e6f7420746865206f776e6572600082015250565b7f546865206c656e677468206f66205f49442073686f756c6420657175616c207460008201527f6f20746865206c656e677468206f66205f726573756c74000000000000000000602082015250565b7f6c656e677468206265796f6e642061727261794c696d69740000000000000000600082015250565b600281106121b3576121b2611f2b565b5b50565b6121bf81611d5c565b81146121ca57600080fd5b50565b6121d681611d6e565b81146121e157600080fd5b50565b6121ed81611dbb565b81146121f857600080fd5b5056fea2646970667358221220214142ca07f7e0f578a38718de5e9a70b0f29007efe8d149b44b3fc6351a3a9d64736f6c63430008070033",
					"opcodes": "PUSH1 0x80 PUSH1 0x40 MSTORE PUSH1 0xC8 PUSH1 0x0 PUSH1 0x14 PUSH2 0x100 EXP DUP2 SLOAD DUP2 PUSH2 0xFFFF MUL NOT AND SWAP1 DUP4 PUSH2 0xFFFF AND MUL OR SWAP1 SSTORE POP PUSH1 0x1 DUP1 SSTORE CALLVALUE DUP1 ISZERO PUSH2 0x32 JUMPI PUSH1 0x0 DUP1 REVERT JUMPDEST POP PUSH2 0x4F PUSH2 0x44 PUSH2 0x54 PUSH1 0x20 SHL PUSH1 0x20 SHR JUMP JUMPDEST PUSH2 0x5C PUSH1 0x20 SHL PUSH1 0x20 SHR JUMP JUMPDEST PUSH2 0x120 JUMP JUMPDEST PUSH1 0x0 CALLER SWAP1 POP SWAP1 JUMP JUMPDEST PUSH1 0x0 DUP1 PUSH1 0x0 SWAP1 SLOAD SWAP1 PUSH2 0x100 EXP SWAP1 DIV PUSH20 0xFFFFFFFFFFFFFFFFFFFFFFFFFFFFFFFFFFFFFFFF AND SWAP1 POP DUP2 PUSH1 0x0 DUP1 PUSH2 0x100 EXP DUP2 SLOAD DUP2 PUSH20 0xFFFFFFFFFFFFFFFFFFFFFFFFFFFFFFFFFFFFFFFF MUL NOT AND SWAP1 DUP4 PUSH20 0xFFFFFFFFFFFFFFFFFFFFFFFFFFFFFFFFFFFFFFFF AND MUL OR SWAP1 SSTORE POP DUP2 PUSH20 0xFFFFFFFFFFFFFFFFFFFFFFFFFFFFFFFFFFFFFFFF AND DUP2 PUSH20 0xFFFFFFFFFFFFFFFFFFFFFFFFFFFFFFFFFFFFFFFF AND PUSH32 0x8BE0079C531659141344CD1FD0A4F28419497F9722A3DAAFE3B4186F6B6457E0 PUSH1 0x40 MLOAD PUSH1 0x40 MLOAD DUP1 SWAP2 SUB SWAP1 LOG3 POP POP JUMP JUMPDEST PUSH2 0x2231 DUP1 PUSH3 0x130 PUSH1 0x0 CODECOPY PUSH1 0x0 RETURN INVALID PUSH1 0x80 PUSH1 0x40 MSTORE CALLVALUE DUP1 ISZERO PUSH2 0x10 JUMPI PUSH1 0x0 DUP1 REVERT JUMPDEST POP PUSH1 0x4 CALLDATASIZE LT PUSH2 0xA9 JUMPI PUSH1 0x0 CALLDATALOAD PUSH1 0xE0 SHR DUP1 PUSH4 0xB3CEA217 GT PUSH2 0x71 JUMPI DUP1 PUSH4 0xB3CEA217 EQ PUSH2 0x152 JUMPI DUP1 PUSH4 0xB4AE641C EQ PUSH2 0x170 JUMPI DUP1 PUSH4 0xB5E3029F EQ PUSH2 0x18E JUMPI DUP1 PUSH4 0xBD0DEA20 EQ PUSH2 0x1BE JUMPI DUP1 PUSH4 0xD0AEAE96 EQ PUSH2 0x1DA JUMPI DUP1 PUSH4 0xF2FDE38B EQ PUSH2 0x20A JUMPI PUSH2 0xA9 JUMP JUMPDEST DUP1 PUSH4 0x138F0727 EQ PUSH2 0xAE JUMPI DUP1 PUSH4 0x1C5A3E52 EQ PUSH2 0xDE JUMPI DUP1 PUSH4 0x3A4F2D24 EQ PUSH2 0xFA JUMPI DUP1 PUSH4 0x715018A6 EQ PUSH2 0x12A JUMPI DUP1 PUSH4 0x8DA5CB5B EQ PUSH2 0x134 JUMPI JUMPDEST PUSH1 0x0 DUP1 REVERT JUMPDEST PUSH2 0xC8 PUSH1 0x4 DUP1 CALLDATASIZE SUB DUP2 ADD SWAP1 PUSH2 0xC3 SWAP2 SWAP1 PUSH2 0x17A2 JUMP JUMPDEST PUSH2 0x226 JUMP JUMPDEST PUSH1 0x40 MLOAD PUSH2 0xD5 SWAP2 SWAP1 PUSH2 0x1B94 JUMP JUMPDEST PUSH1 0x40 MLOAD DUP1 SWAP2 SUB SWAP1 RETURN JUMPDEST PUSH2 0xF8 PUSH1 0x4 DUP1 CALLDATASIZE SUB DUP2 ADD SWAP1 PUSH2 0xF3 SWAP2 SWAP1 PUSH2 0x17CF JUMP JUMPDEST PUSH2 0x488 JUMP JUMPDEST STOP JUMPDEST PUSH2 0x114 PUSH1 0x4 DUP1 CALLDATASIZE SUB DUP2 ADD SWAP1 PUSH2 0x10F SWAP2 SWAP1 PUSH2 0x172A JUMP JUMPDEST PUSH2 0x665 JUMP JUMPDEST PUSH1 0x40 MLOAD PUSH2 0x121 SWAP2 SWAP1 PUSH2 0x1BD1 JUMP JUMPDEST PUSH1 0x40 MLOAD DUP1 SWAP2 SUB SWAP1 RETURN JUMPDEST PUSH2 0x132 PUSH2 0x83E JUMP JUMPDEST STOP JUMPDEST PUSH2 0x13C PUSH2 0x8C6 JUMP JUMPDEST PUSH1 0x40 MLOAD PUSH2 0x149 SWAP2 SWAP1 PUSH2 0x1A7E JUMP JUMPDEST PUSH1 0x40 MLOAD DUP1 SWAP2 SUB SWAP1 RETURN JUMPDEST PUSH2 0x15A PUSH2 0x8EF JUMP JUMPDEST PUSH1 0x40 MLOAD PUSH2 0x167 SWAP2 SWAP1 PUSH2 0x1BD1 JUMP JUMPDEST PUSH1 0x40 MLOAD DUP1 SWAP2 SUB SWAP1 RETURN JUMPDEST PUSH2 0x178 PUSH2 0x8F5 JUMP JUMPDEST PUSH1 0x40 MLOAD PUSH2 0x185 SWAP2 SWAP1 PUSH2 0x1BB6 JUMP JUMPDEST PUSH1 0x40 MLOAD DUP1 SWAP2 SUB SWAP1 RETURN JUMPDEST PUSH2 0x1A8 PUSH1 0x4 DUP1 CALLDATASIZE SUB DUP2 ADD SWAP1 PUSH2 0x1A3 SWAP2 SWAP1 PUSH2 0x17A2 JUMP JUMPDEST PUSH2 0x909 JUMP JUMPDEST PUSH1 0x40 MLOAD PUSH2 0x1B5 SWAP2 SWAP1 PUSH2 0x1A99 JUMP JUMPDEST PUSH1 0x40 MLOAD DUP1 SWAP2 SUB SWAP1 RETURN JUMPDEST PUSH2 0x1D8 PUSH1 0x4 DUP1 CALLDATASIZE SUB DUP2 ADD SWAP1 PUSH2 0x1D3 SWAP2 SWAP1 PUSH2 0x1669 JUMP JUMPDEST PUSH2 0xB69 JUMP JUMPDEST STOP JUMPDEST PUSH2 0x1F4 PUSH1 0x4 DUP1 CALLDATASIZE SUB DUP2 ADD SWAP1 PUSH2 0x1EF SWAP2 SWAP1 PUSH2 0x16E1 JUMP JUMPDEST PUSH2 0xE47 JUMP JUMPDEST PUSH1 0x40 MLOAD PUSH2 0x201 SWAP2 SWAP1 PUSH2 0x1A99 JUMP JUMPDEST PUSH1 0x40 MLOAD DUP1 SWAP2 SUB SWAP1 RETURN JUMPDEST PUSH2 0x224 PUSH1 0x4 DUP1 CALLDATASIZE SUB DUP2 ADD SWAP1 PUSH2 0x21F SWAP2 SWAP1 PUSH2 0x163C JUMP JUMPDEST PUSH2 0xF61 JUMP JUMPDEST STOP JUMPDEST PUSH2 0x22E PUSH2 0x134C JUMP JUMPDEST PUSH1 0x1 SLOAD DUP3 LT PUSH2 0x272 JUMPI PUSH1 0x40 MLOAD PUSH32 0x8C379A000000000000000000000000000000000000000000000000000000000 DUP2 MSTORE PUSH1 0x4 ADD PUSH2 0x269 SWAP1 PUSH2 0x1AB4 JUMP JUMPDEST PUSH1 0x40 MLOAD DUP1 SWAP2 SUB SWAP1 REVERT JUMPDEST PUSH1 0x0 PUSH1 0x2 PUSH1 0x0 DUP5 DUP2 MSTORE PUSH1 0x20 ADD SWAP1 DUP2 MSTORE PUSH1 0x20 ADD PUSH1 0x0 KECCAK256 PUSH1 0x40 MLOAD DUP1 PUSH1 0xC0 ADD PUSH1 0x40 MSTORE SWAP1 DUP2 PUSH1 0x0 DUP3 ADD PUSH1 0x0 SWAP1 SLOAD SWAP1 PUSH2 0x100 EXP SWAP1 DIV PUSH1 0xFF AND PUSH1 0x1 DUP2 GT ISZERO PUSH2 0x2B7 JUMPI PUSH2 0x2B6 PUSH2 0x1F2B JUMP JUMPDEST JUMPDEST PUSH1 0x1 DUP2 GT ISZERO PUSH2 0x2C9 JUMPI PUSH2 0x2C8 PUSH2 0x1F2B JUMP JUMPDEST JUMPDEST DUP2 MSTORE PUSH1 0x20 ADD PUSH1 0x1 DUP3 ADD DUP1 SLOAD PUSH2 0x2DD SWAP1 PUSH2 0x1E26 JUMP JUMPDEST DUP1 PUSH1 0x1F ADD PUSH1 0x20 DUP1 SWAP2 DIV MUL PUSH1 0x20 ADD PUSH1 0x40 MLOAD SWAP1 DUP2 ADD PUSH1 0x40 MSTORE DUP1 SWAP3 SWAP2 SWAP1 DUP2 DUP2 MSTORE PUSH1 0x20 ADD DUP3 DUP1 SLOAD PUSH2 0x309 SWAP1 PUSH2 0x1E26 JUMP JUMPDEST DUP1 ISZERO PUSH2 0x356 JUMPI DUP1 PUSH1 0x1F LT PUSH2 0x32B JUMPI PUSH2 0x100 DUP1 DUP4 SLOAD DIV MUL DUP4 MSTORE SWAP2 PUSH1 0x20 ADD SWAP2 PUSH2 0x356 JUMP JUMPDEST DUP3 ADD SWAP2 SWAP1 PUSH1 0x0 MSTORE PUSH1 0x20 PUSH1 0x0 KECCAK256 SWAP1 JUMPDEST DUP2 SLOAD DUP2 MSTORE SWAP1 PUSH1 0x1 ADD SWAP1 PUSH1 0x20 ADD DUP1 DUP4 GT PUSH2 0x339 JUMPI DUP3 SWAP1 SUB PUSH1 0x1F AND DUP3 ADD SWAP2 JUMPDEST POP POP POP POP POP DUP2 MSTORE PUSH1 0x20 ADD PUSH1 0x2 DUP3 ADD DUP1 SLOAD PUSH2 0x36F SWAP1 PUSH2 0x1E26 JUMP JUMPDEST DUP1 PUSH1 0x1F ADD PUSH1 0x20 DUP1 SWAP2 DIV MUL PUSH1 0x20 ADD PUSH1 0x40 MLOAD SWAP1 DUP2 ADD PUSH1 0x40 MSTORE DUP1 SWAP3 SWAP2 SWAP1 DUP2 DUP2 MSTORE PUSH1 0x20 ADD DUP3 DUP1 SLOAD PUSH2 0x39B SWAP1 PUSH2 0x1E26 JUMP JUMPDEST DUP1 ISZERO PUSH2 0x3E8 JUMPI DUP1 PUSH1 0x1F LT PUSH2 0x3BD JUMPI PUSH2 0x100 DUP1 DUP4 SLOAD DIV MUL DUP4 MSTORE SWAP2 PUSH1 0x20 ADD SWAP2 PUSH2 0x3E8 JUMP JUMPDEST DUP3 ADD SWAP2 SWAP1 PUSH1 0x0 MSTORE PUSH1 0x20 PUSH1 0x0 KECCAK256 SWAP1 JUMPDEST DUP2 SLOAD DUP2 MSTORE SWAP1 PUSH1 0x1 ADD SWAP1 PUSH1 0x20 ADD DUP1 DUP4 GT PUSH2 0x3CB JUMPI DUP3 SWAP1 SUB PUSH1 0x1F AND DUP3 ADD SWAP2 JUMPDEST POP POP POP POP POP DUP2 MSTORE PUSH1 0x20 ADD PUSH1 0x3 DUP3 ADD PUSH1 0x0 SWAP1 SLOAD SWAP1 PUSH2 0x100 EXP SWAP1 DIV PUSH1 0xFF AND ISZERO ISZERO ISZERO ISZERO DUP2 MSTORE PUSH1 0x20 ADD PUSH1 0x3 DUP3 ADD PUSH1 0x1 SWAP1 SLOAD SWAP1 PUSH2 0x100 EXP SWAP1 DIV PUSH1 0xFF AND ISZERO ISZERO ISZERO ISZERO DUP2 MSTORE PUSH1 0x20 ADD PUSH1 0x3 DUP3 ADD PUSH1 0x2 SWAP1 SLOAD SWAP1 PUSH2 0x100 EXP SWAP1 DIV PUSH20 0xFFFFFFFFFFFFFFFFFFFFFFFFFFFFFFFFFFFFFFFF AND PUSH20 0xFFFFFFFFFFFFFFFFFFFFFFFFFFFFFFFFFFFFFFFF AND PUSH20 0xFFFFFFFFFFFFFFFFFFFFFFFFFFFFFFFFFFFFFFFF AND DUP2 MSTORE POP POP SWAP1 POP DUP1 SWAP2 POP POP SWAP2 SWAP1 POP JUMP JUMPDEST PUSH2 0x490 PUSH2 0x1059 JUMP JUMPDEST PUSH20 0xFFFFFFFFFFFFFFFFFFFFFFFFFFFFFFFFFFFFFFFF AND PUSH2 0x4AE PUSH2 0x8C6 JUMP JUMPDEST PUSH20 0xFFFFFFFFFFFFFFFFFFFFFFFFFFFFFFFFFFFFFFFF AND EQ PUSH2 0x504 JUMPI PUSH1 0x40 MLOAD PUSH32 0x8C379A000000000000000000000000000000000000000000000000000000000 DUP2 MSTORE PUSH1 0x4 ADD PUSH2 0x4FB SWAP1 PUSH2 0x1B34 JUMP JUMPDEST PUSH1 0x40 MLOAD DUP1 SWAP2 SUB SWAP1 REVERT JUMPDEST PUSH1 0x0 ISZERO ISZERO PUSH1 0x2 PUSH1 0x0 DUP5 DUP2 MSTORE PUSH1 0x20 ADD SWAP1 DUP2 MSTORE PUSH1 0x20 ADD PUSH1 0x0 KECCAK256 PUSH1 0x3 ADD PUSH1 0x0 SWAP1 SLOAD SWAP1 PUSH2 0x100 EXP SWAP1 DIV PUSH1 0xFF AND ISZERO ISZERO EQ DUP1 ISZERO PUSH2 0x582 JUMPI POP PUSH1 0x0 PUSH1 0x1 DUP2 GT ISZERO PUSH2 0x54A JUMPI PUSH2 0x549 PUSH2 0x1F2B JUMP JUMPDEST JUMPDEST PUSH1 0x2 PUSH1 0x0 DUP5 DUP2 MSTORE PUSH1 0x20 ADD SWAP1 DUP2 MSTORE PUSH1 0x20 ADD PUSH1 0x0 KECCAK256 PUSH1 0x0 ADD PUSH1 0x0 SWAP1 SLOAD SWAP1 PUSH2 0x100 EXP SWAP1 DIV PUSH1 0xFF AND PUSH1 0x1 DUP2 GT ISZERO PUSH2 0x580 JUMPI PUSH2 0x57F PUSH2 0x1F2B JUMP JUMPDEST JUMPDEST EQ JUMPDEST PUSH2 0x5C1 JUMPI PUSH1 0x40 MLOAD PUSH32 0x8C379A000000000000000000000000000000000000000000000000000000000 DUP2 MSTORE PUSH1 0x4 ADD PUSH2 0x5B8 SWAP1 PUSH2 0x1B14 JUMP JUMPDEST PUSH1 0x40 MLOAD DUP1 SWAP2 SUB SWAP1 REVERT JUMPDEST DUP1 PUSH1 0x2 PUSH1 0x0 DUP5 DUP2 MSTORE PUSH1 0x20 ADD SWAP1 DUP2 MSTORE PUSH1 0x20 ADD PUSH1 0x0 KECCAK256 PUSH1 0x3 ADD PUSH1 0x1 PUSH2 0x100 EXP DUP2 SLOAD DUP2 PUSH1 0xFF MUL NOT AND SWAP1 DUP4 ISZERO ISZERO MUL OR SWAP1 SSTORE POP PUSH1 0x1 PUSH1 0x2 PUSH1 0x0 PUSH1 0x1 SLOAD DUP2 MSTORE PUSH1 0x20 ADD SWAP1 DUP2 MSTORE PUSH1 0x20 ADD PUSH1 0x0 KECCAK256 PUSH1 0x3 ADD PUSH1 0x0 PUSH2 0x100 EXP DUP2 SLOAD DUP2 PUSH1 0xFF MUL NOT AND SWAP1 DUP4 ISZERO ISZERO MUL OR SWAP1 SSTORE POP PUSH1 0x1 PUSH1 0x2 PUSH1 0x0 PUSH1 0x1 SLOAD DUP2 MSTORE PUSH1 0x20 ADD SWAP1 DUP2 MSTORE PUSH1 0x20 ADD PUSH1 0x0 KECCAK256 PUSH1 0x0 ADD PUSH1 0x0 PUSH2 0x100 EXP DUP2 SLOAD DUP2 PUSH1 0xFF MUL NOT AND SWAP1 DUP4 PUSH1 0x1 DUP2 GT ISZERO PUSH2 0x65C JUMPI PUSH2 0x65B PUSH2 0x1F2B JUMP JUMPDEST JUMPDEST MUL OR SWAP1 SSTORE POP POP POP JUMP JUMPDEST PUSH1 0x0 PUSH2 0x670 DUP4 PUSH2 0x1061 JUMP JUMPDEST DUP1 ISZERO PUSH2 0x681 JUMPI POP PUSH2 0x680 DUP3 PUSH2 0x1148 JUMP JUMPDEST JUMPDEST PUSH2 0x6C0 JUMPI PUSH1 0x40 MLOAD PUSH32 0x8C379A000000000000000000000000000000000000000000000000000000000 DUP2 MSTORE PUSH1 0x4 ADD PUSH2 0x6B7 SWAP1 PUSH2 0x1AF4 JUMP JUMPDEST PUSH1 0x40 MLOAD DUP1 SWAP2 SUB SWAP1 REVERT JUMPDEST DUP3 PUSH1 0x2 PUSH1 0x0 PUSH1 0x1 SLOAD DUP2 MSTORE PUSH1 0x20 ADD SWAP1 DUP2 MSTORE PUSH1 0x20 ADD PUSH1 0x0 KECCAK256 PUSH1 0x1 ADD SWAP1 DUP1 MLOAD SWAP1 PUSH1 0x20 ADD SWAP1 PUSH2 0x6EC SWAP3 SWAP2 SWAP1 PUSH2 0x13AE JUMP JUMPDEST POP DUP2 PUSH1 0x2 PUSH1 0x0 PUSH1 0x1 SLOAD DUP2 MSTORE PUSH1 0x20 ADD SWAP1 DUP2 MSTORE PUSH1 0x20 ADD PUSH1 0x0 KECCAK256 PUSH1 0x2 ADD SWAP1 DUP1 MLOAD SWAP1 PUSH1 0x20 ADD SWAP1 PUSH2 0x719 SWAP3 SWAP2 SWAP1 PUSH2 0x13AE JUMP JUMPDEST POP PUSH1 0x0 PUSH1 0x2 PUSH1 0x0 PUSH1 0x1 SLOAD DUP2 MSTORE PUSH1 0x20 ADD SWAP1 DUP2 MSTORE PUSH1 0x20 ADD PUSH1 0x0 KECCAK256 PUSH1 0x0 ADD PUSH1 0x0 PUSH2 0x100 EXP DUP2 SLOAD DUP2 PUSH1 0xFF MUL NOT AND SWAP1 DUP4 PUSH1 0x1 DUP2 GT ISZERO PUSH2 0x756 JUMPI PUSH2 0x755 PUSH2 0x1F2B JUMP JUMPDEST JUMPDEST MUL OR SWAP1 SSTORE POP PUSH1 0x0 PUSH1 0x2 PUSH1 0x0 PUSH1 0x1 SLOAD DUP2 MSTORE PUSH1 0x20 ADD SWAP1 DUP2 MSTORE PUSH1 0x20 ADD PUSH1 0x0 KECCAK256 PUSH1 0x3 ADD PUSH1 0x0 PUSH2 0x100 EXP DUP2 SLOAD DUP2 PUSH1 0xFF MUL NOT AND SWAP1 DUP4 ISZERO ISZERO MUL OR SWAP1 SSTORE POP PUSH1 0x0 PUSH1 0x2 PUSH1 0x0 PUSH1 0x1 SLOAD DUP2 MSTORE PUSH1 0x20 ADD SWAP1 DUP2 MSTORE PUSH1 0x20 ADD PUSH1 0x0 KECCAK256 PUSH1 0x3 ADD PUSH1 0x1 PUSH2 0x100 EXP DUP2 SLOAD DUP2 PUSH1 0xFF MUL NOT AND SWAP1 DUP4 ISZERO ISZERO MUL OR SWAP1 SSTORE POP CALLER PUSH1 0x2 PUSH1 0x0 PUSH1 0x1 SLOAD DUP2 MSTORE PUSH1 0x20 ADD SWAP1 DUP2 MSTORE PUSH1 0x20 ADD PUSH1 0x0 KECCAK256 PUSH1 0x3 ADD PUSH1 0x2 PUSH2 0x100 EXP DUP2 SLOAD DUP2 PUSH20 0xFFFFFFFFFFFFFFFFFFFFFFFFFFFFFFFFFFFFFFFF MUL NOT AND SWAP1 DUP4 PUSH20 0xFFFFFFFFFFFFFFFFFFFFFFFFFFFFFFFFFFFFFFFF AND MUL OR SWAP1 SSTORE POP PUSH1 0x1 DUP1 SLOAD PUSH2 0x822 SWAP2 SWAP1 PUSH2 0x1CD2 JUMP JUMPDEST PUSH1 0x1 DUP2 SWAP1 SSTORE POP PUSH1 0x1 DUP1 SLOAD PUSH2 0x836 SWAP2 SWAP1 PUSH2 0x1D28 JUMP JUMPDEST SWAP1 POP SWAP3 SWAP2 POP POP JUMP JUMPDEST PUSH2 0x846 PUSH2 0x1059 JUMP JUMPDEST PUSH20 0xFFFFFFFFFFFFFFFFFFFFFFFFFFFFFFFFFFFFFFFF AND PUSH2 0x864 PUSH2 0x8C6 JUMP JUMPDEST PUSH20 0xFFFFFFFFFFFFFFFFFFFFFFFFFFFFFFFFFFFFFFFF AND EQ PUSH2 0x8BA JUMPI PUSH1 0x40 MLOAD PUSH32 0x8C379A000000000000000000000000000000000000000000000000000000000 DUP2 MSTORE PUSH1 0x4 ADD PUSH2 0x8B1 SWAP1 PUSH2 0x1B34 JUMP JUMPDEST PUSH1 0x40 MLOAD DUP1 SWAP2 SUB SWAP1 REVERT JUMPDEST PUSH2 0x8C4 PUSH1 0x0 PUSH2 0x122F JUMP JUMPDEST JUMP JUMPDEST PUSH1 0x0 DUP1 PUSH1 0x0 SWAP1 SLOAD SWAP1 PUSH2 0x100 EXP SWAP1 DIV PUSH20 0xFFFFFFFFFFFFFFFFFFFFFFFFFFFFFFFFFFFFFFFF AND SWAP1 POP SWAP1 JUMP JUMPDEST PUSH1 0x1 SLOAD DUP2 JUMP JUMPDEST PUSH1 0x0 PUSH1 0x14 SWAP1 SLOAD SWAP1 PUSH2 0x100 EXP SWAP1 DIV PUSH2 0xFFFF AND DUP2 JUMP JUMPDEST PUSH1 0x0 PUSH1 0x1 SLOAD DUP3 LT PUSH2 0x94F JUMPI PUSH1 0x40 MLOAD PUSH32 0x8C379A000000000000000000000000000000000000000000000000000000000 DUP2 MSTORE PUSH1 0x4 ADD PUSH2 0x946 SWAP1 PUSH2 0x1AB4 JUMP JUMPDEST PUSH1 0x40 MLOAD DUP1 SWAP2 SUB SWAP1 REVERT JUMPDEST PUSH1 0x0 PUSH1 0x2 PUSH1 0x0 DUP5 DUP2 MSTORE PUSH1 0x20 ADD SWAP1 DUP2 MSTORE PUSH1 0x20 ADD PUSH1 0x0 KECCAK256 PUSH1 0x40 MLOAD DUP1 PUSH1 0xC0 ADD PUSH1 0x40 MSTORE SWAP1 DUP2 PUSH1 0x0 DUP3 ADD PUSH1 0x0 SWAP1 SLOAD SWAP1 PUSH2 0x100 EXP SWAP1 DIV PUSH1 0xFF AND PUSH1 0x1 DUP2 GT ISZERO PUSH2 0x994 JUMPI PUSH2 0x993 PUSH2 0x1F2B JUMP JUMPDEST JUMPDEST PUSH1 0x1 DUP2 GT ISZERO PUSH2 0x9A6 JUMPI PUSH2 0x9A5 PUSH2 0x1F2B JUMP JUMPDEST JUMPDEST DUP2 MSTORE PUSH1 0x20 ADD PUSH1 0x1 DUP3 ADD DUP1 SLOAD PUSH2 0x9BA SWAP1 PUSH2 0x1E26 JUMP JUMPDEST DUP1 PUSH1 0x1F ADD PUSH1 0x20 DUP1 SWAP2 DIV MUL PUSH1 0x20 ADD PUSH1 0x40 MLOAD SWAP1 DUP2 ADD PUSH1 0x40 MSTORE DUP1 SWAP3 SWAP2 SWAP1 DUP2 DUP2 MSTORE PUSH1 0x20 ADD DUP3 DUP1 SLOAD PUSH2 0x9E6 SWAP1 PUSH2 0x1E26 JUMP JUMPDEST DUP1 ISZERO PUSH2 0xA33 JUMPI DUP1 PUSH1 0x1F LT PUSH2 0xA08 JUMPI PUSH2 0x100 DUP1 DUP4 SLOAD DIV MUL DUP4 MSTORE SWAP2 PUSH1 0x20 ADD SWAP2 PUSH2 0xA33 JUMP JUMPDEST DUP3 ADD SWAP2 SWAP1 PUSH1 0x0 MSTORE PUSH1 0x20 PUSH1 0x0 KECCAK256 SWAP1 JUMPDEST DUP2 SLOAD DUP2 MSTORE SWAP1 PUSH1 0x1 ADD SWAP1 PUSH1 0x20 ADD DUP1 DUP4 GT PUSH2 0xA16 JUMPI DUP3 SWAP1 SUB PUSH1 0x1F AND DUP3 ADD SWAP2 JUMPDEST POP POP POP POP POP DUP2 MSTORE PUSH1 0x20 ADD PUSH1 0x2 DUP3 ADD DUP1 SLOAD PUSH2 0xA4C SWAP1 PUSH2 0x1E26 JUMP JUMPDEST DUP1 PUSH1 0x1F ADD PUSH1 0x20 DUP1 SWAP2 DIV MUL PUSH1 0x20 ADD PUSH1 0x40 MLOAD SWAP1 DUP2 ADD PUSH1 0x40 MSTORE DUP1 SWAP3 SWAP2 SWAP1 DUP2 DUP2 MSTORE PUSH1 0x20 ADD DUP3 DUP1 SLOAD PUSH2 0xA78 SWAP1 PUSH2 0x1E26 JUMP JUMPDEST DUP1 ISZERO PUSH2 0xAC5 JUMPI DUP1 PUSH1 0x1F LT PUSH2 0xA9A JUMPI PUSH2 0x100 DUP1 DUP4 SLOAD DIV MUL DUP4 MSTORE SWAP2 PUSH1 0x20 ADD SWAP2 PUSH2 0xAC5 JUMP JUMPDEST DUP3 ADD SWAP2 SWAP1 PUSH1 0x0 MSTORE PUSH1 0x20 PUSH1 0x0 KECCAK256 SWAP1 JUMPDEST DUP2 SLOAD DUP2 MSTORE SWAP1 PUSH1 0x1 ADD SWAP1 PUSH1 0x20 ADD DUP1 DUP4 GT PUSH2 0xAA8 JUMPI DUP3 SWAP1 SUB PUSH1 0x1F AND DUP3 ADD SWAP2 JUMPDEST POP POP POP POP POP DUP2 MSTORE PUSH1 0x20 ADD PUSH1 0x3 DUP3 ADD PUSH1 0x0 SWAP1 SLOAD SWAP1 PUSH2 0x100 EXP SWAP1 DIV PUSH1 0xFF AND ISZERO ISZERO ISZERO ISZERO DUP2 MSTORE PUSH1 0x20 ADD PUSH1 0x3 DUP3 ADD PUSH1 0x1 SWAP1 SLOAD SWAP1 PUSH2 0x100 EXP SWAP1 DIV PUSH1 0xFF AND ISZERO ISZERO ISZERO ISZERO DUP2 MSTORE PUSH1 0x20 ADD PUSH1 0x3 DUP3 ADD PUSH1 0x2 SWAP1 SLOAD SWAP1 PUSH2 0x100 EXP SWAP1 DIV PUSH20 0xFFFFFFFFFFFFFFFFFFFFFFFFFFFFFFFFFFFFFFFF AND PUSH20 0xFFFFFFFFFFFFFFFFFFFFFFFFFFFFFFFFFFFFFFFF AND PUSH20 0xFFFFFFFFFFFFFFFFFFFFFFFFFFFFFFFFFFFFFFFF AND DUP2 MSTORE POP POP SWAP1 POP DUP1 PUSH1 0x80 ADD MLOAD SWAP2 POP POP SWAP2 SWAP1 POP JUMP JUMPDEST PUSH2 0xB71 PUSH2 0x1059 JUMP JUMPDEST PUSH20 0xFFFFFFFFFFFFFFFFFFFFFFFFFFFFFFFFFFFFFFFF AND PUSH2 0xB8F PUSH2 0x8C6 JUMP JUMPDEST PUSH20 0xFFFFFFFFFFFFFFFFFFFFFFFFFFFFFFFFFFFFFFFF AND EQ PUSH2 0xBE5 JUMPI PUSH1 0x40 MLOAD PUSH32 0x8C379A000000000000000000000000000000000000000000000000000000000 DUP2 MSTORE PUSH1 0x4 ADD PUSH2 0xBDC SWAP1 PUSH2 0x1B34 JUMP JUMPDEST PUSH1 0x40 MLOAD DUP1 SWAP2 SUB SWAP1 REVERT JUMPDEST PUSH1 0x0 PUSH1 0x14 SWAP1 SLOAD SWAP1 PUSH2 0x100 EXP SWAP1 DIV PUSH2 0xFFFF AND PUSH2 0xFFFF AND DUP3 MLOAD GT ISZERO PUSH2 0xC3D JUMPI PUSH1 0x40 MLOAD PUSH32 0x8C379A000000000000000000000000000000000000000000000000000000000 DUP2 MSTORE PUSH1 0x4 ADD PUSH2 0xC34 SWAP1 PUSH2 0x1B74 JUMP JUMPDEST PUSH1 0x40 MLOAD DUP1 SWAP2 SUB SWAP1 REVERT JUMPDEST DUP1 MLOAD DUP3 MLOAD EQ PUSH2 0xC81 JUMPI PUSH1 0x40 MLOAD PUSH32 0x8C379A000000000000000000000000000000000000000000000000000000000 DUP2 MSTORE PUSH1 0x4 ADD PUSH2 0xC78 SWAP1 PUSH2 0x1B54 JUMP JUMPDEST PUSH1 0x40 MLOAD DUP1 SWAP2 SUB SWAP1 REVERT JUMPDEST PUSH1 0x0 JUMPDEST DUP3 MLOAD DUP2 PUSH1 0xFF AND LT ISZERO PUSH2 0xE42 JUMPI PUSH1 0x0 DUP4 DUP3 PUSH1 0xFF AND DUP2 MLOAD DUP2 LT PUSH2 0xCA8 JUMPI PUSH2 0xCA7 PUSH2 0x1F89 JUMP JUMPDEST JUMPDEST PUSH1 0x20 MUL PUSH1 0x20 ADD ADD MLOAD SWAP1 POP PUSH1 0x0 DUP4 DUP4 PUSH1 0xFF AND DUP2 MLOAD DUP2 LT PUSH2 0xCCA JUMPI PUSH2 0xCC9 PUSH2 0x1F89 JUMP JUMPDEST JUMPDEST PUSH1 0x20 MUL PUSH1 0x20 ADD ADD MLOAD SWAP1 POP PUSH1 0x0 ISZERO ISZERO PUSH1 0x2 PUSH1 0x0 DUP5 DUP2 MSTORE PUSH1 0x20 ADD SWAP1 DUP2 MSTORE PUSH1 0x20 ADD PUSH1 0x0 KECCAK256 PUSH1 0x3 ADD PUSH1 0x0 SWAP1 SLOAD SWAP1 PUSH2 0x100 EXP SWAP1 DIV PUSH1 0xFF AND ISZERO ISZERO EQ DUP1 ISZERO PUSH2 0xD52 JUMPI POP PUSH1 0x0 PUSH1 0x1 DUP2 GT ISZERO PUSH2 0xD1A JUMPI PUSH2 0xD19 PUSH2 0x1F2B JUMP JUMPDEST JUMPDEST PUSH1 0x2 PUSH1 0x0 DUP5 DUP2 MSTORE PUSH1 0x20 ADD SWAP1 DUP2 MSTORE PUSH1 0x20 ADD PUSH1 0x0 KECCAK256 PUSH1 0x0 ADD PUSH1 0x0 SWAP1 SLOAD SWAP1 PUSH2 0x100 EXP SWAP1 DIV PUSH1 0xFF AND PUSH1 0x1 DUP2 GT ISZERO PUSH2 0xD50 JUMPI PUSH2 0xD4F PUSH2 0x1F2B JUMP JUMPDEST JUMPDEST EQ JUMPDEST PUSH2 0xD91 JUMPI PUSH1 0x40 MLOAD PUSH32 0x8C379A000000000000000000000000000000000000000000000000000000000 DUP2 MSTORE PUSH1 0x4 ADD PUSH2 0xD88 SWAP1 PUSH2 0x1B14 JUMP JUMPDEST PUSH1 0x40 MLOAD DUP1 SWAP2 SUB SWAP1 REVERT JUMPDEST DUP1 PUSH1 0x2 PUSH1 0x0 DUP5 DUP2 MSTORE PUSH1 0x20 ADD SWAP1 DUP2 MSTORE PUSH1 0x20 ADD PUSH1 0x0 KECCAK256 PUSH1 0x3 ADD PUSH1 0x1 PUSH2 0x100 EXP DUP2 SLOAD DUP2 PUSH1 0xFF MUL NOT AND SWAP1 DUP4 ISZERO ISZERO MUL OR SWAP1 SSTORE POP PUSH1 0x1 PUSH1 0x2 PUSH1 0x0 DUP5 DUP2 MSTORE PUSH1 0x20 ADD SWAP1 DUP2 MSTORE PUSH1 0x20 ADD PUSH1 0x0 KECCAK256 PUSH1 0x3 ADD PUSH1 0x0 PUSH2 0x100 EXP DUP2 SLOAD DUP2 PUSH1 0xFF MUL NOT AND SWAP1 DUP4 ISZERO ISZERO MUL OR SWAP1 SSTORE POP PUSH1 0x1 PUSH1 0x2 PUSH1 0x0 DUP5 DUP2 MSTORE PUSH1 0x20 ADD SWAP1 DUP2 MSTORE PUSH1 0x20 ADD PUSH1 0x0 KECCAK256 PUSH1 0x0 ADD PUSH1 0x0 PUSH2 0x100 EXP DUP2 SLOAD DUP2 PUSH1 0xFF MUL NOT AND SWAP1 DUP4 PUSH1 0x1 DUP2 GT ISZERO PUSH2 0xE28 JUMPI PUSH2 0xE27 PUSH2 0x1F2B JUMP JUMPDEST JUMPDEST MUL OR SWAP1 SSTORE POP POP POP DUP1 DUP1 PUSH2 0xE3A SWAP1 PUSH2 0x1ED2 JUMP JUMPDEST SWAP2 POP POP PUSH2 0xC84 JUMP JUMPDEST POP POP POP JUMP JUMPDEST PUSH1 0x0 DUP1 PUSH1 0x0 SWAP1 POP JUMPDEST PUSH1 0x1 SLOAD DUP2 LT ISZERO PUSH2 0xF56 JUMPI PUSH2 0xF01 PUSH1 0x2 PUSH1 0x0 DUP4 DUP2 MSTORE PUSH1 0x20 ADD SWAP1 DUP2 MSTORE PUSH1 0x20 ADD PUSH1 0x0 KECCAK256 PUSH1 0x1 ADD DUP1 SLOAD PUSH2 0xE7D SWAP1 PUSH2 0x1E26 JUMP JUMPDEST DUP1 PUSH1 0x1F ADD PUSH1 0x20 DUP1 SWAP2 DIV MUL PUSH1 0x20 ADD PUSH1 0x40 MLOAD SWAP1 DUP2 ADD PUSH1 0x40 MSTORE DUP1 SWAP3 SWAP2 SWAP1 DUP2 DUP2 MSTORE PUSH1 0x20 ADD DUP3 DUP1 SLOAD PUSH2 0xEA9 SWAP1 PUSH2 0x1E26 JUMP JUMPDEST DUP1 ISZERO PUSH2 0xEF6 JUMPI DUP1 PUSH1 0x1F LT PUSH2 0xECB JUMPI PUSH2 0x100 DUP1 DUP4 SLOAD DIV MUL DUP4 MSTORE SWAP2 PUSH1 0x20 ADD SWAP2 PUSH2 0xEF6 JUMP JUMPDEST DUP3 ADD SWAP2 SWAP1 PUSH1 0x0 MSTORE PUSH1 0x20 PUSH1 0x0 KECCAK256 SWAP1 JUMPDEST DUP2 SLOAD DUP2 MSTORE SWAP1 PUSH1 0x1 ADD SWAP1 PUSH1 0x20 ADD DUP1 DUP4 GT PUSH2 0xED9 JUMPI DUP3 SWAP1 SUB PUSH1 0x1F AND DUP3 ADD SWAP2 JUMPDEST POP POP POP POP POP DUP5 PUSH2 0x12F3 JUMP JUMPDEST DUP1 ISZERO PUSH2 0xF34 JUMPI POP PUSH1 0x1 ISZERO ISZERO PUSH1 0x2 PUSH1 0x0 DUP4 DUP2 MSTORE PUSH1 0x20 ADD SWAP1 DUP2 MSTORE PUSH1 0x20 ADD PUSH1 0x0 KECCAK256 PUSH1 0x3 ADD PUSH1 0x1 SWAP1 SLOAD SWAP1 PUSH2 0x100 EXP SWAP1 DIV PUSH1 0xFF AND ISZERO ISZERO EQ JUMPDEST ISZERO PUSH2 0xF43 JUMPI PUSH1 0x1 SWAP2 POP POP PUSH2 0xF5C JUMP JUMPDEST DUP1 DUP1 PUSH2 0xF4E SWAP1 PUSH2 0x1E89 JUMP JUMPDEST SWAP2 POP POP PUSH2 0xE4F JUMP JUMPDEST POP PUSH1 0x0 SWAP1 POP JUMPDEST SWAP2 SWAP1 POP JUMP JUMPDEST PUSH2 0xF69 PUSH2 0x1059 JUMP JUMPDEST PUSH20 0xFFFFFFFFFFFFFFFFFFFFFFFFFFFFFFFFFFFFFFFF AND PUSH2 0xF87 PUSH2 0x8C6 JUMP JUMPDEST PUSH20 0xFFFFFFFFFFFFFFFFFFFFFFFFFFFFFFFFFFFFFFFF AND EQ PUSH2 0xFDD JUMPI PUSH1 0x40 MLOAD PUSH32 0x8C379A000000000000000000000000000000000000000000000000000000000 DUP2 MSTORE PUSH1 0x4 ADD PUSH2 0xFD4 SWAP1 PUSH2 0x1B34 JUMP JUMPDEST PUSH1 0x40 MLOAD DUP1 SWAP2 SUB SWAP1 REVERT JUMPDEST PUSH1 0x0 PUSH20 0xFFFFFFFFFFFFFFFFFFFFFFFFFFFFFFFFFFFFFFFF AND DUP2 PUSH20 0xFFFFFFFFFFFFFFFFFFFFFFFFFFFFFFFFFFFFFFFF AND EQ ISZERO PUSH2 0x104D JUMPI PUSH1 0x40 MLOAD PUSH32 0x8C379A000000000000000000000000000000000000000000000000000000000 DUP2 MSTORE PUSH1 0x4 ADD PUSH2 0x1044 SWAP1 PUSH2 0x1AD4 JUMP JUMPDEST PUSH1 0x40 MLOAD DUP1 SWAP2 SUB SWAP1 REVERT JUMPDEST PUSH2 0x1056 DUP2 PUSH2 0x122F JUMP JUMPDEST POP JUMP JUMPDEST PUSH1 0x0 CALLER SWAP1 POP SWAP1 JUMP JUMPDEST PUSH1 0x0 DUP1 PUSH1 0x0 SWAP1 POP JUMPDEST PUSH1 0x1 SLOAD DUP2 LT ISZERO PUSH2 0x113D JUMPI PUSH2 0x111B PUSH1 0x2 PUSH1 0x0 DUP4 DUP2 MSTORE PUSH1 0x20 ADD SWAP1 DUP2 MSTORE PUSH1 0x20 ADD PUSH1 0x0 KECCAK256 PUSH1 0x1 ADD DUP1 SLOAD PUSH2 0x1097 SWAP1 PUSH2 0x1E26 JUMP JUMPDEST DUP1 PUSH1 0x1F ADD PUSH1 0x20 DUP1 SWAP2 DIV MUL PUSH1 0x20 ADD PUSH1 0x40 MLOAD SWAP1 DUP2 ADD PUSH1 0x40 MSTORE DUP1 SWAP3 SWAP2 SWAP1 DUP2 DUP2 MSTORE PUSH1 0x20 ADD DUP3 DUP1 SLOAD PUSH2 0x10C3 SWAP1 PUSH2 0x1E26 JUMP JUMPDEST DUP1 ISZERO PUSH2 0x1110 JUMPI DUP1 PUSH1 0x1F LT PUSH2 0x10E5 JUMPI PUSH2 0x100 DUP1 DUP4 SLOAD DIV MUL DUP4 MSTORE SWAP2 PUSH1 0x20 ADD SWAP2 PUSH2 0x1110 JUMP JUMPDEST DUP3 ADD SWAP2 SWAP1 PUSH1 0x0 MSTORE PUSH1 0x20 PUSH1 0x0 KECCAK256 SWAP1 JUMPDEST DUP2 SLOAD DUP2 MSTORE SWAP1 PUSH1 0x1 ADD SWAP1 PUSH1 0x20 ADD DUP1 DUP4 GT PUSH2 0x10F3 JUMPI DUP3 SWAP1 SUB PUSH1 0x1F AND DUP3 ADD SWAP2 JUMPDEST POP POP POP POP POP DUP5 PUSH2 0x12F3 JUMP JUMPDEST ISZERO PUSH2 0x112A JUMPI PUSH1 0x0 SWAP2 POP POP PUSH2 0x1143 JUMP JUMPDEST DUP1 DUP1 PUSH2 0x1135 SWAP1 PUSH2 0x1E89 JUMP JUMPDEST SWAP2 POP POP PUSH2 0x1069 JUMP JUMPDEST POP PUSH1 0x1 SWAP1 POP JUMPDEST SWAP2 SWAP1 POP JUMP JUMPDEST PUSH1 0x0 DUP1 PUSH1 0x0 SWAP1 POP JUMPDEST PUSH1 0x1 SLOAD DUP2 LT ISZERO PUSH2 0x1224 JUMPI PUSH2 0x1202 PUSH1 0x2 PUSH1 0x0 DUP4 DUP2 MSTORE PUSH1 0x20 ADD SWAP1 DUP2 MSTORE PUSH1 0x20 ADD PUSH1 0x0 KECCAK256 PUSH1 0x2 ADD DUP1 SLOAD PUSH2 0x117E SWAP1 PUSH2 0x1E26 JUMP JUMPDEST DUP1 PUSH1 0x1F ADD PUSH1 0x20 DUP1 SWAP2 DIV MUL PUSH1 0x20 ADD PUSH1 0x40 MLOAD SWAP1 DUP2 ADD PUSH1 0x40 MSTORE DUP1 SWAP3 SWAP2 SWAP1 DUP2 DUP2 MSTORE PUSH1 0x20 ADD DUP3 DUP1 SLOAD PUSH2 0x11AA SWAP1 PUSH2 0x1E26 JUMP JUMPDEST DUP1 ISZERO PUSH2 0x11F7 JUMPI DUP1 PUSH1 0x1F LT PUSH2 0x11CC JUMPI PUSH2 0x100 DUP1 DUP4 SLOAD DIV MUL DUP4 MSTORE SWAP2 PUSH1 0x20 ADD SWAP2 PUSH2 0x11F7 JUMP JUMPDEST DUP3 ADD SWAP2 SWAP1 PUSH1 0x0 MSTORE PUSH1 0x20 PUSH1 0x0 KECCAK256 SWAP1 JUMPDEST DUP2 SLOAD DUP2 MSTORE SWAP1 PUSH1 0x1 ADD SWAP1 PUSH1 0x20 ADD DUP1 DUP4 GT PUSH2 0x11DA JUMPI DUP3 SWAP1 SUB PUSH1 0x1F AND DUP3 ADD SWAP2 JUMPDEST POP POP POP POP POP DUP5 PUSH2 0x12F3 JUMP JUMPDEST ISZERO PUSH2 0x1211 JUMPI PUSH1 0x0 SWAP2 POP POP PUSH2 0x122A JUMP JUMPDEST DUP1 DUP1 PUSH2 0x121C SWAP1 PUSH2 0x1E89 JUMP JUMPDEST SWAP2 POP POP PUSH2 0x1150 JUMP JUMPDEST POP PUSH1 0x1 SWAP1 POP JUMPDEST SWAP2 SWAP1 POP JUMP JUMPDEST PUSH1 0x0 DUP1 PUSH1 0x0 SWAP1 SLOAD SWAP1 PUSH2 0x100 EXP SWAP1 DIV PUSH20 0xFFFFFFFFFFFFFFFFFFFFFFFFFFFFFFFFFFFFFFFF AND SWAP1 POP DUP2 PUSH1 0x0 DUP1 PUSH2 0x100 EXP DUP2 SLOAD DUP2 PUSH20 0xFFFFFFFFFFFFFFFFFFFFFFFFFFFFFFFFFFFFFFFF MUL NOT AND SWAP1 DUP4 PUSH20 0xFFFFFFFFFFFFFFFFFFFFFFFFFFFFFFFFFFFFFFFF AND MUL OR SWAP1 SSTORE POP DUP2 PUSH20 0xFFFFFFFFFFFFFFFFFFFFFFFFFFFFFFFFFFFFFFFF AND DUP2 PUSH20 0xFFFFFFFFFFFFFFFFFFFFFFFFFFFFFFFFFFFFFFFF AND PUSH32 0x8BE0079C531659141344CD1FD0A4F28419497F9722A3DAAFE3B4186F6B6457E0 PUSH1 0x40 MLOAD PUSH1 0x40 MLOAD DUP1 SWAP2 SUB SWAP1 LOG3 POP POP JUMP JUMPDEST PUSH1 0x0 DUP2 PUSH1 0x40 MLOAD PUSH1 0x20 ADD PUSH2 0x1306 SWAP2 SWAP1 PUSH2 0x1A67 JUMP JUMPDEST PUSH1 0x40 MLOAD PUSH1 0x20 DUP2 DUP4 SUB SUB DUP2 MSTORE SWAP1 PUSH1 0x40 MSTORE DUP1 MLOAD SWAP1 PUSH1 0x20 ADD KECCAK256 DUP4 PUSH1 0x40 MLOAD PUSH1 0x20 ADD PUSH2 0x132D SWAP2 SWAP1 PUSH2 0x1A67 JUMP JUMPDEST PUSH1 0x40 MLOAD PUSH1 0x20 DUP2 DUP4 SUB SUB DUP2 MSTORE SWAP1 PUSH1 0x40 MSTORE DUP1 MLOAD SWAP1 PUSH1 0x20 ADD KECCAK256 EQ SWAP1 POP SWAP3 SWAP2 POP POP JUMP JUMPDEST PUSH1 0x40 MLOAD DUP1 PUSH1 0xC0 ADD PUSH1 0x40 MSTORE DUP1 PUSH1 0x0 PUSH1 0x1 DUP2 GT ISZERO PUSH2 0x136B JUMPI PUSH2 0x136A PUSH2 0x1F2B JUMP JUMPDEST JUMPDEST DUP2 MSTORE PUSH1 0x20 ADD PUSH1 0x60 DUP2 MSTORE PUSH1 0x20 ADD PUSH1 0x60 DUP2 MSTORE PUSH1 0x20 ADD PUSH1 0x0 ISZERO ISZERO DUP2 MSTORE PUSH1 0x20 ADD PUSH1 0x0 ISZERO ISZERO DUP2 MSTORE PUSH1 0x20 ADD PUSH1 0x0 PUSH20 0xFFFFFFFFFFFFFFFFFFFFFFFFFFFFFFFFFFFFFFFF AND DUP2 MSTORE POP SWAP1 JUMP JUMPDEST DUP3 DUP1 SLOAD PUSH2 0x13BA SWAP1 PUSH2 0x1E26 JUMP JUMPDEST SWAP1 PUSH1 0x0 MSTORE PUSH1 0x20 PUSH1 0x0 KECCAK256 SWAP1 PUSH1 0x1F ADD PUSH1 0x20 SWAP1 DIV DUP2 ADD SWAP3 DUP3 PUSH2 0x13DC JUMPI PUSH1 0x0 DUP6 SSTORE PUSH2 0x1423 JUMP JUMPDEST DUP3 PUSH1 0x1F LT PUSH2 0x13F5 JUMPI DUP1 MLOAD PUSH1 0xFF NOT AND DUP4 DUP1 ADD OR DUP6 SSTORE PUSH2 0x1423 JUMP JUMPDEST DUP3 DUP1 ADD PUSH1 0x1 ADD DUP6 SSTORE DUP3 ISZERO PUSH2 0x1423 JUMPI SWAP2 DUP3 ADD JUMPDEST DUP3 DUP2 GT ISZERO PUSH2 0x1422 JUMPI DUP3 MLOAD DUP3 SSTORE SWAP2 PUSH1 0x20 ADD SWAP2 SWAP1 PUSH1 0x1 ADD SWAP1 PUSH2 0x1407 JUMP JUMPDEST JUMPDEST POP SWAP1 POP PUSH2 0x1430 SWAP2 SWAP1 PUSH2 0x1434 JUMP JUMPDEST POP SWAP1 JUMP JUMPDEST JUMPDEST DUP1 DUP3 GT ISZERO PUSH2 0x144D JUMPI PUSH1 0x0 DUP2 PUSH1 0x0 SWAP1 SSTORE POP PUSH1 0x1 ADD PUSH2 0x1435 JUMP JUMPDEST POP SWAP1 JUMP JUMPDEST PUSH1 0x0 PUSH2 0x1464 PUSH2 0x145F DUP5 PUSH2 0x1C11 JUMP JUMPDEST PUSH2 0x1BEC JUMP JUMPDEST SWAP1 POP DUP1 DUP4 DUP3 MSTORE PUSH1 0x20 DUP3 ADD SWAP1 POP DUP3 DUP6 PUSH1 0x20 DUP7 MUL DUP3 ADD GT ISZERO PUSH2 0x1487 JUMPI PUSH2 0x1486 PUSH2 0x1FEC JUMP JUMPDEST JUMPDEST PUSH1 0x0 JUMPDEST DUP6 DUP2 LT ISZERO PUSH2 0x14B7 JUMPI DUP2 PUSH2 0x149D DUP9 DUP3 PUSH2 0x15E4 JUMP JUMPDEST DUP5 MSTORE PUSH1 0x20 DUP5 ADD SWAP4 POP PUSH1 0x20 DUP4 ADD SWAP3 POP POP PUSH1 0x1 DUP2 ADD SWAP1 POP PUSH2 0x148A JUMP JUMPDEST POP POP POP SWAP4 SWAP3 POP POP POP JUMP JUMPDEST PUSH1 0x0 PUSH2 0x14D4 PUSH2 0x14CF DUP5 PUSH2 0x1C3D JUMP JUMPDEST PUSH2 0x1BEC JUMP JUMPDEST SWAP1 POP DUP1 DUP4 DUP3 MSTORE PUSH1 0x20 DUP3 ADD SWAP1 POP DUP3 DUP6 PUSH1 0x20 DUP7 MUL DUP3 ADD GT ISZERO PUSH2 0x14F7 JUMPI PUSH2 0x14F6 PUSH2 0x1FEC JUMP JUMPDEST JUMPDEST PUSH1 0x0 JUMPDEST DUP6 DUP2 LT ISZERO PUSH2 0x1527 JUMPI DUP2 PUSH2 0x150D DUP9 DUP3 PUSH2 0x1627 JUMP JUMPDEST DUP5 MSTORE PUSH1 0x20 DUP5 ADD SWAP4 POP PUSH1 0x20 DUP4 ADD SWAP3 POP POP PUSH1 0x1 DUP2 ADD SWAP1 POP PUSH2 0x14FA JUMP JUMPDEST POP POP POP SWAP4 SWAP3 POP POP POP JUMP JUMPDEST PUSH1 0x0 PUSH2 0x1544 PUSH2 0x153F DUP5 PUSH2 0x1C69 JUMP JUMPDEST PUSH2 0x1BEC JUMP JUMPDEST SWAP1 POP DUP3 DUP2 MSTORE PUSH1 0x20 DUP2 ADD DUP5 DUP5 DUP5 ADD GT ISZERO PUSH2 0x1560 JUMPI PUSH2 0x155F PUSH2 0x1FF1 JUMP JUMPDEST JUMPDEST PUSH2 0x156B DUP5 DUP3 DUP6 PUSH2 0x1DE4 JUMP JUMPDEST POP SWAP4 SWAP3 POP POP POP JUMP JUMPDEST PUSH1 0x0 DUP2 CALLDATALOAD SWAP1 POP PUSH2 0x1582 DUP2 PUSH2 0x21B6 JUMP JUMPDEST SWAP3 SWAP2 POP POP JUMP JUMPDEST PUSH1 0x0 DUP3 PUSH1 0x1F DUP4 ADD SLT PUSH2 0x159D JUMPI PUSH2 0x159C PUSH2 0x1FE7 JUMP JUMPDEST JUMPDEST DUP2 CALLDATALOAD PUSH2 0x15AD DUP5 DUP3 PUSH1 0x20 DUP7 ADD PUSH2 0x1451 JUMP JUMPDEST SWAP2 POP POP SWAP3 SWAP2 POP POP JUMP JUMPDEST PUSH1 0x0 DUP3 PUSH1 0x1F DUP4 ADD SLT PUSH2 0x15CB JUMPI PUSH2 0x15CA PUSH2 0x1FE7 JUMP JUMPDEST JUMPDEST DUP2 CALLDATALOAD PUSH2 0x15DB DUP5 DUP3 PUSH1 0x20 DUP7 ADD PUSH2 0x14C1 JUMP JUMPDEST SWAP2 POP POP SWAP3 SWAP2 POP POP JUMP JUMPDEST PUSH1 0x0 DUP2 CALLDATALOAD SWAP1 POP PUSH2 0x15F3 DUP2 PUSH2 0x21CD JUMP JUMPDEST SWAP3 SWAP2 POP POP JUMP JUMPDEST PUSH1 0x0 DUP3 PUSH1 0x1F DUP4 ADD SLT PUSH2 0x160E JUMPI PUSH2 0x160D PUSH2 0x1FE7 JUMP JUMPDEST JUMPDEST DUP2 CALLDATALOAD PUSH2 0x161E DUP5 DUP3 PUSH1 0x20 DUP7 ADD PUSH2 0x1531 JUMP JUMPDEST SWAP2 POP POP SWAP3 SWAP2 POP POP JUMP JUMPDEST PUSH1 0x0 DUP2 CALLDATALOAD SWAP1 POP PUSH2 0x1636 DUP2 PUSH2 0x21E4 JUMP JUMPDEST SWAP3 SWAP2 POP POP JUMP JUMPDEST PUSH1 0x0 PUSH1 0x20 DUP3 DUP5 SUB SLT ISZERO PUSH2 0x1652 JUMPI PUSH2 0x1651 PUSH2 0x1FFB JUMP JUMPDEST JUMPDEST PUSH1 0x0 PUSH2 0x1660 DUP5 DUP3 DUP6 ADD PUSH2 0x1573 JUMP JUMPDEST SWAP2 POP POP SWAP3 SWAP2 POP POP JUMP JUMPDEST PUSH1 0x0 DUP1 PUSH1 0x40 DUP4 DUP6 SUB SLT ISZERO PUSH2 0x1680 JUMPI PUSH2 0x167F PUSH2 0x1FFB JUMP JUMPDEST JUMPDEST PUSH1 0x0 DUP4 ADD CALLDATALOAD PUSH8 0xFFFFFFFFFFFFFFFF DUP2 GT ISZERO PUSH2 0x169E JUMPI PUSH2 0x169D PUSH2 0x1FF6 JUMP JUMPDEST JUMPDEST PUSH2 0x16AA DUP6 DUP3 DUP7 ADD PUSH2 0x15B6 JUMP JUMPDEST SWAP3 POP POP PUSH1 0x20 DUP4 ADD CALLDATALOAD PUSH8 0xFFFFFFFFFFFFFFFF DUP2 GT ISZERO PUSH2 0x16CB JUMPI PUSH2 0x16CA PUSH2 0x1FF6 JUMP JUMPDEST JUMPDEST PUSH2 0x16D7 DUP6 DUP3 DUP7 ADD PUSH2 0x1588 JUMP JUMPDEST SWAP2 POP POP SWAP3 POP SWAP3 SWAP1 POP JUMP JUMPDEST PUSH1 0x0 PUSH1 0x20 DUP3 DUP5 SUB SLT ISZERO PUSH2 0x16F7 JUMPI PUSH2 0x16F6 PUSH2 0x1FFB JUMP JUMPDEST JUMPDEST PUSH1 0x0 DUP3 ADD CALLDATALOAD PUSH8 0xFFFFFFFFFFFFFFFF DUP2 GT ISZERO PUSH2 0x1715 JUMPI PUSH2 0x1714 PUSH2 0x1FF6 JUMP JUMPDEST JUMPDEST PUSH2 0x1721 DUP5 DUP3 DUP6 ADD PUSH2 0x15F9 JUMP JUMPDEST SWAP2 POP POP SWAP3 SWAP2 POP POP JUMP JUMPDEST PUSH1 0x0 DUP1 PUSH1 0x40 DUP4 DUP6 SUB SLT ISZERO PUSH2 0x1741 JUMPI PUSH2 0x1740 PUSH2 0x1FFB JUMP JUMPDEST JUMPDEST PUSH1 0x0 DUP4 ADD CALLDATALOAD PUSH8 0xFFFFFFFFFFFFFFFF DUP2 GT ISZERO PUSH2 0x175F JUMPI PUSH2 0x175E PUSH2 0x1FF6 JUMP JUMPDEST JUMPDEST PUSH2 0x176B DUP6 DUP3 DUP7 ADD PUSH2 0x15F9 JUMP JUMPDEST SWAP3 POP POP PUSH1 0x20 DUP4 ADD CALLDATALOAD PUSH8 0xFFFFFFFFFFFFFFFF DUP2 GT ISZERO PUSH2 0x178C JUMPI PUSH2 0x178B PUSH2 0x1FF6 JUMP JUMPDEST JUMPDEST PUSH2 0x1798 DUP6 DUP3 DUP7 ADD PUSH2 0x15F9 JUMP JUMPDEST SWAP2 POP POP SWAP3 POP SWAP3 SWAP1 POP JUMP JUMPDEST PUSH1 0x0 PUSH1 0x20 DUP3 DUP5 SUB SLT ISZERO PUSH2 0x17B8 JUMPI PUSH2 0x17B7 PUSH2 0x1FFB JUMP JUMPDEST JUMPDEST PUSH1 0x0 PUSH2 0x17C6 DUP5 DUP3 DUP6 ADD PUSH2 0x1627 JUMP JUMPDEST SWAP2 POP POP SWAP3 SWAP2 POP POP JUMP JUMPDEST PUSH1 0x0 DUP1 PUSH1 0x40 DUP4 DUP6 SUB SLT ISZERO PUSH2 0x17E6 JUMPI PUSH2 0x17E5 PUSH2 0x1FFB JUMP JUMPDEST JUMPDEST PUSH1 0x0 PUSH2 0x17F4 DUP6 DUP3 DUP7 ADD PUSH2 0x1627 JUMP JUMPDEST SWAP3 POP POP PUSH1 0x20 PUSH2 0x1805 DUP6 DUP3 DUP7 ADD PUSH2 0x15E4 JUMP JUMPDEST SWAP2 POP POP SWAP3 POP SWAP3 SWAP1 POP JUMP JUMPDEST PUSH2 0x1818 DUP2 PUSH2 0x1D5C JUMP JUMPDEST DUP3 MSTORE POP POP JUMP JUMPDEST PUSH2 0x1827 DUP2 PUSH2 0x1D5C JUMP JUMPDEST DUP3 MSTORE POP POP JUMP JUMPDEST PUSH2 0x1836 DUP2 PUSH2 0x1D6E JUMP JUMPDEST DUP3 MSTORE POP POP JUMP JUMPDEST PUSH2 0x1845 DUP2 PUSH2 0x1D6E JUMP JUMPDEST DUP3 MSTORE POP POP JUMP JUMPDEST PUSH2 0x1854 DUP2 PUSH2 0x1DD2 JUMP JUMPDEST DUP3 MSTORE POP POP JUMP JUMPDEST PUSH1 0x0 PUSH2 0x1865 DUP3 PUSH2 0x1C9A JUMP JUMPDEST PUSH2 0x186F DUP2 DUP6 PUSH2 0x1CA5 JUMP JUMPDEST SWAP4 POP PUSH2 0x187F DUP2 DUP6 PUSH1 0x20 DUP7 ADD PUSH2 0x1DF3 JUMP JUMPDEST PUSH2 0x1888 DUP2 PUSH2 0x2000 JUMP JUMPDEST DUP5 ADD SWAP2 POP POP SWAP3 SWAP2 POP POP JUMP JUMPDEST PUSH1 0x0 PUSH2 0x189E DUP3 PUSH2 0x1C9A JUMP JUMPDEST PUSH2 0x18A8 DUP2 DUP6 PUSH2 0x1CC7 JUMP JUMPDEST SWAP4 POP PUSH2 0x18B8 DUP2 DUP6 PUSH1 0x20 DUP7 ADD PUSH2 0x1DF3 JUMP JUMPDEST DUP1 DUP5 ADD SWAP2 POP POP SWAP3 SWAP2 POP POP JUMP JUMPDEST PUSH1 0x0 PUSH2 0x18D1 PUSH1 0x1B DUP4 PUSH2 0x1CB6 JUMP JUMPDEST SWAP2 POP PUSH2 0x18DC DUP3 PUSH2 0x2011 JUMP JUMPDEST PUSH1 0x20 DUP3 ADD SWAP1 POP SWAP2 SWAP1 POP JUMP JUMPDEST PUSH1 0x0 PUSH2 0x18F4 PUSH1 0x26 DUP4 PUSH2 0x1CB6 JUMP JUMPDEST SWAP2 POP PUSH2 0x18FF DUP3 PUSH2 0x203A JUMP JUMPDEST PUSH1 0x40 DUP3 ADD SWAP1 POP SWAP2 SWAP1 POP JUMP JUMPDEST PUSH1 0x0 PUSH2 0x1917 PUSH1 0x1F DUP4 PUSH2 0x1CB6 JUMP JUMPDEST SWAP2 POP PUSH2 0x1922 DUP3 PUSH2 0x2089 JUMP JUMPDEST PUSH1 0x20 DUP3 ADD SWAP1 POP SWAP2 SWAP1 POP JUMP JUMPDEST PUSH1 0x0 PUSH2 0x193A PUSH1 0x2F DUP4 PUSH2 0x1CB6 JUMP JUMPDEST SWAP2 POP PUSH2 0x1945 DUP3 PUSH2 0x20B2 JUMP JUMPDEST PUSH1 0x40 DUP3 ADD SWAP1 POP SWAP2 SWAP1 POP JUMP JUMPDEST PUSH1 0x0 PUSH2 0x195D PUSH1 0x20 DUP4 PUSH2 0x1CB6 JUMP JUMPDEST SWAP2 POP PUSH2 0x1968 DUP3 PUSH2 0x2101 JUMP JUMPDEST PUSH1 0x20 DUP3 ADD SWAP1 POP SWAP2 SWAP1 POP JUMP JUMPDEST PUSH1 0x0 PUSH2 0x1980 PUSH1 0x37 DUP4 PUSH2 0x1CB6 JUMP JUMPDEST SWAP2 POP PUSH2 0x198B DUP3 PUSH2 0x212A JUMP JUMPDEST PUSH1 0x40 DUP3 ADD SWAP1 POP SWAP2 SWAP1 POP JUMP JUMPDEST PUSH1 0x0 PUSH2 0x19A3 PUSH1 0x18 DUP4 PUSH2 0x1CB6 JUMP JUMPDEST SWAP2 POP PUSH2 0x19AE DUP3 PUSH2 0x2179 JUMP JUMPDEST PUSH1 0x20 DUP3 ADD SWAP1 POP SWAP2 SWAP1 POP JUMP JUMPDEST PUSH1 0x0 PUSH1 0xC0 DUP4 ADD PUSH1 0x0 DUP4 ADD MLOAD PUSH2 0x19D1 PUSH1 0x0 DUP7 ADD DUP3 PUSH2 0x184B JUMP JUMPDEST POP PUSH1 0x20 DUP4 ADD MLOAD DUP5 DUP3 SUB PUSH1 0x20 DUP7 ADD MSTORE PUSH2 0x19E9 DUP3 DUP3 PUSH2 0x185A JUMP JUMPDEST SWAP2 POP POP PUSH1 0x40 DUP4 ADD MLOAD DUP5 DUP3 SUB PUSH1 0x40 DUP7 ADD MSTORE PUSH2 0x1A03 DUP3 DUP3 PUSH2 0x185A JUMP JUMPDEST SWAP2 POP POP PUSH1 0x60 DUP4 ADD MLOAD PUSH2 0x1A18 PUSH1 0x60 DUP7 ADD DUP3 PUSH2 0x182D JUMP JUMPDEST POP PUSH1 0x80 DUP4 ADD MLOAD PUSH2 0x1A2B PUSH1 0x80 DUP7 ADD DUP3 PUSH2 0x182D JUMP JUMPDEST POP PUSH1 0xA0 DUP4 ADD MLOAD PUSH2 0x1A3E PUSH1 0xA0 DUP7 ADD DUP3 PUSH2 0x180F JUMP JUMPDEST POP DUP1 SWAP2 POP POP SWAP3 SWAP2 POP POP JUMP JUMPDEST PUSH2 0x1A52 DUP2 PUSH2 0x1D8D JUMP JUMPDEST DUP3 MSTORE POP POP JUMP JUMPDEST PUSH2 0x1A61 DUP2 PUSH2 0x1DBB JUMP JUMPDEST DUP3 MSTORE POP POP JUMP JUMPDEST PUSH1 0x0 PUSH2 0x1A73 DUP3 DUP5 PUSH2 0x1893 JUMP JUMPDEST SWAP2 POP DUP2 SWAP1 POP SWAP3 SWAP2 POP POP JUMP JUMPDEST PUSH1 0x0 PUSH1 0x20 DUP3 ADD SWAP1 POP PUSH2 0x1A93 PUSH1 0x0 DUP4 ADD DUP5 PUSH2 0x181E JUMP JUMPDEST SWAP3 SWAP2 POP POP JUMP JUMPDEST PUSH1 0x0 PUSH1 0x20 DUP3 ADD SWAP1 POP PUSH2 0x1AAE PUSH1 0x0 DUP4 ADD DUP5 PUSH2 0x183C JUMP JUMPDEST SWAP3 SWAP2 POP POP JUMP JUMPDEST PUSH1 0x0 PUSH1 0x20 DUP3 ADD SWAP1 POP DUP2 DUP2 SUB PUSH1 0x0 DUP4 ADD MSTORE PUSH2 0x1ACD DUP2 PUSH2 0x18C4 JUMP JUMPDEST SWAP1 POP SWAP2 SWAP1 POP JUMP JUMPDEST PUSH1 0x0 PUSH1 0x20 DUP3 ADD SWAP1 POP DUP2 DUP2 SUB PUSH1 0x0 DUP4 ADD MSTORE PUSH2 0x1AED DUP2 PUSH2 0x18E7 JUMP JUMPDEST SWAP1 POP SWAP2 SWAP1 POP JUMP JUMPDEST PUSH1 0x0 PUSH1 0x20 DUP3 ADD SWAP1 POP DUP2 DUP2 SUB PUSH1 0x0 DUP4 ADD MSTORE PUSH2 0x1B0D DUP2 PUSH2 0x190A JUMP JUMPDEST SWAP1 POP SWAP2 SWAP1 POP JUMP JUMPDEST PUSH1 0x0 PUSH1 0x20 DUP3 ADD SWAP1 POP DUP2 DUP2 SUB PUSH1 0x0 DUP4 ADD MSTORE PUSH2 0x1B2D DUP2 PUSH2 0x192D JUMP JUMPDEST SWAP1 POP SWAP2 SWAP1 POP JUMP JUMPDEST PUSH1 0x0 PUSH1 0x20 DUP3 ADD SWAP1 POP DUP2 DUP2 SUB PUSH1 0x0 DUP4 ADD MSTORE PUSH2 0x1B4D DUP2 PUSH2 0x1950 JUMP JUMPDEST SWAP1 POP SWAP2 SWAP1 POP JUMP JUMPDEST PUSH1 0x0 PUSH1 0x20 DUP3 ADD SWAP1 POP DUP2 DUP2 SUB PUSH1 0x0 DUP4 ADD MSTORE PUSH2 0x1B6D DUP2 PUSH2 0x1973 JUMP JUMPDEST SWAP1 POP SWAP2 SWAP1 POP JUMP JUMPDEST PUSH1 0x0 PUSH1 0x20 DUP3 ADD SWAP1 POP DUP2 DUP2 SUB PUSH1 0x0 DUP4 ADD MSTORE PUSH2 0x1B8D DUP2 PUSH2 0x1996 JUMP JUMPDEST SWAP1 POP SWAP2 SWAP1 POP JUMP JUMPDEST PUSH1 0x0 PUSH1 0x20 DUP3 ADD SWAP1 POP DUP2 DUP2 SUB PUSH1 0x0 DUP4 ADD MSTORE PUSH2 0x1BAE DUP2 DUP5 PUSH2 0x19B9 JUMP JUMPDEST SWAP1 POP SWAP3 SWAP2 POP POP JUMP JUMPDEST PUSH1 0x0 PUSH1 0x20 DUP3 ADD SWAP1 POP PUSH2 0x1BCB PUSH1 0x0 DUP4 ADD DUP5 PUSH2 0x1A49 JUMP JUMPDEST SWAP3 SWAP2 POP POP JUMP JUMPDEST PUSH1 0x0 PUSH1 0x20 DUP3 ADD SWAP1 POP PUSH2 0x1BE6 PUSH1 0x0 DUP4 ADD DUP5 PUSH2 0x1A58 JUMP JUMPDEST SWAP3 SWAP2 POP POP JUMP JUMPDEST PUSH1 0x0 PUSH2 0x1BF6 PUSH2 0x1C07 JUMP JUMPDEST SWAP1 POP PUSH2 0x1C02 DUP3 DUP3 PUSH2 0x1E58 JUMP JUMPDEST SWAP2 SWAP1 POP JUMP JUMPDEST PUSH1 0x0 PUSH1 0x40 MLOAD SWAP1 POP SWAP1 JUMP JUMPDEST PUSH1 0x0 PUSH8 0xFFFFFFFFFFFFFFFF DUP3 GT ISZERO PUSH2 0x1C2C JUMPI PUSH2 0x1C2B PUSH2 0x1FB8 JUMP JUMPDEST JUMPDEST PUSH1 0x20 DUP3 MUL SWAP1 POP PUSH1 0x20 DUP2 ADD SWAP1 POP SWAP2 SWAP1 POP JUMP JUMPDEST PUSH1 0x0 PUSH8 0xFFFFFFFFFFFFFFFF DUP3 GT ISZERO PUSH2 0x1C58 JUMPI PUSH2 0x1C57 PUSH2 0x1FB8 JUMP JUMPDEST JUMPDEST PUSH1 0x20 DUP3 MUL SWAP1 POP PUSH1 0x20 DUP2 ADD SWAP1 POP SWAP2 SWAP1 POP JUMP JUMPDEST PUSH1 0x0 PUSH8 0xFFFFFFFFFFFFFFFF DUP3 GT ISZERO PUSH2 0x1C84 JUMPI PUSH2 0x1C83 PUSH2 0x1FB8 JUMP JUMPDEST JUMPDEST PUSH2 0x1C8D DUP3 PUSH2 0x2000 JUMP JUMPDEST SWAP1 POP PUSH1 0x20 DUP2 ADD SWAP1 POP SWAP2 SWAP1 POP JUMP JUMPDEST PUSH1 0x0 DUP2 MLOAD SWAP1 POP SWAP2 SWAP1 POP JUMP JUMPDEST PUSH1 0x0 DUP3 DUP3 MSTORE PUSH1 0x20 DUP3 ADD SWAP1 POP SWAP3 SWAP2 POP POP JUMP JUMPDEST PUSH1 0x0 DUP3 DUP3 MSTORE PUSH1 0x20 DUP3 ADD SWAP1 POP SWAP3 SWAP2 POP POP JUMP JUMPDEST PUSH1 0x0 DUP2 SWAP1 POP SWAP3 SWAP2 POP POP JUMP JUMPDEST PUSH1 0x0 PUSH2 0x1CDD DUP3 PUSH2 0x1DBB JUMP JUMPDEST SWAP2 POP PUSH2 0x1CE8 DUP4 PUSH2 0x1DBB JUMP JUMPDEST SWAP3 POP DUP3 PUSH32 0xFFFFFFFFFFFFFFFFFFFFFFFFFFFFFFFFFFFFFFFFFFFFFFFFFFFFFFFFFFFFFFFF SUB DUP3 GT ISZERO PUSH2 0x1D1D JUMPI PUSH2 0x1D1C PUSH2 0x1EFC JUMP JUMPDEST JUMPDEST DUP3 DUP3 ADD SWAP1 POP SWAP3 SWAP2 POP POP JUMP JUMPDEST PUSH1 0x0 PUSH2 0x1D33 DUP3 PUSH2 0x1DBB JUMP JUMPDEST SWAP2 POP PUSH2 0x1D3E DUP4 PUSH2 0x1DBB JUMP JUMPDEST SWAP3 POP DUP3 DUP3 LT ISZERO PUSH2 0x1D51 JUMPI PUSH2 0x1D50 PUSH2 0x1EFC JUMP JUMPDEST JUMPDEST DUP3 DUP3 SUB SWAP1 POP SWAP3 SWAP2 POP POP JUMP JUMPDEST PUSH1 0x0 PUSH2 0x1D67 DUP3 PUSH2 0x1D9B JUMP JUMPDEST SWAP1 POP SWAP2 SWAP1 POP JUMP JUMPDEST PUSH1 0x0 DUP2 ISZERO ISZERO SWAP1 POP SWAP2 SWAP1 POP JUMP JUMPDEST PUSH1 0x0 DUP2 SWAP1 POP PUSH2 0x1D88 DUP3 PUSH2 0x21A2 JUMP JUMPDEST SWAP2 SWAP1 POP JUMP JUMPDEST PUSH1 0x0 PUSH2 0xFFFF DUP3 AND SWAP1 POP SWAP2 SWAP1 POP JUMP JUMPDEST PUSH1 0x0 PUSH20 0xFFFFFFFFFFFFFFFFFFFFFFFFFFFFFFFFFFFFFFFF DUP3 AND SWAP1 POP SWAP2 SWAP1 POP JUMP JUMPDEST PUSH1 0x0 DUP2 SWAP1 POP SWAP2 SWAP1 POP JUMP JUMPDEST PUSH1 0x0 PUSH1 0xFF DUP3 AND SWAP1 POP SWAP2 SWAP1 POP JUMP JUMPDEST PUSH1 0x0 PUSH2 0x1DDD DUP3 PUSH2 0x1D7A JUMP JUMPDEST SWAP1 POP SWAP2 SWAP1 POP JUMP JUMPDEST DUP3 DUP2 DUP4 CALLDATACOPY PUSH1 0x0 DUP4 DUP4 ADD MSTORE POP POP POP JUMP JUMPDEST PUSH1 0x0 JUMPDEST DUP4 DUP2 LT ISZERO PUSH2 0x1E11 JUMPI DUP1 DUP3 ADD MLOAD DUP2 DUP5 ADD MSTORE PUSH1 0x20 DUP2 ADD SWAP1 POP PUSH2 0x1DF6 JUMP JUMPDEST DUP4 DUP2 GT ISZERO PUSH2 0x1E20 JUMPI PUSH1 0x0 DUP5 DUP5 ADD MSTORE JUMPDEST POP POP POP POP JUMP JUMPDEST PUSH1 0x0 PUSH1 0x2 DUP3 DIV SWAP1 POP PUSH1 0x1 DUP3 AND DUP1 PUSH2 0x1E3E JUMPI PUSH1 0x7F DUP3 AND SWAP2 POP JUMPDEST PUSH1 0x20 DUP3 LT DUP2 EQ ISZERO PUSH2 0x1E52 JUMPI PUSH2 0x1E51 PUSH2 0x1F5A JUMP JUMPDEST JUMPDEST POP SWAP2 SWAP1 POP JUMP JUMPDEST PUSH2 0x1E61 DUP3 PUSH2 0x2000 JUMP JUMPDEST DUP2 ADD DUP2 DUP2 LT PUSH8 0xFFFFFFFFFFFFFFFF DUP3 GT OR ISZERO PUSH2 0x1E80 JUMPI PUSH2 0x1E7F PUSH2 0x1FB8 JUMP JUMPDEST JUMPDEST DUP1 PUSH1 0x40 MSTORE POP POP POP JUMP JUMPDEST PUSH1 0x0 PUSH2 0x1E94 DUP3 PUSH2 0x1DBB JUMP JUMPDEST SWAP2 POP PUSH32 0xFFFFFFFFFFFFFFFFFFFFFFFFFFFFFFFFFFFFFFFFFFFFFFFFFFFFFFFFFFFFFFFF DUP3 EQ ISZERO PUSH2 0x1EC7 JUMPI PUSH2 0x1EC6 PUSH2 0x1EFC JUMP JUMPDEST JUMPDEST PUSH1 0x1 DUP3 ADD SWAP1 POP SWAP2 SWAP1 POP JUMP JUMPDEST PUSH1 0x0 PUSH2 0x1EDD DUP3 PUSH2 0x1DC5 JUMP JUMPDEST SWAP2 POP PUSH1 0xFF DUP3 EQ ISZERO PUSH2 0x1EF1 JUMPI PUSH2 0x1EF0 PUSH2 0x1EFC JUMP JUMPDEST JUMPDEST PUSH1 0x1 DUP3 ADD SWAP1 POP SWAP2 SWAP1 POP JUMP JUMPDEST PUSH32 0x4E487B7100000000000000000000000000000000000000000000000000000000 PUSH1 0x0 MSTORE PUSH1 0x11 PUSH1 0x4 MSTORE PUSH1 0x24 PUSH1 0x0 REVERT JUMPDEST PUSH32 0x4E487B7100000000000000000000000000000000000000000000000000000000 PUSH1 0x0 MSTORE PUSH1 0x21 PUSH1 0x4 MSTORE PUSH1 0x24 PUSH1 0x0 REVERT JUMPDEST PUSH32 0x4E487B7100000000000000000000000000000000000000000000000000000000 PUSH1 0x0 MSTORE PUSH1 0x22 PUSH1 0x4 MSTORE PUSH1 0x24 PUSH1 0x0 REVERT JUMPDEST PUSH32 0x4E487B7100000000000000000000000000000000000000000000000000000000 PUSH1 0x0 MSTORE PUSH1 0x32 PUSH1 0x4 MSTORE PUSH1 0x24 PUSH1 0x0 REVERT JUMPDEST PUSH32 0x4E487B7100000000000000000000000000000000000000000000000000000000 PUSH1 0x0 MSTORE PUSH1 0x41 PUSH1 0x4 MSTORE PUSH1 0x24 PUSH1 0x0 REVERT JUMPDEST PUSH1 0x0 DUP1 REVERT JUMPDEST PUSH1 0x0 DUP1 REVERT JUMPDEST PUSH1 0x0 DUP1 REVERT JUMPDEST PUSH1 0x0 DUP1 REVERT JUMPDEST PUSH1 0x0 DUP1 REVERT JUMPDEST PUSH1 0x0 PUSH1 0x1F NOT PUSH1 0x1F DUP4 ADD AND SWAP1 POP SWAP2 SWAP1 POP JUMP JUMPDEST PUSH32 0x54686973204944206F66204E465420646F6E2774206578697374730000000000 PUSH1 0x0 DUP3 ADD MSTORE POP JUMP JUMPDEST PUSH32 0x4F776E61626C653A206E6577206F776E657220697320746865207A65726F2061 PUSH1 0x0 DUP3 ADD MSTORE PUSH32 0x6464726573730000000000000000000000000000000000000000000000000000 PUSH1 0x20 DUP3 ADD MSTORE POP JUMP JUMPDEST PUSH32 0x556E61626C6520746F207265706561742074686520646574656374696F6E2100 PUSH1 0x0 DUP3 ADD MSTORE POP JUMP JUMPDEST PUSH32 0x546865204E465420646F6573206E6F74206D6565742074686520646574656374 PUSH1 0x0 DUP3 ADD MSTORE PUSH32 0x696F6E20636F6E646974696F6E73210000000000000000000000000000000000 PUSH1 0x20 DUP3 ADD MSTORE POP JUMP JUMPDEST PUSH32 0x4F776E61626C653A2063616C6C6572206973206E6F7420746865206F776E6572 PUSH1 0x0 DUP3 ADD MSTORE POP JUMP JUMPDEST PUSH32 0x546865206C656E677468206F66205F49442073686F756C6420657175616C2074 PUSH1 0x0 DUP3 ADD MSTORE PUSH32 0x6F20746865206C656E677468206F66205F726573756C74000000000000000000 PUSH1 0x20 DUP3 ADD MSTORE POP JUMP JUMPDEST PUSH32 0x6C656E677468206265796F6E642061727261794C696D69740000000000000000 PUSH1 0x0 DUP3 ADD MSTORE POP JUMP JUMPDEST PUSH1 0x2 DUP2 LT PUSH2 0x21B3 JUMPI PUSH2 0x21B2 PUSH2 0x1F2B JUMP JUMPDEST JUMPDEST POP JUMP JUMPDEST PUSH2 0x21BF DUP2 PUSH2 0x1D5C JUMP JUMPDEST DUP2 EQ PUSH2 0x21CA JUMPI PUSH1 0x0 DUP1 REVERT JUMPDEST POP JUMP JUMPDEST PUSH2 0x21D6 DUP2 PUSH2 0x1D6E JUMP JUMPDEST DUP2 EQ PUSH2 0x21E1 JUMPI PUSH1 0x0 DUP1 REVERT JUMPDEST POP JUMP JUMPDEST PUSH2 0x21ED DUP2 PUSH2 0x1DBB JUMP JUMPDEST DUP2 EQ PUSH2 0x21F8 JUMPI PUSH1 0x0 DUP1 REVERT JUMPDEST POP JUMP INVALID LOG2 PUSH5 0x6970667358 0x22 SLT KECCAK256 0x21 COINBASE TIMESTAMP 0xCA SMOD 0xF7 0xE0 CREATE2 PUSH25 0xA38718DE5E9A70B0F29007EFE8D149B44B3FC6351A3A9D6473 PUSH16 0x6C634300080700330000000000000000 "
				},
				"gasEstimates": {
					"creation": {
						"codeDepositCost": "1750600",
						"executionCost": "infinite",
						"totalCost": "infinite"
					},
					"external": {
						"ID()": "2429",
						"arrayLimit()": "2543",
						"batchDetectNFT(uint256[],bool[])": "infinite",
						"checkNFTByHash(string)": "infinite",
						"checkNFTByID(uint256)": "infinite",
						"checkNFTByIDDetail(uint256)": "infinite",
						"detectNFT(uint256,bool)": "84729",
						"owner()": "2611",
						"renounceOwnership()": "30441",
						"transferOwnership(address)": "30833",
						"uploadNFT(string,string)": "infinite"
					},
					"internal": {
						"compareStrings(string memory,string memory)": "infinite",
						"hashIsExists(string memory)": "infinite",
						"ipfsIsExists(string memory)": "infinite"
					}
				},
				"methodIdentifiers": {
					"ID()": "b3cea217",
					"arrayLimit()": "b4ae641c",
					"batchDetectNFT(uint256[],bool[])": "bd0dea20",
					"checkNFTByHash(string)": "d0aeae96",
					"checkNFTByID(uint256)": "b5e3029f",
					"checkNFTByIDDetail(uint256)": "138f0727",
					"detectNFT(uint256,bool)": "1c5a3e52",
					"owner()": "8da5cb5b",
					"renounceOwnership()": "715018a6",
					"transferOwnership(address)": "f2fde38b",
					"uploadNFT(string,string)": "3a4f2d24"
				}
			},
			"userdoc": {
				"kind": "user",
				"methods": {},
				"version": 1
			}
		}
	}
}