{
	"oracle_flat.sol": {
		"NFTOracle": {
			"abi": [
				{
					"inputs": [],
					"stateMutability": "nonpayable",
					"type": "constructor"
				},
				{
					"anonymous": false,
					"inputs": [
						{
							"indexed": true,
							"internalType": "address",
							"name": "previousOwner",
							"type": "address"
						},
						{
							"indexed": true,
							"internalType": "address",
							"name": "newOwner",
							"type": "address"
						}
					],
					"name": "OwnershipTransferred",
					"type": "event"
				},
				{
					"inputs": [],
					"name": "ID",
					"outputs": [
						{
							"internalType": "uint256",
							"name": "",
							"type": "uint256"
						}
					],
					"stateMutability": "view",
					"type": "function"
				},
				{
					"inputs": [
						{
							"internalType": "string",
							"name": "_hash",
							"type": "string"
						}
					],
					"name": "checkNFTByHash",
					"outputs": [
						{
							"internalType": "bool",
							"name": "",
							"type": "bool"
						}
					],
					"stateMutability": "view",
					"type": "function"
				},
				{
					"inputs": [
						{
							"internalType": "uint256",
							"name": "_ID",
							"type": "uint256"
						}
					],
					"name": "checkNFTByID",
					"outputs": [
						{
							"internalType": "bool",
							"name": "",
							"type": "bool"
						}
					],
					"stateMutability": "view",
					"type": "function"
				},
				{
					"inputs": [
						{
							"internalType": "uint256",
							"name": "_ID",
							"type": "uint256"
						}
					],
					"name": "checkNFTByIDDetail",
					"outputs": [
						{
							"components": [
								{
									"internalType": "enum NFTOracle.NFTState",
									"name": "state",
									"type": "uint8"
								},
								{
									"internalType": "string",
									"name": "hash",
									"type": "string"
								},
								{
									"internalType": "string",
									"name": "IPFS",
									"type": "string"
								},
								{
									"internalType": "bool",
									"name": "isDetected",
									"type": "bool"
								},
								{
									"internalType": "bool",
									"name": "result",
									"type": "bool"
								},
								{
									"internalType": "address",
									"name": "uploader",
									"type": "address"
								}
							],
							"internalType": "struct NFTOracle.NFT",
							"name": "",
							"type": "tuple"
						}
					],
					"stateMutability": "view",
					"type": "function"
				},
				{
					"inputs": [
						{
							"internalType": "uint256",
							"name": "_ID",
							"type": "uint256"
						},
						{
							"internalType": "bool",
							"name": "_result",
							"type": "bool"
						}
					],
					"name": "detectNFT",
					"outputs": [],
					"stateMutability": "nonpayable",
					"type": "function"
				},
				{
					"inputs": [],
					"name": "owner",
					"outputs": [
						{
							"internalType": "address",
							"name": "",
							"type": "address"
						}
					],
					"stateMutability": "view",
					"type": "function"
				},
				{
					"inputs": [],
					"name": "renounceOwnership",
					"outputs": [],
					"stateMutability": "nonpayable",
					"type": "function"
				},
				{
					"inputs": [
						{
							"internalType": "address",
							"name": "newOwner",
							"type": "address"
						}
					],
					"name": "transferOwnership",
					"outputs": [],
					"stateMutability": "nonpayable",
					"type": "function"
				},
				{
					"inputs": [
						{
							"internalType": "string",
							"name": "_hash",
							"type": "string"
						},
						{
							"internalType": "string",
							"name": "_ipfs",
							"type": "string"
						}
					],
					"name": "uploadNFT",
					"outputs": [
						{
							"internalType": "uint256",
							"name": "",
							"type": "uint256"
						}
					],
					"stateMutability": "nonpayable",
					"type": "function"
				}
			],
			"devdoc": {
				"kind": "dev",
				"methods": {
					"owner()": {
						"details": "Returns the address of the current owner."
					},
					"renounceOwnership()": {
						"details": "Leaves the contract without owner. It will not be possible to call `onlyOwner` functions anymore. Can only be called by the current owner. NOTE: Renouncing ownership will leave the contract without an owner, thereby removing any functionality that is only available to the owner."
					},
					"transferOwnership(address)": {
						"details": "Transfers ownership of the contract to a new account (`newOwner`). Can only be called by the current owner."
					}
				},
				"version": 1
			},
			"evm": {
				"assembly": "    /* \"oracle_flat.sol\":3387:6530  contract NFTOracle is Ownable{... */\n  mstore(0x40, 0x80)\n    /* \"oracle_flat.sol\":3791:3792  1 */\n  0x01\n    /* \"oracle_flat.sol\":3774:3792  uint public ID = 1 */\n  dup1\n  sstore\n    /* \"oracle_flat.sol\":3453:3476  constructor ()  {... */\n  callvalue\n  dup1\n  iszero\n  tag_1\n  jumpi\n  0x00\n  dup1\n  revert\ntag_1:\n  pop\n    /* \"oracle_flat.sol\":1779:1811  _transferOwnership(_msgSender()) */\n  tag_5\n    /* \"oracle_flat.sol\":1798:1810  _msgSender() */\n  tag_6\n    /* \"oracle_flat.sol\":1798:1808  _msgSender */\n  shl(0x20, tag_7)\n    /* \"oracle_flat.sol\":1798:1810  _msgSender() */\n  0x20\n  shr\n  jump\t// in\ntag_6:\n    /* \"oracle_flat.sol\":1779:1797  _transferOwnership */\n  shl(0x20, tag_8)\n    /* \"oracle_flat.sol\":1779:1811  _transferOwnership(_msgSender()) */\n  0x20\n  shr\n  jump\t// in\ntag_5:\n    /* \"oracle_flat.sol\":3387:6530  contract NFTOracle is Ownable{... */\n  jump(tag_10)\n    /* \"oracle_flat.sol\":662:758  function _msgSender() internal view virtual returns (address) {... */\ntag_7:\n    /* \"oracle_flat.sol\":715:722  address */\n  0x00\n    /* \"oracle_flat.sol\":741:751  msg.sender */\n  caller\n    /* \"oracle_flat.sol\":734:751  return msg.sender */\n  swap1\n  pop\n    /* \"oracle_flat.sol\":662:758  function _msgSender() internal view virtual returns (address) {... */\n  swap1\n  jump\t// out\n    /* \"oracle_flat.sol\":3128:3315  function _transferOwnership(address newOwner) internal virtual {... */\ntag_8:\n    /* \"oracle_flat.sol\":3201:3217  address oldOwner */\n  0x00\n    /* \"oracle_flat.sol\":3220:3226  _owner */\n  dup1\n  0x00\n  swap1\n  sload\n  swap1\n  0x0100\n  exp\n  swap1\n  div\n  0xffffffffffffffffffffffffffffffffffffffff\n  and\n    /* \"oracle_flat.sol\":3201:3226  address oldOwner = _owner */\n  swap1\n  pop\n    /* \"oracle_flat.sol\":3245:3253  newOwner */\n  dup2\n    /* \"oracle_flat.sol\":3236:3242  _owner */\n  0x00\n  dup1\n    /* \"oracle_flat.sol\":3236:3253  _owner = newOwner */\n  0x0100\n  exp\n  dup2\n  sload\n  dup2\n  0xffffffffffffffffffffffffffffffffffffffff\n  mul\n  not\n  and\n  swap1\n  dup4\n  0xffffffffffffffffffffffffffffffffffffffff\n  and\n  mul\n  or\n  swap1\n  sstore\n  pop\n    /* \"oracle_flat.sol\":3299:3307  newOwner */\n  dup2\n    /* \"oracle_flat.sol\":3268:3308  OwnershipTransferred(oldOwner, newOwner) */\n  0xffffffffffffffffffffffffffffffffffffffff\n  and\n    /* \"oracle_flat.sol\":3289:3297  oldOwner */\n  dup2\n    /* \"oracle_flat.sol\":3268:3308  OwnershipTransferred(oldOwner, newOwner) */\n  0xffffffffffffffffffffffffffffffffffffffff\n  and\n  0x8be0079c531659141344cd1fd0a4f28419497f9722a3daafe3b4186f6b6457e0\n  mload(0x40)\n  mload(0x40)\n  dup1\n  swap2\n  sub\n  swap1\n  log3\n    /* \"oracle_flat.sol\":3191:3315  {... */\n  pop\n    /* \"oracle_flat.sol\":3128:3315  function _transferOwnership(address newOwner) internal virtual {... */\n  pop\n  jump\t// out\n    /* \"oracle_flat.sol\":3387:6530  contract NFTOracle is Ownable{... */\ntag_10:\n  dataSize(sub_0)\n  dup1\n  dataOffset(sub_0)\n  0x00\n  codecopy\n  0x00\n  return\nstop\n\nsub_0: assembly {\n        /* \"oracle_flat.sol\":3387:6530  contract NFTOracle is Ownable{... */\n      mstore(0x40, 0x80)\n      callvalue\n      dup1\n      iszero\n      tag_1\n      jumpi\n      0x00\n      dup1\n      revert\n    tag_1:\n      pop\n      jumpi(tag_2, lt(calldatasize, 0x04))\n      shr(0xe0, calldataload(0x00))\n      dup1\n      0x8da5cb5b\n      gt\n      tag_12\n      jumpi\n      dup1\n      0x8da5cb5b\n      eq\n      tag_7\n      jumpi\n      dup1\n      0xb3cea217\n      eq\n      tag_8\n      jumpi\n      dup1\n      0xb5e3029f\n      eq\n      tag_9\n      jumpi\n      dup1\n      0xd0aeae96\n      eq\n      tag_10\n      jumpi\n      dup1\n      0xf2fde38b\n      eq\n      tag_11\n      jumpi\n      jump(tag_2)\n    tag_12:\n      dup1\n      0x138f0727\n      eq\n      tag_3\n      jumpi\n      dup1\n      0x1c5a3e52\n      eq\n      tag_4\n      jumpi\n      dup1\n      0x3a4f2d24\n      eq\n      tag_5\n      jumpi\n      dup1\n      0x715018a6\n      eq\n      tag_6\n      jumpi\n    tag_2:\n      0x00\n      dup1\n      revert\n        /* \"oracle_flat.sol\":4632:4893  function checkNFTByIDDetail(uint _ID) public view returns(NFT memory){... */\n    tag_3:\n      tag_13\n      0x04\n      dup1\n      calldatasize\n      sub\n      dup2\n      add\n      swap1\n      tag_14\n      swap2\n      swap1\n      tag_15\n      jump\t// in\n    tag_14:\n      tag_16\n      jump\t// in\n    tag_13:\n      mload(0x40)\n      tag_17\n      swap2\n      swap1\n      tag_18\n      jump\t// in\n    tag_17:\n      mload(0x40)\n      dup1\n      swap2\n      sub\n      swap1\n      return\n        /* \"oracle_flat.sol\":5383:5772  function detectNFT(uint _ID,bool _result) public onlyOwner{... */\n    tag_4:\n      tag_19\n      0x04\n      dup1\n      calldatasize\n      sub\n      dup2\n      add\n      swap1\n      tag_20\n      swap2\n      swap1\n      tag_21\n      jump\t// in\n    tag_20:\n      tag_22\n      jump\t// in\n    tag_19:\n      stop\n        /* \"oracle_flat.sol\":4916:5349  function uploadNFT(string memory _hash,string memory _ipfs)  public returns(uint256){... */\n    tag_5:\n      tag_23\n      0x04\n      dup1\n      calldatasize\n      sub\n      dup2\n      add\n      swap1\n      tag_24\n      swap2\n      swap1\n      tag_25\n      jump\t// in\n    tag_24:\n      tag_26\n      jump\t// in\n    tag_23:\n      mload(0x40)\n      tag_27\n      swap2\n      swap1\n      tag_28\n      jump\t// in\n    tag_27:\n      mload(0x40)\n      dup1\n      swap2\n      sub\n      swap1\n      return\n        /* \"oracle_flat.sol\":2526:2627  function renounceOwnership() public virtual onlyOwner {... */\n    tag_6:\n      tag_29\n      tag_30\n      jump\t// in\n    tag_29:\n      stop\n        /* \"oracle_flat.sol\":1894:1979  function owner() public view virtual returns (address) {... */\n    tag_7:\n      tag_31\n      tag_32\n      jump\t// in\n    tag_31:\n      mload(0x40)\n      tag_33\n      swap2\n      swap1\n      tag_34\n      jump\t// in\n    tag_33:\n      mload(0x40)\n      dup1\n      swap2\n      sub\n      swap1\n      return\n        /* \"oracle_flat.sol\":3774:3792  uint public ID = 1 */\n    tag_8:\n      tag_35\n      tag_36\n      jump\t// in\n    tag_35:\n      mload(0x40)\n      tag_37\n      swap2\n      swap1\n      tag_28\n      jump\t// in\n    tag_37:\n      mload(0x40)\n      dup1\n      swap2\n      sub\n      swap1\n      return\n        /* \"oracle_flat.sol\":4288:4544  function checkNFTByID(uint _ID) public view returns(bool){... */\n    tag_9:\n      tag_38\n      0x04\n      dup1\n      calldatasize\n      sub\n      dup2\n      add\n      swap1\n      tag_39\n      swap2\n      swap1\n      tag_15\n      jump\t// in\n    tag_39:\n      tag_40\n      jump\t// in\n    tag_38:\n      mload(0x40)\n      tag_41\n      swap2\n      swap1\n      tag_42\n      jump\t// in\n    tag_41:\n      mload(0x40)\n      dup1\n      swap2\n      sub\n      swap1\n      return\n        /* \"oracle_flat.sol\":3941:4198  function checkNFTByHash(string memory _hash) public view returns(bool) {... */\n    tag_10:\n      tag_43\n      0x04\n      dup1\n      calldatasize\n      sub\n      dup2\n      add\n      swap1\n      tag_44\n      swap2\n      swap1\n      tag_45\n      jump\t// in\n    tag_44:\n      tag_46\n      jump\t// in\n    tag_43:\n      mload(0x40)\n      tag_47\n      swap2\n      swap1\n      tag_42\n      jump\t// in\n    tag_47:\n      mload(0x40)\n      dup1\n      swap2\n      sub\n      swap1\n      return\n        /* \"oracle_flat.sol\":2776:2974  function transferOwnership(address newOwner) public virtual onlyOwner {... */\n    tag_11:\n      tag_48\n      0x04\n      dup1\n      calldatasize\n      sub\n      dup2\n      add\n      swap1\n      tag_49\n      swap2\n      swap1\n      tag_50\n      jump\t// in\n    tag_49:\n      tag_51\n      jump\t// in\n    tag_48:\n      stop\n        /* \"oracle_flat.sol\":4632:4893  function checkNFTByIDDetail(uint _ID) public view returns(NFT memory){... */\n    tag_16:\n        /* \"oracle_flat.sol\":4690:4700  NFT memory */\n      tag_52\n      tag_53\n      jump\t// in\n    tag_52:\n        /* \"oracle_flat.sol\":4800:4802  ID */\n      sload(0x01)\n        /* \"oracle_flat.sol\":4796:4799  _ID */\n      dup3\n        /* \"oracle_flat.sol\":4796:4802  _ID<ID */\n      lt\n        /* \"oracle_flat.sol\":4788:4833  require(_ID<ID,\"This ID of NFT don't exists\") */\n      tag_55\n      jumpi\n      mload(0x40)\n      0x08c379a000000000000000000000000000000000000000000000000000000000\n      dup2\n      mstore\n      0x04\n      add\n      tag_56\n      swap1\n      tag_57\n      jump\t// in\n    tag_56:\n      mload(0x40)\n      dup1\n      swap2\n      sub\n      swap1\n      revert\n    tag_55:\n        /* \"oracle_flat.sol\":4842:4856  NFT memory nft */\n      0x00\n        /* \"oracle_flat.sol\":4859:4863  nfts */\n      0x02\n        /* \"oracle_flat.sol\":4859:4868  nfts[_ID] */\n      0x00\n        /* \"oracle_flat.sol\":4864:4867  _ID */\n      dup5\n        /* \"oracle_flat.sol\":4859:4868  nfts[_ID] */\n      dup2\n      mstore\n      0x20\n      add\n      swap1\n      dup2\n      mstore\n      0x20\n      add\n      0x00\n      keccak256\n        /* \"oracle_flat.sol\":4842:4868  NFT memory nft = nfts[_ID] */\n      mload(0x40)\n      dup1\n      0xc0\n      add\n      0x40\n      mstore\n      swap1\n      dup2\n      0x00\n      dup3\n      add\n      0x00\n      swap1\n      sload\n      swap1\n      0x0100\n      exp\n      swap1\n      div\n      0xff\n      and\n      0x01\n      dup2\n      gt\n      iszero\n      tag_58\n      jumpi\n      tag_59\n      tag_60\n      jump\t// in\n    tag_59:\n    tag_58:\n      0x01\n      dup2\n      gt\n      iszero\n      tag_61\n      jumpi\n      tag_62\n      tag_60\n      jump\t// in\n    tag_62:\n    tag_61:\n      dup2\n      mstore\n      0x20\n      add\n      0x01\n      dup3\n      add\n      dup1\n      sload\n      tag_63\n      swap1\n      tag_64\n      jump\t// in\n    tag_63:\n      dup1\n      0x1f\n      add\n      0x20\n      dup1\n      swap2\n      div\n      mul\n      0x20\n      add\n      mload(0x40)\n      swap1\n      dup2\n      add\n      0x40\n      mstore\n      dup1\n      swap3\n      swap2\n      swap1\n      dup2\n      dup2\n      mstore\n      0x20\n      add\n      dup3\n      dup1\n      sload\n      tag_65\n      swap1\n      tag_64\n      jump\t// in\n    tag_65:\n      dup1\n      iszero\n      tag_66\n      jumpi\n      dup1\n      0x1f\n      lt\n      tag_67\n      jumpi\n      0x0100\n      dup1\n      dup4\n      sload\n      div\n      mul\n      dup4\n      mstore\n      swap2\n      0x20\n      add\n      swap2\n      jump(tag_66)\n    tag_67:\n      dup3\n      add\n      swap2\n      swap1\n      0x00\n      mstore\n      keccak256(0x00, 0x20)\n      swap1\n    tag_68:\n      dup2\n      sload\n      dup2\n      mstore\n      swap1\n      0x01\n      add\n      swap1\n      0x20\n      add\n      dup1\n      dup4\n      gt\n      tag_68\n      jumpi\n      dup3\n      swap1\n      sub\n      0x1f\n      and\n      dup3\n      add\n      swap2\n    tag_66:\n      pop\n      pop\n      pop\n      pop\n      pop\n      dup2\n      mstore\n      0x20\n      add\n      0x02\n      dup3\n      add\n      dup1\n      sload\n      tag_69\n      swap1\n      tag_64\n      jump\t// in\n    tag_69:\n      dup1\n      0x1f\n      add\n      0x20\n      dup1\n      swap2\n      div\n      mul\n      0x20\n      add\n      mload(0x40)\n      swap1\n      dup2\n      add\n      0x40\n      mstore\n      dup1\n      swap3\n      swap2\n      swap1\n      dup2\n      dup2\n      mstore\n      0x20\n      add\n      dup3\n      dup1\n      sload\n      tag_70\n      swap1\n      tag_64\n      jump\t// in\n    tag_70:\n      dup1\n      iszero\n      tag_71\n      jumpi\n      dup1\n      0x1f\n      lt\n      tag_72\n      jumpi\n      0x0100\n      dup1\n      dup4\n      sload\n      div\n      mul\n      dup4\n      mstore\n      swap2\n      0x20\n      add\n      swap2\n      jump(tag_71)\n    tag_72:\n      dup3\n      add\n      swap2\n      swap1\n      0x00\n      mstore\n      keccak256(0x00, 0x20)\n      swap1\n    tag_73:\n      dup2\n      sload\n      dup2\n      mstore\n      swap1\n      0x01\n      add\n      swap1\n      0x20\n      add\n      dup1\n      dup4\n      gt\n      tag_73\n      jumpi\n      dup3\n      swap1\n      sub\n      0x1f\n      and\n      dup3\n      add\n      swap2\n    tag_71:\n      pop\n      pop\n      pop\n      pop\n      pop\n      dup2\n      mstore\n      0x20\n      add\n      0x03\n      dup3\n      add\n      0x00\n      swap1\n      sload\n      swap1\n      0x0100\n      exp\n      swap1\n      div\n      0xff\n      and\n      iszero\n      iszero\n      iszero\n      iszero\n      dup2\n      mstore\n      0x20\n      add\n      0x03\n      dup3\n      add\n      0x01\n      swap1\n      sload\n      swap1\n      0x0100\n      exp\n      swap1\n      div\n      0xff\n      and\n      iszero\n      iszero\n      iszero\n      iszero\n      dup2\n      mstore\n      0x20\n      add\n      0x03\n      dup3\n      add\n      0x02\n      swap1\n      sload\n      swap1\n      0x0100\n      exp\n      swap1\n      div\n      0xffffffffffffffffffffffffffffffffffffffff\n      and\n      0xffffffffffffffffffffffffffffffffffffffff\n      and\n      0xffffffffffffffffffffffffffffffffffffffff\n      and\n      dup2\n      mstore\n      pop\n      pop\n      swap1\n      pop\n        /* \"oracle_flat.sol\":4884:4887  nft */\n      dup1\n        /* \"oracle_flat.sol\":4877:4887  return nft */\n      swap2\n      pop\n      pop\n        /* \"oracle_flat.sol\":4632:4893  function checkNFTByIDDetail(uint _ID) public view returns(NFT memory){... */\n      swap2\n      swap1\n      pop\n      jump\t// out\n        /* \"oracle_flat.sol\":5383:5772  function detectNFT(uint _ID,bool _result) public onlyOwner{... */\n    tag_22:\n        /* \"oracle_flat.sol\":2117:2129  _msgSender() */\n      tag_75\n        /* \"oracle_flat.sol\":2117:2127  _msgSender */\n      tag_76\n        /* \"oracle_flat.sol\":2117:2129  _msgSender() */\n      jump\t// in\n    tag_75:\n        /* \"oracle_flat.sol\":2106:2129  owner() == _msgSender() */\n      0xffffffffffffffffffffffffffffffffffffffff\n      and\n        /* \"oracle_flat.sol\":2106:2113  owner() */\n      tag_77\n        /* \"oracle_flat.sol\":2106:2111  owner */\n      tag_32\n        /* \"oracle_flat.sol\":2106:2113  owner() */\n      jump\t// in\n    tag_77:\n        /* \"oracle_flat.sol\":2106:2129  owner() == _msgSender() */\n      0xffffffffffffffffffffffffffffffffffffffff\n      and\n      eq\n        /* \"oracle_flat.sol\":2098:2166  require(owner() == _msgSender(), \"Ownable: caller is not the owner\") */\n      tag_78\n      jumpi\n      mload(0x40)\n      0x08c379a000000000000000000000000000000000000000000000000000000000\n      dup2\n      mstore\n      0x04\n      add\n      tag_79\n      swap1\n      tag_80\n      jump\t// in\n    tag_79:\n      mload(0x40)\n      dup1\n      swap2\n      sub\n      swap1\n      revert\n    tag_78:\n        /* \"oracle_flat.sol\":5555:5560  false */\n      0x00\n        /* \"oracle_flat.sol\":5533:5560  nfts[_ID].isDetected==false */\n      iszero\n      iszero\n        /* \"oracle_flat.sol\":5533:5537  nfts */\n      0x02\n        /* \"oracle_flat.sol\":5533:5542  nfts[_ID] */\n      0x00\n        /* \"oracle_flat.sol\":5538:5541  _ID */\n      dup5\n        /* \"oracle_flat.sol\":5533:5542  nfts[_ID] */\n      dup2\n      mstore\n      0x20\n      add\n      swap1\n      dup2\n      mstore\n      0x20\n      add\n      0x00\n      keccak256\n        /* \"oracle_flat.sol\":5533:5553  nfts[_ID].isDetected */\n      0x03\n      add\n      0x00\n      swap1\n      sload\n      swap1\n      0x0100\n      exp\n      swap1\n      div\n      0xff\n      and\n        /* \"oracle_flat.sol\":5533:5560  nfts[_ID].isDetected==false */\n      iszero\n      iszero\n      eq\n        /* \"oracle_flat.sol\":5533:5598  nfts[_ID].isDetected==false&&nfts[_ID].state==NFTState.Undetected */\n      dup1\n      iszero\n      tag_82\n      jumpi\n      pop\n        /* \"oracle_flat.sol\":5579:5598  NFTState.Undetected */\n      0x00\n        /* \"oracle_flat.sol\":5562:5598  nfts[_ID].state==NFTState.Undetected */\n      0x01\n      dup2\n      gt\n      iszero\n      tag_83\n      jumpi\n      tag_84\n      tag_60\n      jump\t// in\n    tag_84:\n    tag_83:\n        /* \"oracle_flat.sol\":5562:5566  nfts */\n      0x02\n        /* \"oracle_flat.sol\":5562:5571  nfts[_ID] */\n      0x00\n        /* \"oracle_flat.sol\":5567:5570  _ID */\n      dup5\n        /* \"oracle_flat.sol\":5562:5571  nfts[_ID] */\n      dup2\n      mstore\n      0x20\n      add\n      swap1\n      dup2\n      mstore\n      0x20\n      add\n      0x00\n      keccak256\n        /* \"oracle_flat.sol\":5562:5577  nfts[_ID].state */\n      0x00\n      add\n      0x00\n      swap1\n      sload\n      swap1\n      0x0100\n      exp\n      swap1\n      div\n      0xff\n      and\n        /* \"oracle_flat.sol\":5562:5598  nfts[_ID].state==NFTState.Undetected */\n      0x01\n      dup2\n      gt\n      iszero\n      tag_85\n      jumpi\n      tag_86\n      tag_60\n      jump\t// in\n    tag_86:\n    tag_85:\n      eq\n        /* \"oracle_flat.sol\":5533:5598  nfts[_ID].isDetected==false&&nfts[_ID].state==NFTState.Undetected */\n    tag_82:\n        /* \"oracle_flat.sol\":5525:5649  require(nfts[_ID].isDetected==false&&nfts[_ID].state==NFTState.Undetected,\"The NFT does not meet the detection conditions!\") */\n      tag_87\n      jumpi\n      mload(0x40)\n      0x08c379a000000000000000000000000000000000000000000000000000000000\n      dup2\n      mstore\n      0x04\n      add\n      tag_88\n      swap1\n      tag_89\n      jump\t// in\n    tag_88:\n      mload(0x40)\n      dup1\n      swap2\n      sub\n      swap1\n      revert\n    tag_87:\n        /* \"oracle_flat.sol\":5678:5685  _result */\n      dup1\n        /* \"oracle_flat.sol\":5659:5663  nfts */\n      0x02\n        /* \"oracle_flat.sol\":5659:5668  nfts[_ID] */\n      0x00\n        /* \"oracle_flat.sol\":5664:5667  _ID */\n      dup5\n        /* \"oracle_flat.sol\":5659:5668  nfts[_ID] */\n      dup2\n      mstore\n      0x20\n      add\n      swap1\n      dup2\n      mstore\n      0x20\n      add\n      0x00\n      keccak256\n        /* \"oracle_flat.sol\":5659:5675  nfts[_ID].result */\n      0x03\n      add\n      0x01\n        /* \"oracle_flat.sol\":5659:5685  nfts[_ID].result = _result */\n      0x0100\n      exp\n      dup2\n      sload\n      dup2\n      0xff\n      mul\n      not\n      and\n      swap1\n      dup4\n      iszero\n      iszero\n      mul\n      or\n      swap1\n      sstore\n      pop\n        /* \"oracle_flat.sol\":5717:5722  false */\n      0x00\n        /* \"oracle_flat.sol\":5695:5699  nfts */\n      0x02\n        /* \"oracle_flat.sol\":5695:5703  nfts[ID] */\n      0x00\n        /* \"oracle_flat.sol\":5700:5702  ID */\n      sload(0x01)\n        /* \"oracle_flat.sol\":5695:5703  nfts[ID] */\n      dup2\n      mstore\n      0x20\n      add\n      swap1\n      dup2\n      mstore\n      0x20\n      add\n      0x00\n      keccak256\n        /* \"oracle_flat.sol\":5695:5714  nfts[ID].isDetected */\n      0x03\n      add\n      0x00\n        /* \"oracle_flat.sol\":5695:5722  nfts[ID].isDetected = false */\n      0x0100\n      exp\n      dup2\n      sload\n      dup2\n      0xff\n      mul\n      not\n      and\n      swap1\n      dup4\n      iszero\n      iszero\n      mul\n      or\n      swap1\n      sstore\n      pop\n        /* \"oracle_flat.sol\":5749:5766  NFTState.Detected */\n      0x01\n        /* \"oracle_flat.sol\":5732:5736  nfts */\n      0x02\n        /* \"oracle_flat.sol\":5732:5740  nfts[ID] */\n      0x00\n        /* \"oracle_flat.sol\":5737:5739  ID */\n      sload(0x01)\n        /* \"oracle_flat.sol\":5732:5740  nfts[ID] */\n      dup2\n      mstore\n      0x20\n      add\n      swap1\n      dup2\n      mstore\n      0x20\n      add\n      0x00\n      keccak256\n        /* \"oracle_flat.sol\":5732:5746  nfts[ID].state */\n      0x00\n      add\n      0x00\n        /* \"oracle_flat.sol\":5732:5766  nfts[ID].state = NFTState.Detected */\n      0x0100\n      exp\n      dup2\n      sload\n      dup2\n      0xff\n      mul\n      not\n      and\n      swap1\n      dup4\n      0x01\n      dup2\n      gt\n      iszero\n      tag_90\n      jumpi\n      tag_91\n      tag_60\n      jump\t// in\n    tag_91:\n    tag_90:\n      mul\n      or\n      swap1\n      sstore\n      pop\n        /* \"oracle_flat.sol\":5383:5772  function detectNFT(uint _ID,bool _result) public onlyOwner{... */\n      pop\n      pop\n      jump\t// out\n        /* \"oracle_flat.sol\":4916:5349  function uploadNFT(string memory _hash,string memory _ipfs)  public returns(uint256){... */\n    tag_26:\n        /* \"oracle_flat.sol\":4992:4999  uint256 */\n      0x00\n        /* \"oracle_flat.sol\":5017:5036  hashIsExists(_hash) */\n      tag_93\n        /* \"oracle_flat.sol\":5030:5035  _hash */\n      dup4\n        /* \"oracle_flat.sol\":5017:5029  hashIsExists */\n      tag_94\n        /* \"oracle_flat.sol\":5017:5036  hashIsExists(_hash) */\n      jump\t// in\n    tag_93:\n        /* \"oracle_flat.sol\":5017:5057  hashIsExists(_hash)&&ipfsIsExists(_ipfs) */\n      dup1\n      iszero\n      tag_95\n      jumpi\n      pop\n        /* \"oracle_flat.sol\":5038:5057  ipfsIsExists(_ipfs) */\n      tag_96\n        /* \"oracle_flat.sol\":5051:5056  _ipfs */\n      dup3\n        /* \"oracle_flat.sol\":5038:5050  ipfsIsExists */\n      tag_97\n        /* \"oracle_flat.sol\":5038:5057  ipfsIsExists(_ipfs) */\n      jump\t// in\n    tag_96:\n        /* \"oracle_flat.sol\":5017:5057  hashIsExists(_hash)&&ipfsIsExists(_ipfs) */\n    tag_95:\n        /* \"oracle_flat.sol\":5009:5092  require(hashIsExists(_hash)&&ipfsIsExists(_ipfs),\"Unable to repeat the detection!\") */\n      tag_98\n      jumpi\n      mload(0x40)\n      0x08c379a000000000000000000000000000000000000000000000000000000000\n      dup2\n      mstore\n      0x04\n      add\n      tag_99\n      swap1\n      tag_100\n      jump\t// in\n    tag_99:\n      mload(0x40)\n      dup1\n      swap2\n      sub\n      swap1\n      revert\n    tag_98:\n        /* \"oracle_flat.sol\":5117:5122  _hash */\n      dup3\n        /* \"oracle_flat.sol\":5101:5105  nfts */\n      0x02\n        /* \"oracle_flat.sol\":5101:5109  nfts[ID] */\n      0x00\n        /* \"oracle_flat.sol\":5106:5108  ID */\n      sload(0x01)\n        /* \"oracle_flat.sol\":5101:5109  nfts[ID] */\n      dup2\n      mstore\n      0x20\n      add\n      swap1\n      dup2\n      mstore\n      0x20\n      add\n      0x00\n      keccak256\n        /* \"oracle_flat.sol\":5101:5114  nfts[ID].hash */\n      0x01\n      add\n        /* \"oracle_flat.sol\":5101:5122  nfts[ID].hash = _hash */\n      swap1\n      dup1\n      mload\n      swap1\n      0x20\n      add\n      swap1\n      tag_101\n      swap3\n      swap2\n      swap1\n      tag_102\n      jump\t// in\n    tag_101:\n      pop\n        /* \"oracle_flat.sol\":5147:5152  _ipfs */\n      dup2\n        /* \"oracle_flat.sol\":5131:5135  nfts */\n      0x02\n        /* \"oracle_flat.sol\":5131:5139  nfts[ID] */\n      0x00\n        /* \"oracle_flat.sol\":5136:5138  ID */\n      sload(0x01)\n        /* \"oracle_flat.sol\":5131:5139  nfts[ID] */\n      dup2\n      mstore\n      0x20\n      add\n      swap1\n      dup2\n      mstore\n      0x20\n      add\n      0x00\n      keccak256\n        /* \"oracle_flat.sol\":5131:5144  nfts[ID].IPFS */\n      0x02\n      add\n        /* \"oracle_flat.sol\":5131:5152  nfts[ID].IPFS = _ipfs */\n      swap1\n      dup1\n      mload\n      swap1\n      0x20\n      add\n      swap1\n      tag_103\n      swap3\n      swap2\n      swap1\n      tag_102\n      jump\t// in\n    tag_103:\n      pop\n        /* \"oracle_flat.sol\":5178:5197  NFTState.Undetected */\n      0x00\n        /* \"oracle_flat.sol\":5161:5165  nfts */\n      0x02\n        /* \"oracle_flat.sol\":5161:5169  nfts[ID] */\n      0x00\n        /* \"oracle_flat.sol\":5166:5168  ID */\n      sload(0x01)\n        /* \"oracle_flat.sol\":5161:5169  nfts[ID] */\n      dup2\n      mstore\n      0x20\n      add\n      swap1\n      dup2\n      mstore\n      0x20\n      add\n      0x00\n      keccak256\n        /* \"oracle_flat.sol\":5161:5175  nfts[ID].state */\n      0x00\n      add\n      0x00\n        /* \"oracle_flat.sol\":5161:5197  nfts[ID].state = NFTState.Undetected */\n      0x0100\n      exp\n      dup2\n      sload\n      dup2\n      0xff\n      mul\n      not\n      and\n      swap1\n      dup4\n      0x01\n      dup2\n      gt\n      iszero\n      tag_104\n      jumpi\n      tag_105\n      tag_60\n      jump\t// in\n    tag_105:\n    tag_104:\n      mul\n      or\n      swap1\n      sstore\n      pop\n        /* \"oracle_flat.sol\":5229:5234  false */\n      0x00\n        /* \"oracle_flat.sol\":5207:5211  nfts */\n      0x02\n        /* \"oracle_flat.sol\":5207:5215  nfts[ID] */\n      0x00\n        /* \"oracle_flat.sol\":5212:5214  ID */\n      sload(0x01)\n        /* \"oracle_flat.sol\":5207:5215  nfts[ID] */\n      dup2\n      mstore\n      0x20\n      add\n      swap1\n      dup2\n      mstore\n      0x20\n      add\n      0x00\n      keccak256\n        /* \"oracle_flat.sol\":5207:5226  nfts[ID].isDetected */\n      0x03\n      add\n      0x00\n        /* \"oracle_flat.sol\":5207:5234  nfts[ID].isDetected = false */\n      0x0100\n      exp\n      dup2\n      sload\n      dup2\n      0xff\n      mul\n      not\n      and\n      swap1\n      dup4\n      iszero\n      iszero\n      mul\n      or\n      swap1\n      sstore\n      pop\n        /* \"oracle_flat.sol\":5261:5266  false */\n      0x00\n        /* \"oracle_flat.sol\":5243:5247  nfts */\n      0x02\n        /* \"oracle_flat.sol\":5243:5251  nfts[ID] */\n      0x00\n        /* \"oracle_flat.sol\":5248:5250  ID */\n      sload(0x01)\n        /* \"oracle_flat.sol\":5243:5251  nfts[ID] */\n      dup2\n      mstore\n      0x20\n      add\n      swap1\n      dup2\n      mstore\n      0x20\n      add\n      0x00\n      keccak256\n        /* \"oracle_flat.sol\":5243:5258  nfts[ID].result */\n      0x03\n      add\n      0x01\n        /* \"oracle_flat.sol\":5243:5266  nfts[ID].result = false */\n      0x0100\n      exp\n      dup2\n      sload\n      dup2\n      0xff\n      mul\n      not\n      and\n      swap1\n      dup4\n      iszero\n      iszero\n      mul\n      or\n      swap1\n      sstore\n      pop\n        /* \"oracle_flat.sol\":5295:5305  msg.sender */\n      caller\n        /* \"oracle_flat.sol\":5275:5279  nfts */\n      0x02\n        /* \"oracle_flat.sol\":5275:5283  nfts[ID] */\n      0x00\n        /* \"oracle_flat.sol\":5280:5282  ID */\n      sload(0x01)\n        /* \"oracle_flat.sol\":5275:5283  nfts[ID] */\n      dup2\n      mstore\n      0x20\n      add\n      swap1\n      dup2\n      mstore\n      0x20\n      add\n      0x00\n      keccak256\n        /* \"oracle_flat.sol\":5275:5292  nfts[ID].uploader */\n      0x03\n      add\n      0x02\n        /* \"oracle_flat.sol\":5275:5305  nfts[ID].uploader = msg.sender */\n      0x0100\n      exp\n      dup2\n      sload\n      dup2\n      0xffffffffffffffffffffffffffffffffffffffff\n      mul\n      not\n      and\n      swap1\n      dup4\n      0xffffffffffffffffffffffffffffffffffffffff\n      and\n      mul\n      or\n      swap1\n      sstore\n      pop\n        /* \"oracle_flat.sol\":5322:5323  1 */\n      0x01\n        /* \"oracle_flat.sol\":5319:5321  ID */\n      dup1\n      sload\n        /* \"oracle_flat.sol\":5319:5323  ID+1 */\n      tag_106\n      swap2\n      swap1\n      tag_107\n      jump\t// in\n    tag_106:\n        /* \"oracle_flat.sol\":5314:5316  ID */\n      0x01\n        /* \"oracle_flat.sol\":5314:5323  ID = ID+1 */\n      dup2\n      swap1\n      sstore\n      pop\n        /* \"oracle_flat.sol\":5342:5343  1 */\n      0x01\n        /* \"oracle_flat.sol\":5339:5341  ID */\n      dup1\n      sload\n        /* \"oracle_flat.sol\":5339:5343  ID-1 */\n      tag_108\n      swap2\n      swap1\n      tag_109\n      jump\t// in\n    tag_108:\n        /* \"oracle_flat.sol\":5332:5343  return ID-1 */\n      swap1\n      pop\n        /* \"oracle_flat.sol\":4916:5349  function uploadNFT(string memory _hash,string memory _ipfs)  public returns(uint256){... */\n      swap3\n      swap2\n      pop\n      pop\n      jump\t// out\n        /* \"oracle_flat.sol\":2526:2627  function renounceOwnership() public virtual onlyOwner {... */\n    tag_30:\n        /* \"oracle_flat.sol\":2117:2129  _msgSender() */\n      tag_111\n        /* \"oracle_flat.sol\":2117:2127  _msgSender */\n      tag_76\n        /* \"oracle_flat.sol\":2117:2129  _msgSender() */\n      jump\t// in\n    tag_111:\n        /* \"oracle_flat.sol\":2106:2129  owner() == _msgSender() */\n      0xffffffffffffffffffffffffffffffffffffffff\n      and\n        /* \"oracle_flat.sol\":2106:2113  owner() */\n      tag_112\n        /* \"oracle_flat.sol\":2106:2111  owner */\n      tag_32\n        /* \"oracle_flat.sol\":2106:2113  owner() */\n      jump\t// in\n    tag_112:\n        /* \"oracle_flat.sol\":2106:2129  owner() == _msgSender() */\n      0xffffffffffffffffffffffffffffffffffffffff\n      and\n      eq\n        /* \"oracle_flat.sol\":2098:2166  require(owner() == _msgSender(), \"Ownable: caller is not the owner\") */\n      tag_113\n      jumpi\n      mload(0x40)\n      0x08c379a000000000000000000000000000000000000000000000000000000000\n      dup2\n      mstore\n      0x04\n      add\n      tag_114\n      swap1\n      tag_80\n      jump\t// in\n    tag_114:\n      mload(0x40)\n      dup1\n      swap2\n      sub\n      swap1\n      revert\n    tag_113:\n        /* \"oracle_flat.sol\":2590:2620  _transferOwnership(address(0)) */\n      tag_116\n        /* \"oracle_flat.sol\":2617:2618  0 */\n      0x00\n        /* \"oracle_flat.sol\":2590:2608  _transferOwnership */\n      tag_117\n        /* \"oracle_flat.sol\":2590:2620  _transferOwnership(address(0)) */\n      jump\t// in\n    tag_116:\n        /* \"oracle_flat.sol\":2526:2627  function renounceOwnership() public virtual onlyOwner {... */\n      jump\t// out\n        /* \"oracle_flat.sol\":1894:1979  function owner() public view virtual returns (address) {... */\n    tag_32:\n        /* \"oracle_flat.sol\":1940:1947  address */\n      0x00\n        /* \"oracle_flat.sol\":1966:1972  _owner */\n      dup1\n      0x00\n      swap1\n      sload\n      swap1\n      0x0100\n      exp\n      swap1\n      div\n      0xffffffffffffffffffffffffffffffffffffffff\n      and\n        /* \"oracle_flat.sol\":1959:1972  return _owner */\n      swap1\n      pop\n        /* \"oracle_flat.sol\":1894:1979  function owner() public view virtual returns (address) {... */\n      swap1\n      jump\t// out\n        /* \"oracle_flat.sol\":3774:3792  uint public ID = 1 */\n    tag_36:\n      sload(0x01)\n      dup2\n      jump\t// out\n        /* \"oracle_flat.sol\":4288:4544  function checkNFTByID(uint _ID) public view returns(bool){... */\n    tag_40:\n        /* \"oracle_flat.sol\":4340:4344  bool */\n      0x00\n        /* \"oracle_flat.sol\":4444:4446  ID */\n      sload(0x01)\n        /* \"oracle_flat.sol\":4440:4443  _ID */\n      dup3\n        /* \"oracle_flat.sol\":4440:4446  _ID<ID */\n      lt\n        /* \"oracle_flat.sol\":4432:4477  require(_ID<ID,\"This ID of NFT don't exists\") */\n      tag_120\n      jumpi\n      mload(0x40)\n      0x08c379a000000000000000000000000000000000000000000000000000000000\n      dup2\n      mstore\n      0x04\n      add\n      tag_121\n      swap1\n      tag_57\n      jump\t// in\n    tag_121:\n      mload(0x40)\n      dup1\n      swap2\n      sub\n      swap1\n      revert\n    tag_120:\n        /* \"oracle_flat.sol\":4486:4500  NFT memory nft */\n      0x00\n        /* \"oracle_flat.sol\":4503:4507  nfts */\n      0x02\n        /* \"oracle_flat.sol\":4503:4512  nfts[_ID] */\n      0x00\n        /* \"oracle_flat.sol\":4508:4511  _ID */\n      dup5\n        /* \"oracle_flat.sol\":4503:4512  nfts[_ID] */\n      dup2\n      mstore\n      0x20\n      add\n      swap1\n      dup2\n      mstore\n      0x20\n      add\n      0x00\n      keccak256\n        /* \"oracle_flat.sol\":4486:4512  NFT memory nft = nfts[_ID] */\n      mload(0x40)\n      dup1\n      0xc0\n      add\n      0x40\n      mstore\n      swap1\n      dup2\n      0x00\n      dup3\n      add\n      0x00\n      swap1\n      sload\n      swap1\n      0x0100\n      exp\n      swap1\n      div\n      0xff\n      and\n      0x01\n      dup2\n      gt\n      iszero\n      tag_122\n      jumpi\n      tag_123\n      tag_60\n      jump\t// in\n    tag_123:\n    tag_122:\n      0x01\n      dup2\n      gt\n      iszero\n      tag_124\n      jumpi\n      tag_125\n      tag_60\n      jump\t// in\n    tag_125:\n    tag_124:\n      dup2\n      mstore\n      0x20\n      add\n      0x01\n      dup3\n      add\n      dup1\n      sload\n      tag_126\n      swap1\n      tag_64\n      jump\t// in\n    tag_126:\n      dup1\n      0x1f\n      add\n      0x20\n      dup1\n      swap2\n      div\n      mul\n      0x20\n      add\n      mload(0x40)\n      swap1\n      dup2\n      add\n      0x40\n      mstore\n      dup1\n      swap3\n      swap2\n      swap1\n      dup2\n      dup2\n      mstore\n      0x20\n      add\n      dup3\n      dup1\n      sload\n      tag_127\n      swap1\n      tag_64\n      jump\t// in\n    tag_127:\n      dup1\n      iszero\n      tag_128\n      jumpi\n      dup1\n      0x1f\n      lt\n      tag_129\n      jumpi\n      0x0100\n      dup1\n      dup4\n      sload\n      div\n      mul\n      dup4\n      mstore\n      swap2\n      0x20\n      add\n      swap2\n      jump(tag_128)\n    tag_129:\n      dup3\n      add\n      swap2\n      swap1\n      0x00\n      mstore\n      keccak256(0x00, 0x20)\n      swap1\n    tag_130:\n      dup2\n      sload\n      dup2\n      mstore\n      swap1\n      0x01\n      add\n      swap1\n      0x20\n      add\n      dup1\n      dup4\n      gt\n      tag_130\n      jumpi\n      dup3\n      swap1\n      sub\n      0x1f\n      and\n      dup3\n      add\n      swap2\n    tag_128:\n      pop\n      pop\n      pop\n      pop\n      pop\n      dup2\n      mstore\n      0x20\n      add\n      0x02\n      dup3\n      add\n      dup1\n      sload\n      tag_131\n      swap1\n      tag_64\n      jump\t// in\n    tag_131:\n      dup1\n      0x1f\n      add\n      0x20\n      dup1\n      swap2\n      div\n      mul\n      0x20\n      add\n      mload(0x40)\n      swap1\n      dup2\n      add\n      0x40\n      mstore\n      dup1\n      swap3\n      swap2\n      swap1\n      dup2\n      dup2\n      mstore\n      0x20\n      add\n      dup3\n      dup1\n      sload\n      tag_132\n      swap1\n      tag_64\n      jump\t// in\n    tag_132:\n      dup1\n      iszero\n      tag_133\n      jumpi\n      dup1\n      0x1f\n      lt\n      tag_134\n      jumpi\n      0x0100\n      dup1\n      dup4\n      sload\n      div\n      mul\n      dup4\n      mstore\n      swap2\n      0x20\n      add\n      swap2\n      jump(tag_133)\n    tag_134:\n      dup3\n      add\n      swap2\n      swap1\n      0x00\n      mstore\n      keccak256(0x00, 0x20)\n      swap1\n    tag_135:\n      dup2\n      sload\n      dup2\n      mstore\n      swap1\n      0x01\n      add\n      swap1\n      0x20\n      add\n      dup1\n      dup4\n      gt\n      tag_135\n      jumpi\n      dup3\n      swap1\n      sub\n      0x1f\n      and\n      dup3\n      add\n      swap2\n    tag_133:\n      pop\n      pop\n      pop\n      pop\n      pop\n      dup2\n      mstore\n      0x20\n      add\n      0x03\n      dup3\n      add\n      0x00\n      swap1\n      sload\n      swap1\n      0x0100\n      exp\n      swap1\n      div\n      0xff\n      and\n      iszero\n      iszero\n      iszero\n      iszero\n      dup2\n      mstore\n      0x20\n      add\n      0x03\n      dup3\n      add\n      0x01\n      swap1\n      sload\n      swap1\n      0x0100\n      exp\n      swap1\n      div\n      0xff\n      and\n      iszero\n      iszero\n      iszero\n      iszero\n      dup2\n      mstore\n      0x20\n      add\n      0x03\n      dup3\n      add\n      0x02\n      swap1\n      sload\n      swap1\n      0x0100\n      exp\n      swap1\n      div\n      0xffffffffffffffffffffffffffffffffffffffff\n      and\n      0xffffffffffffffffffffffffffffffffffffffff\n      and\n      0xffffffffffffffffffffffffffffffffffffffff\n      and\n      dup2\n      mstore\n      pop\n      pop\n      swap1\n      pop\n        /* \"oracle_flat.sol\":4528:4531  nft */\n      dup1\n        /* \"oracle_flat.sol\":4528:4538  nft.result */\n      0x80\n      add\n      mload\n        /* \"oracle_flat.sol\":4521:4538  return nft.result */\n      swap2\n      pop\n      pop\n        /* \"oracle_flat.sol\":4288:4544  function checkNFTByID(uint _ID) public view returns(bool){... */\n      swap2\n      swap1\n      pop\n      jump\t// out\n        /* \"oracle_flat.sol\":3941:4198  function checkNFTByHash(string memory _hash) public view returns(bool) {... */\n    tag_46:\n        /* \"oracle_flat.sol\":4006:4010  bool */\n      0x00\n        /* \"oracle_flat.sol\":4025:4031  uint i */\n      dup1\n        /* \"oracle_flat.sol\":4032:4033  0 */\n      0x00\n        /* \"oracle_flat.sol\":4025:4033  uint i=0 */\n      swap1\n      pop\n        /* \"oracle_flat.sol\":4021:4171  for(uint i=0;i<ID;i++){... */\n    tag_137:\n        /* \"oracle_flat.sol\":4036:4038  ID */\n      sload(0x01)\n        /* \"oracle_flat.sol\":4034:4035  i */\n      dup2\n        /* \"oracle_flat.sol\":4034:4038  i<ID */\n      lt\n        /* \"oracle_flat.sol\":4021:4171  for(uint i=0;i<ID;i++){... */\n      iszero\n      tag_138\n      jumpi\n        /* \"oracle_flat.sol\":4060:4094  compareStrings(nfts[i].hash,_hash) */\n      tag_140\n        /* \"oracle_flat.sol\":4075:4079  nfts */\n      0x02\n        /* \"oracle_flat.sol\":4075:4082  nfts[i] */\n      0x00\n        /* \"oracle_flat.sol\":4080:4081  i */\n      dup4\n        /* \"oracle_flat.sol\":4075:4082  nfts[i] */\n      dup2\n      mstore\n      0x20\n      add\n      swap1\n      dup2\n      mstore\n      0x20\n      add\n      0x00\n      keccak256\n        /* \"oracle_flat.sol\":4075:4087  nfts[i].hash */\n      0x01\n      add\n        /* \"oracle_flat.sol\":4060:4094  compareStrings(nfts[i].hash,_hash) */\n      dup1\n      sload\n      tag_141\n      swap1\n      tag_64\n      jump\t// in\n    tag_141:\n      dup1\n      0x1f\n      add\n      0x20\n      dup1\n      swap2\n      div\n      mul\n      0x20\n      add\n      mload(0x40)\n      swap1\n      dup2\n      add\n      0x40\n      mstore\n      dup1\n      swap3\n      swap2\n      swap1\n      dup2\n      dup2\n      mstore\n      0x20\n      add\n      dup3\n      dup1\n      sload\n      tag_142\n      swap1\n      tag_64\n      jump\t// in\n    tag_142:\n      dup1\n      iszero\n      tag_143\n      jumpi\n      dup1\n      0x1f\n      lt\n      tag_144\n      jumpi\n      0x0100\n      dup1\n      dup4\n      sload\n      div\n      mul\n      dup4\n      mstore\n      swap2\n      0x20\n      add\n      swap2\n      jump(tag_143)\n    tag_144:\n      dup3\n      add\n      swap2\n      swap1\n      0x00\n      mstore\n      keccak256(0x00, 0x20)\n      swap1\n    tag_145:\n      dup2\n      sload\n      dup2\n      mstore\n      swap1\n      0x01\n      add\n      swap1\n      0x20\n      add\n      dup1\n      dup4\n      gt\n      tag_145\n      jumpi\n      dup3\n      swap1\n      sub\n      0x1f\n      and\n      dup3\n      add\n      swap2\n    tag_143:\n      pop\n      pop\n      pop\n      pop\n      pop\n        /* \"oracle_flat.sol\":4088:4093  _hash */\n      dup5\n        /* \"oracle_flat.sol\":4060:4074  compareStrings */\n      tag_146\n        /* \"oracle_flat.sol\":4060:4094  compareStrings(nfts[i].hash,_hash) */\n      jump\t// in\n    tag_140:\n        /* \"oracle_flat.sol\":4060:4116  compareStrings(nfts[i].hash,_hash)&&nfts[i].result==true */\n      dup1\n      iszero\n      tag_147\n      jumpi\n      pop\n        /* \"oracle_flat.sol\":4112:4116  true */\n      0x01\n        /* \"oracle_flat.sol\":4096:4116  nfts[i].result==true */\n      iszero\n      iszero\n        /* \"oracle_flat.sol\":4096:4100  nfts */\n      0x02\n        /* \"oracle_flat.sol\":4096:4103  nfts[i] */\n      0x00\n        /* \"oracle_flat.sol\":4101:4102  i */\n      dup4\n        /* \"oracle_flat.sol\":4096:4103  nfts[i] */\n      dup2\n      mstore\n      0x20\n      add\n      swap1\n      dup2\n      mstore\n      0x20\n      add\n      0x00\n      keccak256\n        /* \"oracle_flat.sol\":4096:4110  nfts[i].result */\n      0x03\n      add\n      0x01\n      swap1\n      sload\n      swap1\n      0x0100\n      exp\n      swap1\n      div\n      0xff\n      and\n        /* \"oracle_flat.sol\":4096:4116  nfts[i].result==true */\n      iszero\n      iszero\n      eq\n        /* \"oracle_flat.sol\":4060:4116  compareStrings(nfts[i].hash,_hash)&&nfts[i].result==true */\n    tag_147:\n        /* \"oracle_flat.sol\":4057:4161  if(compareStrings(nfts[i].hash,_hash)&&nfts[i].result==true){... */\n      iszero\n      tag_148\n      jumpi\n        /* \"oracle_flat.sol\":4142:4146  true */\n      0x01\n        /* \"oracle_flat.sol\":4135:4146  return true */\n      swap2\n      pop\n      pop\n      jump(tag_136)\n        /* \"oracle_flat.sol\":4057:4161  if(compareStrings(nfts[i].hash,_hash)&&nfts[i].result==true){... */\n    tag_148:\n        /* \"oracle_flat.sol\":4039:4042  i++ */\n      dup1\n      dup1\n      tag_149\n      swap1\n      tag_150\n      jump\t// in\n    tag_149:\n      swap2\n      pop\n      pop\n        /* \"oracle_flat.sol\":4021:4171  for(uint i=0;i<ID;i++){... */\n      jump(tag_137)\n    tag_138:\n      pop\n        /* \"oracle_flat.sol\":4187:4192  false */\n      0x00\n        /* \"oracle_flat.sol\":4180:4192  return false */\n      swap1\n      pop\n        /* \"oracle_flat.sol\":3941:4198  function checkNFTByHash(string memory _hash) public view returns(bool) {... */\n    tag_136:\n      swap2\n      swap1\n      pop\n      jump\t// out\n        /* \"oracle_flat.sol\":2776:2974  function transferOwnership(address newOwner) public virtual onlyOwner {... */\n    tag_51:\n        /* \"oracle_flat.sol\":2117:2129  _msgSender() */\n      tag_152\n        /* \"oracle_flat.sol\":2117:2127  _msgSender */\n      tag_76\n        /* \"oracle_flat.sol\":2117:2129  _msgSender() */\n      jump\t// in\n    tag_152:\n        /* \"oracle_flat.sol\":2106:2129  owner() == _msgSender() */\n      0xffffffffffffffffffffffffffffffffffffffff\n      and\n        /* \"oracle_flat.sol\":2106:2113  owner() */\n      tag_153\n        /* \"oracle_flat.sol\":2106:2111  owner */\n      tag_32\n        /* \"oracle_flat.sol\":2106:2113  owner() */\n      jump\t// in\n    tag_153:\n        /* \"oracle_flat.sol\":2106:2129  owner() == _msgSender() */\n      0xffffffffffffffffffffffffffffffffffffffff\n      and\n      eq\n        /* \"oracle_flat.sol\":2098:2166  require(owner() == _msgSender(), \"Ownable: caller is not the owner\") */\n      tag_154\n      jumpi\n      mload(0x40)\n      0x08c379a000000000000000000000000000000000000000000000000000000000\n      dup2\n      mstore\n      0x04\n      add\n      tag_155\n      swap1\n      tag_80\n      jump\t// in\n    tag_155:\n      mload(0x40)\n      dup1\n      swap2\n      sub\n      swap1\n      revert\n    tag_154:\n        /* \"oracle_flat.sol\":2884:2885  0 */\n      0x00\n        /* \"oracle_flat.sol\":2864:2886  newOwner != address(0) */\n      0xffffffffffffffffffffffffffffffffffffffff\n      and\n        /* \"oracle_flat.sol\":2864:2872  newOwner */\n      dup2\n        /* \"oracle_flat.sol\":2864:2886  newOwner != address(0) */\n      0xffffffffffffffffffffffffffffffffffffffff\n      and\n      eq\n      iszero\n        /* \"oracle_flat.sol\":2856:2929  require(newOwner != address(0), \"Ownable: new owner is the zero address\") */\n      tag_157\n      jumpi\n      mload(0x40)\n      0x08c379a000000000000000000000000000000000000000000000000000000000\n      dup2\n      mstore\n      0x04\n      add\n      tag_158\n      swap1\n      tag_159\n      jump\t// in\n    tag_158:\n      mload(0x40)\n      dup1\n      swap2\n      sub\n      swap1\n      revert\n    tag_157:\n        /* \"oracle_flat.sol\":2939:2967  _transferOwnership(newOwner) */\n      tag_160\n        /* \"oracle_flat.sol\":2958:2966  newOwner */\n      dup2\n        /* \"oracle_flat.sol\":2939:2957  _transferOwnership */\n      tag_117\n        /* \"oracle_flat.sol\":2939:2967  _transferOwnership(newOwner) */\n      jump\t// in\n    tag_160:\n        /* \"oracle_flat.sol\":2776:2974  function transferOwnership(address newOwner) public virtual onlyOwner {... */\n      pop\n      jump\t// out\n        /* \"oracle_flat.sol\":662:758  function _msgSender() internal view virtual returns (address) {... */\n    tag_76:\n        /* \"oracle_flat.sol\":715:722  address */\n      0x00\n        /* \"oracle_flat.sol\":741:751  msg.sender */\n      caller\n        /* \"oracle_flat.sol\":734:751  return msg.sender */\n      swap1\n      pop\n        /* \"oracle_flat.sol\":662:758  function _msgSender() internal view virtual returns (address) {... */\n      swap1\n      jump\t// out\n        /* \"oracle_flat.sol\":5856:6092  function  hashIsExists(string memory _hash) private view returns(bool){... */\n    tag_94:\n        /* \"oracle_flat.sol\":5921:5925  bool */\n      0x00\n        /* \"oracle_flat.sol\":5940:5946  uint i */\n      dup1\n        /* \"oracle_flat.sol\":5947:5948  0 */\n      0x00\n        /* \"oracle_flat.sol\":5940:5948  uint i=0 */\n      swap1\n      pop\n        /* \"oracle_flat.sol\":5936:6065  for(uint i=0;i<ID;i++){... */\n    tag_163:\n        /* \"oracle_flat.sol\":5951:5953  ID */\n      sload(0x01)\n        /* \"oracle_flat.sol\":5949:5950  i */\n      dup2\n        /* \"oracle_flat.sol\":5949:5953  i<ID */\n      lt\n        /* \"oracle_flat.sol\":5936:6065  for(uint i=0;i<ID;i++){... */\n      iszero\n      tag_164\n      jumpi\n        /* \"oracle_flat.sol\":5975:6009  compareStrings(nfts[i].hash,_hash) */\n      tag_166\n        /* \"oracle_flat.sol\":5990:5994  nfts */\n      0x02\n        /* \"oracle_flat.sol\":5990:5997  nfts[i] */\n      0x00\n        /* \"oracle_flat.sol\":5995:5996  i */\n      dup4\n        /* \"oracle_flat.sol\":5990:5997  nfts[i] */\n      dup2\n      mstore\n      0x20\n      add\n      swap1\n      dup2\n      mstore\n      0x20\n      add\n      0x00\n      keccak256\n        /* \"oracle_flat.sol\":5990:6002  nfts[i].hash */\n      0x01\n      add\n        /* \"oracle_flat.sol\":5975:6009  compareStrings(nfts[i].hash,_hash) */\n      dup1\n      sload\n      tag_167\n      swap1\n      tag_64\n      jump\t// in\n    tag_167:\n      dup1\n      0x1f\n      add\n      0x20\n      dup1\n      swap2\n      div\n      mul\n      0x20\n      add\n      mload(0x40)\n      swap1\n      dup2\n      add\n      0x40\n      mstore\n      dup1\n      swap3\n      swap2\n      swap1\n      dup2\n      dup2\n      mstore\n      0x20\n      add\n      dup3\n      dup1\n      sload\n      tag_168\n      swap1\n      tag_64\n      jump\t// in\n    tag_168:\n      dup1\n      iszero\n      tag_169\n      jumpi\n      dup1\n      0x1f\n      lt\n      tag_170\n      jumpi\n      0x0100\n      dup1\n      dup4\n      sload\n      div\n      mul\n      dup4\n      mstore\n      swap2\n      0x20\n      add\n      swap2\n      jump(tag_169)\n    tag_170:\n      dup3\n      add\n      swap2\n      swap1\n      0x00\n      mstore\n      keccak256(0x00, 0x20)\n      swap1\n    tag_171:\n      dup2\n      sload\n      dup2\n      mstore\n      swap1\n      0x01\n      add\n      swap1\n      0x20\n      add\n      dup1\n      dup4\n      gt\n      tag_171\n      jumpi\n      dup3\n      swap1\n      sub\n      0x1f\n      and\n      dup3\n      add\n      swap2\n    tag_169:\n      pop\n      pop\n      pop\n      pop\n      pop\n        /* \"oracle_flat.sol\":6003:6008  _hash */\n      dup5\n        /* \"oracle_flat.sol\":5975:5989  compareStrings */\n      tag_146\n        /* \"oracle_flat.sol\":5975:6009  compareStrings(nfts[i].hash,_hash) */\n      jump\t// in\n    tag_166:\n        /* \"oracle_flat.sol\":5972:6055  if(compareStrings(nfts[i].hash,_hash)){... */\n      iszero\n      tag_172\n      jumpi\n        /* \"oracle_flat.sol\":6035:6040  false */\n      0x00\n        /* \"oracle_flat.sol\":6028:6040  return false */\n      swap2\n      pop\n      pop\n      jump(tag_162)\n        /* \"oracle_flat.sol\":5972:6055  if(compareStrings(nfts[i].hash,_hash)){... */\n    tag_172:\n        /* \"oracle_flat.sol\":5954:5957  i++ */\n      dup1\n      dup1\n      tag_173\n      swap1\n      tag_150\n      jump\t// in\n    tag_173:\n      swap2\n      pop\n      pop\n        /* \"oracle_flat.sol\":5936:6065  for(uint i=0;i<ID;i++){... */\n      jump(tag_163)\n    tag_164:\n      pop\n        /* \"oracle_flat.sol\":6081:6085  true */\n      0x01\n        /* \"oracle_flat.sol\":6074:6085  return true */\n      swap1\n      pop\n        /* \"oracle_flat.sol\":5856:6092  function  hashIsExists(string memory _hash) private view returns(bool){... */\n    tag_162:\n      swap2\n      swap1\n      pop\n      jump\t// out\n        /* \"oracle_flat.sol\":6097:6332  function ipfsIsExists(string memory _ipfs) private view returns(bool){... */\n    tag_97:\n        /* \"oracle_flat.sol\":6161:6165  bool */\n      0x00\n        /* \"oracle_flat.sol\":6180:6186  uint i */\n      dup1\n        /* \"oracle_flat.sol\":6187:6188  0 */\n      0x00\n        /* \"oracle_flat.sol\":6180:6188  uint i=0 */\n      swap1\n      pop\n        /* \"oracle_flat.sol\":6176:6305  for(uint i=0;i<ID;i++){... */\n    tag_175:\n        /* \"oracle_flat.sol\":6191:6193  ID */\n      sload(0x01)\n        /* \"oracle_flat.sol\":6189:6190  i */\n      dup2\n        /* \"oracle_flat.sol\":6189:6193  i<ID */\n      lt\n        /* \"oracle_flat.sol\":6176:6305  for(uint i=0;i<ID;i++){... */\n      iszero\n      tag_176\n      jumpi\n        /* \"oracle_flat.sol\":6215:6249  compareStrings(nfts[i].IPFS,_ipfs) */\n      tag_178\n        /* \"oracle_flat.sol\":6230:6234  nfts */\n      0x02\n        /* \"oracle_flat.sol\":6230:6237  nfts[i] */\n      0x00\n        /* \"oracle_flat.sol\":6235:6236  i */\n      dup4\n        /* \"oracle_flat.sol\":6230:6237  nfts[i] */\n      dup2\n      mstore\n      0x20\n      add\n      swap1\n      dup2\n      mstore\n      0x20\n      add\n      0x00\n      keccak256\n        /* \"oracle_flat.sol\":6230:6242  nfts[i].IPFS */\n      0x02\n      add\n        /* \"oracle_flat.sol\":6215:6249  compareStrings(nfts[i].IPFS,_ipfs) */\n      dup1\n      sload\n      tag_179\n      swap1\n      tag_64\n      jump\t// in\n    tag_179:\n      dup1\n      0x1f\n      add\n      0x20\n      dup1\n      swap2\n      div\n      mul\n      0x20\n      add\n      mload(0x40)\n      swap1\n      dup2\n      add\n      0x40\n      mstore\n      dup1\n      swap3\n      swap2\n      swap1\n      dup2\n      dup2\n      mstore\n      0x20\n      add\n      dup3\n      dup1\n      sload\n      tag_180\n      swap1\n      tag_64\n      jump\t// in\n    tag_180:\n      dup1\n      iszero\n      tag_181\n      jumpi\n      dup1\n      0x1f\n      lt\n      tag_182\n      jumpi\n      0x0100\n      dup1\n      dup4\n      sload\n      div\n      mul\n      dup4\n      mstore\n      swap2\n      0x20\n      add\n      swap2\n      jump(tag_181)\n    tag_182:\n      dup3\n      add\n      swap2\n      swap1\n      0x00\n      mstore\n      keccak256(0x00, 0x20)\n      swap1\n    tag_183:\n      dup2\n      sload\n      dup2\n      mstore\n      swap1\n      0x01\n      add\n      swap1\n      0x20\n      add\n      dup1\n      dup4\n      gt\n      tag_183\n      jumpi\n      dup3\n      swap1\n      sub\n      0x1f\n      and\n      dup3\n      add\n      swap2\n    tag_181:\n      pop\n      pop\n      pop\n      pop\n      pop\n        /* \"oracle_flat.sol\":6243:6248  _ipfs */\n      dup5\n        /* \"oracle_flat.sol\":6215:6229  compareStrings */\n      tag_146\n        /* \"oracle_flat.sol\":6215:6249  compareStrings(nfts[i].IPFS,_ipfs) */\n      jump\t// in\n    tag_178:\n        /* \"oracle_flat.sol\":6212:6295  if(compareStrings(nfts[i].IPFS,_ipfs)){... */\n      iszero\n      tag_184\n      jumpi\n        /* \"oracle_flat.sol\":6275:6280  false */\n      0x00\n        /* \"oracle_flat.sol\":6268:6280  return false */\n      swap2\n      pop\n      pop\n      jump(tag_174)\n        /* \"oracle_flat.sol\":6212:6295  if(compareStrings(nfts[i].IPFS,_ipfs)){... */\n    tag_184:\n        /* \"oracle_flat.sol\":6194:6197  i++ */\n      dup1\n      dup1\n      tag_185\n      swap1\n      tag_150\n      jump\t// in\n    tag_185:\n      swap2\n      pop\n      pop\n        /* \"oracle_flat.sol\":6176:6305  for(uint i=0;i<ID;i++){... */\n      jump(tag_175)\n    tag_176:\n      pop\n        /* \"oracle_flat.sol\":6321:6325  true */\n      0x01\n        /* \"oracle_flat.sol\":6314:6325  return true */\n      swap1\n      pop\n        /* \"oracle_flat.sol\":6097:6332  function ipfsIsExists(string memory _ipfs) private view returns(bool){... */\n    tag_174:\n      swap2\n      swap1\n      pop\n      jump\t// out\n        /* \"oracle_flat.sol\":3128:3315  function _transferOwnership(address newOwner) internal virtual {... */\n    tag_117:\n        /* \"oracle_flat.sol\":3201:3217  address oldOwner */\n      0x00\n        /* \"oracle_flat.sol\":3220:3226  _owner */\n      dup1\n      0x00\n      swap1\n      sload\n      swap1\n      0x0100\n      exp\n      swap1\n      div\n      0xffffffffffffffffffffffffffffffffffffffff\n      and\n        /* \"oracle_flat.sol\":3201:3226  address oldOwner = _owner */\n      swap1\n      pop\n        /* \"oracle_flat.sol\":3245:3253  newOwner */\n      dup2\n        /* \"oracle_flat.sol\":3236:3242  _owner */\n      0x00\n      dup1\n        /* \"oracle_flat.sol\":3236:3253  _owner = newOwner */\n      0x0100\n      exp\n      dup2\n      sload\n      dup2\n      0xffffffffffffffffffffffffffffffffffffffff\n      mul\n      not\n      and\n      swap1\n      dup4\n      0xffffffffffffffffffffffffffffffffffffffff\n      and\n      mul\n      or\n      swap1\n      sstore\n      pop\n        /* \"oracle_flat.sol\":3299:3307  newOwner */\n      dup2\n        /* \"oracle_flat.sol\":3268:3308  OwnershipTransferred(oldOwner, newOwner) */\n      0xffffffffffffffffffffffffffffffffffffffff\n      and\n        /* \"oracle_flat.sol\":3289:3297  oldOwner */\n      dup2\n        /* \"oracle_flat.sol\":3268:3308  OwnershipTransferred(oldOwner, newOwner) */\n      0xffffffffffffffffffffffffffffffffffffffff\n      and\n      0x8be0079c531659141344cd1fd0a4f28419497f9722a3daafe3b4186f6b6457e0\n      mload(0x40)\n      mload(0x40)\n      dup1\n      swap2\n      sub\n      swap1\n      log3\n        /* \"oracle_flat.sol\":3191:3315  {... */\n      pop\n        /* \"oracle_flat.sol\":3128:3315  function _transferOwnership(address newOwner) internal virtual {... */\n      pop\n      jump\t// out\n        /* \"oracle_flat.sol\":6342:6525  function  compareStrings(string memory a, string memory b) private pure returns(bool) {... */\n    tag_146:\n        /* \"oracle_flat.sol\":6422:6426  bool */\n      0x00\n        /* \"oracle_flat.sol\":6513:6514  b */\n      dup2\n        /* \"oracle_flat.sol\":6495:6516  abi.encodePacked((b)) */\n      add(0x20, mload(0x40))\n      tag_188\n      swap2\n      swap1\n      tag_189\n      jump\t// in\n    tag_188:\n      mload(0x40)\n      0x20\n      dup2\n      dup4\n      sub\n      sub\n      dup2\n      mstore\n      swap1\n      0x40\n      mstore\n        /* \"oracle_flat.sol\":6485:6517  keccak256(abi.encodePacked((b))) */\n      dup1\n      mload\n      swap1\n      0x20\n      add\n      keccak256\n        /* \"oracle_flat.sol\":6477:6478  a */\n      dup4\n        /* \"oracle_flat.sol\":6459:6480  abi.encodePacked((a)) */\n      add(0x20, mload(0x40))\n      tag_190\n      swap2\n      swap1\n      tag_189\n      jump\t// in\n    tag_190:\n      mload(0x40)\n      0x20\n      dup2\n      dup4\n      sub\n      sub\n      dup2\n      mstore\n      swap1\n      0x40\n      mstore\n        /* \"oracle_flat.sol\":6449:6481  keccak256(abi.encodePacked((a))) */\n      dup1\n      mload\n      swap1\n      0x20\n      add\n      keccak256\n        /* \"oracle_flat.sol\":6449:6517  keccak256(abi.encodePacked((a))) == keccak256(abi.encodePacked((b))) */\n      eq\n        /* \"oracle_flat.sol\":6441:6518  return (keccak256(abi.encodePacked((a))) == keccak256(abi.encodePacked((b)))) */\n      swap1\n      pop\n        /* \"oracle_flat.sol\":6342:6525  function  compareStrings(string memory a, string memory b) private pure returns(bool) {... */\n      swap3\n      swap2\n      pop\n      pop\n      jump\t// out\n    tag_53:\n      mload(0x40)\n      dup1\n      0xc0\n      add\n      0x40\n      mstore\n      dup1\n      0x00\n      0x01\n      dup2\n      gt\n      iszero\n      tag_191\n      jumpi\n      tag_192\n      tag_60\n      jump\t// in\n    tag_192:\n    tag_191:\n      dup2\n      mstore\n      0x20\n      add\n      0x60\n      dup2\n      mstore\n      0x20\n      add\n      0x60\n      dup2\n      mstore\n      0x20\n      add\n      iszero(iszero(0x00))\n      dup2\n      mstore\n      0x20\n      add\n      iszero(iszero(0x00))\n      dup2\n      mstore\n      0x20\n      add\n      and(0xffffffffffffffffffffffffffffffffffffffff, 0x00)\n      dup2\n      mstore\n      pop\n      swap1\n      jump\t// out\n    tag_102:\n      dup3\n      dup1\n      sload\n      tag_193\n      swap1\n      tag_64\n      jump\t// in\n    tag_193:\n      swap1\n      0x00\n      mstore\n      keccak256(0x00, 0x20)\n      swap1\n      0x1f\n      add\n      0x20\n      swap1\n      div\n      dup2\n      add\n      swap3\n      dup3\n      tag_195\n      jumpi\n      0x00\n      dup6\n      sstore\n      jump(tag_194)\n    tag_195:\n      dup3\n      0x1f\n      lt\n      tag_196\n      jumpi\n      dup1\n      mload\n      not(0xff)\n      and\n      dup4\n      dup1\n      add\n      or\n      dup6\n      sstore\n      jump(tag_194)\n    tag_196:\n      dup3\n      dup1\n      add\n      0x01\n      add\n      dup6\n      sstore\n      dup3\n      iszero\n      tag_194\n      jumpi\n      swap2\n      dup3\n      add\n    tag_197:\n      dup3\n      dup2\n      gt\n      iszero\n      tag_198\n      jumpi\n      dup3\n      mload\n      dup3\n      sstore\n      swap2\n      0x20\n      add\n      swap2\n      swap1\n      0x01\n      add\n      swap1\n      jump(tag_197)\n    tag_198:\n    tag_194:\n      pop\n      swap1\n      pop\n      tag_199\n      swap2\n      swap1\n      tag_200\n      jump\t// in\n    tag_199:\n      pop\n      swap1\n      jump\t// out\n    tag_200:\n    tag_201:\n      dup1\n      dup3\n      gt\n      iszero\n      tag_202\n      jumpi\n      0x00\n      dup2\n      0x00\n      swap1\n      sstore\n      pop\n      0x01\n      add\n      jump(tag_201)\n    tag_202:\n      pop\n      swap1\n      jump\t// out\n        /* \"#utility.yul\":7:419   */\n    tag_204:\n        /* \"#utility.yul\":85:90   */\n      0x00\n        /* \"#utility.yul\":110:176   */\n      tag_206\n        /* \"#utility.yul\":126:175   */\n      tag_207\n        /* \"#utility.yul\":168:174   */\n      dup5\n        /* \"#utility.yul\":126:175   */\n      tag_208\n      jump\t// in\n    tag_207:\n        /* \"#utility.yul\":110:176   */\n      tag_209\n      jump\t// in\n    tag_206:\n        /* \"#utility.yul\":101:176   */\n      swap1\n      pop\n        /* \"#utility.yul\":199:205   */\n      dup3\n        /* \"#utility.yul\":192:197   */\n      dup2\n        /* \"#utility.yul\":185:206   */\n      mstore\n        /* \"#utility.yul\":237:241   */\n      0x20\n        /* \"#utility.yul\":230:235   */\n      dup2\n        /* \"#utility.yul\":226:242   */\n      add\n        /* \"#utility.yul\":275:278   */\n      dup5\n        /* \"#utility.yul\":266:272   */\n      dup5\n        /* \"#utility.yul\":261:264   */\n      dup5\n        /* \"#utility.yul\":257:273   */\n      add\n        /* \"#utility.yul\":254:279   */\n      gt\n        /* \"#utility.yul\":251:363   */\n      iszero\n      tag_210\n      jumpi\n        /* \"#utility.yul\":282:361   */\n      tag_211\n      tag_212\n      jump\t// in\n    tag_211:\n        /* \"#utility.yul\":251:363   */\n    tag_210:\n        /* \"#utility.yul\":372:413   */\n      tag_213\n        /* \"#utility.yul\":406:412   */\n      dup5\n        /* \"#utility.yul\":401:404   */\n      dup3\n        /* \"#utility.yul\":396:399   */\n      dup6\n        /* \"#utility.yul\":372:413   */\n      tag_214\n      jump\t// in\n    tag_213:\n        /* \"#utility.yul\":91:419   */\n      pop\n        /* \"#utility.yul\":7:419   */\n      swap4\n      swap3\n      pop\n      pop\n      pop\n      jump\t// out\n        /* \"#utility.yul\":425:564   */\n    tag_215:\n        /* \"#utility.yul\":471:476   */\n      0x00\n        /* \"#utility.yul\":509:515   */\n      dup2\n        /* \"#utility.yul\":496:516   */\n      calldataload\n        /* \"#utility.yul\":487:516   */\n      swap1\n      pop\n        /* \"#utility.yul\":525:558   */\n      tag_217\n        /* \"#utility.yul\":552:557   */\n      dup2\n        /* \"#utility.yul\":525:558   */\n      tag_218\n      jump\t// in\n    tag_217:\n        /* \"#utility.yul\":425:564   */\n      swap3\n      swap2\n      pop\n      pop\n      jump\t// out\n        /* \"#utility.yul\":570:703   */\n    tag_219:\n        /* \"#utility.yul\":613:618   */\n      0x00\n        /* \"#utility.yul\":651:657   */\n      dup2\n        /* \"#utility.yul\":638:658   */\n      calldataload\n        /* \"#utility.yul\":629:658   */\n      swap1\n      pop\n        /* \"#utility.yul\":667:697   */\n      tag_221\n        /* \"#utility.yul\":691:696   */\n      dup2\n        /* \"#utility.yul\":667:697   */\n      tag_222\n      jump\t// in\n    tag_221:\n        /* \"#utility.yul\":570:703   */\n      swap3\n      swap2\n      pop\n      pop\n      jump\t// out\n        /* \"#utility.yul\":723:1063   */\n    tag_223:\n        /* \"#utility.yul\":779:784   */\n      0x00\n        /* \"#utility.yul\":828:831   */\n      dup3\n        /* \"#utility.yul\":821:825   */\n      0x1f\n        /* \"#utility.yul\":813:819   */\n      dup4\n        /* \"#utility.yul\":809:826   */\n      add\n        /* \"#utility.yul\":805:832   */\n      slt\n        /* \"#utility.yul\":795:917   */\n      tag_225\n      jumpi\n        /* \"#utility.yul\":836:915   */\n      tag_226\n      tag_227\n      jump\t// in\n    tag_226:\n        /* \"#utility.yul\":795:917   */\n    tag_225:\n        /* \"#utility.yul\":953:959   */\n      dup2\n        /* \"#utility.yul\":940:960   */\n      calldataload\n        /* \"#utility.yul\":978:1057   */\n      tag_228\n        /* \"#utility.yul\":1053:1056   */\n      dup5\n        /* \"#utility.yul\":1045:1051   */\n      dup3\n        /* \"#utility.yul\":1038:1042   */\n      0x20\n        /* \"#utility.yul\":1030:1036   */\n      dup7\n        /* \"#utility.yul\":1026:1043   */\n      add\n        /* \"#utility.yul\":978:1057   */\n      tag_204\n      jump\t// in\n    tag_228:\n        /* \"#utility.yul\":969:1057   */\n      swap2\n      pop\n        /* \"#utility.yul\":785:1063   */\n      pop\n        /* \"#utility.yul\":723:1063   */\n      swap3\n      swap2\n      pop\n      pop\n      jump\t// out\n        /* \"#utility.yul\":1069:1208   */\n    tag_229:\n        /* \"#utility.yul\":1115:1120   */\n      0x00\n        /* \"#utility.yul\":1153:1159   */\n      dup2\n        /* \"#utility.yul\":1140:1160   */\n      calldataload\n        /* \"#utility.yul\":1131:1160   */\n      swap1\n      pop\n        /* \"#utility.yul\":1169:1202   */\n      tag_231\n        /* \"#utility.yul\":1196:1201   */\n      dup2\n        /* \"#utility.yul\":1169:1202   */\n      tag_232\n      jump\t// in\n    tag_231:\n        /* \"#utility.yul\":1069:1208   */\n      swap3\n      swap2\n      pop\n      pop\n      jump\t// out\n        /* \"#utility.yul\":1214:1543   */\n    tag_50:\n        /* \"#utility.yul\":1273:1279   */\n      0x00\n        /* \"#utility.yul\":1322:1324   */\n      0x20\n        /* \"#utility.yul\":1310:1319   */\n      dup3\n        /* \"#utility.yul\":1301:1308   */\n      dup5\n        /* \"#utility.yul\":1297:1320   */\n      sub\n        /* \"#utility.yul\":1293:1325   */\n      slt\n        /* \"#utility.yul\":1290:1409   */\n      iszero\n      tag_234\n      jumpi\n        /* \"#utility.yul\":1328:1407   */\n      tag_235\n      tag_236\n      jump\t// in\n    tag_235:\n        /* \"#utility.yul\":1290:1409   */\n    tag_234:\n        /* \"#utility.yul\":1448:1449   */\n      0x00\n        /* \"#utility.yul\":1473:1526   */\n      tag_237\n        /* \"#utility.yul\":1518:1525   */\n      dup5\n        /* \"#utility.yul\":1509:1515   */\n      dup3\n        /* \"#utility.yul\":1498:1507   */\n      dup6\n        /* \"#utility.yul\":1494:1516   */\n      add\n        /* \"#utility.yul\":1473:1526   */\n      tag_215\n      jump\t// in\n    tag_237:\n        /* \"#utility.yul\":1463:1526   */\n      swap2\n      pop\n        /* \"#utility.yul\":1419:1536   */\n      pop\n        /* \"#utility.yul\":1214:1543   */\n      swap3\n      swap2\n      pop\n      pop\n      jump\t// out\n        /* \"#utility.yul\":1549:2058   */\n    tag_45:\n        /* \"#utility.yul\":1618:1624   */\n      0x00\n        /* \"#utility.yul\":1667:1669   */\n      0x20\n        /* \"#utility.yul\":1655:1664   */\n      dup3\n        /* \"#utility.yul\":1646:1653   */\n      dup5\n        /* \"#utility.yul\":1642:1665   */\n      sub\n        /* \"#utility.yul\":1638:1670   */\n      slt\n        /* \"#utility.yul\":1635:1754   */\n      iszero\n      tag_239\n      jumpi\n        /* \"#utility.yul\":1673:1752   */\n      tag_240\n      tag_236\n      jump\t// in\n    tag_240:\n        /* \"#utility.yul\":1635:1754   */\n    tag_239:\n        /* \"#utility.yul\":1821:1822   */\n      0x00\n        /* \"#utility.yul\":1810:1819   */\n      dup3\n        /* \"#utility.yul\":1806:1823   */\n      add\n        /* \"#utility.yul\":1793:1824   */\n      calldataload\n        /* \"#utility.yul\":1851:1869   */\n      0xffffffffffffffff\n        /* \"#utility.yul\":1843:1849   */\n      dup2\n        /* \"#utility.yul\":1840:1870   */\n      gt\n        /* \"#utility.yul\":1837:1954   */\n      iszero\n      tag_241\n      jumpi\n        /* \"#utility.yul\":1873:1952   */\n      tag_242\n      tag_243\n      jump\t// in\n    tag_242:\n        /* \"#utility.yul\":1837:1954   */\n    tag_241:\n        /* \"#utility.yul\":1978:2041   */\n      tag_244\n        /* \"#utility.yul\":2033:2040   */\n      dup5\n        /* \"#utility.yul\":2024:2030   */\n      dup3\n        /* \"#utility.yul\":2013:2022   */\n      dup6\n        /* \"#utility.yul\":2009:2031   */\n      add\n        /* \"#utility.yul\":1978:2041   */\n      tag_223\n      jump\t// in\n    tag_244:\n        /* \"#utility.yul\":1968:2041   */\n      swap2\n      pop\n        /* \"#utility.yul\":1764:2051   */\n      pop\n        /* \"#utility.yul\":1549:2058   */\n      swap3\n      swap2\n      pop\n      pop\n      jump\t// out\n        /* \"#utility.yul\":2064:2898   */\n    tag_25:\n        /* \"#utility.yul\":2152:2158   */\n      0x00\n        /* \"#utility.yul\":2160:2166   */\n      dup1\n        /* \"#utility.yul\":2209:2211   */\n      0x40\n        /* \"#utility.yul\":2197:2206   */\n      dup4\n        /* \"#utility.yul\":2188:2195   */\n      dup6\n        /* \"#utility.yul\":2184:2207   */\n      sub\n        /* \"#utility.yul\":2180:2212   */\n      slt\n        /* \"#utility.yul\":2177:2296   */\n      iszero\n      tag_246\n      jumpi\n        /* \"#utility.yul\":2215:2294   */\n      tag_247\n      tag_236\n      jump\t// in\n    tag_247:\n        /* \"#utility.yul\":2177:2296   */\n    tag_246:\n        /* \"#utility.yul\":2363:2364   */\n      0x00\n        /* \"#utility.yul\":2352:2361   */\n      dup4\n        /* \"#utility.yul\":2348:2365   */\n      add\n        /* \"#utility.yul\":2335:2366   */\n      calldataload\n        /* \"#utility.yul\":2393:2411   */\n      0xffffffffffffffff\n        /* \"#utility.yul\":2385:2391   */\n      dup2\n        /* \"#utility.yul\":2382:2412   */\n      gt\n        /* \"#utility.yul\":2379:2496   */\n      iszero\n      tag_248\n      jumpi\n        /* \"#utility.yul\":2415:2494   */\n      tag_249\n      tag_243\n      jump\t// in\n    tag_249:\n        /* \"#utility.yul\":2379:2496   */\n    tag_248:\n        /* \"#utility.yul\":2520:2583   */\n      tag_250\n        /* \"#utility.yul\":2575:2582   */\n      dup6\n        /* \"#utility.yul\":2566:2572   */\n      dup3\n        /* \"#utility.yul\":2555:2564   */\n      dup7\n        /* \"#utility.yul\":2551:2573   */\n      add\n        /* \"#utility.yul\":2520:2583   */\n      tag_223\n      jump\t// in\n    tag_250:\n        /* \"#utility.yul\":2510:2583   */\n      swap3\n      pop\n        /* \"#utility.yul\":2306:2593   */\n      pop\n        /* \"#utility.yul\":2660:2662   */\n      0x20\n        /* \"#utility.yul\":2649:2658   */\n      dup4\n        /* \"#utility.yul\":2645:2663   */\n      add\n        /* \"#utility.yul\":2632:2664   */\n      calldataload\n        /* \"#utility.yul\":2691:2709   */\n      0xffffffffffffffff\n        /* \"#utility.yul\":2683:2689   */\n      dup2\n        /* \"#utility.yul\":2680:2710   */\n      gt\n        /* \"#utility.yul\":2677:2794   */\n      iszero\n      tag_251\n      jumpi\n        /* \"#utility.yul\":2713:2792   */\n      tag_252\n      tag_243\n      jump\t// in\n    tag_252:\n        /* \"#utility.yul\":2677:2794   */\n    tag_251:\n        /* \"#utility.yul\":2818:2881   */\n      tag_253\n        /* \"#utility.yul\":2873:2880   */\n      dup6\n        /* \"#utility.yul\":2864:2870   */\n      dup3\n        /* \"#utility.yul\":2853:2862   */\n      dup7\n        /* \"#utility.yul\":2849:2871   */\n      add\n        /* \"#utility.yul\":2818:2881   */\n      tag_223\n      jump\t// in\n    tag_253:\n        /* \"#utility.yul\":2808:2881   */\n      swap2\n      pop\n        /* \"#utility.yul\":2603:2891   */\n      pop\n        /* \"#utility.yul\":2064:2898   */\n      swap3\n      pop\n      swap3\n      swap1\n      pop\n      jump\t// out\n        /* \"#utility.yul\":2904:3233   */\n    tag_15:\n        /* \"#utility.yul\":2963:2969   */\n      0x00\n        /* \"#utility.yul\":3012:3014   */\n      0x20\n        /* \"#utility.yul\":3000:3009   */\n      dup3\n        /* \"#utility.yul\":2991:2998   */\n      dup5\n        /* \"#utility.yul\":2987:3010   */\n      sub\n        /* \"#utility.yul\":2983:3015   */\n      slt\n        /* \"#utility.yul\":2980:3099   */\n      iszero\n      tag_255\n      jumpi\n        /* \"#utility.yul\":3018:3097   */\n      tag_256\n      tag_236\n      jump\t// in\n    tag_256:\n        /* \"#utility.yul\":2980:3099   */\n    tag_255:\n        /* \"#utility.yul\":3138:3139   */\n      0x00\n        /* \"#utility.yul\":3163:3216   */\n      tag_257\n        /* \"#utility.yul\":3208:3215   */\n      dup5\n        /* \"#utility.yul\":3199:3205   */\n      dup3\n        /* \"#utility.yul\":3188:3197   */\n      dup6\n        /* \"#utility.yul\":3184:3206   */\n      add\n        /* \"#utility.yul\":3163:3216   */\n      tag_229\n      jump\t// in\n    tag_257:\n        /* \"#utility.yul\":3153:3216   */\n      swap2\n      pop\n        /* \"#utility.yul\":3109:3226   */\n      pop\n        /* \"#utility.yul\":2904:3233   */\n      swap3\n      swap2\n      pop\n      pop\n      jump\t// out\n        /* \"#utility.yul\":3239:3707   */\n    tag_21:\n        /* \"#utility.yul\":3304:3310   */\n      0x00\n        /* \"#utility.yul\":3312:3318   */\n      dup1\n        /* \"#utility.yul\":3361:3363   */\n      0x40\n        /* \"#utility.yul\":3349:3358   */\n      dup4\n        /* \"#utility.yul\":3340:3347   */\n      dup6\n        /* \"#utility.yul\":3336:3359   */\n      sub\n        /* \"#utility.yul\":3332:3364   */\n      slt\n        /* \"#utility.yul\":3329:3448   */\n      iszero\n      tag_259\n      jumpi\n        /* \"#utility.yul\":3367:3446   */\n      tag_260\n      tag_236\n      jump\t// in\n    tag_260:\n        /* \"#utility.yul\":3329:3448   */\n    tag_259:\n        /* \"#utility.yul\":3487:3488   */\n      0x00\n        /* \"#utility.yul\":3512:3565   */\n      tag_261\n        /* \"#utility.yul\":3557:3564   */\n      dup6\n        /* \"#utility.yul\":3548:3554   */\n      dup3\n        /* \"#utility.yul\":3537:3546   */\n      dup7\n        /* \"#utility.yul\":3533:3555   */\n      add\n        /* \"#utility.yul\":3512:3565   */\n      tag_229\n      jump\t// in\n    tag_261:\n        /* \"#utility.yul\":3502:3565   */\n      swap3\n      pop\n        /* \"#utility.yul\":3458:3575   */\n      pop\n        /* \"#utility.yul\":3614:3616   */\n      0x20\n        /* \"#utility.yul\":3640:3690   */\n      tag_262\n        /* \"#utility.yul\":3682:3689   */\n      dup6\n        /* \"#utility.yul\":3673:3679   */\n      dup3\n        /* \"#utility.yul\":3662:3671   */\n      dup7\n        /* \"#utility.yul\":3658:3680   */\n      add\n        /* \"#utility.yul\":3640:3690   */\n      tag_219\n      jump\t// in\n    tag_262:\n        /* \"#utility.yul\":3630:3690   */\n      swap2\n      pop\n        /* \"#utility.yul\":3585:3700   */\n      pop\n        /* \"#utility.yul\":3239:3707   */\n      swap3\n      pop\n      swap3\n      swap1\n      pop\n      jump\t// out\n        /* \"#utility.yul\":3713:3821   */\n    tag_263:\n        /* \"#utility.yul\":3790:3814   */\n      tag_265\n        /* \"#utility.yul\":3808:3813   */\n      dup2\n        /* \"#utility.yul\":3790:3814   */\n      tag_266\n      jump\t// in\n    tag_265:\n        /* \"#utility.yul\":3785:3788   */\n      dup3\n        /* \"#utility.yul\":3778:3815   */\n      mstore\n        /* \"#utility.yul\":3713:3821   */\n      pop\n      pop\n      jump\t// out\n        /* \"#utility.yul\":3827:3945   */\n    tag_267:\n        /* \"#utility.yul\":3914:3938   */\n      tag_269\n        /* \"#utility.yul\":3932:3937   */\n      dup2\n        /* \"#utility.yul\":3914:3938   */\n      tag_266\n      jump\t// in\n    tag_269:\n        /* \"#utility.yul\":3909:3912   */\n      dup3\n        /* \"#utility.yul\":3902:3939   */\n      mstore\n        /* \"#utility.yul\":3827:3945   */\n      pop\n      pop\n      jump\t// out\n        /* \"#utility.yul\":3951:4050   */\n    tag_270:\n        /* \"#utility.yul\":4022:4043   */\n      tag_272\n        /* \"#utility.yul\":4037:4042   */\n      dup2\n        /* \"#utility.yul\":4022:4043   */\n      tag_273\n      jump\t// in\n    tag_272:\n        /* \"#utility.yul\":4017:4020   */\n      dup3\n        /* \"#utility.yul\":4010:4044   */\n      mstore\n        /* \"#utility.yul\":3951:4050   */\n      pop\n      pop\n      jump\t// out\n        /* \"#utility.yul\":4056:4165   */\n    tag_274:\n        /* \"#utility.yul\":4137:4158   */\n      tag_276\n        /* \"#utility.yul\":4152:4157   */\n      dup2\n        /* \"#utility.yul\":4137:4158   */\n      tag_273\n      jump\t// in\n    tag_276:\n        /* \"#utility.yul\":4132:4135   */\n      dup3\n        /* \"#utility.yul\":4125:4159   */\n      mstore\n        /* \"#utility.yul\":4056:4165   */\n      pop\n      pop\n      jump\t// out\n        /* \"#utility.yul\":4171:4312   */\n    tag_277:\n        /* \"#utility.yul\":4258:4305   */\n      tag_279\n        /* \"#utility.yul\":4299:4304   */\n      dup2\n        /* \"#utility.yul\":4258:4305   */\n      tag_280\n      jump\t// in\n    tag_279:\n        /* \"#utility.yul\":4253:4256   */\n      dup3\n        /* \"#utility.yul\":4246:4306   */\n      mstore\n        /* \"#utility.yul\":4171:4312   */\n      pop\n      pop\n      jump\t// out\n        /* \"#utility.yul\":4318:4662   */\n    tag_281:\n        /* \"#utility.yul\":4396:4399   */\n      0x00\n        /* \"#utility.yul\":4424:4463   */\n      tag_283\n        /* \"#utility.yul\":4457:4462   */\n      dup3\n        /* \"#utility.yul\":4424:4463   */\n      tag_284\n      jump\t// in\n    tag_283:\n        /* \"#utility.yul\":4479:4540   */\n      tag_285\n        /* \"#utility.yul\":4533:4539   */\n      dup2\n        /* \"#utility.yul\":4528:4531   */\n      dup6\n        /* \"#utility.yul\":4479:4540   */\n      tag_286\n      jump\t// in\n    tag_285:\n        /* \"#utility.yul\":4472:4540   */\n      swap4\n      pop\n        /* \"#utility.yul\":4549:4601   */\n      tag_287\n        /* \"#utility.yul\":4594:4600   */\n      dup2\n        /* \"#utility.yul\":4589:4592   */\n      dup6\n        /* \"#utility.yul\":4582:4586   */\n      0x20\n        /* \"#utility.yul\":4575:4580   */\n      dup7\n        /* \"#utility.yul\":4571:4587   */\n      add\n        /* \"#utility.yul\":4549:4601   */\n      tag_288\n      jump\t// in\n    tag_287:\n        /* \"#utility.yul\":4626:4655   */\n      tag_289\n        /* \"#utility.yul\":4648:4654   */\n      dup2\n        /* \"#utility.yul\":4626:4655   */\n      tag_290\n      jump\t// in\n    tag_289:\n        /* \"#utility.yul\":4621:4624   */\n      dup5\n        /* \"#utility.yul\":4617:4656   */\n      add\n        /* \"#utility.yul\":4610:4656   */\n      swap2\n      pop\n        /* \"#utility.yul\":4400:4662   */\n      pop\n        /* \"#utility.yul\":4318:4662   */\n      swap3\n      swap2\n      pop\n      pop\n      jump\t// out\n        /* \"#utility.yul\":4668:5045   */\n    tag_291:\n        /* \"#utility.yul\":4774:4777   */\n      0x00\n        /* \"#utility.yul\":4802:4841   */\n      tag_293\n        /* \"#utility.yul\":4835:4840   */\n      dup3\n        /* \"#utility.yul\":4802:4841   */\n      tag_284\n      jump\t// in\n    tag_293:\n        /* \"#utility.yul\":4857:4946   */\n      tag_294\n        /* \"#utility.yul\":4939:4945   */\n      dup2\n        /* \"#utility.yul\":4934:4937   */\n      dup6\n        /* \"#utility.yul\":4857:4946   */\n      tag_295\n      jump\t// in\n    tag_294:\n        /* \"#utility.yul\":4850:4946   */\n      swap4\n      pop\n        /* \"#utility.yul\":4955:5007   */\n      tag_296\n        /* \"#utility.yul\":5000:5006   */\n      dup2\n        /* \"#utility.yul\":4995:4998   */\n      dup6\n        /* \"#utility.yul\":4988:4992   */\n      0x20\n        /* \"#utility.yul\":4981:4986   */\n      dup7\n        /* \"#utility.yul\":4977:4993   */\n      add\n        /* \"#utility.yul\":4955:5007   */\n      tag_288\n      jump\t// in\n    tag_296:\n        /* \"#utility.yul\":5032:5038   */\n      dup1\n        /* \"#utility.yul\":5027:5030   */\n      dup5\n        /* \"#utility.yul\":5023:5039   */\n      add\n        /* \"#utility.yul\":5016:5039   */\n      swap2\n      pop\n        /* \"#utility.yul\":4778:5045   */\n      pop\n        /* \"#utility.yul\":4668:5045   */\n      swap3\n      swap2\n      pop\n      pop\n      jump\t// out\n        /* \"#utility.yul\":5051:5417   */\n    tag_297:\n        /* \"#utility.yul\":5193:5196   */\n      0x00\n        /* \"#utility.yul\":5214:5281   */\n      tag_299\n        /* \"#utility.yul\":5278:5280   */\n      0x1b\n        /* \"#utility.yul\":5273:5276   */\n      dup4\n        /* \"#utility.yul\":5214:5281   */\n      tag_300\n      jump\t// in\n    tag_299:\n        /* \"#utility.yul\":5207:5281   */\n      swap2\n      pop\n        /* \"#utility.yul\":5290:5383   */\n      tag_301\n        /* \"#utility.yul\":5379:5382   */\n      dup3\n        /* \"#utility.yul\":5290:5383   */\n      tag_302\n      jump\t// in\n    tag_301:\n        /* \"#utility.yul\":5408:5410   */\n      0x20\n        /* \"#utility.yul\":5403:5406   */\n      dup3\n        /* \"#utility.yul\":5399:5411   */\n      add\n        /* \"#utility.yul\":5392:5411   */\n      swap1\n      pop\n        /* \"#utility.yul\":5051:5417   */\n      swap2\n      swap1\n      pop\n      jump\t// out\n        /* \"#utility.yul\":5423:5789   */\n    tag_303:\n        /* \"#utility.yul\":5565:5568   */\n      0x00\n        /* \"#utility.yul\":5586:5653   */\n      tag_305\n        /* \"#utility.yul\":5650:5652   */\n      0x26\n        /* \"#utility.yul\":5645:5648   */\n      dup4\n        /* \"#utility.yul\":5586:5653   */\n      tag_300\n      jump\t// in\n    tag_305:\n        /* \"#utility.yul\":5579:5653   */\n      swap2\n      pop\n        /* \"#utility.yul\":5662:5755   */\n      tag_306\n        /* \"#utility.yul\":5751:5754   */\n      dup3\n        /* \"#utility.yul\":5662:5755   */\n      tag_307\n      jump\t// in\n    tag_306:\n        /* \"#utility.yul\":5780:5782   */\n      0x40\n        /* \"#utility.yul\":5775:5778   */\n      dup3\n        /* \"#utility.yul\":5771:5783   */\n      add\n        /* \"#utility.yul\":5764:5783   */\n      swap1\n      pop\n        /* \"#utility.yul\":5423:5789   */\n      swap2\n      swap1\n      pop\n      jump\t// out\n        /* \"#utility.yul\":5795:6161   */\n    tag_308:\n        /* \"#utility.yul\":5937:5940   */\n      0x00\n        /* \"#utility.yul\":5958:6025   */\n      tag_310\n        /* \"#utility.yul\":6022:6024   */\n      0x1f\n        /* \"#utility.yul\":6017:6020   */\n      dup4\n        /* \"#utility.yul\":5958:6025   */\n      tag_300\n      jump\t// in\n    tag_310:\n        /* \"#utility.yul\":5951:6025   */\n      swap2\n      pop\n        /* \"#utility.yul\":6034:6127   */\n      tag_311\n        /* \"#utility.yul\":6123:6126   */\n      dup3\n        /* \"#utility.yul\":6034:6127   */\n      tag_312\n      jump\t// in\n    tag_311:\n        /* \"#utility.yul\":6152:6154   */\n      0x20\n        /* \"#utility.yul\":6147:6150   */\n      dup3\n        /* \"#utility.yul\":6143:6155   */\n      add\n        /* \"#utility.yul\":6136:6155   */\n      swap1\n      pop\n        /* \"#utility.yul\":5795:6161   */\n      swap2\n      swap1\n      pop\n      jump\t// out\n        /* \"#utility.yul\":6167:6533   */\n    tag_313:\n        /* \"#utility.yul\":6309:6312   */\n      0x00\n        /* \"#utility.yul\":6330:6397   */\n      tag_315\n        /* \"#utility.yul\":6394:6396   */\n      0x2f\n        /* \"#utility.yul\":6389:6392   */\n      dup4\n        /* \"#utility.yul\":6330:6397   */\n      tag_300\n      jump\t// in\n    tag_315:\n        /* \"#utility.yul\":6323:6397   */\n      swap2\n      pop\n        /* \"#utility.yul\":6406:6499   */\n      tag_316\n        /* \"#utility.yul\":6495:6498   */\n      dup3\n        /* \"#utility.yul\":6406:6499   */\n      tag_317\n      jump\t// in\n    tag_316:\n        /* \"#utility.yul\":6524:6526   */\n      0x40\n        /* \"#utility.yul\":6519:6522   */\n      dup3\n        /* \"#utility.yul\":6515:6527   */\n      add\n        /* \"#utility.yul\":6508:6527   */\n      swap1\n      pop\n        /* \"#utility.yul\":6167:6533   */\n      swap2\n      swap1\n      pop\n      jump\t// out\n        /* \"#utility.yul\":6539:6905   */\n    tag_318:\n        /* \"#utility.yul\":6681:6684   */\n      0x00\n        /* \"#utility.yul\":6702:6769   */\n      tag_320\n        /* \"#utility.yul\":6766:6768   */\n      0x20\n        /* \"#utility.yul\":6761:6764   */\n      dup4\n        /* \"#utility.yul\":6702:6769   */\n      tag_300\n      jump\t// in\n    tag_320:\n        /* \"#utility.yul\":6695:6769   */\n      swap2\n      pop\n        /* \"#utility.yul\":6778:6871   */\n      tag_321\n        /* \"#utility.yul\":6867:6870   */\n      dup3\n        /* \"#utility.yul\":6778:6871   */\n      tag_322\n      jump\t// in\n    tag_321:\n        /* \"#utility.yul\":6896:6898   */\n      0x20\n        /* \"#utility.yul\":6891:6894   */\n      dup3\n        /* \"#utility.yul\":6887:6899   */\n      add\n        /* \"#utility.yul\":6880:6899   */\n      swap1\n      pop\n        /* \"#utility.yul\":6539:6905   */\n      swap2\n      swap1\n      pop\n      jump\t// out\n        /* \"#utility.yul\":6963:8337   */\n    tag_323:\n        /* \"#utility.yul\":7072:7075   */\n      0x00\n        /* \"#utility.yul\":7108:7112   */\n      0xc0\n        /* \"#utility.yul\":7103:7106   */\n      dup4\n        /* \"#utility.yul\":7099:7113   */\n      add\n        /* \"#utility.yul\":7196:7200   */\n      0x00\n        /* \"#utility.yul\":7189:7194   */\n      dup4\n        /* \"#utility.yul\":7185:7201   */\n      add\n        /* \"#utility.yul\":7179:7202   */\n      mload\n        /* \"#utility.yul\":7215:7288   */\n      tag_325\n        /* \"#utility.yul\":7282:7286   */\n      0x00\n        /* \"#utility.yul\":7277:7280   */\n      dup7\n        /* \"#utility.yul\":7273:7287   */\n      add\n        /* \"#utility.yul\":7259:7271   */\n      dup3\n        /* \"#utility.yul\":7215:7288   */\n      tag_277\n      jump\t// in\n    tag_325:\n        /* \"#utility.yul\":7123:7298   */\n      pop\n        /* \"#utility.yul\":7380:7384   */\n      0x20\n        /* \"#utility.yul\":7373:7378   */\n      dup4\n        /* \"#utility.yul\":7369:7385   */\n      add\n        /* \"#utility.yul\":7363:7386   */\n      mload\n        /* \"#utility.yul\":7433:7436   */\n      dup5\n        /* \"#utility.yul\":7427:7431   */\n      dup3\n        /* \"#utility.yul\":7423:7437   */\n      sub\n        /* \"#utility.yul\":7416:7420   */\n      0x20\n        /* \"#utility.yul\":7411:7414   */\n      dup7\n        /* \"#utility.yul\":7407:7421   */\n      add\n        /* \"#utility.yul\":7400:7438   */\n      mstore\n        /* \"#utility.yul\":7459:7532   */\n      tag_326\n        /* \"#utility.yul\":7527:7531   */\n      dup3\n        /* \"#utility.yul\":7513:7525   */\n      dup3\n        /* \"#utility.yul\":7459:7532   */\n      tag_281\n      jump\t// in\n    tag_326:\n        /* \"#utility.yul\":7451:7532   */\n      swap2\n      pop\n        /* \"#utility.yul\":7308:7543   */\n      pop\n        /* \"#utility.yul\":7625:7629   */\n      0x40\n        /* \"#utility.yul\":7618:7623   */\n      dup4\n        /* \"#utility.yul\":7614:7630   */\n      add\n        /* \"#utility.yul\":7608:7631   */\n      mload\n        /* \"#utility.yul\":7678:7681   */\n      dup5\n        /* \"#utility.yul\":7672:7676   */\n      dup3\n        /* \"#utility.yul\":7668:7682   */\n      sub\n        /* \"#utility.yul\":7661:7665   */\n      0x40\n        /* \"#utility.yul\":7656:7659   */\n      dup7\n        /* \"#utility.yul\":7652:7666   */\n      add\n        /* \"#utility.yul\":7645:7683   */\n      mstore\n        /* \"#utility.yul\":7704:7777   */\n      tag_327\n        /* \"#utility.yul\":7772:7776   */\n      dup3\n        /* \"#utility.yul\":7758:7770   */\n      dup3\n        /* \"#utility.yul\":7704:7777   */\n      tag_281\n      jump\t// in\n    tag_327:\n        /* \"#utility.yul\":7696:7777   */\n      swap2\n      pop\n        /* \"#utility.yul\":7553:7788   */\n      pop\n        /* \"#utility.yul\":7876:7880   */\n      0x60\n        /* \"#utility.yul\":7869:7874   */\n      dup4\n        /* \"#utility.yul\":7865:7881   */\n      add\n        /* \"#utility.yul\":7859:7882   */\n      mload\n        /* \"#utility.yul\":7895:7952   */\n      tag_328\n        /* \"#utility.yul\":7946:7950   */\n      0x60\n        /* \"#utility.yul\":7941:7944   */\n      dup7\n        /* \"#utility.yul\":7937:7951   */\n      add\n        /* \"#utility.yul\":7923:7935   */\n      dup3\n        /* \"#utility.yul\":7895:7952   */\n      tag_270\n      jump\t// in\n    tag_328:\n        /* \"#utility.yul\":7798:7962   */\n      pop\n        /* \"#utility.yul\":8046:8050   */\n      0x80\n        /* \"#utility.yul\":8039:8044   */\n      dup4\n        /* \"#utility.yul\":8035:8051   */\n      add\n        /* \"#utility.yul\":8029:8052   */\n      mload\n        /* \"#utility.yul\":8065:8122   */\n      tag_329\n        /* \"#utility.yul\":8116:8120   */\n      0x80\n        /* \"#utility.yul\":8111:8114   */\n      dup7\n        /* \"#utility.yul\":8107:8121   */\n      add\n        /* \"#utility.yul\":8093:8105   */\n      dup3\n        /* \"#utility.yul\":8065:8122   */\n      tag_270\n      jump\t// in\n    tag_329:\n        /* \"#utility.yul\":7972:8132   */\n      pop\n        /* \"#utility.yul\":8218:8222   */\n      0xa0\n        /* \"#utility.yul\":8211:8216   */\n      dup4\n        /* \"#utility.yul\":8207:8223   */\n      add\n        /* \"#utility.yul\":8201:8224   */\n      mload\n        /* \"#utility.yul\":8237:8300   */\n      tag_330\n        /* \"#utility.yul\":8294:8298   */\n      0xa0\n        /* \"#utility.yul\":8289:8292   */\n      dup7\n        /* \"#utility.yul\":8285:8299   */\n      add\n        /* \"#utility.yul\":8271:8283   */\n      dup3\n        /* \"#utility.yul\":8237:8300   */\n      tag_263\n      jump\t// in\n    tag_330:\n        /* \"#utility.yul\":8142:8310   */\n      pop\n        /* \"#utility.yul\":8327:8331   */\n      dup1\n        /* \"#utility.yul\":8320:8331   */\n      swap2\n      pop\n        /* \"#utility.yul\":7077:8337   */\n      pop\n        /* \"#utility.yul\":6963:8337   */\n      swap3\n      swap2\n      pop\n      pop\n      jump\t// out\n        /* \"#utility.yul\":8343:8461   */\n    tag_331:\n        /* \"#utility.yul\":8430:8454   */\n      tag_333\n        /* \"#utility.yul\":8448:8453   */\n      dup2\n        /* \"#utility.yul\":8430:8454   */\n      tag_334\n      jump\t// in\n    tag_333:\n        /* \"#utility.yul\":8425:8428   */\n      dup3\n        /* \"#utility.yul\":8418:8455   */\n      mstore\n        /* \"#utility.yul\":8343:8461   */\n      pop\n      pop\n      jump\t// out\n        /* \"#utility.yul\":8467:8742   */\n    tag_189:\n        /* \"#utility.yul\":8599:8602   */\n      0x00\n        /* \"#utility.yul\":8621:8716   */\n      tag_336\n        /* \"#utility.yul\":8712:8715   */\n      dup3\n        /* \"#utility.yul\":8703:8709   */\n      dup5\n        /* \"#utility.yul\":8621:8716   */\n      tag_291\n      jump\t// in\n    tag_336:\n        /* \"#utility.yul\":8614:8716   */\n      swap2\n      pop\n        /* \"#utility.yul\":8733:8736   */\n      dup2\n        /* \"#utility.yul\":8726:8736   */\n      swap1\n      pop\n        /* \"#utility.yul\":8467:8742   */\n      swap3\n      swap2\n      pop\n      pop\n      jump\t// out\n        /* \"#utility.yul\":8748:8970   */\n    tag_34:\n        /* \"#utility.yul\":8841:8845   */\n      0x00\n        /* \"#utility.yul\":8879:8881   */\n      0x20\n        /* \"#utility.yul\":8868:8877   */\n      dup3\n        /* \"#utility.yul\":8864:8882   */\n      add\n        /* \"#utility.yul\":8856:8882   */\n      swap1\n      pop\n        /* \"#utility.yul\":8892:8963   */\n      tag_338\n        /* \"#utility.yul\":8960:8961   */\n      0x00\n        /* \"#utility.yul\":8949:8958   */\n      dup4\n        /* \"#utility.yul\":8945:8962   */\n      add\n        /* \"#utility.yul\":8936:8942   */\n      dup5\n        /* \"#utility.yul\":8892:8963   */\n      tag_267\n      jump\t// in\n    tag_338:\n        /* \"#utility.yul\":8748:8970   */\n      swap3\n      swap2\n      pop\n      pop\n      jump\t// out\n        /* \"#utility.yul\":8976:9186   */\n    tag_42:\n        /* \"#utility.yul\":9063:9067   */\n      0x00\n        /* \"#utility.yul\":9101:9103   */\n      0x20\n        /* \"#utility.yul\":9090:9099   */\n      dup3\n        /* \"#utility.yul\":9086:9104   */\n      add\n        /* \"#utility.yul\":9078:9104   */\n      swap1\n      pop\n        /* \"#utility.yul\":9114:9179   */\n      tag_340\n        /* \"#utility.yul\":9176:9177   */\n      0x00\n        /* \"#utility.yul\":9165:9174   */\n      dup4\n        /* \"#utility.yul\":9161:9178   */\n      add\n        /* \"#utility.yul\":9152:9158   */\n      dup5\n        /* \"#utility.yul\":9114:9179   */\n      tag_274\n      jump\t// in\n    tag_340:\n        /* \"#utility.yul\":8976:9186   */\n      swap3\n      swap2\n      pop\n      pop\n      jump\t// out\n        /* \"#utility.yul\":9192:9611   */\n    tag_57:\n        /* \"#utility.yul\":9358:9362   */\n      0x00\n        /* \"#utility.yul\":9396:9398   */\n      0x20\n        /* \"#utility.yul\":9385:9394   */\n      dup3\n        /* \"#utility.yul\":9381:9399   */\n      add\n        /* \"#utility.yul\":9373:9399   */\n      swap1\n      pop\n        /* \"#utility.yul\":9445:9454   */\n      dup2\n        /* \"#utility.yul\":9439:9443   */\n      dup2\n        /* \"#utility.yul\":9435:9455   */\n      sub\n        /* \"#utility.yul\":9431:9432   */\n      0x00\n        /* \"#utility.yul\":9420:9429   */\n      dup4\n        /* \"#utility.yul\":9416:9433   */\n      add\n        /* \"#utility.yul\":9409:9456   */\n      mstore\n        /* \"#utility.yul\":9473:9604   */\n      tag_342\n        /* \"#utility.yul\":9599:9603   */\n      dup2\n        /* \"#utility.yul\":9473:9604   */\n      tag_297\n      jump\t// in\n    tag_342:\n        /* \"#utility.yul\":9465:9604   */\n      swap1\n      pop\n        /* \"#utility.yul\":9192:9611   */\n      swap2\n      swap1\n      pop\n      jump\t// out\n        /* \"#utility.yul\":9617:10036   */\n    tag_159:\n        /* \"#utility.yul\":9783:9787   */\n      0x00\n        /* \"#utility.yul\":9821:9823   */\n      0x20\n        /* \"#utility.yul\":9810:9819   */\n      dup3\n        /* \"#utility.yul\":9806:9824   */\n      add\n        /* \"#utility.yul\":9798:9824   */\n      swap1\n      pop\n        /* \"#utility.yul\":9870:9879   */\n      dup2\n        /* \"#utility.yul\":9864:9868   */\n      dup2\n        /* \"#utility.yul\":9860:9880   */\n      sub\n        /* \"#utility.yul\":9856:9857   */\n      0x00\n        /* \"#utility.yul\":9845:9854   */\n      dup4\n        /* \"#utility.yul\":9841:9858   */\n      add\n        /* \"#utility.yul\":9834:9881   */\n      mstore\n        /* \"#utility.yul\":9898:10029   */\n      tag_344\n        /* \"#utility.yul\":10024:10028   */\n      dup2\n        /* \"#utility.yul\":9898:10029   */\n      tag_303\n      jump\t// in\n    tag_344:\n        /* \"#utility.yul\":9890:10029   */\n      swap1\n      pop\n        /* \"#utility.yul\":9617:10036   */\n      swap2\n      swap1\n      pop\n      jump\t// out\n        /* \"#utility.yul\":10042:10461   */\n    tag_100:\n        /* \"#utility.yul\":10208:10212   */\n      0x00\n        /* \"#utility.yul\":10246:10248   */\n      0x20\n        /* \"#utility.yul\":10235:10244   */\n      dup3\n        /* \"#utility.yul\":10231:10249   */\n      add\n        /* \"#utility.yul\":10223:10249   */\n      swap1\n      pop\n        /* \"#utility.yul\":10295:10304   */\n      dup2\n        /* \"#utility.yul\":10289:10293   */\n      dup2\n        /* \"#utility.yul\":10285:10305   */\n      sub\n        /* \"#utility.yul\":10281:10282   */\n      0x00\n        /* \"#utility.yul\":10270:10279   */\n      dup4\n        /* \"#utility.yul\":10266:10283   */\n      add\n        /* \"#utility.yul\":10259:10306   */\n      mstore\n        /* \"#utility.yul\":10323:10454   */\n      tag_346\n        /* \"#utility.yul\":10449:10453   */\n      dup2\n        /* \"#utility.yul\":10323:10454   */\n      tag_308\n      jump\t// in\n    tag_346:\n        /* \"#utility.yul\":10315:10454   */\n      swap1\n      pop\n        /* \"#utility.yul\":10042:10461   */\n      swap2\n      swap1\n      pop\n      jump\t// out\n        /* \"#utility.yul\":10467:10886   */\n    tag_89:\n        /* \"#utility.yul\":10633:10637   */\n      0x00\n        /* \"#utility.yul\":10671:10673   */\n      0x20\n        /* \"#utility.yul\":10660:10669   */\n      dup3\n        /* \"#utility.yul\":10656:10674   */\n      add\n        /* \"#utility.yul\":10648:10674   */\n      swap1\n      pop\n        /* \"#utility.yul\":10720:10729   */\n      dup2\n        /* \"#utility.yul\":10714:10718   */\n      dup2\n        /* \"#utility.yul\":10710:10730   */\n      sub\n        /* \"#utility.yul\":10706:10707   */\n      0x00\n        /* \"#utility.yul\":10695:10704   */\n      dup4\n        /* \"#utility.yul\":10691:10708   */\n      add\n        /* \"#utility.yul\":10684:10731   */\n      mstore\n        /* \"#utility.yul\":10748:10879   */\n      tag_348\n        /* \"#utility.yul\":10874:10878   */\n      dup2\n        /* \"#utility.yul\":10748:10879   */\n      tag_313\n      jump\t// in\n    tag_348:\n        /* \"#utility.yul\":10740:10879   */\n      swap1\n      pop\n        /* \"#utility.yul\":10467:10886   */\n      swap2\n      swap1\n      pop\n      jump\t// out\n        /* \"#utility.yul\":10892:11311   */\n    tag_80:\n        /* \"#utility.yul\":11058:11062   */\n      0x00\n        /* \"#utility.yul\":11096:11098   */\n      0x20\n        /* \"#utility.yul\":11085:11094   */\n      dup3\n        /* \"#utility.yul\":11081:11099   */\n      add\n        /* \"#utility.yul\":11073:11099   */\n      swap1\n      pop\n        /* \"#utility.yul\":11145:11154   */\n      dup2\n        /* \"#utility.yul\":11139:11143   */\n      dup2\n        /* \"#utility.yul\":11135:11155   */\n      sub\n        /* \"#utility.yul\":11131:11132   */\n      0x00\n        /* \"#utility.yul\":11120:11129   */\n      dup4\n        /* \"#utility.yul\":11116:11133   */\n      add\n        /* \"#utility.yul\":11109:11156   */\n      mstore\n        /* \"#utility.yul\":11173:11304   */\n      tag_350\n        /* \"#utility.yul\":11299:11303   */\n      dup2\n        /* \"#utility.yul\":11173:11304   */\n      tag_318\n      jump\t// in\n    tag_350:\n        /* \"#utility.yul\":11165:11304   */\n      swap1\n      pop\n        /* \"#utility.yul\":10892:11311   */\n      swap2\n      swap1\n      pop\n      jump\t// out\n        /* \"#utility.yul\":11317:11670   */\n    tag_18:\n        /* \"#utility.yul\":11450:11454   */\n      0x00\n        /* \"#utility.yul\":11488:11490   */\n      0x20\n        /* \"#utility.yul\":11477:11486   */\n      dup3\n        /* \"#utility.yul\":11473:11491   */\n      add\n        /* \"#utility.yul\":11465:11491   */\n      swap1\n      pop\n        /* \"#utility.yul\":11537:11546   */\n      dup2\n        /* \"#utility.yul\":11531:11535   */\n      dup2\n        /* \"#utility.yul\":11527:11547   */\n      sub\n        /* \"#utility.yul\":11523:11524   */\n      0x00\n        /* \"#utility.yul\":11512:11521   */\n      dup4\n        /* \"#utility.yul\":11508:11525   */\n      add\n        /* \"#utility.yul\":11501:11548   */\n      mstore\n        /* \"#utility.yul\":11565:11663   */\n      tag_352\n        /* \"#utility.yul\":11658:11662   */\n      dup2\n        /* \"#utility.yul\":11649:11655   */\n      dup5\n        /* \"#utility.yul\":11565:11663   */\n      tag_323\n      jump\t// in\n    tag_352:\n        /* \"#utility.yul\":11557:11663   */\n      swap1\n      pop\n        /* \"#utility.yul\":11317:11670   */\n      swap3\n      swap2\n      pop\n      pop\n      jump\t// out\n        /* \"#utility.yul\":11676:11898   */\n    tag_28:\n        /* \"#utility.yul\":11769:11773   */\n      0x00\n        /* \"#utility.yul\":11807:11809   */\n      0x20\n        /* \"#utility.yul\":11796:11805   */\n      dup3\n        /* \"#utility.yul\":11792:11810   */\n      add\n        /* \"#utility.yul\":11784:11810   */\n      swap1\n      pop\n        /* \"#utility.yul\":11820:11891   */\n      tag_354\n        /* \"#utility.yul\":11888:11889   */\n      0x00\n        /* \"#utility.yul\":11877:11886   */\n      dup4\n        /* \"#utility.yul\":11873:11890   */\n      add\n        /* \"#utility.yul\":11864:11870   */\n      dup5\n        /* \"#utility.yul\":11820:11891   */\n      tag_331\n      jump\t// in\n    tag_354:\n        /* \"#utility.yul\":11676:11898   */\n      swap3\n      swap2\n      pop\n      pop\n      jump\t// out\n        /* \"#utility.yul\":11904:12033   */\n    tag_209:\n        /* \"#utility.yul\":11938:11944   */\n      0x00\n        /* \"#utility.yul\":11965:11985   */\n      tag_356\n      tag_357\n      jump\t// in\n    tag_356:\n        /* \"#utility.yul\":11955:11985   */\n      swap1\n      pop\n        /* \"#utility.yul\":11994:12027   */\n      tag_358\n        /* \"#utility.yul\":12022:12026   */\n      dup3\n        /* \"#utility.yul\":12014:12020   */\n      dup3\n        /* \"#utility.yul\":11994:12027   */\n      tag_359\n      jump\t// in\n    tag_358:\n        /* \"#utility.yul\":11904:12033   */\n      swap2\n      swap1\n      pop\n      jump\t// out\n        /* \"#utility.yul\":12039:12114   */\n    tag_357:\n        /* \"#utility.yul\":12072:12078   */\n      0x00\n        /* \"#utility.yul\":12105:12107   */\n      0x40\n        /* \"#utility.yul\":12099:12108   */\n      mload\n        /* \"#utility.yul\":12089:12108   */\n      swap1\n      pop\n        /* \"#utility.yul\":12039:12114   */\n      swap1\n      jump\t// out\n        /* \"#utility.yul\":12120:12428   */\n    tag_208:\n        /* \"#utility.yul\":12182:12186   */\n      0x00\n        /* \"#utility.yul\":12272:12290   */\n      0xffffffffffffffff\n        /* \"#utility.yul\":12264:12270   */\n      dup3\n        /* \"#utility.yul\":12261:12291   */\n      gt\n        /* \"#utility.yul\":12258:12314   */\n      iszero\n      tag_362\n      jumpi\n        /* \"#utility.yul\":12294:12312   */\n      tag_363\n      tag_364\n      jump\t// in\n    tag_363:\n        /* \"#utility.yul\":12258:12314   */\n    tag_362:\n        /* \"#utility.yul\":12332:12361   */\n      tag_365\n        /* \"#utility.yul\":12354:12360   */\n      dup3\n        /* \"#utility.yul\":12332:12361   */\n      tag_290\n      jump\t// in\n    tag_365:\n        /* \"#utility.yul\":12324:12361   */\n      swap1\n      pop\n        /* \"#utility.yul\":12416:12420   */\n      0x20\n        /* \"#utility.yul\":12410:12414   */\n      dup2\n        /* \"#utility.yul\":12406:12421   */\n      add\n        /* \"#utility.yul\":12398:12421   */\n      swap1\n      pop\n        /* \"#utility.yul\":12120:12428   */\n      swap2\n      swap1\n      pop\n      jump\t// out\n        /* \"#utility.yul\":12434:12533   */\n    tag_284:\n        /* \"#utility.yul\":12486:12492   */\n      0x00\n        /* \"#utility.yul\":12520:12525   */\n      dup2\n        /* \"#utility.yul\":12514:12526   */\n      mload\n        /* \"#utility.yul\":12504:12526   */\n      swap1\n      pop\n        /* \"#utility.yul\":12434:12533   */\n      swap2\n      swap1\n      pop\n      jump\t// out\n        /* \"#utility.yul\":12539:12698   */\n    tag_286:\n        /* \"#utility.yul\":12613:12624   */\n      0x00\n        /* \"#utility.yul\":12647:12653   */\n      dup3\n        /* \"#utility.yul\":12642:12645   */\n      dup3\n        /* \"#utility.yul\":12635:12654   */\n      mstore\n        /* \"#utility.yul\":12687:12691   */\n      0x20\n        /* \"#utility.yul\":12682:12685   */\n      dup3\n        /* \"#utility.yul\":12678:12692   */\n      add\n        /* \"#utility.yul\":12663:12692   */\n      swap1\n      pop\n        /* \"#utility.yul\":12539:12698   */\n      swap3\n      swap2\n      pop\n      pop\n      jump\t// out\n        /* \"#utility.yul\":12704:12873   */\n    tag_300:\n        /* \"#utility.yul\":12788:12799   */\n      0x00\n        /* \"#utility.yul\":12822:12828   */\n      dup3\n        /* \"#utility.yul\":12817:12820   */\n      dup3\n        /* \"#utility.yul\":12810:12829   */\n      mstore\n        /* \"#utility.yul\":12862:12866   */\n      0x20\n        /* \"#utility.yul\":12857:12860   */\n      dup3\n        /* \"#utility.yul\":12853:12867   */\n      add\n        /* \"#utility.yul\":12838:12867   */\n      swap1\n      pop\n        /* \"#utility.yul\":12704:12873   */\n      swap3\n      swap2\n      pop\n      pop\n      jump\t// out\n        /* \"#utility.yul\":12879:13027   */\n    tag_295:\n        /* \"#utility.yul\":12981:12992   */\n      0x00\n        /* \"#utility.yul\":13018:13021   */\n      dup2\n        /* \"#utility.yul\":13003:13021   */\n      swap1\n      pop\n        /* \"#utility.yul\":12879:13027   */\n      swap3\n      swap2\n      pop\n      pop\n      jump\t// out\n        /* \"#utility.yul\":13033:13338   */\n    tag_107:\n        /* \"#utility.yul\":13073:13076   */\n      0x00\n        /* \"#utility.yul\":13092:13112   */\n      tag_371\n        /* \"#utility.yul\":13110:13111   */\n      dup3\n        /* \"#utility.yul\":13092:13112   */\n      tag_334\n      jump\t// in\n    tag_371:\n        /* \"#utility.yul\":13087:13112   */\n      swap2\n      pop\n        /* \"#utility.yul\":13126:13146   */\n      tag_372\n        /* \"#utility.yul\":13144:13145   */\n      dup4\n        /* \"#utility.yul\":13126:13146   */\n      tag_334\n      jump\t// in\n    tag_372:\n        /* \"#utility.yul\":13121:13146   */\n      swap3\n      pop\n        /* \"#utility.yul\":13280:13281   */\n      dup3\n        /* \"#utility.yul\":13212:13278   */\n      0xffffffffffffffffffffffffffffffffffffffffffffffffffffffffffffffff\n        /* \"#utility.yul\":13208:13282   */\n      sub\n        /* \"#utility.yul\":13205:13206   */\n      dup3\n        /* \"#utility.yul\":13202:13283   */\n      gt\n        /* \"#utility.yul\":13199:13306   */\n      iszero\n      tag_373\n      jumpi\n        /* \"#utility.yul\":13286:13304   */\n      tag_374\n      tag_375\n      jump\t// in\n    tag_374:\n        /* \"#utility.yul\":13199:13306   */\n    tag_373:\n        /* \"#utility.yul\":13330:13331   */\n      dup3\n        /* \"#utility.yul\":13327:13328   */\n      dup3\n        /* \"#utility.yul\":13323:13332   */\n      add\n        /* \"#utility.yul\":13316:13332   */\n      swap1\n      pop\n        /* \"#utility.yul\":13033:13338   */\n      swap3\n      swap2\n      pop\n      pop\n      jump\t// out\n        /* \"#utility.yul\":13344:13535   */\n    tag_109:\n        /* \"#utility.yul\":13384:13388   */\n      0x00\n        /* \"#utility.yul\":13404:13424   */\n      tag_377\n        /* \"#utility.yul\":13422:13423   */\n      dup3\n        /* \"#utility.yul\":13404:13424   */\n      tag_334\n      jump\t// in\n    tag_377:\n        /* \"#utility.yul\":13399:13424   */\n      swap2\n      pop\n        /* \"#utility.yul\":13438:13458   */\n      tag_378\n        /* \"#utility.yul\":13456:13457   */\n      dup4\n        /* \"#utility.yul\":13438:13458   */\n      tag_334\n      jump\t// in\n    tag_378:\n        /* \"#utility.yul\":13433:13458   */\n      swap3\n      pop\n        /* \"#utility.yul\":13477:13478   */\n      dup3\n        /* \"#utility.yul\":13474:13475   */\n      dup3\n        /* \"#utility.yul\":13471:13479   */\n      lt\n        /* \"#utility.yul\":13468:13502   */\n      iszero\n      tag_379\n      jumpi\n        /* \"#utility.yul\":13482:13500   */\n      tag_380\n      tag_375\n      jump\t// in\n    tag_380:\n        /* \"#utility.yul\":13468:13502   */\n    tag_379:\n        /* \"#utility.yul\":13527:13528   */\n      dup3\n        /* \"#utility.yul\":13524:13525   */\n      dup3\n        /* \"#utility.yul\":13520:13529   */\n      sub\n        /* \"#utility.yul\":13512:13529   */\n      swap1\n      pop\n        /* \"#utility.yul\":13344:13535   */\n      swap3\n      swap2\n      pop\n      pop\n      jump\t// out\n        /* \"#utility.yul\":13541:13637   */\n    tag_266:\n        /* \"#utility.yul\":13578:13585   */\n      0x00\n        /* \"#utility.yul\":13607:13631   */\n      tag_382\n        /* \"#utility.yul\":13625:13630   */\n      dup3\n        /* \"#utility.yul\":13607:13631   */\n      tag_383\n      jump\t// in\n    tag_382:\n        /* \"#utility.yul\":13596:13631   */\n      swap1\n      pop\n        /* \"#utility.yul\":13541:13637   */\n      swap2\n      swap1\n      pop\n      jump\t// out\n        /* \"#utility.yul\":13643:13733   */\n    tag_273:\n        /* \"#utility.yul\":13677:13684   */\n      0x00\n        /* \"#utility.yul\":13720:13725   */\n      dup2\n        /* \"#utility.yul\":13713:13726   */\n      iszero\n        /* \"#utility.yul\":13706:13727   */\n      iszero\n        /* \"#utility.yul\":13695:13727   */\n      swap1\n      pop\n        /* \"#utility.yul\":13643:13733   */\n      swap2\n      swap1\n      pop\n      jump\t// out\n        /* \"#utility.yul\":13739:13874   */\n    tag_385:\n        /* \"#utility.yul\":13788:13795   */\n      0x00\n        /* \"#utility.yul\":13817:13822   */\n      dup2\n        /* \"#utility.yul\":13806:13822   */\n      swap1\n      pop\n        /* \"#utility.yul\":13823:13868   */\n      tag_387\n        /* \"#utility.yul\":13862:13867   */\n      dup3\n        /* \"#utility.yul\":13823:13868   */\n      tag_388\n      jump\t// in\n    tag_387:\n        /* \"#utility.yul\":13739:13874   */\n      swap2\n      swap1\n      pop\n      jump\t// out\n        /* \"#utility.yul\":13880:14006   */\n    tag_383:\n        /* \"#utility.yul\":13917:13924   */\n      0x00\n        /* \"#utility.yul\":13957:13999   */\n      0xffffffffffffffffffffffffffffffffffffffff\n        /* \"#utility.yul\":13950:13955   */\n      dup3\n        /* \"#utility.yul\":13946:14000   */\n      and\n        /* \"#utility.yul\":13935:14000   */\n      swap1\n      pop\n        /* \"#utility.yul\":13880:14006   */\n      swap2\n      swap1\n      pop\n      jump\t// out\n        /* \"#utility.yul\":14012:14089   */\n    tag_334:\n        /* \"#utility.yul\":14049:14056   */\n      0x00\n        /* \"#utility.yul\":14078:14083   */\n      dup2\n        /* \"#utility.yul\":14067:14083   */\n      swap1\n      pop\n        /* \"#utility.yul\":14012:14089   */\n      swap2\n      swap1\n      pop\n      jump\t// out\n        /* \"#utility.yul\":14095:14230   */\n    tag_280:\n        /* \"#utility.yul\":14155:14164   */\n      0x00\n        /* \"#utility.yul\":14188:14224   */\n      tag_392\n        /* \"#utility.yul\":14218:14223   */\n      dup3\n        /* \"#utility.yul\":14188:14224   */\n      tag_385\n      jump\t// in\n    tag_392:\n        /* \"#utility.yul\":14175:14224   */\n      swap1\n      pop\n        /* \"#utility.yul\":14095:14230   */\n      swap2\n      swap1\n      pop\n      jump\t// out\n        /* \"#utility.yul\":14236:14390   */\n    tag_214:\n        /* \"#utility.yul\":14320:14326   */\n      dup3\n        /* \"#utility.yul\":14315:14318   */\n      dup2\n        /* \"#utility.yul\":14310:14313   */\n      dup4\n        /* \"#utility.yul\":14297:14327   */\n      calldatacopy\n        /* \"#utility.yul\":14382:14383   */\n      0x00\n        /* \"#utility.yul\":14373:14379   */\n      dup4\n        /* \"#utility.yul\":14368:14371   */\n      dup4\n        /* \"#utility.yul\":14364:14380   */\n      add\n        /* \"#utility.yul\":14357:14384   */\n      mstore\n        /* \"#utility.yul\":14236:14390   */\n      pop\n      pop\n      pop\n      jump\t// out\n        /* \"#utility.yul\":14396:14703   */\n    tag_288:\n        /* \"#utility.yul\":14464:14465   */\n      0x00\n        /* \"#utility.yul\":14474:14587   */\n    tag_395:\n        /* \"#utility.yul\":14488:14494   */\n      dup4\n        /* \"#utility.yul\":14485:14486   */\n      dup2\n        /* \"#utility.yul\":14482:14495   */\n      lt\n        /* \"#utility.yul\":14474:14587   */\n      iszero\n      tag_397\n      jumpi\n        /* \"#utility.yul\":14573:14574   */\n      dup1\n        /* \"#utility.yul\":14568:14571   */\n      dup3\n        /* \"#utility.yul\":14564:14575   */\n      add\n        /* \"#utility.yul\":14558:14576   */\n      mload\n        /* \"#utility.yul\":14554:14555   */\n      dup2\n        /* \"#utility.yul\":14549:14552   */\n      dup5\n        /* \"#utility.yul\":14545:14556   */\n      add\n        /* \"#utility.yul\":14538:14577   */\n      mstore\n        /* \"#utility.yul\":14510:14512   */\n      0x20\n        /* \"#utility.yul\":14507:14508   */\n      dup2\n        /* \"#utility.yul\":14503:14513   */\n      add\n        /* \"#utility.yul\":14498:14513   */\n      swap1\n      pop\n        /* \"#utility.yul\":14474:14587   */\n      jump(tag_395)\n    tag_397:\n        /* \"#utility.yul\":14605:14611   */\n      dup4\n        /* \"#utility.yul\":14602:14603   */\n      dup2\n        /* \"#utility.yul\":14599:14612   */\n      gt\n        /* \"#utility.yul\":14596:14697   */\n      iszero\n      tag_398\n      jumpi\n        /* \"#utility.yul\":14685:14686   */\n      0x00\n        /* \"#utility.yul\":14676:14682   */\n      dup5\n        /* \"#utility.yul\":14671:14674   */\n      dup5\n        /* \"#utility.yul\":14667:14683   */\n      add\n        /* \"#utility.yul\":14660:14687   */\n      mstore\n        /* \"#utility.yul\":14596:14697   */\n    tag_398:\n        /* \"#utility.yul\":14445:14703   */\n      pop\n        /* \"#utility.yul\":14396:14703   */\n      pop\n      pop\n      pop\n      jump\t// out\n        /* \"#utility.yul\":14709:15029   */\n    tag_64:\n        /* \"#utility.yul\":14753:14759   */\n      0x00\n        /* \"#utility.yul\":14790:14791   */\n      0x02\n        /* \"#utility.yul\":14784:14788   */\n      dup3\n        /* \"#utility.yul\":14780:14792   */\n      div\n        /* \"#utility.yul\":14770:14792   */\n      swap1\n      pop\n        /* \"#utility.yul\":14837:14838   */\n      0x01\n        /* \"#utility.yul\":14831:14835   */\n      dup3\n        /* \"#utility.yul\":14827:14839   */\n      and\n        /* \"#utility.yul\":14858:14876   */\n      dup1\n        /* \"#utility.yul\":14848:14929   */\n      tag_400\n      jumpi\n        /* \"#utility.yul\":14914:14918   */\n      0x7f\n        /* \"#utility.yul\":14906:14912   */\n      dup3\n        /* \"#utility.yul\":14902:14919   */\n      and\n        /* \"#utility.yul\":14892:14919   */\n      swap2\n      pop\n        /* \"#utility.yul\":14848:14929   */\n    tag_400:\n        /* \"#utility.yul\":14976:14978   */\n      0x20\n        /* \"#utility.yul\":14968:14974   */\n      dup3\n        /* \"#utility.yul\":14965:14979   */\n      lt\n        /* \"#utility.yul\":14945:14963   */\n      dup2\n        /* \"#utility.yul\":14942:14980   */\n      eq\n        /* \"#utility.yul\":14939:15023   */\n      iszero\n      tag_401\n      jumpi\n        /* \"#utility.yul\":14995:15013   */\n      tag_402\n      tag_403\n      jump\t// in\n    tag_402:\n        /* \"#utility.yul\":14939:15023   */\n    tag_401:\n        /* \"#utility.yul\":14760:15029   */\n      pop\n        /* \"#utility.yul\":14709:15029   */\n      swap2\n      swap1\n      pop\n      jump\t// out\n        /* \"#utility.yul\":15035:15316   */\n    tag_359:\n        /* \"#utility.yul\":15118:15145   */\n      tag_405\n        /* \"#utility.yul\":15140:15144   */\n      dup3\n        /* \"#utility.yul\":15118:15145   */\n      tag_290\n      jump\t// in\n    tag_405:\n        /* \"#utility.yul\":15110:15116   */\n      dup2\n        /* \"#utility.yul\":15106:15146   */\n      add\n        /* \"#utility.yul\":15248:15254   */\n      dup2\n        /* \"#utility.yul\":15236:15246   */\n      dup2\n        /* \"#utility.yul\":15233:15255   */\n      lt\n        /* \"#utility.yul\":15212:15230   */\n      0xffffffffffffffff\n        /* \"#utility.yul\":15200:15210   */\n      dup3\n        /* \"#utility.yul\":15197:15231   */\n      gt\n        /* \"#utility.yul\":15194:15256   */\n      or\n        /* \"#utility.yul\":15191:15279   */\n      iszero\n      tag_406\n      jumpi\n        /* \"#utility.yul\":15259:15277   */\n      tag_407\n      tag_364\n      jump\t// in\n    tag_407:\n        /* \"#utility.yul\":15191:15279   */\n    tag_406:\n        /* \"#utility.yul\":15299:15309   */\n      dup1\n        /* \"#utility.yul\":15295:15297   */\n      0x40\n        /* \"#utility.yul\":15288:15310   */\n      mstore\n        /* \"#utility.yul\":15078:15316   */\n      pop\n        /* \"#utility.yul\":15035:15316   */\n      pop\n      pop\n      jump\t// out\n        /* \"#utility.yul\":15322:15555   */\n    tag_150:\n        /* \"#utility.yul\":15361:15364   */\n      0x00\n        /* \"#utility.yul\":15384:15408   */\n      tag_409\n        /* \"#utility.yul\":15402:15407   */\n      dup3\n        /* \"#utility.yul\":15384:15408   */\n      tag_334\n      jump\t// in\n    tag_409:\n        /* \"#utility.yul\":15375:15408   */\n      swap2\n      pop\n        /* \"#utility.yul\":15430:15496   */\n      0xffffffffffffffffffffffffffffffffffffffffffffffffffffffffffffffff\n        /* \"#utility.yul\":15423:15428   */\n      dup3\n        /* \"#utility.yul\":15420:15497   */\n      eq\n        /* \"#utility.yul\":15417:15520   */\n      iszero\n      tag_410\n      jumpi\n        /* \"#utility.yul\":15500:15518   */\n      tag_411\n      tag_375\n      jump\t// in\n    tag_411:\n        /* \"#utility.yul\":15417:15520   */\n    tag_410:\n        /* \"#utility.yul\":15547:15548   */\n      0x01\n        /* \"#utility.yul\":15540:15545   */\n      dup3\n        /* \"#utility.yul\":15536:15549   */\n      add\n        /* \"#utility.yul\":15529:15549   */\n      swap1\n      pop\n        /* \"#utility.yul\":15322:15555   */\n      swap2\n      swap1\n      pop\n      jump\t// out\n        /* \"#utility.yul\":15561:15741   */\n    tag_375:\n        /* \"#utility.yul\":15609:15686   */\n      0x4e487b7100000000000000000000000000000000000000000000000000000000\n        /* \"#utility.yul\":15606:15607   */\n      0x00\n        /* \"#utility.yul\":15599:15687   */\n      mstore\n        /* \"#utility.yul\":15706:15710   */\n      0x11\n        /* \"#utility.yul\":15703:15704   */\n      0x04\n        /* \"#utility.yul\":15696:15711   */\n      mstore\n        /* \"#utility.yul\":15730:15734   */\n      0x24\n        /* \"#utility.yul\":15727:15728   */\n      0x00\n        /* \"#utility.yul\":15720:15735   */\n      revert\n        /* \"#utility.yul\":15747:15927   */\n    tag_60:\n        /* \"#utility.yul\":15795:15872   */\n      0x4e487b7100000000000000000000000000000000000000000000000000000000\n        /* \"#utility.yul\":15792:15793   */\n      0x00\n        /* \"#utility.yul\":15785:15873   */\n      mstore\n        /* \"#utility.yul\":15892:15896   */\n      0x21\n        /* \"#utility.yul\":15889:15890   */\n      0x04\n        /* \"#utility.yul\":15882:15897   */\n      mstore\n        /* \"#utility.yul\":15916:15920   */\n      0x24\n        /* \"#utility.yul\":15913:15914   */\n      0x00\n        /* \"#utility.yul\":15906:15921   */\n      revert\n        /* \"#utility.yul\":15933:16113   */\n    tag_403:\n        /* \"#utility.yul\":15981:16058   */\n      0x4e487b7100000000000000000000000000000000000000000000000000000000\n        /* \"#utility.yul\":15978:15979   */\n      0x00\n        /* \"#utility.yul\":15971:16059   */\n      mstore\n        /* \"#utility.yul\":16078:16082   */\n      0x22\n        /* \"#utility.yul\":16075:16076   */\n      0x04\n        /* \"#utility.yul\":16068:16083   */\n      mstore\n        /* \"#utility.yul\":16102:16106   */\n      0x24\n        /* \"#utility.yul\":16099:16100   */\n      0x00\n        /* \"#utility.yul\":16092:16107   */\n      revert\n        /* \"#utility.yul\":16119:16299   */\n    tag_364:\n        /* \"#utility.yul\":16167:16244   */\n      0x4e487b7100000000000000000000000000000000000000000000000000000000\n        /* \"#utility.yul\":16164:16165   */\n      0x00\n        /* \"#utility.yul\":16157:16245   */\n      mstore\n        /* \"#utility.yul\":16264:16268   */\n      0x41\n        /* \"#utility.yul\":16261:16262   */\n      0x04\n        /* \"#utility.yul\":16254:16269   */\n      mstore\n        /* \"#utility.yul\":16288:16292   */\n      0x24\n        /* \"#utility.yul\":16285:16286   */\n      0x00\n        /* \"#utility.yul\":16278:16293   */\n      revert\n        /* \"#utility.yul\":16305:16422   */\n    tag_227:\n        /* \"#utility.yul\":16414:16415   */\n      0x00\n        /* \"#utility.yul\":16411:16412   */\n      dup1\n        /* \"#utility.yul\":16404:16416   */\n      revert\n        /* \"#utility.yul\":16428:16545   */\n    tag_212:\n        /* \"#utility.yul\":16537:16538   */\n      0x00\n        /* \"#utility.yul\":16534:16535   */\n      dup1\n        /* \"#utility.yul\":16527:16539   */\n      revert\n        /* \"#utility.yul\":16551:16668   */\n    tag_243:\n        /* \"#utility.yul\":16660:16661   */\n      0x00\n        /* \"#utility.yul\":16657:16658   */\n      dup1\n        /* \"#utility.yul\":16650:16662   */\n      revert\n        /* \"#utility.yul\":16674:16791   */\n    tag_236:\n        /* \"#utility.yul\":16783:16784   */\n      0x00\n        /* \"#utility.yul\":16780:16781   */\n      dup1\n        /* \"#utility.yul\":16773:16785   */\n      revert\n        /* \"#utility.yul\":16797:16899   */\n    tag_290:\n        /* \"#utility.yul\":16838:16844   */\n      0x00\n        /* \"#utility.yul\":16889:16891   */\n      0x1f\n        /* \"#utility.yul\":16885:16892   */\n      not\n        /* \"#utility.yul\":16880:16882   */\n      0x1f\n        /* \"#utility.yul\":16873:16878   */\n      dup4\n        /* \"#utility.yul\":16869:16883   */\n      add\n        /* \"#utility.yul\":16865:16893   */\n      and\n        /* \"#utility.yul\":16855:16893   */\n      swap1\n      pop\n        /* \"#utility.yul\":16797:16899   */\n      swap2\n      swap1\n      pop\n      jump\t// out\n        /* \"#utility.yul\":16905:17082   */\n    tag_302:\n        /* \"#utility.yul\":17045:17074   */\n      0x54686973204944206f66204e465420646f6e2774206578697374730000000000\n        /* \"#utility.yul\":17041:17042   */\n      0x00\n        /* \"#utility.yul\":17033:17039   */\n      dup3\n        /* \"#utility.yul\":17029:17043   */\n      add\n        /* \"#utility.yul\":17022:17075   */\n      mstore\n        /* \"#utility.yul\":16905:17082   */\n      pop\n      jump\t// out\n        /* \"#utility.yul\":17088:17313   */\n    tag_307:\n        /* \"#utility.yul\":17228:17262   */\n      0x4f776e61626c653a206e6577206f776e657220697320746865207a65726f2061\n        /* \"#utility.yul\":17224:17225   */\n      0x00\n        /* \"#utility.yul\":17216:17222   */\n      dup3\n        /* \"#utility.yul\":17212:17226   */\n      add\n        /* \"#utility.yul\":17205:17263   */\n      mstore\n        /* \"#utility.yul\":17297:17305   */\n      0x6464726573730000000000000000000000000000000000000000000000000000\n        /* \"#utility.yul\":17292:17294   */\n      0x20\n        /* \"#utility.yul\":17284:17290   */\n      dup3\n        /* \"#utility.yul\":17280:17295   */\n      add\n        /* \"#utility.yul\":17273:17306   */\n      mstore\n        /* \"#utility.yul\":17088:17313   */\n      pop\n      jump\t// out\n        /* \"#utility.yul\":17319:17500   */\n    tag_312:\n        /* \"#utility.yul\":17459:17492   */\n      0x556e61626c6520746f207265706561742074686520646574656374696f6e2100\n        /* \"#utility.yul\":17455:17456   */\n      0x00\n        /* \"#utility.yul\":17447:17453   */\n      dup3\n        /* \"#utility.yul\":17443:17457   */\n      add\n        /* \"#utility.yul\":17436:17493   */\n      mstore\n        /* \"#utility.yul\":17319:17500   */\n      pop\n      jump\t// out\n        /* \"#utility.yul\":17506:17740   */\n    tag_317:\n        /* \"#utility.yul\":17646:17680   */\n      0x546865204e465420646f6573206e6f74206d6565742074686520646574656374\n        /* \"#utility.yul\":17642:17643   */\n      0x00\n        /* \"#utility.yul\":17634:17640   */\n      dup3\n        /* \"#utility.yul\":17630:17644   */\n      add\n        /* \"#utility.yul\":17623:17681   */\n      mstore\n        /* \"#utility.yul\":17715:17732   */\n      0x696f6e20636f6e646974696f6e73210000000000000000000000000000000000\n        /* \"#utility.yul\":17710:17712   */\n      0x20\n        /* \"#utility.yul\":17702:17708   */\n      dup3\n        /* \"#utility.yul\":17698:17713   */\n      add\n        /* \"#utility.yul\":17691:17733   */\n      mstore\n        /* \"#utility.yul\":17506:17740   */\n      pop\n      jump\t// out\n        /* \"#utility.yul\":17746:17928   */\n    tag_322:\n        /* \"#utility.yul\":17886:17920   */\n      0x4f776e61626c653a2063616c6c6572206973206e6f7420746865206f776e6572\n        /* \"#utility.yul\":17882:17883   */\n      0x00\n        /* \"#utility.yul\":17874:17880   */\n      dup3\n        /* \"#utility.yul\":17870:17884   */\n      add\n        /* \"#utility.yul\":17863:17921   */\n      mstore\n        /* \"#utility.yul\":17746:17928   */\n      pop\n      jump\t// out\n        /* \"#utility.yul\":17934:18051   */\n    tag_388:\n        /* \"#utility.yul\":18019:18020   */\n      0x02\n        /* \"#utility.yul\":18012:18017   */\n      dup2\n        /* \"#utility.yul\":18009:18021   */\n      lt\n        /* \"#utility.yul\":17999:18045   */\n      tag_427\n      jumpi\n        /* \"#utility.yul\":18025:18043   */\n      tag_428\n      tag_60\n      jump\t// in\n    tag_428:\n        /* \"#utility.yul\":17999:18045   */\n    tag_427:\n        /* \"#utility.yul\":17934:18051   */\n      pop\n      jump\t// out\n        /* \"#utility.yul\":18057:18179   */\n    tag_218:\n        /* \"#utility.yul\":18130:18154   */\n      tag_430\n        /* \"#utility.yul\":18148:18153   */\n      dup2\n        /* \"#utility.yul\":18130:18154   */\n      tag_266\n      jump\t// in\n    tag_430:\n        /* \"#utility.yul\":18123:18128   */\n      dup2\n        /* \"#utility.yul\":18120:18155   */\n      eq\n        /* \"#utility.yul\":18110:18173   */\n      tag_431\n      jumpi\n        /* \"#utility.yul\":18169:18170   */\n      0x00\n        /* \"#utility.yul\":18166:18167   */\n      dup1\n        /* \"#utility.yul\":18159:18171   */\n      revert\n        /* \"#utility.yul\":18110:18173   */\n    tag_431:\n        /* \"#utility.yul\":18057:18179   */\n      pop\n      jump\t// out\n        /* \"#utility.yul\":18185:18301   */\n    tag_222:\n        /* \"#utility.yul\":18255:18276   */\n      tag_433\n        /* \"#utility.yul\":18270:18275   */\n      dup2\n        /* \"#utility.yul\":18255:18276   */\n      tag_273\n      jump\t// in\n    tag_433:\n        /* \"#utility.yul\":18248:18253   */\n      dup2\n        /* \"#utility.yul\":18245:18277   */\n      eq\n        /* \"#utility.yul\":18235:18295   */\n      tag_434\n      jumpi\n        /* \"#utility.yul\":18291:18292   */\n      0x00\n        /* \"#utility.yul\":18288:18289   */\n      dup1\n        /* \"#utility.yul\":18281:18293   */\n      revert\n        /* \"#utility.yul\":18235:18295   */\n    tag_434:\n        /* \"#utility.yul\":18185:18301   */\n      pop\n      jump\t// out\n        /* \"#utility.yul\":18307:18429   */\n    tag_232:\n        /* \"#utility.yul\":18380:18404   */\n      tag_436\n        /* \"#utility.yul\":18398:18403   */\n      dup2\n        /* \"#utility.yul\":18380:18404   */\n      tag_334\n      jump\t// in\n    tag_436:\n        /* \"#utility.yul\":18373:18378   */\n      dup2\n        /* \"#utility.yul\":18370:18405   */\n      eq\n        /* \"#utility.yul\":18360:18423   */\n      tag_437\n      jumpi\n        /* \"#utility.yul\":18419:18420   */\n      0x00\n        /* \"#utility.yul\":18416:18417   */\n      dup1\n        /* \"#utility.yul\":18409:18421   */\n      revert\n        /* \"#utility.yul\":18360:18423   */\n    tag_437:\n        /* \"#utility.yul\":18307:18429   */\n      pop\n      jump\t// out\n\n    auxdata: 0xa264697066735822122003f96967ab1cd7b8cbdd84ad6f4e98c19a964a1ef7a4514e64cc23e30dcb037764736f6c63430008070033\n}\n",
				"bytecode": {
					"linkReferences": {},
					"object": "60806040526001805534801561001457600080fd5b5061003161002661003660201b60201c565b61003e60201b60201c565b610102565b600033905090565b60008060009054906101000a900473ffffffffffffffffffffffffffffffffffffffff169050816000806101000a81548173ffffffffffffffffffffffffffffffffffffffff021916908373ffffffffffffffffffffffffffffffffffffffff1602179055508173ffffffffffffffffffffffffffffffffffffffff168173ffffffffffffffffffffffffffffffffffffffff167f8be0079c531659141344cd1fd0a4f28419497f9722a3daafe3b4186f6b6457e060405160405180910390a35050565b611b42806101116000396000f3fe608060405234801561001057600080fd5b50600436106100935760003560e01c80638da5cb5b116100665780638da5cb5b1461011e578063b3cea2171461013c578063b5e3029f1461015a578063d0aeae961461018a578063f2fde38b146101ba57610093565b8063138f0727146100985780631c5a3e52146100c85780633a4f2d24146100e4578063715018a614610114575b600080fd5b6100b260048036038101906100ad91906112ac565b6101d6565b6040516100bf9190611609565b60405180910390f35b6100e260048036038101906100dd91906112d9565b610438565b005b6100fe60048036038101906100f99190611234565b610615565b60405161010b919061162b565b60405180910390f35b61011c6107ee565b005b610126610876565b6040516101339190611533565b60405180910390f35b61014461089f565b604051610151919061162b565b60405180910390f35b610174600480360381019061016f91906112ac565b6108a5565b604051610181919061154e565b60405180910390f35b6101a4600480360381019061019f91906111eb565b610b05565b6040516101b1919061154e565b60405180910390f35b6101d460048036038101906101cf91906111be565b610c1f565b005b6101de61100a565b6001548210610222576040517f08c379a000000000000000000000000000000000000000000000000000000000815260040161021990611569565b60405180910390fd5b6000600260008481526020019081526020016000206040518060c00160405290816000820160009054906101000a900460ff166001811115610267576102666118e8565b5b6001811115610279576102786118e8565b5b815260200160018201805461028d9061180d565b80601f01602080910402602001604051908101604052809291908181526020018280546102b99061180d565b80156103065780601f106102db57610100808354040283529160200191610306565b820191906000526020600020905b8154815290600101906020018083116102e957829003601f168201915b5050505050815260200160028201805461031f9061180d565b80601f016020809104026020016040519081016040528092919081815260200182805461034b9061180d565b80156103985780601f1061036d57610100808354040283529160200191610398565b820191906000526020600020905b81548152906001019060200180831161037b57829003601f168201915b505050505081526020016003820160009054906101000a900460ff161515151581526020016003820160019054906101000a900460ff161515151581526020016003820160029054906101000a900473ffffffffffffffffffffffffffffffffffffffff1673ffffffffffffffffffffffffffffffffffffffff1673ffffffffffffffffffffffffffffffffffffffff1681525050905080915050919050565b610440610d17565b73ffffffffffffffffffffffffffffffffffffffff1661045e610876565b73ffffffffffffffffffffffffffffffffffffffff16146104b4576040517f08c379a00000000000000000000000000000000000000000000000000000000081526004016104ab906115e9565b60405180910390fd5b600015156002600084815260200190815260200160002060030160009054906101000a900460ff1615151480156105325750600060018111156104fa576104f96118e8565b5b6002600084815260200190815260200160002060000160009054906101000a900460ff1660018111156105305761052f6118e8565b5b145b610571576040517f08c379a0000000000000000000000000000000000000000000000000000000008152600401610568906115c9565b60405180910390fd5b806002600084815260200190815260200160002060030160016101000a81548160ff021916908315150217905550600060026000600154815260200190815260200160002060030160006101000a81548160ff021916908315150217905550600160026000600154815260200190815260200160002060000160006101000a81548160ff0219169083600181111561060c5761060b6118e8565b5b02179055505050565b600061062083610d1f565b8015610631575061063082610e06565b5b610670576040517f08c379a0000000000000000000000000000000000000000000000000000000008152600401610667906115a9565b60405180910390fd5b82600260006001548152602001908152602001600020600101908051906020019061069c92919061106c565b508160026000600154815260200190815260200160002060020190805190602001906106c992919061106c565b50600060026000600154815260200190815260200160002060000160006101000a81548160ff02191690836001811115610706576107056118e8565b5b0217905550600060026000600154815260200190815260200160002060030160006101000a81548160ff021916908315150217905550600060026000600154815260200190815260200160002060030160016101000a81548160ff0219169083151502179055503360026000600154815260200190815260200160002060030160026101000a81548173ffffffffffffffffffffffffffffffffffffffff021916908373ffffffffffffffffffffffffffffffffffffffff160217905550600180546107d291906116d4565b600181905550600180546107e6919061172a565b905092915050565b6107f6610d17565b73ffffffffffffffffffffffffffffffffffffffff16610814610876565b73ffffffffffffffffffffffffffffffffffffffff161461086a576040517f08c379a0000000000000000000000000000000000000000000000000000000008152600401610861906115e9565b60405180910390fd5b6108746000610eed565b565b60008060009054906101000a900473ffffffffffffffffffffffffffffffffffffffff16905090565b60015481565b600060015482106108eb576040517f08c379a00000000000000000000000000000000000000000000000000000000081526004016108e290611569565b60405180910390fd5b6000600260008481526020019081526020016000206040518060c00160405290816000820160009054906101000a900460ff1660018111156109305761092f6118e8565b5b6001811115610942576109416118e8565b5b81526020016001820180546109569061180d565b80601f01602080910402602001604051908101604052809291908181526020018280546109829061180d565b80156109cf5780601f106109a4576101008083540402835291602001916109cf565b820191906000526020600020905b8154815290600101906020018083116109b257829003601f168201915b505050505081526020016002820180546109e89061180d565b80601f0160208091040260200160405190810160405280929190818152602001828054610a149061180d565b8015610a615780601f10610a3657610100808354040283529160200191610a61565b820191906000526020600020905b815481529060010190602001808311610a4457829003601f168201915b505050505081526020016003820160009054906101000a900460ff161515151581526020016003820160019054906101000a900460ff161515151581526020016003820160029054906101000a900473ffffffffffffffffffffffffffffffffffffffff1673ffffffffffffffffffffffffffffffffffffffff1673ffffffffffffffffffffffffffffffffffffffff168152505090508060800151915050919050565b600080600090505b600154811015610c1457610bbf600260008381526020019081526020016000206001018054610b3b9061180d565b80601f0160208091040260200160405190810160405280929190818152602001828054610b679061180d565b8015610bb45780601f10610b8957610100808354040283529160200191610bb4565b820191906000526020600020905b815481529060010190602001808311610b9757829003601f168201915b505050505084610fb1565b8015610bf25750600115156002600083815260200190815260200160002060030160019054906101000a900460ff161515145b15610c01576001915050610c1a565b8080610c0c90611870565b915050610b0d565b50600090505b919050565b610c27610d17565b73ffffffffffffffffffffffffffffffffffffffff16610c45610876565b73ffffffffffffffffffffffffffffffffffffffff1614610c9b576040517f08c379a0000000000000000000000000000000000000000000000000000000008152600401610c92906115e9565b60405180910390fd5b600073ffffffffffffffffffffffffffffffffffffffff168173ffffffffffffffffffffffffffffffffffffffff161415610d0b576040517f08c379a0000000000000000000000000000000000000000000000000000000008152600401610d0290611589565b60405180910390fd5b610d1481610eed565b50565b600033905090565b600080600090505b600154811015610dfb57610dd9600260008381526020019081526020016000206001018054610d559061180d565b80601f0160208091040260200160405190810160405280929190818152602001828054610d819061180d565b8015610dce5780601f10610da357610100808354040283529160200191610dce565b820191906000526020600020905b815481529060010190602001808311610db157829003601f168201915b505050505084610fb1565b15610de8576000915050610e01565b8080610df390611870565b915050610d27565b50600190505b919050565b600080600090505b600154811015610ee257610ec0600260008381526020019081526020016000206002018054610e3c9061180d565b80601f0160208091040260200160405190810160405280929190818152602001828054610e689061180d565b8015610eb55780601f10610e8a57610100808354040283529160200191610eb5565b820191906000526020600020905b815481529060010190602001808311610e9857829003601f168201915b505050505084610fb1565b15610ecf576000915050610ee8565b8080610eda90611870565b915050610e0e565b50600190505b919050565b60008060009054906101000a900473ffffffffffffffffffffffffffffffffffffffff169050816000806101000a81548173ffffffffffffffffffffffffffffffffffffffff021916908373ffffffffffffffffffffffffffffffffffffffff1602179055508173ffffffffffffffffffffffffffffffffffffffff168173ffffffffffffffffffffffffffffffffffffffff167f8be0079c531659141344cd1fd0a4f28419497f9722a3daafe3b4186f6b6457e060405160405180910390a35050565b600081604051602001610fc4919061151c565b6040516020818303038152906040528051906020012083604051602001610feb919061151c565b6040516020818303038152906040528051906020012014905092915050565b6040518060c0016040528060006001811115611029576110286118e8565b5b81526020016060815260200160608152602001600015158152602001600015158152602001600073ffffffffffffffffffffffffffffffffffffffff1681525090565b8280546110789061180d565b90600052602060002090601f01602090048101928261109a57600085556110e1565b82601f106110b357805160ff19168380011785556110e1565b828001600101855582156110e1579182015b828111156110e05782518255916020019190600101906110c5565b5b5090506110ee91906110f2565b5090565b5b8082111561110b5760008160009055506001016110f3565b5090565b600061112261111d8461166b565b611646565b90508281526020810184848401111561113e5761113d61197a565b5b6111498482856117cb565b509392505050565b60008135905061116081611ac7565b92915050565b60008135905061117581611ade565b92915050565b600082601f8301126111905761118f611975565b5b81356111a084826020860161110f565b91505092915050565b6000813590506111b881611af5565b92915050565b6000602082840312156111d4576111d3611984565b5b60006111e284828501611151565b91505092915050565b60006020828403121561120157611200611984565b5b600082013567ffffffffffffffff81111561121f5761121e61197f565b5b61122b8482850161117b565b91505092915050565b6000806040838503121561124b5761124a611984565b5b600083013567ffffffffffffffff8111156112695761126861197f565b5b6112758582860161117b565b925050602083013567ffffffffffffffff8111156112965761129561197f565b5b6112a28582860161117b565b9150509250929050565b6000602082840312156112c2576112c1611984565b5b60006112d0848285016111a9565b91505092915050565b600080604083850312156112f0576112ef611984565b5b60006112fe858286016111a9565b925050602061130f85828601611166565b9150509250929050565b6113228161175e565b82525050565b6113318161175e565b82525050565b61134081611770565b82525050565b61134f81611770565b82525050565b61135e816117b9565b82525050565b600061136f8261169c565b61137981856116a7565b93506113898185602086016117da565b61139281611989565b840191505092915050565b60006113a88261169c565b6113b281856116c9565b93506113c28185602086016117da565b80840191505092915050565b60006113db601b836116b8565b91506113e68261199a565b602082019050919050565b60006113fe6026836116b8565b9150611409826119c3565b604082019050919050565b6000611421601f836116b8565b915061142c82611a12565b602082019050919050565b6000611444602f836116b8565b915061144f82611a3b565b604082019050919050565b60006114676020836116b8565b915061147282611a8a565b602082019050919050565b600060c0830160008301516114956000860182611355565b50602083015184820360208601526114ad8282611364565b915050604083015184820360408601526114c78282611364565b91505060608301516114dc6060860182611337565b5060808301516114ef6080860182611337565b5060a083015161150260a0860182611319565b508091505092915050565b611516816117af565b82525050565b6000611528828461139d565b915081905092915050565b60006020820190506115486000830184611328565b92915050565b60006020820190506115636000830184611346565b92915050565b60006020820190508181036000830152611582816113ce565b9050919050565b600060208201905081810360008301526115a2816113f1565b9050919050565b600060208201905081810360008301526115c281611414565b9050919050565b600060208201905081810360008301526115e281611437565b9050919050565b600060208201905081810360008301526116028161145a565b9050919050565b60006020820190508181036000830152611623818461147d565b905092915050565b6000602082019050611640600083018461150d565b92915050565b6000611650611661565b905061165c828261183f565b919050565b6000604051905090565b600067ffffffffffffffff82111561168657611685611946565b5b61168f82611989565b9050602081019050919050565b600081519050919050565b600082825260208201905092915050565b600082825260208201905092915050565b600081905092915050565b60006116df826117af565b91506116ea836117af565b9250827fffffffffffffffffffffffffffffffffffffffffffffffffffffffffffffffff0382111561171f5761171e6118b9565b5b828201905092915050565b6000611735826117af565b9150611740836117af565b925082821015611753576117526118b9565b5b828203905092915050565b60006117698261178f565b9050919050565b60008115159050919050565b600081905061178a82611ab3565b919050565b600073ffffffffffffffffffffffffffffffffffffffff82169050919050565b6000819050919050565b60006117c48261177c565b9050919050565b82818337600083830152505050565b60005b838110156117f85780820151818401526020810190506117dd565b83811115611807576000848401525b50505050565b6000600282049050600182168061182557607f821691505b6020821081141561183957611838611917565b5b50919050565b61184882611989565b810181811067ffffffffffffffff8211171561186757611866611946565b5b80604052505050565b600061187b826117af565b91507fffffffffffffffffffffffffffffffffffffffffffffffffffffffffffffffff8214156118ae576118ad6118b9565b5b600182019050919050565b7f4e487b7100000000000000000000000000000000000000000000000000000000600052601160045260246000fd5b7f4e487b7100000000000000000000000000000000000000000000000000000000600052602160045260246000fd5b7f4e487b7100000000000000000000000000000000000000000000000000000000600052602260045260246000fd5b7f4e487b7100000000000000000000000000000000000000000000000000000000600052604160045260246000fd5b600080fd5b600080fd5b600080fd5b600080fd5b6000601f19601f8301169050919050565b7f54686973204944206f66204e465420646f6e2774206578697374730000000000600082015250565b7f4f776e61626c653a206e6577206f776e657220697320746865207a65726f206160008201527f6464726573730000000000000000000000000000000000000000000000000000602082015250565b7f556e61626c6520746f207265706561742074686520646574656374696f6e2100600082015250565b7f546865204e465420646f6573206e6f74206d656574207468652064657465637460008201527f696f6e20636f6e646974696f6e73210000000000000000000000000000000000602082015250565b7f4f776e61626c653a2063616c6c6572206973206e6f7420746865206f776e6572600082015250565b60028110611ac457611ac36118e8565b5b50565b611ad08161175e565b8114611adb57600080fd5b50565b611ae781611770565b8114611af257600080fd5b50565b611afe816117af565b8114611b0957600080fd5b5056fea264697066735822122003f96967ab1cd7b8cbdd84ad6f4e98c19a964a1ef7a4514e64cc23e30dcb037764736f6c63430008070033",
					"opcodes": "PUSH1 0x80 PUSH1 0x40 MSTORE PUSH1 0x1 DUP1 SSTORE CALLVALUE DUP1 ISZERO PUSH2 0x14 JUMPI PUSH1 0x0 DUP1 REVERT JUMPDEST POP PUSH2 0x31 PUSH2 0x26 PUSH2 0x36 PUSH1 0x20 SHL PUSH1 0x20 SHR JUMP JUMPDEST PUSH2 0x3E PUSH1 0x20 SHL PUSH1 0x20 SHR JUMP JUMPDEST PUSH2 0x102 JUMP JUMPDEST PUSH1 0x0 CALLER SWAP1 POP SWAP1 JUMP JUMPDEST PUSH1 0x0 DUP1 PUSH1 0x0 SWAP1 SLOAD SWAP1 PUSH2 0x100 EXP SWAP1 DIV PUSH20 0xFFFFFFFFFFFFFFFFFFFFFFFFFFFFFFFFFFFFFFFF AND SWAP1 POP DUP2 PUSH1 0x0 DUP1 PUSH2 0x100 EXP DUP2 SLOAD DUP2 PUSH20 0xFFFFFFFFFFFFFFFFFFFFFFFFFFFFFFFFFFFFFFFF MUL NOT AND SWAP1 DUP4 PUSH20 0xFFFFFFFFFFFFFFFFFFFFFFFFFFFFFFFFFFFFFFFF AND MUL OR SWAP1 SSTORE POP DUP2 PUSH20 0xFFFFFFFFFFFFFFFFFFFFFFFFFFFFFFFFFFFFFFFF AND DUP2 PUSH20 0xFFFFFFFFFFFFFFFFFFFFFFFFFFFFFFFFFFFFFFFF AND PUSH32 0x8BE0079C531659141344CD1FD0A4F28419497F9722A3DAAFE3B4186F6B6457E0 PUSH1 0x40 MLOAD PUSH1 0x40 MLOAD DUP1 SWAP2 SUB SWAP1 LOG3 POP POP JUMP JUMPDEST PUSH2 0x1B42 DUP1 PUSH2 0x111 PUSH1 0x0 CODECOPY PUSH1 0x0 RETURN INVALID PUSH1 0x80 PUSH1 0x40 MSTORE CALLVALUE DUP1 ISZERO PUSH2 0x10 JUMPI PUSH1 0x0 DUP1 REVERT JUMPDEST POP PUSH1 0x4 CALLDATASIZE LT PUSH2 0x93 JUMPI PUSH1 0x0 CALLDATALOAD PUSH1 0xE0 SHR DUP1 PUSH4 0x8DA5CB5B GT PUSH2 0x66 JUMPI DUP1 PUSH4 0x8DA5CB5B EQ PUSH2 0x11E JUMPI DUP1 PUSH4 0xB3CEA217 EQ PUSH2 0x13C JUMPI DUP1 PUSH4 0xB5E3029F EQ PUSH2 0x15A JUMPI DUP1 PUSH4 0xD0AEAE96 EQ PUSH2 0x18A JUMPI DUP1 PUSH4 0xF2FDE38B EQ PUSH2 0x1BA JUMPI PUSH2 0x93 JUMP JUMPDEST DUP1 PUSH4 0x138F0727 EQ PUSH2 0x98 JUMPI DUP1 PUSH4 0x1C5A3E52 EQ PUSH2 0xC8 JUMPI DUP1 PUSH4 0x3A4F2D24 EQ PUSH2 0xE4 JUMPI DUP1 PUSH4 0x715018A6 EQ PUSH2 0x114 JUMPI JUMPDEST PUSH1 0x0 DUP1 REVERT JUMPDEST PUSH2 0xB2 PUSH1 0x4 DUP1 CALLDATASIZE SUB DUP2 ADD SWAP1 PUSH2 0xAD SWAP2 SWAP1 PUSH2 0x12AC JUMP JUMPDEST PUSH2 0x1D6 JUMP JUMPDEST PUSH1 0x40 MLOAD PUSH2 0xBF SWAP2 SWAP1 PUSH2 0x1609 JUMP JUMPDEST PUSH1 0x40 MLOAD DUP1 SWAP2 SUB SWAP1 RETURN JUMPDEST PUSH2 0xE2 PUSH1 0x4 DUP1 CALLDATASIZE SUB DUP2 ADD SWAP1 PUSH2 0xDD SWAP2 SWAP1 PUSH2 0x12D9 JUMP JUMPDEST PUSH2 0x438 JUMP JUMPDEST STOP JUMPDEST PUSH2 0xFE PUSH1 0x4 DUP1 CALLDATASIZE SUB DUP2 ADD SWAP1 PUSH2 0xF9 SWAP2 SWAP1 PUSH2 0x1234 JUMP JUMPDEST PUSH2 0x615 JUMP JUMPDEST PUSH1 0x40 MLOAD PUSH2 0x10B SWAP2 SWAP1 PUSH2 0x162B JUMP JUMPDEST PUSH1 0x40 MLOAD DUP1 SWAP2 SUB SWAP1 RETURN JUMPDEST PUSH2 0x11C PUSH2 0x7EE JUMP JUMPDEST STOP JUMPDEST PUSH2 0x126 PUSH2 0x876 JUMP JUMPDEST PUSH1 0x40 MLOAD PUSH2 0x133 SWAP2 SWAP1 PUSH2 0x1533 JUMP JUMPDEST PUSH1 0x40 MLOAD DUP1 SWAP2 SUB SWAP1 RETURN JUMPDEST PUSH2 0x144 PUSH2 0x89F JUMP JUMPDEST PUSH1 0x40 MLOAD PUSH2 0x151 SWAP2 SWAP1 PUSH2 0x162B JUMP JUMPDEST PUSH1 0x40 MLOAD DUP1 SWAP2 SUB SWAP1 RETURN JUMPDEST PUSH2 0x174 PUSH1 0x4 DUP1 CALLDATASIZE SUB DUP2 ADD SWAP1 PUSH2 0x16F SWAP2 SWAP1 PUSH2 0x12AC JUMP JUMPDEST PUSH2 0x8A5 JUMP JUMPDEST PUSH1 0x40 MLOAD PUSH2 0x181 SWAP2 SWAP1 PUSH2 0x154E JUMP JUMPDEST PUSH1 0x40 MLOAD DUP1 SWAP2 SUB SWAP1 RETURN JUMPDEST PUSH2 0x1A4 PUSH1 0x4 DUP1 CALLDATASIZE SUB DUP2 ADD SWAP1 PUSH2 0x19F SWAP2 SWAP1 PUSH2 0x11EB JUMP JUMPDEST PUSH2 0xB05 JUMP JUMPDEST PUSH1 0x40 MLOAD PUSH2 0x1B1 SWAP2 SWAP1 PUSH2 0x154E JUMP JUMPDEST PUSH1 0x40 MLOAD DUP1 SWAP2 SUB SWAP1 RETURN JUMPDEST PUSH2 0x1D4 PUSH1 0x4 DUP1 CALLDATASIZE SUB DUP2 ADD SWAP1 PUSH2 0x1CF SWAP2 SWAP1 PUSH2 0x11BE JUMP JUMPDEST PUSH2 0xC1F JUMP JUMPDEST STOP JUMPDEST PUSH2 0x1DE PUSH2 0x100A JUMP JUMPDEST PUSH1 0x1 SLOAD DUP3 LT PUSH2 0x222 JUMPI PUSH1 0x40 MLOAD PUSH32 0x8C379A000000000000000000000000000000000000000000000000000000000 DUP2 MSTORE PUSH1 0x4 ADD PUSH2 0x219 SWAP1 PUSH2 0x1569 JUMP JUMPDEST PUSH1 0x40 MLOAD DUP1 SWAP2 SUB SWAP1 REVERT JUMPDEST PUSH1 0x0 PUSH1 0x2 PUSH1 0x0 DUP5 DUP2 MSTORE PUSH1 0x20 ADD SWAP1 DUP2 MSTORE PUSH1 0x20 ADD PUSH1 0x0 KECCAK256 PUSH1 0x40 MLOAD DUP1 PUSH1 0xC0 ADD PUSH1 0x40 MSTORE SWAP1 DUP2 PUSH1 0x0 DUP3 ADD PUSH1 0x0 SWAP1 SLOAD SWAP1 PUSH2 0x100 EXP SWAP1 DIV PUSH1 0xFF AND PUSH1 0x1 DUP2 GT ISZERO PUSH2 0x267 JUMPI PUSH2 0x266 PUSH2 0x18E8 JUMP JUMPDEST JUMPDEST PUSH1 0x1 DUP2 GT ISZERO PUSH2 0x279 JUMPI PUSH2 0x278 PUSH2 0x18E8 JUMP JUMPDEST JUMPDEST DUP2 MSTORE PUSH1 0x20 ADD PUSH1 0x1 DUP3 ADD DUP1 SLOAD PUSH2 0x28D SWAP1 PUSH2 0x180D JUMP JUMPDEST DUP1 PUSH1 0x1F ADD PUSH1 0x20 DUP1 SWAP2 DIV MUL PUSH1 0x20 ADD PUSH1 0x40 MLOAD SWAP1 DUP2 ADD PUSH1 0x40 MSTORE DUP1 SWAP3 SWAP2 SWAP1 DUP2 DUP2 MSTORE PUSH1 0x20 ADD DUP3 DUP1 SLOAD PUSH2 0x2B9 SWAP1 PUSH2 0x180D JUMP JUMPDEST DUP1 ISZERO PUSH2 0x306 JUMPI DUP1 PUSH1 0x1F LT PUSH2 0x2DB JUMPI PUSH2 0x100 DUP1 DUP4 SLOAD DIV MUL DUP4 MSTORE SWAP2 PUSH1 0x20 ADD SWAP2 PUSH2 0x306 JUMP JUMPDEST DUP3 ADD SWAP2 SWAP1 PUSH1 0x0 MSTORE PUSH1 0x20 PUSH1 0x0 KECCAK256 SWAP1 JUMPDEST DUP2 SLOAD DUP2 MSTORE SWAP1 PUSH1 0x1 ADD SWAP1 PUSH1 0x20 ADD DUP1 DUP4 GT PUSH2 0x2E9 JUMPI DUP3 SWAP1 SUB PUSH1 0x1F AND DUP3 ADD SWAP2 JUMPDEST POP POP POP POP POP DUP2 MSTORE PUSH1 0x20 ADD PUSH1 0x2 DUP3 ADD DUP1 SLOAD PUSH2 0x31F SWAP1 PUSH2 0x180D JUMP JUMPDEST DUP1 PUSH1 0x1F ADD PUSH1 0x20 DUP1 SWAP2 DIV MUL PUSH1 0x20 ADD PUSH1 0x40 MLOAD SWAP1 DUP2 ADD PUSH1 0x40 MSTORE DUP1 SWAP3 SWAP2 SWAP1 DUP2 DUP2 MSTORE PUSH1 0x20 ADD DUP3 DUP1 SLOAD PUSH2 0x34B SWAP1 PUSH2 0x180D JUMP JUMPDEST DUP1 ISZERO PUSH2 0x398 JUMPI DUP1 PUSH1 0x1F LT PUSH2 0x36D JUMPI PUSH2 0x100 DUP1 DUP4 SLOAD DIV MUL DUP4 MSTORE SWAP2 PUSH1 0x20 ADD SWAP2 PUSH2 0x398 JUMP JUMPDEST DUP3 ADD SWAP2 SWAP1 PUSH1 0x0 MSTORE PUSH1 0x20 PUSH1 0x0 KECCAK256 SWAP1 JUMPDEST DUP2 SLOAD DUP2 MSTORE SWAP1 PUSH1 0x1 ADD SWAP1 PUSH1 0x20 ADD DUP1 DUP4 GT PUSH2 0x37B JUMPI DUP3 SWAP1 SUB PUSH1 0x1F AND DUP3 ADD SWAP2 JUMPDEST POP POP POP POP POP DUP2 MSTORE PUSH1 0x20 ADD PUSH1 0x3 DUP3 ADD PUSH1 0x0 SWAP1 SLOAD SWAP1 PUSH2 0x100 EXP SWAP1 DIV PUSH1 0xFF AND ISZERO ISZERO ISZERO ISZERO DUP2 MSTORE PUSH1 0x20 ADD PUSH1 0x3 DUP3 ADD PUSH1 0x1 SWAP1 SLOAD SWAP1 PUSH2 0x100 EXP SWAP1 DIV PUSH1 0xFF AND ISZERO ISZERO ISZERO ISZERO DUP2 MSTORE PUSH1 0x20 ADD PUSH1 0x3 DUP3 ADD PUSH1 0x2 SWAP1 SLOAD SWAP1 PUSH2 0x100 EXP SWAP1 DIV PUSH20 0xFFFFFFFFFFFFFFFFFFFFFFFFFFFFFFFFFFFFFFFF AND PUSH20 0xFFFFFFFFFFFFFFFFFFFFFFFFFFFFFFFFFFFFFFFF AND PUSH20 0xFFFFFFFFFFFFFFFFFFFFFFFFFFFFFFFFFFFFFFFF AND DUP2 MSTORE POP POP SWAP1 POP DUP1 SWAP2 POP POP SWAP2 SWAP1 POP JUMP JUMPDEST PUSH2 0x440 PUSH2 0xD17 JUMP JUMPDEST PUSH20 0xFFFFFFFFFFFFFFFFFFFFFFFFFFFFFFFFFFFFFFFF AND PUSH2 0x45E PUSH2 0x876 JUMP JUMPDEST PUSH20 0xFFFFFFFFFFFFFFFFFFFFFFFFFFFFFFFFFFFFFFFF AND EQ PUSH2 0x4B4 JUMPI PUSH1 0x40 MLOAD PUSH32 0x8C379A000000000000000000000000000000000000000000000000000000000 DUP2 MSTORE PUSH1 0x4 ADD PUSH2 0x4AB SWAP1 PUSH2 0x15E9 JUMP JUMPDEST PUSH1 0x40 MLOAD DUP1 SWAP2 SUB SWAP1 REVERT JUMPDEST PUSH1 0x0 ISZERO ISZERO PUSH1 0x2 PUSH1 0x0 DUP5 DUP2 MSTORE PUSH1 0x20 ADD SWAP1 DUP2 MSTORE PUSH1 0x20 ADD PUSH1 0x0 KECCAK256 PUSH1 0x3 ADD PUSH1 0x0 SWAP1 SLOAD SWAP1 PUSH2 0x100 EXP SWAP1 DIV PUSH1 0xFF AND ISZERO ISZERO EQ DUP1 ISZERO PUSH2 0x532 JUMPI POP PUSH1 0x0 PUSH1 0x1 DUP2 GT ISZERO PUSH2 0x4FA JUMPI PUSH2 0x4F9 PUSH2 0x18E8 JUMP JUMPDEST JUMPDEST PUSH1 0x2 PUSH1 0x0 DUP5 DUP2 MSTORE PUSH1 0x20 ADD SWAP1 DUP2 MSTORE PUSH1 0x20 ADD PUSH1 0x0 KECCAK256 PUSH1 0x0 ADD PUSH1 0x0 SWAP1 SLOAD SWAP1 PUSH2 0x100 EXP SWAP1 DIV PUSH1 0xFF AND PUSH1 0x1 DUP2 GT ISZERO PUSH2 0x530 JUMPI PUSH2 0x52F PUSH2 0x18E8 JUMP JUMPDEST JUMPDEST EQ JUMPDEST PUSH2 0x571 JUMPI PUSH1 0x40 MLOAD PUSH32 0x8C379A000000000000000000000000000000000000000000000000000000000 DUP2 MSTORE PUSH1 0x4 ADD PUSH2 0x568 SWAP1 PUSH2 0x15C9 JUMP JUMPDEST PUSH1 0x40 MLOAD DUP1 SWAP2 SUB SWAP1 REVERT JUMPDEST DUP1 PUSH1 0x2 PUSH1 0x0 DUP5 DUP2 MSTORE PUSH1 0x20 ADD SWAP1 DUP2 MSTORE PUSH1 0x20 ADD PUSH1 0x0 KECCAK256 PUSH1 0x3 ADD PUSH1 0x1 PUSH2 0x100 EXP DUP2 SLOAD DUP2 PUSH1 0xFF MUL NOT AND SWAP1 DUP4 ISZERO ISZERO MUL OR SWAP1 SSTORE POP PUSH1 0x0 PUSH1 0x2 PUSH1 0x0 PUSH1 0x1 SLOAD DUP2 MSTORE PUSH1 0x20 ADD SWAP1 DUP2 MSTORE PUSH1 0x20 ADD PUSH1 0x0 KECCAK256 PUSH1 0x3 ADD PUSH1 0x0 PUSH2 0x100 EXP DUP2 SLOAD DUP2 PUSH1 0xFF MUL NOT AND SWAP1 DUP4 ISZERO ISZERO MUL OR SWAP1 SSTORE POP PUSH1 0x1 PUSH1 0x2 PUSH1 0x0 PUSH1 0x1 SLOAD DUP2 MSTORE PUSH1 0x20 ADD SWAP1 DUP2 MSTORE PUSH1 0x20 ADD PUSH1 0x0 KECCAK256 PUSH1 0x0 ADD PUSH1 0x0 PUSH2 0x100 EXP DUP2 SLOAD DUP2 PUSH1 0xFF MUL NOT AND SWAP1 DUP4 PUSH1 0x1 DUP2 GT ISZERO PUSH2 0x60C JUMPI PUSH2 0x60B PUSH2 0x18E8 JUMP JUMPDEST JUMPDEST MUL OR SWAP1 SSTORE POP POP POP JUMP JUMPDEST PUSH1 0x0 PUSH2 0x620 DUP4 PUSH2 0xD1F JUMP JUMPDEST DUP1 ISZERO PUSH2 0x631 JUMPI POP PUSH2 0x630 DUP3 PUSH2 0xE06 JUMP JUMPDEST JUMPDEST PUSH2 0x670 JUMPI PUSH1 0x40 MLOAD PUSH32 0x8C379A000000000000000000000000000000000000000000000000000000000 DUP2 MSTORE PUSH1 0x4 ADD PUSH2 0x667 SWAP1 PUSH2 0x15A9 JUMP JUMPDEST PUSH1 0x40 MLOAD DUP1 SWAP2 SUB SWAP1 REVERT JUMPDEST DUP3 PUSH1 0x2 PUSH1 0x0 PUSH1 0x1 SLOAD DUP2 MSTORE PUSH1 0x20 ADD SWAP1 DUP2 MSTORE PUSH1 0x20 ADD PUSH1 0x0 KECCAK256 PUSH1 0x1 ADD SWAP1 DUP1 MLOAD SWAP1 PUSH1 0x20 ADD SWAP1 PUSH2 0x69C SWAP3 SWAP2 SWAP1 PUSH2 0x106C JUMP JUMPDEST POP DUP2 PUSH1 0x2 PUSH1 0x0 PUSH1 0x1 SLOAD DUP2 MSTORE PUSH1 0x20 ADD SWAP1 DUP2 MSTORE PUSH1 0x20 ADD PUSH1 0x0 KECCAK256 PUSH1 0x2 ADD SWAP1 DUP1 MLOAD SWAP1 PUSH1 0x20 ADD SWAP1 PUSH2 0x6C9 SWAP3 SWAP2 SWAP1 PUSH2 0x106C JUMP JUMPDEST POP PUSH1 0x0 PUSH1 0x2 PUSH1 0x0 PUSH1 0x1 SLOAD DUP2 MSTORE PUSH1 0x20 ADD SWAP1 DUP2 MSTORE PUSH1 0x20 ADD PUSH1 0x0 KECCAK256 PUSH1 0x0 ADD PUSH1 0x0 PUSH2 0x100 EXP DUP2 SLOAD DUP2 PUSH1 0xFF MUL NOT AND SWAP1 DUP4 PUSH1 0x1 DUP2 GT ISZERO PUSH2 0x706 JUMPI PUSH2 0x705 PUSH2 0x18E8 JUMP JUMPDEST JUMPDEST MUL OR SWAP1 SSTORE POP PUSH1 0x0 PUSH1 0x2 PUSH1 0x0 PUSH1 0x1 SLOAD DUP2 MSTORE PUSH1 0x20 ADD SWAP1 DUP2 MSTORE PUSH1 0x20 ADD PUSH1 0x0 KECCAK256 PUSH1 0x3 ADD PUSH1 0x0 PUSH2 0x100 EXP DUP2 SLOAD DUP2 PUSH1 0xFF MUL NOT AND SWAP1 DUP4 ISZERO ISZERO MUL OR SWAP1 SSTORE POP PUSH1 0x0 PUSH1 0x2 PUSH1 0x0 PUSH1 0x1 SLOAD DUP2 MSTORE PUSH1 0x20 ADD SWAP1 DUP2 MSTORE PUSH1 0x20 ADD PUSH1 0x0 KECCAK256 PUSH1 0x3 ADD PUSH1 0x1 PUSH2 0x100 EXP DUP2 SLOAD DUP2 PUSH1 0xFF MUL NOT AND SWAP1 DUP4 ISZERO ISZERO MUL OR SWAP1 SSTORE POP CALLER PUSH1 0x2 PUSH1 0x0 PUSH1 0x1 SLOAD DUP2 MSTORE PUSH1 0x20 ADD SWAP1 DUP2 MSTORE PUSH1 0x20 ADD PUSH1 0x0 KECCAK256 PUSH1 0x3 ADD PUSH1 0x2 PUSH2 0x100 EXP DUP2 SLOAD DUP2 PUSH20 0xFFFFFFFFFFFFFFFFFFFFFFFFFFFFFFFFFFFFFFFF MUL NOT AND SWAP1 DUP4 PUSH20 0xFFFFFFFFFFFFFFFFFFFFFFFFFFFFFFFFFFFFFFFF AND MUL OR SWAP1 SSTORE POP PUSH1 0x1 DUP1 SLOAD PUSH2 0x7D2 SWAP2 SWAP1 PUSH2 0x16D4 JUMP JUMPDEST PUSH1 0x1 DUP2 SWAP1 SSTORE POP PUSH1 0x1 DUP1 SLOAD PUSH2 0x7E6 SWAP2 SWAP1 PUSH2 0x172A JUMP JUMPDEST SWAP1 POP SWAP3 SWAP2 POP POP JUMP JUMPDEST PUSH2 0x7F6 PUSH2 0xD17 JUMP JUMPDEST PUSH20 0xFFFFFFFFFFFFFFFFFFFFFFFFFFFFFFFFFFFFFFFF AND PUSH2 0x814 PUSH2 0x876 JUMP JUMPDEST PUSH20 0xFFFFFFFFFFFFFFFFFFFFFFFFFFFFFFFFFFFFFFFF AND EQ PUSH2 0x86A JUMPI PUSH1 0x40 MLOAD PUSH32 0x8C379A000000000000000000000000000000000000000000000000000000000 DUP2 MSTORE PUSH1 0x4 ADD PUSH2 0x861 SWAP1 PUSH2 0x15E9 JUMP JUMPDEST PUSH1 0x40 MLOAD DUP1 SWAP2 SUB SWAP1 REVERT JUMPDEST PUSH2 0x874 PUSH1 0x0 PUSH2 0xEED JUMP JUMPDEST JUMP JUMPDEST PUSH1 0x0 DUP1 PUSH1 0x0 SWAP1 SLOAD SWAP1 PUSH2 0x100 EXP SWAP1 DIV PUSH20 0xFFFFFFFFFFFFFFFFFFFFFFFFFFFFFFFFFFFFFFFF AND SWAP1 POP SWAP1 JUMP JUMPDEST PUSH1 0x1 SLOAD DUP2 JUMP JUMPDEST PUSH1 0x0 PUSH1 0x1 SLOAD DUP3 LT PUSH2 0x8EB JUMPI PUSH1 0x40 MLOAD PUSH32 0x8C379A000000000000000000000000000000000000000000000000000000000 DUP2 MSTORE PUSH1 0x4 ADD PUSH2 0x8E2 SWAP1 PUSH2 0x1569 JUMP JUMPDEST PUSH1 0x40 MLOAD DUP1 SWAP2 SUB SWAP1 REVERT JUMPDEST PUSH1 0x0 PUSH1 0x2 PUSH1 0x0 DUP5 DUP2 MSTORE PUSH1 0x20 ADD SWAP1 DUP2 MSTORE PUSH1 0x20 ADD PUSH1 0x0 KECCAK256 PUSH1 0x40 MLOAD DUP1 PUSH1 0xC0 ADD PUSH1 0x40 MSTORE SWAP1 DUP2 PUSH1 0x0 DUP3 ADD PUSH1 0x0 SWAP1 SLOAD SWAP1 PUSH2 0x100 EXP SWAP1 DIV PUSH1 0xFF AND PUSH1 0x1 DUP2 GT ISZERO PUSH2 0x930 JUMPI PUSH2 0x92F PUSH2 0x18E8 JUMP JUMPDEST JUMPDEST PUSH1 0x1 DUP2 GT ISZERO PUSH2 0x942 JUMPI PUSH2 0x941 PUSH2 0x18E8 JUMP JUMPDEST JUMPDEST DUP2 MSTORE PUSH1 0x20 ADD PUSH1 0x1 DUP3 ADD DUP1 SLOAD PUSH2 0x956 SWAP1 PUSH2 0x180D JUMP JUMPDEST DUP1 PUSH1 0x1F ADD PUSH1 0x20 DUP1 SWAP2 DIV MUL PUSH1 0x20 ADD PUSH1 0x40 MLOAD SWAP1 DUP2 ADD PUSH1 0x40 MSTORE DUP1 SWAP3 SWAP2 SWAP1 DUP2 DUP2 MSTORE PUSH1 0x20 ADD DUP3 DUP1 SLOAD PUSH2 0x982 SWAP1 PUSH2 0x180D JUMP JUMPDEST DUP1 ISZERO PUSH2 0x9CF JUMPI DUP1 PUSH1 0x1F LT PUSH2 0x9A4 JUMPI PUSH2 0x100 DUP1 DUP4 SLOAD DIV MUL DUP4 MSTORE SWAP2 PUSH1 0x20 ADD SWAP2 PUSH2 0x9CF JUMP JUMPDEST DUP3 ADD SWAP2 SWAP1 PUSH1 0x0 MSTORE PUSH1 0x20 PUSH1 0x0 KECCAK256 SWAP1 JUMPDEST DUP2 SLOAD DUP2 MSTORE SWAP1 PUSH1 0x1 ADD SWAP1 PUSH1 0x20 ADD DUP1 DUP4 GT PUSH2 0x9B2 JUMPI DUP3 SWAP1 SUB PUSH1 0x1F AND DUP3 ADD SWAP2 JUMPDEST POP POP POP POP POP DUP2 MSTORE PUSH1 0x20 ADD PUSH1 0x2 DUP3 ADD DUP1 SLOAD PUSH2 0x9E8 SWAP1 PUSH2 0x180D JUMP JUMPDEST DUP1 PUSH1 0x1F ADD PUSH1 0x20 DUP1 SWAP2 DIV MUL PUSH1 0x20 ADD PUSH1 0x40 MLOAD SWAP1 DUP2 ADD PUSH1 0x40 MSTORE DUP1 SWAP3 SWAP2 SWAP1 DUP2 DUP2 MSTORE PUSH1 0x20 ADD DUP3 DUP1 SLOAD PUSH2 0xA14 SWAP1 PUSH2 0x180D JUMP JUMPDEST DUP1 ISZERO PUSH2 0xA61 JUMPI DUP1 PUSH1 0x1F LT PUSH2 0xA36 JUMPI PUSH2 0x100 DUP1 DUP4 SLOAD DIV MUL DUP4 MSTORE SWAP2 PUSH1 0x20 ADD SWAP2 PUSH2 0xA61 JUMP JUMPDEST DUP3 ADD SWAP2 SWAP1 PUSH1 0x0 MSTORE PUSH1 0x20 PUSH1 0x0 KECCAK256 SWAP1 JUMPDEST DUP2 SLOAD DUP2 MSTORE SWAP1 PUSH1 0x1 ADD SWAP1 PUSH1 0x20 ADD DUP1 DUP4 GT PUSH2 0xA44 JUMPI DUP3 SWAP1 SUB PUSH1 0x1F AND DUP3 ADD SWAP2 JUMPDEST POP POP POP POP POP DUP2 MSTORE PUSH1 0x20 ADD PUSH1 0x3 DUP3 ADD PUSH1 0x0 SWAP1 SLOAD SWAP1 PUSH2 0x100 EXP SWAP1 DIV PUSH1 0xFF AND ISZERO ISZERO ISZERO ISZERO DUP2 MSTORE PUSH1 0x20 ADD PUSH1 0x3 DUP3 ADD PUSH1 0x1 SWAP1 SLOAD SWAP1 PUSH2 0x100 EXP SWAP1 DIV PUSH1 0xFF AND ISZERO ISZERO ISZERO ISZERO DUP2 MSTORE PUSH1 0x20 ADD PUSH1 0x3 DUP3 ADD PUSH1 0x2 SWAP1 SLOAD SWAP1 PUSH2 0x100 EXP SWAP1 DIV PUSH20 0xFFFFFFFFFFFFFFFFFFFFFFFFFFFFFFFFFFFFFFFF AND PUSH20 0xFFFFFFFFFFFFFFFFFFFFFFFFFFFFFFFFFFFFFFFF AND PUSH20 0xFFFFFFFFFFFFFFFFFFFFFFFFFFFFFFFFFFFFFFFF AND DUP2 MSTORE POP POP SWAP1 POP DUP1 PUSH1 0x80 ADD MLOAD SWAP2 POP POP SWAP2 SWAP1 POP JUMP JUMPDEST PUSH1 0x0 DUP1 PUSH1 0x0 SWAP1 POP JUMPDEST PUSH1 0x1 SLOAD DUP2 LT ISZERO PUSH2 0xC14 JUMPI PUSH2 0xBBF PUSH1 0x2 PUSH1 0x0 DUP4 DUP2 MSTORE PUSH1 0x20 ADD SWAP1 DUP2 MSTORE PUSH1 0x20 ADD PUSH1 0x0 KECCAK256 PUSH1 0x1 ADD DUP1 SLOAD PUSH2 0xB3B SWAP1 PUSH2 0x180D JUMP JUMPDEST DUP1 PUSH1 0x1F ADD PUSH1 0x20 DUP1 SWAP2 DIV MUL PUSH1 0x20 ADD PUSH1 0x40 MLOAD SWAP1 DUP2 ADD PUSH1 0x40 MSTORE DUP1 SWAP3 SWAP2 SWAP1 DUP2 DUP2 MSTORE PUSH1 0x20 ADD DUP3 DUP1 SLOAD PUSH2 0xB67 SWAP1 PUSH2 0x180D JUMP JUMPDEST DUP1 ISZERO PUSH2 0xBB4 JUMPI DUP1 PUSH1 0x1F LT PUSH2 0xB89 JUMPI PUSH2 0x100 DUP1 DUP4 SLOAD DIV MUL DUP4 MSTORE SWAP2 PUSH1 0x20 ADD SWAP2 PUSH2 0xBB4 JUMP JUMPDEST DUP3 ADD SWAP2 SWAP1 PUSH1 0x0 MSTORE PUSH1 0x20 PUSH1 0x0 KECCAK256 SWAP1 JUMPDEST DUP2 SLOAD DUP2 MSTORE SWAP1 PUSH1 0x1 ADD SWAP1 PUSH1 0x20 ADD DUP1 DUP4 GT PUSH2 0xB97 JUMPI DUP3 SWAP1 SUB PUSH1 0x1F AND DUP3 ADD SWAP2 JUMPDEST POP POP POP POP POP DUP5 PUSH2 0xFB1 JUMP JUMPDEST DUP1 ISZERO PUSH2 0xBF2 JUMPI POP PUSH1 0x1 ISZERO ISZERO PUSH1 0x2 PUSH1 0x0 DUP4 DUP2 MSTORE PUSH1 0x20 ADD SWAP1 DUP2 MSTORE PUSH1 0x20 ADD PUSH1 0x0 KECCAK256 PUSH1 0x3 ADD PUSH1 0x1 SWAP1 SLOAD SWAP1 PUSH2 0x100 EXP SWAP1 DIV PUSH1 0xFF AND ISZERO ISZERO EQ JUMPDEST ISZERO PUSH2 0xC01 JUMPI PUSH1 0x1 SWAP2 POP POP PUSH2 0xC1A JUMP JUMPDEST DUP1 DUP1 PUSH2 0xC0C SWAP1 PUSH2 0x1870 JUMP JUMPDEST SWAP2 POP POP PUSH2 0xB0D JUMP JUMPDEST POP PUSH1 0x0 SWAP1 POP JUMPDEST SWAP2 SWAP1 POP JUMP JUMPDEST PUSH2 0xC27 PUSH2 0xD17 JUMP JUMPDEST PUSH20 0xFFFFFFFFFFFFFFFFFFFFFFFFFFFFFFFFFFFFFFFF AND PUSH2 0xC45 PUSH2 0x876 JUMP JUMPDEST PUSH20 0xFFFFFFFFFFFFFFFFFFFFFFFFFFFFFFFFFFFFFFFF AND EQ PUSH2 0xC9B JUMPI PUSH1 0x40 MLOAD PUSH32 0x8C379A000000000000000000000000000000000000000000000000000000000 DUP2 MSTORE PUSH1 0x4 ADD PUSH2 0xC92 SWAP1 PUSH2 0x15E9 JUMP JUMPDEST PUSH1 0x40 MLOAD DUP1 SWAP2 SUB SWAP1 REVERT JUMPDEST PUSH1 0x0 PUSH20 0xFFFFFFFFFFFFFFFFFFFFFFFFFFFFFFFFFFFFFFFF AND DUP2 PUSH20 0xFFFFFFFFFFFFFFFFFFFFFFFFFFFFFFFFFFFFFFFF AND EQ ISZERO PUSH2 0xD0B JUMPI PUSH1 0x40 MLOAD PUSH32 0x8C379A000000000000000000000000000000000000000000000000000000000 DUP2 MSTORE PUSH1 0x4 ADD PUSH2 0xD02 SWAP1 PUSH2 0x1589 JUMP JUMPDEST PUSH1 0x40 MLOAD DUP1 SWAP2 SUB SWAP1 REVERT JUMPDEST PUSH2 0xD14 DUP2 PUSH2 0xEED JUMP JUMPDEST POP JUMP JUMPDEST PUSH1 0x0 CALLER SWAP1 POP SWAP1 JUMP JUMPDEST PUSH1 0x0 DUP1 PUSH1 0x0 SWAP1 POP JUMPDEST PUSH1 0x1 SLOAD DUP2 LT ISZERO PUSH2 0xDFB JUMPI PUSH2 0xDD9 PUSH1 0x2 PUSH1 0x0 DUP4 DUP2 MSTORE PUSH1 0x20 ADD SWAP1 DUP2 MSTORE PUSH1 0x20 ADD PUSH1 0x0 KECCAK256 PUSH1 0x1 ADD DUP1 SLOAD PUSH2 0xD55 SWAP1 PUSH2 0x180D JUMP JUMPDEST DUP1 PUSH1 0x1F ADD PUSH1 0x20 DUP1 SWAP2 DIV MUL PUSH1 0x20 ADD PUSH1 0x40 MLOAD SWAP1 DUP2 ADD PUSH1 0x40 MSTORE DUP1 SWAP3 SWAP2 SWAP1 DUP2 DUP2 MSTORE PUSH1 0x20 ADD DUP3 DUP1 SLOAD PUSH2 0xD81 SWAP1 PUSH2 0x180D JUMP JUMPDEST DUP1 ISZERO PUSH2 0xDCE JUMPI DUP1 PUSH1 0x1F LT PUSH2 0xDA3 JUMPI PUSH2 0x100 DUP1 DUP4 SLOAD DIV MUL DUP4 MSTORE SWAP2 PUSH1 0x20 ADD SWAP2 PUSH2 0xDCE JUMP JUMPDEST DUP3 ADD SWAP2 SWAP1 PUSH1 0x0 MSTORE PUSH1 0x20 PUSH1 0x0 KECCAK256 SWAP1 JUMPDEST DUP2 SLOAD DUP2 MSTORE SWAP1 PUSH1 0x1 ADD SWAP1 PUSH1 0x20 ADD DUP1 DUP4 GT PUSH2 0xDB1 JUMPI DUP3 SWAP1 SUB PUSH1 0x1F AND DUP3 ADD SWAP2 JUMPDEST POP POP POP POP POP DUP5 PUSH2 0xFB1 JUMP JUMPDEST ISZERO PUSH2 0xDE8 JUMPI PUSH1 0x0 SWAP2 POP POP PUSH2 0xE01 JUMP JUMPDEST DUP1 DUP1 PUSH2 0xDF3 SWAP1 PUSH2 0x1870 JUMP JUMPDEST SWAP2 POP POP PUSH2 0xD27 JUMP JUMPDEST POP PUSH1 0x1 SWAP1 POP JUMPDEST SWAP2 SWAP1 POP JUMP JUMPDEST PUSH1 0x0 DUP1 PUSH1 0x0 SWAP1 POP JUMPDEST PUSH1 0x1 SLOAD DUP2 LT ISZERO PUSH2 0xEE2 JUMPI PUSH2 0xEC0 PUSH1 0x2 PUSH1 0x0 DUP4 DUP2 MSTORE PUSH1 0x20 ADD SWAP1 DUP2 MSTORE PUSH1 0x20 ADD PUSH1 0x0 KECCAK256 PUSH1 0x2 ADD DUP1 SLOAD PUSH2 0xE3C SWAP1 PUSH2 0x180D JUMP JUMPDEST DUP1 PUSH1 0x1F ADD PUSH1 0x20 DUP1 SWAP2 DIV MUL PUSH1 0x20 ADD PUSH1 0x40 MLOAD SWAP1 DUP2 ADD PUSH1 0x40 MSTORE DUP1 SWAP3 SWAP2 SWAP1 DUP2 DUP2 MSTORE PUSH1 0x20 ADD DUP3 DUP1 SLOAD PUSH2 0xE68 SWAP1 PUSH2 0x180D JUMP JUMPDEST DUP1 ISZERO PUSH2 0xEB5 JUMPI DUP1 PUSH1 0x1F LT PUSH2 0xE8A JUMPI PUSH2 0x100 DUP1 DUP4 SLOAD DIV MUL DUP4 MSTORE SWAP2 PUSH1 0x20 ADD SWAP2 PUSH2 0xEB5 JUMP JUMPDEST DUP3 ADD SWAP2 SWAP1 PUSH1 0x0 MSTORE PUSH1 0x20 PUSH1 0x0 KECCAK256 SWAP1 JUMPDEST DUP2 SLOAD DUP2 MSTORE SWAP1 PUSH1 0x1 ADD SWAP1 PUSH1 0x20 ADD DUP1 DUP4 GT PUSH2 0xE98 JUMPI DUP3 SWAP1 SUB PUSH1 0x1F AND DUP3 ADD SWAP2 JUMPDEST POP POP POP POP POP DUP5 PUSH2 0xFB1 JUMP JUMPDEST ISZERO PUSH2 0xECF JUMPI PUSH1 0x0 SWAP2 POP POP PUSH2 0xEE8 JUMP JUMPDEST DUP1 DUP1 PUSH2 0xEDA SWAP1 PUSH2 0x1870 JUMP JUMPDEST SWAP2 POP POP PUSH2 0xE0E JUMP JUMPDEST POP PUSH1 0x1 SWAP1 POP JUMPDEST SWAP2 SWAP1 POP JUMP JUMPDEST PUSH1 0x0 DUP1 PUSH1 0x0 SWAP1 SLOAD SWAP1 PUSH2 0x100 EXP SWAP1 DIV PUSH20 0xFFFFFFFFFFFFFFFFFFFFFFFFFFFFFFFFFFFFFFFF AND SWAP1 POP DUP2 PUSH1 0x0 DUP1 PUSH2 0x100 EXP DUP2 SLOAD DUP2 PUSH20 0xFFFFFFFFFFFFFFFFFFFFFFFFFFFFFFFFFFFFFFFF MUL NOT AND SWAP1 DUP4 PUSH20 0xFFFFFFFFFFFFFFFFFFFFFFFFFFFFFFFFFFFFFFFF AND MUL OR SWAP1 SSTORE POP DUP2 PUSH20 0xFFFFFFFFFFFFFFFFFFFFFFFFFFFFFFFFFFFFFFFF AND DUP2 PUSH20 0xFFFFFFFFFFFFFFFFFFFFFFFFFFFFFFFFFFFFFFFF AND PUSH32 0x8BE0079C531659141344CD1FD0A4F28419497F9722A3DAAFE3B4186F6B6457E0 PUSH1 0x40 MLOAD PUSH1 0x40 MLOAD DUP1 SWAP2 SUB SWAP1 LOG3 POP POP JUMP JUMPDEST PUSH1 0x0 DUP2 PUSH1 0x40 MLOAD PUSH1 0x20 ADD PUSH2 0xFC4 SWAP2 SWAP1 PUSH2 0x151C JUMP JUMPDEST PUSH1 0x40 MLOAD PUSH1 0x20 DUP2 DUP4 SUB SUB DUP2 MSTORE SWAP1 PUSH1 0x40 MSTORE DUP1 MLOAD SWAP1 PUSH1 0x20 ADD KECCAK256 DUP4 PUSH1 0x40 MLOAD PUSH1 0x20 ADD PUSH2 0xFEB SWAP2 SWAP1 PUSH2 0x151C JUMP JUMPDEST PUSH1 0x40 MLOAD PUSH1 0x20 DUP2 DUP4 SUB SUB DUP2 MSTORE SWAP1 PUSH1 0x40 MSTORE DUP1 MLOAD SWAP1 PUSH1 0x20 ADD KECCAK256 EQ SWAP1 POP SWAP3 SWAP2 POP POP JUMP JUMPDEST PUSH1 0x40 MLOAD DUP1 PUSH1 0xC0 ADD PUSH1 0x40 MSTORE DUP1 PUSH1 0x0 PUSH1 0x1 DUP2 GT ISZERO PUSH2 0x1029 JUMPI PUSH2 0x1028 PUSH2 0x18E8 JUMP JUMPDEST JUMPDEST DUP2 MSTORE PUSH1 0x20 ADD PUSH1 0x60 DUP2 MSTORE PUSH1 0x20 ADD PUSH1 0x60 DUP2 MSTORE PUSH1 0x20 ADD PUSH1 0x0 ISZERO ISZERO DUP2 MSTORE PUSH1 0x20 ADD PUSH1 0x0 ISZERO ISZERO DUP2 MSTORE PUSH1 0x20 ADD PUSH1 0x0 PUSH20 0xFFFFFFFFFFFFFFFFFFFFFFFFFFFFFFFFFFFFFFFF AND DUP2 MSTORE POP SWAP1 JUMP JUMPDEST DUP3 DUP1 SLOAD PUSH2 0x1078 SWAP1 PUSH2 0x180D JUMP JUMPDEST SWAP1 PUSH1 0x0 MSTORE PUSH1 0x20 PUSH1 0x0 KECCAK256 SWAP1 PUSH1 0x1F ADD PUSH1 0x20 SWAP1 DIV DUP2 ADD SWAP3 DUP3 PUSH2 0x109A JUMPI PUSH1 0x0 DUP6 SSTORE PUSH2 0x10E1 JUMP JUMPDEST DUP3 PUSH1 0x1F LT PUSH2 0x10B3 JUMPI DUP1 MLOAD PUSH1 0xFF NOT AND DUP4 DUP1 ADD OR DUP6 SSTORE PUSH2 0x10E1 JUMP JUMPDEST DUP3 DUP1 ADD PUSH1 0x1 ADD DUP6 SSTORE DUP3 ISZERO PUSH2 0x10E1 JUMPI SWAP2 DUP3 ADD JUMPDEST DUP3 DUP2 GT ISZERO PUSH2 0x10E0 JUMPI DUP3 MLOAD DUP3 SSTORE SWAP2 PUSH1 0x20 ADD SWAP2 SWAP1 PUSH1 0x1 ADD SWAP1 PUSH2 0x10C5 JUMP JUMPDEST JUMPDEST POP SWAP1 POP PUSH2 0x10EE SWAP2 SWAP1 PUSH2 0x10F2 JUMP JUMPDEST POP SWAP1 JUMP JUMPDEST JUMPDEST DUP1 DUP3 GT ISZERO PUSH2 0x110B JUMPI PUSH1 0x0 DUP2 PUSH1 0x0 SWAP1 SSTORE POP PUSH1 0x1 ADD PUSH2 0x10F3 JUMP JUMPDEST POP SWAP1 JUMP JUMPDEST PUSH1 0x0 PUSH2 0x1122 PUSH2 0x111D DUP5 PUSH2 0x166B JUMP JUMPDEST PUSH2 0x1646 JUMP JUMPDEST SWAP1 POP DUP3 DUP2 MSTORE PUSH1 0x20 DUP2 ADD DUP5 DUP5 DUP5 ADD GT ISZERO PUSH2 0x113E JUMPI PUSH2 0x113D PUSH2 0x197A JUMP JUMPDEST JUMPDEST PUSH2 0x1149 DUP5 DUP3 DUP6 PUSH2 0x17CB JUMP JUMPDEST POP SWAP4 SWAP3 POP POP POP JUMP JUMPDEST PUSH1 0x0 DUP2 CALLDATALOAD SWAP1 POP PUSH2 0x1160 DUP2 PUSH2 0x1AC7 JUMP JUMPDEST SWAP3 SWAP2 POP POP JUMP JUMPDEST PUSH1 0x0 DUP2 CALLDATALOAD SWAP1 POP PUSH2 0x1175 DUP2 PUSH2 0x1ADE JUMP JUMPDEST SWAP3 SWAP2 POP POP JUMP JUMPDEST PUSH1 0x0 DUP3 PUSH1 0x1F DUP4 ADD SLT PUSH2 0x1190 JUMPI PUSH2 0x118F PUSH2 0x1975 JUMP JUMPDEST JUMPDEST DUP2 CALLDATALOAD PUSH2 0x11A0 DUP5 DUP3 PUSH1 0x20 DUP7 ADD PUSH2 0x110F JUMP JUMPDEST SWAP2 POP POP SWAP3 SWAP2 POP POP JUMP JUMPDEST PUSH1 0x0 DUP2 CALLDATALOAD SWAP1 POP PUSH2 0x11B8 DUP2 PUSH2 0x1AF5 JUMP JUMPDEST SWAP3 SWAP2 POP POP JUMP JUMPDEST PUSH1 0x0 PUSH1 0x20 DUP3 DUP5 SUB SLT ISZERO PUSH2 0x11D4 JUMPI PUSH2 0x11D3 PUSH2 0x1984 JUMP JUMPDEST JUMPDEST PUSH1 0x0 PUSH2 0x11E2 DUP5 DUP3 DUP6 ADD PUSH2 0x1151 JUMP JUMPDEST SWAP2 POP POP SWAP3 SWAP2 POP POP JUMP JUMPDEST PUSH1 0x0 PUSH1 0x20 DUP3 DUP5 SUB SLT ISZERO PUSH2 0x1201 JUMPI PUSH2 0x1200 PUSH2 0x1984 JUMP JUMPDEST JUMPDEST PUSH1 0x0 DUP3 ADD CALLDATALOAD PUSH8 0xFFFFFFFFFFFFFFFF DUP2 GT ISZERO PUSH2 0x121F JUMPI PUSH2 0x121E PUSH2 0x197F JUMP JUMPDEST JUMPDEST PUSH2 0x122B DUP5 DUP3 DUP6 ADD PUSH2 0x117B JUMP JUMPDEST SWAP2 POP POP SWAP3 SWAP2 POP POP JUMP JUMPDEST PUSH1 0x0 DUP1 PUSH1 0x40 DUP4 DUP6 SUB SLT ISZERO PUSH2 0x124B JUMPI PUSH2 0x124A PUSH2 0x1984 JUMP JUMPDEST JUMPDEST PUSH1 0x0 DUP4 ADD CALLDATALOAD PUSH8 0xFFFFFFFFFFFFFFFF DUP2 GT ISZERO PUSH2 0x1269 JUMPI PUSH2 0x1268 PUSH2 0x197F JUMP JUMPDEST JUMPDEST PUSH2 0x1275 DUP6 DUP3 DUP7 ADD PUSH2 0x117B JUMP JUMPDEST SWAP3 POP POP PUSH1 0x20 DUP4 ADD CALLDATALOAD PUSH8 0xFFFFFFFFFFFFFFFF DUP2 GT ISZERO PUSH2 0x1296 JUMPI PUSH2 0x1295 PUSH2 0x197F JUMP JUMPDEST JUMPDEST PUSH2 0x12A2 DUP6 DUP3 DUP7 ADD PUSH2 0x117B JUMP JUMPDEST SWAP2 POP POP SWAP3 POP SWAP3 SWAP1 POP JUMP JUMPDEST PUSH1 0x0 PUSH1 0x20 DUP3 DUP5 SUB SLT ISZERO PUSH2 0x12C2 JUMPI PUSH2 0x12C1 PUSH2 0x1984 JUMP JUMPDEST JUMPDEST PUSH1 0x0 PUSH2 0x12D0 DUP5 DUP3 DUP6 ADD PUSH2 0x11A9 JUMP JUMPDEST SWAP2 POP POP SWAP3 SWAP2 POP POP JUMP JUMPDEST PUSH1 0x0 DUP1 PUSH1 0x40 DUP4 DUP6 SUB SLT ISZERO PUSH2 0x12F0 JUMPI PUSH2 0x12EF PUSH2 0x1984 JUMP JUMPDEST JUMPDEST PUSH1 0x0 PUSH2 0x12FE DUP6 DUP3 DUP7 ADD PUSH2 0x11A9 JUMP JUMPDEST SWAP3 POP POP PUSH1 0x20 PUSH2 0x130F DUP6 DUP3 DUP7 ADD PUSH2 0x1166 JUMP JUMPDEST SWAP2 POP POP SWAP3 POP SWAP3 SWAP1 POP JUMP JUMPDEST PUSH2 0x1322 DUP2 PUSH2 0x175E JUMP JUMPDEST DUP3 MSTORE POP POP JUMP JUMPDEST PUSH2 0x1331 DUP2 PUSH2 0x175E JUMP JUMPDEST DUP3 MSTORE POP POP JUMP JUMPDEST PUSH2 0x1340 DUP2 PUSH2 0x1770 JUMP JUMPDEST DUP3 MSTORE POP POP JUMP JUMPDEST PUSH2 0x134F DUP2 PUSH2 0x1770 JUMP JUMPDEST DUP3 MSTORE POP POP JUMP JUMPDEST PUSH2 0x135E DUP2 PUSH2 0x17B9 JUMP JUMPDEST DUP3 MSTORE POP POP JUMP JUMPDEST PUSH1 0x0 PUSH2 0x136F DUP3 PUSH2 0x169C JUMP JUMPDEST PUSH2 0x1379 DUP2 DUP6 PUSH2 0x16A7 JUMP JUMPDEST SWAP4 POP PUSH2 0x1389 DUP2 DUP6 PUSH1 0x20 DUP7 ADD PUSH2 0x17DA JUMP JUMPDEST PUSH2 0x1392 DUP2 PUSH2 0x1989 JUMP JUMPDEST DUP5 ADD SWAP2 POP POP SWAP3 SWAP2 POP POP JUMP JUMPDEST PUSH1 0x0 PUSH2 0x13A8 DUP3 PUSH2 0x169C JUMP JUMPDEST PUSH2 0x13B2 DUP2 DUP6 PUSH2 0x16C9 JUMP JUMPDEST SWAP4 POP PUSH2 0x13C2 DUP2 DUP6 PUSH1 0x20 DUP7 ADD PUSH2 0x17DA JUMP JUMPDEST DUP1 DUP5 ADD SWAP2 POP POP SWAP3 SWAP2 POP POP JUMP JUMPDEST PUSH1 0x0 PUSH2 0x13DB PUSH1 0x1B DUP4 PUSH2 0x16B8 JUMP JUMPDEST SWAP2 POP PUSH2 0x13E6 DUP3 PUSH2 0x199A JUMP JUMPDEST PUSH1 0x20 DUP3 ADD SWAP1 POP SWAP2 SWAP1 POP JUMP JUMPDEST PUSH1 0x0 PUSH2 0x13FE PUSH1 0x26 DUP4 PUSH2 0x16B8 JUMP JUMPDEST SWAP2 POP PUSH2 0x1409 DUP3 PUSH2 0x19C3 JUMP JUMPDEST PUSH1 0x40 DUP3 ADD SWAP1 POP SWAP2 SWAP1 POP JUMP JUMPDEST PUSH1 0x0 PUSH2 0x1421 PUSH1 0x1F DUP4 PUSH2 0x16B8 JUMP JUMPDEST SWAP2 POP PUSH2 0x142C DUP3 PUSH2 0x1A12 JUMP JUMPDEST PUSH1 0x20 DUP3 ADD SWAP1 POP SWAP2 SWAP1 POP JUMP JUMPDEST PUSH1 0x0 PUSH2 0x1444 PUSH1 0x2F DUP4 PUSH2 0x16B8 JUMP JUMPDEST SWAP2 POP PUSH2 0x144F DUP3 PUSH2 0x1A3B JUMP JUMPDEST PUSH1 0x40 DUP3 ADD SWAP1 POP SWAP2 SWAP1 POP JUMP JUMPDEST PUSH1 0x0 PUSH2 0x1467 PUSH1 0x20 DUP4 PUSH2 0x16B8 JUMP JUMPDEST SWAP2 POP PUSH2 0x1472 DUP3 PUSH2 0x1A8A JUMP JUMPDEST PUSH1 0x20 DUP3 ADD SWAP1 POP SWAP2 SWAP1 POP JUMP JUMPDEST PUSH1 0x0 PUSH1 0xC0 DUP4 ADD PUSH1 0x0 DUP4 ADD MLOAD PUSH2 0x1495 PUSH1 0x0 DUP7 ADD DUP3 PUSH2 0x1355 JUMP JUMPDEST POP PUSH1 0x20 DUP4 ADD MLOAD DUP5 DUP3 SUB PUSH1 0x20 DUP7 ADD MSTORE PUSH2 0x14AD DUP3 DUP3 PUSH2 0x1364 JUMP JUMPDEST SWAP2 POP POP PUSH1 0x40 DUP4 ADD MLOAD DUP5 DUP3 SUB PUSH1 0x40 DUP7 ADD MSTORE PUSH2 0x14C7 DUP3 DUP3 PUSH2 0x1364 JUMP JUMPDEST SWAP2 POP POP PUSH1 0x60 DUP4 ADD MLOAD PUSH2 0x14DC PUSH1 0x60 DUP7 ADD DUP3 PUSH2 0x1337 JUMP JUMPDEST POP PUSH1 0x80 DUP4 ADD MLOAD PUSH2 0x14EF PUSH1 0x80 DUP7 ADD DUP3 PUSH2 0x1337 JUMP JUMPDEST POP PUSH1 0xA0 DUP4 ADD MLOAD PUSH2 0x1502 PUSH1 0xA0 DUP7 ADD DUP3 PUSH2 0x1319 JUMP JUMPDEST POP DUP1 SWAP2 POP POP SWAP3 SWAP2 POP POP JUMP JUMPDEST PUSH2 0x1516 DUP2 PUSH2 0x17AF JUMP JUMPDEST DUP3 MSTORE POP POP JUMP JUMPDEST PUSH1 0x0 PUSH2 0x1528 DUP3 DUP5 PUSH2 0x139D JUMP JUMPDEST SWAP2 POP DUP2 SWAP1 POP SWAP3 SWAP2 POP POP JUMP JUMPDEST PUSH1 0x0 PUSH1 0x20 DUP3 ADD SWAP1 POP PUSH2 0x1548 PUSH1 0x0 DUP4 ADD DUP5 PUSH2 0x1328 JUMP JUMPDEST SWAP3 SWAP2 POP POP JUMP JUMPDEST PUSH1 0x0 PUSH1 0x20 DUP3 ADD SWAP1 POP PUSH2 0x1563 PUSH1 0x0 DUP4 ADD DUP5 PUSH2 0x1346 JUMP JUMPDEST SWAP3 SWAP2 POP POP JUMP JUMPDEST PUSH1 0x0 PUSH1 0x20 DUP3 ADD SWAP1 POP DUP2 DUP2 SUB PUSH1 0x0 DUP4 ADD MSTORE PUSH2 0x1582 DUP2 PUSH2 0x13CE JUMP JUMPDEST SWAP1 POP SWAP2 SWAP1 POP JUMP JUMPDEST PUSH1 0x0 PUSH1 0x20 DUP3 ADD SWAP1 POP DUP2 DUP2 SUB PUSH1 0x0 DUP4 ADD MSTORE PUSH2 0x15A2 DUP2 PUSH2 0x13F1 JUMP JUMPDEST SWAP1 POP SWAP2 SWAP1 POP JUMP JUMPDEST PUSH1 0x0 PUSH1 0x20 DUP3 ADD SWAP1 POP DUP2 DUP2 SUB PUSH1 0x0 DUP4 ADD MSTORE PUSH2 0x15C2 DUP2 PUSH2 0x1414 JUMP JUMPDEST SWAP1 POP SWAP2 SWAP1 POP JUMP JUMPDEST PUSH1 0x0 PUSH1 0x20 DUP3 ADD SWAP1 POP DUP2 DUP2 SUB PUSH1 0x0 DUP4 ADD MSTORE PUSH2 0x15E2 DUP2 PUSH2 0x1437 JUMP JUMPDEST SWAP1 POP SWAP2 SWAP1 POP JUMP JUMPDEST PUSH1 0x0 PUSH1 0x20 DUP3 ADD SWAP1 POP DUP2 DUP2 SUB PUSH1 0x0 DUP4 ADD MSTORE PUSH2 0x1602 DUP2 PUSH2 0x145A JUMP JUMPDEST SWAP1 POP SWAP2 SWAP1 POP JUMP JUMPDEST PUSH1 0x0 PUSH1 0x20 DUP3 ADD SWAP1 POP DUP2 DUP2 SUB PUSH1 0x0 DUP4 ADD MSTORE PUSH2 0x1623 DUP2 DUP5 PUSH2 0x147D JUMP JUMPDEST SWAP1 POP SWAP3 SWAP2 POP POP JUMP JUMPDEST PUSH1 0x0 PUSH1 0x20 DUP3 ADD SWAP1 POP PUSH2 0x1640 PUSH1 0x0 DUP4 ADD DUP5 PUSH2 0x150D JUMP JUMPDEST SWAP3 SWAP2 POP POP JUMP JUMPDEST PUSH1 0x0 PUSH2 0x1650 PUSH2 0x1661 JUMP JUMPDEST SWAP1 POP PUSH2 0x165C DUP3 DUP3 PUSH2 0x183F JUMP JUMPDEST SWAP2 SWAP1 POP JUMP JUMPDEST PUSH1 0x0 PUSH1 0x40 MLOAD SWAP1 POP SWAP1 JUMP JUMPDEST PUSH1 0x0 PUSH8 0xFFFFFFFFFFFFFFFF DUP3 GT ISZERO PUSH2 0x1686 JUMPI PUSH2 0x1685 PUSH2 0x1946 JUMP JUMPDEST JUMPDEST PUSH2 0x168F DUP3 PUSH2 0x1989 JUMP JUMPDEST SWAP1 POP PUSH1 0x20 DUP2 ADD SWAP1 POP SWAP2 SWAP1 POP JUMP JUMPDEST PUSH1 0x0 DUP2 MLOAD SWAP1 POP SWAP2 SWAP1 POP JUMP JUMPDEST PUSH1 0x0 DUP3 DUP3 MSTORE PUSH1 0x20 DUP3 ADD SWAP1 POP SWAP3 SWAP2 POP POP JUMP JUMPDEST PUSH1 0x0 DUP3 DUP3 MSTORE PUSH1 0x20 DUP3 ADD SWAP1 POP SWAP3 SWAP2 POP POP JUMP JUMPDEST PUSH1 0x0 DUP2 SWAP1 POP SWAP3 SWAP2 POP POP JUMP JUMPDEST PUSH1 0x0 PUSH2 0x16DF DUP3 PUSH2 0x17AF JUMP JUMPDEST SWAP2 POP PUSH2 0x16EA DUP4 PUSH2 0x17AF JUMP JUMPDEST SWAP3 POP DUP3 PUSH32 0xFFFFFFFFFFFFFFFFFFFFFFFFFFFFFFFFFFFFFFFFFFFFFFFFFFFFFFFFFFFFFFFF SUB DUP3 GT ISZERO PUSH2 0x171F JUMPI PUSH2 0x171E PUSH2 0x18B9 JUMP JUMPDEST JUMPDEST DUP3 DUP3 ADD SWAP1 POP SWAP3 SWAP2 POP POP JUMP JUMPDEST PUSH1 0x0 PUSH2 0x1735 DUP3 PUSH2 0x17AF JUMP JUMPDEST SWAP2 POP PUSH2 0x1740 DUP4 PUSH2 0x17AF JUMP JUMPDEST SWAP3 POP DUP3 DUP3 LT ISZERO PUSH2 0x1753 JUMPI PUSH2 0x1752 PUSH2 0x18B9 JUMP JUMPDEST JUMPDEST DUP3 DUP3 SUB SWAP1 POP SWAP3 SWAP2 POP POP JUMP JUMPDEST PUSH1 0x0 PUSH2 0x1769 DUP3 PUSH2 0x178F JUMP JUMPDEST SWAP1 POP SWAP2 SWAP1 POP JUMP JUMPDEST PUSH1 0x0 DUP2 ISZERO ISZERO SWAP1 POP SWAP2 SWAP1 POP JUMP JUMPDEST PUSH1 0x0 DUP2 SWAP1 POP PUSH2 0x178A DUP3 PUSH2 0x1AB3 JUMP JUMPDEST SWAP2 SWAP1 POP JUMP JUMPDEST PUSH1 0x0 PUSH20 0xFFFFFFFFFFFFFFFFFFFFFFFFFFFFFFFFFFFFFFFF DUP3 AND SWAP1 POP SWAP2 SWAP1 POP JUMP JUMPDEST PUSH1 0x0 DUP2 SWAP1 POP SWAP2 SWAP1 POP JUMP JUMPDEST PUSH1 0x0 PUSH2 0x17C4 DUP3 PUSH2 0x177C JUMP JUMPDEST SWAP1 POP SWAP2 SWAP1 POP JUMP JUMPDEST DUP3 DUP2 DUP4 CALLDATACOPY PUSH1 0x0 DUP4 DUP4 ADD MSTORE POP POP POP JUMP JUMPDEST PUSH1 0x0 JUMPDEST DUP4 DUP2 LT ISZERO PUSH2 0x17F8 JUMPI DUP1 DUP3 ADD MLOAD DUP2 DUP5 ADD MSTORE PUSH1 0x20 DUP2 ADD SWAP1 POP PUSH2 0x17DD JUMP JUMPDEST DUP4 DUP2 GT ISZERO PUSH2 0x1807 JUMPI PUSH1 0x0 DUP5 DUP5 ADD MSTORE JUMPDEST POP POP POP POP JUMP JUMPDEST PUSH1 0x0 PUSH1 0x2 DUP3 DIV SWAP1 POP PUSH1 0x1 DUP3 AND DUP1 PUSH2 0x1825 JUMPI PUSH1 0x7F DUP3 AND SWAP2 POP JUMPDEST PUSH1 0x20 DUP3 LT DUP2 EQ ISZERO PUSH2 0x1839 JUMPI PUSH2 0x1838 PUSH2 0x1917 JUMP JUMPDEST JUMPDEST POP SWAP2 SWAP1 POP JUMP JUMPDEST PUSH2 0x1848 DUP3 PUSH2 0x1989 JUMP JUMPDEST DUP2 ADD DUP2 DUP2 LT PUSH8 0xFFFFFFFFFFFFFFFF DUP3 GT OR ISZERO PUSH2 0x1867 JUMPI PUSH2 0x1866 PUSH2 0x1946 JUMP JUMPDEST JUMPDEST DUP1 PUSH1 0x40 MSTORE POP POP POP JUMP JUMPDEST PUSH1 0x0 PUSH2 0x187B DUP3 PUSH2 0x17AF JUMP JUMPDEST SWAP2 POP PUSH32 0xFFFFFFFFFFFFFFFFFFFFFFFFFFFFFFFFFFFFFFFFFFFFFFFFFFFFFFFFFFFFFFFF DUP3 EQ ISZERO PUSH2 0x18AE JUMPI PUSH2 0x18AD PUSH2 0x18B9 JUMP JUMPDEST JUMPDEST PUSH1 0x1 DUP3 ADD SWAP1 POP SWAP2 SWAP1 POP JUMP JUMPDEST PUSH32 0x4E487B7100000000000000000000000000000000000000000000000000000000 PUSH1 0x0 MSTORE PUSH1 0x11 PUSH1 0x4 MSTORE PUSH1 0x24 PUSH1 0x0 REVERT JUMPDEST PUSH32 0x4E487B7100000000000000000000000000000000000000000000000000000000 PUSH1 0x0 MSTORE PUSH1 0x21 PUSH1 0x4 MSTORE PUSH1 0x24 PUSH1 0x0 REVERT JUMPDEST PUSH32 0x4E487B7100000000000000000000000000000000000000000000000000000000 PUSH1 0x0 MSTORE PUSH1 0x22 PUSH1 0x4 MSTORE PUSH1 0x24 PUSH1 0x0 REVERT JUMPDEST PUSH32 0x4E487B7100000000000000000000000000000000000000000000000000000000 PUSH1 0x0 MSTORE PUSH1 0x41 PUSH1 0x4 MSTORE PUSH1 0x24 PUSH1 0x0 REVERT JUMPDEST PUSH1 0x0 DUP1 REVERT JUMPDEST PUSH1 0x0 DUP1 REVERT JUMPDEST PUSH1 0x0 DUP1 REVERT JUMPDEST PUSH1 0x0 DUP1 REVERT JUMPDEST PUSH1 0x0 PUSH1 0x1F NOT PUSH1 0x1F DUP4 ADD AND SWAP1 POP SWAP2 SWAP1 POP JUMP JUMPDEST PUSH32 0x54686973204944206F66204E465420646F6E2774206578697374730000000000 PUSH1 0x0 DUP3 ADD MSTORE POP JUMP JUMPDEST PUSH32 0x4F776E61626C653A206E6577206F776E657220697320746865207A65726F2061 PUSH1 0x0 DUP3 ADD MSTORE PUSH32 0x6464726573730000000000000000000000000000000000000000000000000000 PUSH1 0x20 DUP3 ADD MSTORE POP JUMP JUMPDEST PUSH32 0x556E61626C6520746F207265706561742074686520646574656374696F6E2100 PUSH1 0x0 DUP3 ADD MSTORE POP JUMP JUMPDEST PUSH32 0x546865204E465420646F6573206E6F74206D6565742074686520646574656374 PUSH1 0x0 DUP3 ADD MSTORE PUSH32 0x696F6E20636F6E646974696F6E73210000000000000000000000000000000000 PUSH1 0x20 DUP3 ADD MSTORE POP JUMP JUMPDEST PUSH32 0x4F776E61626C653A2063616C6C6572206973206E6F7420746865206F776E6572 PUSH1 0x0 DUP3 ADD MSTORE POP JUMP JUMPDEST PUSH1 0x2 DUP2 LT PUSH2 0x1AC4 JUMPI PUSH2 0x1AC3 PUSH2 0x18E8 JUMP JUMPDEST JUMPDEST POP JUMP JUMPDEST PUSH2 0x1AD0 DUP2 PUSH2 0x175E JUMP JUMPDEST DUP2 EQ PUSH2 0x1ADB JUMPI PUSH1 0x0 DUP1 REVERT JUMPDEST POP JUMP JUMPDEST PUSH2 0x1AE7 DUP2 PUSH2 0x1770 JUMP JUMPDEST DUP2 EQ PUSH2 0x1AF2 JUMPI PUSH1 0x0 DUP1 REVERT JUMPDEST POP JUMP JUMPDEST PUSH2 0x1AFE DUP2 PUSH2 0x17AF JUMP JUMPDEST DUP2 EQ PUSH2 0x1B09 JUMPI PUSH1 0x0 DUP1 REVERT JUMPDEST POP JUMP INVALID LOG2 PUSH5 0x6970667358 0x22 SLT KECCAK256 SUB 0xF9 PUSH10 0x67AB1CD7B8CBDD84AD6F 0x4E SWAP9 0xC1 SWAP11 SWAP7 0x4A 0x1E 0xF7 LOG4 MLOAD 0x4E PUSH5 0xCC23E30DCB SUB PUSH24 0x64736F6C6343000807003300000000000000000000000000 "
				},
				"gasEstimates": {
					"creation": {
						"codeDepositCost": "1395600",
						"executionCost": "infinite",
						"totalCost": "infinite"
					},
					"external": {
						"ID()": "2451",
						"checkNFTByHash(string)": "infinite",
						"checkNFTByID(uint256)": "infinite",
						"checkNFTByIDDetail(uint256)": "infinite",
						"detectNFT(uint256,bool)": "84729",
						"owner()": "2522",
						"renounceOwnership()": "30441",
						"transferOwnership(address)": "30811",
						"uploadNFT(string,string)": "infinite"
					},
					"internal": {
						"compareStrings(string memory,string memory)": "infinite",
						"hashIsExists(string memory)": "infinite",
						"ipfsIsExists(string memory)": "infinite"
					}
				},
				"methodIdentifiers": {
					"ID()": "b3cea217",
					"checkNFTByHash(string)": "d0aeae96",
					"checkNFTByID(uint256)": "b5e3029f",
					"checkNFTByIDDetail(uint256)": "138f0727",
					"detectNFT(uint256,bool)": "1c5a3e52",
					"owner()": "8da5cb5b",
					"renounceOwnership()": "715018a6",
					"transferOwnership(address)": "f2fde38b",
					"uploadNFT(string,string)": "3a4f2d24"
				}
			},
			"userdoc": {
				"kind": "user",
				"methods": {},
				"version": 1
			}
		}
	}
}