{
	"contracts/oracle.sol": {
		"NFTOracle": {
			"abi": [
				{
					"inputs": [],
					"stateMutability": "nonpayable",
					"type": "constructor"
				},
				{
					"inputs": [],
					"name": "ID",
					"outputs": [
						{
							"internalType": "uint256",
							"name": "",
							"type": "uint256"
						}
					],
					"stateMutability": "view",
					"type": "function"
				},
				{
					"inputs": [
						{
							"internalType": "string",
							"name": "_hash",
							"type": "string"
						}
					],
					"name": "checkNFTByHash",
					"outputs": [
						{
							"internalType": "bool",
							"name": "",
							"type": "bool"
						}
					],
					"stateMutability": "view",
					"type": "function"
				},
				{
					"inputs": [
						{
							"internalType": "uint256",
							"name": "_ID",
							"type": "uint256"
						}
					],
					"name": "checkNFTByID",
					"outputs": [
						{
							"internalType": "bool",
							"name": "",
							"type": "bool"
						}
					],
					"stateMutability": "view",
					"type": "function"
				},
				{
					"inputs": [
						{
							"internalType": "uint256",
							"name": "_ID",
							"type": "uint256"
						},
						{
							"internalType": "bool",
							"name": "_result",
							"type": "bool"
						}
					],
					"name": "detectNFT",
					"outputs": [],
					"stateMutability": "nonpayable",
					"type": "function"
				},
				{
					"inputs": [
						{
							"internalType": "string",
							"name": "_hash",
							"type": "string"
						},
						{
							"internalType": "string",
							"name": "_ipfs",
							"type": "string"
						}
					],
					"name": "uploadNFT",
					"outputs": [
						{
							"internalType": "uint256",
							"name": "",
							"type": "uint256"
						}
					],
					"stateMutability": "nonpayable",
					"type": "function"
				}
			],
			"devdoc": {
				"kind": "dev",
				"methods": {},
				"version": 1
			},
			"evm": {
				"assembly": "    /* \"contracts/oracle.sol\":74:2961  contract NFTOracle  {\r... */\n  mstore(0x40, 0x80)\n    /* \"contracts/oracle.sol\":546:547  0 */\n  0x00\n    /* \"contracts/oracle.sol\":529:547  uint public ID = 0 */\n  0x01\n  sstore\n    /* \"contracts/oracle.sol\":168:219  constructor ()  {\r... */\n  callvalue\n  dup1\n  iszero\n  tag_1\n  jumpi\n  0x00\n  dup1\n  revert\ntag_1:\n  pop\n    /* \"contracts/oracle.sol\":202:212  msg.sender */\n  caller\n    /* \"contracts/oracle.sol\":194:199  owner */\n  0x00\n  dup1\n    /* \"contracts/oracle.sol\":194:212  owner = msg.sender */\n  0x0100\n  exp\n  dup2\n  sload\n  dup2\n  0xffffffffffffffffffffffffffffffffffffffff\n  mul\n  not\n  and\n  swap1\n  dup4\n  0xffffffffffffffffffffffffffffffffffffffff\n  and\n  mul\n  or\n  swap1\n  sstore\n  pop\n    /* \"contracts/oracle.sol\":74:2961  contract NFTOracle  {\r... */\n  dataSize(sub_0)\n  dup1\n  dataOffset(sub_0)\n  0x00\n  codecopy\n  0x00\n  return\nstop\n\nsub_0: assembly {\n        /* \"contracts/oracle.sol\":74:2961  contract NFTOracle  {\r... */\n      mstore(0x40, 0x80)\n      callvalue\n      dup1\n      iszero\n      tag_1\n      jumpi\n      0x00\n      dup1\n      revert\n    tag_1:\n      pop\n      jumpi(tag_2, lt(calldatasize, 0x04))\n      shr(0xe0, calldataload(0x00))\n      dup1\n      0x1c5a3e52\n      eq\n      tag_3\n      jumpi\n      dup1\n      0x3a4f2d24\n      eq\n      tag_4\n      jumpi\n      dup1\n      0xb3cea217\n      eq\n      tag_5\n      jumpi\n      dup1\n      0xb5e3029f\n      eq\n      tag_6\n      jumpi\n      dup1\n      0xd0aeae96\n      eq\n      tag_7\n      jumpi\n    tag_2:\n      0x00\n      dup1\n      revert\n        /* \"contracts/oracle.sol\":1794:2177  function detectNFT(uint _ID,bool _result) public {\r... */\n    tag_3:\n      tag_8\n      0x04\n      dup1\n      calldatasize\n      sub\n      dup2\n      add\n      swap1\n      tag_9\n      swap2\n      swap1\n      tag_10\n      jump\t// in\n    tag_9:\n      tag_11\n      jump\t// in\n    tag_8:\n      stop\n        /* \"contracts/oracle.sol\":1321:1757  function uploadNFT(string memory _hash,string memory _ipfs)  public returns(uint256){\r... */\n    tag_4:\n      tag_12\n      0x04\n      dup1\n      calldatasize\n      sub\n      dup2\n      add\n      swap1\n      tag_13\n      swap2\n      swap1\n      tag_14\n      jump\t// in\n    tag_13:\n      tag_15\n      jump\t// in\n    tag_12:\n      mload(0x40)\n      tag_16\n      swap2\n      swap1\n      tag_17\n      jump\t// in\n    tag_16:\n      mload(0x40)\n      dup1\n      swap2\n      sub\n      swap1\n      return\n        /* \"contracts/oracle.sol\":529:547  uint public ID = 0 */\n    tag_5:\n      tag_18\n      tag_19\n      jump\t// in\n    tag_18:\n      mload(0x40)\n      tag_20\n      swap2\n      swap1\n      tag_17\n      jump\t// in\n    tag_20:\n      mload(0x40)\n      dup1\n      swap2\n      sub\n      swap1\n      return\n        /* \"contracts/oracle.sol\":1036:1295  function checkNFTByID(uint _ID) public view returns(bool) {\r... */\n    tag_6:\n      tag_21\n      0x04\n      dup1\n      calldatasize\n      sub\n      dup2\n      add\n      swap1\n      tag_22\n      swap2\n      swap1\n      tag_23\n      jump\t// in\n    tag_22:\n      tag_24\n      jump\t// in\n    tag_21:\n      mload(0x40)\n      tag_25\n      swap2\n      swap1\n      tag_26\n      jump\t// in\n    tag_25:\n      mload(0x40)\n      dup1\n      swap2\n      sub\n      swap1\n      return\n        /* \"contracts/oracle.sol\":700:964  function checkNFTByHash(string memory _hash) public view returns(bool) {\r... */\n    tag_7:\n      tag_27\n      0x04\n      dup1\n      calldatasize\n      sub\n      dup2\n      add\n      swap1\n      tag_28\n      swap2\n      swap1\n      tag_29\n      jump\t// in\n    tag_28:\n      tag_30\n      jump\t// in\n    tag_27:\n      mload(0x40)\n      tag_31\n      swap2\n      swap1\n      tag_26\n      jump\t// in\n    tag_31:\n      mload(0x40)\n      dup1\n      swap2\n      sub\n      swap1\n      return\n        /* \"contracts/oracle.sol\":1794:2177  function detectNFT(uint _ID,bool _result) public {\r... */\n    tag_11:\n        /* \"contracts/oracle.sol\":1876:1881  owner */\n      0x00\n      dup1\n      sload\n      swap1\n      0x0100\n      exp\n      swap1\n      div\n      0xffffffffffffffffffffffffffffffffffffffff\n      and\n        /* \"contracts/oracle.sol\":1862:1881  msg.sender == owner */\n      0xffffffffffffffffffffffffffffffffffffffff\n      and\n        /* \"contracts/oracle.sol\":1862:1872  msg.sender */\n      caller\n        /* \"contracts/oracle.sol\":1862:1881  msg.sender == owner */\n      0xffffffffffffffffffffffffffffffffffffffff\n      and\n      eq\n        /* \"contracts/oracle.sol\":1854:1915  require(msg.sender == owner,\"Only owner can detect the NFT!\") */\n      tag_33\n      jumpi\n      mload(0x40)\n      0x08c379a000000000000000000000000000000000000000000000000000000000\n      dup2\n      mstore\n      0x04\n      add\n      tag_34\n      swap1\n      tag_35\n      jump\t// in\n    tag_34:\n      mload(0x40)\n      dup1\n      swap2\n      sub\n      swap1\n      revert\n    tag_33:\n        /* \"contracts/oracle.sol\":1956:1961  false */\n      0x00\n        /* \"contracts/oracle.sol\":1934:1961  nfts[_ID].isDetected==false */\n      iszero\n      iszero\n        /* \"contracts/oracle.sol\":1934:1938  nfts */\n      0x02\n        /* \"contracts/oracle.sol\":1934:1943  nfts[_ID] */\n      0x00\n        /* \"contracts/oracle.sol\":1939:1942  _ID */\n      dup5\n        /* \"contracts/oracle.sol\":1934:1943  nfts[_ID] */\n      dup2\n      mstore\n      0x20\n      add\n      swap1\n      dup2\n      mstore\n      0x20\n      add\n      0x00\n      keccak256\n        /* \"contracts/oracle.sol\":1934:1954  nfts[_ID].isDetected */\n      0x03\n      add\n      0x00\n      swap1\n      sload\n      swap1\n      0x0100\n      exp\n      swap1\n      div\n      0xff\n      and\n        /* \"contracts/oracle.sol\":1934:1961  nfts[_ID].isDetected==false */\n      iszero\n      iszero\n      eq\n        /* \"contracts/oracle.sol\":1934:1999  nfts[_ID].isDetected==false&&nfts[_ID].state==NFTState.Undetected */\n      dup1\n      iszero\n      tag_36\n      jumpi\n      pop\n        /* \"contracts/oracle.sol\":1980:1999  NFTState.Undetected */\n      0x00\n        /* \"contracts/oracle.sol\":1963:1999  nfts[_ID].state==NFTState.Undetected */\n      0x01\n      dup2\n      gt\n      iszero\n      tag_37\n      jumpi\n      tag_38\n      tag_39\n      jump\t// in\n    tag_38:\n    tag_37:\n        /* \"contracts/oracle.sol\":1963:1967  nfts */\n      0x02\n        /* \"contracts/oracle.sol\":1963:1972  nfts[_ID] */\n      0x00\n        /* \"contracts/oracle.sol\":1968:1971  _ID */\n      dup5\n        /* \"contracts/oracle.sol\":1963:1972  nfts[_ID] */\n      dup2\n      mstore\n      0x20\n      add\n      swap1\n      dup2\n      mstore\n      0x20\n      add\n      0x00\n      keccak256\n        /* \"contracts/oracle.sol\":1963:1978  nfts[_ID].state */\n      0x00\n      add\n      0x00\n      swap1\n      sload\n      swap1\n      0x0100\n      exp\n      swap1\n      div\n      0xff\n      and\n        /* \"contracts/oracle.sol\":1963:1999  nfts[_ID].state==NFTState.Undetected */\n      0x01\n      dup2\n      gt\n      iszero\n      tag_40\n      jumpi\n      tag_41\n      tag_39\n      jump\t// in\n    tag_41:\n    tag_40:\n      eq\n        /* \"contracts/oracle.sol\":1934:1999  nfts[_ID].isDetected==false&&nfts[_ID].state==NFTState.Undetected */\n    tag_36:\n        /* \"contracts/oracle.sol\":1926:2050  require(nfts[_ID].isDetected==false&&nfts[_ID].state==NFTState.Undetected,\"The NFT does not meet the detection conditions!\") */\n      tag_42\n      jumpi\n      mload(0x40)\n      0x08c379a000000000000000000000000000000000000000000000000000000000\n      dup2\n      mstore\n      0x04\n      add\n      tag_43\n      swap1\n      tag_44\n      jump\t// in\n    tag_43:\n      mload(0x40)\n      dup1\n      swap2\n      sub\n      swap1\n      revert\n    tag_42:\n        /* \"contracts/oracle.sol\":2080:2087  _result */\n      dup1\n        /* \"contracts/oracle.sol\":2061:2065  nfts */\n      0x02\n        /* \"contracts/oracle.sol\":2061:2070  nfts[_ID] */\n      0x00\n        /* \"contracts/oracle.sol\":2066:2069  _ID */\n      dup5\n        /* \"contracts/oracle.sol\":2061:2070  nfts[_ID] */\n      dup2\n      mstore\n      0x20\n      add\n      swap1\n      dup2\n      mstore\n      0x20\n      add\n      0x00\n      keccak256\n        /* \"contracts/oracle.sol\":2061:2077  nfts[_ID].result */\n      0x03\n      add\n      0x01\n        /* \"contracts/oracle.sol\":2061:2087  nfts[_ID].result = _result */\n      0x0100\n      exp\n      dup2\n      sload\n      dup2\n      0xff\n      mul\n      not\n      and\n      swap1\n      dup4\n      iszero\n      iszero\n      mul\n      or\n      swap1\n      sstore\n      pop\n        /* \"contracts/oracle.sol\":2120:2125  false */\n      0x00\n        /* \"contracts/oracle.sol\":2098:2102  nfts */\n      0x02\n        /* \"contracts/oracle.sol\":2098:2106  nfts[ID] */\n      0x00\n        /* \"contracts/oracle.sol\":2103:2105  ID */\n      sload(0x01)\n        /* \"contracts/oracle.sol\":2098:2106  nfts[ID] */\n      dup2\n      mstore\n      0x20\n      add\n      swap1\n      dup2\n      mstore\n      0x20\n      add\n      0x00\n      keccak256\n        /* \"contracts/oracle.sol\":2098:2117  nfts[ID].isDetected */\n      0x03\n      add\n      0x00\n        /* \"contracts/oracle.sol\":2098:2125  nfts[ID].isDetected = false */\n      0x0100\n      exp\n      dup2\n      sload\n      dup2\n      0xff\n      mul\n      not\n      and\n      swap1\n      dup4\n      iszero\n      iszero\n      mul\n      or\n      swap1\n      sstore\n      pop\n        /* \"contracts/oracle.sol\":2153:2170  NFTState.Detected */\n      0x01\n        /* \"contracts/oracle.sol\":2136:2140  nfts */\n      0x02\n        /* \"contracts/oracle.sol\":2136:2144  nfts[ID] */\n      0x00\n        /* \"contracts/oracle.sol\":2141:2143  ID */\n      sload(0x01)\n        /* \"contracts/oracle.sol\":2136:2144  nfts[ID] */\n      dup2\n      mstore\n      0x20\n      add\n      swap1\n      dup2\n      mstore\n      0x20\n      add\n      0x00\n      keccak256\n        /* \"contracts/oracle.sol\":2136:2150  nfts[ID].state */\n      0x00\n      add\n      0x00\n        /* \"contracts/oracle.sol\":2136:2170  nfts[ID].state = NFTState.Detected */\n      0x0100\n      exp\n      dup2\n      sload\n      dup2\n      0xff\n      mul\n      not\n      and\n      swap1\n      dup4\n      0x01\n      dup2\n      gt\n      iszero\n      tag_45\n      jumpi\n      tag_46\n      tag_39\n      jump\t// in\n    tag_46:\n    tag_45:\n      mul\n      or\n      swap1\n      sstore\n      pop\n        /* \"contracts/oracle.sol\":1794:2177  function detectNFT(uint _ID,bool _result) public {\r... */\n      pop\n      pop\n      jump\t// out\n        /* \"contracts/oracle.sol\":1321:1757  function uploadNFT(string memory _hash,string memory _ipfs)  public returns(uint256){\r... */\n    tag_15:\n        /* \"contracts/oracle.sol\":1397:1404  uint256 */\n      0x00\n        /* \"contracts/oracle.sol\":1423:1442  hashIsExists(_hash) */\n      tag_48\n        /* \"contracts/oracle.sol\":1436:1441  _hash */\n      dup4\n        /* \"contracts/oracle.sol\":1423:1435  hashIsExists */\n      tag_49\n        /* \"contracts/oracle.sol\":1423:1442  hashIsExists(_hash) */\n      jump\t// in\n    tag_48:\n        /* \"contracts/oracle.sol\":1423:1463  hashIsExists(_hash)&&ipfsIsExists(_ipfs) */\n      dup1\n      iszero\n      tag_50\n      jumpi\n      pop\n        /* \"contracts/oracle.sol\":1444:1463  ipfsIsExists(_ipfs) */\n      tag_51\n        /* \"contracts/oracle.sol\":1457:1462  _ipfs */\n      dup3\n        /* \"contracts/oracle.sol\":1444:1456  ipfsIsExists */\n      tag_52\n        /* \"contracts/oracle.sol\":1444:1463  ipfsIsExists(_ipfs) */\n      jump\t// in\n    tag_51:\n        /* \"contracts/oracle.sol\":1423:1463  hashIsExists(_hash)&&ipfsIsExists(_ipfs) */\n    tag_50:\n        /* \"contracts/oracle.sol\":1415:1498  require(hashIsExists(_hash)&&ipfsIsExists(_ipfs),\"Unable to repeat the detection!\") */\n      tag_53\n      jumpi\n      mload(0x40)\n      0x08c379a000000000000000000000000000000000000000000000000000000000\n      dup2\n      mstore\n      0x04\n      add\n      tag_54\n      swap1\n      tag_55\n      jump\t// in\n    tag_54:\n      mload(0x40)\n      dup1\n      swap2\n      sub\n      swap1\n      revert\n    tag_53:\n        /* \"contracts/oracle.sol\":1524:1529  _hash */\n      dup3\n        /* \"contracts/oracle.sol\":1508:1512  nfts */\n      0x02\n        /* \"contracts/oracle.sol\":1508:1516  nfts[ID] */\n      0x00\n        /* \"contracts/oracle.sol\":1513:1515  ID */\n      sload(0x01)\n        /* \"contracts/oracle.sol\":1508:1516  nfts[ID] */\n      dup2\n      mstore\n      0x20\n      add\n      swap1\n      dup2\n      mstore\n      0x20\n      add\n      0x00\n      keccak256\n        /* \"contracts/oracle.sol\":1508:1521  nfts[ID].hash */\n      0x01\n      add\n        /* \"contracts/oracle.sol\":1508:1529  nfts[ID].hash = _hash */\n      swap1\n      dup1\n      mload\n      swap1\n      0x20\n      add\n      swap1\n      tag_56\n      swap3\n      swap2\n      swap1\n      tag_57\n      jump\t// in\n    tag_56:\n      pop\n        /* \"contracts/oracle.sol\":1555:1560  _ipfs */\n      dup2\n        /* \"contracts/oracle.sol\":1539:1543  nfts */\n      0x02\n        /* \"contracts/oracle.sol\":1539:1547  nfts[ID] */\n      0x00\n        /* \"contracts/oracle.sol\":1544:1546  ID */\n      sload(0x01)\n        /* \"contracts/oracle.sol\":1539:1547  nfts[ID] */\n      dup2\n      mstore\n      0x20\n      add\n      swap1\n      dup2\n      mstore\n      0x20\n      add\n      0x00\n      keccak256\n        /* \"contracts/oracle.sol\":1539:1552  nfts[ID].IPFS */\n      0x02\n      add\n        /* \"contracts/oracle.sol\":1539:1560  nfts[ID].IPFS = _ipfs */\n      swap1\n      dup1\n      mload\n      swap1\n      0x20\n      add\n      swap1\n      tag_58\n      swap3\n      swap2\n      swap1\n      tag_57\n      jump\t// in\n    tag_58:\n      pop\n        /* \"contracts/oracle.sol\":1587:1606  NFTState.Undetected */\n      0x00\n        /* \"contracts/oracle.sol\":1570:1574  nfts */\n      0x02\n        /* \"contracts/oracle.sol\":1570:1578  nfts[ID] */\n      0x00\n        /* \"contracts/oracle.sol\":1575:1577  ID */\n      sload(0x01)\n        /* \"contracts/oracle.sol\":1570:1578  nfts[ID] */\n      dup2\n      mstore\n      0x20\n      add\n      swap1\n      dup2\n      mstore\n      0x20\n      add\n      0x00\n      keccak256\n        /* \"contracts/oracle.sol\":1570:1584  nfts[ID].state */\n      0x00\n      add\n      0x00\n        /* \"contracts/oracle.sol\":1570:1606  nfts[ID].state = NFTState.Undetected */\n      0x0100\n      exp\n      dup2\n      sload\n      dup2\n      0xff\n      mul\n      not\n      and\n      swap1\n      dup4\n      0x01\n      dup2\n      gt\n      iszero\n      tag_59\n      jumpi\n      tag_60\n      tag_39\n      jump\t// in\n    tag_60:\n    tag_59:\n      mul\n      or\n      swap1\n      sstore\n      pop\n        /* \"contracts/oracle.sol\":1639:1644  false */\n      0x00\n        /* \"contracts/oracle.sol\":1617:1621  nfts */\n      0x02\n        /* \"contracts/oracle.sol\":1617:1625  nfts[ID] */\n      0x00\n        /* \"contracts/oracle.sol\":1622:1624  ID */\n      sload(0x01)\n        /* \"contracts/oracle.sol\":1617:1625  nfts[ID] */\n      dup2\n      mstore\n      0x20\n      add\n      swap1\n      dup2\n      mstore\n      0x20\n      add\n      0x00\n      keccak256\n        /* \"contracts/oracle.sol\":1617:1636  nfts[ID].isDetected */\n      0x03\n      add\n      0x00\n        /* \"contracts/oracle.sol\":1617:1644  nfts[ID].isDetected = false */\n      0x0100\n      exp\n      dup2\n      sload\n      dup2\n      0xff\n      mul\n      not\n      and\n      swap1\n      dup4\n      iszero\n      iszero\n      mul\n      or\n      swap1\n      sstore\n      pop\n        /* \"contracts/oracle.sol\":1672:1677  false */\n      0x00\n        /* \"contracts/oracle.sol\":1654:1658  nfts */\n      0x02\n        /* \"contracts/oracle.sol\":1654:1662  nfts[ID] */\n      0x00\n        /* \"contracts/oracle.sol\":1659:1661  ID */\n      sload(0x01)\n        /* \"contracts/oracle.sol\":1654:1662  nfts[ID] */\n      dup2\n      mstore\n      0x20\n      add\n      swap1\n      dup2\n      mstore\n      0x20\n      add\n      0x00\n      keccak256\n        /* \"contracts/oracle.sol\":1654:1669  nfts[ID].result */\n      0x03\n      add\n      0x01\n        /* \"contracts/oracle.sol\":1654:1677  nfts[ID].result = false */\n      0x0100\n      exp\n      dup2\n      sload\n      dup2\n      0xff\n      mul\n      not\n      and\n      swap1\n      dup4\n      iszero\n      iszero\n      mul\n      or\n      swap1\n      sstore\n      pop\n        /* \"contracts/oracle.sol\":1707:1717  msg.sender */\n      caller\n        /* \"contracts/oracle.sol\":1687:1691  nfts */\n      0x02\n        /* \"contracts/oracle.sol\":1687:1695  nfts[ID] */\n      0x00\n        /* \"contracts/oracle.sol\":1692:1694  ID */\n      sload(0x01)\n        /* \"contracts/oracle.sol\":1687:1695  nfts[ID] */\n      dup2\n      mstore\n      0x20\n      add\n      swap1\n      dup2\n      mstore\n      0x20\n      add\n      0x00\n      keccak256\n        /* \"contracts/oracle.sol\":1687:1704  nfts[ID].uploader */\n      0x03\n      add\n      0x02\n        /* \"contracts/oracle.sol\":1687:1717  nfts[ID].uploader = msg.sender */\n      0x0100\n      exp\n      dup2\n      sload\n      dup2\n      0xffffffffffffffffffffffffffffffffffffffff\n      mul\n      not\n      and\n      swap1\n      dup4\n      0xffffffffffffffffffffffffffffffffffffffff\n      and\n      mul\n      or\n      swap1\n      sstore\n      pop\n        /* \"contracts/oracle.sol\":1727:1729  ID */\n      0x01\n      0x00\n        /* \"contracts/oracle.sol\":1727:1731  ID++ */\n      dup2\n      sload\n      dup1\n      swap3\n      swap2\n      swap1\n      tag_61\n      swap1\n      tag_62\n      jump\t// in\n    tag_61:\n      swap2\n      swap1\n      pop\n      sstore\n      pop\n        /* \"contracts/oracle.sol\":1748:1750  ID */\n      sload(0x01)\n        /* \"contracts/oracle.sol\":1741:1750  return ID */\n      swap1\n      pop\n        /* \"contracts/oracle.sol\":1321:1757  function uploadNFT(string memory _hash,string memory _ipfs)  public returns(uint256){\r... */\n      swap3\n      swap2\n      pop\n      pop\n      jump\t// out\n        /* \"contracts/oracle.sol\":529:547  uint public ID = 0 */\n    tag_19:\n      sload(0x01)\n      dup2\n      jump\t// out\n        /* \"contracts/oracle.sol\":1036:1295  function checkNFTByID(uint _ID) public view returns(bool) {\r... */\n    tag_24:\n        /* \"contracts/oracle.sol\":1088:1092  bool */\n      0x00\n        /* \"contracts/oracle.sol\":1126:1131  owner */\n      dup1\n      0x00\n      swap1\n      sload\n      swap1\n      0x0100\n      exp\n      swap1\n      div\n      0xffffffffffffffffffffffffffffffffffffffff\n      and\n        /* \"contracts/oracle.sol\":1112:1131  msg.sender == owner */\n      0xffffffffffffffffffffffffffffffffffffffff\n      and\n        /* \"contracts/oracle.sol\":1112:1122  msg.sender */\n      caller\n        /* \"contracts/oracle.sol\":1112:1131  msg.sender == owner */\n      0xffffffffffffffffffffffffffffffffffffffff\n      and\n      eq\n        /* \"contracts/oracle.sol\":1104:1170  require(msg.sender == owner,\"Only owner can check the NFT by ID!\") */\n      tag_64\n      jumpi\n      mload(0x40)\n      0x08c379a000000000000000000000000000000000000000000000000000000000\n      dup2\n      mstore\n      0x04\n      add\n      tag_65\n      swap1\n      tag_66\n      jump\t// in\n    tag_65:\n      mload(0x40)\n      dup1\n      swap2\n      sub\n      swap1\n      revert\n    tag_64:\n        /* \"contracts/oracle.sol\":1192:1194  ID */\n      sload(0x01)\n        /* \"contracts/oracle.sol\":1188:1191  _ID */\n      dup3\n        /* \"contracts/oracle.sol\":1188:1194  _ID<ID */\n      lt\n        /* \"contracts/oracle.sol\":1180:1225  require(_ID<ID,\"This ID of NFT don't exists\") */\n      tag_67\n      jumpi\n      mload(0x40)\n      0x08c379a000000000000000000000000000000000000000000000000000000000\n      dup2\n      mstore\n      0x04\n      add\n      tag_68\n      swap1\n      tag_69\n      jump\t// in\n    tag_68:\n      mload(0x40)\n      dup1\n      swap2\n      sub\n      swap1\n      revert\n    tag_67:\n        /* \"contracts/oracle.sol\":1235:1249  NFT memory nft */\n      0x00\n        /* \"contracts/oracle.sol\":1252:1256  nfts */\n      0x02\n        /* \"contracts/oracle.sol\":1252:1261  nfts[_ID] */\n      0x00\n        /* \"contracts/oracle.sol\":1257:1260  _ID */\n      dup5\n        /* \"contracts/oracle.sol\":1252:1261  nfts[_ID] */\n      dup2\n      mstore\n      0x20\n      add\n      swap1\n      dup2\n      mstore\n      0x20\n      add\n      0x00\n      keccak256\n        /* \"contracts/oracle.sol\":1235:1261  NFT memory nft = nfts[_ID] */\n      mload(0x40)\n      dup1\n      0xc0\n      add\n      0x40\n      mstore\n      swap1\n      dup2\n      0x00\n      dup3\n      add\n      0x00\n      swap1\n      sload\n      swap1\n      0x0100\n      exp\n      swap1\n      div\n      0xff\n      and\n      0x01\n      dup2\n      gt\n      iszero\n      tag_70\n      jumpi\n      tag_71\n      tag_39\n      jump\t// in\n    tag_71:\n    tag_70:\n      0x01\n      dup2\n      gt\n      iszero\n      tag_72\n      jumpi\n      tag_73\n      tag_39\n      jump\t// in\n    tag_73:\n    tag_72:\n      dup2\n      mstore\n      0x20\n      add\n      0x01\n      dup3\n      add\n      dup1\n      sload\n      tag_74\n      swap1\n      tag_75\n      jump\t// in\n    tag_74:\n      dup1\n      0x1f\n      add\n      0x20\n      dup1\n      swap2\n      div\n      mul\n      0x20\n      add\n      mload(0x40)\n      swap1\n      dup2\n      add\n      0x40\n      mstore\n      dup1\n      swap3\n      swap2\n      swap1\n      dup2\n      dup2\n      mstore\n      0x20\n      add\n      dup3\n      dup1\n      sload\n      tag_76\n      swap1\n      tag_75\n      jump\t// in\n    tag_76:\n      dup1\n      iszero\n      tag_77\n      jumpi\n      dup1\n      0x1f\n      lt\n      tag_78\n      jumpi\n      0x0100\n      dup1\n      dup4\n      sload\n      div\n      mul\n      dup4\n      mstore\n      swap2\n      0x20\n      add\n      swap2\n      jump(tag_77)\n    tag_78:\n      dup3\n      add\n      swap2\n      swap1\n      0x00\n      mstore\n      keccak256(0x00, 0x20)\n      swap1\n    tag_79:\n      dup2\n      sload\n      dup2\n      mstore\n      swap1\n      0x01\n      add\n      swap1\n      0x20\n      add\n      dup1\n      dup4\n      gt\n      tag_79\n      jumpi\n      dup3\n      swap1\n      sub\n      0x1f\n      and\n      dup3\n      add\n      swap2\n    tag_77:\n      pop\n      pop\n      pop\n      pop\n      pop\n      dup2\n      mstore\n      0x20\n      add\n      0x02\n      dup3\n      add\n      dup1\n      sload\n      tag_80\n      swap1\n      tag_75\n      jump\t// in\n    tag_80:\n      dup1\n      0x1f\n      add\n      0x20\n      dup1\n      swap2\n      div\n      mul\n      0x20\n      add\n      mload(0x40)\n      swap1\n      dup2\n      add\n      0x40\n      mstore\n      dup1\n      swap3\n      swap2\n      swap1\n      dup2\n      dup2\n      mstore\n      0x20\n      add\n      dup3\n      dup1\n      sload\n      tag_81\n      swap1\n      tag_75\n      jump\t// in\n    tag_81:\n      dup1\n      iszero\n      tag_82\n      jumpi\n      dup1\n      0x1f\n      lt\n      tag_83\n      jumpi\n      0x0100\n      dup1\n      dup4\n      sload\n      div\n      mul\n      dup4\n      mstore\n      swap2\n      0x20\n      add\n      swap2\n      jump(tag_82)\n    tag_83:\n      dup3\n      add\n      swap2\n      swap1\n      0x00\n      mstore\n      keccak256(0x00, 0x20)\n      swap1\n    tag_84:\n      dup2\n      sload\n      dup2\n      mstore\n      swap1\n      0x01\n      add\n      swap1\n      0x20\n      add\n      dup1\n      dup4\n      gt\n      tag_84\n      jumpi\n      dup3\n      swap1\n      sub\n      0x1f\n      and\n      dup3\n      add\n      swap2\n    tag_82:\n      pop\n      pop\n      pop\n      pop\n      pop\n      dup2\n      mstore\n      0x20\n      add\n      0x03\n      dup3\n      add\n      0x00\n      swap1\n      sload\n      swap1\n      0x0100\n      exp\n      swap1\n      div\n      0xff\n      and\n      iszero\n      iszero\n      iszero\n      iszero\n      dup2\n      mstore\n      0x20\n      add\n      0x03\n      dup3\n      add\n      0x01\n      swap1\n      sload\n      swap1\n      0x0100\n      exp\n      swap1\n      div\n      0xff\n      and\n      iszero\n      iszero\n      iszero\n      iszero\n      dup2\n      mstore\n      0x20\n      add\n      0x03\n      dup3\n      add\n      0x02\n      swap1\n      sload\n      swap1\n      0x0100\n      exp\n      swap1\n      div\n      0xffffffffffffffffffffffffffffffffffffffff\n      and\n      0xffffffffffffffffffffffffffffffffffffffff\n      and\n      0xffffffffffffffffffffffffffffffffffffffff\n      and\n      dup2\n      mstore\n      pop\n      pop\n      swap1\n      pop\n        /* \"contracts/oracle.sol\":1278:1281  nft */\n      dup1\n        /* \"contracts/oracle.sol\":1278:1288  nft.result */\n      0x80\n      add\n      mload\n        /* \"contracts/oracle.sol\":1271:1288  return nft.result */\n      swap2\n      pop\n      pop\n        /* \"contracts/oracle.sol\":1036:1295  function checkNFTByID(uint _ID) public view returns(bool) {\r... */\n      swap2\n      swap1\n      pop\n      jump\t// out\n        /* \"contracts/oracle.sol\":700:964  function checkNFTByHash(string memory _hash) public view returns(bool) {\r... */\n    tag_30:\n        /* \"contracts/oracle.sol\":765:769  bool */\n      0x00\n        /* \"contracts/oracle.sol\":785:791  uint i */\n      dup1\n        /* \"contracts/oracle.sol\":792:793  0 */\n      0x00\n        /* \"contracts/oracle.sol\":785:793  uint i=0 */\n      swap1\n      pop\n        /* \"contracts/oracle.sol\":781:935  for(uint i=0;i<ID;i++){\r... */\n    tag_86:\n        /* \"contracts/oracle.sol\":796:798  ID */\n      sload(0x01)\n        /* \"contracts/oracle.sol\":794:795  i */\n      dup2\n        /* \"contracts/oracle.sol\":794:798  i<ID */\n      lt\n        /* \"contracts/oracle.sol\":781:935  for(uint i=0;i<ID;i++){\r... */\n      iszero\n      tag_87\n      jumpi\n        /* \"contracts/oracle.sol\":821:855  compareStrings(nfts[i].hash,_hash) */\n      tag_89\n        /* \"contracts/oracle.sol\":836:840  nfts */\n      0x02\n        /* \"contracts/oracle.sol\":836:843  nfts[i] */\n      0x00\n        /* \"contracts/oracle.sol\":841:842  i */\n      dup4\n        /* \"contracts/oracle.sol\":836:843  nfts[i] */\n      dup2\n      mstore\n      0x20\n      add\n      swap1\n      dup2\n      mstore\n      0x20\n      add\n      0x00\n      keccak256\n        /* \"contracts/oracle.sol\":836:848  nfts[i].hash */\n      0x01\n      add\n        /* \"contracts/oracle.sol\":821:855  compareStrings(nfts[i].hash,_hash) */\n      dup1\n      sload\n      tag_90\n      swap1\n      tag_75\n      jump\t// in\n    tag_90:\n      dup1\n      0x1f\n      add\n      0x20\n      dup1\n      swap2\n      div\n      mul\n      0x20\n      add\n      mload(0x40)\n      swap1\n      dup2\n      add\n      0x40\n      mstore\n      dup1\n      swap3\n      swap2\n      swap1\n      dup2\n      dup2\n      mstore\n      0x20\n      add\n      dup3\n      dup1\n      sload\n      tag_91\n      swap1\n      tag_75\n      jump\t// in\n    tag_91:\n      dup1\n      iszero\n      tag_92\n      jumpi\n      dup1\n      0x1f\n      lt\n      tag_93\n      jumpi\n      0x0100\n      dup1\n      dup4\n      sload\n      div\n      mul\n      dup4\n      mstore\n      swap2\n      0x20\n      add\n      swap2\n      jump(tag_92)\n    tag_93:\n      dup3\n      add\n      swap2\n      swap1\n      0x00\n      mstore\n      keccak256(0x00, 0x20)\n      swap1\n    tag_94:\n      dup2\n      sload\n      dup2\n      mstore\n      swap1\n      0x01\n      add\n      swap1\n      0x20\n      add\n      dup1\n      dup4\n      gt\n      tag_94\n      jumpi\n      dup3\n      swap1\n      sub\n      0x1f\n      and\n      dup3\n      add\n      swap2\n    tag_92:\n      pop\n      pop\n      pop\n      pop\n      pop\n        /* \"contracts/oracle.sol\":849:854  _hash */\n      dup5\n        /* \"contracts/oracle.sol\":821:835  compareStrings */\n      tag_95\n        /* \"contracts/oracle.sol\":821:855  compareStrings(nfts[i].hash,_hash) */\n      jump\t// in\n    tag_89:\n        /* \"contracts/oracle.sol\":821:877  compareStrings(nfts[i].hash,_hash)&&nfts[i].result==true */\n      dup1\n      iszero\n      tag_96\n      jumpi\n      pop\n        /* \"contracts/oracle.sol\":873:877  true */\n      0x01\n        /* \"contracts/oracle.sol\":857:877  nfts[i].result==true */\n      iszero\n      iszero\n        /* \"contracts/oracle.sol\":857:861  nfts */\n      0x02\n        /* \"contracts/oracle.sol\":857:864  nfts[i] */\n      0x00\n        /* \"contracts/oracle.sol\":862:863  i */\n      dup4\n        /* \"contracts/oracle.sol\":857:864  nfts[i] */\n      dup2\n      mstore\n      0x20\n      add\n      swap1\n      dup2\n      mstore\n      0x20\n      add\n      0x00\n      keccak256\n        /* \"contracts/oracle.sol\":857:871  nfts[i].result */\n      0x03\n      add\n      0x01\n      swap1\n      sload\n      swap1\n      0x0100\n      exp\n      swap1\n      div\n      0xff\n      and\n        /* \"contracts/oracle.sol\":857:877  nfts[i].result==true */\n      iszero\n      iszero\n      eq\n        /* \"contracts/oracle.sol\":821:877  compareStrings(nfts[i].hash,_hash)&&nfts[i].result==true */\n    tag_96:\n        /* \"contracts/oracle.sol\":818:924  if(compareStrings(nfts[i].hash,_hash)&&nfts[i].result==true){\r... */\n      iszero\n      tag_97\n      jumpi\n        /* \"contracts/oracle.sol\":904:908  true */\n      0x01\n        /* \"contracts/oracle.sol\":897:908  return true */\n      swap2\n      pop\n      pop\n      jump(tag_85)\n        /* \"contracts/oracle.sol\":818:924  if(compareStrings(nfts[i].hash,_hash)&&nfts[i].result==true){\r... */\n    tag_97:\n        /* \"contracts/oracle.sol\":799:802  i++ */\n      dup1\n      dup1\n      tag_98\n      swap1\n      tag_62\n      jump\t// in\n    tag_98:\n      swap2\n      pop\n      pop\n        /* \"contracts/oracle.sol\":781:935  for(uint i=0;i<ID;i++){\r... */\n      jump(tag_86)\n    tag_87:\n      pop\n        /* \"contracts/oracle.sol\":952:957  false */\n      0x00\n        /* \"contracts/oracle.sol\":945:957  return false */\n      swap1\n      pop\n        /* \"contracts/oracle.sol\":700:964  function checkNFTByHash(string memory _hash) public view returns(bool) {\r... */\n    tag_85:\n      swap2\n      swap1\n      pop\n      jump\t// out\n        /* \"contracts/oracle.sol\":2264:2507  function  hashIsExists(string memory _hash) private view returns(bool){\r... */\n    tag_49:\n        /* \"contracts/oracle.sol\":2329:2333  bool */\n      0x00\n        /* \"contracts/oracle.sol\":2349:2355  uint i */\n      dup1\n        /* \"contracts/oracle.sol\":2356:2357  0 */\n      0x00\n        /* \"contracts/oracle.sol\":2349:2357  uint i=0 */\n      swap1\n      pop\n        /* \"contracts/oracle.sol\":2345:2478  for(uint i=0;i<ID;i++){\r... */\n    tag_100:\n        /* \"contracts/oracle.sol\":2360:2362  ID */\n      sload(0x01)\n        /* \"contracts/oracle.sol\":2358:2359  i */\n      dup2\n        /* \"contracts/oracle.sol\":2358:2362  i<ID */\n      lt\n        /* \"contracts/oracle.sol\":2345:2478  for(uint i=0;i<ID;i++){\r... */\n      iszero\n      tag_101\n      jumpi\n        /* \"contracts/oracle.sol\":2385:2419  compareStrings(nfts[i].hash,_hash) */\n      tag_103\n        /* \"contracts/oracle.sol\":2400:2404  nfts */\n      0x02\n        /* \"contracts/oracle.sol\":2400:2407  nfts[i] */\n      0x00\n        /* \"contracts/oracle.sol\":2405:2406  i */\n      dup4\n        /* \"contracts/oracle.sol\":2400:2407  nfts[i] */\n      dup2\n      mstore\n      0x20\n      add\n      swap1\n      dup2\n      mstore\n      0x20\n      add\n      0x00\n      keccak256\n        /* \"contracts/oracle.sol\":2400:2412  nfts[i].hash */\n      0x01\n      add\n        /* \"contracts/oracle.sol\":2385:2419  compareStrings(nfts[i].hash,_hash) */\n      dup1\n      sload\n      tag_104\n      swap1\n      tag_75\n      jump\t// in\n    tag_104:\n      dup1\n      0x1f\n      add\n      0x20\n      dup1\n      swap2\n      div\n      mul\n      0x20\n      add\n      mload(0x40)\n      swap1\n      dup2\n      add\n      0x40\n      mstore\n      dup1\n      swap3\n      swap2\n      swap1\n      dup2\n      dup2\n      mstore\n      0x20\n      add\n      dup3\n      dup1\n      sload\n      tag_105\n      swap1\n      tag_75\n      jump\t// in\n    tag_105:\n      dup1\n      iszero\n      tag_106\n      jumpi\n      dup1\n      0x1f\n      lt\n      tag_107\n      jumpi\n      0x0100\n      dup1\n      dup4\n      sload\n      div\n      mul\n      dup4\n      mstore\n      swap2\n      0x20\n      add\n      swap2\n      jump(tag_106)\n    tag_107:\n      dup3\n      add\n      swap2\n      swap1\n      0x00\n      mstore\n      keccak256(0x00, 0x20)\n      swap1\n    tag_108:\n      dup2\n      sload\n      dup2\n      mstore\n      swap1\n      0x01\n      add\n      swap1\n      0x20\n      add\n      dup1\n      dup4\n      gt\n      tag_108\n      jumpi\n      dup3\n      swap1\n      sub\n      0x1f\n      and\n      dup3\n      add\n      swap2\n    tag_106:\n      pop\n      pop\n      pop\n      pop\n      pop\n        /* \"contracts/oracle.sol\":2413:2418  _hash */\n      dup5\n        /* \"contracts/oracle.sol\":2385:2399  compareStrings */\n      tag_95\n        /* \"contracts/oracle.sol\":2385:2419  compareStrings(nfts[i].hash,_hash) */\n      jump\t// in\n    tag_103:\n        /* \"contracts/oracle.sol\":2382:2467  if(compareStrings(nfts[i].hash,_hash)){\r... */\n      iszero\n      tag_109\n      jumpi\n        /* \"contracts/oracle.sol\":2446:2451  false */\n      0x00\n        /* \"contracts/oracle.sol\":2439:2451  return false */\n      swap2\n      pop\n      pop\n      jump(tag_99)\n        /* \"contracts/oracle.sol\":2382:2467  if(compareStrings(nfts[i].hash,_hash)){\r... */\n    tag_109:\n        /* \"contracts/oracle.sol\":2363:2366  i++ */\n      dup1\n      dup1\n      tag_110\n      swap1\n      tag_62\n      jump\t// in\n    tag_110:\n      swap2\n      pop\n      pop\n        /* \"contracts/oracle.sol\":2345:2478  for(uint i=0;i<ID;i++){\r... */\n      jump(tag_100)\n    tag_101:\n      pop\n        /* \"contracts/oracle.sol\":2495:2499  true */\n      0x01\n        /* \"contracts/oracle.sol\":2488:2499  return true */\n      swap1\n      pop\n        /* \"contracts/oracle.sol\":2264:2507  function  hashIsExists(string memory _hash) private view returns(bool){\r... */\n    tag_99:\n      swap2\n      swap1\n      pop\n      jump\t// out\n        /* \"contracts/oracle.sol\":2513:2755  function ipfsIsExists(string memory _ipfs) private view returns(bool){\r... */\n    tag_52:\n        /* \"contracts/oracle.sol\":2577:2581  bool */\n      0x00\n        /* \"contracts/oracle.sol\":2597:2603  uint i */\n      dup1\n        /* \"contracts/oracle.sol\":2604:2605  0 */\n      0x00\n        /* \"contracts/oracle.sol\":2597:2605  uint i=0 */\n      swap1\n      pop\n        /* \"contracts/oracle.sol\":2593:2726  for(uint i=0;i<ID;i++){\r... */\n    tag_112:\n        /* \"contracts/oracle.sol\":2608:2610  ID */\n      sload(0x01)\n        /* \"contracts/oracle.sol\":2606:2607  i */\n      dup2\n        /* \"contracts/oracle.sol\":2606:2610  i<ID */\n      lt\n        /* \"contracts/oracle.sol\":2593:2726  for(uint i=0;i<ID;i++){\r... */\n      iszero\n      tag_113\n      jumpi\n        /* \"contracts/oracle.sol\":2633:2667  compareStrings(nfts[i].IPFS,_ipfs) */\n      tag_115\n        /* \"contracts/oracle.sol\":2648:2652  nfts */\n      0x02\n        /* \"contracts/oracle.sol\":2648:2655  nfts[i] */\n      0x00\n        /* \"contracts/oracle.sol\":2653:2654  i */\n      dup4\n        /* \"contracts/oracle.sol\":2648:2655  nfts[i] */\n      dup2\n      mstore\n      0x20\n      add\n      swap1\n      dup2\n      mstore\n      0x20\n      add\n      0x00\n      keccak256\n        /* \"contracts/oracle.sol\":2648:2660  nfts[i].IPFS */\n      0x02\n      add\n        /* \"contracts/oracle.sol\":2633:2667  compareStrings(nfts[i].IPFS,_ipfs) */\n      dup1\n      sload\n      tag_116\n      swap1\n      tag_75\n      jump\t// in\n    tag_116:\n      dup1\n      0x1f\n      add\n      0x20\n      dup1\n      swap2\n      div\n      mul\n      0x20\n      add\n      mload(0x40)\n      swap1\n      dup2\n      add\n      0x40\n      mstore\n      dup1\n      swap3\n      swap2\n      swap1\n      dup2\n      dup2\n      mstore\n      0x20\n      add\n      dup3\n      dup1\n      sload\n      tag_117\n      swap1\n      tag_75\n      jump\t// in\n    tag_117:\n      dup1\n      iszero\n      tag_118\n      jumpi\n      dup1\n      0x1f\n      lt\n      tag_119\n      jumpi\n      0x0100\n      dup1\n      dup4\n      sload\n      div\n      mul\n      dup4\n      mstore\n      swap2\n      0x20\n      add\n      swap2\n      jump(tag_118)\n    tag_119:\n      dup3\n      add\n      swap2\n      swap1\n      0x00\n      mstore\n      keccak256(0x00, 0x20)\n      swap1\n    tag_120:\n      dup2\n      sload\n      dup2\n      mstore\n      swap1\n      0x01\n      add\n      swap1\n      0x20\n      add\n      dup1\n      dup4\n      gt\n      tag_120\n      jumpi\n      dup3\n      swap1\n      sub\n      0x1f\n      and\n      dup3\n      add\n      swap2\n    tag_118:\n      pop\n      pop\n      pop\n      pop\n      pop\n        /* \"contracts/oracle.sol\":2661:2666  _ipfs */\n      dup5\n        /* \"contracts/oracle.sol\":2633:2647  compareStrings */\n      tag_95\n        /* \"contracts/oracle.sol\":2633:2667  compareStrings(nfts[i].IPFS,_ipfs) */\n      jump\t// in\n    tag_115:\n        /* \"contracts/oracle.sol\":2630:2715  if(compareStrings(nfts[i].IPFS,_ipfs)){\r... */\n      iszero\n      tag_121\n      jumpi\n        /* \"contracts/oracle.sol\":2694:2699  false */\n      0x00\n        /* \"contracts/oracle.sol\":2687:2699  return false */\n      swap2\n      pop\n      pop\n      jump(tag_111)\n        /* \"contracts/oracle.sol\":2630:2715  if(compareStrings(nfts[i].IPFS,_ipfs)){\r... */\n    tag_121:\n        /* \"contracts/oracle.sol\":2611:2614  i++ */\n      dup1\n      dup1\n      tag_122\n      swap1\n      tag_62\n      jump\t// in\n    tag_122:\n      swap2\n      pop\n      pop\n        /* \"contracts/oracle.sol\":2593:2726  for(uint i=0;i<ID;i++){\r... */\n      jump(tag_112)\n    tag_113:\n      pop\n        /* \"contracts/oracle.sol\":2743:2747  true */\n      0x01\n        /* \"contracts/oracle.sol\":2736:2747  return true */\n      swap1\n      pop\n        /* \"contracts/oracle.sol\":2513:2755  function ipfsIsExists(string memory _ipfs) private view returns(bool){\r... */\n    tag_111:\n      swap2\n      swap1\n      pop\n      jump\t// out\n        /* \"contracts/oracle.sol\":2767:2952  function  compareStrings(string memory a, string memory b) private pure returns(bool) {\r... */\n    tag_95:\n        /* \"contracts/oracle.sol\":2847:2851  bool */\n      0x00\n        /* \"contracts/oracle.sol\":2939:2940  b */\n      dup2\n        /* \"contracts/oracle.sol\":2921:2942  abi.encodePacked((b)) */\n      add(0x20, mload(0x40))\n      tag_124\n      swap2\n      swap1\n      tag_125\n      jump\t// in\n    tag_124:\n      mload(0x40)\n      0x20\n      dup2\n      dup4\n      sub\n      sub\n      dup2\n      mstore\n      swap1\n      0x40\n      mstore\n        /* \"contracts/oracle.sol\":2911:2943  keccak256(abi.encodePacked((b))) */\n      dup1\n      mload\n      swap1\n      0x20\n      add\n      keccak256\n        /* \"contracts/oracle.sol\":2903:2904  a */\n      dup4\n        /* \"contracts/oracle.sol\":2885:2906  abi.encodePacked((a)) */\n      add(0x20, mload(0x40))\n      tag_126\n      swap2\n      swap1\n      tag_125\n      jump\t// in\n    tag_126:\n      mload(0x40)\n      0x20\n      dup2\n      dup4\n      sub\n      sub\n      dup2\n      mstore\n      swap1\n      0x40\n      mstore\n        /* \"contracts/oracle.sol\":2875:2907  keccak256(abi.encodePacked((a))) */\n      dup1\n      mload\n      swap1\n      0x20\n      add\n      keccak256\n        /* \"contracts/oracle.sol\":2875:2943  keccak256(abi.encodePacked((a))) == keccak256(abi.encodePacked((b))) */\n      eq\n        /* \"contracts/oracle.sol\":2867:2944  return (keccak256(abi.encodePacked((a))) == keccak256(abi.encodePacked((b)))) */\n      swap1\n      pop\n        /* \"contracts/oracle.sol\":2767:2952  function  compareStrings(string memory a, string memory b) private pure returns(bool) {\r... */\n      swap3\n      swap2\n      pop\n      pop\n      jump\t// out\n    tag_57:\n      dup3\n      dup1\n      sload\n      tag_127\n      swap1\n      tag_75\n      jump\t// in\n    tag_127:\n      swap1\n      0x00\n      mstore\n      keccak256(0x00, 0x20)\n      swap1\n      0x1f\n      add\n      0x20\n      swap1\n      div\n      dup2\n      add\n      swap3\n      dup3\n      tag_129\n      jumpi\n      0x00\n      dup6\n      sstore\n      jump(tag_128)\n    tag_129:\n      dup3\n      0x1f\n      lt\n      tag_130\n      jumpi\n      dup1\n      mload\n      not(0xff)\n      and\n      dup4\n      dup1\n      add\n      or\n      dup6\n      sstore\n      jump(tag_128)\n    tag_130:\n      dup3\n      dup1\n      add\n      0x01\n      add\n      dup6\n      sstore\n      dup3\n      iszero\n      tag_128\n      jumpi\n      swap2\n      dup3\n      add\n    tag_131:\n      dup3\n      dup2\n      gt\n      iszero\n      tag_132\n      jumpi\n      dup3\n      mload\n      dup3\n      sstore\n      swap2\n      0x20\n      add\n      swap2\n      swap1\n      0x01\n      add\n      swap1\n      jump(tag_131)\n    tag_132:\n    tag_128:\n      pop\n      swap1\n      pop\n      tag_133\n      swap2\n      swap1\n      tag_134\n      jump\t// in\n    tag_133:\n      pop\n      swap1\n      jump\t// out\n    tag_134:\n    tag_135:\n      dup1\n      dup3\n      gt\n      iszero\n      tag_136\n      jumpi\n      0x00\n      dup2\n      0x00\n      swap1\n      sstore\n      pop\n      0x01\n      add\n      jump(tag_135)\n    tag_136:\n      pop\n      swap1\n      jump\t// out\n        /* \"#utility.yul\":7:419   */\n    tag_138:\n        /* \"#utility.yul\":85:90   */\n      0x00\n        /* \"#utility.yul\":110:176   */\n      tag_140\n        /* \"#utility.yul\":126:175   */\n      tag_141\n        /* \"#utility.yul\":168:174   */\n      dup5\n        /* \"#utility.yul\":126:175   */\n      tag_142\n      jump\t// in\n    tag_141:\n        /* \"#utility.yul\":110:176   */\n      tag_143\n      jump\t// in\n    tag_140:\n        /* \"#utility.yul\":101:176   */\n      swap1\n      pop\n        /* \"#utility.yul\":199:205   */\n      dup3\n        /* \"#utility.yul\":192:197   */\n      dup2\n        /* \"#utility.yul\":185:206   */\n      mstore\n        /* \"#utility.yul\":237:241   */\n      0x20\n        /* \"#utility.yul\":230:235   */\n      dup2\n        /* \"#utility.yul\":226:242   */\n      add\n        /* \"#utility.yul\":275:278   */\n      dup5\n        /* \"#utility.yul\":266:272   */\n      dup5\n        /* \"#utility.yul\":261:264   */\n      dup5\n        /* \"#utility.yul\":257:273   */\n      add\n        /* \"#utility.yul\":254:279   */\n      gt\n        /* \"#utility.yul\":251:363   */\n      iszero\n      tag_144\n      jumpi\n        /* \"#utility.yul\":282:361   */\n      tag_145\n      tag_146\n      jump\t// in\n    tag_145:\n        /* \"#utility.yul\":251:363   */\n    tag_144:\n        /* \"#utility.yul\":372:413   */\n      tag_147\n        /* \"#utility.yul\":406:412   */\n      dup5\n        /* \"#utility.yul\":401:404   */\n      dup3\n        /* \"#utility.yul\":396:399   */\n      dup6\n        /* \"#utility.yul\":372:413   */\n      tag_148\n      jump\t// in\n    tag_147:\n        /* \"#utility.yul\":91:419   */\n      pop\n        /* \"#utility.yul\":7:419   */\n      swap4\n      swap3\n      pop\n      pop\n      pop\n      jump\t// out\n        /* \"#utility.yul\":425:558   */\n    tag_149:\n        /* \"#utility.yul\":468:473   */\n      0x00\n        /* \"#utility.yul\":506:512   */\n      dup2\n        /* \"#utility.yul\":493:513   */\n      calldataload\n        /* \"#utility.yul\":484:513   */\n      swap1\n      pop\n        /* \"#utility.yul\":522:552   */\n      tag_151\n        /* \"#utility.yul\":546:551   */\n      dup2\n        /* \"#utility.yul\":522:552   */\n      tag_152\n      jump\t// in\n    tag_151:\n        /* \"#utility.yul\":425:558   */\n      swap3\n      swap2\n      pop\n      pop\n      jump\t// out\n        /* \"#utility.yul\":578:918   */\n    tag_153:\n        /* \"#utility.yul\":634:639   */\n      0x00\n        /* \"#utility.yul\":683:686   */\n      dup3\n        /* \"#utility.yul\":676:680   */\n      0x1f\n        /* \"#utility.yul\":668:674   */\n      dup4\n        /* \"#utility.yul\":664:681   */\n      add\n        /* \"#utility.yul\":660:687   */\n      slt\n        /* \"#utility.yul\":650:772   */\n      tag_155\n      jumpi\n        /* \"#utility.yul\":691:770   */\n      tag_156\n      tag_157\n      jump\t// in\n    tag_156:\n        /* \"#utility.yul\":650:772   */\n    tag_155:\n        /* \"#utility.yul\":808:814   */\n      dup2\n        /* \"#utility.yul\":795:815   */\n      calldataload\n        /* \"#utility.yul\":833:912   */\n      tag_158\n        /* \"#utility.yul\":908:911   */\n      dup5\n        /* \"#utility.yul\":900:906   */\n      dup3\n        /* \"#utility.yul\":893:897   */\n      0x20\n        /* \"#utility.yul\":885:891   */\n      dup7\n        /* \"#utility.yul\":881:898   */\n      add\n        /* \"#utility.yul\":833:912   */\n      tag_138\n      jump\t// in\n    tag_158:\n        /* \"#utility.yul\":824:912   */\n      swap2\n      pop\n        /* \"#utility.yul\":640:918   */\n      pop\n        /* \"#utility.yul\":578:918   */\n      swap3\n      swap2\n      pop\n      pop\n      jump\t// out\n        /* \"#utility.yul\":924:1063   */\n    tag_159:\n        /* \"#utility.yul\":970:975   */\n      0x00\n        /* \"#utility.yul\":1008:1014   */\n      dup2\n        /* \"#utility.yul\":995:1015   */\n      calldataload\n        /* \"#utility.yul\":986:1015   */\n      swap1\n      pop\n        /* \"#utility.yul\":1024:1057   */\n      tag_161\n        /* \"#utility.yul\":1051:1056   */\n      dup2\n        /* \"#utility.yul\":1024:1057   */\n      tag_162\n      jump\t// in\n    tag_161:\n        /* \"#utility.yul\":924:1063   */\n      swap3\n      swap2\n      pop\n      pop\n      jump\t// out\n        /* \"#utility.yul\":1069:1578   */\n    tag_29:\n        /* \"#utility.yul\":1138:1144   */\n      0x00\n        /* \"#utility.yul\":1187:1189   */\n      0x20\n        /* \"#utility.yul\":1175:1184   */\n      dup3\n        /* \"#utility.yul\":1166:1173   */\n      dup5\n        /* \"#utility.yul\":1162:1185   */\n      sub\n        /* \"#utility.yul\":1158:1190   */\n      slt\n        /* \"#utility.yul\":1155:1274   */\n      iszero\n      tag_164\n      jumpi\n        /* \"#utility.yul\":1193:1272   */\n      tag_165\n      tag_166\n      jump\t// in\n    tag_165:\n        /* \"#utility.yul\":1155:1274   */\n    tag_164:\n        /* \"#utility.yul\":1341:1342   */\n      0x00\n        /* \"#utility.yul\":1330:1339   */\n      dup3\n        /* \"#utility.yul\":1326:1343   */\n      add\n        /* \"#utility.yul\":1313:1344   */\n      calldataload\n        /* \"#utility.yul\":1371:1389   */\n      0xffffffffffffffff\n        /* \"#utility.yul\":1363:1369   */\n      dup2\n        /* \"#utility.yul\":1360:1390   */\n      gt\n        /* \"#utility.yul\":1357:1474   */\n      iszero\n      tag_167\n      jumpi\n        /* \"#utility.yul\":1393:1472   */\n      tag_168\n      tag_169\n      jump\t// in\n    tag_168:\n        /* \"#utility.yul\":1357:1474   */\n    tag_167:\n        /* \"#utility.yul\":1498:1561   */\n      tag_170\n        /* \"#utility.yul\":1553:1560   */\n      dup5\n        /* \"#utility.yul\":1544:1550   */\n      dup3\n        /* \"#utility.yul\":1533:1542   */\n      dup6\n        /* \"#utility.yul\":1529:1551   */\n      add\n        /* \"#utility.yul\":1498:1561   */\n      tag_153\n      jump\t// in\n    tag_170:\n        /* \"#utility.yul\":1488:1561   */\n      swap2\n      pop\n        /* \"#utility.yul\":1284:1571   */\n      pop\n        /* \"#utility.yul\":1069:1578   */\n      swap3\n      swap2\n      pop\n      pop\n      jump\t// out\n        /* \"#utility.yul\":1584:2418   */\n    tag_14:\n        /* \"#utility.yul\":1672:1678   */\n      0x00\n        /* \"#utility.yul\":1680:1686   */\n      dup1\n        /* \"#utility.yul\":1729:1731   */\n      0x40\n        /* \"#utility.yul\":1717:1726   */\n      dup4\n        /* \"#utility.yul\":1708:1715   */\n      dup6\n        /* \"#utility.yul\":1704:1727   */\n      sub\n        /* \"#utility.yul\":1700:1732   */\n      slt\n        /* \"#utility.yul\":1697:1816   */\n      iszero\n      tag_172\n      jumpi\n        /* \"#utility.yul\":1735:1814   */\n      tag_173\n      tag_166\n      jump\t// in\n    tag_173:\n        /* \"#utility.yul\":1697:1816   */\n    tag_172:\n        /* \"#utility.yul\":1883:1884   */\n      0x00\n        /* \"#utility.yul\":1872:1881   */\n      dup4\n        /* \"#utility.yul\":1868:1885   */\n      add\n        /* \"#utility.yul\":1855:1886   */\n      calldataload\n        /* \"#utility.yul\":1913:1931   */\n      0xffffffffffffffff\n        /* \"#utility.yul\":1905:1911   */\n      dup2\n        /* \"#utility.yul\":1902:1932   */\n      gt\n        /* \"#utility.yul\":1899:2016   */\n      iszero\n      tag_174\n      jumpi\n        /* \"#utility.yul\":1935:2014   */\n      tag_175\n      tag_169\n      jump\t// in\n    tag_175:\n        /* \"#utility.yul\":1899:2016   */\n    tag_174:\n        /* \"#utility.yul\":2040:2103   */\n      tag_176\n        /* \"#utility.yul\":2095:2102   */\n      dup6\n        /* \"#utility.yul\":2086:2092   */\n      dup3\n        /* \"#utility.yul\":2075:2084   */\n      dup7\n        /* \"#utility.yul\":2071:2093   */\n      add\n        /* \"#utility.yul\":2040:2103   */\n      tag_153\n      jump\t// in\n    tag_176:\n        /* \"#utility.yul\":2030:2103   */\n      swap3\n      pop\n        /* \"#utility.yul\":1826:2113   */\n      pop\n        /* \"#utility.yul\":2180:2182   */\n      0x20\n        /* \"#utility.yul\":2169:2178   */\n      dup4\n        /* \"#utility.yul\":2165:2183   */\n      add\n        /* \"#utility.yul\":2152:2184   */\n      calldataload\n        /* \"#utility.yul\":2211:2229   */\n      0xffffffffffffffff\n        /* \"#utility.yul\":2203:2209   */\n      dup2\n        /* \"#utility.yul\":2200:2230   */\n      gt\n        /* \"#utility.yul\":2197:2314   */\n      iszero\n      tag_177\n      jumpi\n        /* \"#utility.yul\":2233:2312   */\n      tag_178\n      tag_169\n      jump\t// in\n    tag_178:\n        /* \"#utility.yul\":2197:2314   */\n    tag_177:\n        /* \"#utility.yul\":2338:2401   */\n      tag_179\n        /* \"#utility.yul\":2393:2400   */\n      dup6\n        /* \"#utility.yul\":2384:2390   */\n      dup3\n        /* \"#utility.yul\":2373:2382   */\n      dup7\n        /* \"#utility.yul\":2369:2391   */\n      add\n        /* \"#utility.yul\":2338:2401   */\n      tag_153\n      jump\t// in\n    tag_179:\n        /* \"#utility.yul\":2328:2401   */\n      swap2\n      pop\n        /* \"#utility.yul\":2123:2411   */\n      pop\n        /* \"#utility.yul\":1584:2418   */\n      swap3\n      pop\n      swap3\n      swap1\n      pop\n      jump\t// out\n        /* \"#utility.yul\":2424:2753   */\n    tag_23:\n        /* \"#utility.yul\":2483:2489   */\n      0x00\n        /* \"#utility.yul\":2532:2534   */\n      0x20\n        /* \"#utility.yul\":2520:2529   */\n      dup3\n        /* \"#utility.yul\":2511:2518   */\n      dup5\n        /* \"#utility.yul\":2507:2530   */\n      sub\n        /* \"#utility.yul\":2503:2535   */\n      slt\n        /* \"#utility.yul\":2500:2619   */\n      iszero\n      tag_181\n      jumpi\n        /* \"#utility.yul\":2538:2617   */\n      tag_182\n      tag_166\n      jump\t// in\n    tag_182:\n        /* \"#utility.yul\":2500:2619   */\n    tag_181:\n        /* \"#utility.yul\":2658:2659   */\n      0x00\n        /* \"#utility.yul\":2683:2736   */\n      tag_183\n        /* \"#utility.yul\":2728:2735   */\n      dup5\n        /* \"#utility.yul\":2719:2725   */\n      dup3\n        /* \"#utility.yul\":2708:2717   */\n      dup6\n        /* \"#utility.yul\":2704:2726   */\n      add\n        /* \"#utility.yul\":2683:2736   */\n      tag_159\n      jump\t// in\n    tag_183:\n        /* \"#utility.yul\":2673:2736   */\n      swap2\n      pop\n        /* \"#utility.yul\":2629:2746   */\n      pop\n        /* \"#utility.yul\":2424:2753   */\n      swap3\n      swap2\n      pop\n      pop\n      jump\t// out\n        /* \"#utility.yul\":2759:3227   */\n    tag_10:\n        /* \"#utility.yul\":2824:2830   */\n      0x00\n        /* \"#utility.yul\":2832:2838   */\n      dup1\n        /* \"#utility.yul\":2881:2883   */\n      0x40\n        /* \"#utility.yul\":2869:2878   */\n      dup4\n        /* \"#utility.yul\":2860:2867   */\n      dup6\n        /* \"#utility.yul\":2856:2879   */\n      sub\n        /* \"#utility.yul\":2852:2884   */\n      slt\n        /* \"#utility.yul\":2849:2968   */\n      iszero\n      tag_185\n      jumpi\n        /* \"#utility.yul\":2887:2966   */\n      tag_186\n      tag_166\n      jump\t// in\n    tag_186:\n        /* \"#utility.yul\":2849:2968   */\n    tag_185:\n        /* \"#utility.yul\":3007:3008   */\n      0x00\n        /* \"#utility.yul\":3032:3085   */\n      tag_187\n        /* \"#utility.yul\":3077:3084   */\n      dup6\n        /* \"#utility.yul\":3068:3074   */\n      dup3\n        /* \"#utility.yul\":3057:3066   */\n      dup7\n        /* \"#utility.yul\":3053:3075   */\n      add\n        /* \"#utility.yul\":3032:3085   */\n      tag_159\n      jump\t// in\n    tag_187:\n        /* \"#utility.yul\":3022:3085   */\n      swap3\n      pop\n        /* \"#utility.yul\":2978:3095   */\n      pop\n        /* \"#utility.yul\":3134:3136   */\n      0x20\n        /* \"#utility.yul\":3160:3210   */\n      tag_188\n        /* \"#utility.yul\":3202:3209   */\n      dup6\n        /* \"#utility.yul\":3193:3199   */\n      dup3\n        /* \"#utility.yul\":3182:3191   */\n      dup7\n        /* \"#utility.yul\":3178:3200   */\n      add\n        /* \"#utility.yul\":3160:3210   */\n      tag_149\n      jump\t// in\n    tag_188:\n        /* \"#utility.yul\":3150:3210   */\n      swap2\n      pop\n        /* \"#utility.yul\":3105:3220   */\n      pop\n        /* \"#utility.yul\":2759:3227   */\n      swap3\n      pop\n      swap3\n      swap1\n      pop\n      jump\t// out\n        /* \"#utility.yul\":3233:3342   */\n    tag_189:\n        /* \"#utility.yul\":3314:3335   */\n      tag_191\n        /* \"#utility.yul\":3329:3334   */\n      dup2\n        /* \"#utility.yul\":3314:3335   */\n      tag_192\n      jump\t// in\n    tag_191:\n        /* \"#utility.yul\":3309:3312   */\n      dup3\n        /* \"#utility.yul\":3302:3336   */\n      mstore\n        /* \"#utility.yul\":3233:3342   */\n      pop\n      pop\n      jump\t// out\n        /* \"#utility.yul\":3348:3725   */\n    tag_193:\n        /* \"#utility.yul\":3454:3457   */\n      0x00\n        /* \"#utility.yul\":3482:3521   */\n      tag_195\n        /* \"#utility.yul\":3515:3520   */\n      dup3\n        /* \"#utility.yul\":3482:3521   */\n      tag_196\n      jump\t// in\n    tag_195:\n        /* \"#utility.yul\":3537:3626   */\n      tag_197\n        /* \"#utility.yul\":3619:3625   */\n      dup2\n        /* \"#utility.yul\":3614:3617   */\n      dup6\n        /* \"#utility.yul\":3537:3626   */\n      tag_198\n      jump\t// in\n    tag_197:\n        /* \"#utility.yul\":3530:3626   */\n      swap4\n      pop\n        /* \"#utility.yul\":3635:3687   */\n      tag_199\n        /* \"#utility.yul\":3680:3686   */\n      dup2\n        /* \"#utility.yul\":3675:3678   */\n      dup6\n        /* \"#utility.yul\":3668:3672   */\n      0x20\n        /* \"#utility.yul\":3661:3666   */\n      dup7\n        /* \"#utility.yul\":3657:3673   */\n      add\n        /* \"#utility.yul\":3635:3687   */\n      tag_200\n      jump\t// in\n    tag_199:\n        /* \"#utility.yul\":3712:3718   */\n      dup1\n        /* \"#utility.yul\":3707:3710   */\n      dup5\n        /* \"#utility.yul\":3703:3719   */\n      add\n        /* \"#utility.yul\":3696:3719   */\n      swap2\n      pop\n        /* \"#utility.yul\":3458:3725   */\n      pop\n        /* \"#utility.yul\":3348:3725   */\n      swap3\n      swap2\n      pop\n      pop\n      jump\t// out\n        /* \"#utility.yul\":3731:4097   */\n    tag_201:\n        /* \"#utility.yul\":3873:3876   */\n      0x00\n        /* \"#utility.yul\":3894:3961   */\n      tag_203\n        /* \"#utility.yul\":3958:3960   */\n      0x1b\n        /* \"#utility.yul\":3953:3956   */\n      dup4\n        /* \"#utility.yul\":3894:3961   */\n      tag_204\n      jump\t// in\n    tag_203:\n        /* \"#utility.yul\":3887:3961   */\n      swap2\n      pop\n        /* \"#utility.yul\":3970:4063   */\n      tag_205\n        /* \"#utility.yul\":4059:4062   */\n      dup3\n        /* \"#utility.yul\":3970:4063   */\n      tag_206\n      jump\t// in\n    tag_205:\n        /* \"#utility.yul\":4088:4090   */\n      0x20\n        /* \"#utility.yul\":4083:4086   */\n      dup3\n        /* \"#utility.yul\":4079:4091   */\n      add\n        /* \"#utility.yul\":4072:4091   */\n      swap1\n      pop\n        /* \"#utility.yul\":3731:4097   */\n      swap2\n      swap1\n      pop\n      jump\t// out\n        /* \"#utility.yul\":4103:4469   */\n    tag_207:\n        /* \"#utility.yul\":4245:4248   */\n      0x00\n        /* \"#utility.yul\":4266:4333   */\n      tag_209\n        /* \"#utility.yul\":4330:4332   */\n      0x1f\n        /* \"#utility.yul\":4325:4328   */\n      dup4\n        /* \"#utility.yul\":4266:4333   */\n      tag_204\n      jump\t// in\n    tag_209:\n        /* \"#utility.yul\":4259:4333   */\n      swap2\n      pop\n        /* \"#utility.yul\":4342:4435   */\n      tag_210\n        /* \"#utility.yul\":4431:4434   */\n      dup3\n        /* \"#utility.yul\":4342:4435   */\n      tag_211\n      jump\t// in\n    tag_210:\n        /* \"#utility.yul\":4460:4462   */\n      0x20\n        /* \"#utility.yul\":4455:4458   */\n      dup3\n        /* \"#utility.yul\":4451:4463   */\n      add\n        /* \"#utility.yul\":4444:4463   */\n      swap1\n      pop\n        /* \"#utility.yul\":4103:4469   */\n      swap2\n      swap1\n      pop\n      jump\t// out\n        /* \"#utility.yul\":4475:4841   */\n    tag_212:\n        /* \"#utility.yul\":4617:4620   */\n      0x00\n        /* \"#utility.yul\":4638:4705   */\n      tag_214\n        /* \"#utility.yul\":4702:4704   */\n      0x2f\n        /* \"#utility.yul\":4697:4700   */\n      dup4\n        /* \"#utility.yul\":4638:4705   */\n      tag_204\n      jump\t// in\n    tag_214:\n        /* \"#utility.yul\":4631:4705   */\n      swap2\n      pop\n        /* \"#utility.yul\":4714:4807   */\n      tag_215\n        /* \"#utility.yul\":4803:4806   */\n      dup3\n        /* \"#utility.yul\":4714:4807   */\n      tag_216\n      jump\t// in\n    tag_215:\n        /* \"#utility.yul\":4832:4834   */\n      0x40\n        /* \"#utility.yul\":4827:4830   */\n      dup3\n        /* \"#utility.yul\":4823:4835   */\n      add\n        /* \"#utility.yul\":4816:4835   */\n      swap1\n      pop\n        /* \"#utility.yul\":4475:4841   */\n      swap2\n      swap1\n      pop\n      jump\t// out\n        /* \"#utility.yul\":4847:5213   */\n    tag_217:\n        /* \"#utility.yul\":4989:4992   */\n      0x00\n        /* \"#utility.yul\":5010:5077   */\n      tag_219\n        /* \"#utility.yul\":5074:5076   */\n      0x23\n        /* \"#utility.yul\":5069:5072   */\n      dup4\n        /* \"#utility.yul\":5010:5077   */\n      tag_204\n      jump\t// in\n    tag_219:\n        /* \"#utility.yul\":5003:5077   */\n      swap2\n      pop\n        /* \"#utility.yul\":5086:5179   */\n      tag_220\n        /* \"#utility.yul\":5175:5178   */\n      dup3\n        /* \"#utility.yul\":5086:5179   */\n      tag_221\n      jump\t// in\n    tag_220:\n        /* \"#utility.yul\":5204:5206   */\n      0x40\n        /* \"#utility.yul\":5199:5202   */\n      dup3\n        /* \"#utility.yul\":5195:5207   */\n      add\n        /* \"#utility.yul\":5188:5207   */\n      swap1\n      pop\n        /* \"#utility.yul\":4847:5213   */\n      swap2\n      swap1\n      pop\n      jump\t// out\n        /* \"#utility.yul\":5219:5585   */\n    tag_222:\n        /* \"#utility.yul\":5361:5364   */\n      0x00\n        /* \"#utility.yul\":5382:5449   */\n      tag_224\n        /* \"#utility.yul\":5446:5448   */\n      0x1e\n        /* \"#utility.yul\":5441:5444   */\n      dup4\n        /* \"#utility.yul\":5382:5449   */\n      tag_204\n      jump\t// in\n    tag_224:\n        /* \"#utility.yul\":5375:5449   */\n      swap2\n      pop\n        /* \"#utility.yul\":5458:5551   */\n      tag_225\n        /* \"#utility.yul\":5547:5550   */\n      dup3\n        /* \"#utility.yul\":5458:5551   */\n      tag_226\n      jump\t// in\n    tag_225:\n        /* \"#utility.yul\":5576:5578   */\n      0x20\n        /* \"#utility.yul\":5571:5574   */\n      dup3\n        /* \"#utility.yul\":5567:5579   */\n      add\n        /* \"#utility.yul\":5560:5579   */\n      swap1\n      pop\n        /* \"#utility.yul\":5219:5585   */\n      swap2\n      swap1\n      pop\n      jump\t// out\n        /* \"#utility.yul\":5591:5709   */\n    tag_227:\n        /* \"#utility.yul\":5678:5702   */\n      tag_229\n        /* \"#utility.yul\":5696:5701   */\n      dup2\n        /* \"#utility.yul\":5678:5702   */\n      tag_230\n      jump\t// in\n    tag_229:\n        /* \"#utility.yul\":5673:5676   */\n      dup3\n        /* \"#utility.yul\":5666:5703   */\n      mstore\n        /* \"#utility.yul\":5591:5709   */\n      pop\n      pop\n      jump\t// out\n        /* \"#utility.yul\":5715:5990   */\n    tag_125:\n        /* \"#utility.yul\":5847:5850   */\n      0x00\n        /* \"#utility.yul\":5869:5964   */\n      tag_232\n        /* \"#utility.yul\":5960:5963   */\n      dup3\n        /* \"#utility.yul\":5951:5957   */\n      dup5\n        /* \"#utility.yul\":5869:5964   */\n      tag_193\n      jump\t// in\n    tag_232:\n        /* \"#utility.yul\":5862:5964   */\n      swap2\n      pop\n        /* \"#utility.yul\":5981:5984   */\n      dup2\n        /* \"#utility.yul\":5974:5984   */\n      swap1\n      pop\n        /* \"#utility.yul\":5715:5990   */\n      swap3\n      swap2\n      pop\n      pop\n      jump\t// out\n        /* \"#utility.yul\":5996:6206   */\n    tag_26:\n        /* \"#utility.yul\":6083:6087   */\n      0x00\n        /* \"#utility.yul\":6121:6123   */\n      0x20\n        /* \"#utility.yul\":6110:6119   */\n      dup3\n        /* \"#utility.yul\":6106:6124   */\n      add\n        /* \"#utility.yul\":6098:6124   */\n      swap1\n      pop\n        /* \"#utility.yul\":6134:6199   */\n      tag_234\n        /* \"#utility.yul\":6196:6197   */\n      0x00\n        /* \"#utility.yul\":6185:6194   */\n      dup4\n        /* \"#utility.yul\":6181:6198   */\n      add\n        /* \"#utility.yul\":6172:6178   */\n      dup5\n        /* \"#utility.yul\":6134:6199   */\n      tag_189\n      jump\t// in\n    tag_234:\n        /* \"#utility.yul\":5996:6206   */\n      swap3\n      swap2\n      pop\n      pop\n      jump\t// out\n        /* \"#utility.yul\":6212:6631   */\n    tag_69:\n        /* \"#utility.yul\":6378:6382   */\n      0x00\n        /* \"#utility.yul\":6416:6418   */\n      0x20\n        /* \"#utility.yul\":6405:6414   */\n      dup3\n        /* \"#utility.yul\":6401:6419   */\n      add\n        /* \"#utility.yul\":6393:6419   */\n      swap1\n      pop\n        /* \"#utility.yul\":6465:6474   */\n      dup2\n        /* \"#utility.yul\":6459:6463   */\n      dup2\n        /* \"#utility.yul\":6455:6475   */\n      sub\n        /* \"#utility.yul\":6451:6452   */\n      0x00\n        /* \"#utility.yul\":6440:6449   */\n      dup4\n        /* \"#utility.yul\":6436:6453   */\n      add\n        /* \"#utility.yul\":6429:6476   */\n      mstore\n        /* \"#utility.yul\":6493:6624   */\n      tag_236\n        /* \"#utility.yul\":6619:6623   */\n      dup2\n        /* \"#utility.yul\":6493:6624   */\n      tag_201\n      jump\t// in\n    tag_236:\n        /* \"#utility.yul\":6485:6624   */\n      swap1\n      pop\n        /* \"#utility.yul\":6212:6631   */\n      swap2\n      swap1\n      pop\n      jump\t// out\n        /* \"#utility.yul\":6637:7056   */\n    tag_55:\n        /* \"#utility.yul\":6803:6807   */\n      0x00\n        /* \"#utility.yul\":6841:6843   */\n      0x20\n        /* \"#utility.yul\":6830:6839   */\n      dup3\n        /* \"#utility.yul\":6826:6844   */\n      add\n        /* \"#utility.yul\":6818:6844   */\n      swap1\n      pop\n        /* \"#utility.yul\":6890:6899   */\n      dup2\n        /* \"#utility.yul\":6884:6888   */\n      dup2\n        /* \"#utility.yul\":6880:6900   */\n      sub\n        /* \"#utility.yul\":6876:6877   */\n      0x00\n        /* \"#utility.yul\":6865:6874   */\n      dup4\n        /* \"#utility.yul\":6861:6878   */\n      add\n        /* \"#utility.yul\":6854:6901   */\n      mstore\n        /* \"#utility.yul\":6918:7049   */\n      tag_238\n        /* \"#utility.yul\":7044:7048   */\n      dup2\n        /* \"#utility.yul\":6918:7049   */\n      tag_207\n      jump\t// in\n    tag_238:\n        /* \"#utility.yul\":6910:7049   */\n      swap1\n      pop\n        /* \"#utility.yul\":6637:7056   */\n      swap2\n      swap1\n      pop\n      jump\t// out\n        /* \"#utility.yul\":7062:7481   */\n    tag_44:\n        /* \"#utility.yul\":7228:7232   */\n      0x00\n        /* \"#utility.yul\":7266:7268   */\n      0x20\n        /* \"#utility.yul\":7255:7264   */\n      dup3\n        /* \"#utility.yul\":7251:7269   */\n      add\n        /* \"#utility.yul\":7243:7269   */\n      swap1\n      pop\n        /* \"#utility.yul\":7315:7324   */\n      dup2\n        /* \"#utility.yul\":7309:7313   */\n      dup2\n        /* \"#utility.yul\":7305:7325   */\n      sub\n        /* \"#utility.yul\":7301:7302   */\n      0x00\n        /* \"#utility.yul\":7290:7299   */\n      dup4\n        /* \"#utility.yul\":7286:7303   */\n      add\n        /* \"#utility.yul\":7279:7326   */\n      mstore\n        /* \"#utility.yul\":7343:7474   */\n      tag_240\n        /* \"#utility.yul\":7469:7473   */\n      dup2\n        /* \"#utility.yul\":7343:7474   */\n      tag_212\n      jump\t// in\n    tag_240:\n        /* \"#utility.yul\":7335:7474   */\n      swap1\n      pop\n        /* \"#utility.yul\":7062:7481   */\n      swap2\n      swap1\n      pop\n      jump\t// out\n        /* \"#utility.yul\":7487:7906   */\n    tag_66:\n        /* \"#utility.yul\":7653:7657   */\n      0x00\n        /* \"#utility.yul\":7691:7693   */\n      0x20\n        /* \"#utility.yul\":7680:7689   */\n      dup3\n        /* \"#utility.yul\":7676:7694   */\n      add\n        /* \"#utility.yul\":7668:7694   */\n      swap1\n      pop\n        /* \"#utility.yul\":7740:7749   */\n      dup2\n        /* \"#utility.yul\":7734:7738   */\n      dup2\n        /* \"#utility.yul\":7730:7750   */\n      sub\n        /* \"#utility.yul\":7726:7727   */\n      0x00\n        /* \"#utility.yul\":7715:7724   */\n      dup4\n        /* \"#utility.yul\":7711:7728   */\n      add\n        /* \"#utility.yul\":7704:7751   */\n      mstore\n        /* \"#utility.yul\":7768:7899   */\n      tag_242\n        /* \"#utility.yul\":7894:7898   */\n      dup2\n        /* \"#utility.yul\":7768:7899   */\n      tag_217\n      jump\t// in\n    tag_242:\n        /* \"#utility.yul\":7760:7899   */\n      swap1\n      pop\n        /* \"#utility.yul\":7487:7906   */\n      swap2\n      swap1\n      pop\n      jump\t// out\n        /* \"#utility.yul\":7912:8331   */\n    tag_35:\n        /* \"#utility.yul\":8078:8082   */\n      0x00\n        /* \"#utility.yul\":8116:8118   */\n      0x20\n        /* \"#utility.yul\":8105:8114   */\n      dup3\n        /* \"#utility.yul\":8101:8119   */\n      add\n        /* \"#utility.yul\":8093:8119   */\n      swap1\n      pop\n        /* \"#utility.yul\":8165:8174   */\n      dup2\n        /* \"#utility.yul\":8159:8163   */\n      dup2\n        /* \"#utility.yul\":8155:8175   */\n      sub\n        /* \"#utility.yul\":8151:8152   */\n      0x00\n        /* \"#utility.yul\":8140:8149   */\n      dup4\n        /* \"#utility.yul\":8136:8153   */\n      add\n        /* \"#utility.yul\":8129:8176   */\n      mstore\n        /* \"#utility.yul\":8193:8324   */\n      tag_244\n        /* \"#utility.yul\":8319:8323   */\n      dup2\n        /* \"#utility.yul\":8193:8324   */\n      tag_222\n      jump\t// in\n    tag_244:\n        /* \"#utility.yul\":8185:8324   */\n      swap1\n      pop\n        /* \"#utility.yul\":7912:8331   */\n      swap2\n      swap1\n      pop\n      jump\t// out\n        /* \"#utility.yul\":8337:8559   */\n    tag_17:\n        /* \"#utility.yul\":8430:8434   */\n      0x00\n        /* \"#utility.yul\":8468:8470   */\n      0x20\n        /* \"#utility.yul\":8457:8466   */\n      dup3\n        /* \"#utility.yul\":8453:8471   */\n      add\n        /* \"#utility.yul\":8445:8471   */\n      swap1\n      pop\n        /* \"#utility.yul\":8481:8552   */\n      tag_246\n        /* \"#utility.yul\":8549:8550   */\n      0x00\n        /* \"#utility.yul\":8538:8547   */\n      dup4\n        /* \"#utility.yul\":8534:8551   */\n      add\n        /* \"#utility.yul\":8525:8531   */\n      dup5\n        /* \"#utility.yul\":8481:8552   */\n      tag_227\n      jump\t// in\n    tag_246:\n        /* \"#utility.yul\":8337:8559   */\n      swap3\n      swap2\n      pop\n      pop\n      jump\t// out\n        /* \"#utility.yul\":8565:8694   */\n    tag_143:\n        /* \"#utility.yul\":8599:8605   */\n      0x00\n        /* \"#utility.yul\":8626:8646   */\n      tag_248\n      tag_249\n      jump\t// in\n    tag_248:\n        /* \"#utility.yul\":8616:8646   */\n      swap1\n      pop\n        /* \"#utility.yul\":8655:8688   */\n      tag_250\n        /* \"#utility.yul\":8683:8687   */\n      dup3\n        /* \"#utility.yul\":8675:8681   */\n      dup3\n        /* \"#utility.yul\":8655:8688   */\n      tag_251\n      jump\t// in\n    tag_250:\n        /* \"#utility.yul\":8565:8694   */\n      swap2\n      swap1\n      pop\n      jump\t// out\n        /* \"#utility.yul\":8700:8775   */\n    tag_249:\n        /* \"#utility.yul\":8733:8739   */\n      0x00\n        /* \"#utility.yul\":8766:8768   */\n      0x40\n        /* \"#utility.yul\":8760:8769   */\n      mload\n        /* \"#utility.yul\":8750:8769   */\n      swap1\n      pop\n        /* \"#utility.yul\":8700:8775   */\n      swap1\n      jump\t// out\n        /* \"#utility.yul\":8781:9089   */\n    tag_142:\n        /* \"#utility.yul\":8843:8847   */\n      0x00\n        /* \"#utility.yul\":8933:8951   */\n      0xffffffffffffffff\n        /* \"#utility.yul\":8925:8931   */\n      dup3\n        /* \"#utility.yul\":8922:8952   */\n      gt\n        /* \"#utility.yul\":8919:8975   */\n      iszero\n      tag_254\n      jumpi\n        /* \"#utility.yul\":8955:8973   */\n      tag_255\n      tag_256\n      jump\t// in\n    tag_255:\n        /* \"#utility.yul\":8919:8975   */\n    tag_254:\n        /* \"#utility.yul\":8993:9022   */\n      tag_257\n        /* \"#utility.yul\":9015:9021   */\n      dup3\n        /* \"#utility.yul\":8993:9022   */\n      tag_258\n      jump\t// in\n    tag_257:\n        /* \"#utility.yul\":8985:9022   */\n      swap1\n      pop\n        /* \"#utility.yul\":9077:9081   */\n      0x20\n        /* \"#utility.yul\":9071:9075   */\n      dup2\n        /* \"#utility.yul\":9067:9082   */\n      add\n        /* \"#utility.yul\":9059:9082   */\n      swap1\n      pop\n        /* \"#utility.yul\":8781:9089   */\n      swap2\n      swap1\n      pop\n      jump\t// out\n        /* \"#utility.yul\":9095:9194   */\n    tag_196:\n        /* \"#utility.yul\":9147:9153   */\n      0x00\n        /* \"#utility.yul\":9181:9186   */\n      dup2\n        /* \"#utility.yul\":9175:9187   */\n      mload\n        /* \"#utility.yul\":9165:9187   */\n      swap1\n      pop\n        /* \"#utility.yul\":9095:9194   */\n      swap2\n      swap1\n      pop\n      jump\t// out\n        /* \"#utility.yul\":9200:9369   */\n    tag_204:\n        /* \"#utility.yul\":9284:9295   */\n      0x00\n        /* \"#utility.yul\":9318:9324   */\n      dup3\n        /* \"#utility.yul\":9313:9316   */\n      dup3\n        /* \"#utility.yul\":9306:9325   */\n      mstore\n        /* \"#utility.yul\":9358:9362   */\n      0x20\n        /* \"#utility.yul\":9353:9356   */\n      dup3\n        /* \"#utility.yul\":9349:9363   */\n      add\n        /* \"#utility.yul\":9334:9363   */\n      swap1\n      pop\n        /* \"#utility.yul\":9200:9369   */\n      swap3\n      swap2\n      pop\n      pop\n      jump\t// out\n        /* \"#utility.yul\":9375:9523   */\n    tag_198:\n        /* \"#utility.yul\":9477:9488   */\n      0x00\n        /* \"#utility.yul\":9514:9517   */\n      dup2\n        /* \"#utility.yul\":9499:9517   */\n      swap1\n      pop\n        /* \"#utility.yul\":9375:9523   */\n      swap3\n      swap2\n      pop\n      pop\n      jump\t// out\n        /* \"#utility.yul\":9529:9619   */\n    tag_192:\n        /* \"#utility.yul\":9563:9570   */\n      0x00\n        /* \"#utility.yul\":9606:9611   */\n      dup2\n        /* \"#utility.yul\":9599:9612   */\n      iszero\n        /* \"#utility.yul\":9592:9613   */\n      iszero\n        /* \"#utility.yul\":9581:9613   */\n      swap1\n      pop\n        /* \"#utility.yul\":9529:9619   */\n      swap2\n      swap1\n      pop\n      jump\t// out\n        /* \"#utility.yul\":9625:9702   */\n    tag_230:\n        /* \"#utility.yul\":9662:9669   */\n      0x00\n        /* \"#utility.yul\":9691:9696   */\n      dup2\n        /* \"#utility.yul\":9680:9696   */\n      swap1\n      pop\n        /* \"#utility.yul\":9625:9702   */\n      swap2\n      swap1\n      pop\n      jump\t// out\n        /* \"#utility.yul\":9708:9862   */\n    tag_148:\n        /* \"#utility.yul\":9792:9798   */\n      dup3\n        /* \"#utility.yul\":9787:9790   */\n      dup2\n        /* \"#utility.yul\":9782:9785   */\n      dup4\n        /* \"#utility.yul\":9769:9799   */\n      calldatacopy\n        /* \"#utility.yul\":9854:9855   */\n      0x00\n        /* \"#utility.yul\":9845:9851   */\n      dup4\n        /* \"#utility.yul\":9840:9843   */\n      dup4\n        /* \"#utility.yul\":9836:9852   */\n      add\n        /* \"#utility.yul\":9829:9856   */\n      mstore\n        /* \"#utility.yul\":9708:9862   */\n      pop\n      pop\n      pop\n      jump\t// out\n        /* \"#utility.yul\":9868:10175   */\n    tag_200:\n        /* \"#utility.yul\":9936:9937   */\n      0x00\n        /* \"#utility.yul\":9946:10059   */\n    tag_266:\n        /* \"#utility.yul\":9960:9966   */\n      dup4\n        /* \"#utility.yul\":9957:9958   */\n      dup2\n        /* \"#utility.yul\":9954:9967   */\n      lt\n        /* \"#utility.yul\":9946:10059   */\n      iszero\n      tag_268\n      jumpi\n        /* \"#utility.yul\":10045:10046   */\n      dup1\n        /* \"#utility.yul\":10040:10043   */\n      dup3\n        /* \"#utility.yul\":10036:10047   */\n      add\n        /* \"#utility.yul\":10030:10048   */\n      mload\n        /* \"#utility.yul\":10026:10027   */\n      dup2\n        /* \"#utility.yul\":10021:10024   */\n      dup5\n        /* \"#utility.yul\":10017:10028   */\n      add\n        /* \"#utility.yul\":10010:10049   */\n      mstore\n        /* \"#utility.yul\":9982:9984   */\n      0x20\n        /* \"#utility.yul\":9979:9980   */\n      dup2\n        /* \"#utility.yul\":9975:9985   */\n      add\n        /* \"#utility.yul\":9970:9985   */\n      swap1\n      pop\n        /* \"#utility.yul\":9946:10059   */\n      jump(tag_266)\n    tag_268:\n        /* \"#utility.yul\":10077:10083   */\n      dup4\n        /* \"#utility.yul\":10074:10075   */\n      dup2\n        /* \"#utility.yul\":10071:10084   */\n      gt\n        /* \"#utility.yul\":10068:10169   */\n      iszero\n      tag_269\n      jumpi\n        /* \"#utility.yul\":10157:10158   */\n      0x00\n        /* \"#utility.yul\":10148:10154   */\n      dup5\n        /* \"#utility.yul\":10143:10146   */\n      dup5\n        /* \"#utility.yul\":10139:10155   */\n      add\n        /* \"#utility.yul\":10132:10159   */\n      mstore\n        /* \"#utility.yul\":10068:10169   */\n    tag_269:\n        /* \"#utility.yul\":9917:10175   */\n      pop\n        /* \"#utility.yul\":9868:10175   */\n      pop\n      pop\n      pop\n      jump\t// out\n        /* \"#utility.yul\":10181:10501   */\n    tag_75:\n        /* \"#utility.yul\":10225:10231   */\n      0x00\n        /* \"#utility.yul\":10262:10263   */\n      0x02\n        /* \"#utility.yul\":10256:10260   */\n      dup3\n        /* \"#utility.yul\":10252:10264   */\n      div\n        /* \"#utility.yul\":10242:10264   */\n      swap1\n      pop\n        /* \"#utility.yul\":10309:10310   */\n      0x01\n        /* \"#utility.yul\":10303:10307   */\n      dup3\n        /* \"#utility.yul\":10299:10311   */\n      and\n        /* \"#utility.yul\":10330:10348   */\n      dup1\n        /* \"#utility.yul\":10320:10401   */\n      tag_271\n      jumpi\n        /* \"#utility.yul\":10386:10390   */\n      0x7f\n        /* \"#utility.yul\":10378:10384   */\n      dup3\n        /* \"#utility.yul\":10374:10391   */\n      and\n        /* \"#utility.yul\":10364:10391   */\n      swap2\n      pop\n        /* \"#utility.yul\":10320:10401   */\n    tag_271:\n        /* \"#utility.yul\":10448:10450   */\n      0x20\n        /* \"#utility.yul\":10440:10446   */\n      dup3\n        /* \"#utility.yul\":10437:10451   */\n      lt\n        /* \"#utility.yul\":10417:10435   */\n      dup2\n        /* \"#utility.yul\":10414:10452   */\n      eq\n        /* \"#utility.yul\":10411:10495   */\n      iszero\n      tag_272\n      jumpi\n        /* \"#utility.yul\":10467:10485   */\n      tag_273\n      tag_274\n      jump\t// in\n    tag_273:\n        /* \"#utility.yul\":10411:10495   */\n    tag_272:\n        /* \"#utility.yul\":10232:10501   */\n      pop\n        /* \"#utility.yul\":10181:10501   */\n      swap2\n      swap1\n      pop\n      jump\t// out\n        /* \"#utility.yul\":10507:10788   */\n    tag_251:\n        /* \"#utility.yul\":10590:10617   */\n      tag_276\n        /* \"#utility.yul\":10612:10616   */\n      dup3\n        /* \"#utility.yul\":10590:10617   */\n      tag_258\n      jump\t// in\n    tag_276:\n        /* \"#utility.yul\":10582:10588   */\n      dup2\n        /* \"#utility.yul\":10578:10618   */\n      add\n        /* \"#utility.yul\":10720:10726   */\n      dup2\n        /* \"#utility.yul\":10708:10718   */\n      dup2\n        /* \"#utility.yul\":10705:10727   */\n      lt\n        /* \"#utility.yul\":10684:10702   */\n      0xffffffffffffffff\n        /* \"#utility.yul\":10672:10682   */\n      dup3\n        /* \"#utility.yul\":10669:10703   */\n      gt\n        /* \"#utility.yul\":10666:10728   */\n      or\n        /* \"#utility.yul\":10663:10751   */\n      iszero\n      tag_277\n      jumpi\n        /* \"#utility.yul\":10731:10749   */\n      tag_278\n      tag_256\n      jump\t// in\n    tag_278:\n        /* \"#utility.yul\":10663:10751   */\n    tag_277:\n        /* \"#utility.yul\":10771:10781   */\n      dup1\n        /* \"#utility.yul\":10767:10769   */\n      0x40\n        /* \"#utility.yul\":10760:10782   */\n      mstore\n        /* \"#utility.yul\":10550:10788   */\n      pop\n        /* \"#utility.yul\":10507:10788   */\n      pop\n      pop\n      jump\t// out\n        /* \"#utility.yul\":10794:11027   */\n    tag_62:\n        /* \"#utility.yul\":10833:10836   */\n      0x00\n        /* \"#utility.yul\":10856:10880   */\n      tag_280\n        /* \"#utility.yul\":10874:10879   */\n      dup3\n        /* \"#utility.yul\":10856:10880   */\n      tag_230\n      jump\t// in\n    tag_280:\n        /* \"#utility.yul\":10847:10880   */\n      swap2\n      pop\n        /* \"#utility.yul\":10902:10968   */\n      0xffffffffffffffffffffffffffffffffffffffffffffffffffffffffffffffff\n        /* \"#utility.yul\":10895:10900   */\n      dup3\n        /* \"#utility.yul\":10892:10969   */\n      eq\n        /* \"#utility.yul\":10889:10992   */\n      iszero\n      tag_281\n      jumpi\n        /* \"#utility.yul\":10972:10990   */\n      tag_282\n      tag_283\n      jump\t// in\n    tag_282:\n        /* \"#utility.yul\":10889:10992   */\n    tag_281:\n        /* \"#utility.yul\":11019:11020   */\n      0x01\n        /* \"#utility.yul\":11012:11017   */\n      dup3\n        /* \"#utility.yul\":11008:11021   */\n      add\n        /* \"#utility.yul\":11001:11021   */\n      swap1\n      pop\n        /* \"#utility.yul\":10794:11027   */\n      swap2\n      swap1\n      pop\n      jump\t// out\n        /* \"#utility.yul\":11033:11213   */\n    tag_283:\n        /* \"#utility.yul\":11081:11158   */\n      0x4e487b7100000000000000000000000000000000000000000000000000000000\n        /* \"#utility.yul\":11078:11079   */\n      0x00\n        /* \"#utility.yul\":11071:11159   */\n      mstore\n        /* \"#utility.yul\":11178:11182   */\n      0x11\n        /* \"#utility.yul\":11175:11176   */\n      0x04\n        /* \"#utility.yul\":11168:11183   */\n      mstore\n        /* \"#utility.yul\":11202:11206   */\n      0x24\n        /* \"#utility.yul\":11199:11200   */\n      0x00\n        /* \"#utility.yul\":11192:11207   */\n      revert\n        /* \"#utility.yul\":11219:11399   */\n    tag_39:\n        /* \"#utility.yul\":11267:11344   */\n      0x4e487b7100000000000000000000000000000000000000000000000000000000\n        /* \"#utility.yul\":11264:11265   */\n      0x00\n        /* \"#utility.yul\":11257:11345   */\n      mstore\n        /* \"#utility.yul\":11364:11368   */\n      0x21\n        /* \"#utility.yul\":11361:11362   */\n      0x04\n        /* \"#utility.yul\":11354:11369   */\n      mstore\n        /* \"#utility.yul\":11388:11392   */\n      0x24\n        /* \"#utility.yul\":11385:11386   */\n      0x00\n        /* \"#utility.yul\":11378:11393   */\n      revert\n        /* \"#utility.yul\":11405:11585   */\n    tag_274:\n        /* \"#utility.yul\":11453:11530   */\n      0x4e487b7100000000000000000000000000000000000000000000000000000000\n        /* \"#utility.yul\":11450:11451   */\n      0x00\n        /* \"#utility.yul\":11443:11531   */\n      mstore\n        /* \"#utility.yul\":11550:11554   */\n      0x22\n        /* \"#utility.yul\":11547:11548   */\n      0x04\n        /* \"#utility.yul\":11540:11555   */\n      mstore\n        /* \"#utility.yul\":11574:11578   */\n      0x24\n        /* \"#utility.yul\":11571:11572   */\n      0x00\n        /* \"#utility.yul\":11564:11579   */\n      revert\n        /* \"#utility.yul\":11591:11771   */\n    tag_256:\n        /* \"#utility.yul\":11639:11716   */\n      0x4e487b7100000000000000000000000000000000000000000000000000000000\n        /* \"#utility.yul\":11636:11637   */\n      0x00\n        /* \"#utility.yul\":11629:11717   */\n      mstore\n        /* \"#utility.yul\":11736:11740   */\n      0x41\n        /* \"#utility.yul\":11733:11734   */\n      0x04\n        /* \"#utility.yul\":11726:11741   */\n      mstore\n        /* \"#utility.yul\":11760:11764   */\n      0x24\n        /* \"#utility.yul\":11757:11758   */\n      0x00\n        /* \"#utility.yul\":11750:11765   */\n      revert\n        /* \"#utility.yul\":11777:11894   */\n    tag_157:\n        /* \"#utility.yul\":11886:11887   */\n      0x00\n        /* \"#utility.yul\":11883:11884   */\n      dup1\n        /* \"#utility.yul\":11876:11888   */\n      revert\n        /* \"#utility.yul\":11900:12017   */\n    tag_146:\n        /* \"#utility.yul\":12009:12010   */\n      0x00\n        /* \"#utility.yul\":12006:12007   */\n      dup1\n        /* \"#utility.yul\":11999:12011   */\n      revert\n        /* \"#utility.yul\":12023:12140   */\n    tag_169:\n        /* \"#utility.yul\":12132:12133   */\n      0x00\n        /* \"#utility.yul\":12129:12130   */\n      dup1\n        /* \"#utility.yul\":12122:12134   */\n      revert\n        /* \"#utility.yul\":12146:12263   */\n    tag_166:\n        /* \"#utility.yul\":12255:12256   */\n      0x00\n        /* \"#utility.yul\":12252:12253   */\n      dup1\n        /* \"#utility.yul\":12245:12257   */\n      revert\n        /* \"#utility.yul\":12269:12371   */\n    tag_258:\n        /* \"#utility.yul\":12310:12316   */\n      0x00\n        /* \"#utility.yul\":12361:12363   */\n      0x1f\n        /* \"#utility.yul\":12357:12364   */\n      not\n        /* \"#utility.yul\":12352:12354   */\n      0x1f\n        /* \"#utility.yul\":12345:12350   */\n      dup4\n        /* \"#utility.yul\":12341:12355   */\n      add\n        /* \"#utility.yul\":12337:12365   */\n      and\n        /* \"#utility.yul\":12327:12365   */\n      swap1\n      pop\n        /* \"#utility.yul\":12269:12371   */\n      swap2\n      swap1\n      pop\n      jump\t// out\n        /* \"#utility.yul\":12377:12554   */\n    tag_206:\n        /* \"#utility.yul\":12517:12546   */\n      0x54686973204944206f66204e465420646f6e2774206578697374730000000000\n        /* \"#utility.yul\":12513:12514   */\n      0x00\n        /* \"#utility.yul\":12505:12511   */\n      dup3\n        /* \"#utility.yul\":12501:12515   */\n      add\n        /* \"#utility.yul\":12494:12547   */\n      mstore\n        /* \"#utility.yul\":12377:12554   */\n      pop\n      jump\t// out\n        /* \"#utility.yul\":12560:12741   */\n    tag_211:\n        /* \"#utility.yul\":12700:12733   */\n      0x556e61626c6520746f207265706561742074686520646574656374696f6e2100\n        /* \"#utility.yul\":12696:12697   */\n      0x00\n        /* \"#utility.yul\":12688:12694   */\n      dup3\n        /* \"#utility.yul\":12684:12698   */\n      add\n        /* \"#utility.yul\":12677:12734   */\n      mstore\n        /* \"#utility.yul\":12560:12741   */\n      pop\n      jump\t// out\n        /* \"#utility.yul\":12747:12981   */\n    tag_216:\n        /* \"#utility.yul\":12887:12921   */\n      0x546865204e465420646f6573206e6f74206d6565742074686520646574656374\n        /* \"#utility.yul\":12883:12884   */\n      0x00\n        /* \"#utility.yul\":12875:12881   */\n      dup3\n        /* \"#utility.yul\":12871:12885   */\n      add\n        /* \"#utility.yul\":12864:12922   */\n      mstore\n        /* \"#utility.yul\":12956:12973   */\n      0x696f6e20636f6e646974696f6e73210000000000000000000000000000000000\n        /* \"#utility.yul\":12951:12953   */\n      0x20\n        /* \"#utility.yul\":12943:12949   */\n      dup3\n        /* \"#utility.yul\":12939:12954   */\n      add\n        /* \"#utility.yul\":12932:12974   */\n      mstore\n        /* \"#utility.yul\":12747:12981   */\n      pop\n      jump\t// out\n        /* \"#utility.yul\":12987:13209   */\n    tag_221:\n        /* \"#utility.yul\":13127:13161   */\n      0x4f6e6c79206f776e65722063616e20636865636b20746865204e465420627920\n        /* \"#utility.yul\":13123:13124   */\n      0x00\n        /* \"#utility.yul\":13115:13121   */\n      dup3\n        /* \"#utility.yul\":13111:13125   */\n      add\n        /* \"#utility.yul\":13104:13162   */\n      mstore\n        /* \"#utility.yul\":13196:13201   */\n      0x4944210000000000000000000000000000000000000000000000000000000000\n        /* \"#utility.yul\":13191:13193   */\n      0x20\n        /* \"#utility.yul\":13183:13189   */\n      dup3\n        /* \"#utility.yul\":13179:13194   */\n      add\n        /* \"#utility.yul\":13172:13202   */\n      mstore\n        /* \"#utility.yul\":12987:13209   */\n      pop\n      jump\t// out\n        /* \"#utility.yul\":13215:13395   */\n    tag_226:\n        /* \"#utility.yul\":13355:13387   */\n      0x4f6e6c79206f776e65722063616e2064657465637420746865204e4654210000\n        /* \"#utility.yul\":13351:13352   */\n      0x00\n        /* \"#utility.yul\":13343:13349   */\n      dup3\n        /* \"#utility.yul\":13339:13353   */\n      add\n        /* \"#utility.yul\":13332:13388   */\n      mstore\n        /* \"#utility.yul\":13215:13395   */\n      pop\n      jump\t// out\n        /* \"#utility.yul\":13401:13517   */\n    tag_152:\n        /* \"#utility.yul\":13471:13492   */\n      tag_299\n        /* \"#utility.yul\":13486:13491   */\n      dup2\n        /* \"#utility.yul\":13471:13492   */\n      tag_192\n      jump\t// in\n    tag_299:\n        /* \"#utility.yul\":13464:13469   */\n      dup2\n        /* \"#utility.yul\":13461:13493   */\n      eq\n        /* \"#utility.yul\":13451:13511   */\n      tag_300\n      jumpi\n        /* \"#utility.yul\":13507:13508   */\n      0x00\n        /* \"#utility.yul\":13504:13505   */\n      dup1\n        /* \"#utility.yul\":13497:13509   */\n      revert\n        /* \"#utility.yul\":13451:13511   */\n    tag_300:\n        /* \"#utility.yul\":13401:13517   */\n      pop\n      jump\t// out\n        /* \"#utility.yul\":13523:13645   */\n    tag_162:\n        /* \"#utility.yul\":13596:13620   */\n      tag_302\n        /* \"#utility.yul\":13614:13619   */\n      dup2\n        /* \"#utility.yul\":13596:13620   */\n      tag_230\n      jump\t// in\n    tag_302:\n        /* \"#utility.yul\":13589:13594   */\n      dup2\n        /* \"#utility.yul\":13586:13621   */\n      eq\n        /* \"#utility.yul\":13576:13639   */\n      tag_303\n      jumpi\n        /* \"#utility.yul\":13635:13636   */\n      0x00\n        /* \"#utility.yul\":13632:13633   */\n      dup1\n        /* \"#utility.yul\":13625:13637   */\n      revert\n        /* \"#utility.yul\":13576:13639   */\n    tag_303:\n        /* \"#utility.yul\":13523:13645   */\n      pop\n      jump\t// out\n\n    auxdata: 0xa2646970667358221220efb3a6f38372487b48720450e6aafc3bb95c09d1087575788415e2fa6007075b64736f6c63430008070033\n}\n",
				"bytecode": {
					"linkReferences": {},
					"object": "6080604052600060015534801561001557600080fd5b50336000806101000a81548173ffffffffffffffffffffffffffffffffffffffff021916908373ffffffffffffffffffffffffffffffffffffffff160217905550611352806100656000396000f3fe608060405234801561001057600080fd5b50600436106100575760003560e01c80631c5a3e521461005c5780633a4f2d2414610078578063b3cea217146100a8578063b5e3029f146100c6578063d0aeae96146100f6575b600080fd5b61007660048036038101906100719190610d48565b610126565b005b610092600480360381019061008d9190610ca3565b610315565b60405161009f9190610f58565b60405180910390f35b6100b06104e7565b6040516100bd9190610f58565b60405180910390f35b6100e060048036038101906100db9190610d1b565b6104ed565b6040516100ed9190610e9d565b60405180910390f35b610110600480360381019061010b9190610c5a565b6107dc565b60405161011d9190610e9d565b60405180910390f35b60008054906101000a900473ffffffffffffffffffffffffffffffffffffffff1673ffffffffffffffffffffffffffffffffffffffff163373ffffffffffffffffffffffffffffffffffffffff16146101b4576040517f08c379a00000000000000000000000000000000000000000000000000000000081526004016101ab90610f38565b60405180910390fd5b600015156002600084815260200190815260200160002060030160009054906101000a900460ff1615151480156102325750600060018111156101fa576101f9611123565b5b6002600084815260200190815260200160002060000160009054906101000a900460ff1660018111156102305761022f611123565b5b145b610271576040517f08c379a000000000000000000000000000000000000000000000000000000000815260040161026890610ef8565b60405180910390fd5b806002600084815260200190815260200160002060030160016101000a81548160ff021916908315150217905550600060026000600154815260200190815260200160002060030160006101000a81548160ff021916908315150217905550600160026000600154815260200190815260200160002060000160006101000a81548160ff0219169083600181111561030c5761030b611123565b5b02179055505050565b6000610320836108f6565b80156103315750610330826109dd565b5b610370576040517f08c379a000000000000000000000000000000000000000000000000000000000815260040161036790610ed8565b60405180910390fd5b82600260006001548152602001908152602001600020600101908051906020019061039c929190610b1d565b508160026000600154815260200190815260200160002060020190805190602001906103c9929190610b1d565b50600060026000600154815260200190815260200160002060000160006101000a81548160ff0219169083600181111561040657610405611123565b5b0217905550600060026000600154815260200190815260200160002060030160006101000a81548160ff021916908315150217905550600060026000600154815260200190815260200160002060030160016101000a81548160ff0219169083151502179055503360026000600154815260200190815260200160002060030160026101000a81548173ffffffffffffffffffffffffffffffffffffffff021916908373ffffffffffffffffffffffffffffffffffffffff160217905550600160008154809291906104d7906110ab565b9190505550600154905092915050565b60015481565b60008060009054906101000a900473ffffffffffffffffffffffffffffffffffffffff1673ffffffffffffffffffffffffffffffffffffffff163373ffffffffffffffffffffffffffffffffffffffff161461057e576040517f08c379a000000000000000000000000000000000000000000000000000000000815260040161057590610f18565b60405180910390fd5b60015482106105c2576040517f08c379a00000000000000000000000000000000000000000000000000000000081526004016105b990610eb8565b60405180910390fd5b6000600260008481526020019081526020016000206040518060c00160405290816000820160009054906101000a900460ff16600181111561060757610606611123565b5b600181111561061957610618611123565b5b815260200160018201805461062d90611048565b80601f016020809104026020016040519081016040528092919081815260200182805461065990611048565b80156106a65780601f1061067b576101008083540402835291602001916106a6565b820191906000526020600020905b81548152906001019060200180831161068957829003601f168201915b505050505081526020016002820180546106bf90611048565b80601f01602080910402602001604051908101604052809291908181526020018280546106eb90611048565b80156107385780601f1061070d57610100808354040283529160200191610738565b820191906000526020600020905b81548152906001019060200180831161071b57829003601f168201915b505050505081526020016003820160009054906101000a900460ff161515151581526020016003820160019054906101000a900460ff161515151581526020016003820160029054906101000a900473ffffffffffffffffffffffffffffffffffffffff1673ffffffffffffffffffffffffffffffffffffffff1673ffffffffffffffffffffffffffffffffffffffff168152505090508060800151915050919050565b600080600090505b6001548110156108eb5761089660026000838152602001908152602001600020600101805461081290611048565b80601f016020809104026020016040519081016040528092919081815260200182805461083e90611048565b801561088b5780601f106108605761010080835404028352916020019161088b565b820191906000526020600020905b81548152906001019060200180831161086e57829003601f168201915b505050505084610ac4565b80156108c95750600115156002600083815260200190815260200160002060030160019054906101000a900460ff161515145b156108d85760019150506108f1565b80806108e3906110ab565b9150506107e4565b50600090505b919050565b600080600090505b6001548110156109d2576109b060026000838152602001908152602001600020600101805461092c90611048565b80601f016020809104026020016040519081016040528092919081815260200182805461095890611048565b80156109a55780601f1061097a576101008083540402835291602001916109a5565b820191906000526020600020905b81548152906001019060200180831161098857829003601f168201915b505050505084610ac4565b156109bf5760009150506109d8565b80806109ca906110ab565b9150506108fe565b50600190505b919050565b600080600090505b600154811015610ab957610a97600260008381526020019081526020016000206002018054610a1390611048565b80601f0160208091040260200160405190810160405280929190818152602001828054610a3f90611048565b8015610a8c5780601f10610a6157610100808354040283529160200191610a8c565b820191906000526020600020905b815481529060010190602001808311610a6f57829003601f168201915b505050505084610ac4565b15610aa6576000915050610abf565b8080610ab1906110ab565b9150506109e5565b50600190505b919050565b600081604051602001610ad79190610e86565b6040516020818303038152906040528051906020012083604051602001610afe9190610e86565b6040516020818303038152906040528051906020012014905092915050565b828054610b2990611048565b90600052602060002090601f016020900481019282610b4b5760008555610b92565b82601f10610b6457805160ff1916838001178555610b92565b82800160010185558215610b92579182015b82811115610b91578251825591602001919060010190610b76565b5b509050610b9f9190610ba3565b5090565b5b80821115610bbc576000816000905550600101610ba4565b5090565b6000610bd3610bce84610f98565b610f73565b905082815260208101848484011115610bef57610bee6111b5565b5b610bfa848285611006565b509392505050565b600081359050610c11816112ee565b92915050565b600082601f830112610c2c57610c2b6111b0565b5b8135610c3c848260208601610bc0565b91505092915050565b600081359050610c5481611305565b92915050565b600060208284031215610c7057610c6f6111bf565b5b600082013567ffffffffffffffff811115610c8e57610c8d6111ba565b5b610c9a84828501610c17565b91505092915050565b60008060408385031215610cba57610cb96111bf565b5b600083013567ffffffffffffffff811115610cd857610cd76111ba565b5b610ce485828601610c17565b925050602083013567ffffffffffffffff811115610d0557610d046111ba565b5b610d1185828601610c17565b9150509250929050565b600060208284031215610d3157610d306111bf565b5b6000610d3f84828501610c45565b91505092915050565b60008060408385031215610d5f57610d5e6111bf565b5b6000610d6d85828601610c45565b9250506020610d7e85828601610c02565b9150509250929050565b610d9181610ff0565b82525050565b6000610da282610fc9565b610dac8185610fe5565b9350610dbc818560208601611015565b80840191505092915050565b6000610dd5601b83610fd4565b9150610de0826111d5565b602082019050919050565b6000610df8601f83610fd4565b9150610e03826111fe565b602082019050919050565b6000610e1b602f83610fd4565b9150610e2682611227565b604082019050919050565b6000610e3e602383610fd4565b9150610e4982611276565b604082019050919050565b6000610e61601e83610fd4565b9150610e6c826112c5565b602082019050919050565b610e8081610ffc565b82525050565b6000610e928284610d97565b915081905092915050565b6000602082019050610eb26000830184610d88565b92915050565b60006020820190508181036000830152610ed181610dc8565b9050919050565b60006020820190508181036000830152610ef181610deb565b9050919050565b60006020820190508181036000830152610f1181610e0e565b9050919050565b60006020820190508181036000830152610f3181610e31565b9050919050565b60006020820190508181036000830152610f5181610e54565b9050919050565b6000602082019050610f6d6000830184610e77565b92915050565b6000610f7d610f8e565b9050610f89828261107a565b919050565b6000604051905090565b600067ffffffffffffffff821115610fb357610fb2611181565b5b610fbc826111c4565b9050602081019050919050565b600081519050919050565b600082825260208201905092915050565b600081905092915050565b60008115159050919050565b6000819050919050565b82818337600083830152505050565b60005b83811015611033578082015181840152602081019050611018565b83811115611042576000848401525b50505050565b6000600282049050600182168061106057607f821691505b6020821081141561107457611073611152565b5b50919050565b611083826111c4565b810181811067ffffffffffffffff821117156110a2576110a1611181565b5b80604052505050565b60006110b682610ffc565b91507fffffffffffffffffffffffffffffffffffffffffffffffffffffffffffffffff8214156110e9576110e86110f4565b5b600182019050919050565b7f4e487b7100000000000000000000000000000000000000000000000000000000600052601160045260246000fd5b7f4e487b7100000000000000000000000000000000000000000000000000000000600052602160045260246000fd5b7f4e487b7100000000000000000000000000000000000000000000000000000000600052602260045260246000fd5b7f4e487b7100000000000000000000000000000000000000000000000000000000600052604160045260246000fd5b600080fd5b600080fd5b600080fd5b600080fd5b6000601f19601f8301169050919050565b7f54686973204944206f66204e465420646f6e2774206578697374730000000000600082015250565b7f556e61626c6520746f207265706561742074686520646574656374696f6e2100600082015250565b7f546865204e465420646f6573206e6f74206d656574207468652064657465637460008201527f696f6e20636f6e646974696f6e73210000000000000000000000000000000000602082015250565b7f4f6e6c79206f776e65722063616e20636865636b20746865204e46542062792060008201527f4944210000000000000000000000000000000000000000000000000000000000602082015250565b7f4f6e6c79206f776e65722063616e2064657465637420746865204e4654210000600082015250565b6112f781610ff0565b811461130257600080fd5b50565b61130e81610ffc565b811461131957600080fd5b5056fea2646970667358221220efb3a6f38372487b48720450e6aafc3bb95c09d1087575788415e2fa6007075b64736f6c63430008070033",
					"opcodes": "PUSH1 0x80 PUSH1 0x40 MSTORE PUSH1 0x0 PUSH1 0x1 SSTORE CALLVALUE DUP1 ISZERO PUSH2 0x15 JUMPI PUSH1 0x0 DUP1 REVERT JUMPDEST POP CALLER PUSH1 0x0 DUP1 PUSH2 0x100 EXP DUP2 SLOAD DUP2 PUSH20 0xFFFFFFFFFFFFFFFFFFFFFFFFFFFFFFFFFFFFFFFF MUL NOT AND SWAP1 DUP4 PUSH20 0xFFFFFFFFFFFFFFFFFFFFFFFFFFFFFFFFFFFFFFFF AND MUL OR SWAP1 SSTORE POP PUSH2 0x1352 DUP1 PUSH2 0x65 PUSH1 0x0 CODECOPY PUSH1 0x0 RETURN INVALID PUSH1 0x80 PUSH1 0x40 MSTORE CALLVALUE DUP1 ISZERO PUSH2 0x10 JUMPI PUSH1 0x0 DUP1 REVERT JUMPDEST POP PUSH1 0x4 CALLDATASIZE LT PUSH2 0x57 JUMPI PUSH1 0x0 CALLDATALOAD PUSH1 0xE0 SHR DUP1 PUSH4 0x1C5A3E52 EQ PUSH2 0x5C JUMPI DUP1 PUSH4 0x3A4F2D24 EQ PUSH2 0x78 JUMPI DUP1 PUSH4 0xB3CEA217 EQ PUSH2 0xA8 JUMPI DUP1 PUSH4 0xB5E3029F EQ PUSH2 0xC6 JUMPI DUP1 PUSH4 0xD0AEAE96 EQ PUSH2 0xF6 JUMPI JUMPDEST PUSH1 0x0 DUP1 REVERT JUMPDEST PUSH2 0x76 PUSH1 0x4 DUP1 CALLDATASIZE SUB DUP2 ADD SWAP1 PUSH2 0x71 SWAP2 SWAP1 PUSH2 0xD48 JUMP JUMPDEST PUSH2 0x126 JUMP JUMPDEST STOP JUMPDEST PUSH2 0x92 PUSH1 0x4 DUP1 CALLDATASIZE SUB DUP2 ADD SWAP1 PUSH2 0x8D SWAP2 SWAP1 PUSH2 0xCA3 JUMP JUMPDEST PUSH2 0x315 JUMP JUMPDEST PUSH1 0x40 MLOAD PUSH2 0x9F SWAP2 SWAP1 PUSH2 0xF58 JUMP JUMPDEST PUSH1 0x40 MLOAD DUP1 SWAP2 SUB SWAP1 RETURN JUMPDEST PUSH2 0xB0 PUSH2 0x4E7 JUMP JUMPDEST PUSH1 0x40 MLOAD PUSH2 0xBD SWAP2 SWAP1 PUSH2 0xF58 JUMP JUMPDEST PUSH1 0x40 MLOAD DUP1 SWAP2 SUB SWAP1 RETURN JUMPDEST PUSH2 0xE0 PUSH1 0x4 DUP1 CALLDATASIZE SUB DUP2 ADD SWAP1 PUSH2 0xDB SWAP2 SWAP1 PUSH2 0xD1B JUMP JUMPDEST PUSH2 0x4ED JUMP JUMPDEST PUSH1 0x40 MLOAD PUSH2 0xED SWAP2 SWAP1 PUSH2 0xE9D JUMP JUMPDEST PUSH1 0x40 MLOAD DUP1 SWAP2 SUB SWAP1 RETURN JUMPDEST PUSH2 0x110 PUSH1 0x4 DUP1 CALLDATASIZE SUB DUP2 ADD SWAP1 PUSH2 0x10B SWAP2 SWAP1 PUSH2 0xC5A JUMP JUMPDEST PUSH2 0x7DC JUMP JUMPDEST PUSH1 0x40 MLOAD PUSH2 0x11D SWAP2 SWAP1 PUSH2 0xE9D JUMP JUMPDEST PUSH1 0x40 MLOAD DUP1 SWAP2 SUB SWAP1 RETURN JUMPDEST PUSH1 0x0 DUP1 SLOAD SWAP1 PUSH2 0x100 EXP SWAP1 DIV PUSH20 0xFFFFFFFFFFFFFFFFFFFFFFFFFFFFFFFFFFFFFFFF AND PUSH20 0xFFFFFFFFFFFFFFFFFFFFFFFFFFFFFFFFFFFFFFFF AND CALLER PUSH20 0xFFFFFFFFFFFFFFFFFFFFFFFFFFFFFFFFFFFFFFFF AND EQ PUSH2 0x1B4 JUMPI PUSH1 0x40 MLOAD PUSH32 0x8C379A000000000000000000000000000000000000000000000000000000000 DUP2 MSTORE PUSH1 0x4 ADD PUSH2 0x1AB SWAP1 PUSH2 0xF38 JUMP JUMPDEST PUSH1 0x40 MLOAD DUP1 SWAP2 SUB SWAP1 REVERT JUMPDEST PUSH1 0x0 ISZERO ISZERO PUSH1 0x2 PUSH1 0x0 DUP5 DUP2 MSTORE PUSH1 0x20 ADD SWAP1 DUP2 MSTORE PUSH1 0x20 ADD PUSH1 0x0 KECCAK256 PUSH1 0x3 ADD PUSH1 0x0 SWAP1 SLOAD SWAP1 PUSH2 0x100 EXP SWAP1 DIV PUSH1 0xFF AND ISZERO ISZERO EQ DUP1 ISZERO PUSH2 0x232 JUMPI POP PUSH1 0x0 PUSH1 0x1 DUP2 GT ISZERO PUSH2 0x1FA JUMPI PUSH2 0x1F9 PUSH2 0x1123 JUMP JUMPDEST JUMPDEST PUSH1 0x2 PUSH1 0x0 DUP5 DUP2 MSTORE PUSH1 0x20 ADD SWAP1 DUP2 MSTORE PUSH1 0x20 ADD PUSH1 0x0 KECCAK256 PUSH1 0x0 ADD PUSH1 0x0 SWAP1 SLOAD SWAP1 PUSH2 0x100 EXP SWAP1 DIV PUSH1 0xFF AND PUSH1 0x1 DUP2 GT ISZERO PUSH2 0x230 JUMPI PUSH2 0x22F PUSH2 0x1123 JUMP JUMPDEST JUMPDEST EQ JUMPDEST PUSH2 0x271 JUMPI PUSH1 0x40 MLOAD PUSH32 0x8C379A000000000000000000000000000000000000000000000000000000000 DUP2 MSTORE PUSH1 0x4 ADD PUSH2 0x268 SWAP1 PUSH2 0xEF8 JUMP JUMPDEST PUSH1 0x40 MLOAD DUP1 SWAP2 SUB SWAP1 REVERT JUMPDEST DUP1 PUSH1 0x2 PUSH1 0x0 DUP5 DUP2 MSTORE PUSH1 0x20 ADD SWAP1 DUP2 MSTORE PUSH1 0x20 ADD PUSH1 0x0 KECCAK256 PUSH1 0x3 ADD PUSH1 0x1 PUSH2 0x100 EXP DUP2 SLOAD DUP2 PUSH1 0xFF MUL NOT AND SWAP1 DUP4 ISZERO ISZERO MUL OR SWAP1 SSTORE POP PUSH1 0x0 PUSH1 0x2 PUSH1 0x0 PUSH1 0x1 SLOAD DUP2 MSTORE PUSH1 0x20 ADD SWAP1 DUP2 MSTORE PUSH1 0x20 ADD PUSH1 0x0 KECCAK256 PUSH1 0x3 ADD PUSH1 0x0 PUSH2 0x100 EXP DUP2 SLOAD DUP2 PUSH1 0xFF MUL NOT AND SWAP1 DUP4 ISZERO ISZERO MUL OR SWAP1 SSTORE POP PUSH1 0x1 PUSH1 0x2 PUSH1 0x0 PUSH1 0x1 SLOAD DUP2 MSTORE PUSH1 0x20 ADD SWAP1 DUP2 MSTORE PUSH1 0x20 ADD PUSH1 0x0 KECCAK256 PUSH1 0x0 ADD PUSH1 0x0 PUSH2 0x100 EXP DUP2 SLOAD DUP2 PUSH1 0xFF MUL NOT AND SWAP1 DUP4 PUSH1 0x1 DUP2 GT ISZERO PUSH2 0x30C JUMPI PUSH2 0x30B PUSH2 0x1123 JUMP JUMPDEST JUMPDEST MUL OR SWAP1 SSTORE POP POP POP JUMP JUMPDEST PUSH1 0x0 PUSH2 0x320 DUP4 PUSH2 0x8F6 JUMP JUMPDEST DUP1 ISZERO PUSH2 0x331 JUMPI POP PUSH2 0x330 DUP3 PUSH2 0x9DD JUMP JUMPDEST JUMPDEST PUSH2 0x370 JUMPI PUSH1 0x40 MLOAD PUSH32 0x8C379A000000000000000000000000000000000000000000000000000000000 DUP2 MSTORE PUSH1 0x4 ADD PUSH2 0x367 SWAP1 PUSH2 0xED8 JUMP JUMPDEST PUSH1 0x40 MLOAD DUP1 SWAP2 SUB SWAP1 REVERT JUMPDEST DUP3 PUSH1 0x2 PUSH1 0x0 PUSH1 0x1 SLOAD DUP2 MSTORE PUSH1 0x20 ADD SWAP1 DUP2 MSTORE PUSH1 0x20 ADD PUSH1 0x0 KECCAK256 PUSH1 0x1 ADD SWAP1 DUP1 MLOAD SWAP1 PUSH1 0x20 ADD SWAP1 PUSH2 0x39C SWAP3 SWAP2 SWAP1 PUSH2 0xB1D JUMP JUMPDEST POP DUP2 PUSH1 0x2 PUSH1 0x0 PUSH1 0x1 SLOAD DUP2 MSTORE PUSH1 0x20 ADD SWAP1 DUP2 MSTORE PUSH1 0x20 ADD PUSH1 0x0 KECCAK256 PUSH1 0x2 ADD SWAP1 DUP1 MLOAD SWAP1 PUSH1 0x20 ADD SWAP1 PUSH2 0x3C9 SWAP3 SWAP2 SWAP1 PUSH2 0xB1D JUMP JUMPDEST POP PUSH1 0x0 PUSH1 0x2 PUSH1 0x0 PUSH1 0x1 SLOAD DUP2 MSTORE PUSH1 0x20 ADD SWAP1 DUP2 MSTORE PUSH1 0x20 ADD PUSH1 0x0 KECCAK256 PUSH1 0x0 ADD PUSH1 0x0 PUSH2 0x100 EXP DUP2 SLOAD DUP2 PUSH1 0xFF MUL NOT AND SWAP1 DUP4 PUSH1 0x1 DUP2 GT ISZERO PUSH2 0x406 JUMPI PUSH2 0x405 PUSH2 0x1123 JUMP JUMPDEST JUMPDEST MUL OR SWAP1 SSTORE POP PUSH1 0x0 PUSH1 0x2 PUSH1 0x0 PUSH1 0x1 SLOAD DUP2 MSTORE PUSH1 0x20 ADD SWAP1 DUP2 MSTORE PUSH1 0x20 ADD PUSH1 0x0 KECCAK256 PUSH1 0x3 ADD PUSH1 0x0 PUSH2 0x100 EXP DUP2 SLOAD DUP2 PUSH1 0xFF MUL NOT AND SWAP1 DUP4 ISZERO ISZERO MUL OR SWAP1 SSTORE POP PUSH1 0x0 PUSH1 0x2 PUSH1 0x0 PUSH1 0x1 SLOAD DUP2 MSTORE PUSH1 0x20 ADD SWAP1 DUP2 MSTORE PUSH1 0x20 ADD PUSH1 0x0 KECCAK256 PUSH1 0x3 ADD PUSH1 0x1 PUSH2 0x100 EXP DUP2 SLOAD DUP2 PUSH1 0xFF MUL NOT AND SWAP1 DUP4 ISZERO ISZERO MUL OR SWAP1 SSTORE POP CALLER PUSH1 0x2 PUSH1 0x0 PUSH1 0x1 SLOAD DUP2 MSTORE PUSH1 0x20 ADD SWAP1 DUP2 MSTORE PUSH1 0x20 ADD PUSH1 0x0 KECCAK256 PUSH1 0x3 ADD PUSH1 0x2 PUSH2 0x100 EXP DUP2 SLOAD DUP2 PUSH20 0xFFFFFFFFFFFFFFFFFFFFFFFFFFFFFFFFFFFFFFFF MUL NOT AND SWAP1 DUP4 PUSH20 0xFFFFFFFFFFFFFFFFFFFFFFFFFFFFFFFFFFFFFFFF AND MUL OR SWAP1 SSTORE POP PUSH1 0x1 PUSH1 0x0 DUP2 SLOAD DUP1 SWAP3 SWAP2 SWAP1 PUSH2 0x4D7 SWAP1 PUSH2 0x10AB JUMP JUMPDEST SWAP2 SWAP1 POP SSTORE POP PUSH1 0x1 SLOAD SWAP1 POP SWAP3 SWAP2 POP POP JUMP JUMPDEST PUSH1 0x1 SLOAD DUP2 JUMP JUMPDEST PUSH1 0x0 DUP1 PUSH1 0x0 SWAP1 SLOAD SWAP1 PUSH2 0x100 EXP SWAP1 DIV PUSH20 0xFFFFFFFFFFFFFFFFFFFFFFFFFFFFFFFFFFFFFFFF AND PUSH20 0xFFFFFFFFFFFFFFFFFFFFFFFFFFFFFFFFFFFFFFFF AND CALLER PUSH20 0xFFFFFFFFFFFFFFFFFFFFFFFFFFFFFFFFFFFFFFFF AND EQ PUSH2 0x57E JUMPI PUSH1 0x40 MLOAD PUSH32 0x8C379A000000000000000000000000000000000000000000000000000000000 DUP2 MSTORE PUSH1 0x4 ADD PUSH2 0x575 SWAP1 PUSH2 0xF18 JUMP JUMPDEST PUSH1 0x40 MLOAD DUP1 SWAP2 SUB SWAP1 REVERT JUMPDEST PUSH1 0x1 SLOAD DUP3 LT PUSH2 0x5C2 JUMPI PUSH1 0x40 MLOAD PUSH32 0x8C379A000000000000000000000000000000000000000000000000000000000 DUP2 MSTORE PUSH1 0x4 ADD PUSH2 0x5B9 SWAP1 PUSH2 0xEB8 JUMP JUMPDEST PUSH1 0x40 MLOAD DUP1 SWAP2 SUB SWAP1 REVERT JUMPDEST PUSH1 0x0 PUSH1 0x2 PUSH1 0x0 DUP5 DUP2 MSTORE PUSH1 0x20 ADD SWAP1 DUP2 MSTORE PUSH1 0x20 ADD PUSH1 0x0 KECCAK256 PUSH1 0x40 MLOAD DUP1 PUSH1 0xC0 ADD PUSH1 0x40 MSTORE SWAP1 DUP2 PUSH1 0x0 DUP3 ADD PUSH1 0x0 SWAP1 SLOAD SWAP1 PUSH2 0x100 EXP SWAP1 DIV PUSH1 0xFF AND PUSH1 0x1 DUP2 GT ISZERO PUSH2 0x607 JUMPI PUSH2 0x606 PUSH2 0x1123 JUMP JUMPDEST JUMPDEST PUSH1 0x1 DUP2 GT ISZERO PUSH2 0x619 JUMPI PUSH2 0x618 PUSH2 0x1123 JUMP JUMPDEST JUMPDEST DUP2 MSTORE PUSH1 0x20 ADD PUSH1 0x1 DUP3 ADD DUP1 SLOAD PUSH2 0x62D SWAP1 PUSH2 0x1048 JUMP JUMPDEST DUP1 PUSH1 0x1F ADD PUSH1 0x20 DUP1 SWAP2 DIV MUL PUSH1 0x20 ADD PUSH1 0x40 MLOAD SWAP1 DUP2 ADD PUSH1 0x40 MSTORE DUP1 SWAP3 SWAP2 SWAP1 DUP2 DUP2 MSTORE PUSH1 0x20 ADD DUP3 DUP1 SLOAD PUSH2 0x659 SWAP1 PUSH2 0x1048 JUMP JUMPDEST DUP1 ISZERO PUSH2 0x6A6 JUMPI DUP1 PUSH1 0x1F LT PUSH2 0x67B JUMPI PUSH2 0x100 DUP1 DUP4 SLOAD DIV MUL DUP4 MSTORE SWAP2 PUSH1 0x20 ADD SWAP2 PUSH2 0x6A6 JUMP JUMPDEST DUP3 ADD SWAP2 SWAP1 PUSH1 0x0 MSTORE PUSH1 0x20 PUSH1 0x0 KECCAK256 SWAP1 JUMPDEST DUP2 SLOAD DUP2 MSTORE SWAP1 PUSH1 0x1 ADD SWAP1 PUSH1 0x20 ADD DUP1 DUP4 GT PUSH2 0x689 JUMPI DUP3 SWAP1 SUB PUSH1 0x1F AND DUP3 ADD SWAP2 JUMPDEST POP POP POP POP POP DUP2 MSTORE PUSH1 0x20 ADD PUSH1 0x2 DUP3 ADD DUP1 SLOAD PUSH2 0x6BF SWAP1 PUSH2 0x1048 JUMP JUMPDEST DUP1 PUSH1 0x1F ADD PUSH1 0x20 DUP1 SWAP2 DIV MUL PUSH1 0x20 ADD PUSH1 0x40 MLOAD SWAP1 DUP2 ADD PUSH1 0x40 MSTORE DUP1 SWAP3 SWAP2 SWAP1 DUP2 DUP2 MSTORE PUSH1 0x20 ADD DUP3 DUP1 SLOAD PUSH2 0x6EB SWAP1 PUSH2 0x1048 JUMP JUMPDEST DUP1 ISZERO PUSH2 0x738 JUMPI DUP1 PUSH1 0x1F LT PUSH2 0x70D JUMPI PUSH2 0x100 DUP1 DUP4 SLOAD DIV MUL DUP4 MSTORE SWAP2 PUSH1 0x20 ADD SWAP2 PUSH2 0x738 JUMP JUMPDEST DUP3 ADD SWAP2 SWAP1 PUSH1 0x0 MSTORE PUSH1 0x20 PUSH1 0x0 KECCAK256 SWAP1 JUMPDEST DUP2 SLOAD DUP2 MSTORE SWAP1 PUSH1 0x1 ADD SWAP1 PUSH1 0x20 ADD DUP1 DUP4 GT PUSH2 0x71B JUMPI DUP3 SWAP1 SUB PUSH1 0x1F AND DUP3 ADD SWAP2 JUMPDEST POP POP POP POP POP DUP2 MSTORE PUSH1 0x20 ADD PUSH1 0x3 DUP3 ADD PUSH1 0x0 SWAP1 SLOAD SWAP1 PUSH2 0x100 EXP SWAP1 DIV PUSH1 0xFF AND ISZERO ISZERO ISZERO ISZERO DUP2 MSTORE PUSH1 0x20 ADD PUSH1 0x3 DUP3 ADD PUSH1 0x1 SWAP1 SLOAD SWAP1 PUSH2 0x100 EXP SWAP1 DIV PUSH1 0xFF AND ISZERO ISZERO ISZERO ISZERO DUP2 MSTORE PUSH1 0x20 ADD PUSH1 0x3 DUP3 ADD PUSH1 0x2 SWAP1 SLOAD SWAP1 PUSH2 0x100 EXP SWAP1 DIV PUSH20 0xFFFFFFFFFFFFFFFFFFFFFFFFFFFFFFFFFFFFFFFF AND PUSH20 0xFFFFFFFFFFFFFFFFFFFFFFFFFFFFFFFFFFFFFFFF AND PUSH20 0xFFFFFFFFFFFFFFFFFFFFFFFFFFFFFFFFFFFFFFFF AND DUP2 MSTORE POP POP SWAP1 POP DUP1 PUSH1 0x80 ADD MLOAD SWAP2 POP POP SWAP2 SWAP1 POP JUMP JUMPDEST PUSH1 0x0 DUP1 PUSH1 0x0 SWAP1 POP JUMPDEST PUSH1 0x1 SLOAD DUP2 LT ISZERO PUSH2 0x8EB JUMPI PUSH2 0x896 PUSH1 0x2 PUSH1 0x0 DUP4 DUP2 MSTORE PUSH1 0x20 ADD SWAP1 DUP2 MSTORE PUSH1 0x20 ADD PUSH1 0x0 KECCAK256 PUSH1 0x1 ADD DUP1 SLOAD PUSH2 0x812 SWAP1 PUSH2 0x1048 JUMP JUMPDEST DUP1 PUSH1 0x1F ADD PUSH1 0x20 DUP1 SWAP2 DIV MUL PUSH1 0x20 ADD PUSH1 0x40 MLOAD SWAP1 DUP2 ADD PUSH1 0x40 MSTORE DUP1 SWAP3 SWAP2 SWAP1 DUP2 DUP2 MSTORE PUSH1 0x20 ADD DUP3 DUP1 SLOAD PUSH2 0x83E SWAP1 PUSH2 0x1048 JUMP JUMPDEST DUP1 ISZERO PUSH2 0x88B JUMPI DUP1 PUSH1 0x1F LT PUSH2 0x860 JUMPI PUSH2 0x100 DUP1 DUP4 SLOAD DIV MUL DUP4 MSTORE SWAP2 PUSH1 0x20 ADD SWAP2 PUSH2 0x88B JUMP JUMPDEST DUP3 ADD SWAP2 SWAP1 PUSH1 0x0 MSTORE PUSH1 0x20 PUSH1 0x0 KECCAK256 SWAP1 JUMPDEST DUP2 SLOAD DUP2 MSTORE SWAP1 PUSH1 0x1 ADD SWAP1 PUSH1 0x20 ADD DUP1 DUP4 GT PUSH2 0x86E JUMPI DUP3 SWAP1 SUB PUSH1 0x1F AND DUP3 ADD SWAP2 JUMPDEST POP POP POP POP POP DUP5 PUSH2 0xAC4 JUMP JUMPDEST DUP1 ISZERO PUSH2 0x8C9 JUMPI POP PUSH1 0x1 ISZERO ISZERO PUSH1 0x2 PUSH1 0x0 DUP4 DUP2 MSTORE PUSH1 0x20 ADD SWAP1 DUP2 MSTORE PUSH1 0x20 ADD PUSH1 0x0 KECCAK256 PUSH1 0x3 ADD PUSH1 0x1 SWAP1 SLOAD SWAP1 PUSH2 0x100 EXP SWAP1 DIV PUSH1 0xFF AND ISZERO ISZERO EQ JUMPDEST ISZERO PUSH2 0x8D8 JUMPI PUSH1 0x1 SWAP2 POP POP PUSH2 0x8F1 JUMP JUMPDEST DUP1 DUP1 PUSH2 0x8E3 SWAP1 PUSH2 0x10AB JUMP JUMPDEST SWAP2 POP POP PUSH2 0x7E4 JUMP JUMPDEST POP PUSH1 0x0 SWAP1 POP JUMPDEST SWAP2 SWAP1 POP JUMP JUMPDEST PUSH1 0x0 DUP1 PUSH1 0x0 SWAP1 POP JUMPDEST PUSH1 0x1 SLOAD DUP2 LT ISZERO PUSH2 0x9D2 JUMPI PUSH2 0x9B0 PUSH1 0x2 PUSH1 0x0 DUP4 DUP2 MSTORE PUSH1 0x20 ADD SWAP1 DUP2 MSTORE PUSH1 0x20 ADD PUSH1 0x0 KECCAK256 PUSH1 0x1 ADD DUP1 SLOAD PUSH2 0x92C SWAP1 PUSH2 0x1048 JUMP JUMPDEST DUP1 PUSH1 0x1F ADD PUSH1 0x20 DUP1 SWAP2 DIV MUL PUSH1 0x20 ADD PUSH1 0x40 MLOAD SWAP1 DUP2 ADD PUSH1 0x40 MSTORE DUP1 SWAP3 SWAP2 SWAP1 DUP2 DUP2 MSTORE PUSH1 0x20 ADD DUP3 DUP1 SLOAD PUSH2 0x958 SWAP1 PUSH2 0x1048 JUMP JUMPDEST DUP1 ISZERO PUSH2 0x9A5 JUMPI DUP1 PUSH1 0x1F LT PUSH2 0x97A JUMPI PUSH2 0x100 DUP1 DUP4 SLOAD DIV MUL DUP4 MSTORE SWAP2 PUSH1 0x20 ADD SWAP2 PUSH2 0x9A5 JUMP JUMPDEST DUP3 ADD SWAP2 SWAP1 PUSH1 0x0 MSTORE PUSH1 0x20 PUSH1 0x0 KECCAK256 SWAP1 JUMPDEST DUP2 SLOAD DUP2 MSTORE SWAP1 PUSH1 0x1 ADD SWAP1 PUSH1 0x20 ADD DUP1 DUP4 GT PUSH2 0x988 JUMPI DUP3 SWAP1 SUB PUSH1 0x1F AND DUP3 ADD SWAP2 JUMPDEST POP POP POP POP POP DUP5 PUSH2 0xAC4 JUMP JUMPDEST ISZERO PUSH2 0x9BF JUMPI PUSH1 0x0 SWAP2 POP POP PUSH2 0x9D8 JUMP JUMPDEST DUP1 DUP1 PUSH2 0x9CA SWAP1 PUSH2 0x10AB JUMP JUMPDEST SWAP2 POP POP PUSH2 0x8FE JUMP JUMPDEST POP PUSH1 0x1 SWAP1 POP JUMPDEST SWAP2 SWAP1 POP JUMP JUMPDEST PUSH1 0x0 DUP1 PUSH1 0x0 SWAP1 POP JUMPDEST PUSH1 0x1 SLOAD DUP2 LT ISZERO PUSH2 0xAB9 JUMPI PUSH2 0xA97 PUSH1 0x2 PUSH1 0x0 DUP4 DUP2 MSTORE PUSH1 0x20 ADD SWAP1 DUP2 MSTORE PUSH1 0x20 ADD PUSH1 0x0 KECCAK256 PUSH1 0x2 ADD DUP1 SLOAD PUSH2 0xA13 SWAP1 PUSH2 0x1048 JUMP JUMPDEST DUP1 PUSH1 0x1F ADD PUSH1 0x20 DUP1 SWAP2 DIV MUL PUSH1 0x20 ADD PUSH1 0x40 MLOAD SWAP1 DUP2 ADD PUSH1 0x40 MSTORE DUP1 SWAP3 SWAP2 SWAP1 DUP2 DUP2 MSTORE PUSH1 0x20 ADD DUP3 DUP1 SLOAD PUSH2 0xA3F SWAP1 PUSH2 0x1048 JUMP JUMPDEST DUP1 ISZERO PUSH2 0xA8C JUMPI DUP1 PUSH1 0x1F LT PUSH2 0xA61 JUMPI PUSH2 0x100 DUP1 DUP4 SLOAD DIV MUL DUP4 MSTORE SWAP2 PUSH1 0x20 ADD SWAP2 PUSH2 0xA8C JUMP JUMPDEST DUP3 ADD SWAP2 SWAP1 PUSH1 0x0 MSTORE PUSH1 0x20 PUSH1 0x0 KECCAK256 SWAP1 JUMPDEST DUP2 SLOAD DUP2 MSTORE SWAP1 PUSH1 0x1 ADD SWAP1 PUSH1 0x20 ADD DUP1 DUP4 GT PUSH2 0xA6F JUMPI DUP3 SWAP1 SUB PUSH1 0x1F AND DUP3 ADD SWAP2 JUMPDEST POP POP POP POP POP DUP5 PUSH2 0xAC4 JUMP JUMPDEST ISZERO PUSH2 0xAA6 JUMPI PUSH1 0x0 SWAP2 POP POP PUSH2 0xABF JUMP JUMPDEST DUP1 DUP1 PUSH2 0xAB1 SWAP1 PUSH2 0x10AB JUMP JUMPDEST SWAP2 POP POP PUSH2 0x9E5 JUMP JUMPDEST POP PUSH1 0x1 SWAP1 POP JUMPDEST SWAP2 SWAP1 POP JUMP JUMPDEST PUSH1 0x0 DUP2 PUSH1 0x40 MLOAD PUSH1 0x20 ADD PUSH2 0xAD7 SWAP2 SWAP1 PUSH2 0xE86 JUMP JUMPDEST PUSH1 0x40 MLOAD PUSH1 0x20 DUP2 DUP4 SUB SUB DUP2 MSTORE SWAP1 PUSH1 0x40 MSTORE DUP1 MLOAD SWAP1 PUSH1 0x20 ADD KECCAK256 DUP4 PUSH1 0x40 MLOAD PUSH1 0x20 ADD PUSH2 0xAFE SWAP2 SWAP1 PUSH2 0xE86 JUMP JUMPDEST PUSH1 0x40 MLOAD PUSH1 0x20 DUP2 DUP4 SUB SUB DUP2 MSTORE SWAP1 PUSH1 0x40 MSTORE DUP1 MLOAD SWAP1 PUSH1 0x20 ADD KECCAK256 EQ SWAP1 POP SWAP3 SWAP2 POP POP JUMP JUMPDEST DUP3 DUP1 SLOAD PUSH2 0xB29 SWAP1 PUSH2 0x1048 JUMP JUMPDEST SWAP1 PUSH1 0x0 MSTORE PUSH1 0x20 PUSH1 0x0 KECCAK256 SWAP1 PUSH1 0x1F ADD PUSH1 0x20 SWAP1 DIV DUP2 ADD SWAP3 DUP3 PUSH2 0xB4B JUMPI PUSH1 0x0 DUP6 SSTORE PUSH2 0xB92 JUMP JUMPDEST DUP3 PUSH1 0x1F LT PUSH2 0xB64 JUMPI DUP1 MLOAD PUSH1 0xFF NOT AND DUP4 DUP1 ADD OR DUP6 SSTORE PUSH2 0xB92 JUMP JUMPDEST DUP3 DUP1 ADD PUSH1 0x1 ADD DUP6 SSTORE DUP3 ISZERO PUSH2 0xB92 JUMPI SWAP2 DUP3 ADD JUMPDEST DUP3 DUP2 GT ISZERO PUSH2 0xB91 JUMPI DUP3 MLOAD DUP3 SSTORE SWAP2 PUSH1 0x20 ADD SWAP2 SWAP1 PUSH1 0x1 ADD SWAP1 PUSH2 0xB76 JUMP JUMPDEST JUMPDEST POP SWAP1 POP PUSH2 0xB9F SWAP2 SWAP1 PUSH2 0xBA3 JUMP JUMPDEST POP SWAP1 JUMP JUMPDEST JUMPDEST DUP1 DUP3 GT ISZERO PUSH2 0xBBC JUMPI PUSH1 0x0 DUP2 PUSH1 0x0 SWAP1 SSTORE POP PUSH1 0x1 ADD PUSH2 0xBA4 JUMP JUMPDEST POP SWAP1 JUMP JUMPDEST PUSH1 0x0 PUSH2 0xBD3 PUSH2 0xBCE DUP5 PUSH2 0xF98 JUMP JUMPDEST PUSH2 0xF73 JUMP JUMPDEST SWAP1 POP DUP3 DUP2 MSTORE PUSH1 0x20 DUP2 ADD DUP5 DUP5 DUP5 ADD GT ISZERO PUSH2 0xBEF JUMPI PUSH2 0xBEE PUSH2 0x11B5 JUMP JUMPDEST JUMPDEST PUSH2 0xBFA DUP5 DUP3 DUP6 PUSH2 0x1006 JUMP JUMPDEST POP SWAP4 SWAP3 POP POP POP JUMP JUMPDEST PUSH1 0x0 DUP2 CALLDATALOAD SWAP1 POP PUSH2 0xC11 DUP2 PUSH2 0x12EE JUMP JUMPDEST SWAP3 SWAP2 POP POP JUMP JUMPDEST PUSH1 0x0 DUP3 PUSH1 0x1F DUP4 ADD SLT PUSH2 0xC2C JUMPI PUSH2 0xC2B PUSH2 0x11B0 JUMP JUMPDEST JUMPDEST DUP2 CALLDATALOAD PUSH2 0xC3C DUP5 DUP3 PUSH1 0x20 DUP7 ADD PUSH2 0xBC0 JUMP JUMPDEST SWAP2 POP POP SWAP3 SWAP2 POP POP JUMP JUMPDEST PUSH1 0x0 DUP2 CALLDATALOAD SWAP1 POP PUSH2 0xC54 DUP2 PUSH2 0x1305 JUMP JUMPDEST SWAP3 SWAP2 POP POP JUMP JUMPDEST PUSH1 0x0 PUSH1 0x20 DUP3 DUP5 SUB SLT ISZERO PUSH2 0xC70 JUMPI PUSH2 0xC6F PUSH2 0x11BF JUMP JUMPDEST JUMPDEST PUSH1 0x0 DUP3 ADD CALLDATALOAD PUSH8 0xFFFFFFFFFFFFFFFF DUP2 GT ISZERO PUSH2 0xC8E JUMPI PUSH2 0xC8D PUSH2 0x11BA JUMP JUMPDEST JUMPDEST PUSH2 0xC9A DUP5 DUP3 DUP6 ADD PUSH2 0xC17 JUMP JUMPDEST SWAP2 POP POP SWAP3 SWAP2 POP POP JUMP JUMPDEST PUSH1 0x0 DUP1 PUSH1 0x40 DUP4 DUP6 SUB SLT ISZERO PUSH2 0xCBA JUMPI PUSH2 0xCB9 PUSH2 0x11BF JUMP JUMPDEST JUMPDEST PUSH1 0x0 DUP4 ADD CALLDATALOAD PUSH8 0xFFFFFFFFFFFFFFFF DUP2 GT ISZERO PUSH2 0xCD8 JUMPI PUSH2 0xCD7 PUSH2 0x11BA JUMP JUMPDEST JUMPDEST PUSH2 0xCE4 DUP6 DUP3 DUP7 ADD PUSH2 0xC17 JUMP JUMPDEST SWAP3 POP POP PUSH1 0x20 DUP4 ADD CALLDATALOAD PUSH8 0xFFFFFFFFFFFFFFFF DUP2 GT ISZERO PUSH2 0xD05 JUMPI PUSH2 0xD04 PUSH2 0x11BA JUMP JUMPDEST JUMPDEST PUSH2 0xD11 DUP6 DUP3 DUP7 ADD PUSH2 0xC17 JUMP JUMPDEST SWAP2 POP POP SWAP3 POP SWAP3 SWAP1 POP JUMP JUMPDEST PUSH1 0x0 PUSH1 0x20 DUP3 DUP5 SUB SLT ISZERO PUSH2 0xD31 JUMPI PUSH2 0xD30 PUSH2 0x11BF JUMP JUMPDEST JUMPDEST PUSH1 0x0 PUSH2 0xD3F DUP5 DUP3 DUP6 ADD PUSH2 0xC45 JUMP JUMPDEST SWAP2 POP POP SWAP3 SWAP2 POP POP JUMP JUMPDEST PUSH1 0x0 DUP1 PUSH1 0x40 DUP4 DUP6 SUB SLT ISZERO PUSH2 0xD5F JUMPI PUSH2 0xD5E PUSH2 0x11BF JUMP JUMPDEST JUMPDEST PUSH1 0x0 PUSH2 0xD6D DUP6 DUP3 DUP7 ADD PUSH2 0xC45 JUMP JUMPDEST SWAP3 POP POP PUSH1 0x20 PUSH2 0xD7E DUP6 DUP3 DUP7 ADD PUSH2 0xC02 JUMP JUMPDEST SWAP2 POP POP SWAP3 POP SWAP3 SWAP1 POP JUMP JUMPDEST PUSH2 0xD91 DUP2 PUSH2 0xFF0 JUMP JUMPDEST DUP3 MSTORE POP POP JUMP JUMPDEST PUSH1 0x0 PUSH2 0xDA2 DUP3 PUSH2 0xFC9 JUMP JUMPDEST PUSH2 0xDAC DUP2 DUP6 PUSH2 0xFE5 JUMP JUMPDEST SWAP4 POP PUSH2 0xDBC DUP2 DUP6 PUSH1 0x20 DUP7 ADD PUSH2 0x1015 JUMP JUMPDEST DUP1 DUP5 ADD SWAP2 POP POP SWAP3 SWAP2 POP POP JUMP JUMPDEST PUSH1 0x0 PUSH2 0xDD5 PUSH1 0x1B DUP4 PUSH2 0xFD4 JUMP JUMPDEST SWAP2 POP PUSH2 0xDE0 DUP3 PUSH2 0x11D5 JUMP JUMPDEST PUSH1 0x20 DUP3 ADD SWAP1 POP SWAP2 SWAP1 POP JUMP JUMPDEST PUSH1 0x0 PUSH2 0xDF8 PUSH1 0x1F DUP4 PUSH2 0xFD4 JUMP JUMPDEST SWAP2 POP PUSH2 0xE03 DUP3 PUSH2 0x11FE JUMP JUMPDEST PUSH1 0x20 DUP3 ADD SWAP1 POP SWAP2 SWAP1 POP JUMP JUMPDEST PUSH1 0x0 PUSH2 0xE1B PUSH1 0x2F DUP4 PUSH2 0xFD4 JUMP JUMPDEST SWAP2 POP PUSH2 0xE26 DUP3 PUSH2 0x1227 JUMP JUMPDEST PUSH1 0x40 DUP3 ADD SWAP1 POP SWAP2 SWAP1 POP JUMP JUMPDEST PUSH1 0x0 PUSH2 0xE3E PUSH1 0x23 DUP4 PUSH2 0xFD4 JUMP JUMPDEST SWAP2 POP PUSH2 0xE49 DUP3 PUSH2 0x1276 JUMP JUMPDEST PUSH1 0x40 DUP3 ADD SWAP1 POP SWAP2 SWAP1 POP JUMP JUMPDEST PUSH1 0x0 PUSH2 0xE61 PUSH1 0x1E DUP4 PUSH2 0xFD4 JUMP JUMPDEST SWAP2 POP PUSH2 0xE6C DUP3 PUSH2 0x12C5 JUMP JUMPDEST PUSH1 0x20 DUP3 ADD SWAP1 POP SWAP2 SWAP1 POP JUMP JUMPDEST PUSH2 0xE80 DUP2 PUSH2 0xFFC JUMP JUMPDEST DUP3 MSTORE POP POP JUMP JUMPDEST PUSH1 0x0 PUSH2 0xE92 DUP3 DUP5 PUSH2 0xD97 JUMP JUMPDEST SWAP2 POP DUP2 SWAP1 POP SWAP3 SWAP2 POP POP JUMP JUMPDEST PUSH1 0x0 PUSH1 0x20 DUP3 ADD SWAP1 POP PUSH2 0xEB2 PUSH1 0x0 DUP4 ADD DUP5 PUSH2 0xD88 JUMP JUMPDEST SWAP3 SWAP2 POP POP JUMP JUMPDEST PUSH1 0x0 PUSH1 0x20 DUP3 ADD SWAP1 POP DUP2 DUP2 SUB PUSH1 0x0 DUP4 ADD MSTORE PUSH2 0xED1 DUP2 PUSH2 0xDC8 JUMP JUMPDEST SWAP1 POP SWAP2 SWAP1 POP JUMP JUMPDEST PUSH1 0x0 PUSH1 0x20 DUP3 ADD SWAP1 POP DUP2 DUP2 SUB PUSH1 0x0 DUP4 ADD MSTORE PUSH2 0xEF1 DUP2 PUSH2 0xDEB JUMP JUMPDEST SWAP1 POP SWAP2 SWAP1 POP JUMP JUMPDEST PUSH1 0x0 PUSH1 0x20 DUP3 ADD SWAP1 POP DUP2 DUP2 SUB PUSH1 0x0 DUP4 ADD MSTORE PUSH2 0xF11 DUP2 PUSH2 0xE0E JUMP JUMPDEST SWAP1 POP SWAP2 SWAP1 POP JUMP JUMPDEST PUSH1 0x0 PUSH1 0x20 DUP3 ADD SWAP1 POP DUP2 DUP2 SUB PUSH1 0x0 DUP4 ADD MSTORE PUSH2 0xF31 DUP2 PUSH2 0xE31 JUMP JUMPDEST SWAP1 POP SWAP2 SWAP1 POP JUMP JUMPDEST PUSH1 0x0 PUSH1 0x20 DUP3 ADD SWAP1 POP DUP2 DUP2 SUB PUSH1 0x0 DUP4 ADD MSTORE PUSH2 0xF51 DUP2 PUSH2 0xE54 JUMP JUMPDEST SWAP1 POP SWAP2 SWAP1 POP JUMP JUMPDEST PUSH1 0x0 PUSH1 0x20 DUP3 ADD SWAP1 POP PUSH2 0xF6D PUSH1 0x0 DUP4 ADD DUP5 PUSH2 0xE77 JUMP JUMPDEST SWAP3 SWAP2 POP POP JUMP JUMPDEST PUSH1 0x0 PUSH2 0xF7D PUSH2 0xF8E JUMP JUMPDEST SWAP1 POP PUSH2 0xF89 DUP3 DUP3 PUSH2 0x107A JUMP JUMPDEST SWAP2 SWAP1 POP JUMP JUMPDEST PUSH1 0x0 PUSH1 0x40 MLOAD SWAP1 POP SWAP1 JUMP JUMPDEST PUSH1 0x0 PUSH8 0xFFFFFFFFFFFFFFFF DUP3 GT ISZERO PUSH2 0xFB3 JUMPI PUSH2 0xFB2 PUSH2 0x1181 JUMP JUMPDEST JUMPDEST PUSH2 0xFBC DUP3 PUSH2 0x11C4 JUMP JUMPDEST SWAP1 POP PUSH1 0x20 DUP2 ADD SWAP1 POP SWAP2 SWAP1 POP JUMP JUMPDEST PUSH1 0x0 DUP2 MLOAD SWAP1 POP SWAP2 SWAP1 POP JUMP JUMPDEST PUSH1 0x0 DUP3 DUP3 MSTORE PUSH1 0x20 DUP3 ADD SWAP1 POP SWAP3 SWAP2 POP POP JUMP JUMPDEST PUSH1 0x0 DUP2 SWAP1 POP SWAP3 SWAP2 POP POP JUMP JUMPDEST PUSH1 0x0 DUP2 ISZERO ISZERO SWAP1 POP SWAP2 SWAP1 POP JUMP JUMPDEST PUSH1 0x0 DUP2 SWAP1 POP SWAP2 SWAP1 POP JUMP JUMPDEST DUP3 DUP2 DUP4 CALLDATACOPY PUSH1 0x0 DUP4 DUP4 ADD MSTORE POP POP POP JUMP JUMPDEST PUSH1 0x0 JUMPDEST DUP4 DUP2 LT ISZERO PUSH2 0x1033 JUMPI DUP1 DUP3 ADD MLOAD DUP2 DUP5 ADD MSTORE PUSH1 0x20 DUP2 ADD SWAP1 POP PUSH2 0x1018 JUMP JUMPDEST DUP4 DUP2 GT ISZERO PUSH2 0x1042 JUMPI PUSH1 0x0 DUP5 DUP5 ADD MSTORE JUMPDEST POP POP POP POP JUMP JUMPDEST PUSH1 0x0 PUSH1 0x2 DUP3 DIV SWAP1 POP PUSH1 0x1 DUP3 AND DUP1 PUSH2 0x1060 JUMPI PUSH1 0x7F DUP3 AND SWAP2 POP JUMPDEST PUSH1 0x20 DUP3 LT DUP2 EQ ISZERO PUSH2 0x1074 JUMPI PUSH2 0x1073 PUSH2 0x1152 JUMP JUMPDEST JUMPDEST POP SWAP2 SWAP1 POP JUMP JUMPDEST PUSH2 0x1083 DUP3 PUSH2 0x11C4 JUMP JUMPDEST DUP2 ADD DUP2 DUP2 LT PUSH8 0xFFFFFFFFFFFFFFFF DUP3 GT OR ISZERO PUSH2 0x10A2 JUMPI PUSH2 0x10A1 PUSH2 0x1181 JUMP JUMPDEST JUMPDEST DUP1 PUSH1 0x40 MSTORE POP POP POP JUMP JUMPDEST PUSH1 0x0 PUSH2 0x10B6 DUP3 PUSH2 0xFFC JUMP JUMPDEST SWAP2 POP PUSH32 0xFFFFFFFFFFFFFFFFFFFFFFFFFFFFFFFFFFFFFFFFFFFFFFFFFFFFFFFFFFFFFFFF DUP3 EQ ISZERO PUSH2 0x10E9 JUMPI PUSH2 0x10E8 PUSH2 0x10F4 JUMP JUMPDEST JUMPDEST PUSH1 0x1 DUP3 ADD SWAP1 POP SWAP2 SWAP1 POP JUMP JUMPDEST PUSH32 0x4E487B7100000000000000000000000000000000000000000000000000000000 PUSH1 0x0 MSTORE PUSH1 0x11 PUSH1 0x4 MSTORE PUSH1 0x24 PUSH1 0x0 REVERT JUMPDEST PUSH32 0x4E487B7100000000000000000000000000000000000000000000000000000000 PUSH1 0x0 MSTORE PUSH1 0x21 PUSH1 0x4 MSTORE PUSH1 0x24 PUSH1 0x0 REVERT JUMPDEST PUSH32 0x4E487B7100000000000000000000000000000000000000000000000000000000 PUSH1 0x0 MSTORE PUSH1 0x22 PUSH1 0x4 MSTORE PUSH1 0x24 PUSH1 0x0 REVERT JUMPDEST PUSH32 0x4E487B7100000000000000000000000000000000000000000000000000000000 PUSH1 0x0 MSTORE PUSH1 0x41 PUSH1 0x4 MSTORE PUSH1 0x24 PUSH1 0x0 REVERT JUMPDEST PUSH1 0x0 DUP1 REVERT JUMPDEST PUSH1 0x0 DUP1 REVERT JUMPDEST PUSH1 0x0 DUP1 REVERT JUMPDEST PUSH1 0x0 DUP1 REVERT JUMPDEST PUSH1 0x0 PUSH1 0x1F NOT PUSH1 0x1F DUP4 ADD AND SWAP1 POP SWAP2 SWAP1 POP JUMP JUMPDEST PUSH32 0x54686973204944206F66204E465420646F6E2774206578697374730000000000 PUSH1 0x0 DUP3 ADD MSTORE POP JUMP JUMPDEST PUSH32 0x556E61626C6520746F207265706561742074686520646574656374696F6E2100 PUSH1 0x0 DUP3 ADD MSTORE POP JUMP JUMPDEST PUSH32 0x546865204E465420646F6573206E6F74206D6565742074686520646574656374 PUSH1 0x0 DUP3 ADD MSTORE PUSH32 0x696F6E20636F6E646974696F6E73210000000000000000000000000000000000 PUSH1 0x20 DUP3 ADD MSTORE POP JUMP JUMPDEST PUSH32 0x4F6E6C79206F776E65722063616E20636865636B20746865204E465420627920 PUSH1 0x0 DUP3 ADD MSTORE PUSH32 0x4944210000000000000000000000000000000000000000000000000000000000 PUSH1 0x20 DUP3 ADD MSTORE POP JUMP JUMPDEST PUSH32 0x4F6E6C79206F776E65722063616E2064657465637420746865204E4654210000 PUSH1 0x0 DUP3 ADD MSTORE POP JUMP JUMPDEST PUSH2 0x12F7 DUP2 PUSH2 0xFF0 JUMP JUMPDEST DUP2 EQ PUSH2 0x1302 JUMPI PUSH1 0x0 DUP1 REVERT JUMPDEST POP JUMP JUMPDEST PUSH2 0x130E DUP2 PUSH2 0xFFC JUMP JUMPDEST DUP2 EQ PUSH2 0x1319 JUMPI PUSH1 0x0 DUP1 REVERT JUMPDEST POP JUMP INVALID LOG2 PUSH5 0x6970667358 0x22 SLT KECCAK256 0xEF 0xB3 0xA6 RETURN DUP4 PUSH19 0x487B48720450E6AAFC3BB95C09D10875757884 ISZERO 0xE2 STATICCALL PUSH1 0x7 SMOD JUMPDEST PUSH5 0x736F6C6343 STOP ADDMOD SMOD STOP CALLER "
				},
				"gasEstimates": {
					"creation": {
						"codeDepositCost": "989200",
						"executionCost": "30299",
						"totalCost": "1019499"
					},
					"external": {
						"ID()": "2451",
						"checkNFTByHash(string)": "infinite",
						"checkNFTByID(uint256)": "infinite",
						"detectNFT(uint256,bool)": "84611",
						"uploadNFT(string,string)": "infinite"
					},
					"internal": {
						"compareStrings(string memory,string memory)": "infinite",
						"hashIsExists(string memory)": "infinite",
						"ipfsIsExists(string memory)": "infinite"
					}
				},
				"methodIdentifiers": {
					"ID()": "b3cea217",
					"checkNFTByHash(string)": "d0aeae96",
					"checkNFTByID(uint256)": "b5e3029f",
					"detectNFT(uint256,bool)": "1c5a3e52",
					"uploadNFT(string,string)": "3a4f2d24"
				}
			},
			"userdoc": {
				"kind": "user",
				"methods": {},
				"version": 1
			}
		}
	}
}