{
	"contracts/oracle.sol": {
		"NFTOracle": {
			"abi": [
				{
					"inputs": [],
					"stateMutability": "nonpayable",
					"type": "constructor"
				},
				{
					"anonymous": false,
					"inputs": [
						{
							"indexed": true,
							"internalType": "address",
							"name": "previousOwner",
							"type": "address"
						},
						{
							"indexed": true,
							"internalType": "address",
							"name": "newOwner",
							"type": "address"
						}
					],
					"name": "OwnershipTransferred",
					"type": "event"
				},
				{
					"inputs": [],
					"name": "ID",
					"outputs": [
						{
							"internalType": "uint256",
							"name": "",
							"type": "uint256"
						}
					],
					"stateMutability": "view",
					"type": "function"
				},
				{
					"inputs": [
						{
							"internalType": "string",
							"name": "_hash",
							"type": "string"
						}
					],
					"name": "checkNFTByHash",
					"outputs": [
						{
							"internalType": "bool",
							"name": "",
							"type": "bool"
						}
					],
					"stateMutability": "view",
					"type": "function"
				},
				{
					"inputs": [
						{
							"internalType": "uint256",
							"name": "_ID",
							"type": "uint256"
						}
					],
					"name": "checkNFTByID",
					"outputs": [
						{
							"internalType": "bool",
							"name": "",
							"type": "bool"
						}
					],
					"stateMutability": "view",
					"type": "function"
				},
				{
					"inputs": [
						{
							"internalType": "uint256",
							"name": "_ID",
							"type": "uint256"
						},
						{
							"internalType": "bool",
							"name": "_result",
							"type": "bool"
						}
					],
					"name": "detectNFT",
					"outputs": [],
					"stateMutability": "nonpayable",
					"type": "function"
				},
				{
					"inputs": [],
					"name": "owner",
					"outputs": [
						{
							"internalType": "address",
							"name": "",
							"type": "address"
						}
					],
					"stateMutability": "view",
					"type": "function"
				},
				{
					"inputs": [],
					"name": "renounceOwnership",
					"outputs": [],
					"stateMutability": "nonpayable",
					"type": "function"
				},
				{
					"inputs": [
						{
							"internalType": "address",
							"name": "newOwner",
							"type": "address"
						}
					],
					"name": "transferOwnership",
					"outputs": [],
					"stateMutability": "nonpayable",
					"type": "function"
				},
				{
					"inputs": [
						{
							"internalType": "string",
							"name": "_hash",
							"type": "string"
						},
						{
							"internalType": "string",
							"name": "_ipfs",
							"type": "string"
						}
					],
					"name": "uploadNFT",
					"outputs": [
						{
							"internalType": "uint256",
							"name": "",
							"type": "uint256"
						}
					],
					"stateMutability": "nonpayable",
					"type": "function"
				}
			],
			"devdoc": {
				"kind": "dev",
				"methods": {
					"owner()": {
						"details": "Returns the address of the current owner."
					},
					"renounceOwnership()": {
						"details": "Leaves the contract without owner. It will not be possible to call `onlyOwner` functions anymore. Can only be called by the current owner. NOTE: Renouncing ownership will leave the contract without an owner, thereby removing any functionality that is only available to the owner."
					},
					"transferOwnership(address)": {
						"details": "Transfers ownership of the contract to a new account (`newOwner`). Can only be called by the current owner."
					}
				},
				"version": 1
			},
			"evm": {
				"assembly": "    /* \"contracts/oracle.sol\":132:2978  contract NFTOracle is Ownable{\r... */\n  mstore(0x40, 0x80)\n    /* \"contracts/oracle.sol\":554:555  0 */\n  0x00\n    /* \"contracts/oracle.sol\":537:555  uint public ID = 0 */\n  0x01\n  sstore\n    /* \"contracts/oracle.sol\":202:227  constructor ()  {\r... */\n  callvalue\n  dup1\n  iszero\n  tag_1\n  jumpi\n  0x00\n  dup1\n  revert\ntag_1:\n  pop\n    /* \"@openzeppelin/contracts/access/Ownable.sol\":921:953  _transferOwnership(_msgSender()) */\n  tag_5\n    /* \"@openzeppelin/contracts/access/Ownable.sol\":940:952  _msgSender() */\n  tag_6\n    /* \"@openzeppelin/contracts/access/Ownable.sol\":940:950  _msgSender */\n  shl(0x20, tag_7)\n    /* \"@openzeppelin/contracts/access/Ownable.sol\":940:952  _msgSender() */\n  0x20\n  shr\n  jump\t// in\ntag_6:\n    /* \"@openzeppelin/contracts/access/Ownable.sol\":921:939  _transferOwnership */\n  shl(0x20, tag_8)\n    /* \"@openzeppelin/contracts/access/Ownable.sol\":921:953  _transferOwnership(_msgSender()) */\n  0x20\n  shr\n  jump\t// in\ntag_5:\n    /* \"contracts/oracle.sol\":132:2978  contract NFTOracle is Ownable{\r... */\n  jump(tag_10)\n    /* \"@openzeppelin/contracts/utils/Context.sol\":640:736  function _msgSender() internal view virtual returns (address) {... */\ntag_7:\n    /* \"@openzeppelin/contracts/utils/Context.sol\":693:700  address */\n  0x00\n    /* \"@openzeppelin/contracts/utils/Context.sol\":719:729  msg.sender */\n  caller\n    /* \"@openzeppelin/contracts/utils/Context.sol\":712:729  return msg.sender */\n  swap1\n  pop\n    /* \"@openzeppelin/contracts/utils/Context.sol\":640:736  function _msgSender() internal view virtual returns (address) {... */\n  swap1\n  jump\t// out\n    /* \"@openzeppelin/contracts/access/Ownable.sol\":2270:2457  function _transferOwnership(address newOwner) internal virtual {... */\ntag_8:\n    /* \"@openzeppelin/contracts/access/Ownable.sol\":2343:2359  address oldOwner */\n  0x00\n    /* \"@openzeppelin/contracts/access/Ownable.sol\":2362:2368  _owner */\n  dup1\n  0x00\n  swap1\n  sload\n  swap1\n  0x0100\n  exp\n  swap1\n  div\n  0xffffffffffffffffffffffffffffffffffffffff\n  and\n    /* \"@openzeppelin/contracts/access/Ownable.sol\":2343:2368  address oldOwner = _owner */\n  swap1\n  pop\n    /* \"@openzeppelin/contracts/access/Ownable.sol\":2387:2395  newOwner */\n  dup2\n    /* \"@openzeppelin/contracts/access/Ownable.sol\":2378:2384  _owner */\n  0x00\n  dup1\n    /* \"@openzeppelin/contracts/access/Ownable.sol\":2378:2395  _owner = newOwner */\n  0x0100\n  exp\n  dup2\n  sload\n  dup2\n  0xffffffffffffffffffffffffffffffffffffffff\n  mul\n  not\n  and\n  swap1\n  dup4\n  0xffffffffffffffffffffffffffffffffffffffff\n  and\n  mul\n  or\n  swap1\n  sstore\n  pop\n    /* \"@openzeppelin/contracts/access/Ownable.sol\":2441:2449  newOwner */\n  dup2\n    /* \"@openzeppelin/contracts/access/Ownable.sol\":2410:2450  OwnershipTransferred(oldOwner, newOwner) */\n  0xffffffffffffffffffffffffffffffffffffffff\n  and\n    /* \"@openzeppelin/contracts/access/Ownable.sol\":2431:2439  oldOwner */\n  dup2\n    /* \"@openzeppelin/contracts/access/Ownable.sol\":2410:2450  OwnershipTransferred(oldOwner, newOwner) */\n  0xffffffffffffffffffffffffffffffffffffffff\n  and\n  0x8be0079c531659141344cd1fd0a4f28419497f9722a3daafe3b4186f6b6457e0\n  mload(0x40)\n  mload(0x40)\n  dup1\n  swap2\n  sub\n  swap1\n  log3\n    /* \"@openzeppelin/contracts/access/Ownable.sol\":2333:2457  {... */\n  pop\n    /* \"@openzeppelin/contracts/access/Ownable.sol\":2270:2457  function _transferOwnership(address newOwner) internal virtual {... */\n  pop\n  jump\t// out\n    /* \"contracts/oracle.sol\":132:2978  contract NFTOracle is Ownable{\r... */\ntag_10:\n  dataSize(sub_0)\n  dup1\n  dataOffset(sub_0)\n  0x00\n  codecopy\n  0x00\n  return\nstop\n\nsub_0: assembly {\n        /* \"contracts/oracle.sol\":132:2978  contract NFTOracle is Ownable{\r... */\n      mstore(0x40, 0x80)\n      callvalue\n      dup1\n      iszero\n      tag_1\n      jumpi\n      0x00\n      dup1\n      revert\n    tag_1:\n      pop\n      jumpi(tag_2, lt(calldatasize, 0x04))\n      shr(0xe0, calldataload(0x00))\n      dup1\n      0xb3cea217\n      gt\n      tag_11\n      jumpi\n      dup1\n      0xb3cea217\n      eq\n      tag_7\n      jumpi\n      dup1\n      0xb5e3029f\n      eq\n      tag_8\n      jumpi\n      dup1\n      0xd0aeae96\n      eq\n      tag_9\n      jumpi\n      dup1\n      0xf2fde38b\n      eq\n      tag_10\n      jumpi\n      jump(tag_2)\n    tag_11:\n      dup1\n      0x1c5a3e52\n      eq\n      tag_3\n      jumpi\n      dup1\n      0x3a4f2d24\n      eq\n      tag_4\n      jumpi\n      dup1\n      0x715018a6\n      eq\n      tag_5\n      jumpi\n      dup1\n      0x8da5cb5b\n      eq\n      tag_6\n      jumpi\n    tag_2:\n      0x00\n      dup1\n      revert\n        /* \"contracts/oracle.sol\":1799:2194  function detectNFT(uint _ID,bool _result) public onlyOwner{\r... */\n    tag_3:\n      tag_12\n      0x04\n      dup1\n      calldatasize\n      sub\n      dup2\n      add\n      swap1\n      tag_13\n      swap2\n      swap1\n      tag_14\n      jump\t// in\n    tag_13:\n      tag_15\n      jump\t// in\n    tag_12:\n      stop\n        /* \"contracts/oracle.sol\":1331:1762  function uploadNFT(string memory _hash,string memory _ipfs)  public returns(uint256){\r... */\n    tag_4:\n      tag_16\n      0x04\n      dup1\n      calldatasize\n      sub\n      dup2\n      add\n      swap1\n      tag_17\n      swap2\n      swap1\n      tag_18\n      jump\t// in\n    tag_17:\n      tag_19\n      jump\t// in\n    tag_16:\n      mload(0x40)\n      tag_20\n      swap2\n      swap1\n      tag_21\n      jump\t// in\n    tag_20:\n      mload(0x40)\n      dup1\n      swap2\n      sub\n      swap1\n      return\n        /* \"@openzeppelin/contracts/access/Ownable.sol\":1668:1769  function renounceOwnership() public virtual onlyOwner {... */\n    tag_5:\n      tag_22\n      tag_23\n      jump\t// in\n    tag_22:\n      stop\n        /* \"@openzeppelin/contracts/access/Ownable.sol\":1036:1121  function owner() public view virtual returns (address) {... */\n    tag_6:\n      tag_24\n      tag_25\n      jump\t// in\n    tag_24:\n      mload(0x40)\n      tag_26\n      swap2\n      swap1\n      tag_27\n      jump\t// in\n    tag_26:\n      mload(0x40)\n      dup1\n      swap2\n      sub\n      swap1\n      return\n        /* \"contracts/oracle.sol\":537:555  uint public ID = 0 */\n    tag_7:\n      tag_28\n      tag_29\n      jump\t// in\n    tag_28:\n      mload(0x40)\n      tag_30\n      swap2\n      swap1\n      tag_21\n      jump\t// in\n    tag_30:\n      mload(0x40)\n      dup1\n      swap2\n      sub\n      swap1\n      return\n        /* \"contracts/oracle.sol\":1044:1305  function checkNFTByID(uint _ID) public view returns(bool){\r... */\n    tag_8:\n      tag_31\n      0x04\n      dup1\n      calldatasize\n      sub\n      dup2\n      add\n      swap1\n      tag_32\n      swap2\n      swap1\n      tag_33\n      jump\t// in\n    tag_32:\n      tag_34\n      jump\t// in\n    tag_31:\n      mload(0x40)\n      tag_35\n      swap2\n      swap1\n      tag_36\n      jump\t// in\n    tag_35:\n      mload(0x40)\n      dup1\n      swap2\n      sub\n      swap1\n      return\n        /* \"contracts/oracle.sol\":708:972  function checkNFTByHash(string memory _hash) public view returns(bool) {\r... */\n    tag_9:\n      tag_37\n      0x04\n      dup1\n      calldatasize\n      sub\n      dup2\n      add\n      swap1\n      tag_38\n      swap2\n      swap1\n      tag_39\n      jump\t// in\n    tag_38:\n      tag_40\n      jump\t// in\n    tag_37:\n      mload(0x40)\n      tag_41\n      swap2\n      swap1\n      tag_36\n      jump\t// in\n    tag_41:\n      mload(0x40)\n      dup1\n      swap2\n      sub\n      swap1\n      return\n        /* \"@openzeppelin/contracts/access/Ownable.sol\":1918:2116  function transferOwnership(address newOwner) public virtual onlyOwner {... */\n    tag_10:\n      tag_42\n      0x04\n      dup1\n      calldatasize\n      sub\n      dup2\n      add\n      swap1\n      tag_43\n      swap2\n      swap1\n      tag_44\n      jump\t// in\n    tag_43:\n      tag_45\n      jump\t// in\n    tag_42:\n      stop\n        /* \"contracts/oracle.sol\":1799:2194  function detectNFT(uint _ID,bool _result) public onlyOwner{\r... */\n    tag_15:\n        /* \"@openzeppelin/contracts/access/Ownable.sol\":1259:1271  _msgSender() */\n      tag_47\n        /* \"@openzeppelin/contracts/access/Ownable.sol\":1259:1269  _msgSender */\n      tag_48\n        /* \"@openzeppelin/contracts/access/Ownable.sol\":1259:1271  _msgSender() */\n      jump\t// in\n    tag_47:\n        /* \"@openzeppelin/contracts/access/Ownable.sol\":1248:1271  owner() == _msgSender() */\n      0xffffffffffffffffffffffffffffffffffffffff\n      and\n        /* \"@openzeppelin/contracts/access/Ownable.sol\":1248:1255  owner() */\n      tag_49\n        /* \"@openzeppelin/contracts/access/Ownable.sol\":1248:1253  owner */\n      tag_25\n        /* \"@openzeppelin/contracts/access/Ownable.sol\":1248:1255  owner() */\n      jump\t// in\n    tag_49:\n        /* \"@openzeppelin/contracts/access/Ownable.sol\":1248:1271  owner() == _msgSender() */\n      0xffffffffffffffffffffffffffffffffffffffff\n      and\n      eq\n        /* \"@openzeppelin/contracts/access/Ownable.sol\":1240:1308  require(owner() == _msgSender(), \"Ownable: caller is not the owner\") */\n      tag_50\n      jumpi\n      mload(0x40)\n      0x08c379a000000000000000000000000000000000000000000000000000000000\n      dup2\n      mstore\n      0x04\n      add\n      tag_51\n      swap1\n      tag_52\n      jump\t// in\n    tag_51:\n      mload(0x40)\n      dup1\n      swap2\n      sub\n      swap1\n      revert\n    tag_50:\n        /* \"contracts/oracle.sol\":1973:1978  false */\n      0x00\n        /* \"contracts/oracle.sol\":1951:1978  nfts[_ID].isDetected==false */\n      iszero\n      iszero\n        /* \"contracts/oracle.sol\":1951:1955  nfts */\n      0x02\n        /* \"contracts/oracle.sol\":1951:1960  nfts[_ID] */\n      0x00\n        /* \"contracts/oracle.sol\":1956:1959  _ID */\n      dup5\n        /* \"contracts/oracle.sol\":1951:1960  nfts[_ID] */\n      dup2\n      mstore\n      0x20\n      add\n      swap1\n      dup2\n      mstore\n      0x20\n      add\n      0x00\n      keccak256\n        /* \"contracts/oracle.sol\":1951:1971  nfts[_ID].isDetected */\n      0x03\n      add\n      0x00\n      swap1\n      sload\n      swap1\n      0x0100\n      exp\n      swap1\n      div\n      0xff\n      and\n        /* \"contracts/oracle.sol\":1951:1978  nfts[_ID].isDetected==false */\n      iszero\n      iszero\n      eq\n        /* \"contracts/oracle.sol\":1951:2016  nfts[_ID].isDetected==false&&nfts[_ID].state==NFTState.Undetected */\n      dup1\n      iszero\n      tag_54\n      jumpi\n      pop\n        /* \"contracts/oracle.sol\":1997:2016  NFTState.Undetected */\n      0x00\n        /* \"contracts/oracle.sol\":1980:2016  nfts[_ID].state==NFTState.Undetected */\n      0x01\n      dup2\n      gt\n      iszero\n      tag_55\n      jumpi\n      tag_56\n      tag_57\n      jump\t// in\n    tag_56:\n    tag_55:\n        /* \"contracts/oracle.sol\":1980:1984  nfts */\n      0x02\n        /* \"contracts/oracle.sol\":1980:1989  nfts[_ID] */\n      0x00\n        /* \"contracts/oracle.sol\":1985:1988  _ID */\n      dup5\n        /* \"contracts/oracle.sol\":1980:1989  nfts[_ID] */\n      dup2\n      mstore\n      0x20\n      add\n      swap1\n      dup2\n      mstore\n      0x20\n      add\n      0x00\n      keccak256\n        /* \"contracts/oracle.sol\":1980:1995  nfts[_ID].state */\n      0x00\n      add\n      0x00\n      swap1\n      sload\n      swap1\n      0x0100\n      exp\n      swap1\n      div\n      0xff\n      and\n        /* \"contracts/oracle.sol\":1980:2016  nfts[_ID].state==NFTState.Undetected */\n      0x01\n      dup2\n      gt\n      iszero\n      tag_58\n      jumpi\n      tag_59\n      tag_57\n      jump\t// in\n    tag_59:\n    tag_58:\n      eq\n        /* \"contracts/oracle.sol\":1951:2016  nfts[_ID].isDetected==false&&nfts[_ID].state==NFTState.Undetected */\n    tag_54:\n        /* \"contracts/oracle.sol\":1943:2067  require(nfts[_ID].isDetected==false&&nfts[_ID].state==NFTState.Undetected,\"The NFT does not meet the detection conditions!\") */\n      tag_60\n      jumpi\n      mload(0x40)\n      0x08c379a000000000000000000000000000000000000000000000000000000000\n      dup2\n      mstore\n      0x04\n      add\n      tag_61\n      swap1\n      tag_62\n      jump\t// in\n    tag_61:\n      mload(0x40)\n      dup1\n      swap2\n      sub\n      swap1\n      revert\n    tag_60:\n        /* \"contracts/oracle.sol\":2097:2104  _result */\n      dup1\n        /* \"contracts/oracle.sol\":2078:2082  nfts */\n      0x02\n        /* \"contracts/oracle.sol\":2078:2087  nfts[_ID] */\n      0x00\n        /* \"contracts/oracle.sol\":2083:2086  _ID */\n      dup5\n        /* \"contracts/oracle.sol\":2078:2087  nfts[_ID] */\n      dup2\n      mstore\n      0x20\n      add\n      swap1\n      dup2\n      mstore\n      0x20\n      add\n      0x00\n      keccak256\n        /* \"contracts/oracle.sol\":2078:2094  nfts[_ID].result */\n      0x03\n      add\n      0x01\n        /* \"contracts/oracle.sol\":2078:2104  nfts[_ID].result = _result */\n      0x0100\n      exp\n      dup2\n      sload\n      dup2\n      0xff\n      mul\n      not\n      and\n      swap1\n      dup4\n      iszero\n      iszero\n      mul\n      or\n      swap1\n      sstore\n      pop\n        /* \"contracts/oracle.sol\":2137:2142  false */\n      0x00\n        /* \"contracts/oracle.sol\":2115:2119  nfts */\n      0x02\n        /* \"contracts/oracle.sol\":2115:2123  nfts[ID] */\n      0x00\n        /* \"contracts/oracle.sol\":2120:2122  ID */\n      sload(0x01)\n        /* \"contracts/oracle.sol\":2115:2123  nfts[ID] */\n      dup2\n      mstore\n      0x20\n      add\n      swap1\n      dup2\n      mstore\n      0x20\n      add\n      0x00\n      keccak256\n        /* \"contracts/oracle.sol\":2115:2134  nfts[ID].isDetected */\n      0x03\n      add\n      0x00\n        /* \"contracts/oracle.sol\":2115:2142  nfts[ID].isDetected = false */\n      0x0100\n      exp\n      dup2\n      sload\n      dup2\n      0xff\n      mul\n      not\n      and\n      swap1\n      dup4\n      iszero\n      iszero\n      mul\n      or\n      swap1\n      sstore\n      pop\n        /* \"contracts/oracle.sol\":2170:2187  NFTState.Detected */\n      0x01\n        /* \"contracts/oracle.sol\":2153:2157  nfts */\n      0x02\n        /* \"contracts/oracle.sol\":2153:2161  nfts[ID] */\n      0x00\n        /* \"contracts/oracle.sol\":2158:2160  ID */\n      sload(0x01)\n        /* \"contracts/oracle.sol\":2153:2161  nfts[ID] */\n      dup2\n      mstore\n      0x20\n      add\n      swap1\n      dup2\n      mstore\n      0x20\n      add\n      0x00\n      keccak256\n        /* \"contracts/oracle.sol\":2153:2167  nfts[ID].state */\n      0x00\n      add\n      0x00\n        /* \"contracts/oracle.sol\":2153:2187  nfts[ID].state = NFTState.Detected */\n      0x0100\n      exp\n      dup2\n      sload\n      dup2\n      0xff\n      mul\n      not\n      and\n      swap1\n      dup4\n      0x01\n      dup2\n      gt\n      iszero\n      tag_63\n      jumpi\n      tag_64\n      tag_57\n      jump\t// in\n    tag_64:\n    tag_63:\n      mul\n      or\n      swap1\n      sstore\n      pop\n        /* \"contracts/oracle.sol\":1799:2194  function detectNFT(uint _ID,bool _result) public onlyOwner{\r... */\n      pop\n      pop\n      jump\t// out\n        /* \"contracts/oracle.sol\":1331:1762  function uploadNFT(string memory _hash,string memory _ipfs)  public returns(uint256){\r... */\n    tag_19:\n        /* \"contracts/oracle.sol\":1407:1414  uint256 */\n      0x00\n        /* \"contracts/oracle.sol\":1433:1452  hashIsExists(_hash) */\n      tag_66\n        /* \"contracts/oracle.sol\":1446:1451  _hash */\n      dup4\n        /* \"contracts/oracle.sol\":1433:1445  hashIsExists */\n      tag_67\n        /* \"contracts/oracle.sol\":1433:1452  hashIsExists(_hash) */\n      jump\t// in\n    tag_66:\n        /* \"contracts/oracle.sol\":1433:1473  hashIsExists(_hash)&&ipfsIsExists(_ipfs) */\n      dup1\n      iszero\n      tag_68\n      jumpi\n      pop\n        /* \"contracts/oracle.sol\":1454:1473  ipfsIsExists(_ipfs) */\n      tag_69\n        /* \"contracts/oracle.sol\":1467:1472  _ipfs */\n      dup3\n        /* \"contracts/oracle.sol\":1454:1466  ipfsIsExists */\n      tag_70\n        /* \"contracts/oracle.sol\":1454:1473  ipfsIsExists(_ipfs) */\n      jump\t// in\n    tag_69:\n        /* \"contracts/oracle.sol\":1433:1473  hashIsExists(_hash)&&ipfsIsExists(_ipfs) */\n    tag_68:\n        /* \"contracts/oracle.sol\":1425:1508  require(hashIsExists(_hash)&&ipfsIsExists(_ipfs),\"Unable to repeat the detection!\") */\n      tag_71\n      jumpi\n      mload(0x40)\n      0x08c379a000000000000000000000000000000000000000000000000000000000\n      dup2\n      mstore\n      0x04\n      add\n      tag_72\n      swap1\n      tag_73\n      jump\t// in\n    tag_72:\n      mload(0x40)\n      dup1\n      swap2\n      sub\n      swap1\n      revert\n    tag_71:\n        /* \"contracts/oracle.sol\":1534:1539  _hash */\n      dup3\n        /* \"contracts/oracle.sol\":1518:1522  nfts */\n      0x02\n        /* \"contracts/oracle.sol\":1518:1526  nfts[ID] */\n      0x00\n        /* \"contracts/oracle.sol\":1523:1525  ID */\n      sload(0x01)\n        /* \"contracts/oracle.sol\":1518:1526  nfts[ID] */\n      dup2\n      mstore\n      0x20\n      add\n      swap1\n      dup2\n      mstore\n      0x20\n      add\n      0x00\n      keccak256\n        /* \"contracts/oracle.sol\":1518:1531  nfts[ID].hash */\n      0x01\n      add\n        /* \"contracts/oracle.sol\":1518:1539  nfts[ID].hash = _hash */\n      swap1\n      dup1\n      mload\n      swap1\n      0x20\n      add\n      swap1\n      tag_74\n      swap3\n      swap2\n      swap1\n      tag_75\n      jump\t// in\n    tag_74:\n      pop\n        /* \"contracts/oracle.sol\":1565:1570  _ipfs */\n      dup2\n        /* \"contracts/oracle.sol\":1549:1553  nfts */\n      0x02\n        /* \"contracts/oracle.sol\":1549:1557  nfts[ID] */\n      0x00\n        /* \"contracts/oracle.sol\":1554:1556  ID */\n      sload(0x01)\n        /* \"contracts/oracle.sol\":1549:1557  nfts[ID] */\n      dup2\n      mstore\n      0x20\n      add\n      swap1\n      dup2\n      mstore\n      0x20\n      add\n      0x00\n      keccak256\n        /* \"contracts/oracle.sol\":1549:1562  nfts[ID].IPFS */\n      0x02\n      add\n        /* \"contracts/oracle.sol\":1549:1570  nfts[ID].IPFS = _ipfs */\n      swap1\n      dup1\n      mload\n      swap1\n      0x20\n      add\n      swap1\n      tag_76\n      swap3\n      swap2\n      swap1\n      tag_75\n      jump\t// in\n    tag_76:\n      pop\n        /* \"contracts/oracle.sol\":1597:1616  NFTState.Undetected */\n      0x00\n        /* \"contracts/oracle.sol\":1580:1584  nfts */\n      0x02\n        /* \"contracts/oracle.sol\":1580:1588  nfts[ID] */\n      0x00\n        /* \"contracts/oracle.sol\":1585:1587  ID */\n      sload(0x01)\n        /* \"contracts/oracle.sol\":1580:1588  nfts[ID] */\n      dup2\n      mstore\n      0x20\n      add\n      swap1\n      dup2\n      mstore\n      0x20\n      add\n      0x00\n      keccak256\n        /* \"contracts/oracle.sol\":1580:1594  nfts[ID].state */\n      0x00\n      add\n      0x00\n        /* \"contracts/oracle.sol\":1580:1616  nfts[ID].state = NFTState.Undetected */\n      0x0100\n      exp\n      dup2\n      sload\n      dup2\n      0xff\n      mul\n      not\n      and\n      swap1\n      dup4\n      0x01\n      dup2\n      gt\n      iszero\n      tag_77\n      jumpi\n      tag_78\n      tag_57\n      jump\t// in\n    tag_78:\n    tag_77:\n      mul\n      or\n      swap1\n      sstore\n      pop\n        /* \"contracts/oracle.sol\":1649:1654  false */\n      0x00\n        /* \"contracts/oracle.sol\":1627:1631  nfts */\n      0x02\n        /* \"contracts/oracle.sol\":1627:1635  nfts[ID] */\n      0x00\n        /* \"contracts/oracle.sol\":1632:1634  ID */\n      sload(0x01)\n        /* \"contracts/oracle.sol\":1627:1635  nfts[ID] */\n      dup2\n      mstore\n      0x20\n      add\n      swap1\n      dup2\n      mstore\n      0x20\n      add\n      0x00\n      keccak256\n        /* \"contracts/oracle.sol\":1627:1646  nfts[ID].isDetected */\n      0x03\n      add\n      0x00\n        /* \"contracts/oracle.sol\":1627:1654  nfts[ID].isDetected = false */\n      0x0100\n      exp\n      dup2\n      sload\n      dup2\n      0xff\n      mul\n      not\n      and\n      swap1\n      dup4\n      iszero\n      iszero\n      mul\n      or\n      swap1\n      sstore\n      pop\n        /* \"contracts/oracle.sol\":1682:1687  false */\n      0x00\n        /* \"contracts/oracle.sol\":1664:1668  nfts */\n      0x02\n        /* \"contracts/oracle.sol\":1664:1672  nfts[ID] */\n      0x00\n        /* \"contracts/oracle.sol\":1669:1671  ID */\n      sload(0x01)\n        /* \"contracts/oracle.sol\":1664:1672  nfts[ID] */\n      dup2\n      mstore\n      0x20\n      add\n      swap1\n      dup2\n      mstore\n      0x20\n      add\n      0x00\n      keccak256\n        /* \"contracts/oracle.sol\":1664:1679  nfts[ID].result */\n      0x03\n      add\n      0x01\n        /* \"contracts/oracle.sol\":1664:1687  nfts[ID].result = false */\n      0x0100\n      exp\n      dup2\n      sload\n      dup2\n      0xff\n      mul\n      not\n      and\n      swap1\n      dup4\n      iszero\n      iszero\n      mul\n      or\n      swap1\n      sstore\n      pop\n        /* \"contracts/oracle.sol\":1717:1727  msg.sender */\n      caller\n        /* \"contracts/oracle.sol\":1697:1701  nfts */\n      0x02\n        /* \"contracts/oracle.sol\":1697:1705  nfts[ID] */\n      0x00\n        /* \"contracts/oracle.sol\":1702:1704  ID */\n      sload(0x01)\n        /* \"contracts/oracle.sol\":1697:1705  nfts[ID] */\n      dup2\n      mstore\n      0x20\n      add\n      swap1\n      dup2\n      mstore\n      0x20\n      add\n      0x00\n      keccak256\n        /* \"contracts/oracle.sol\":1697:1714  nfts[ID].uploader */\n      0x03\n      add\n      0x02\n        /* \"contracts/oracle.sol\":1697:1727  nfts[ID].uploader = msg.sender */\n      0x0100\n      exp\n      dup2\n      sload\n      dup2\n      0xffffffffffffffffffffffffffffffffffffffff\n      mul\n      not\n      and\n      swap1\n      dup4\n      0xffffffffffffffffffffffffffffffffffffffff\n      and\n      mul\n      or\n      swap1\n      sstore\n      pop\n        /* \"contracts/oracle.sol\":1745:1746  1 */\n      0x01\n        /* \"contracts/oracle.sol\":1742:1744  ID */\n      dup1\n      sload\n        /* \"contracts/oracle.sol\":1742:1746  ID+1 */\n      tag_79\n      swap2\n      swap1\n      tag_80\n      jump\t// in\n    tag_79:\n        /* \"contracts/oracle.sol\":1737:1739  ID */\n      0x01\n        /* \"contracts/oracle.sol\":1737:1746  ID = ID+1 */\n      dup2\n      swap1\n      sstore\n      pop\n        /* \"contracts/oracle.sol\":1331:1762  function uploadNFT(string memory _hash,string memory _ipfs)  public returns(uint256){\r... */\n      swap3\n      swap2\n      pop\n      pop\n      jump\t// out\n        /* \"@openzeppelin/contracts/access/Ownable.sol\":1668:1769  function renounceOwnership() public virtual onlyOwner {... */\n    tag_23:\n        /* \"@openzeppelin/contracts/access/Ownable.sol\":1259:1271  _msgSender() */\n      tag_82\n        /* \"@openzeppelin/contracts/access/Ownable.sol\":1259:1269  _msgSender */\n      tag_48\n        /* \"@openzeppelin/contracts/access/Ownable.sol\":1259:1271  _msgSender() */\n      jump\t// in\n    tag_82:\n        /* \"@openzeppelin/contracts/access/Ownable.sol\":1248:1271  owner() == _msgSender() */\n      0xffffffffffffffffffffffffffffffffffffffff\n      and\n        /* \"@openzeppelin/contracts/access/Ownable.sol\":1248:1255  owner() */\n      tag_83\n        /* \"@openzeppelin/contracts/access/Ownable.sol\":1248:1253  owner */\n      tag_25\n        /* \"@openzeppelin/contracts/access/Ownable.sol\":1248:1255  owner() */\n      jump\t// in\n    tag_83:\n        /* \"@openzeppelin/contracts/access/Ownable.sol\":1248:1271  owner() == _msgSender() */\n      0xffffffffffffffffffffffffffffffffffffffff\n      and\n      eq\n        /* \"@openzeppelin/contracts/access/Ownable.sol\":1240:1308  require(owner() == _msgSender(), \"Ownable: caller is not the owner\") */\n      tag_84\n      jumpi\n      mload(0x40)\n      0x08c379a000000000000000000000000000000000000000000000000000000000\n      dup2\n      mstore\n      0x04\n      add\n      tag_85\n      swap1\n      tag_52\n      jump\t// in\n    tag_85:\n      mload(0x40)\n      dup1\n      swap2\n      sub\n      swap1\n      revert\n    tag_84:\n        /* \"@openzeppelin/contracts/access/Ownable.sol\":1732:1762  _transferOwnership(address(0)) */\n      tag_87\n        /* \"@openzeppelin/contracts/access/Ownable.sol\":1759:1760  0 */\n      0x00\n        /* \"@openzeppelin/contracts/access/Ownable.sol\":1732:1750  _transferOwnership */\n      tag_88\n        /* \"@openzeppelin/contracts/access/Ownable.sol\":1732:1762  _transferOwnership(address(0)) */\n      jump\t// in\n    tag_87:\n        /* \"@openzeppelin/contracts/access/Ownable.sol\":1668:1769  function renounceOwnership() public virtual onlyOwner {... */\n      jump\t// out\n        /* \"@openzeppelin/contracts/access/Ownable.sol\":1036:1121  function owner() public view virtual returns (address) {... */\n    tag_25:\n        /* \"@openzeppelin/contracts/access/Ownable.sol\":1082:1089  address */\n      0x00\n        /* \"@openzeppelin/contracts/access/Ownable.sol\":1108:1114  _owner */\n      dup1\n      0x00\n      swap1\n      sload\n      swap1\n      0x0100\n      exp\n      swap1\n      div\n      0xffffffffffffffffffffffffffffffffffffffff\n      and\n        /* \"@openzeppelin/contracts/access/Ownable.sol\":1101:1114  return _owner */\n      swap1\n      pop\n        /* \"@openzeppelin/contracts/access/Ownable.sol\":1036:1121  function owner() public view virtual returns (address) {... */\n      swap1\n      jump\t// out\n        /* \"contracts/oracle.sol\":537:555  uint public ID = 0 */\n    tag_29:\n      sload(0x01)\n      dup2\n      jump\t// out\n        /* \"contracts/oracle.sol\":1044:1305  function checkNFTByID(uint _ID) public view returns(bool){\r... */\n    tag_34:\n        /* \"contracts/oracle.sol\":1096:1100  bool */\n      0x00\n        /* \"contracts/oracle.sol\":1202:1204  ID */\n      sload(0x01)\n        /* \"contracts/oracle.sol\":1198:1201  _ID */\n      dup3\n        /* \"contracts/oracle.sol\":1198:1204  _ID<ID */\n      lt\n        /* \"contracts/oracle.sol\":1190:1235  require(_ID<ID,\"This ID of NFT don't exists\") */\n      tag_91\n      jumpi\n      mload(0x40)\n      0x08c379a000000000000000000000000000000000000000000000000000000000\n      dup2\n      mstore\n      0x04\n      add\n      tag_92\n      swap1\n      tag_93\n      jump\t// in\n    tag_92:\n      mload(0x40)\n      dup1\n      swap2\n      sub\n      swap1\n      revert\n    tag_91:\n        /* \"contracts/oracle.sol\":1245:1259  NFT memory nft */\n      0x00\n        /* \"contracts/oracle.sol\":1262:1266  nfts */\n      0x02\n        /* \"contracts/oracle.sol\":1262:1271  nfts[_ID] */\n      0x00\n        /* \"contracts/oracle.sol\":1267:1270  _ID */\n      dup5\n        /* \"contracts/oracle.sol\":1262:1271  nfts[_ID] */\n      dup2\n      mstore\n      0x20\n      add\n      swap1\n      dup2\n      mstore\n      0x20\n      add\n      0x00\n      keccak256\n        /* \"contracts/oracle.sol\":1245:1271  NFT memory nft = nfts[_ID] */\n      mload(0x40)\n      dup1\n      0xc0\n      add\n      0x40\n      mstore\n      swap1\n      dup2\n      0x00\n      dup3\n      add\n      0x00\n      swap1\n      sload\n      swap1\n      0x0100\n      exp\n      swap1\n      div\n      0xff\n      and\n      0x01\n      dup2\n      gt\n      iszero\n      tag_94\n      jumpi\n      tag_95\n      tag_57\n      jump\t// in\n    tag_95:\n    tag_94:\n      0x01\n      dup2\n      gt\n      iszero\n      tag_96\n      jumpi\n      tag_97\n      tag_57\n      jump\t// in\n    tag_97:\n    tag_96:\n      dup2\n      mstore\n      0x20\n      add\n      0x01\n      dup3\n      add\n      dup1\n      sload\n      tag_98\n      swap1\n      tag_99\n      jump\t// in\n    tag_98:\n      dup1\n      0x1f\n      add\n      0x20\n      dup1\n      swap2\n      div\n      mul\n      0x20\n      add\n      mload(0x40)\n      swap1\n      dup2\n      add\n      0x40\n      mstore\n      dup1\n      swap3\n      swap2\n      swap1\n      dup2\n      dup2\n      mstore\n      0x20\n      add\n      dup3\n      dup1\n      sload\n      tag_100\n      swap1\n      tag_99\n      jump\t// in\n    tag_100:\n      dup1\n      iszero\n      tag_101\n      jumpi\n      dup1\n      0x1f\n      lt\n      tag_102\n      jumpi\n      0x0100\n      dup1\n      dup4\n      sload\n      div\n      mul\n      dup4\n      mstore\n      swap2\n      0x20\n      add\n      swap2\n      jump(tag_101)\n    tag_102:\n      dup3\n      add\n      swap2\n      swap1\n      0x00\n      mstore\n      keccak256(0x00, 0x20)\n      swap1\n    tag_103:\n      dup2\n      sload\n      dup2\n      mstore\n      swap1\n      0x01\n      add\n      swap1\n      0x20\n      add\n      dup1\n      dup4\n      gt\n      tag_103\n      jumpi\n      dup3\n      swap1\n      sub\n      0x1f\n      and\n      dup3\n      add\n      swap2\n    tag_101:\n      pop\n      pop\n      pop\n      pop\n      pop\n      dup2\n      mstore\n      0x20\n      add\n      0x02\n      dup3\n      add\n      dup1\n      sload\n      tag_104\n      swap1\n      tag_99\n      jump\t// in\n    tag_104:\n      dup1\n      0x1f\n      add\n      0x20\n      dup1\n      swap2\n      div\n      mul\n      0x20\n      add\n      mload(0x40)\n      swap1\n      dup2\n      add\n      0x40\n      mstore\n      dup1\n      swap3\n      swap2\n      swap1\n      dup2\n      dup2\n      mstore\n      0x20\n      add\n      dup3\n      dup1\n      sload\n      tag_105\n      swap1\n      tag_99\n      jump\t// in\n    tag_105:\n      dup1\n      iszero\n      tag_106\n      jumpi\n      dup1\n      0x1f\n      lt\n      tag_107\n      jumpi\n      0x0100\n      dup1\n      dup4\n      sload\n      div\n      mul\n      dup4\n      mstore\n      swap2\n      0x20\n      add\n      swap2\n      jump(tag_106)\n    tag_107:\n      dup3\n      add\n      swap2\n      swap1\n      0x00\n      mstore\n      keccak256(0x00, 0x20)\n      swap1\n    tag_108:\n      dup2\n      sload\n      dup2\n      mstore\n      swap1\n      0x01\n      add\n      swap1\n      0x20\n      add\n      dup1\n      dup4\n      gt\n      tag_108\n      jumpi\n      dup3\n      swap1\n      sub\n      0x1f\n      and\n      dup3\n      add\n      swap2\n    tag_106:\n      pop\n      pop\n      pop\n      pop\n      pop\n      dup2\n      mstore\n      0x20\n      add\n      0x03\n      dup3\n      add\n      0x00\n      swap1\n      sload\n      swap1\n      0x0100\n      exp\n      swap1\n      div\n      0xff\n      and\n      iszero\n      iszero\n      iszero\n      iszero\n      dup2\n      mstore\n      0x20\n      add\n      0x03\n      dup3\n      add\n      0x01\n      swap1\n      sload\n      swap1\n      0x0100\n      exp\n      swap1\n      div\n      0xff\n      and\n      iszero\n      iszero\n      iszero\n      iszero\n      dup2\n      mstore\n      0x20\n      add\n      0x03\n      dup3\n      add\n      0x02\n      swap1\n      sload\n      swap1\n      0x0100\n      exp\n      swap1\n      div\n      0xffffffffffffffffffffffffffffffffffffffff\n      and\n      0xffffffffffffffffffffffffffffffffffffffff\n      and\n      0xffffffffffffffffffffffffffffffffffffffff\n      and\n      dup2\n      mstore\n      pop\n      pop\n      swap1\n      pop\n        /* \"contracts/oracle.sol\":1288:1291  nft */\n      dup1\n        /* \"contracts/oracle.sol\":1288:1298  nft.result */\n      0x80\n      add\n      mload\n        /* \"contracts/oracle.sol\":1281:1298  return nft.result */\n      swap2\n      pop\n      pop\n        /* \"contracts/oracle.sol\":1044:1305  function checkNFTByID(uint _ID) public view returns(bool){\r... */\n      swap2\n      swap1\n      pop\n      jump\t// out\n        /* \"contracts/oracle.sol\":708:972  function checkNFTByHash(string memory _hash) public view returns(bool) {\r... */\n    tag_40:\n        /* \"contracts/oracle.sol\":773:777  bool */\n      0x00\n        /* \"contracts/oracle.sol\":793:799  uint i */\n      dup1\n        /* \"contracts/oracle.sol\":800:801  0 */\n      0x00\n        /* \"contracts/oracle.sol\":793:801  uint i=0 */\n      swap1\n      pop\n        /* \"contracts/oracle.sol\":789:943  for(uint i=0;i<ID;i++){\r... */\n    tag_110:\n        /* \"contracts/oracle.sol\":804:806  ID */\n      sload(0x01)\n        /* \"contracts/oracle.sol\":802:803  i */\n      dup2\n        /* \"contracts/oracle.sol\":802:806  i<ID */\n      lt\n        /* \"contracts/oracle.sol\":789:943  for(uint i=0;i<ID;i++){\r... */\n      iszero\n      tag_111\n      jumpi\n        /* \"contracts/oracle.sol\":829:863  compareStrings(nfts[i].hash,_hash) */\n      tag_113\n        /* \"contracts/oracle.sol\":844:848  nfts */\n      0x02\n        /* \"contracts/oracle.sol\":844:851  nfts[i] */\n      0x00\n        /* \"contracts/oracle.sol\":849:850  i */\n      dup4\n        /* \"contracts/oracle.sol\":844:851  nfts[i] */\n      dup2\n      mstore\n      0x20\n      add\n      swap1\n      dup2\n      mstore\n      0x20\n      add\n      0x00\n      keccak256\n        /* \"contracts/oracle.sol\":844:856  nfts[i].hash */\n      0x01\n      add\n        /* \"contracts/oracle.sol\":829:863  compareStrings(nfts[i].hash,_hash) */\n      dup1\n      sload\n      tag_114\n      swap1\n      tag_99\n      jump\t// in\n    tag_114:\n      dup1\n      0x1f\n      add\n      0x20\n      dup1\n      swap2\n      div\n      mul\n      0x20\n      add\n      mload(0x40)\n      swap1\n      dup2\n      add\n      0x40\n      mstore\n      dup1\n      swap3\n      swap2\n      swap1\n      dup2\n      dup2\n      mstore\n      0x20\n      add\n      dup3\n      dup1\n      sload\n      tag_115\n      swap1\n      tag_99\n      jump\t// in\n    tag_115:\n      dup1\n      iszero\n      tag_116\n      jumpi\n      dup1\n      0x1f\n      lt\n      tag_117\n      jumpi\n      0x0100\n      dup1\n      dup4\n      sload\n      div\n      mul\n      dup4\n      mstore\n      swap2\n      0x20\n      add\n      swap2\n      jump(tag_116)\n    tag_117:\n      dup3\n      add\n      swap2\n      swap1\n      0x00\n      mstore\n      keccak256(0x00, 0x20)\n      swap1\n    tag_118:\n      dup2\n      sload\n      dup2\n      mstore\n      swap1\n      0x01\n      add\n      swap1\n      0x20\n      add\n      dup1\n      dup4\n      gt\n      tag_118\n      jumpi\n      dup3\n      swap1\n      sub\n      0x1f\n      and\n      dup3\n      add\n      swap2\n    tag_116:\n      pop\n      pop\n      pop\n      pop\n      pop\n        /* \"contracts/oracle.sol\":857:862  _hash */\n      dup5\n        /* \"contracts/oracle.sol\":829:843  compareStrings */\n      tag_119\n        /* \"contracts/oracle.sol\":829:863  compareStrings(nfts[i].hash,_hash) */\n      jump\t// in\n    tag_113:\n        /* \"contracts/oracle.sol\":829:885  compareStrings(nfts[i].hash,_hash)&&nfts[i].result==true */\n      dup1\n      iszero\n      tag_120\n      jumpi\n      pop\n        /* \"contracts/oracle.sol\":881:885  true */\n      0x01\n        /* \"contracts/oracle.sol\":865:885  nfts[i].result==true */\n      iszero\n      iszero\n        /* \"contracts/oracle.sol\":865:869  nfts */\n      0x02\n        /* \"contracts/oracle.sol\":865:872  nfts[i] */\n      0x00\n        /* \"contracts/oracle.sol\":870:871  i */\n      dup4\n        /* \"contracts/oracle.sol\":865:872  nfts[i] */\n      dup2\n      mstore\n      0x20\n      add\n      swap1\n      dup2\n      mstore\n      0x20\n      add\n      0x00\n      keccak256\n        /* \"contracts/oracle.sol\":865:879  nfts[i].result */\n      0x03\n      add\n      0x01\n      swap1\n      sload\n      swap1\n      0x0100\n      exp\n      swap1\n      div\n      0xff\n      and\n        /* \"contracts/oracle.sol\":865:885  nfts[i].result==true */\n      iszero\n      iszero\n      eq\n        /* \"contracts/oracle.sol\":829:885  compareStrings(nfts[i].hash,_hash)&&nfts[i].result==true */\n    tag_120:\n        /* \"contracts/oracle.sol\":826:932  if(compareStrings(nfts[i].hash,_hash)&&nfts[i].result==true){\r... */\n      iszero\n      tag_121\n      jumpi\n        /* \"contracts/oracle.sol\":912:916  true */\n      0x01\n        /* \"contracts/oracle.sol\":905:916  return true */\n      swap2\n      pop\n      pop\n      jump(tag_109)\n        /* \"contracts/oracle.sol\":826:932  if(compareStrings(nfts[i].hash,_hash)&&nfts[i].result==true){\r... */\n    tag_121:\n        /* \"contracts/oracle.sol\":807:810  i++ */\n      dup1\n      dup1\n      tag_122\n      swap1\n      tag_123\n      jump\t// in\n    tag_122:\n      swap2\n      pop\n      pop\n        /* \"contracts/oracle.sol\":789:943  for(uint i=0;i<ID;i++){\r... */\n      jump(tag_110)\n    tag_111:\n      pop\n        /* \"contracts/oracle.sol\":960:965  false */\n      0x00\n        /* \"contracts/oracle.sol\":953:965  return false */\n      swap1\n      pop\n        /* \"contracts/oracle.sol\":708:972  function checkNFTByHash(string memory _hash) public view returns(bool) {\r... */\n    tag_109:\n      swap2\n      swap1\n      pop\n      jump\t// out\n        /* \"@openzeppelin/contracts/access/Ownable.sol\":1918:2116  function transferOwnership(address newOwner) public virtual onlyOwner {... */\n    tag_45:\n        /* \"@openzeppelin/contracts/access/Ownable.sol\":1259:1271  _msgSender() */\n      tag_125\n        /* \"@openzeppelin/contracts/access/Ownable.sol\":1259:1269  _msgSender */\n      tag_48\n        /* \"@openzeppelin/contracts/access/Ownable.sol\":1259:1271  _msgSender() */\n      jump\t// in\n    tag_125:\n        /* \"@openzeppelin/contracts/access/Ownable.sol\":1248:1271  owner() == _msgSender() */\n      0xffffffffffffffffffffffffffffffffffffffff\n      and\n        /* \"@openzeppelin/contracts/access/Ownable.sol\":1248:1255  owner() */\n      tag_126\n        /* \"@openzeppelin/contracts/access/Ownable.sol\":1248:1253  owner */\n      tag_25\n        /* \"@openzeppelin/contracts/access/Ownable.sol\":1248:1255  owner() */\n      jump\t// in\n    tag_126:\n        /* \"@openzeppelin/contracts/access/Ownable.sol\":1248:1271  owner() == _msgSender() */\n      0xffffffffffffffffffffffffffffffffffffffff\n      and\n      eq\n        /* \"@openzeppelin/contracts/access/Ownable.sol\":1240:1308  require(owner() == _msgSender(), \"Ownable: caller is not the owner\") */\n      tag_127\n      jumpi\n      mload(0x40)\n      0x08c379a000000000000000000000000000000000000000000000000000000000\n      dup2\n      mstore\n      0x04\n      add\n      tag_128\n      swap1\n      tag_52\n      jump\t// in\n    tag_128:\n      mload(0x40)\n      dup1\n      swap2\n      sub\n      swap1\n      revert\n    tag_127:\n        /* \"@openzeppelin/contracts/access/Ownable.sol\":2026:2027  0 */\n      0x00\n        /* \"@openzeppelin/contracts/access/Ownable.sol\":2006:2028  newOwner != address(0) */\n      0xffffffffffffffffffffffffffffffffffffffff\n      and\n        /* \"@openzeppelin/contracts/access/Ownable.sol\":2006:2014  newOwner */\n      dup2\n        /* \"@openzeppelin/contracts/access/Ownable.sol\":2006:2028  newOwner != address(0) */\n      0xffffffffffffffffffffffffffffffffffffffff\n      and\n      eq\n      iszero\n        /* \"@openzeppelin/contracts/access/Ownable.sol\":1998:2071  require(newOwner != address(0), \"Ownable: new owner is the zero address\") */\n      tag_130\n      jumpi\n      mload(0x40)\n      0x08c379a000000000000000000000000000000000000000000000000000000000\n      dup2\n      mstore\n      0x04\n      add\n      tag_131\n      swap1\n      tag_132\n      jump\t// in\n    tag_131:\n      mload(0x40)\n      dup1\n      swap2\n      sub\n      swap1\n      revert\n    tag_130:\n        /* \"@openzeppelin/contracts/access/Ownable.sol\":2081:2109  _transferOwnership(newOwner) */\n      tag_133\n        /* \"@openzeppelin/contracts/access/Ownable.sol\":2100:2108  newOwner */\n      dup2\n        /* \"@openzeppelin/contracts/access/Ownable.sol\":2081:2099  _transferOwnership */\n      tag_88\n        /* \"@openzeppelin/contracts/access/Ownable.sol\":2081:2109  _transferOwnership(newOwner) */\n      jump\t// in\n    tag_133:\n        /* \"@openzeppelin/contracts/access/Ownable.sol\":1918:2116  function transferOwnership(address newOwner) public virtual onlyOwner {... */\n      pop\n      jump\t// out\n        /* \"@openzeppelin/contracts/utils/Context.sol\":640:736  function _msgSender() internal view virtual returns (address) {... */\n    tag_48:\n        /* \"@openzeppelin/contracts/utils/Context.sol\":693:700  address */\n      0x00\n        /* \"@openzeppelin/contracts/utils/Context.sol\":719:729  msg.sender */\n      caller\n        /* \"@openzeppelin/contracts/utils/Context.sol\":712:729  return msg.sender */\n      swap1\n      pop\n        /* \"@openzeppelin/contracts/utils/Context.sol\":640:736  function _msgSender() internal view virtual returns (address) {... */\n      swap1\n      jump\t// out\n        /* \"contracts/oracle.sol\":2281:2524  function  hashIsExists(string memory _hash) private view returns(bool){\r... */\n    tag_67:\n        /* \"contracts/oracle.sol\":2346:2350  bool */\n      0x00\n        /* \"contracts/oracle.sol\":2366:2372  uint i */\n      dup1\n        /* \"contracts/oracle.sol\":2373:2374  0 */\n      0x00\n        /* \"contracts/oracle.sol\":2366:2374  uint i=0 */\n      swap1\n      pop\n        /* \"contracts/oracle.sol\":2362:2495  for(uint i=0;i<ID;i++){\r... */\n    tag_136:\n        /* \"contracts/oracle.sol\":2377:2379  ID */\n      sload(0x01)\n        /* \"contracts/oracle.sol\":2375:2376  i */\n      dup2\n        /* \"contracts/oracle.sol\":2375:2379  i<ID */\n      lt\n        /* \"contracts/oracle.sol\":2362:2495  for(uint i=0;i<ID;i++){\r... */\n      iszero\n      tag_137\n      jumpi\n        /* \"contracts/oracle.sol\":2402:2436  compareStrings(nfts[i].hash,_hash) */\n      tag_139\n        /* \"contracts/oracle.sol\":2417:2421  nfts */\n      0x02\n        /* \"contracts/oracle.sol\":2417:2424  nfts[i] */\n      0x00\n        /* \"contracts/oracle.sol\":2422:2423  i */\n      dup4\n        /* \"contracts/oracle.sol\":2417:2424  nfts[i] */\n      dup2\n      mstore\n      0x20\n      add\n      swap1\n      dup2\n      mstore\n      0x20\n      add\n      0x00\n      keccak256\n        /* \"contracts/oracle.sol\":2417:2429  nfts[i].hash */\n      0x01\n      add\n        /* \"contracts/oracle.sol\":2402:2436  compareStrings(nfts[i].hash,_hash) */\n      dup1\n      sload\n      tag_140\n      swap1\n      tag_99\n      jump\t// in\n    tag_140:\n      dup1\n      0x1f\n      add\n      0x20\n      dup1\n      swap2\n      div\n      mul\n      0x20\n      add\n      mload(0x40)\n      swap1\n      dup2\n      add\n      0x40\n      mstore\n      dup1\n      swap3\n      swap2\n      swap1\n      dup2\n      dup2\n      mstore\n      0x20\n      add\n      dup3\n      dup1\n      sload\n      tag_141\n      swap1\n      tag_99\n      jump\t// in\n    tag_141:\n      dup1\n      iszero\n      tag_142\n      jumpi\n      dup1\n      0x1f\n      lt\n      tag_143\n      jumpi\n      0x0100\n      dup1\n      dup4\n      sload\n      div\n      mul\n      dup4\n      mstore\n      swap2\n      0x20\n      add\n      swap2\n      jump(tag_142)\n    tag_143:\n      dup3\n      add\n      swap2\n      swap1\n      0x00\n      mstore\n      keccak256(0x00, 0x20)\n      swap1\n    tag_144:\n      dup2\n      sload\n      dup2\n      mstore\n      swap1\n      0x01\n      add\n      swap1\n      0x20\n      add\n      dup1\n      dup4\n      gt\n      tag_144\n      jumpi\n      dup3\n      swap1\n      sub\n      0x1f\n      and\n      dup3\n      add\n      swap2\n    tag_142:\n      pop\n      pop\n      pop\n      pop\n      pop\n        /* \"contracts/oracle.sol\":2430:2435  _hash */\n      dup5\n        /* \"contracts/oracle.sol\":2402:2416  compareStrings */\n      tag_119\n        /* \"contracts/oracle.sol\":2402:2436  compareStrings(nfts[i].hash,_hash) */\n      jump\t// in\n    tag_139:\n        /* \"contracts/oracle.sol\":2399:2484  if(compareStrings(nfts[i].hash,_hash)){\r... */\n      iszero\n      tag_145\n      jumpi\n        /* \"contracts/oracle.sol\":2463:2468  false */\n      0x00\n        /* \"contracts/oracle.sol\":2456:2468  return false */\n      swap2\n      pop\n      pop\n      jump(tag_135)\n        /* \"contracts/oracle.sol\":2399:2484  if(compareStrings(nfts[i].hash,_hash)){\r... */\n    tag_145:\n        /* \"contracts/oracle.sol\":2380:2383  i++ */\n      dup1\n      dup1\n      tag_146\n      swap1\n      tag_123\n      jump\t// in\n    tag_146:\n      swap2\n      pop\n      pop\n        /* \"contracts/oracle.sol\":2362:2495  for(uint i=0;i<ID;i++){\r... */\n      jump(tag_136)\n    tag_137:\n      pop\n        /* \"contracts/oracle.sol\":2512:2516  true */\n      0x01\n        /* \"contracts/oracle.sol\":2505:2516  return true */\n      swap1\n      pop\n        /* \"contracts/oracle.sol\":2281:2524  function  hashIsExists(string memory _hash) private view returns(bool){\r... */\n    tag_135:\n      swap2\n      swap1\n      pop\n      jump\t// out\n        /* \"contracts/oracle.sol\":2530:2772  function ipfsIsExists(string memory _ipfs) private view returns(bool){\r... */\n    tag_70:\n        /* \"contracts/oracle.sol\":2594:2598  bool */\n      0x00\n        /* \"contracts/oracle.sol\":2614:2620  uint i */\n      dup1\n        /* \"contracts/oracle.sol\":2621:2622  0 */\n      0x00\n        /* \"contracts/oracle.sol\":2614:2622  uint i=0 */\n      swap1\n      pop\n        /* \"contracts/oracle.sol\":2610:2743  for(uint i=0;i<ID;i++){\r... */\n    tag_148:\n        /* \"contracts/oracle.sol\":2625:2627  ID */\n      sload(0x01)\n        /* \"contracts/oracle.sol\":2623:2624  i */\n      dup2\n        /* \"contracts/oracle.sol\":2623:2627  i<ID */\n      lt\n        /* \"contracts/oracle.sol\":2610:2743  for(uint i=0;i<ID;i++){\r... */\n      iszero\n      tag_149\n      jumpi\n        /* \"contracts/oracle.sol\":2650:2684  compareStrings(nfts[i].IPFS,_ipfs) */\n      tag_151\n        /* \"contracts/oracle.sol\":2665:2669  nfts */\n      0x02\n        /* \"contracts/oracle.sol\":2665:2672  nfts[i] */\n      0x00\n        /* \"contracts/oracle.sol\":2670:2671  i */\n      dup4\n        /* \"contracts/oracle.sol\":2665:2672  nfts[i] */\n      dup2\n      mstore\n      0x20\n      add\n      swap1\n      dup2\n      mstore\n      0x20\n      add\n      0x00\n      keccak256\n        /* \"contracts/oracle.sol\":2665:2677  nfts[i].IPFS */\n      0x02\n      add\n        /* \"contracts/oracle.sol\":2650:2684  compareStrings(nfts[i].IPFS,_ipfs) */\n      dup1\n      sload\n      tag_152\n      swap1\n      tag_99\n      jump\t// in\n    tag_152:\n      dup1\n      0x1f\n      add\n      0x20\n      dup1\n      swap2\n      div\n      mul\n      0x20\n      add\n      mload(0x40)\n      swap1\n      dup2\n      add\n      0x40\n      mstore\n      dup1\n      swap3\n      swap2\n      swap1\n      dup2\n      dup2\n      mstore\n      0x20\n      add\n      dup3\n      dup1\n      sload\n      tag_153\n      swap1\n      tag_99\n      jump\t// in\n    tag_153:\n      dup1\n      iszero\n      tag_154\n      jumpi\n      dup1\n      0x1f\n      lt\n      tag_155\n      jumpi\n      0x0100\n      dup1\n      dup4\n      sload\n      div\n      mul\n      dup4\n      mstore\n      swap2\n      0x20\n      add\n      swap2\n      jump(tag_154)\n    tag_155:\n      dup3\n      add\n      swap2\n      swap1\n      0x00\n      mstore\n      keccak256(0x00, 0x20)\n      swap1\n    tag_156:\n      dup2\n      sload\n      dup2\n      mstore\n      swap1\n      0x01\n      add\n      swap1\n      0x20\n      add\n      dup1\n      dup4\n      gt\n      tag_156\n      jumpi\n      dup3\n      swap1\n      sub\n      0x1f\n      and\n      dup3\n      add\n      swap2\n    tag_154:\n      pop\n      pop\n      pop\n      pop\n      pop\n        /* \"contracts/oracle.sol\":2678:2683  _ipfs */\n      dup5\n        /* \"contracts/oracle.sol\":2650:2664  compareStrings */\n      tag_119\n        /* \"contracts/oracle.sol\":2650:2684  compareStrings(nfts[i].IPFS,_ipfs) */\n      jump\t// in\n    tag_151:\n        /* \"contracts/oracle.sol\":2647:2732  if(compareStrings(nfts[i].IPFS,_ipfs)){\r... */\n      iszero\n      tag_157\n      jumpi\n        /* \"contracts/oracle.sol\":2711:2716  false */\n      0x00\n        /* \"contracts/oracle.sol\":2704:2716  return false */\n      swap2\n      pop\n      pop\n      jump(tag_147)\n        /* \"contracts/oracle.sol\":2647:2732  if(compareStrings(nfts[i].IPFS,_ipfs)){\r... */\n    tag_157:\n        /* \"contracts/oracle.sol\":2628:2631  i++ */\n      dup1\n      dup1\n      tag_158\n      swap1\n      tag_123\n      jump\t// in\n    tag_158:\n      swap2\n      pop\n      pop\n        /* \"contracts/oracle.sol\":2610:2743  for(uint i=0;i<ID;i++){\r... */\n      jump(tag_148)\n    tag_149:\n      pop\n        /* \"contracts/oracle.sol\":2760:2764  true */\n      0x01\n        /* \"contracts/oracle.sol\":2753:2764  return true */\n      swap1\n      pop\n        /* \"contracts/oracle.sol\":2530:2772  function ipfsIsExists(string memory _ipfs) private view returns(bool){\r... */\n    tag_147:\n      swap2\n      swap1\n      pop\n      jump\t// out\n        /* \"@openzeppelin/contracts/access/Ownable.sol\":2270:2457  function _transferOwnership(address newOwner) internal virtual {... */\n    tag_88:\n        /* \"@openzeppelin/contracts/access/Ownable.sol\":2343:2359  address oldOwner */\n      0x00\n        /* \"@openzeppelin/contracts/access/Ownable.sol\":2362:2368  _owner */\n      dup1\n      0x00\n      swap1\n      sload\n      swap1\n      0x0100\n      exp\n      swap1\n      div\n      0xffffffffffffffffffffffffffffffffffffffff\n      and\n        /* \"@openzeppelin/contracts/access/Ownable.sol\":2343:2368  address oldOwner = _owner */\n      swap1\n      pop\n        /* \"@openzeppelin/contracts/access/Ownable.sol\":2387:2395  newOwner */\n      dup2\n        /* \"@openzeppelin/contracts/access/Ownable.sol\":2378:2384  _owner */\n      0x00\n      dup1\n        /* \"@openzeppelin/contracts/access/Ownable.sol\":2378:2395  _owner = newOwner */\n      0x0100\n      exp\n      dup2\n      sload\n      dup2\n      0xffffffffffffffffffffffffffffffffffffffff\n      mul\n      not\n      and\n      swap1\n      dup4\n      0xffffffffffffffffffffffffffffffffffffffff\n      and\n      mul\n      or\n      swap1\n      sstore\n      pop\n        /* \"@openzeppelin/contracts/access/Ownable.sol\":2441:2449  newOwner */\n      dup2\n        /* \"@openzeppelin/contracts/access/Ownable.sol\":2410:2450  OwnershipTransferred(oldOwner, newOwner) */\n      0xffffffffffffffffffffffffffffffffffffffff\n      and\n        /* \"@openzeppelin/contracts/access/Ownable.sol\":2431:2439  oldOwner */\n      dup2\n        /* \"@openzeppelin/contracts/access/Ownable.sol\":2410:2450  OwnershipTransferred(oldOwner, newOwner) */\n      0xffffffffffffffffffffffffffffffffffffffff\n      and\n      0x8be0079c531659141344cd1fd0a4f28419497f9722a3daafe3b4186f6b6457e0\n      mload(0x40)\n      mload(0x40)\n      dup1\n      swap2\n      sub\n      swap1\n      log3\n        /* \"@openzeppelin/contracts/access/Ownable.sol\":2333:2457  {... */\n      pop\n        /* \"@openzeppelin/contracts/access/Ownable.sol\":2270:2457  function _transferOwnership(address newOwner) internal virtual {... */\n      pop\n      jump\t// out\n        /* \"contracts/oracle.sol\":2784:2969  function  compareStrings(string memory a, string memory b) private pure returns(bool) {\r... */\n    tag_119:\n        /* \"contracts/oracle.sol\":2864:2868  bool */\n      0x00\n        /* \"contracts/oracle.sol\":2956:2957  b */\n      dup2\n        /* \"contracts/oracle.sol\":2938:2959  abi.encodePacked((b)) */\n      add(0x20, mload(0x40))\n      tag_161\n      swap2\n      swap1\n      tag_162\n      jump\t// in\n    tag_161:\n      mload(0x40)\n      0x20\n      dup2\n      dup4\n      sub\n      sub\n      dup2\n      mstore\n      swap1\n      0x40\n      mstore\n        /* \"contracts/oracle.sol\":2928:2960  keccak256(abi.encodePacked((b))) */\n      dup1\n      mload\n      swap1\n      0x20\n      add\n      keccak256\n        /* \"contracts/oracle.sol\":2920:2921  a */\n      dup4\n        /* \"contracts/oracle.sol\":2902:2923  abi.encodePacked((a)) */\n      add(0x20, mload(0x40))\n      tag_163\n      swap2\n      swap1\n      tag_162\n      jump\t// in\n    tag_163:\n      mload(0x40)\n      0x20\n      dup2\n      dup4\n      sub\n      sub\n      dup2\n      mstore\n      swap1\n      0x40\n      mstore\n        /* \"contracts/oracle.sol\":2892:2924  keccak256(abi.encodePacked((a))) */\n      dup1\n      mload\n      swap1\n      0x20\n      add\n      keccak256\n        /* \"contracts/oracle.sol\":2892:2960  keccak256(abi.encodePacked((a))) == keccak256(abi.encodePacked((b))) */\n      eq\n        /* \"contracts/oracle.sol\":2884:2961  return (keccak256(abi.encodePacked((a))) == keccak256(abi.encodePacked((b)))) */\n      swap1\n      pop\n        /* \"contracts/oracle.sol\":2784:2969  function  compareStrings(string memory a, string memory b) private pure returns(bool) {\r... */\n      swap3\n      swap2\n      pop\n      pop\n      jump\t// out\n    tag_75:\n      dup3\n      dup1\n      sload\n      tag_164\n      swap1\n      tag_99\n      jump\t// in\n    tag_164:\n      swap1\n      0x00\n      mstore\n      keccak256(0x00, 0x20)\n      swap1\n      0x1f\n      add\n      0x20\n      swap1\n      div\n      dup2\n      add\n      swap3\n      dup3\n      tag_166\n      jumpi\n      0x00\n      dup6\n      sstore\n      jump(tag_165)\n    tag_166:\n      dup3\n      0x1f\n      lt\n      tag_167\n      jumpi\n      dup1\n      mload\n      not(0xff)\n      and\n      dup4\n      dup1\n      add\n      or\n      dup6\n      sstore\n      jump(tag_165)\n    tag_167:\n      dup3\n      dup1\n      add\n      0x01\n      add\n      dup6\n      sstore\n      dup3\n      iszero\n      tag_165\n      jumpi\n      swap2\n      dup3\n      add\n    tag_168:\n      dup3\n      dup2\n      gt\n      iszero\n      tag_169\n      jumpi\n      dup3\n      mload\n      dup3\n      sstore\n      swap2\n      0x20\n      add\n      swap2\n      swap1\n      0x01\n      add\n      swap1\n      jump(tag_168)\n    tag_169:\n    tag_165:\n      pop\n      swap1\n      pop\n      tag_170\n      swap2\n      swap1\n      tag_171\n      jump\t// in\n    tag_170:\n      pop\n      swap1\n      jump\t// out\n    tag_171:\n    tag_172:\n      dup1\n      dup3\n      gt\n      iszero\n      tag_173\n      jumpi\n      0x00\n      dup2\n      0x00\n      swap1\n      sstore\n      pop\n      0x01\n      add\n      jump(tag_172)\n    tag_173:\n      pop\n      swap1\n      jump\t// out\n        /* \"#utility.yul\":7:419   */\n    tag_175:\n        /* \"#utility.yul\":85:90   */\n      0x00\n        /* \"#utility.yul\":110:176   */\n      tag_177\n        /* \"#utility.yul\":126:175   */\n      tag_178\n        /* \"#utility.yul\":168:174   */\n      dup5\n        /* \"#utility.yul\":126:175   */\n      tag_179\n      jump\t// in\n    tag_178:\n        /* \"#utility.yul\":110:176   */\n      tag_180\n      jump\t// in\n    tag_177:\n        /* \"#utility.yul\":101:176   */\n      swap1\n      pop\n        /* \"#utility.yul\":199:205   */\n      dup3\n        /* \"#utility.yul\":192:197   */\n      dup2\n        /* \"#utility.yul\":185:206   */\n      mstore\n        /* \"#utility.yul\":237:241   */\n      0x20\n        /* \"#utility.yul\":230:235   */\n      dup2\n        /* \"#utility.yul\":226:242   */\n      add\n        /* \"#utility.yul\":275:278   */\n      dup5\n        /* \"#utility.yul\":266:272   */\n      dup5\n        /* \"#utility.yul\":261:264   */\n      dup5\n        /* \"#utility.yul\":257:273   */\n      add\n        /* \"#utility.yul\":254:279   */\n      gt\n        /* \"#utility.yul\":251:363   */\n      iszero\n      tag_181\n      jumpi\n        /* \"#utility.yul\":282:361   */\n      tag_182\n      tag_183\n      jump\t// in\n    tag_182:\n        /* \"#utility.yul\":251:363   */\n    tag_181:\n        /* \"#utility.yul\":372:413   */\n      tag_184\n        /* \"#utility.yul\":406:412   */\n      dup5\n        /* \"#utility.yul\":401:404   */\n      dup3\n        /* \"#utility.yul\":396:399   */\n      dup6\n        /* \"#utility.yul\":372:413   */\n      tag_185\n      jump\t// in\n    tag_184:\n        /* \"#utility.yul\":91:419   */\n      pop\n        /* \"#utility.yul\":7:419   */\n      swap4\n      swap3\n      pop\n      pop\n      pop\n      jump\t// out\n        /* \"#utility.yul\":425:564   */\n    tag_186:\n        /* \"#utility.yul\":471:476   */\n      0x00\n        /* \"#utility.yul\":509:515   */\n      dup2\n        /* \"#utility.yul\":496:516   */\n      calldataload\n        /* \"#utility.yul\":487:516   */\n      swap1\n      pop\n        /* \"#utility.yul\":525:558   */\n      tag_188\n        /* \"#utility.yul\":552:557   */\n      dup2\n        /* \"#utility.yul\":525:558   */\n      tag_189\n      jump\t// in\n    tag_188:\n        /* \"#utility.yul\":425:564   */\n      swap3\n      swap2\n      pop\n      pop\n      jump\t// out\n        /* \"#utility.yul\":570:703   */\n    tag_190:\n        /* \"#utility.yul\":613:618   */\n      0x00\n        /* \"#utility.yul\":651:657   */\n      dup2\n        /* \"#utility.yul\":638:658   */\n      calldataload\n        /* \"#utility.yul\":629:658   */\n      swap1\n      pop\n        /* \"#utility.yul\":667:697   */\n      tag_192\n        /* \"#utility.yul\":691:696   */\n      dup2\n        /* \"#utility.yul\":667:697   */\n      tag_193\n      jump\t// in\n    tag_192:\n        /* \"#utility.yul\":570:703   */\n      swap3\n      swap2\n      pop\n      pop\n      jump\t// out\n        /* \"#utility.yul\":723:1063   */\n    tag_194:\n        /* \"#utility.yul\":779:784   */\n      0x00\n        /* \"#utility.yul\":828:831   */\n      dup3\n        /* \"#utility.yul\":821:825   */\n      0x1f\n        /* \"#utility.yul\":813:819   */\n      dup4\n        /* \"#utility.yul\":809:826   */\n      add\n        /* \"#utility.yul\":805:832   */\n      slt\n        /* \"#utility.yul\":795:917   */\n      tag_196\n      jumpi\n        /* \"#utility.yul\":836:915   */\n      tag_197\n      tag_198\n      jump\t// in\n    tag_197:\n        /* \"#utility.yul\":795:917   */\n    tag_196:\n        /* \"#utility.yul\":953:959   */\n      dup2\n        /* \"#utility.yul\":940:960   */\n      calldataload\n        /* \"#utility.yul\":978:1057   */\n      tag_199\n        /* \"#utility.yul\":1053:1056   */\n      dup5\n        /* \"#utility.yul\":1045:1051   */\n      dup3\n        /* \"#utility.yul\":1038:1042   */\n      0x20\n        /* \"#utility.yul\":1030:1036   */\n      dup7\n        /* \"#utility.yul\":1026:1043   */\n      add\n        /* \"#utility.yul\":978:1057   */\n      tag_175\n      jump\t// in\n    tag_199:\n        /* \"#utility.yul\":969:1057   */\n      swap2\n      pop\n        /* \"#utility.yul\":785:1063   */\n      pop\n        /* \"#utility.yul\":723:1063   */\n      swap3\n      swap2\n      pop\n      pop\n      jump\t// out\n        /* \"#utility.yul\":1069:1208   */\n    tag_200:\n        /* \"#utility.yul\":1115:1120   */\n      0x00\n        /* \"#utility.yul\":1153:1159   */\n      dup2\n        /* \"#utility.yul\":1140:1160   */\n      calldataload\n        /* \"#utility.yul\":1131:1160   */\n      swap1\n      pop\n        /* \"#utility.yul\":1169:1202   */\n      tag_202\n        /* \"#utility.yul\":1196:1201   */\n      dup2\n        /* \"#utility.yul\":1169:1202   */\n      tag_203\n      jump\t// in\n    tag_202:\n        /* \"#utility.yul\":1069:1208   */\n      swap3\n      swap2\n      pop\n      pop\n      jump\t// out\n        /* \"#utility.yul\":1214:1543   */\n    tag_44:\n        /* \"#utility.yul\":1273:1279   */\n      0x00\n        /* \"#utility.yul\":1322:1324   */\n      0x20\n        /* \"#utility.yul\":1310:1319   */\n      dup3\n        /* \"#utility.yul\":1301:1308   */\n      dup5\n        /* \"#utility.yul\":1297:1320   */\n      sub\n        /* \"#utility.yul\":1293:1325   */\n      slt\n        /* \"#utility.yul\":1290:1409   */\n      iszero\n      tag_205\n      jumpi\n        /* \"#utility.yul\":1328:1407   */\n      tag_206\n      tag_207\n      jump\t// in\n    tag_206:\n        /* \"#utility.yul\":1290:1409   */\n    tag_205:\n        /* \"#utility.yul\":1448:1449   */\n      0x00\n        /* \"#utility.yul\":1473:1526   */\n      tag_208\n        /* \"#utility.yul\":1518:1525   */\n      dup5\n        /* \"#utility.yul\":1509:1515   */\n      dup3\n        /* \"#utility.yul\":1498:1507   */\n      dup6\n        /* \"#utility.yul\":1494:1516   */\n      add\n        /* \"#utility.yul\":1473:1526   */\n      tag_186\n      jump\t// in\n    tag_208:\n        /* \"#utility.yul\":1463:1526   */\n      swap2\n      pop\n        /* \"#utility.yul\":1419:1536   */\n      pop\n        /* \"#utility.yul\":1214:1543   */\n      swap3\n      swap2\n      pop\n      pop\n      jump\t// out\n        /* \"#utility.yul\":1549:2058   */\n    tag_39:\n        /* \"#utility.yul\":1618:1624   */\n      0x00\n        /* \"#utility.yul\":1667:1669   */\n      0x20\n        /* \"#utility.yul\":1655:1664   */\n      dup3\n        /* \"#utility.yul\":1646:1653   */\n      dup5\n        /* \"#utility.yul\":1642:1665   */\n      sub\n        /* \"#utility.yul\":1638:1670   */\n      slt\n        /* \"#utility.yul\":1635:1754   */\n      iszero\n      tag_210\n      jumpi\n        /* \"#utility.yul\":1673:1752   */\n      tag_211\n      tag_207\n      jump\t// in\n    tag_211:\n        /* \"#utility.yul\":1635:1754   */\n    tag_210:\n        /* \"#utility.yul\":1821:1822   */\n      0x00\n        /* \"#utility.yul\":1810:1819   */\n      dup3\n        /* \"#utility.yul\":1806:1823   */\n      add\n        /* \"#utility.yul\":1793:1824   */\n      calldataload\n        /* \"#utility.yul\":1851:1869   */\n      0xffffffffffffffff\n        /* \"#utility.yul\":1843:1849   */\n      dup2\n        /* \"#utility.yul\":1840:1870   */\n      gt\n        /* \"#utility.yul\":1837:1954   */\n      iszero\n      tag_212\n      jumpi\n        /* \"#utility.yul\":1873:1952   */\n      tag_213\n      tag_214\n      jump\t// in\n    tag_213:\n        /* \"#utility.yul\":1837:1954   */\n    tag_212:\n        /* \"#utility.yul\":1978:2041   */\n      tag_215\n        /* \"#utility.yul\":2033:2040   */\n      dup5\n        /* \"#utility.yul\":2024:2030   */\n      dup3\n        /* \"#utility.yul\":2013:2022   */\n      dup6\n        /* \"#utility.yul\":2009:2031   */\n      add\n        /* \"#utility.yul\":1978:2041   */\n      tag_194\n      jump\t// in\n    tag_215:\n        /* \"#utility.yul\":1968:2041   */\n      swap2\n      pop\n        /* \"#utility.yul\":1764:2051   */\n      pop\n        /* \"#utility.yul\":1549:2058   */\n      swap3\n      swap2\n      pop\n      pop\n      jump\t// out\n        /* \"#utility.yul\":2064:2898   */\n    tag_18:\n        /* \"#utility.yul\":2152:2158   */\n      0x00\n        /* \"#utility.yul\":2160:2166   */\n      dup1\n        /* \"#utility.yul\":2209:2211   */\n      0x40\n        /* \"#utility.yul\":2197:2206   */\n      dup4\n        /* \"#utility.yul\":2188:2195   */\n      dup6\n        /* \"#utility.yul\":2184:2207   */\n      sub\n        /* \"#utility.yul\":2180:2212   */\n      slt\n        /* \"#utility.yul\":2177:2296   */\n      iszero\n      tag_217\n      jumpi\n        /* \"#utility.yul\":2215:2294   */\n      tag_218\n      tag_207\n      jump\t// in\n    tag_218:\n        /* \"#utility.yul\":2177:2296   */\n    tag_217:\n        /* \"#utility.yul\":2363:2364   */\n      0x00\n        /* \"#utility.yul\":2352:2361   */\n      dup4\n        /* \"#utility.yul\":2348:2365   */\n      add\n        /* \"#utility.yul\":2335:2366   */\n      calldataload\n        /* \"#utility.yul\":2393:2411   */\n      0xffffffffffffffff\n        /* \"#utility.yul\":2385:2391   */\n      dup2\n        /* \"#utility.yul\":2382:2412   */\n      gt\n        /* \"#utility.yul\":2379:2496   */\n      iszero\n      tag_219\n      jumpi\n        /* \"#utility.yul\":2415:2494   */\n      tag_220\n      tag_214\n      jump\t// in\n    tag_220:\n        /* \"#utility.yul\":2379:2496   */\n    tag_219:\n        /* \"#utility.yul\":2520:2583   */\n      tag_221\n        /* \"#utility.yul\":2575:2582   */\n      dup6\n        /* \"#utility.yul\":2566:2572   */\n      dup3\n        /* \"#utility.yul\":2555:2564   */\n      dup7\n        /* \"#utility.yul\":2551:2573   */\n      add\n        /* \"#utility.yul\":2520:2583   */\n      tag_194\n      jump\t// in\n    tag_221:\n        /* \"#utility.yul\":2510:2583   */\n      swap3\n      pop\n        /* \"#utility.yul\":2306:2593   */\n      pop\n        /* \"#utility.yul\":2660:2662   */\n      0x20\n        /* \"#utility.yul\":2649:2658   */\n      dup4\n        /* \"#utility.yul\":2645:2663   */\n      add\n        /* \"#utility.yul\":2632:2664   */\n      calldataload\n        /* \"#utility.yul\":2691:2709   */\n      0xffffffffffffffff\n        /* \"#utility.yul\":2683:2689   */\n      dup2\n        /* \"#utility.yul\":2680:2710   */\n      gt\n        /* \"#utility.yul\":2677:2794   */\n      iszero\n      tag_222\n      jumpi\n        /* \"#utility.yul\":2713:2792   */\n      tag_223\n      tag_214\n      jump\t// in\n    tag_223:\n        /* \"#utility.yul\":2677:2794   */\n    tag_222:\n        /* \"#utility.yul\":2818:2881   */\n      tag_224\n        /* \"#utility.yul\":2873:2880   */\n      dup6\n        /* \"#utility.yul\":2864:2870   */\n      dup3\n        /* \"#utility.yul\":2853:2862   */\n      dup7\n        /* \"#utility.yul\":2849:2871   */\n      add\n        /* \"#utility.yul\":2818:2881   */\n      tag_194\n      jump\t// in\n    tag_224:\n        /* \"#utility.yul\":2808:2881   */\n      swap2\n      pop\n        /* \"#utility.yul\":2603:2891   */\n      pop\n        /* \"#utility.yul\":2064:2898   */\n      swap3\n      pop\n      swap3\n      swap1\n      pop\n      jump\t// out\n        /* \"#utility.yul\":2904:3233   */\n    tag_33:\n        /* \"#utility.yul\":2963:2969   */\n      0x00\n        /* \"#utility.yul\":3012:3014   */\n      0x20\n        /* \"#utility.yul\":3000:3009   */\n      dup3\n        /* \"#utility.yul\":2991:2998   */\n      dup5\n        /* \"#utility.yul\":2987:3010   */\n      sub\n        /* \"#utility.yul\":2983:3015   */\n      slt\n        /* \"#utility.yul\":2980:3099   */\n      iszero\n      tag_226\n      jumpi\n        /* \"#utility.yul\":3018:3097   */\n      tag_227\n      tag_207\n      jump\t// in\n    tag_227:\n        /* \"#utility.yul\":2980:3099   */\n    tag_226:\n        /* \"#utility.yul\":3138:3139   */\n      0x00\n        /* \"#utility.yul\":3163:3216   */\n      tag_228\n        /* \"#utility.yul\":3208:3215   */\n      dup5\n        /* \"#utility.yul\":3199:3205   */\n      dup3\n        /* \"#utility.yul\":3188:3197   */\n      dup6\n        /* \"#utility.yul\":3184:3206   */\n      add\n        /* \"#utility.yul\":3163:3216   */\n      tag_200\n      jump\t// in\n    tag_228:\n        /* \"#utility.yul\":3153:3216   */\n      swap2\n      pop\n        /* \"#utility.yul\":3109:3226   */\n      pop\n        /* \"#utility.yul\":2904:3233   */\n      swap3\n      swap2\n      pop\n      pop\n      jump\t// out\n        /* \"#utility.yul\":3239:3707   */\n    tag_14:\n        /* \"#utility.yul\":3304:3310   */\n      0x00\n        /* \"#utility.yul\":3312:3318   */\n      dup1\n        /* \"#utility.yul\":3361:3363   */\n      0x40\n        /* \"#utility.yul\":3349:3358   */\n      dup4\n        /* \"#utility.yul\":3340:3347   */\n      dup6\n        /* \"#utility.yul\":3336:3359   */\n      sub\n        /* \"#utility.yul\":3332:3364   */\n      slt\n        /* \"#utility.yul\":3329:3448   */\n      iszero\n      tag_230\n      jumpi\n        /* \"#utility.yul\":3367:3446   */\n      tag_231\n      tag_207\n      jump\t// in\n    tag_231:\n        /* \"#utility.yul\":3329:3448   */\n    tag_230:\n        /* \"#utility.yul\":3487:3488   */\n      0x00\n        /* \"#utility.yul\":3512:3565   */\n      tag_232\n        /* \"#utility.yul\":3557:3564   */\n      dup6\n        /* \"#utility.yul\":3548:3554   */\n      dup3\n        /* \"#utility.yul\":3537:3546   */\n      dup7\n        /* \"#utility.yul\":3533:3555   */\n      add\n        /* \"#utility.yul\":3512:3565   */\n      tag_200\n      jump\t// in\n    tag_232:\n        /* \"#utility.yul\":3502:3565   */\n      swap3\n      pop\n        /* \"#utility.yul\":3458:3575   */\n      pop\n        /* \"#utility.yul\":3614:3616   */\n      0x20\n        /* \"#utility.yul\":3640:3690   */\n      tag_233\n        /* \"#utility.yul\":3682:3689   */\n      dup6\n        /* \"#utility.yul\":3673:3679   */\n      dup3\n        /* \"#utility.yul\":3662:3671   */\n      dup7\n        /* \"#utility.yul\":3658:3680   */\n      add\n        /* \"#utility.yul\":3640:3690   */\n      tag_190\n      jump\t// in\n    tag_233:\n        /* \"#utility.yul\":3630:3690   */\n      swap2\n      pop\n        /* \"#utility.yul\":3585:3700   */\n      pop\n        /* \"#utility.yul\":3239:3707   */\n      swap3\n      pop\n      swap3\n      swap1\n      pop\n      jump\t// out\n        /* \"#utility.yul\":3713:3831   */\n    tag_234:\n        /* \"#utility.yul\":3800:3824   */\n      tag_236\n        /* \"#utility.yul\":3818:3823   */\n      dup2\n        /* \"#utility.yul\":3800:3824   */\n      tag_237\n      jump\t// in\n    tag_236:\n        /* \"#utility.yul\":3795:3798   */\n      dup3\n        /* \"#utility.yul\":3788:3825   */\n      mstore\n        /* \"#utility.yul\":3713:3831   */\n      pop\n      pop\n      jump\t// out\n        /* \"#utility.yul\":3837:3946   */\n    tag_238:\n        /* \"#utility.yul\":3918:3939   */\n      tag_240\n        /* \"#utility.yul\":3933:3938   */\n      dup2\n        /* \"#utility.yul\":3918:3939   */\n      tag_241\n      jump\t// in\n    tag_240:\n        /* \"#utility.yul\":3913:3916   */\n      dup3\n        /* \"#utility.yul\":3906:3940   */\n      mstore\n        /* \"#utility.yul\":3837:3946   */\n      pop\n      pop\n      jump\t// out\n        /* \"#utility.yul\":3952:4329   */\n    tag_242:\n        /* \"#utility.yul\":4058:4061   */\n      0x00\n        /* \"#utility.yul\":4086:4125   */\n      tag_244\n        /* \"#utility.yul\":4119:4124   */\n      dup3\n        /* \"#utility.yul\":4086:4125   */\n      tag_245\n      jump\t// in\n    tag_244:\n        /* \"#utility.yul\":4141:4230   */\n      tag_246\n        /* \"#utility.yul\":4223:4229   */\n      dup2\n        /* \"#utility.yul\":4218:4221   */\n      dup6\n        /* \"#utility.yul\":4141:4230   */\n      tag_247\n      jump\t// in\n    tag_246:\n        /* \"#utility.yul\":4134:4230   */\n      swap4\n      pop\n        /* \"#utility.yul\":4239:4291   */\n      tag_248\n        /* \"#utility.yul\":4284:4290   */\n      dup2\n        /* \"#utility.yul\":4279:4282   */\n      dup6\n        /* \"#utility.yul\":4272:4276   */\n      0x20\n        /* \"#utility.yul\":4265:4270   */\n      dup7\n        /* \"#utility.yul\":4261:4277   */\n      add\n        /* \"#utility.yul\":4239:4291   */\n      tag_249\n      jump\t// in\n    tag_248:\n        /* \"#utility.yul\":4316:4322   */\n      dup1\n        /* \"#utility.yul\":4311:4314   */\n      dup5\n        /* \"#utility.yul\":4307:4323   */\n      add\n        /* \"#utility.yul\":4300:4323   */\n      swap2\n      pop\n        /* \"#utility.yul\":4062:4329   */\n      pop\n        /* \"#utility.yul\":3952:4329   */\n      swap3\n      swap2\n      pop\n      pop\n      jump\t// out\n        /* \"#utility.yul\":4335:4701   */\n    tag_250:\n        /* \"#utility.yul\":4477:4480   */\n      0x00\n        /* \"#utility.yul\":4498:4565   */\n      tag_252\n        /* \"#utility.yul\":4562:4564   */\n      0x1b\n        /* \"#utility.yul\":4557:4560   */\n      dup4\n        /* \"#utility.yul\":4498:4565   */\n      tag_253\n      jump\t// in\n    tag_252:\n        /* \"#utility.yul\":4491:4565   */\n      swap2\n      pop\n        /* \"#utility.yul\":4574:4667   */\n      tag_254\n        /* \"#utility.yul\":4663:4666   */\n      dup3\n        /* \"#utility.yul\":4574:4667   */\n      tag_255\n      jump\t// in\n    tag_254:\n        /* \"#utility.yul\":4692:4694   */\n      0x20\n        /* \"#utility.yul\":4687:4690   */\n      dup3\n        /* \"#utility.yul\":4683:4695   */\n      add\n        /* \"#utility.yul\":4676:4695   */\n      swap1\n      pop\n        /* \"#utility.yul\":4335:4701   */\n      swap2\n      swap1\n      pop\n      jump\t// out\n        /* \"#utility.yul\":4707:5073   */\n    tag_256:\n        /* \"#utility.yul\":4849:4852   */\n      0x00\n        /* \"#utility.yul\":4870:4937   */\n      tag_258\n        /* \"#utility.yul\":4934:4936   */\n      0x26\n        /* \"#utility.yul\":4929:4932   */\n      dup4\n        /* \"#utility.yul\":4870:4937   */\n      tag_253\n      jump\t// in\n    tag_258:\n        /* \"#utility.yul\":4863:4937   */\n      swap2\n      pop\n        /* \"#utility.yul\":4946:5039   */\n      tag_259\n        /* \"#utility.yul\":5035:5038   */\n      dup3\n        /* \"#utility.yul\":4946:5039   */\n      tag_260\n      jump\t// in\n    tag_259:\n        /* \"#utility.yul\":5064:5066   */\n      0x40\n        /* \"#utility.yul\":5059:5062   */\n      dup3\n        /* \"#utility.yul\":5055:5067   */\n      add\n        /* \"#utility.yul\":5048:5067   */\n      swap1\n      pop\n        /* \"#utility.yul\":4707:5073   */\n      swap2\n      swap1\n      pop\n      jump\t// out\n        /* \"#utility.yul\":5079:5445   */\n    tag_261:\n        /* \"#utility.yul\":5221:5224   */\n      0x00\n        /* \"#utility.yul\":5242:5309   */\n      tag_263\n        /* \"#utility.yul\":5306:5308   */\n      0x1f\n        /* \"#utility.yul\":5301:5304   */\n      dup4\n        /* \"#utility.yul\":5242:5309   */\n      tag_253\n      jump\t// in\n    tag_263:\n        /* \"#utility.yul\":5235:5309   */\n      swap2\n      pop\n        /* \"#utility.yul\":5318:5411   */\n      tag_264\n        /* \"#utility.yul\":5407:5410   */\n      dup3\n        /* \"#utility.yul\":5318:5411   */\n      tag_265\n      jump\t// in\n    tag_264:\n        /* \"#utility.yul\":5436:5438   */\n      0x20\n        /* \"#utility.yul\":5431:5434   */\n      dup3\n        /* \"#utility.yul\":5427:5439   */\n      add\n        /* \"#utility.yul\":5420:5439   */\n      swap1\n      pop\n        /* \"#utility.yul\":5079:5445   */\n      swap2\n      swap1\n      pop\n      jump\t// out\n        /* \"#utility.yul\":5451:5817   */\n    tag_266:\n        /* \"#utility.yul\":5593:5596   */\n      0x00\n        /* \"#utility.yul\":5614:5681   */\n      tag_268\n        /* \"#utility.yul\":5678:5680   */\n      0x2f\n        /* \"#utility.yul\":5673:5676   */\n      dup4\n        /* \"#utility.yul\":5614:5681   */\n      tag_253\n      jump\t// in\n    tag_268:\n        /* \"#utility.yul\":5607:5681   */\n      swap2\n      pop\n        /* \"#utility.yul\":5690:5783   */\n      tag_269\n        /* \"#utility.yul\":5779:5782   */\n      dup3\n        /* \"#utility.yul\":5690:5783   */\n      tag_270\n      jump\t// in\n    tag_269:\n        /* \"#utility.yul\":5808:5810   */\n      0x40\n        /* \"#utility.yul\":5803:5806   */\n      dup3\n        /* \"#utility.yul\":5799:5811   */\n      add\n        /* \"#utility.yul\":5792:5811   */\n      swap1\n      pop\n        /* \"#utility.yul\":5451:5817   */\n      swap2\n      swap1\n      pop\n      jump\t// out\n        /* \"#utility.yul\":5823:6189   */\n    tag_271:\n        /* \"#utility.yul\":5965:5968   */\n      0x00\n        /* \"#utility.yul\":5986:6053   */\n      tag_273\n        /* \"#utility.yul\":6050:6052   */\n      0x20\n        /* \"#utility.yul\":6045:6048   */\n      dup4\n        /* \"#utility.yul\":5986:6053   */\n      tag_253\n      jump\t// in\n    tag_273:\n        /* \"#utility.yul\":5979:6053   */\n      swap2\n      pop\n        /* \"#utility.yul\":6062:6155   */\n      tag_274\n        /* \"#utility.yul\":6151:6154   */\n      dup3\n        /* \"#utility.yul\":6062:6155   */\n      tag_275\n      jump\t// in\n    tag_274:\n        /* \"#utility.yul\":6180:6182   */\n      0x20\n        /* \"#utility.yul\":6175:6178   */\n      dup3\n        /* \"#utility.yul\":6171:6183   */\n      add\n        /* \"#utility.yul\":6164:6183   */\n      swap1\n      pop\n        /* \"#utility.yul\":5823:6189   */\n      swap2\n      swap1\n      pop\n      jump\t// out\n        /* \"#utility.yul\":6195:6313   */\n    tag_276:\n        /* \"#utility.yul\":6282:6306   */\n      tag_278\n        /* \"#utility.yul\":6300:6305   */\n      dup2\n        /* \"#utility.yul\":6282:6306   */\n      tag_279\n      jump\t// in\n    tag_278:\n        /* \"#utility.yul\":6277:6280   */\n      dup3\n        /* \"#utility.yul\":6270:6307   */\n      mstore\n        /* \"#utility.yul\":6195:6313   */\n      pop\n      pop\n      jump\t// out\n        /* \"#utility.yul\":6319:6594   */\n    tag_162:\n        /* \"#utility.yul\":6451:6454   */\n      0x00\n        /* \"#utility.yul\":6473:6568   */\n      tag_281\n        /* \"#utility.yul\":6564:6567   */\n      dup3\n        /* \"#utility.yul\":6555:6561   */\n      dup5\n        /* \"#utility.yul\":6473:6568   */\n      tag_242\n      jump\t// in\n    tag_281:\n        /* \"#utility.yul\":6466:6568   */\n      swap2\n      pop\n        /* \"#utility.yul\":6585:6588   */\n      dup2\n        /* \"#utility.yul\":6578:6588   */\n      swap1\n      pop\n        /* \"#utility.yul\":6319:6594   */\n      swap3\n      swap2\n      pop\n      pop\n      jump\t// out\n        /* \"#utility.yul\":6600:6822   */\n    tag_27:\n        /* \"#utility.yul\":6693:6697   */\n      0x00\n        /* \"#utility.yul\":6731:6733   */\n      0x20\n        /* \"#utility.yul\":6720:6729   */\n      dup3\n        /* \"#utility.yul\":6716:6734   */\n      add\n        /* \"#utility.yul\":6708:6734   */\n      swap1\n      pop\n        /* \"#utility.yul\":6744:6815   */\n      tag_283\n        /* \"#utility.yul\":6812:6813   */\n      0x00\n        /* \"#utility.yul\":6801:6810   */\n      dup4\n        /* \"#utility.yul\":6797:6814   */\n      add\n        /* \"#utility.yul\":6788:6794   */\n      dup5\n        /* \"#utility.yul\":6744:6815   */\n      tag_234\n      jump\t// in\n    tag_283:\n        /* \"#utility.yul\":6600:6822   */\n      swap3\n      swap2\n      pop\n      pop\n      jump\t// out\n        /* \"#utility.yul\":6828:7038   */\n    tag_36:\n        /* \"#utility.yul\":6915:6919   */\n      0x00\n        /* \"#utility.yul\":6953:6955   */\n      0x20\n        /* \"#utility.yul\":6942:6951   */\n      dup3\n        /* \"#utility.yul\":6938:6956   */\n      add\n        /* \"#utility.yul\":6930:6956   */\n      swap1\n      pop\n        /* \"#utility.yul\":6966:7031   */\n      tag_285\n        /* \"#utility.yul\":7028:7029   */\n      0x00\n        /* \"#utility.yul\":7017:7026   */\n      dup4\n        /* \"#utility.yul\":7013:7030   */\n      add\n        /* \"#utility.yul\":7004:7010   */\n      dup5\n        /* \"#utility.yul\":6966:7031   */\n      tag_238\n      jump\t// in\n    tag_285:\n        /* \"#utility.yul\":6828:7038   */\n      swap3\n      swap2\n      pop\n      pop\n      jump\t// out\n        /* \"#utility.yul\":7044:7463   */\n    tag_93:\n        /* \"#utility.yul\":7210:7214   */\n      0x00\n        /* \"#utility.yul\":7248:7250   */\n      0x20\n        /* \"#utility.yul\":7237:7246   */\n      dup3\n        /* \"#utility.yul\":7233:7251   */\n      add\n        /* \"#utility.yul\":7225:7251   */\n      swap1\n      pop\n        /* \"#utility.yul\":7297:7306   */\n      dup2\n        /* \"#utility.yul\":7291:7295   */\n      dup2\n        /* \"#utility.yul\":7287:7307   */\n      sub\n        /* \"#utility.yul\":7283:7284   */\n      0x00\n        /* \"#utility.yul\":7272:7281   */\n      dup4\n        /* \"#utility.yul\":7268:7285   */\n      add\n        /* \"#utility.yul\":7261:7308   */\n      mstore\n        /* \"#utility.yul\":7325:7456   */\n      tag_287\n        /* \"#utility.yul\":7451:7455   */\n      dup2\n        /* \"#utility.yul\":7325:7456   */\n      tag_250\n      jump\t// in\n    tag_287:\n        /* \"#utility.yul\":7317:7456   */\n      swap1\n      pop\n        /* \"#utility.yul\":7044:7463   */\n      swap2\n      swap1\n      pop\n      jump\t// out\n        /* \"#utility.yul\":7469:7888   */\n    tag_132:\n        /* \"#utility.yul\":7635:7639   */\n      0x00\n        /* \"#utility.yul\":7673:7675   */\n      0x20\n        /* \"#utility.yul\":7662:7671   */\n      dup3\n        /* \"#utility.yul\":7658:7676   */\n      add\n        /* \"#utility.yul\":7650:7676   */\n      swap1\n      pop\n        /* \"#utility.yul\":7722:7731   */\n      dup2\n        /* \"#utility.yul\":7716:7720   */\n      dup2\n        /* \"#utility.yul\":7712:7732   */\n      sub\n        /* \"#utility.yul\":7708:7709   */\n      0x00\n        /* \"#utility.yul\":7697:7706   */\n      dup4\n        /* \"#utility.yul\":7693:7710   */\n      add\n        /* \"#utility.yul\":7686:7733   */\n      mstore\n        /* \"#utility.yul\":7750:7881   */\n      tag_289\n        /* \"#utility.yul\":7876:7880   */\n      dup2\n        /* \"#utility.yul\":7750:7881   */\n      tag_256\n      jump\t// in\n    tag_289:\n        /* \"#utility.yul\":7742:7881   */\n      swap1\n      pop\n        /* \"#utility.yul\":7469:7888   */\n      swap2\n      swap1\n      pop\n      jump\t// out\n        /* \"#utility.yul\":7894:8313   */\n    tag_73:\n        /* \"#utility.yul\":8060:8064   */\n      0x00\n        /* \"#utility.yul\":8098:8100   */\n      0x20\n        /* \"#utility.yul\":8087:8096   */\n      dup3\n        /* \"#utility.yul\":8083:8101   */\n      add\n        /* \"#utility.yul\":8075:8101   */\n      swap1\n      pop\n        /* \"#utility.yul\":8147:8156   */\n      dup2\n        /* \"#utility.yul\":8141:8145   */\n      dup2\n        /* \"#utility.yul\":8137:8157   */\n      sub\n        /* \"#utility.yul\":8133:8134   */\n      0x00\n        /* \"#utility.yul\":8122:8131   */\n      dup4\n        /* \"#utility.yul\":8118:8135   */\n      add\n        /* \"#utility.yul\":8111:8158   */\n      mstore\n        /* \"#utility.yul\":8175:8306   */\n      tag_291\n        /* \"#utility.yul\":8301:8305   */\n      dup2\n        /* \"#utility.yul\":8175:8306   */\n      tag_261\n      jump\t// in\n    tag_291:\n        /* \"#utility.yul\":8167:8306   */\n      swap1\n      pop\n        /* \"#utility.yul\":7894:8313   */\n      swap2\n      swap1\n      pop\n      jump\t// out\n        /* \"#utility.yul\":8319:8738   */\n    tag_62:\n        /* \"#utility.yul\":8485:8489   */\n      0x00\n        /* \"#utility.yul\":8523:8525   */\n      0x20\n        /* \"#utility.yul\":8512:8521   */\n      dup3\n        /* \"#utility.yul\":8508:8526   */\n      add\n        /* \"#utility.yul\":8500:8526   */\n      swap1\n      pop\n        /* \"#utility.yul\":8572:8581   */\n      dup2\n        /* \"#utility.yul\":8566:8570   */\n      dup2\n        /* \"#utility.yul\":8562:8582   */\n      sub\n        /* \"#utility.yul\":8558:8559   */\n      0x00\n        /* \"#utility.yul\":8547:8556   */\n      dup4\n        /* \"#utility.yul\":8543:8560   */\n      add\n        /* \"#utility.yul\":8536:8583   */\n      mstore\n        /* \"#utility.yul\":8600:8731   */\n      tag_293\n        /* \"#utility.yul\":8726:8730   */\n      dup2\n        /* \"#utility.yul\":8600:8731   */\n      tag_266\n      jump\t// in\n    tag_293:\n        /* \"#utility.yul\":8592:8731   */\n      swap1\n      pop\n        /* \"#utility.yul\":8319:8738   */\n      swap2\n      swap1\n      pop\n      jump\t// out\n        /* \"#utility.yul\":8744:9163   */\n    tag_52:\n        /* \"#utility.yul\":8910:8914   */\n      0x00\n        /* \"#utility.yul\":8948:8950   */\n      0x20\n        /* \"#utility.yul\":8937:8946   */\n      dup3\n        /* \"#utility.yul\":8933:8951   */\n      add\n        /* \"#utility.yul\":8925:8951   */\n      swap1\n      pop\n        /* \"#utility.yul\":8997:9006   */\n      dup2\n        /* \"#utility.yul\":8991:8995   */\n      dup2\n        /* \"#utility.yul\":8987:9007   */\n      sub\n        /* \"#utility.yul\":8983:8984   */\n      0x00\n        /* \"#utility.yul\":8972:8981   */\n      dup4\n        /* \"#utility.yul\":8968:8985   */\n      add\n        /* \"#utility.yul\":8961:9008   */\n      mstore\n        /* \"#utility.yul\":9025:9156   */\n      tag_295\n        /* \"#utility.yul\":9151:9155   */\n      dup2\n        /* \"#utility.yul\":9025:9156   */\n      tag_271\n      jump\t// in\n    tag_295:\n        /* \"#utility.yul\":9017:9156   */\n      swap1\n      pop\n        /* \"#utility.yul\":8744:9163   */\n      swap2\n      swap1\n      pop\n      jump\t// out\n        /* \"#utility.yul\":9169:9391   */\n    tag_21:\n        /* \"#utility.yul\":9262:9266   */\n      0x00\n        /* \"#utility.yul\":9300:9302   */\n      0x20\n        /* \"#utility.yul\":9289:9298   */\n      dup3\n        /* \"#utility.yul\":9285:9303   */\n      add\n        /* \"#utility.yul\":9277:9303   */\n      swap1\n      pop\n        /* \"#utility.yul\":9313:9384   */\n      tag_297\n        /* \"#utility.yul\":9381:9382   */\n      0x00\n        /* \"#utility.yul\":9370:9379   */\n      dup4\n        /* \"#utility.yul\":9366:9383   */\n      add\n        /* \"#utility.yul\":9357:9363   */\n      dup5\n        /* \"#utility.yul\":9313:9384   */\n      tag_276\n      jump\t// in\n    tag_297:\n        /* \"#utility.yul\":9169:9391   */\n      swap3\n      swap2\n      pop\n      pop\n      jump\t// out\n        /* \"#utility.yul\":9397:9526   */\n    tag_180:\n        /* \"#utility.yul\":9431:9437   */\n      0x00\n        /* \"#utility.yul\":9458:9478   */\n      tag_299\n      tag_300\n      jump\t// in\n    tag_299:\n        /* \"#utility.yul\":9448:9478   */\n      swap1\n      pop\n        /* \"#utility.yul\":9487:9520   */\n      tag_301\n        /* \"#utility.yul\":9515:9519   */\n      dup3\n        /* \"#utility.yul\":9507:9513   */\n      dup3\n        /* \"#utility.yul\":9487:9520   */\n      tag_302\n      jump\t// in\n    tag_301:\n        /* \"#utility.yul\":9397:9526   */\n      swap2\n      swap1\n      pop\n      jump\t// out\n        /* \"#utility.yul\":9532:9607   */\n    tag_300:\n        /* \"#utility.yul\":9565:9571   */\n      0x00\n        /* \"#utility.yul\":9598:9600   */\n      0x40\n        /* \"#utility.yul\":9592:9601   */\n      mload\n        /* \"#utility.yul\":9582:9601   */\n      swap1\n      pop\n        /* \"#utility.yul\":9532:9607   */\n      swap1\n      jump\t// out\n        /* \"#utility.yul\":9613:9921   */\n    tag_179:\n        /* \"#utility.yul\":9675:9679   */\n      0x00\n        /* \"#utility.yul\":9765:9783   */\n      0xffffffffffffffff\n        /* \"#utility.yul\":9757:9763   */\n      dup3\n        /* \"#utility.yul\":9754:9784   */\n      gt\n        /* \"#utility.yul\":9751:9807   */\n      iszero\n      tag_305\n      jumpi\n        /* \"#utility.yul\":9787:9805   */\n      tag_306\n      tag_307\n      jump\t// in\n    tag_306:\n        /* \"#utility.yul\":9751:9807   */\n    tag_305:\n        /* \"#utility.yul\":9825:9854   */\n      tag_308\n        /* \"#utility.yul\":9847:9853   */\n      dup3\n        /* \"#utility.yul\":9825:9854   */\n      tag_309\n      jump\t// in\n    tag_308:\n        /* \"#utility.yul\":9817:9854   */\n      swap1\n      pop\n        /* \"#utility.yul\":9909:9913   */\n      0x20\n        /* \"#utility.yul\":9903:9907   */\n      dup2\n        /* \"#utility.yul\":9899:9914   */\n      add\n        /* \"#utility.yul\":9891:9914   */\n      swap1\n      pop\n        /* \"#utility.yul\":9613:9921   */\n      swap2\n      swap1\n      pop\n      jump\t// out\n        /* \"#utility.yul\":9927:10026   */\n    tag_245:\n        /* \"#utility.yul\":9979:9985   */\n      0x00\n        /* \"#utility.yul\":10013:10018   */\n      dup2\n        /* \"#utility.yul\":10007:10019   */\n      mload\n        /* \"#utility.yul\":9997:10019   */\n      swap1\n      pop\n        /* \"#utility.yul\":9927:10026   */\n      swap2\n      swap1\n      pop\n      jump\t// out\n        /* \"#utility.yul\":10032:10201   */\n    tag_253:\n        /* \"#utility.yul\":10116:10127   */\n      0x00\n        /* \"#utility.yul\":10150:10156   */\n      dup3\n        /* \"#utility.yul\":10145:10148   */\n      dup3\n        /* \"#utility.yul\":10138:10157   */\n      mstore\n        /* \"#utility.yul\":10190:10194   */\n      0x20\n        /* \"#utility.yul\":10185:10188   */\n      dup3\n        /* \"#utility.yul\":10181:10195   */\n      add\n        /* \"#utility.yul\":10166:10195   */\n      swap1\n      pop\n        /* \"#utility.yul\":10032:10201   */\n      swap3\n      swap2\n      pop\n      pop\n      jump\t// out\n        /* \"#utility.yul\":10207:10355   */\n    tag_247:\n        /* \"#utility.yul\":10309:10320   */\n      0x00\n        /* \"#utility.yul\":10346:10349   */\n      dup2\n        /* \"#utility.yul\":10331:10349   */\n      swap1\n      pop\n        /* \"#utility.yul\":10207:10355   */\n      swap3\n      swap2\n      pop\n      pop\n      jump\t// out\n        /* \"#utility.yul\":10361:10666   */\n    tag_80:\n        /* \"#utility.yul\":10401:10404   */\n      0x00\n        /* \"#utility.yul\":10420:10440   */\n      tag_314\n        /* \"#utility.yul\":10438:10439   */\n      dup3\n        /* \"#utility.yul\":10420:10440   */\n      tag_279\n      jump\t// in\n    tag_314:\n        /* \"#utility.yul\":10415:10440   */\n      swap2\n      pop\n        /* \"#utility.yul\":10454:10474   */\n      tag_315\n        /* \"#utility.yul\":10472:10473   */\n      dup4\n        /* \"#utility.yul\":10454:10474   */\n      tag_279\n      jump\t// in\n    tag_315:\n        /* \"#utility.yul\":10449:10474   */\n      swap3\n      pop\n        /* \"#utility.yul\":10608:10609   */\n      dup3\n        /* \"#utility.yul\":10540:10606   */\n      0xffffffffffffffffffffffffffffffffffffffffffffffffffffffffffffffff\n        /* \"#utility.yul\":10536:10610   */\n      sub\n        /* \"#utility.yul\":10533:10534   */\n      dup3\n        /* \"#utility.yul\":10530:10611   */\n      gt\n        /* \"#utility.yul\":10527:10634   */\n      iszero\n      tag_316\n      jumpi\n        /* \"#utility.yul\":10614:10632   */\n      tag_317\n      tag_318\n      jump\t// in\n    tag_317:\n        /* \"#utility.yul\":10527:10634   */\n    tag_316:\n        /* \"#utility.yul\":10658:10659   */\n      dup3\n        /* \"#utility.yul\":10655:10656   */\n      dup3\n        /* \"#utility.yul\":10651:10660   */\n      add\n        /* \"#utility.yul\":10644:10660   */\n      swap1\n      pop\n        /* \"#utility.yul\":10361:10666   */\n      swap3\n      swap2\n      pop\n      pop\n      jump\t// out\n        /* \"#utility.yul\":10672:10768   */\n    tag_237:\n        /* \"#utility.yul\":10709:10716   */\n      0x00\n        /* \"#utility.yul\":10738:10762   */\n      tag_320\n        /* \"#utility.yul\":10756:10761   */\n      dup3\n        /* \"#utility.yul\":10738:10762   */\n      tag_321\n      jump\t// in\n    tag_320:\n        /* \"#utility.yul\":10727:10762   */\n      swap1\n      pop\n        /* \"#utility.yul\":10672:10768   */\n      swap2\n      swap1\n      pop\n      jump\t// out\n        /* \"#utility.yul\":10774:10864   */\n    tag_241:\n        /* \"#utility.yul\":10808:10815   */\n      0x00\n        /* \"#utility.yul\":10851:10856   */\n      dup2\n        /* \"#utility.yul\":10844:10857   */\n      iszero\n        /* \"#utility.yul\":10837:10858   */\n      iszero\n        /* \"#utility.yul\":10826:10858   */\n      swap1\n      pop\n        /* \"#utility.yul\":10774:10864   */\n      swap2\n      swap1\n      pop\n      jump\t// out\n        /* \"#utility.yul\":10870:10996   */\n    tag_321:\n        /* \"#utility.yul\":10907:10914   */\n      0x00\n        /* \"#utility.yul\":10947:10989   */\n      0xffffffffffffffffffffffffffffffffffffffff\n        /* \"#utility.yul\":10940:10945   */\n      dup3\n        /* \"#utility.yul\":10936:10990   */\n      and\n        /* \"#utility.yul\":10925:10990   */\n      swap1\n      pop\n        /* \"#utility.yul\":10870:10996   */\n      swap2\n      swap1\n      pop\n      jump\t// out\n        /* \"#utility.yul\":11002:11079   */\n    tag_279:\n        /* \"#utility.yul\":11039:11046   */\n      0x00\n        /* \"#utility.yul\":11068:11073   */\n      dup2\n        /* \"#utility.yul\":11057:11073   */\n      swap1\n      pop\n        /* \"#utility.yul\":11002:11079   */\n      swap2\n      swap1\n      pop\n      jump\t// out\n        /* \"#utility.yul\":11085:11239   */\n    tag_185:\n        /* \"#utility.yul\":11169:11175   */\n      dup3\n        /* \"#utility.yul\":11164:11167   */\n      dup2\n        /* \"#utility.yul\":11159:11162   */\n      dup4\n        /* \"#utility.yul\":11146:11176   */\n      calldatacopy\n        /* \"#utility.yul\":11231:11232   */\n      0x00\n        /* \"#utility.yul\":11222:11228   */\n      dup4\n        /* \"#utility.yul\":11217:11220   */\n      dup4\n        /* \"#utility.yul\":11213:11229   */\n      add\n        /* \"#utility.yul\":11206:11233   */\n      mstore\n        /* \"#utility.yul\":11085:11239   */\n      pop\n      pop\n      pop\n      jump\t// out\n        /* \"#utility.yul\":11245:11552   */\n    tag_249:\n        /* \"#utility.yul\":11313:11314   */\n      0x00\n        /* \"#utility.yul\":11323:11436   */\n    tag_327:\n        /* \"#utility.yul\":11337:11343   */\n      dup4\n        /* \"#utility.yul\":11334:11335   */\n      dup2\n        /* \"#utility.yul\":11331:11344   */\n      lt\n        /* \"#utility.yul\":11323:11436   */\n      iszero\n      tag_329\n      jumpi\n        /* \"#utility.yul\":11422:11423   */\n      dup1\n        /* \"#utility.yul\":11417:11420   */\n      dup3\n        /* \"#utility.yul\":11413:11424   */\n      add\n        /* \"#utility.yul\":11407:11425   */\n      mload\n        /* \"#utility.yul\":11403:11404   */\n      dup2\n        /* \"#utility.yul\":11398:11401   */\n      dup5\n        /* \"#utility.yul\":11394:11405   */\n      add\n        /* \"#utility.yul\":11387:11426   */\n      mstore\n        /* \"#utility.yul\":11359:11361   */\n      0x20\n        /* \"#utility.yul\":11356:11357   */\n      dup2\n        /* \"#utility.yul\":11352:11362   */\n      add\n        /* \"#utility.yul\":11347:11362   */\n      swap1\n      pop\n        /* \"#utility.yul\":11323:11436   */\n      jump(tag_327)\n    tag_329:\n        /* \"#utility.yul\":11454:11460   */\n      dup4\n        /* \"#utility.yul\":11451:11452   */\n      dup2\n        /* \"#utility.yul\":11448:11461   */\n      gt\n        /* \"#utility.yul\":11445:11546   */\n      iszero\n      tag_330\n      jumpi\n        /* \"#utility.yul\":11534:11535   */\n      0x00\n        /* \"#utility.yul\":11525:11531   */\n      dup5\n        /* \"#utility.yul\":11520:11523   */\n      dup5\n        /* \"#utility.yul\":11516:11532   */\n      add\n        /* \"#utility.yul\":11509:11536   */\n      mstore\n        /* \"#utility.yul\":11445:11546   */\n    tag_330:\n        /* \"#utility.yul\":11294:11552   */\n      pop\n        /* \"#utility.yul\":11245:11552   */\n      pop\n      pop\n      pop\n      jump\t// out\n        /* \"#utility.yul\":11558:11878   */\n    tag_99:\n        /* \"#utility.yul\":11602:11608   */\n      0x00\n        /* \"#utility.yul\":11639:11640   */\n      0x02\n        /* \"#utility.yul\":11633:11637   */\n      dup3\n        /* \"#utility.yul\":11629:11641   */\n      div\n        /* \"#utility.yul\":11619:11641   */\n      swap1\n      pop\n        /* \"#utility.yul\":11686:11687   */\n      0x01\n        /* \"#utility.yul\":11680:11684   */\n      dup3\n        /* \"#utility.yul\":11676:11688   */\n      and\n        /* \"#utility.yul\":11707:11725   */\n      dup1\n        /* \"#utility.yul\":11697:11778   */\n      tag_332\n      jumpi\n        /* \"#utility.yul\":11763:11767   */\n      0x7f\n        /* \"#utility.yul\":11755:11761   */\n      dup3\n        /* \"#utility.yul\":11751:11768   */\n      and\n        /* \"#utility.yul\":11741:11768   */\n      swap2\n      pop\n        /* \"#utility.yul\":11697:11778   */\n    tag_332:\n        /* \"#utility.yul\":11825:11827   */\n      0x20\n        /* \"#utility.yul\":11817:11823   */\n      dup3\n        /* \"#utility.yul\":11814:11828   */\n      lt\n        /* \"#utility.yul\":11794:11812   */\n      dup2\n        /* \"#utility.yul\":11791:11829   */\n      eq\n        /* \"#utility.yul\":11788:11872   */\n      iszero\n      tag_333\n      jumpi\n        /* \"#utility.yul\":11844:11862   */\n      tag_334\n      tag_335\n      jump\t// in\n    tag_334:\n        /* \"#utility.yul\":11788:11872   */\n    tag_333:\n        /* \"#utility.yul\":11609:11878   */\n      pop\n        /* \"#utility.yul\":11558:11878   */\n      swap2\n      swap1\n      pop\n      jump\t// out\n        /* \"#utility.yul\":11884:12165   */\n    tag_302:\n        /* \"#utility.yul\":11967:11994   */\n      tag_337\n        /* \"#utility.yul\":11989:11993   */\n      dup3\n        /* \"#utility.yul\":11967:11994   */\n      tag_309\n      jump\t// in\n    tag_337:\n        /* \"#utility.yul\":11959:11965   */\n      dup2\n        /* \"#utility.yul\":11955:11995   */\n      add\n        /* \"#utility.yul\":12097:12103   */\n      dup2\n        /* \"#utility.yul\":12085:12095   */\n      dup2\n        /* \"#utility.yul\":12082:12104   */\n      lt\n        /* \"#utility.yul\":12061:12079   */\n      0xffffffffffffffff\n        /* \"#utility.yul\":12049:12059   */\n      dup3\n        /* \"#utility.yul\":12046:12080   */\n      gt\n        /* \"#utility.yul\":12043:12105   */\n      or\n        /* \"#utility.yul\":12040:12128   */\n      iszero\n      tag_338\n      jumpi\n        /* \"#utility.yul\":12108:12126   */\n      tag_339\n      tag_307\n      jump\t// in\n    tag_339:\n        /* \"#utility.yul\":12040:12128   */\n    tag_338:\n        /* \"#utility.yul\":12148:12158   */\n      dup1\n        /* \"#utility.yul\":12144:12146   */\n      0x40\n        /* \"#utility.yul\":12137:12159   */\n      mstore\n        /* \"#utility.yul\":11927:12165   */\n      pop\n        /* \"#utility.yul\":11884:12165   */\n      pop\n      pop\n      jump\t// out\n        /* \"#utility.yul\":12171:12404   */\n    tag_123:\n        /* \"#utility.yul\":12210:12213   */\n      0x00\n        /* \"#utility.yul\":12233:12257   */\n      tag_341\n        /* \"#utility.yul\":12251:12256   */\n      dup3\n        /* \"#utility.yul\":12233:12257   */\n      tag_279\n      jump\t// in\n    tag_341:\n        /* \"#utility.yul\":12224:12257   */\n      swap2\n      pop\n        /* \"#utility.yul\":12279:12345   */\n      0xffffffffffffffffffffffffffffffffffffffffffffffffffffffffffffffff\n        /* \"#utility.yul\":12272:12277   */\n      dup3\n        /* \"#utility.yul\":12269:12346   */\n      eq\n        /* \"#utility.yul\":12266:12369   */\n      iszero\n      tag_342\n      jumpi\n        /* \"#utility.yul\":12349:12367   */\n      tag_343\n      tag_318\n      jump\t// in\n    tag_343:\n        /* \"#utility.yul\":12266:12369   */\n    tag_342:\n        /* \"#utility.yul\":12396:12397   */\n      0x01\n        /* \"#utility.yul\":12389:12394   */\n      dup3\n        /* \"#utility.yul\":12385:12398   */\n      add\n        /* \"#utility.yul\":12378:12398   */\n      swap1\n      pop\n        /* \"#utility.yul\":12171:12404   */\n      swap2\n      swap1\n      pop\n      jump\t// out\n        /* \"#utility.yul\":12410:12590   */\n    tag_318:\n        /* \"#utility.yul\":12458:12535   */\n      0x4e487b7100000000000000000000000000000000000000000000000000000000\n        /* \"#utility.yul\":12455:12456   */\n      0x00\n        /* \"#utility.yul\":12448:12536   */\n      mstore\n        /* \"#utility.yul\":12555:12559   */\n      0x11\n        /* \"#utility.yul\":12552:12553   */\n      0x04\n        /* \"#utility.yul\":12545:12560   */\n      mstore\n        /* \"#utility.yul\":12579:12583   */\n      0x24\n        /* \"#utility.yul\":12576:12577   */\n      0x00\n        /* \"#utility.yul\":12569:12584   */\n      revert\n        /* \"#utility.yul\":12596:12776   */\n    tag_57:\n        /* \"#utility.yul\":12644:12721   */\n      0x4e487b7100000000000000000000000000000000000000000000000000000000\n        /* \"#utility.yul\":12641:12642   */\n      0x00\n        /* \"#utility.yul\":12634:12722   */\n      mstore\n        /* \"#utility.yul\":12741:12745   */\n      0x21\n        /* \"#utility.yul\":12738:12739   */\n      0x04\n        /* \"#utility.yul\":12731:12746   */\n      mstore\n        /* \"#utility.yul\":12765:12769   */\n      0x24\n        /* \"#utility.yul\":12762:12763   */\n      0x00\n        /* \"#utility.yul\":12755:12770   */\n      revert\n        /* \"#utility.yul\":12782:12962   */\n    tag_335:\n        /* \"#utility.yul\":12830:12907   */\n      0x4e487b7100000000000000000000000000000000000000000000000000000000\n        /* \"#utility.yul\":12827:12828   */\n      0x00\n        /* \"#utility.yul\":12820:12908   */\n      mstore\n        /* \"#utility.yul\":12927:12931   */\n      0x22\n        /* \"#utility.yul\":12924:12925   */\n      0x04\n        /* \"#utility.yul\":12917:12932   */\n      mstore\n        /* \"#utility.yul\":12951:12955   */\n      0x24\n        /* \"#utility.yul\":12948:12949   */\n      0x00\n        /* \"#utility.yul\":12941:12956   */\n      revert\n        /* \"#utility.yul\":12968:13148   */\n    tag_307:\n        /* \"#utility.yul\":13016:13093   */\n      0x4e487b7100000000000000000000000000000000000000000000000000000000\n        /* \"#utility.yul\":13013:13014   */\n      0x00\n        /* \"#utility.yul\":13006:13094   */\n      mstore\n        /* \"#utility.yul\":13113:13117   */\n      0x41\n        /* \"#utility.yul\":13110:13111   */\n      0x04\n        /* \"#utility.yul\":13103:13118   */\n      mstore\n        /* \"#utility.yul\":13137:13141   */\n      0x24\n        /* \"#utility.yul\":13134:13135   */\n      0x00\n        /* \"#utility.yul\":13127:13142   */\n      revert\n        /* \"#utility.yul\":13154:13271   */\n    tag_198:\n        /* \"#utility.yul\":13263:13264   */\n      0x00\n        /* \"#utility.yul\":13260:13261   */\n      dup1\n        /* \"#utility.yul\":13253:13265   */\n      revert\n        /* \"#utility.yul\":13277:13394   */\n    tag_183:\n        /* \"#utility.yul\":13386:13387   */\n      0x00\n        /* \"#utility.yul\":13383:13384   */\n      dup1\n        /* \"#utility.yul\":13376:13388   */\n      revert\n        /* \"#utility.yul\":13400:13517   */\n    tag_214:\n        /* \"#utility.yul\":13509:13510   */\n      0x00\n        /* \"#utility.yul\":13506:13507   */\n      dup1\n        /* \"#utility.yul\":13499:13511   */\n      revert\n        /* \"#utility.yul\":13523:13640   */\n    tag_207:\n        /* \"#utility.yul\":13632:13633   */\n      0x00\n        /* \"#utility.yul\":13629:13630   */\n      dup1\n        /* \"#utility.yul\":13622:13634   */\n      revert\n        /* \"#utility.yul\":13646:13748   */\n    tag_309:\n        /* \"#utility.yul\":13687:13693   */\n      0x00\n        /* \"#utility.yul\":13738:13740   */\n      0x1f\n        /* \"#utility.yul\":13734:13741   */\n      not\n        /* \"#utility.yul\":13729:13731   */\n      0x1f\n        /* \"#utility.yul\":13722:13727   */\n      dup4\n        /* \"#utility.yul\":13718:13732   */\n      add\n        /* \"#utility.yul\":13714:13742   */\n      and\n        /* \"#utility.yul\":13704:13742   */\n      swap1\n      pop\n        /* \"#utility.yul\":13646:13748   */\n      swap2\n      swap1\n      pop\n      jump\t// out\n        /* \"#utility.yul\":13754:13931   */\n    tag_255:\n        /* \"#utility.yul\":13894:13923   */\n      0x54686973204944206f66204e465420646f6e2774206578697374730000000000\n        /* \"#utility.yul\":13890:13891   */\n      0x00\n        /* \"#utility.yul\":13882:13888   */\n      dup3\n        /* \"#utility.yul\":13878:13892   */\n      add\n        /* \"#utility.yul\":13871:13924   */\n      mstore\n        /* \"#utility.yul\":13754:13931   */\n      pop\n      jump\t// out\n        /* \"#utility.yul\":13937:14162   */\n    tag_260:\n        /* \"#utility.yul\":14077:14111   */\n      0x4f776e61626c653a206e6577206f776e657220697320746865207a65726f2061\n        /* \"#utility.yul\":14073:14074   */\n      0x00\n        /* \"#utility.yul\":14065:14071   */\n      dup3\n        /* \"#utility.yul\":14061:14075   */\n      add\n        /* \"#utility.yul\":14054:14112   */\n      mstore\n        /* \"#utility.yul\":14146:14154   */\n      0x6464726573730000000000000000000000000000000000000000000000000000\n        /* \"#utility.yul\":14141:14143   */\n      0x20\n        /* \"#utility.yul\":14133:14139   */\n      dup3\n        /* \"#utility.yul\":14129:14144   */\n      add\n        /* \"#utility.yul\":14122:14155   */\n      mstore\n        /* \"#utility.yul\":13937:14162   */\n      pop\n      jump\t// out\n        /* \"#utility.yul\":14168:14349   */\n    tag_265:\n        /* \"#utility.yul\":14308:14341   */\n      0x556e61626c6520746f207265706561742074686520646574656374696f6e2100\n        /* \"#utility.yul\":14304:14305   */\n      0x00\n        /* \"#utility.yul\":14296:14302   */\n      dup3\n        /* \"#utility.yul\":14292:14306   */\n      add\n        /* \"#utility.yul\":14285:14342   */\n      mstore\n        /* \"#utility.yul\":14168:14349   */\n      pop\n      jump\t// out\n        /* \"#utility.yul\":14355:14589   */\n    tag_270:\n        /* \"#utility.yul\":14495:14529   */\n      0x546865204e465420646f6573206e6f74206d6565742074686520646574656374\n        /* \"#utility.yul\":14491:14492   */\n      0x00\n        /* \"#utility.yul\":14483:14489   */\n      dup3\n        /* \"#utility.yul\":14479:14493   */\n      add\n        /* \"#utility.yul\":14472:14530   */\n      mstore\n        /* \"#utility.yul\":14564:14581   */\n      0x696f6e20636f6e646974696f6e73210000000000000000000000000000000000\n        /* \"#utility.yul\":14559:14561   */\n      0x20\n        /* \"#utility.yul\":14551:14557   */\n      dup3\n        /* \"#utility.yul\":14547:14562   */\n      add\n        /* \"#utility.yul\":14540:14582   */\n      mstore\n        /* \"#utility.yul\":14355:14589   */\n      pop\n      jump\t// out\n        /* \"#utility.yul\":14595:14777   */\n    tag_275:\n        /* \"#utility.yul\":14735:14769   */\n      0x4f776e61626c653a2063616c6c6572206973206e6f7420746865206f776e6572\n        /* \"#utility.yul\":14731:14732   */\n      0x00\n        /* \"#utility.yul\":14723:14729   */\n      dup3\n        /* \"#utility.yul\":14719:14733   */\n      add\n        /* \"#utility.yul\":14712:14770   */\n      mstore\n        /* \"#utility.yul\":14595:14777   */\n      pop\n      jump\t// out\n        /* \"#utility.yul\":14783:14905   */\n    tag_189:\n        /* \"#utility.yul\":14856:14880   */\n      tag_359\n        /* \"#utility.yul\":14874:14879   */\n      dup2\n        /* \"#utility.yul\":14856:14880   */\n      tag_237\n      jump\t// in\n    tag_359:\n        /* \"#utility.yul\":14849:14854   */\n      dup2\n        /* \"#utility.yul\":14846:14881   */\n      eq\n        /* \"#utility.yul\":14836:14899   */\n      tag_360\n      jumpi\n        /* \"#utility.yul\":14895:14896   */\n      0x00\n        /* \"#utility.yul\":14892:14893   */\n      dup1\n        /* \"#utility.yul\":14885:14897   */\n      revert\n        /* \"#utility.yul\":14836:14899   */\n    tag_360:\n        /* \"#utility.yul\":14783:14905   */\n      pop\n      jump\t// out\n        /* \"#utility.yul\":14911:15027   */\n    tag_193:\n        /* \"#utility.yul\":14981:15002   */\n      tag_362\n        /* \"#utility.yul\":14996:15001   */\n      dup2\n        /* \"#utility.yul\":14981:15002   */\n      tag_241\n      jump\t// in\n    tag_362:\n        /* \"#utility.yul\":14974:14979   */\n      dup2\n        /* \"#utility.yul\":14971:15003   */\n      eq\n        /* \"#utility.yul\":14961:15021   */\n      tag_363\n      jumpi\n        /* \"#utility.yul\":15017:15018   */\n      0x00\n        /* \"#utility.yul\":15014:15015   */\n      dup1\n        /* \"#utility.yul\":15007:15019   */\n      revert\n        /* \"#utility.yul\":14961:15021   */\n    tag_363:\n        /* \"#utility.yul\":14911:15027   */\n      pop\n      jump\t// out\n        /* \"#utility.yul\":15033:15155   */\n    tag_203:\n        /* \"#utility.yul\":15106:15130   */\n      tag_365\n        /* \"#utility.yul\":15124:15129   */\n      dup2\n        /* \"#utility.yul\":15106:15130   */\n      tag_279\n      jump\t// in\n    tag_365:\n        /* \"#utility.yul\":15099:15104   */\n      dup2\n        /* \"#utility.yul\":15096:15131   */\n      eq\n        /* \"#utility.yul\":15086:15149   */\n      tag_366\n      jumpi\n        /* \"#utility.yul\":15145:15146   */\n      0x00\n        /* \"#utility.yul\":15142:15143   */\n      dup1\n        /* \"#utility.yul\":15135:15147   */\n      revert\n        /* \"#utility.yul\":15086:15149   */\n    tag_366:\n        /* \"#utility.yul\":15033:15155   */\n      pop\n      jump\t// out\n\n    auxdata: 0xa264697066735822122014fe4f23b102a54f2dfe22aacedaffbfe1894d240874e79c04467db87bfaab8964736f6c63430008070033\n}\n",
				"bytecode": {
					"linkReferences": {},
					"object": "6080604052600060015534801561001557600080fd5b5061003261002761003760201b60201c565b61003f60201b60201c565b610103565b600033905090565b60008060009054906101000a900473ffffffffffffffffffffffffffffffffffffffff169050816000806101000a81548173ffffffffffffffffffffffffffffffffffffffff021916908373ffffffffffffffffffffffffffffffffffffffff1602179055508173ffffffffffffffffffffffffffffffffffffffff168173ffffffffffffffffffffffffffffffffffffffff167f8be0079c531659141344cd1fd0a4f28419497f9722a3daafe3b4186f6b6457e060405160405180910390a35050565b61169d806101126000396000f3fe608060405234801561001057600080fd5b50600436106100885760003560e01c8063b3cea2171161005b578063b3cea21714610101578063b5e3029f1461011f578063d0aeae961461014f578063f2fde38b1461017f57610088565b80631c5a3e521461008d5780633a4f2d24146100a9578063715018a6146100d95780638da5cb5b146100e3575b600080fd5b6100a760048036038101906100a29190610fca565b61019b565b005b6100c360048036038101906100be9190610f25565b610378565b6040516100d09190611204565b60405180910390f35b6100e1610541565b005b6100eb6105c9565b6040516100f8919061112e565b60405180910390f35b6101096105f2565b6040516101169190611204565b60405180910390f35b61013960048036038101906101349190610f9d565b6105f8565b6040516101469190611149565b60405180910390f35b61016960048036038101906101649190610edc565b610858565b6040516101769190611149565b60405180910390f35b61019960048036038101906101949190610eaf565b610972565b005b6101a3610a6a565b73ffffffffffffffffffffffffffffffffffffffff166101c16105c9565b73ffffffffffffffffffffffffffffffffffffffff1614610217576040517f08c379a000000000000000000000000000000000000000000000000000000000815260040161020e906111e4565b60405180910390fd5b600015156002600084815260200190815260200160002060030160009054906101000a900460ff16151514801561029557506000600181111561025d5761025c611457565b5b6002600084815260200190815260200160002060000160009054906101000a900460ff16600181111561029357610292611457565b5b145b6102d4576040517f08c379a00000000000000000000000000000000000000000000000000000000081526004016102cb906111c4565b60405180910390fd5b806002600084815260200190815260200160002060030160016101000a81548160ff021916908315150217905550600060026000600154815260200190815260200160002060030160006101000a81548160ff021916908315150217905550600160026000600154815260200190815260200160002060000160006101000a81548160ff0219169083600181111561036f5761036e611457565b5b02179055505050565b600061038383610a72565b8015610394575061039382610b59565b5b6103d3576040517f08c379a00000000000000000000000000000000000000000000000000000000081526004016103ca906111a4565b60405180910390fd5b8260026000600154815260200190815260200160002060010190805190602001906103ff929190610d5d565b5081600260006001548152602001908152602001600020600201908051906020019061042c929190610d5d565b50600060026000600154815260200190815260200160002060000160006101000a81548160ff0219169083600181111561046957610468611457565b5b0217905550600060026000600154815260200190815260200160002060030160006101000a81548160ff021916908315150217905550600060026000600154815260200190815260200160002060030160016101000a81548160ff0219169083151502179055503360026000600154815260200190815260200160002060030160026101000a81548173ffffffffffffffffffffffffffffffffffffffff021916908373ffffffffffffffffffffffffffffffffffffffff16021790555060018054610535919061129c565b60018190555092915050565b610549610a6a565b73ffffffffffffffffffffffffffffffffffffffff166105676105c9565b73ffffffffffffffffffffffffffffffffffffffff16146105bd576040517f08c379a00000000000000000000000000000000000000000000000000000000081526004016105b4906111e4565b60405180910390fd5b6105c76000610c40565b565b60008060009054906101000a900473ffffffffffffffffffffffffffffffffffffffff16905090565b60015481565b6000600154821061063e576040517f08c379a000000000000000000000000000000000000000000000000000000000815260040161063590611164565b60405180910390fd5b6000600260008481526020019081526020016000206040518060c00160405290816000820160009054906101000a900460ff16600181111561068357610682611457565b5b600181111561069557610694611457565b5b81526020016001820180546106a99061137c565b80601f01602080910402602001604051908101604052809291908181526020018280546106d59061137c565b80156107225780601f106106f757610100808354040283529160200191610722565b820191906000526020600020905b81548152906001019060200180831161070557829003601f168201915b5050505050815260200160028201805461073b9061137c565b80601f01602080910402602001604051908101604052809291908181526020018280546107679061137c565b80156107b45780601f10610789576101008083540402835291602001916107b4565b820191906000526020600020905b81548152906001019060200180831161079757829003601f168201915b505050505081526020016003820160009054906101000a900460ff161515151581526020016003820160019054906101000a900460ff161515151581526020016003820160029054906101000a900473ffffffffffffffffffffffffffffffffffffffff1673ffffffffffffffffffffffffffffffffffffffff1673ffffffffffffffffffffffffffffffffffffffff168152505090508060800151915050919050565b600080600090505b6001548110156109675761091260026000838152602001908152602001600020600101805461088e9061137c565b80601f01602080910402602001604051908101604052809291908181526020018280546108ba9061137c565b80156109075780601f106108dc57610100808354040283529160200191610907565b820191906000526020600020905b8154815290600101906020018083116108ea57829003601f168201915b505050505084610d04565b80156109455750600115156002600083815260200190815260200160002060030160019054906101000a900460ff161515145b1561095457600191505061096d565b808061095f906113df565b915050610860565b50600090505b919050565b61097a610a6a565b73ffffffffffffffffffffffffffffffffffffffff166109986105c9565b73ffffffffffffffffffffffffffffffffffffffff16146109ee576040517f08c379a00000000000000000000000000000000000000000000000000000000081526004016109e5906111e4565b60405180910390fd5b600073ffffffffffffffffffffffffffffffffffffffff168173ffffffffffffffffffffffffffffffffffffffff161415610a5e576040517f08c379a0000000000000000000000000000000000000000000000000000000008152600401610a5590611184565b60405180910390fd5b610a6781610c40565b50565b600033905090565b600080600090505b600154811015610b4e57610b2c600260008381526020019081526020016000206001018054610aa89061137c565b80601f0160208091040260200160405190810160405280929190818152602001828054610ad49061137c565b8015610b215780601f10610af657610100808354040283529160200191610b21565b820191906000526020600020905b815481529060010190602001808311610b0457829003601f168201915b505050505084610d04565b15610b3b576000915050610b54565b8080610b46906113df565b915050610a7a565b50600190505b919050565b600080600090505b600154811015610c3557610c13600260008381526020019081526020016000206002018054610b8f9061137c565b80601f0160208091040260200160405190810160405280929190818152602001828054610bbb9061137c565b8015610c085780601f10610bdd57610100808354040283529160200191610c08565b820191906000526020600020905b815481529060010190602001808311610beb57829003601f168201915b505050505084610d04565b15610c22576000915050610c3b565b8080610c2d906113df565b915050610b61565b50600190505b919050565b60008060009054906101000a900473ffffffffffffffffffffffffffffffffffffffff169050816000806101000a81548173ffffffffffffffffffffffffffffffffffffffff021916908373ffffffffffffffffffffffffffffffffffffffff1602179055508173ffffffffffffffffffffffffffffffffffffffff168173ffffffffffffffffffffffffffffffffffffffff167f8be0079c531659141344cd1fd0a4f28419497f9722a3daafe3b4186f6b6457e060405160405180910390a35050565b600081604051602001610d179190611117565b6040516020818303038152906040528051906020012083604051602001610d3e9190611117565b6040516020818303038152906040528051906020012014905092915050565b828054610d699061137c565b90600052602060002090601f016020900481019282610d8b5760008555610dd2565b82601f10610da457805160ff1916838001178555610dd2565b82800160010185558215610dd2579182015b82811115610dd1578251825591602001919060010190610db6565b5b509050610ddf9190610de3565b5090565b5b80821115610dfc576000816000905550600101610de4565b5090565b6000610e13610e0e84611244565b61121f565b905082815260208101848484011115610e2f57610e2e6114e9565b5b610e3a84828561133a565b509392505050565b600081359050610e5181611622565b92915050565b600081359050610e6681611639565b92915050565b600082601f830112610e8157610e806114e4565b5b8135610e91848260208601610e00565b91505092915050565b600081359050610ea981611650565b92915050565b600060208284031215610ec557610ec46114f3565b5b6000610ed384828501610e42565b91505092915050565b600060208284031215610ef257610ef16114f3565b5b600082013567ffffffffffffffff811115610f1057610f0f6114ee565b5b610f1c84828501610e6c565b91505092915050565b60008060408385031215610f3c57610f3b6114f3565b5b600083013567ffffffffffffffff811115610f5a57610f596114ee565b5b610f6685828601610e6c565b925050602083013567ffffffffffffffff811115610f8757610f866114ee565b5b610f9385828601610e6c565b9150509250929050565b600060208284031215610fb357610fb26114f3565b5b6000610fc184828501610e9a565b91505092915050565b60008060408385031215610fe157610fe06114f3565b5b6000610fef85828601610e9a565b925050602061100085828601610e57565b9150509250929050565b611013816112f2565b82525050565b61102281611304565b82525050565b600061103382611275565b61103d8185611291565b935061104d818560208601611349565b80840191505092915050565b6000611066601b83611280565b915061107182611509565b602082019050919050565b6000611089602683611280565b915061109482611532565b604082019050919050565b60006110ac601f83611280565b91506110b782611581565b602082019050919050565b60006110cf602f83611280565b91506110da826115aa565b604082019050919050565b60006110f2602083611280565b91506110fd826115f9565b602082019050919050565b61111181611330565b82525050565b60006111238284611028565b915081905092915050565b6000602082019050611143600083018461100a565b92915050565b600060208201905061115e6000830184611019565b92915050565b6000602082019050818103600083015261117d81611059565b9050919050565b6000602082019050818103600083015261119d8161107c565b9050919050565b600060208201905081810360008301526111bd8161109f565b9050919050565b600060208201905081810360008301526111dd816110c2565b9050919050565b600060208201905081810360008301526111fd816110e5565b9050919050565b60006020820190506112196000830184611108565b92915050565b600061122961123a565b905061123582826113ae565b919050565b6000604051905090565b600067ffffffffffffffff82111561125f5761125e6114b5565b5b611268826114f8565b9050602081019050919050565b600081519050919050565b600082825260208201905092915050565b600081905092915050565b60006112a782611330565b91506112b283611330565b9250827fffffffffffffffffffffffffffffffffffffffffffffffffffffffffffffffff038211156112e7576112e6611428565b5b828201905092915050565b60006112fd82611310565b9050919050565b60008115159050919050565b600073ffffffffffffffffffffffffffffffffffffffff82169050919050565b6000819050919050565b82818337600083830152505050565b60005b8381101561136757808201518184015260208101905061134c565b83811115611376576000848401525b50505050565b6000600282049050600182168061139457607f821691505b602082108114156113a8576113a7611486565b5b50919050565b6113b7826114f8565b810181811067ffffffffffffffff821117156113d6576113d56114b5565b5b80604052505050565b60006113ea82611330565b91507fffffffffffffffffffffffffffffffffffffffffffffffffffffffffffffffff82141561141d5761141c611428565b5b600182019050919050565b7f4e487b7100000000000000000000000000000000000000000000000000000000600052601160045260246000fd5b7f4e487b7100000000000000000000000000000000000000000000000000000000600052602160045260246000fd5b7f4e487b7100000000000000000000000000000000000000000000000000000000600052602260045260246000fd5b7f4e487b7100000000000000000000000000000000000000000000000000000000600052604160045260246000fd5b600080fd5b600080fd5b600080fd5b600080fd5b6000601f19601f8301169050919050565b7f54686973204944206f66204e465420646f6e2774206578697374730000000000600082015250565b7f4f776e61626c653a206e6577206f776e657220697320746865207a65726f206160008201527f6464726573730000000000000000000000000000000000000000000000000000602082015250565b7f556e61626c6520746f207265706561742074686520646574656374696f6e2100600082015250565b7f546865204e465420646f6573206e6f74206d656574207468652064657465637460008201527f696f6e20636f6e646974696f6e73210000000000000000000000000000000000602082015250565b7f4f776e61626c653a2063616c6c6572206973206e6f7420746865206f776e6572600082015250565b61162b816112f2565b811461163657600080fd5b50565b61164281611304565b811461164d57600080fd5b50565b61165981611330565b811461166457600080fd5b5056fea264697066735822122014fe4f23b102a54f2dfe22aacedaffbfe1894d240874e79c04467db87bfaab8964736f6c63430008070033",
					"opcodes": "PUSH1 0x80 PUSH1 0x40 MSTORE PUSH1 0x0 PUSH1 0x1 SSTORE CALLVALUE DUP1 ISZERO PUSH2 0x15 JUMPI PUSH1 0x0 DUP1 REVERT JUMPDEST POP PUSH2 0x32 PUSH2 0x27 PUSH2 0x37 PUSH1 0x20 SHL PUSH1 0x20 SHR JUMP JUMPDEST PUSH2 0x3F PUSH1 0x20 SHL PUSH1 0x20 SHR JUMP JUMPDEST PUSH2 0x103 JUMP JUMPDEST PUSH1 0x0 CALLER SWAP1 POP SWAP1 JUMP JUMPDEST PUSH1 0x0 DUP1 PUSH1 0x0 SWAP1 SLOAD SWAP1 PUSH2 0x100 EXP SWAP1 DIV PUSH20 0xFFFFFFFFFFFFFFFFFFFFFFFFFFFFFFFFFFFFFFFF AND SWAP1 POP DUP2 PUSH1 0x0 DUP1 PUSH2 0x100 EXP DUP2 SLOAD DUP2 PUSH20 0xFFFFFFFFFFFFFFFFFFFFFFFFFFFFFFFFFFFFFFFF MUL NOT AND SWAP1 DUP4 PUSH20 0xFFFFFFFFFFFFFFFFFFFFFFFFFFFFFFFFFFFFFFFF AND MUL OR SWAP1 SSTORE POP DUP2 PUSH20 0xFFFFFFFFFFFFFFFFFFFFFFFFFFFFFFFFFFFFFFFF AND DUP2 PUSH20 0xFFFFFFFFFFFFFFFFFFFFFFFFFFFFFFFFFFFFFFFF AND PUSH32 0x8BE0079C531659141344CD1FD0A4F28419497F9722A3DAAFE3B4186F6B6457E0 PUSH1 0x40 MLOAD PUSH1 0x40 MLOAD DUP1 SWAP2 SUB SWAP1 LOG3 POP POP JUMP JUMPDEST PUSH2 0x169D DUP1 PUSH2 0x112 PUSH1 0x0 CODECOPY PUSH1 0x0 RETURN INVALID PUSH1 0x80 PUSH1 0x40 MSTORE CALLVALUE DUP1 ISZERO PUSH2 0x10 JUMPI PUSH1 0x0 DUP1 REVERT JUMPDEST POP PUSH1 0x4 CALLDATASIZE LT PUSH2 0x88 JUMPI PUSH1 0x0 CALLDATALOAD PUSH1 0xE0 SHR DUP1 PUSH4 0xB3CEA217 GT PUSH2 0x5B JUMPI DUP1 PUSH4 0xB3CEA217 EQ PUSH2 0x101 JUMPI DUP1 PUSH4 0xB5E3029F EQ PUSH2 0x11F JUMPI DUP1 PUSH4 0xD0AEAE96 EQ PUSH2 0x14F JUMPI DUP1 PUSH4 0xF2FDE38B EQ PUSH2 0x17F JUMPI PUSH2 0x88 JUMP JUMPDEST DUP1 PUSH4 0x1C5A3E52 EQ PUSH2 0x8D JUMPI DUP1 PUSH4 0x3A4F2D24 EQ PUSH2 0xA9 JUMPI DUP1 PUSH4 0x715018A6 EQ PUSH2 0xD9 JUMPI DUP1 PUSH4 0x8DA5CB5B EQ PUSH2 0xE3 JUMPI JUMPDEST PUSH1 0x0 DUP1 REVERT JUMPDEST PUSH2 0xA7 PUSH1 0x4 DUP1 CALLDATASIZE SUB DUP2 ADD SWAP1 PUSH2 0xA2 SWAP2 SWAP1 PUSH2 0xFCA JUMP JUMPDEST PUSH2 0x19B JUMP JUMPDEST STOP JUMPDEST PUSH2 0xC3 PUSH1 0x4 DUP1 CALLDATASIZE SUB DUP2 ADD SWAP1 PUSH2 0xBE SWAP2 SWAP1 PUSH2 0xF25 JUMP JUMPDEST PUSH2 0x378 JUMP JUMPDEST PUSH1 0x40 MLOAD PUSH2 0xD0 SWAP2 SWAP1 PUSH2 0x1204 JUMP JUMPDEST PUSH1 0x40 MLOAD DUP1 SWAP2 SUB SWAP1 RETURN JUMPDEST PUSH2 0xE1 PUSH2 0x541 JUMP JUMPDEST STOP JUMPDEST PUSH2 0xEB PUSH2 0x5C9 JUMP JUMPDEST PUSH1 0x40 MLOAD PUSH2 0xF8 SWAP2 SWAP1 PUSH2 0x112E JUMP JUMPDEST PUSH1 0x40 MLOAD DUP1 SWAP2 SUB SWAP1 RETURN JUMPDEST PUSH2 0x109 PUSH2 0x5F2 JUMP JUMPDEST PUSH1 0x40 MLOAD PUSH2 0x116 SWAP2 SWAP1 PUSH2 0x1204 JUMP JUMPDEST PUSH1 0x40 MLOAD DUP1 SWAP2 SUB SWAP1 RETURN JUMPDEST PUSH2 0x139 PUSH1 0x4 DUP1 CALLDATASIZE SUB DUP2 ADD SWAP1 PUSH2 0x134 SWAP2 SWAP1 PUSH2 0xF9D JUMP JUMPDEST PUSH2 0x5F8 JUMP JUMPDEST PUSH1 0x40 MLOAD PUSH2 0x146 SWAP2 SWAP1 PUSH2 0x1149 JUMP JUMPDEST PUSH1 0x40 MLOAD DUP1 SWAP2 SUB SWAP1 RETURN JUMPDEST PUSH2 0x169 PUSH1 0x4 DUP1 CALLDATASIZE SUB DUP2 ADD SWAP1 PUSH2 0x164 SWAP2 SWAP1 PUSH2 0xEDC JUMP JUMPDEST PUSH2 0x858 JUMP JUMPDEST PUSH1 0x40 MLOAD PUSH2 0x176 SWAP2 SWAP1 PUSH2 0x1149 JUMP JUMPDEST PUSH1 0x40 MLOAD DUP1 SWAP2 SUB SWAP1 RETURN JUMPDEST PUSH2 0x199 PUSH1 0x4 DUP1 CALLDATASIZE SUB DUP2 ADD SWAP1 PUSH2 0x194 SWAP2 SWAP1 PUSH2 0xEAF JUMP JUMPDEST PUSH2 0x972 JUMP JUMPDEST STOP JUMPDEST PUSH2 0x1A3 PUSH2 0xA6A JUMP JUMPDEST PUSH20 0xFFFFFFFFFFFFFFFFFFFFFFFFFFFFFFFFFFFFFFFF AND PUSH2 0x1C1 PUSH2 0x5C9 JUMP JUMPDEST PUSH20 0xFFFFFFFFFFFFFFFFFFFFFFFFFFFFFFFFFFFFFFFF AND EQ PUSH2 0x217 JUMPI PUSH1 0x40 MLOAD PUSH32 0x8C379A000000000000000000000000000000000000000000000000000000000 DUP2 MSTORE PUSH1 0x4 ADD PUSH2 0x20E SWAP1 PUSH2 0x11E4 JUMP JUMPDEST PUSH1 0x40 MLOAD DUP1 SWAP2 SUB SWAP1 REVERT JUMPDEST PUSH1 0x0 ISZERO ISZERO PUSH1 0x2 PUSH1 0x0 DUP5 DUP2 MSTORE PUSH1 0x20 ADD SWAP1 DUP2 MSTORE PUSH1 0x20 ADD PUSH1 0x0 KECCAK256 PUSH1 0x3 ADD PUSH1 0x0 SWAP1 SLOAD SWAP1 PUSH2 0x100 EXP SWAP1 DIV PUSH1 0xFF AND ISZERO ISZERO EQ DUP1 ISZERO PUSH2 0x295 JUMPI POP PUSH1 0x0 PUSH1 0x1 DUP2 GT ISZERO PUSH2 0x25D JUMPI PUSH2 0x25C PUSH2 0x1457 JUMP JUMPDEST JUMPDEST PUSH1 0x2 PUSH1 0x0 DUP5 DUP2 MSTORE PUSH1 0x20 ADD SWAP1 DUP2 MSTORE PUSH1 0x20 ADD PUSH1 0x0 KECCAK256 PUSH1 0x0 ADD PUSH1 0x0 SWAP1 SLOAD SWAP1 PUSH2 0x100 EXP SWAP1 DIV PUSH1 0xFF AND PUSH1 0x1 DUP2 GT ISZERO PUSH2 0x293 JUMPI PUSH2 0x292 PUSH2 0x1457 JUMP JUMPDEST JUMPDEST EQ JUMPDEST PUSH2 0x2D4 JUMPI PUSH1 0x40 MLOAD PUSH32 0x8C379A000000000000000000000000000000000000000000000000000000000 DUP2 MSTORE PUSH1 0x4 ADD PUSH2 0x2CB SWAP1 PUSH2 0x11C4 JUMP JUMPDEST PUSH1 0x40 MLOAD DUP1 SWAP2 SUB SWAP1 REVERT JUMPDEST DUP1 PUSH1 0x2 PUSH1 0x0 DUP5 DUP2 MSTORE PUSH1 0x20 ADD SWAP1 DUP2 MSTORE PUSH1 0x20 ADD PUSH1 0x0 KECCAK256 PUSH1 0x3 ADD PUSH1 0x1 PUSH2 0x100 EXP DUP2 SLOAD DUP2 PUSH1 0xFF MUL NOT AND SWAP1 DUP4 ISZERO ISZERO MUL OR SWAP1 SSTORE POP PUSH1 0x0 PUSH1 0x2 PUSH1 0x0 PUSH1 0x1 SLOAD DUP2 MSTORE PUSH1 0x20 ADD SWAP1 DUP2 MSTORE PUSH1 0x20 ADD PUSH1 0x0 KECCAK256 PUSH1 0x3 ADD PUSH1 0x0 PUSH2 0x100 EXP DUP2 SLOAD DUP2 PUSH1 0xFF MUL NOT AND SWAP1 DUP4 ISZERO ISZERO MUL OR SWAP1 SSTORE POP PUSH1 0x1 PUSH1 0x2 PUSH1 0x0 PUSH1 0x1 SLOAD DUP2 MSTORE PUSH1 0x20 ADD SWAP1 DUP2 MSTORE PUSH1 0x20 ADD PUSH1 0x0 KECCAK256 PUSH1 0x0 ADD PUSH1 0x0 PUSH2 0x100 EXP DUP2 SLOAD DUP2 PUSH1 0xFF MUL NOT AND SWAP1 DUP4 PUSH1 0x1 DUP2 GT ISZERO PUSH2 0x36F JUMPI PUSH2 0x36E PUSH2 0x1457 JUMP JUMPDEST JUMPDEST MUL OR SWAP1 SSTORE POP POP POP JUMP JUMPDEST PUSH1 0x0 PUSH2 0x383 DUP4 PUSH2 0xA72 JUMP JUMPDEST DUP1 ISZERO PUSH2 0x394 JUMPI POP PUSH2 0x393 DUP3 PUSH2 0xB59 JUMP JUMPDEST JUMPDEST PUSH2 0x3D3 JUMPI PUSH1 0x40 MLOAD PUSH32 0x8C379A000000000000000000000000000000000000000000000000000000000 DUP2 MSTORE PUSH1 0x4 ADD PUSH2 0x3CA SWAP1 PUSH2 0x11A4 JUMP JUMPDEST PUSH1 0x40 MLOAD DUP1 SWAP2 SUB SWAP1 REVERT JUMPDEST DUP3 PUSH1 0x2 PUSH1 0x0 PUSH1 0x1 SLOAD DUP2 MSTORE PUSH1 0x20 ADD SWAP1 DUP2 MSTORE PUSH1 0x20 ADD PUSH1 0x0 KECCAK256 PUSH1 0x1 ADD SWAP1 DUP1 MLOAD SWAP1 PUSH1 0x20 ADD SWAP1 PUSH2 0x3FF SWAP3 SWAP2 SWAP1 PUSH2 0xD5D JUMP JUMPDEST POP DUP2 PUSH1 0x2 PUSH1 0x0 PUSH1 0x1 SLOAD DUP2 MSTORE PUSH1 0x20 ADD SWAP1 DUP2 MSTORE PUSH1 0x20 ADD PUSH1 0x0 KECCAK256 PUSH1 0x2 ADD SWAP1 DUP1 MLOAD SWAP1 PUSH1 0x20 ADD SWAP1 PUSH2 0x42C SWAP3 SWAP2 SWAP1 PUSH2 0xD5D JUMP JUMPDEST POP PUSH1 0x0 PUSH1 0x2 PUSH1 0x0 PUSH1 0x1 SLOAD DUP2 MSTORE PUSH1 0x20 ADD SWAP1 DUP2 MSTORE PUSH1 0x20 ADD PUSH1 0x0 KECCAK256 PUSH1 0x0 ADD PUSH1 0x0 PUSH2 0x100 EXP DUP2 SLOAD DUP2 PUSH1 0xFF MUL NOT AND SWAP1 DUP4 PUSH1 0x1 DUP2 GT ISZERO PUSH2 0x469 JUMPI PUSH2 0x468 PUSH2 0x1457 JUMP JUMPDEST JUMPDEST MUL OR SWAP1 SSTORE POP PUSH1 0x0 PUSH1 0x2 PUSH1 0x0 PUSH1 0x1 SLOAD DUP2 MSTORE PUSH1 0x20 ADD SWAP1 DUP2 MSTORE PUSH1 0x20 ADD PUSH1 0x0 KECCAK256 PUSH1 0x3 ADD PUSH1 0x0 PUSH2 0x100 EXP DUP2 SLOAD DUP2 PUSH1 0xFF MUL NOT AND SWAP1 DUP4 ISZERO ISZERO MUL OR SWAP1 SSTORE POP PUSH1 0x0 PUSH1 0x2 PUSH1 0x0 PUSH1 0x1 SLOAD DUP2 MSTORE PUSH1 0x20 ADD SWAP1 DUP2 MSTORE PUSH1 0x20 ADD PUSH1 0x0 KECCAK256 PUSH1 0x3 ADD PUSH1 0x1 PUSH2 0x100 EXP DUP2 SLOAD DUP2 PUSH1 0xFF MUL NOT AND SWAP1 DUP4 ISZERO ISZERO MUL OR SWAP1 SSTORE POP CALLER PUSH1 0x2 PUSH1 0x0 PUSH1 0x1 SLOAD DUP2 MSTORE PUSH1 0x20 ADD SWAP1 DUP2 MSTORE PUSH1 0x20 ADD PUSH1 0x0 KECCAK256 PUSH1 0x3 ADD PUSH1 0x2 PUSH2 0x100 EXP DUP2 SLOAD DUP2 PUSH20 0xFFFFFFFFFFFFFFFFFFFFFFFFFFFFFFFFFFFFFFFF MUL NOT AND SWAP1 DUP4 PUSH20 0xFFFFFFFFFFFFFFFFFFFFFFFFFFFFFFFFFFFFFFFF AND MUL OR SWAP1 SSTORE POP PUSH1 0x1 DUP1 SLOAD PUSH2 0x535 SWAP2 SWAP1 PUSH2 0x129C JUMP JUMPDEST PUSH1 0x1 DUP2 SWAP1 SSTORE POP SWAP3 SWAP2 POP POP JUMP JUMPDEST PUSH2 0x549 PUSH2 0xA6A JUMP JUMPDEST PUSH20 0xFFFFFFFFFFFFFFFFFFFFFFFFFFFFFFFFFFFFFFFF AND PUSH2 0x567 PUSH2 0x5C9 JUMP JUMPDEST PUSH20 0xFFFFFFFFFFFFFFFFFFFFFFFFFFFFFFFFFFFFFFFF AND EQ PUSH2 0x5BD JUMPI PUSH1 0x40 MLOAD PUSH32 0x8C379A000000000000000000000000000000000000000000000000000000000 DUP2 MSTORE PUSH1 0x4 ADD PUSH2 0x5B4 SWAP1 PUSH2 0x11E4 JUMP JUMPDEST PUSH1 0x40 MLOAD DUP1 SWAP2 SUB SWAP1 REVERT JUMPDEST PUSH2 0x5C7 PUSH1 0x0 PUSH2 0xC40 JUMP JUMPDEST JUMP JUMPDEST PUSH1 0x0 DUP1 PUSH1 0x0 SWAP1 SLOAD SWAP1 PUSH2 0x100 EXP SWAP1 DIV PUSH20 0xFFFFFFFFFFFFFFFFFFFFFFFFFFFFFFFFFFFFFFFF AND SWAP1 POP SWAP1 JUMP JUMPDEST PUSH1 0x1 SLOAD DUP2 JUMP JUMPDEST PUSH1 0x0 PUSH1 0x1 SLOAD DUP3 LT PUSH2 0x63E JUMPI PUSH1 0x40 MLOAD PUSH32 0x8C379A000000000000000000000000000000000000000000000000000000000 DUP2 MSTORE PUSH1 0x4 ADD PUSH2 0x635 SWAP1 PUSH2 0x1164 JUMP JUMPDEST PUSH1 0x40 MLOAD DUP1 SWAP2 SUB SWAP1 REVERT JUMPDEST PUSH1 0x0 PUSH1 0x2 PUSH1 0x0 DUP5 DUP2 MSTORE PUSH1 0x20 ADD SWAP1 DUP2 MSTORE PUSH1 0x20 ADD PUSH1 0x0 KECCAK256 PUSH1 0x40 MLOAD DUP1 PUSH1 0xC0 ADD PUSH1 0x40 MSTORE SWAP1 DUP2 PUSH1 0x0 DUP3 ADD PUSH1 0x0 SWAP1 SLOAD SWAP1 PUSH2 0x100 EXP SWAP1 DIV PUSH1 0xFF AND PUSH1 0x1 DUP2 GT ISZERO PUSH2 0x683 JUMPI PUSH2 0x682 PUSH2 0x1457 JUMP JUMPDEST JUMPDEST PUSH1 0x1 DUP2 GT ISZERO PUSH2 0x695 JUMPI PUSH2 0x694 PUSH2 0x1457 JUMP JUMPDEST JUMPDEST DUP2 MSTORE PUSH1 0x20 ADD PUSH1 0x1 DUP3 ADD DUP1 SLOAD PUSH2 0x6A9 SWAP1 PUSH2 0x137C JUMP JUMPDEST DUP1 PUSH1 0x1F ADD PUSH1 0x20 DUP1 SWAP2 DIV MUL PUSH1 0x20 ADD PUSH1 0x40 MLOAD SWAP1 DUP2 ADD PUSH1 0x40 MSTORE DUP1 SWAP3 SWAP2 SWAP1 DUP2 DUP2 MSTORE PUSH1 0x20 ADD DUP3 DUP1 SLOAD PUSH2 0x6D5 SWAP1 PUSH2 0x137C JUMP JUMPDEST DUP1 ISZERO PUSH2 0x722 JUMPI DUP1 PUSH1 0x1F LT PUSH2 0x6F7 JUMPI PUSH2 0x100 DUP1 DUP4 SLOAD DIV MUL DUP4 MSTORE SWAP2 PUSH1 0x20 ADD SWAP2 PUSH2 0x722 JUMP JUMPDEST DUP3 ADD SWAP2 SWAP1 PUSH1 0x0 MSTORE PUSH1 0x20 PUSH1 0x0 KECCAK256 SWAP1 JUMPDEST DUP2 SLOAD DUP2 MSTORE SWAP1 PUSH1 0x1 ADD SWAP1 PUSH1 0x20 ADD DUP1 DUP4 GT PUSH2 0x705 JUMPI DUP3 SWAP1 SUB PUSH1 0x1F AND DUP3 ADD SWAP2 JUMPDEST POP POP POP POP POP DUP2 MSTORE PUSH1 0x20 ADD PUSH1 0x2 DUP3 ADD DUP1 SLOAD PUSH2 0x73B SWAP1 PUSH2 0x137C JUMP JUMPDEST DUP1 PUSH1 0x1F ADD PUSH1 0x20 DUP1 SWAP2 DIV MUL PUSH1 0x20 ADD PUSH1 0x40 MLOAD SWAP1 DUP2 ADD PUSH1 0x40 MSTORE DUP1 SWAP3 SWAP2 SWAP1 DUP2 DUP2 MSTORE PUSH1 0x20 ADD DUP3 DUP1 SLOAD PUSH2 0x767 SWAP1 PUSH2 0x137C JUMP JUMPDEST DUP1 ISZERO PUSH2 0x7B4 JUMPI DUP1 PUSH1 0x1F LT PUSH2 0x789 JUMPI PUSH2 0x100 DUP1 DUP4 SLOAD DIV MUL DUP4 MSTORE SWAP2 PUSH1 0x20 ADD SWAP2 PUSH2 0x7B4 JUMP JUMPDEST DUP3 ADD SWAP2 SWAP1 PUSH1 0x0 MSTORE PUSH1 0x20 PUSH1 0x0 KECCAK256 SWAP1 JUMPDEST DUP2 SLOAD DUP2 MSTORE SWAP1 PUSH1 0x1 ADD SWAP1 PUSH1 0x20 ADD DUP1 DUP4 GT PUSH2 0x797 JUMPI DUP3 SWAP1 SUB PUSH1 0x1F AND DUP3 ADD SWAP2 JUMPDEST POP POP POP POP POP DUP2 MSTORE PUSH1 0x20 ADD PUSH1 0x3 DUP3 ADD PUSH1 0x0 SWAP1 SLOAD SWAP1 PUSH2 0x100 EXP SWAP1 DIV PUSH1 0xFF AND ISZERO ISZERO ISZERO ISZERO DUP2 MSTORE PUSH1 0x20 ADD PUSH1 0x3 DUP3 ADD PUSH1 0x1 SWAP1 SLOAD SWAP1 PUSH2 0x100 EXP SWAP1 DIV PUSH1 0xFF AND ISZERO ISZERO ISZERO ISZERO DUP2 MSTORE PUSH1 0x20 ADD PUSH1 0x3 DUP3 ADD PUSH1 0x2 SWAP1 SLOAD SWAP1 PUSH2 0x100 EXP SWAP1 DIV PUSH20 0xFFFFFFFFFFFFFFFFFFFFFFFFFFFFFFFFFFFFFFFF AND PUSH20 0xFFFFFFFFFFFFFFFFFFFFFFFFFFFFFFFFFFFFFFFF AND PUSH20 0xFFFFFFFFFFFFFFFFFFFFFFFFFFFFFFFFFFFFFFFF AND DUP2 MSTORE POP POP SWAP1 POP DUP1 PUSH1 0x80 ADD MLOAD SWAP2 POP POP SWAP2 SWAP1 POP JUMP JUMPDEST PUSH1 0x0 DUP1 PUSH1 0x0 SWAP1 POP JUMPDEST PUSH1 0x1 SLOAD DUP2 LT ISZERO PUSH2 0x967 JUMPI PUSH2 0x912 PUSH1 0x2 PUSH1 0x0 DUP4 DUP2 MSTORE PUSH1 0x20 ADD SWAP1 DUP2 MSTORE PUSH1 0x20 ADD PUSH1 0x0 KECCAK256 PUSH1 0x1 ADD DUP1 SLOAD PUSH2 0x88E SWAP1 PUSH2 0x137C JUMP JUMPDEST DUP1 PUSH1 0x1F ADD PUSH1 0x20 DUP1 SWAP2 DIV MUL PUSH1 0x20 ADD PUSH1 0x40 MLOAD SWAP1 DUP2 ADD PUSH1 0x40 MSTORE DUP1 SWAP3 SWAP2 SWAP1 DUP2 DUP2 MSTORE PUSH1 0x20 ADD DUP3 DUP1 SLOAD PUSH2 0x8BA SWAP1 PUSH2 0x137C JUMP JUMPDEST DUP1 ISZERO PUSH2 0x907 JUMPI DUP1 PUSH1 0x1F LT PUSH2 0x8DC JUMPI PUSH2 0x100 DUP1 DUP4 SLOAD DIV MUL DUP4 MSTORE SWAP2 PUSH1 0x20 ADD SWAP2 PUSH2 0x907 JUMP JUMPDEST DUP3 ADD SWAP2 SWAP1 PUSH1 0x0 MSTORE PUSH1 0x20 PUSH1 0x0 KECCAK256 SWAP1 JUMPDEST DUP2 SLOAD DUP2 MSTORE SWAP1 PUSH1 0x1 ADD SWAP1 PUSH1 0x20 ADD DUP1 DUP4 GT PUSH2 0x8EA JUMPI DUP3 SWAP1 SUB PUSH1 0x1F AND DUP3 ADD SWAP2 JUMPDEST POP POP POP POP POP DUP5 PUSH2 0xD04 JUMP JUMPDEST DUP1 ISZERO PUSH2 0x945 JUMPI POP PUSH1 0x1 ISZERO ISZERO PUSH1 0x2 PUSH1 0x0 DUP4 DUP2 MSTORE PUSH1 0x20 ADD SWAP1 DUP2 MSTORE PUSH1 0x20 ADD PUSH1 0x0 KECCAK256 PUSH1 0x3 ADD PUSH1 0x1 SWAP1 SLOAD SWAP1 PUSH2 0x100 EXP SWAP1 DIV PUSH1 0xFF AND ISZERO ISZERO EQ JUMPDEST ISZERO PUSH2 0x954 JUMPI PUSH1 0x1 SWAP2 POP POP PUSH2 0x96D JUMP JUMPDEST DUP1 DUP1 PUSH2 0x95F SWAP1 PUSH2 0x13DF JUMP JUMPDEST SWAP2 POP POP PUSH2 0x860 JUMP JUMPDEST POP PUSH1 0x0 SWAP1 POP JUMPDEST SWAP2 SWAP1 POP JUMP JUMPDEST PUSH2 0x97A PUSH2 0xA6A JUMP JUMPDEST PUSH20 0xFFFFFFFFFFFFFFFFFFFFFFFFFFFFFFFFFFFFFFFF AND PUSH2 0x998 PUSH2 0x5C9 JUMP JUMPDEST PUSH20 0xFFFFFFFFFFFFFFFFFFFFFFFFFFFFFFFFFFFFFFFF AND EQ PUSH2 0x9EE JUMPI PUSH1 0x40 MLOAD PUSH32 0x8C379A000000000000000000000000000000000000000000000000000000000 DUP2 MSTORE PUSH1 0x4 ADD PUSH2 0x9E5 SWAP1 PUSH2 0x11E4 JUMP JUMPDEST PUSH1 0x40 MLOAD DUP1 SWAP2 SUB SWAP1 REVERT JUMPDEST PUSH1 0x0 PUSH20 0xFFFFFFFFFFFFFFFFFFFFFFFFFFFFFFFFFFFFFFFF AND DUP2 PUSH20 0xFFFFFFFFFFFFFFFFFFFFFFFFFFFFFFFFFFFFFFFF AND EQ ISZERO PUSH2 0xA5E JUMPI PUSH1 0x40 MLOAD PUSH32 0x8C379A000000000000000000000000000000000000000000000000000000000 DUP2 MSTORE PUSH1 0x4 ADD PUSH2 0xA55 SWAP1 PUSH2 0x1184 JUMP JUMPDEST PUSH1 0x40 MLOAD DUP1 SWAP2 SUB SWAP1 REVERT JUMPDEST PUSH2 0xA67 DUP2 PUSH2 0xC40 JUMP JUMPDEST POP JUMP JUMPDEST PUSH1 0x0 CALLER SWAP1 POP SWAP1 JUMP JUMPDEST PUSH1 0x0 DUP1 PUSH1 0x0 SWAP1 POP JUMPDEST PUSH1 0x1 SLOAD DUP2 LT ISZERO PUSH2 0xB4E JUMPI PUSH2 0xB2C PUSH1 0x2 PUSH1 0x0 DUP4 DUP2 MSTORE PUSH1 0x20 ADD SWAP1 DUP2 MSTORE PUSH1 0x20 ADD PUSH1 0x0 KECCAK256 PUSH1 0x1 ADD DUP1 SLOAD PUSH2 0xAA8 SWAP1 PUSH2 0x137C JUMP JUMPDEST DUP1 PUSH1 0x1F ADD PUSH1 0x20 DUP1 SWAP2 DIV MUL PUSH1 0x20 ADD PUSH1 0x40 MLOAD SWAP1 DUP2 ADD PUSH1 0x40 MSTORE DUP1 SWAP3 SWAP2 SWAP1 DUP2 DUP2 MSTORE PUSH1 0x20 ADD DUP3 DUP1 SLOAD PUSH2 0xAD4 SWAP1 PUSH2 0x137C JUMP JUMPDEST DUP1 ISZERO PUSH2 0xB21 JUMPI DUP1 PUSH1 0x1F LT PUSH2 0xAF6 JUMPI PUSH2 0x100 DUP1 DUP4 SLOAD DIV MUL DUP4 MSTORE SWAP2 PUSH1 0x20 ADD SWAP2 PUSH2 0xB21 JUMP JUMPDEST DUP3 ADD SWAP2 SWAP1 PUSH1 0x0 MSTORE PUSH1 0x20 PUSH1 0x0 KECCAK256 SWAP1 JUMPDEST DUP2 SLOAD DUP2 MSTORE SWAP1 PUSH1 0x1 ADD SWAP1 PUSH1 0x20 ADD DUP1 DUP4 GT PUSH2 0xB04 JUMPI DUP3 SWAP1 SUB PUSH1 0x1F AND DUP3 ADD SWAP2 JUMPDEST POP POP POP POP POP DUP5 PUSH2 0xD04 JUMP JUMPDEST ISZERO PUSH2 0xB3B JUMPI PUSH1 0x0 SWAP2 POP POP PUSH2 0xB54 JUMP JUMPDEST DUP1 DUP1 PUSH2 0xB46 SWAP1 PUSH2 0x13DF JUMP JUMPDEST SWAP2 POP POP PUSH2 0xA7A JUMP JUMPDEST POP PUSH1 0x1 SWAP1 POP JUMPDEST SWAP2 SWAP1 POP JUMP JUMPDEST PUSH1 0x0 DUP1 PUSH1 0x0 SWAP1 POP JUMPDEST PUSH1 0x1 SLOAD DUP2 LT ISZERO PUSH2 0xC35 JUMPI PUSH2 0xC13 PUSH1 0x2 PUSH1 0x0 DUP4 DUP2 MSTORE PUSH1 0x20 ADD SWAP1 DUP2 MSTORE PUSH1 0x20 ADD PUSH1 0x0 KECCAK256 PUSH1 0x2 ADD DUP1 SLOAD PUSH2 0xB8F SWAP1 PUSH2 0x137C JUMP JUMPDEST DUP1 PUSH1 0x1F ADD PUSH1 0x20 DUP1 SWAP2 DIV MUL PUSH1 0x20 ADD PUSH1 0x40 MLOAD SWAP1 DUP2 ADD PUSH1 0x40 MSTORE DUP1 SWAP3 SWAP2 SWAP1 DUP2 DUP2 MSTORE PUSH1 0x20 ADD DUP3 DUP1 SLOAD PUSH2 0xBBB SWAP1 PUSH2 0x137C JUMP JUMPDEST DUP1 ISZERO PUSH2 0xC08 JUMPI DUP1 PUSH1 0x1F LT PUSH2 0xBDD JUMPI PUSH2 0x100 DUP1 DUP4 SLOAD DIV MUL DUP4 MSTORE SWAP2 PUSH1 0x20 ADD SWAP2 PUSH2 0xC08 JUMP JUMPDEST DUP3 ADD SWAP2 SWAP1 PUSH1 0x0 MSTORE PUSH1 0x20 PUSH1 0x0 KECCAK256 SWAP1 JUMPDEST DUP2 SLOAD DUP2 MSTORE SWAP1 PUSH1 0x1 ADD SWAP1 PUSH1 0x20 ADD DUP1 DUP4 GT PUSH2 0xBEB JUMPI DUP3 SWAP1 SUB PUSH1 0x1F AND DUP3 ADD SWAP2 JUMPDEST POP POP POP POP POP DUP5 PUSH2 0xD04 JUMP JUMPDEST ISZERO PUSH2 0xC22 JUMPI PUSH1 0x0 SWAP2 POP POP PUSH2 0xC3B JUMP JUMPDEST DUP1 DUP1 PUSH2 0xC2D SWAP1 PUSH2 0x13DF JUMP JUMPDEST SWAP2 POP POP PUSH2 0xB61 JUMP JUMPDEST POP PUSH1 0x1 SWAP1 POP JUMPDEST SWAP2 SWAP1 POP JUMP JUMPDEST PUSH1 0x0 DUP1 PUSH1 0x0 SWAP1 SLOAD SWAP1 PUSH2 0x100 EXP SWAP1 DIV PUSH20 0xFFFFFFFFFFFFFFFFFFFFFFFFFFFFFFFFFFFFFFFF AND SWAP1 POP DUP2 PUSH1 0x0 DUP1 PUSH2 0x100 EXP DUP2 SLOAD DUP2 PUSH20 0xFFFFFFFFFFFFFFFFFFFFFFFFFFFFFFFFFFFFFFFF MUL NOT AND SWAP1 DUP4 PUSH20 0xFFFFFFFFFFFFFFFFFFFFFFFFFFFFFFFFFFFFFFFF AND MUL OR SWAP1 SSTORE POP DUP2 PUSH20 0xFFFFFFFFFFFFFFFFFFFFFFFFFFFFFFFFFFFFFFFF AND DUP2 PUSH20 0xFFFFFFFFFFFFFFFFFFFFFFFFFFFFFFFFFFFFFFFF AND PUSH32 0x8BE0079C531659141344CD1FD0A4F28419497F9722A3DAAFE3B4186F6B6457E0 PUSH1 0x40 MLOAD PUSH1 0x40 MLOAD DUP1 SWAP2 SUB SWAP1 LOG3 POP POP JUMP JUMPDEST PUSH1 0x0 DUP2 PUSH1 0x40 MLOAD PUSH1 0x20 ADD PUSH2 0xD17 SWAP2 SWAP1 PUSH2 0x1117 JUMP JUMPDEST PUSH1 0x40 MLOAD PUSH1 0x20 DUP2 DUP4 SUB SUB DUP2 MSTORE SWAP1 PUSH1 0x40 MSTORE DUP1 MLOAD SWAP1 PUSH1 0x20 ADD KECCAK256 DUP4 PUSH1 0x40 MLOAD PUSH1 0x20 ADD PUSH2 0xD3E SWAP2 SWAP1 PUSH2 0x1117 JUMP JUMPDEST PUSH1 0x40 MLOAD PUSH1 0x20 DUP2 DUP4 SUB SUB DUP2 MSTORE SWAP1 PUSH1 0x40 MSTORE DUP1 MLOAD SWAP1 PUSH1 0x20 ADD KECCAK256 EQ SWAP1 POP SWAP3 SWAP2 POP POP JUMP JUMPDEST DUP3 DUP1 SLOAD PUSH2 0xD69 SWAP1 PUSH2 0x137C JUMP JUMPDEST SWAP1 PUSH1 0x0 MSTORE PUSH1 0x20 PUSH1 0x0 KECCAK256 SWAP1 PUSH1 0x1F ADD PUSH1 0x20 SWAP1 DIV DUP2 ADD SWAP3 DUP3 PUSH2 0xD8B JUMPI PUSH1 0x0 DUP6 SSTORE PUSH2 0xDD2 JUMP JUMPDEST DUP3 PUSH1 0x1F LT PUSH2 0xDA4 JUMPI DUP1 MLOAD PUSH1 0xFF NOT AND DUP4 DUP1 ADD OR DUP6 SSTORE PUSH2 0xDD2 JUMP JUMPDEST DUP3 DUP1 ADD PUSH1 0x1 ADD DUP6 SSTORE DUP3 ISZERO PUSH2 0xDD2 JUMPI SWAP2 DUP3 ADD JUMPDEST DUP3 DUP2 GT ISZERO PUSH2 0xDD1 JUMPI DUP3 MLOAD DUP3 SSTORE SWAP2 PUSH1 0x20 ADD SWAP2 SWAP1 PUSH1 0x1 ADD SWAP1 PUSH2 0xDB6 JUMP JUMPDEST JUMPDEST POP SWAP1 POP PUSH2 0xDDF SWAP2 SWAP1 PUSH2 0xDE3 JUMP JUMPDEST POP SWAP1 JUMP JUMPDEST JUMPDEST DUP1 DUP3 GT ISZERO PUSH2 0xDFC JUMPI PUSH1 0x0 DUP2 PUSH1 0x0 SWAP1 SSTORE POP PUSH1 0x1 ADD PUSH2 0xDE4 JUMP JUMPDEST POP SWAP1 JUMP JUMPDEST PUSH1 0x0 PUSH2 0xE13 PUSH2 0xE0E DUP5 PUSH2 0x1244 JUMP JUMPDEST PUSH2 0x121F JUMP JUMPDEST SWAP1 POP DUP3 DUP2 MSTORE PUSH1 0x20 DUP2 ADD DUP5 DUP5 DUP5 ADD GT ISZERO PUSH2 0xE2F JUMPI PUSH2 0xE2E PUSH2 0x14E9 JUMP JUMPDEST JUMPDEST PUSH2 0xE3A DUP5 DUP3 DUP6 PUSH2 0x133A JUMP JUMPDEST POP SWAP4 SWAP3 POP POP POP JUMP JUMPDEST PUSH1 0x0 DUP2 CALLDATALOAD SWAP1 POP PUSH2 0xE51 DUP2 PUSH2 0x1622 JUMP JUMPDEST SWAP3 SWAP2 POP POP JUMP JUMPDEST PUSH1 0x0 DUP2 CALLDATALOAD SWAP1 POP PUSH2 0xE66 DUP2 PUSH2 0x1639 JUMP JUMPDEST SWAP3 SWAP2 POP POP JUMP JUMPDEST PUSH1 0x0 DUP3 PUSH1 0x1F DUP4 ADD SLT PUSH2 0xE81 JUMPI PUSH2 0xE80 PUSH2 0x14E4 JUMP JUMPDEST JUMPDEST DUP2 CALLDATALOAD PUSH2 0xE91 DUP5 DUP3 PUSH1 0x20 DUP7 ADD PUSH2 0xE00 JUMP JUMPDEST SWAP2 POP POP SWAP3 SWAP2 POP POP JUMP JUMPDEST PUSH1 0x0 DUP2 CALLDATALOAD SWAP1 POP PUSH2 0xEA9 DUP2 PUSH2 0x1650 JUMP JUMPDEST SWAP3 SWAP2 POP POP JUMP JUMPDEST PUSH1 0x0 PUSH1 0x20 DUP3 DUP5 SUB SLT ISZERO PUSH2 0xEC5 JUMPI PUSH2 0xEC4 PUSH2 0x14F3 JUMP JUMPDEST JUMPDEST PUSH1 0x0 PUSH2 0xED3 DUP5 DUP3 DUP6 ADD PUSH2 0xE42 JUMP JUMPDEST SWAP2 POP POP SWAP3 SWAP2 POP POP JUMP JUMPDEST PUSH1 0x0 PUSH1 0x20 DUP3 DUP5 SUB SLT ISZERO PUSH2 0xEF2 JUMPI PUSH2 0xEF1 PUSH2 0x14F3 JUMP JUMPDEST JUMPDEST PUSH1 0x0 DUP3 ADD CALLDATALOAD PUSH8 0xFFFFFFFFFFFFFFFF DUP2 GT ISZERO PUSH2 0xF10 JUMPI PUSH2 0xF0F PUSH2 0x14EE JUMP JUMPDEST JUMPDEST PUSH2 0xF1C DUP5 DUP3 DUP6 ADD PUSH2 0xE6C JUMP JUMPDEST SWAP2 POP POP SWAP3 SWAP2 POP POP JUMP JUMPDEST PUSH1 0x0 DUP1 PUSH1 0x40 DUP4 DUP6 SUB SLT ISZERO PUSH2 0xF3C JUMPI PUSH2 0xF3B PUSH2 0x14F3 JUMP JUMPDEST JUMPDEST PUSH1 0x0 DUP4 ADD CALLDATALOAD PUSH8 0xFFFFFFFFFFFFFFFF DUP2 GT ISZERO PUSH2 0xF5A JUMPI PUSH2 0xF59 PUSH2 0x14EE JUMP JUMPDEST JUMPDEST PUSH2 0xF66 DUP6 DUP3 DUP7 ADD PUSH2 0xE6C JUMP JUMPDEST SWAP3 POP POP PUSH1 0x20 DUP4 ADD CALLDATALOAD PUSH8 0xFFFFFFFFFFFFFFFF DUP2 GT ISZERO PUSH2 0xF87 JUMPI PUSH2 0xF86 PUSH2 0x14EE JUMP JUMPDEST JUMPDEST PUSH2 0xF93 DUP6 DUP3 DUP7 ADD PUSH2 0xE6C JUMP JUMPDEST SWAP2 POP POP SWAP3 POP SWAP3 SWAP1 POP JUMP JUMPDEST PUSH1 0x0 PUSH1 0x20 DUP3 DUP5 SUB SLT ISZERO PUSH2 0xFB3 JUMPI PUSH2 0xFB2 PUSH2 0x14F3 JUMP JUMPDEST JUMPDEST PUSH1 0x0 PUSH2 0xFC1 DUP5 DUP3 DUP6 ADD PUSH2 0xE9A JUMP JUMPDEST SWAP2 POP POP SWAP3 SWAP2 POP POP JUMP JUMPDEST PUSH1 0x0 DUP1 PUSH1 0x40 DUP4 DUP6 SUB SLT ISZERO PUSH2 0xFE1 JUMPI PUSH2 0xFE0 PUSH2 0x14F3 JUMP JUMPDEST JUMPDEST PUSH1 0x0 PUSH2 0xFEF DUP6 DUP3 DUP7 ADD PUSH2 0xE9A JUMP JUMPDEST SWAP3 POP POP PUSH1 0x20 PUSH2 0x1000 DUP6 DUP3 DUP7 ADD PUSH2 0xE57 JUMP JUMPDEST SWAP2 POP POP SWAP3 POP SWAP3 SWAP1 POP JUMP JUMPDEST PUSH2 0x1013 DUP2 PUSH2 0x12F2 JUMP JUMPDEST DUP3 MSTORE POP POP JUMP JUMPDEST PUSH2 0x1022 DUP2 PUSH2 0x1304 JUMP JUMPDEST DUP3 MSTORE POP POP JUMP JUMPDEST PUSH1 0x0 PUSH2 0x1033 DUP3 PUSH2 0x1275 JUMP JUMPDEST PUSH2 0x103D DUP2 DUP6 PUSH2 0x1291 JUMP JUMPDEST SWAP4 POP PUSH2 0x104D DUP2 DUP6 PUSH1 0x20 DUP7 ADD PUSH2 0x1349 JUMP JUMPDEST DUP1 DUP5 ADD SWAP2 POP POP SWAP3 SWAP2 POP POP JUMP JUMPDEST PUSH1 0x0 PUSH2 0x1066 PUSH1 0x1B DUP4 PUSH2 0x1280 JUMP JUMPDEST SWAP2 POP PUSH2 0x1071 DUP3 PUSH2 0x1509 JUMP JUMPDEST PUSH1 0x20 DUP3 ADD SWAP1 POP SWAP2 SWAP1 POP JUMP JUMPDEST PUSH1 0x0 PUSH2 0x1089 PUSH1 0x26 DUP4 PUSH2 0x1280 JUMP JUMPDEST SWAP2 POP PUSH2 0x1094 DUP3 PUSH2 0x1532 JUMP JUMPDEST PUSH1 0x40 DUP3 ADD SWAP1 POP SWAP2 SWAP1 POP JUMP JUMPDEST PUSH1 0x0 PUSH2 0x10AC PUSH1 0x1F DUP4 PUSH2 0x1280 JUMP JUMPDEST SWAP2 POP PUSH2 0x10B7 DUP3 PUSH2 0x1581 JUMP JUMPDEST PUSH1 0x20 DUP3 ADD SWAP1 POP SWAP2 SWAP1 POP JUMP JUMPDEST PUSH1 0x0 PUSH2 0x10CF PUSH1 0x2F DUP4 PUSH2 0x1280 JUMP JUMPDEST SWAP2 POP PUSH2 0x10DA DUP3 PUSH2 0x15AA JUMP JUMPDEST PUSH1 0x40 DUP3 ADD SWAP1 POP SWAP2 SWAP1 POP JUMP JUMPDEST PUSH1 0x0 PUSH2 0x10F2 PUSH1 0x20 DUP4 PUSH2 0x1280 JUMP JUMPDEST SWAP2 POP PUSH2 0x10FD DUP3 PUSH2 0x15F9 JUMP JUMPDEST PUSH1 0x20 DUP3 ADD SWAP1 POP SWAP2 SWAP1 POP JUMP JUMPDEST PUSH2 0x1111 DUP2 PUSH2 0x1330 JUMP JUMPDEST DUP3 MSTORE POP POP JUMP JUMPDEST PUSH1 0x0 PUSH2 0x1123 DUP3 DUP5 PUSH2 0x1028 JUMP JUMPDEST SWAP2 POP DUP2 SWAP1 POP SWAP3 SWAP2 POP POP JUMP JUMPDEST PUSH1 0x0 PUSH1 0x20 DUP3 ADD SWAP1 POP PUSH2 0x1143 PUSH1 0x0 DUP4 ADD DUP5 PUSH2 0x100A JUMP JUMPDEST SWAP3 SWAP2 POP POP JUMP JUMPDEST PUSH1 0x0 PUSH1 0x20 DUP3 ADD SWAP1 POP PUSH2 0x115E PUSH1 0x0 DUP4 ADD DUP5 PUSH2 0x1019 JUMP JUMPDEST SWAP3 SWAP2 POP POP JUMP JUMPDEST PUSH1 0x0 PUSH1 0x20 DUP3 ADD SWAP1 POP DUP2 DUP2 SUB PUSH1 0x0 DUP4 ADD MSTORE PUSH2 0x117D DUP2 PUSH2 0x1059 JUMP JUMPDEST SWAP1 POP SWAP2 SWAP1 POP JUMP JUMPDEST PUSH1 0x0 PUSH1 0x20 DUP3 ADD SWAP1 POP DUP2 DUP2 SUB PUSH1 0x0 DUP4 ADD MSTORE PUSH2 0x119D DUP2 PUSH2 0x107C JUMP JUMPDEST SWAP1 POP SWAP2 SWAP1 POP JUMP JUMPDEST PUSH1 0x0 PUSH1 0x20 DUP3 ADD SWAP1 POP DUP2 DUP2 SUB PUSH1 0x0 DUP4 ADD MSTORE PUSH2 0x11BD DUP2 PUSH2 0x109F JUMP JUMPDEST SWAP1 POP SWAP2 SWAP1 POP JUMP JUMPDEST PUSH1 0x0 PUSH1 0x20 DUP3 ADD SWAP1 POP DUP2 DUP2 SUB PUSH1 0x0 DUP4 ADD MSTORE PUSH2 0x11DD DUP2 PUSH2 0x10C2 JUMP JUMPDEST SWAP1 POP SWAP2 SWAP1 POP JUMP JUMPDEST PUSH1 0x0 PUSH1 0x20 DUP3 ADD SWAP1 POP DUP2 DUP2 SUB PUSH1 0x0 DUP4 ADD MSTORE PUSH2 0x11FD DUP2 PUSH2 0x10E5 JUMP JUMPDEST SWAP1 POP SWAP2 SWAP1 POP JUMP JUMPDEST PUSH1 0x0 PUSH1 0x20 DUP3 ADD SWAP1 POP PUSH2 0x1219 PUSH1 0x0 DUP4 ADD DUP5 PUSH2 0x1108 JUMP JUMPDEST SWAP3 SWAP2 POP POP JUMP JUMPDEST PUSH1 0x0 PUSH2 0x1229 PUSH2 0x123A JUMP JUMPDEST SWAP1 POP PUSH2 0x1235 DUP3 DUP3 PUSH2 0x13AE JUMP JUMPDEST SWAP2 SWAP1 POP JUMP JUMPDEST PUSH1 0x0 PUSH1 0x40 MLOAD SWAP1 POP SWAP1 JUMP JUMPDEST PUSH1 0x0 PUSH8 0xFFFFFFFFFFFFFFFF DUP3 GT ISZERO PUSH2 0x125F JUMPI PUSH2 0x125E PUSH2 0x14B5 JUMP JUMPDEST JUMPDEST PUSH2 0x1268 DUP3 PUSH2 0x14F8 JUMP JUMPDEST SWAP1 POP PUSH1 0x20 DUP2 ADD SWAP1 POP SWAP2 SWAP1 POP JUMP JUMPDEST PUSH1 0x0 DUP2 MLOAD SWAP1 POP SWAP2 SWAP1 POP JUMP JUMPDEST PUSH1 0x0 DUP3 DUP3 MSTORE PUSH1 0x20 DUP3 ADD SWAP1 POP SWAP3 SWAP2 POP POP JUMP JUMPDEST PUSH1 0x0 DUP2 SWAP1 POP SWAP3 SWAP2 POP POP JUMP JUMPDEST PUSH1 0x0 PUSH2 0x12A7 DUP3 PUSH2 0x1330 JUMP JUMPDEST SWAP2 POP PUSH2 0x12B2 DUP4 PUSH2 0x1330 JUMP JUMPDEST SWAP3 POP DUP3 PUSH32 0xFFFFFFFFFFFFFFFFFFFFFFFFFFFFFFFFFFFFFFFFFFFFFFFFFFFFFFFFFFFFFFFF SUB DUP3 GT ISZERO PUSH2 0x12E7 JUMPI PUSH2 0x12E6 PUSH2 0x1428 JUMP JUMPDEST JUMPDEST DUP3 DUP3 ADD SWAP1 POP SWAP3 SWAP2 POP POP JUMP JUMPDEST PUSH1 0x0 PUSH2 0x12FD DUP3 PUSH2 0x1310 JUMP JUMPDEST SWAP1 POP SWAP2 SWAP1 POP JUMP JUMPDEST PUSH1 0x0 DUP2 ISZERO ISZERO SWAP1 POP SWAP2 SWAP1 POP JUMP JUMPDEST PUSH1 0x0 PUSH20 0xFFFFFFFFFFFFFFFFFFFFFFFFFFFFFFFFFFFFFFFF DUP3 AND SWAP1 POP SWAP2 SWAP1 POP JUMP JUMPDEST PUSH1 0x0 DUP2 SWAP1 POP SWAP2 SWAP1 POP JUMP JUMPDEST DUP3 DUP2 DUP4 CALLDATACOPY PUSH1 0x0 DUP4 DUP4 ADD MSTORE POP POP POP JUMP JUMPDEST PUSH1 0x0 JUMPDEST DUP4 DUP2 LT ISZERO PUSH2 0x1367 JUMPI DUP1 DUP3 ADD MLOAD DUP2 DUP5 ADD MSTORE PUSH1 0x20 DUP2 ADD SWAP1 POP PUSH2 0x134C JUMP JUMPDEST DUP4 DUP2 GT ISZERO PUSH2 0x1376 JUMPI PUSH1 0x0 DUP5 DUP5 ADD MSTORE JUMPDEST POP POP POP POP JUMP JUMPDEST PUSH1 0x0 PUSH1 0x2 DUP3 DIV SWAP1 POP PUSH1 0x1 DUP3 AND DUP1 PUSH2 0x1394 JUMPI PUSH1 0x7F DUP3 AND SWAP2 POP JUMPDEST PUSH1 0x20 DUP3 LT DUP2 EQ ISZERO PUSH2 0x13A8 JUMPI PUSH2 0x13A7 PUSH2 0x1486 JUMP JUMPDEST JUMPDEST POP SWAP2 SWAP1 POP JUMP JUMPDEST PUSH2 0x13B7 DUP3 PUSH2 0x14F8 JUMP JUMPDEST DUP2 ADD DUP2 DUP2 LT PUSH8 0xFFFFFFFFFFFFFFFF DUP3 GT OR ISZERO PUSH2 0x13D6 JUMPI PUSH2 0x13D5 PUSH2 0x14B5 JUMP JUMPDEST JUMPDEST DUP1 PUSH1 0x40 MSTORE POP POP POP JUMP JUMPDEST PUSH1 0x0 PUSH2 0x13EA DUP3 PUSH2 0x1330 JUMP JUMPDEST SWAP2 POP PUSH32 0xFFFFFFFFFFFFFFFFFFFFFFFFFFFFFFFFFFFFFFFFFFFFFFFFFFFFFFFFFFFFFFFF DUP3 EQ ISZERO PUSH2 0x141D JUMPI PUSH2 0x141C PUSH2 0x1428 JUMP JUMPDEST JUMPDEST PUSH1 0x1 DUP3 ADD SWAP1 POP SWAP2 SWAP1 POP JUMP JUMPDEST PUSH32 0x4E487B7100000000000000000000000000000000000000000000000000000000 PUSH1 0x0 MSTORE PUSH1 0x11 PUSH1 0x4 MSTORE PUSH1 0x24 PUSH1 0x0 REVERT JUMPDEST PUSH32 0x4E487B7100000000000000000000000000000000000000000000000000000000 PUSH1 0x0 MSTORE PUSH1 0x21 PUSH1 0x4 MSTORE PUSH1 0x24 PUSH1 0x0 REVERT JUMPDEST PUSH32 0x4E487B7100000000000000000000000000000000000000000000000000000000 PUSH1 0x0 MSTORE PUSH1 0x22 PUSH1 0x4 MSTORE PUSH1 0x24 PUSH1 0x0 REVERT JUMPDEST PUSH32 0x4E487B7100000000000000000000000000000000000000000000000000000000 PUSH1 0x0 MSTORE PUSH1 0x41 PUSH1 0x4 MSTORE PUSH1 0x24 PUSH1 0x0 REVERT JUMPDEST PUSH1 0x0 DUP1 REVERT JUMPDEST PUSH1 0x0 DUP1 REVERT JUMPDEST PUSH1 0x0 DUP1 REVERT JUMPDEST PUSH1 0x0 DUP1 REVERT JUMPDEST PUSH1 0x0 PUSH1 0x1F NOT PUSH1 0x1F DUP4 ADD AND SWAP1 POP SWAP2 SWAP1 POP JUMP JUMPDEST PUSH32 0x54686973204944206F66204E465420646F6E2774206578697374730000000000 PUSH1 0x0 DUP3 ADD MSTORE POP JUMP JUMPDEST PUSH32 0x4F776E61626C653A206E6577206F776E657220697320746865207A65726F2061 PUSH1 0x0 DUP3 ADD MSTORE PUSH32 0x6464726573730000000000000000000000000000000000000000000000000000 PUSH1 0x20 DUP3 ADD MSTORE POP JUMP JUMPDEST PUSH32 0x556E61626C6520746F207265706561742074686520646574656374696F6E2100 PUSH1 0x0 DUP3 ADD MSTORE POP JUMP JUMPDEST PUSH32 0x546865204E465420646F6573206E6F74206D6565742074686520646574656374 PUSH1 0x0 DUP3 ADD MSTORE PUSH32 0x696F6E20636F6E646974696F6E73210000000000000000000000000000000000 PUSH1 0x20 DUP3 ADD MSTORE POP JUMP JUMPDEST PUSH32 0x4F776E61626C653A2063616C6C6572206973206E6F7420746865206F776E6572 PUSH1 0x0 DUP3 ADD MSTORE POP JUMP JUMPDEST PUSH2 0x162B DUP2 PUSH2 0x12F2 JUMP JUMPDEST DUP2 EQ PUSH2 0x1636 JUMPI PUSH1 0x0 DUP1 REVERT JUMPDEST POP JUMP JUMPDEST PUSH2 0x1642 DUP2 PUSH2 0x1304 JUMP JUMPDEST DUP2 EQ PUSH2 0x164D JUMPI PUSH1 0x0 DUP1 REVERT JUMPDEST POP JUMP JUMPDEST PUSH2 0x1659 DUP2 PUSH2 0x1330 JUMP JUMPDEST DUP2 EQ PUSH2 0x1664 JUMPI PUSH1 0x0 DUP1 REVERT JUMPDEST POP JUMP INVALID LOG2 PUSH5 0x6970667358 0x22 SLT KECCAK256 EQ INVALID 0x4F 0x23 0xB1 MUL 0xA5 0x4F 0x2D INVALID 0x22 0xAA 0xCE 0xDA SELFDESTRUCT 0xBF 0xE1 DUP10 0x4D 0x24 ADDMOD PUSH21 0xE79C04467DB87BFAAB8964736F6C63430008070033 "
				},
				"gasEstimates": {
					"creation": {
						"codeDepositCost": "1157800",
						"executionCost": "infinite",
						"totalCost": "infinite"
					},
					"external": {
						"ID()": "2429",
						"checkNFTByHash(string)": "infinite",
						"checkNFTByID(uint256)": "infinite",
						"detectNFT(uint256,bool)": "84707",
						"owner()": "2589",
						"renounceOwnership()": "30419",
						"transferOwnership(address)": "30789",
						"uploadNFT(string,string)": "infinite"
					},
					"internal": {
						"compareStrings(string memory,string memory)": "infinite",
						"hashIsExists(string memory)": "infinite",
						"ipfsIsExists(string memory)": "infinite"
					}
				},
				"methodIdentifiers": {
					"ID()": "b3cea217",
					"checkNFTByHash(string)": "d0aeae96",
					"checkNFTByID(uint256)": "b5e3029f",
					"detectNFT(uint256,bool)": "1c5a3e52",
					"owner()": "8da5cb5b",
					"renounceOwnership()": "715018a6",
					"transferOwnership(address)": "f2fde38b",
					"uploadNFT(string,string)": "3a4f2d24"
				}
			},
			"userdoc": {
				"kind": "user",
				"methods": {},
				"version": 1
			}
		}
	}
}