{
	"contracts/oracle.sol": {
		"NFTOracle": {
			"abi": [
				{
					"inputs": [],
					"stateMutability": "nonpayable",
					"type": "constructor"
				},
				{
					"inputs": [],
					"name": "ID",
					"outputs": [
						{
							"internalType": "uint256",
							"name": "",
							"type": "uint256"
						}
					],
					"stateMutability": "view",
					"type": "function"
				},
				{
					"inputs": [
						{
							"internalType": "string",
							"name": "_hash",
							"type": "string"
						}
					],
					"name": "checkNFTByHash",
					"outputs": [
						{
							"internalType": "bool",
							"name": "",
							"type": "bool"
						}
					],
					"stateMutability": "view",
					"type": "function"
				},
				{
					"inputs": [
						{
							"internalType": "uint256",
							"name": "_ID",
							"type": "uint256"
						}
					],
					"name": "checkNFTByID",
					"outputs": [
						{
							"components": [
								{
									"internalType": "enum NFTOracle.NFTState",
									"name": "state",
									"type": "uint8"
								},
								{
									"internalType": "string",
									"name": "hash",
									"type": "string"
								},
								{
									"internalType": "string",
									"name": "IPFS",
									"type": "string"
								},
								{
									"internalType": "bool",
									"name": "isDetected",
									"type": "bool"
								},
								{
									"internalType": "bool",
									"name": "result",
									"type": "bool"
								},
								{
									"internalType": "address",
									"name": "uploader",
									"type": "address"
								}
							],
							"internalType": "struct NFTOracle.NFT",
							"name": "",
							"type": "tuple"
						}
					],
					"stateMutability": "view",
					"type": "function"
				},
				{
					"inputs": [
						{
							"internalType": "uint256",
							"name": "_ID",
							"type": "uint256"
						},
						{
							"internalType": "bool",
							"name": "_result",
							"type": "bool"
						}
					],
					"name": "detectNFT",
					"outputs": [],
					"stateMutability": "nonpayable",
					"type": "function"
				},
				{
					"inputs": [
						{
							"internalType": "string",
							"name": "_hash",
							"type": "string"
						},
						{
							"internalType": "string",
							"name": "_ipfs",
							"type": "string"
						}
					],
					"name": "uploadNFT",
					"outputs": [],
					"stateMutability": "nonpayable",
					"type": "function"
				}
			],
			"devdoc": {
				"kind": "dev",
				"methods": {},
				"version": 1
			},
			"evm": {
				"assembly": "    /* \"contracts/oracle.sol\":74:2895  contract NFTOracle  {\r... */\n  mstore(0x40, 0x80)\n    /* \"contracts/oracle.sol\":546:547  0 */\n  0x00\n    /* \"contracts/oracle.sol\":529:547  uint public ID = 0 */\n  0x01\n  sstore\n    /* \"contracts/oracle.sol\":168:219  constructor ()  {\r... */\n  callvalue\n  dup1\n  iszero\n  tag_1\n  jumpi\n  0x00\n  dup1\n  revert\ntag_1:\n  pop\n    /* \"contracts/oracle.sol\":202:212  msg.sender */\n  caller\n    /* \"contracts/oracle.sol\":194:199  owner */\n  0x00\n  dup1\n    /* \"contracts/oracle.sol\":194:212  owner = msg.sender */\n  0x0100\n  exp\n  dup2\n  sload\n  dup2\n  0xffffffffffffffffffffffffffffffffffffffff\n  mul\n  not\n  and\n  swap1\n  dup4\n  0xffffffffffffffffffffffffffffffffffffffff\n  and\n  mul\n  or\n  swap1\n  sstore\n  pop\n    /* \"contracts/oracle.sol\":74:2895  contract NFTOracle  {\r... */\n  dataSize(sub_0)\n  dup1\n  dataOffset(sub_0)\n  0x00\n  codecopy\n  0x00\n  return\nstop\n\nsub_0: assembly {\n        /* \"contracts/oracle.sol\":74:2895  contract NFTOracle  {\r... */\n      mstore(0x40, 0x80)\n      callvalue\n      dup1\n      iszero\n      tag_1\n      jumpi\n      0x00\n      dup1\n      revert\n    tag_1:\n      pop\n      jumpi(tag_2, lt(calldatasize, 0x04))\n      shr(0xe0, calldataload(0x00))\n      dup1\n      0x1c5a3e52\n      eq\n      tag_3\n      jumpi\n      dup1\n      0x3a4f2d24\n      eq\n      tag_4\n      jumpi\n      dup1\n      0xb3cea217\n      eq\n      tag_5\n      jumpi\n      dup1\n      0xb5e3029f\n      eq\n      tag_6\n      jumpi\n      dup1\n      0xd0aeae96\n      eq\n      tag_7\n      jumpi\n    tag_2:\n      0x00\n      dup1\n      revert\n        /* \"contracts/oracle.sol\":1728:2111  function detectNFT(uint _ID,bool _result) public {\r... */\n    tag_3:\n      tag_8\n      0x04\n      dup1\n      calldatasize\n      sub\n      dup2\n      add\n      swap1\n      tag_9\n      swap2\n      swap1\n      tag_10\n      jump\t// in\n    tag_9:\n      tag_11\n      jump\t// in\n    tag_8:\n      stop\n        /* \"contracts/oracle.sol\":1290:1691  function uploadNFT(string memory _hash,string memory _ipfs)  public {\r... */\n    tag_4:\n      tag_12\n      0x04\n      dup1\n      calldatasize\n      sub\n      dup2\n      add\n      swap1\n      tag_13\n      swap2\n      swap1\n      tag_14\n      jump\t// in\n    tag_13:\n      tag_15\n      jump\t// in\n    tag_12:\n      stop\n        /* \"contracts/oracle.sol\":529:547  uint public ID = 0 */\n    tag_5:\n      tag_16\n      tag_17\n      jump\t// in\n    tag_16:\n      mload(0x40)\n      tag_18\n      swap2\n      swap1\n      tag_19\n      jump\t// in\n    tag_18:\n      mload(0x40)\n      dup1\n      swap2\n      sub\n      swap1\n      return\n        /* \"contracts/oracle.sol\":1036:1264  function checkNFTByID(uint _ID) public view returns(NFT memory) {\r... */\n    tag_6:\n      tag_20\n      0x04\n      dup1\n      calldatasize\n      sub\n      dup2\n      add\n      swap1\n      tag_21\n      swap2\n      swap1\n      tag_22\n      jump\t// in\n    tag_21:\n      tag_23\n      jump\t// in\n    tag_20:\n      mload(0x40)\n      tag_24\n      swap2\n      swap1\n      tag_25\n      jump\t// in\n    tag_24:\n      mload(0x40)\n      dup1\n      swap2\n      sub\n      swap1\n      return\n        /* \"contracts/oracle.sol\":700:964  function checkNFTByHash(string memory _hash) public view returns(bool) {\r... */\n    tag_7:\n      tag_26\n      0x04\n      dup1\n      calldatasize\n      sub\n      dup2\n      add\n      swap1\n      tag_27\n      swap2\n      swap1\n      tag_28\n      jump\t// in\n    tag_27:\n      tag_29\n      jump\t// in\n    tag_26:\n      mload(0x40)\n      tag_30\n      swap2\n      swap1\n      tag_31\n      jump\t// in\n    tag_30:\n      mload(0x40)\n      dup1\n      swap2\n      sub\n      swap1\n      return\n        /* \"contracts/oracle.sol\":1728:2111  function detectNFT(uint _ID,bool _result) public {\r... */\n    tag_11:\n        /* \"contracts/oracle.sol\":1810:1815  owner */\n      0x00\n      dup1\n      sload\n      swap1\n      0x0100\n      exp\n      swap1\n      div\n      0xffffffffffffffffffffffffffffffffffffffff\n      and\n        /* \"contracts/oracle.sol\":1796:1815  msg.sender == owner */\n      0xffffffffffffffffffffffffffffffffffffffff\n      and\n        /* \"contracts/oracle.sol\":1796:1806  msg.sender */\n      caller\n        /* \"contracts/oracle.sol\":1796:1815  msg.sender == owner */\n      0xffffffffffffffffffffffffffffffffffffffff\n      and\n      eq\n        /* \"contracts/oracle.sol\":1788:1849  require(msg.sender == owner,\"Only owner can detect the NFT!\") */\n      tag_33\n      jumpi\n      mload(0x40)\n      0x08c379a000000000000000000000000000000000000000000000000000000000\n      dup2\n      mstore\n      0x04\n      add\n      tag_34\n      swap1\n      tag_35\n      jump\t// in\n    tag_34:\n      mload(0x40)\n      dup1\n      swap2\n      sub\n      swap1\n      revert\n    tag_33:\n        /* \"contracts/oracle.sol\":1890:1895  false */\n      0x00\n        /* \"contracts/oracle.sol\":1868:1895  nfts[_ID].isDetected==false */\n      iszero\n      iszero\n        /* \"contracts/oracle.sol\":1868:1872  nfts */\n      0x02\n        /* \"contracts/oracle.sol\":1868:1877  nfts[_ID] */\n      0x00\n        /* \"contracts/oracle.sol\":1873:1876  _ID */\n      dup5\n        /* \"contracts/oracle.sol\":1868:1877  nfts[_ID] */\n      dup2\n      mstore\n      0x20\n      add\n      swap1\n      dup2\n      mstore\n      0x20\n      add\n      0x00\n      keccak256\n        /* \"contracts/oracle.sol\":1868:1888  nfts[_ID].isDetected */\n      0x03\n      add\n      0x00\n      swap1\n      sload\n      swap1\n      0x0100\n      exp\n      swap1\n      div\n      0xff\n      and\n        /* \"contracts/oracle.sol\":1868:1895  nfts[_ID].isDetected==false */\n      iszero\n      iszero\n      eq\n        /* \"contracts/oracle.sol\":1868:1933  nfts[_ID].isDetected==false&&nfts[_ID].state==NFTState.Undetected */\n      dup1\n      iszero\n      tag_36\n      jumpi\n      pop\n        /* \"contracts/oracle.sol\":1914:1933  NFTState.Undetected */\n      0x00\n        /* \"contracts/oracle.sol\":1897:1933  nfts[_ID].state==NFTState.Undetected */\n      0x01\n      dup2\n      gt\n      iszero\n      tag_37\n      jumpi\n      tag_38\n      tag_39\n      jump\t// in\n    tag_38:\n    tag_37:\n        /* \"contracts/oracle.sol\":1897:1901  nfts */\n      0x02\n        /* \"contracts/oracle.sol\":1897:1906  nfts[_ID] */\n      0x00\n        /* \"contracts/oracle.sol\":1902:1905  _ID */\n      dup5\n        /* \"contracts/oracle.sol\":1897:1906  nfts[_ID] */\n      dup2\n      mstore\n      0x20\n      add\n      swap1\n      dup2\n      mstore\n      0x20\n      add\n      0x00\n      keccak256\n        /* \"contracts/oracle.sol\":1897:1912  nfts[_ID].state */\n      0x00\n      add\n      0x00\n      swap1\n      sload\n      swap1\n      0x0100\n      exp\n      swap1\n      div\n      0xff\n      and\n        /* \"contracts/oracle.sol\":1897:1933  nfts[_ID].state==NFTState.Undetected */\n      0x01\n      dup2\n      gt\n      iszero\n      tag_40\n      jumpi\n      tag_41\n      tag_39\n      jump\t// in\n    tag_41:\n    tag_40:\n      eq\n        /* \"contracts/oracle.sol\":1868:1933  nfts[_ID].isDetected==false&&nfts[_ID].state==NFTState.Undetected */\n    tag_36:\n        /* \"contracts/oracle.sol\":1860:1984  require(nfts[_ID].isDetected==false&&nfts[_ID].state==NFTState.Undetected,\"The NFT does not meet the detection conditions!\") */\n      tag_42\n      jumpi\n      mload(0x40)\n      0x08c379a000000000000000000000000000000000000000000000000000000000\n      dup2\n      mstore\n      0x04\n      add\n      tag_43\n      swap1\n      tag_44\n      jump\t// in\n    tag_43:\n      mload(0x40)\n      dup1\n      swap2\n      sub\n      swap1\n      revert\n    tag_42:\n        /* \"contracts/oracle.sol\":2014:2021  _result */\n      dup1\n        /* \"contracts/oracle.sol\":1995:1999  nfts */\n      0x02\n        /* \"contracts/oracle.sol\":1995:2004  nfts[_ID] */\n      0x00\n        /* \"contracts/oracle.sol\":2000:2003  _ID */\n      dup5\n        /* \"contracts/oracle.sol\":1995:2004  nfts[_ID] */\n      dup2\n      mstore\n      0x20\n      add\n      swap1\n      dup2\n      mstore\n      0x20\n      add\n      0x00\n      keccak256\n        /* \"contracts/oracle.sol\":1995:2011  nfts[_ID].result */\n      0x03\n      add\n      0x01\n        /* \"contracts/oracle.sol\":1995:2021  nfts[_ID].result = _result */\n      0x0100\n      exp\n      dup2\n      sload\n      dup2\n      0xff\n      mul\n      not\n      and\n      swap1\n      dup4\n      iszero\n      iszero\n      mul\n      or\n      swap1\n      sstore\n      pop\n        /* \"contracts/oracle.sol\":2054:2059  false */\n      0x00\n        /* \"contracts/oracle.sol\":2032:2036  nfts */\n      0x02\n        /* \"contracts/oracle.sol\":2032:2040  nfts[ID] */\n      0x00\n        /* \"contracts/oracle.sol\":2037:2039  ID */\n      sload(0x01)\n        /* \"contracts/oracle.sol\":2032:2040  nfts[ID] */\n      dup2\n      mstore\n      0x20\n      add\n      swap1\n      dup2\n      mstore\n      0x20\n      add\n      0x00\n      keccak256\n        /* \"contracts/oracle.sol\":2032:2051  nfts[ID].isDetected */\n      0x03\n      add\n      0x00\n        /* \"contracts/oracle.sol\":2032:2059  nfts[ID].isDetected = false */\n      0x0100\n      exp\n      dup2\n      sload\n      dup2\n      0xff\n      mul\n      not\n      and\n      swap1\n      dup4\n      iszero\n      iszero\n      mul\n      or\n      swap1\n      sstore\n      pop\n        /* \"contracts/oracle.sol\":2087:2104  NFTState.Detected */\n      0x01\n        /* \"contracts/oracle.sol\":2070:2074  nfts */\n      0x02\n        /* \"contracts/oracle.sol\":2070:2078  nfts[ID] */\n      0x00\n        /* \"contracts/oracle.sol\":2075:2077  ID */\n      sload(0x01)\n        /* \"contracts/oracle.sol\":2070:2078  nfts[ID] */\n      dup2\n      mstore\n      0x20\n      add\n      swap1\n      dup2\n      mstore\n      0x20\n      add\n      0x00\n      keccak256\n        /* \"contracts/oracle.sol\":2070:2084  nfts[ID].state */\n      0x00\n      add\n      0x00\n        /* \"contracts/oracle.sol\":2070:2104  nfts[ID].state = NFTState.Detected */\n      0x0100\n      exp\n      dup2\n      sload\n      dup2\n      0xff\n      mul\n      not\n      and\n      swap1\n      dup4\n      0x01\n      dup2\n      gt\n      iszero\n      tag_45\n      jumpi\n      tag_46\n      tag_39\n      jump\t// in\n    tag_46:\n    tag_45:\n      mul\n      or\n      swap1\n      sstore\n      pop\n        /* \"contracts/oracle.sol\":1728:2111  function detectNFT(uint _ID,bool _result) public {\r... */\n      pop\n      pop\n      jump\t// out\n        /* \"contracts/oracle.sol\":1290:1691  function uploadNFT(string memory _hash,string memory _ipfs)  public {\r... */\n    tag_15:\n        /* \"contracts/oracle.sol\":1376:1395  hashIsExists(_hash) */\n      tag_48\n        /* \"contracts/oracle.sol\":1389:1394  _hash */\n      dup3\n        /* \"contracts/oracle.sol\":1376:1388  hashIsExists */\n      tag_49\n        /* \"contracts/oracle.sol\":1376:1395  hashIsExists(_hash) */\n      jump\t// in\n    tag_48:\n        /* \"contracts/oracle.sol\":1376:1416  hashIsExists(_hash)&&ipfsIsExists(_ipfs) */\n      dup1\n      iszero\n      tag_50\n      jumpi\n      pop\n        /* \"contracts/oracle.sol\":1397:1416  ipfsIsExists(_ipfs) */\n      tag_51\n        /* \"contracts/oracle.sol\":1410:1415  _ipfs */\n      dup2\n        /* \"contracts/oracle.sol\":1397:1409  ipfsIsExists */\n      tag_52\n        /* \"contracts/oracle.sol\":1397:1416  ipfsIsExists(_ipfs) */\n      jump\t// in\n    tag_51:\n        /* \"contracts/oracle.sol\":1376:1416  hashIsExists(_hash)&&ipfsIsExists(_ipfs) */\n    tag_50:\n        /* \"contracts/oracle.sol\":1368:1451  require(hashIsExists(_hash)&&ipfsIsExists(_ipfs),\"Unable to repeat the detection!\") */\n      tag_53\n      jumpi\n      mload(0x40)\n      0x08c379a000000000000000000000000000000000000000000000000000000000\n      dup2\n      mstore\n      0x04\n      add\n      tag_54\n      swap1\n      tag_55\n      jump\t// in\n    tag_54:\n      mload(0x40)\n      dup1\n      swap2\n      sub\n      swap1\n      revert\n    tag_53:\n        /* \"contracts/oracle.sol\":1477:1482  _hash */\n      dup2\n        /* \"contracts/oracle.sol\":1461:1465  nfts */\n      0x02\n        /* \"contracts/oracle.sol\":1461:1469  nfts[ID] */\n      0x00\n        /* \"contracts/oracle.sol\":1466:1468  ID */\n      sload(0x01)\n        /* \"contracts/oracle.sol\":1461:1469  nfts[ID] */\n      dup2\n      mstore\n      0x20\n      add\n      swap1\n      dup2\n      mstore\n      0x20\n      add\n      0x00\n      keccak256\n        /* \"contracts/oracle.sol\":1461:1474  nfts[ID].hash */\n      0x01\n      add\n        /* \"contracts/oracle.sol\":1461:1482  nfts[ID].hash = _hash */\n      swap1\n      dup1\n      mload\n      swap1\n      0x20\n      add\n      swap1\n      tag_56\n      swap3\n      swap2\n      swap1\n      tag_57\n      jump\t// in\n    tag_56:\n      pop\n        /* \"contracts/oracle.sol\":1508:1513  _ipfs */\n      dup1\n        /* \"contracts/oracle.sol\":1492:1496  nfts */\n      0x02\n        /* \"contracts/oracle.sol\":1492:1500  nfts[ID] */\n      0x00\n        /* \"contracts/oracle.sol\":1497:1499  ID */\n      sload(0x01)\n        /* \"contracts/oracle.sol\":1492:1500  nfts[ID] */\n      dup2\n      mstore\n      0x20\n      add\n      swap1\n      dup2\n      mstore\n      0x20\n      add\n      0x00\n      keccak256\n        /* \"contracts/oracle.sol\":1492:1505  nfts[ID].IPFS */\n      0x02\n      add\n        /* \"contracts/oracle.sol\":1492:1513  nfts[ID].IPFS = _ipfs */\n      swap1\n      dup1\n      mload\n      swap1\n      0x20\n      add\n      swap1\n      tag_58\n      swap3\n      swap2\n      swap1\n      tag_57\n      jump\t// in\n    tag_58:\n      pop\n        /* \"contracts/oracle.sol\":1540:1559  NFTState.Undetected */\n      0x00\n        /* \"contracts/oracle.sol\":1523:1527  nfts */\n      0x02\n        /* \"contracts/oracle.sol\":1523:1531  nfts[ID] */\n      0x00\n        /* \"contracts/oracle.sol\":1528:1530  ID */\n      sload(0x01)\n        /* \"contracts/oracle.sol\":1523:1531  nfts[ID] */\n      dup2\n      mstore\n      0x20\n      add\n      swap1\n      dup2\n      mstore\n      0x20\n      add\n      0x00\n      keccak256\n        /* \"contracts/oracle.sol\":1523:1537  nfts[ID].state */\n      0x00\n      add\n      0x00\n        /* \"contracts/oracle.sol\":1523:1559  nfts[ID].state = NFTState.Undetected */\n      0x0100\n      exp\n      dup2\n      sload\n      dup2\n      0xff\n      mul\n      not\n      and\n      swap1\n      dup4\n      0x01\n      dup2\n      gt\n      iszero\n      tag_59\n      jumpi\n      tag_60\n      tag_39\n      jump\t// in\n    tag_60:\n    tag_59:\n      mul\n      or\n      swap1\n      sstore\n      pop\n        /* \"contracts/oracle.sol\":1592:1597  false */\n      0x00\n        /* \"contracts/oracle.sol\":1570:1574  nfts */\n      0x02\n        /* \"contracts/oracle.sol\":1570:1578  nfts[ID] */\n      0x00\n        /* \"contracts/oracle.sol\":1575:1577  ID */\n      sload(0x01)\n        /* \"contracts/oracle.sol\":1570:1578  nfts[ID] */\n      dup2\n      mstore\n      0x20\n      add\n      swap1\n      dup2\n      mstore\n      0x20\n      add\n      0x00\n      keccak256\n        /* \"contracts/oracle.sol\":1570:1589  nfts[ID].isDetected */\n      0x03\n      add\n      0x00\n        /* \"contracts/oracle.sol\":1570:1597  nfts[ID].isDetected = false */\n      0x0100\n      exp\n      dup2\n      sload\n      dup2\n      0xff\n      mul\n      not\n      and\n      swap1\n      dup4\n      iszero\n      iszero\n      mul\n      or\n      swap1\n      sstore\n      pop\n        /* \"contracts/oracle.sol\":1625:1630  false */\n      0x00\n        /* \"contracts/oracle.sol\":1607:1611  nfts */\n      0x02\n        /* \"contracts/oracle.sol\":1607:1615  nfts[ID] */\n      0x00\n        /* \"contracts/oracle.sol\":1612:1614  ID */\n      sload(0x01)\n        /* \"contracts/oracle.sol\":1607:1615  nfts[ID] */\n      dup2\n      mstore\n      0x20\n      add\n      swap1\n      dup2\n      mstore\n      0x20\n      add\n      0x00\n      keccak256\n        /* \"contracts/oracle.sol\":1607:1622  nfts[ID].result */\n      0x03\n      add\n      0x01\n        /* \"contracts/oracle.sol\":1607:1630  nfts[ID].result = false */\n      0x0100\n      exp\n      dup2\n      sload\n      dup2\n      0xff\n      mul\n      not\n      and\n      swap1\n      dup4\n      iszero\n      iszero\n      mul\n      or\n      swap1\n      sstore\n      pop\n        /* \"contracts/oracle.sol\":1660:1670  msg.sender */\n      caller\n        /* \"contracts/oracle.sol\":1640:1644  nfts */\n      0x02\n        /* \"contracts/oracle.sol\":1640:1648  nfts[ID] */\n      0x00\n        /* \"contracts/oracle.sol\":1645:1647  ID */\n      sload(0x01)\n        /* \"contracts/oracle.sol\":1640:1648  nfts[ID] */\n      dup2\n      mstore\n      0x20\n      add\n      swap1\n      dup2\n      mstore\n      0x20\n      add\n      0x00\n      keccak256\n        /* \"contracts/oracle.sol\":1640:1657  nfts[ID].uploader */\n      0x03\n      add\n      0x02\n        /* \"contracts/oracle.sol\":1640:1670  nfts[ID].uploader = msg.sender */\n      0x0100\n      exp\n      dup2\n      sload\n      dup2\n      0xffffffffffffffffffffffffffffffffffffffff\n      mul\n      not\n      and\n      swap1\n      dup4\n      0xffffffffffffffffffffffffffffffffffffffff\n      and\n      mul\n      or\n      swap1\n      sstore\n      pop\n        /* \"contracts/oracle.sol\":1680:1682  ID */\n      0x01\n      0x00\n        /* \"contracts/oracle.sol\":1680:1684  ID++ */\n      dup2\n      sload\n      dup1\n      swap3\n      swap2\n      swap1\n      tag_61\n      swap1\n      tag_62\n      jump\t// in\n    tag_61:\n      swap2\n      swap1\n      pop\n      sstore\n      pop\n        /* \"contracts/oracle.sol\":1290:1691  function uploadNFT(string memory _hash,string memory _ipfs)  public {\r... */\n      pop\n      pop\n      jump\t// out\n        /* \"contracts/oracle.sol\":529:547  uint public ID = 0 */\n    tag_17:\n      sload(0x01)\n      dup2\n      jump\t// out\n        /* \"contracts/oracle.sol\":1036:1264  function checkNFTByID(uint _ID) public view returns(NFT memory) {\r... */\n    tag_23:\n        /* \"contracts/oracle.sol\":1088:1098  NFT memory */\n      tag_63\n      tag_64\n      jump\t// in\n    tag_63:\n        /* \"contracts/oracle.sol\":1132:1137  owner */\n      0x00\n      dup1\n      sload\n      swap1\n      0x0100\n      exp\n      swap1\n      div\n      0xffffffffffffffffffffffffffffffffffffffff\n      and\n        /* \"contracts/oracle.sol\":1118:1137  msg.sender == owner */\n      0xffffffffffffffffffffffffffffffffffffffff\n      and\n        /* \"contracts/oracle.sol\":1118:1128  msg.sender */\n      caller\n        /* \"contracts/oracle.sol\":1118:1137  msg.sender == owner */\n      0xffffffffffffffffffffffffffffffffffffffff\n      and\n      eq\n        /* \"contracts/oracle.sol\":1110:1176  require(msg.sender == owner,\"Only owner can check the NFT by ID!\") */\n      tag_66\n      jumpi\n      mload(0x40)\n      0x08c379a000000000000000000000000000000000000000000000000000000000\n      dup2\n      mstore\n      0x04\n      add\n      tag_67\n      swap1\n      tag_68\n      jump\t// in\n    tag_67:\n      mload(0x40)\n      dup1\n      swap2\n      sub\n      swap1\n      revert\n    tag_66:\n        /* \"contracts/oracle.sol\":1198:1200  ID */\n      sload(0x01)\n        /* \"contracts/oracle.sol\":1194:1197  _ID */\n      dup3\n        /* \"contracts/oracle.sol\":1194:1200  _ID<ID */\n      lt\n        /* \"contracts/oracle.sol\":1186:1231  require(_ID<ID,\"This ID of NFT don't exists\") */\n      tag_69\n      jumpi\n      mload(0x40)\n      0x08c379a000000000000000000000000000000000000000000000000000000000\n      dup2\n      mstore\n      0x04\n      add\n      tag_70\n      swap1\n      tag_71\n      jump\t// in\n    tag_70:\n      mload(0x40)\n      dup1\n      swap2\n      sub\n      swap1\n      revert\n    tag_69:\n        /* \"contracts/oracle.sol\":1248:1252  nfts */\n      0x02\n        /* \"contracts/oracle.sol\":1248:1257  nfts[_ID] */\n      0x00\n        /* \"contracts/oracle.sol\":1253:1256  _ID */\n      dup4\n        /* \"contracts/oracle.sol\":1248:1257  nfts[_ID] */\n      dup2\n      mstore\n      0x20\n      add\n      swap1\n      dup2\n      mstore\n      0x20\n      add\n      0x00\n      keccak256\n        /* \"contracts/oracle.sol\":1241:1257  return nfts[_ID] */\n      mload(0x40)\n      dup1\n      0xc0\n      add\n      0x40\n      mstore\n      swap1\n      dup2\n      0x00\n      dup3\n      add\n      0x00\n      swap1\n      sload\n      swap1\n      0x0100\n      exp\n      swap1\n      div\n      0xff\n      and\n      0x01\n      dup2\n      gt\n      iszero\n      tag_72\n      jumpi\n      tag_73\n      tag_39\n      jump\t// in\n    tag_73:\n    tag_72:\n      0x01\n      dup2\n      gt\n      iszero\n      tag_74\n      jumpi\n      tag_75\n      tag_39\n      jump\t// in\n    tag_75:\n    tag_74:\n      dup2\n      mstore\n      0x20\n      add\n      0x01\n      dup3\n      add\n      dup1\n      sload\n      tag_76\n      swap1\n      tag_77\n      jump\t// in\n    tag_76:\n      dup1\n      0x1f\n      add\n      0x20\n      dup1\n      swap2\n      div\n      mul\n      0x20\n      add\n      mload(0x40)\n      swap1\n      dup2\n      add\n      0x40\n      mstore\n      dup1\n      swap3\n      swap2\n      swap1\n      dup2\n      dup2\n      mstore\n      0x20\n      add\n      dup3\n      dup1\n      sload\n      tag_78\n      swap1\n      tag_77\n      jump\t// in\n    tag_78:\n      dup1\n      iszero\n      tag_79\n      jumpi\n      dup1\n      0x1f\n      lt\n      tag_80\n      jumpi\n      0x0100\n      dup1\n      dup4\n      sload\n      div\n      mul\n      dup4\n      mstore\n      swap2\n      0x20\n      add\n      swap2\n      jump(tag_79)\n    tag_80:\n      dup3\n      add\n      swap2\n      swap1\n      0x00\n      mstore\n      keccak256(0x00, 0x20)\n      swap1\n    tag_81:\n      dup2\n      sload\n      dup2\n      mstore\n      swap1\n      0x01\n      add\n      swap1\n      0x20\n      add\n      dup1\n      dup4\n      gt\n      tag_81\n      jumpi\n      dup3\n      swap1\n      sub\n      0x1f\n      and\n      dup3\n      add\n      swap2\n    tag_79:\n      pop\n      pop\n      pop\n      pop\n      pop\n      dup2\n      mstore\n      0x20\n      add\n      0x02\n      dup3\n      add\n      dup1\n      sload\n      tag_82\n      swap1\n      tag_77\n      jump\t// in\n    tag_82:\n      dup1\n      0x1f\n      add\n      0x20\n      dup1\n      swap2\n      div\n      mul\n      0x20\n      add\n      mload(0x40)\n      swap1\n      dup2\n      add\n      0x40\n      mstore\n      dup1\n      swap3\n      swap2\n      swap1\n      dup2\n      dup2\n      mstore\n      0x20\n      add\n      dup3\n      dup1\n      sload\n      tag_83\n      swap1\n      tag_77\n      jump\t// in\n    tag_83:\n      dup1\n      iszero\n      tag_84\n      jumpi\n      dup1\n      0x1f\n      lt\n      tag_85\n      jumpi\n      0x0100\n      dup1\n      dup4\n      sload\n      div\n      mul\n      dup4\n      mstore\n      swap2\n      0x20\n      add\n      swap2\n      jump(tag_84)\n    tag_85:\n      dup3\n      add\n      swap2\n      swap1\n      0x00\n      mstore\n      keccak256(0x00, 0x20)\n      swap1\n    tag_86:\n      dup2\n      sload\n      dup2\n      mstore\n      swap1\n      0x01\n      add\n      swap1\n      0x20\n      add\n      dup1\n      dup4\n      gt\n      tag_86\n      jumpi\n      dup3\n      swap1\n      sub\n      0x1f\n      and\n      dup3\n      add\n      swap2\n    tag_84:\n      pop\n      pop\n      pop\n      pop\n      pop\n      dup2\n      mstore\n      0x20\n      add\n      0x03\n      dup3\n      add\n      0x00\n      swap1\n      sload\n      swap1\n      0x0100\n      exp\n      swap1\n      div\n      0xff\n      and\n      iszero\n      iszero\n      iszero\n      iszero\n      dup2\n      mstore\n      0x20\n      add\n      0x03\n      dup3\n      add\n      0x01\n      swap1\n      sload\n      swap1\n      0x0100\n      exp\n      swap1\n      div\n      0xff\n      and\n      iszero\n      iszero\n      iszero\n      iszero\n      dup2\n      mstore\n      0x20\n      add\n      0x03\n      dup3\n      add\n      0x02\n      swap1\n      sload\n      swap1\n      0x0100\n      exp\n      swap1\n      div\n      0xffffffffffffffffffffffffffffffffffffffff\n      and\n      0xffffffffffffffffffffffffffffffffffffffff\n      and\n      0xffffffffffffffffffffffffffffffffffffffff\n      and\n      dup2\n      mstore\n      pop\n      pop\n      swap1\n      pop\n        /* \"contracts/oracle.sol\":1036:1264  function checkNFTByID(uint _ID) public view returns(NFT memory) {\r... */\n      swap2\n      swap1\n      pop\n      jump\t// out\n        /* \"contracts/oracle.sol\":700:964  function checkNFTByHash(string memory _hash) public view returns(bool) {\r... */\n    tag_29:\n        /* \"contracts/oracle.sol\":765:769  bool */\n      0x00\n        /* \"contracts/oracle.sol\":785:791  uint i */\n      dup1\n        /* \"contracts/oracle.sol\":792:793  0 */\n      0x00\n        /* \"contracts/oracle.sol\":785:793  uint i=0 */\n      swap1\n      pop\n        /* \"contracts/oracle.sol\":781:935  for(uint i=0;i<ID;i++){\r... */\n    tag_88:\n        /* \"contracts/oracle.sol\":796:798  ID */\n      sload(0x01)\n        /* \"contracts/oracle.sol\":794:795  i */\n      dup2\n        /* \"contracts/oracle.sol\":794:798  i<ID */\n      lt\n        /* \"contracts/oracle.sol\":781:935  for(uint i=0;i<ID;i++){\r... */\n      iszero\n      tag_89\n      jumpi\n        /* \"contracts/oracle.sol\":821:855  compareStrings(nfts[i].hash,_hash) */\n      tag_91\n        /* \"contracts/oracle.sol\":836:840  nfts */\n      0x02\n        /* \"contracts/oracle.sol\":836:843  nfts[i] */\n      0x00\n        /* \"contracts/oracle.sol\":841:842  i */\n      dup4\n        /* \"contracts/oracle.sol\":836:843  nfts[i] */\n      dup2\n      mstore\n      0x20\n      add\n      swap1\n      dup2\n      mstore\n      0x20\n      add\n      0x00\n      keccak256\n        /* \"contracts/oracle.sol\":836:848  nfts[i].hash */\n      0x01\n      add\n        /* \"contracts/oracle.sol\":821:855  compareStrings(nfts[i].hash,_hash) */\n      dup1\n      sload\n      tag_92\n      swap1\n      tag_77\n      jump\t// in\n    tag_92:\n      dup1\n      0x1f\n      add\n      0x20\n      dup1\n      swap2\n      div\n      mul\n      0x20\n      add\n      mload(0x40)\n      swap1\n      dup2\n      add\n      0x40\n      mstore\n      dup1\n      swap3\n      swap2\n      swap1\n      dup2\n      dup2\n      mstore\n      0x20\n      add\n      dup3\n      dup1\n      sload\n      tag_93\n      swap1\n      tag_77\n      jump\t// in\n    tag_93:\n      dup1\n      iszero\n      tag_94\n      jumpi\n      dup1\n      0x1f\n      lt\n      tag_95\n      jumpi\n      0x0100\n      dup1\n      dup4\n      sload\n      div\n      mul\n      dup4\n      mstore\n      swap2\n      0x20\n      add\n      swap2\n      jump(tag_94)\n    tag_95:\n      dup3\n      add\n      swap2\n      swap1\n      0x00\n      mstore\n      keccak256(0x00, 0x20)\n      swap1\n    tag_96:\n      dup2\n      sload\n      dup2\n      mstore\n      swap1\n      0x01\n      add\n      swap1\n      0x20\n      add\n      dup1\n      dup4\n      gt\n      tag_96\n      jumpi\n      dup3\n      swap1\n      sub\n      0x1f\n      and\n      dup3\n      add\n      swap2\n    tag_94:\n      pop\n      pop\n      pop\n      pop\n      pop\n        /* \"contracts/oracle.sol\":849:854  _hash */\n      dup5\n        /* \"contracts/oracle.sol\":821:835  compareStrings */\n      tag_97\n        /* \"contracts/oracle.sol\":821:855  compareStrings(nfts[i].hash,_hash) */\n      jump\t// in\n    tag_91:\n        /* \"contracts/oracle.sol\":821:877  compareStrings(nfts[i].hash,_hash)&&nfts[i].result==true */\n      dup1\n      iszero\n      tag_98\n      jumpi\n      pop\n        /* \"contracts/oracle.sol\":873:877  true */\n      0x01\n        /* \"contracts/oracle.sol\":857:877  nfts[i].result==true */\n      iszero\n      iszero\n        /* \"contracts/oracle.sol\":857:861  nfts */\n      0x02\n        /* \"contracts/oracle.sol\":857:864  nfts[i] */\n      0x00\n        /* \"contracts/oracle.sol\":862:863  i */\n      dup4\n        /* \"contracts/oracle.sol\":857:864  nfts[i] */\n      dup2\n      mstore\n      0x20\n      add\n      swap1\n      dup2\n      mstore\n      0x20\n      add\n      0x00\n      keccak256\n        /* \"contracts/oracle.sol\":857:871  nfts[i].result */\n      0x03\n      add\n      0x01\n      swap1\n      sload\n      swap1\n      0x0100\n      exp\n      swap1\n      div\n      0xff\n      and\n        /* \"contracts/oracle.sol\":857:877  nfts[i].result==true */\n      iszero\n      iszero\n      eq\n        /* \"contracts/oracle.sol\":821:877  compareStrings(nfts[i].hash,_hash)&&nfts[i].result==true */\n    tag_98:\n        /* \"contracts/oracle.sol\":818:924  if(compareStrings(nfts[i].hash,_hash)&&nfts[i].result==true){\r... */\n      iszero\n      tag_99\n      jumpi\n        /* \"contracts/oracle.sol\":904:908  true */\n      0x01\n        /* \"contracts/oracle.sol\":897:908  return true */\n      swap2\n      pop\n      pop\n      jump(tag_87)\n        /* \"contracts/oracle.sol\":818:924  if(compareStrings(nfts[i].hash,_hash)&&nfts[i].result==true){\r... */\n    tag_99:\n        /* \"contracts/oracle.sol\":799:802  i++ */\n      dup1\n      dup1\n      tag_100\n      swap1\n      tag_62\n      jump\t// in\n    tag_100:\n      swap2\n      pop\n      pop\n        /* \"contracts/oracle.sol\":781:935  for(uint i=0;i<ID;i++){\r... */\n      jump(tag_88)\n    tag_89:\n      pop\n        /* \"contracts/oracle.sol\":952:957  false */\n      0x00\n        /* \"contracts/oracle.sol\":945:957  return false */\n      swap1\n      pop\n        /* \"contracts/oracle.sol\":700:964  function checkNFTByHash(string memory _hash) public view returns(bool) {\r... */\n    tag_87:\n      swap2\n      swap1\n      pop\n      jump\t// out\n        /* \"contracts/oracle.sol\":2198:2441  function  hashIsExists(string memory _hash) private view returns(bool){\r... */\n    tag_49:\n        /* \"contracts/oracle.sol\":2263:2267  bool */\n      0x00\n        /* \"contracts/oracle.sol\":2283:2289  uint i */\n      dup1\n        /* \"contracts/oracle.sol\":2290:2291  0 */\n      0x00\n        /* \"contracts/oracle.sol\":2283:2291  uint i=0 */\n      swap1\n      pop\n        /* \"contracts/oracle.sol\":2279:2412  for(uint i=0;i<ID;i++){\r... */\n    tag_102:\n        /* \"contracts/oracle.sol\":2294:2296  ID */\n      sload(0x01)\n        /* \"contracts/oracle.sol\":2292:2293  i */\n      dup2\n        /* \"contracts/oracle.sol\":2292:2296  i<ID */\n      lt\n        /* \"contracts/oracle.sol\":2279:2412  for(uint i=0;i<ID;i++){\r... */\n      iszero\n      tag_103\n      jumpi\n        /* \"contracts/oracle.sol\":2319:2353  compareStrings(nfts[i].hash,_hash) */\n      tag_105\n        /* \"contracts/oracle.sol\":2334:2338  nfts */\n      0x02\n        /* \"contracts/oracle.sol\":2334:2341  nfts[i] */\n      0x00\n        /* \"contracts/oracle.sol\":2339:2340  i */\n      dup4\n        /* \"contracts/oracle.sol\":2334:2341  nfts[i] */\n      dup2\n      mstore\n      0x20\n      add\n      swap1\n      dup2\n      mstore\n      0x20\n      add\n      0x00\n      keccak256\n        /* \"contracts/oracle.sol\":2334:2346  nfts[i].hash */\n      0x01\n      add\n        /* \"contracts/oracle.sol\":2319:2353  compareStrings(nfts[i].hash,_hash) */\n      dup1\n      sload\n      tag_106\n      swap1\n      tag_77\n      jump\t// in\n    tag_106:\n      dup1\n      0x1f\n      add\n      0x20\n      dup1\n      swap2\n      div\n      mul\n      0x20\n      add\n      mload(0x40)\n      swap1\n      dup2\n      add\n      0x40\n      mstore\n      dup1\n      swap3\n      swap2\n      swap1\n      dup2\n      dup2\n      mstore\n      0x20\n      add\n      dup3\n      dup1\n      sload\n      tag_107\n      swap1\n      tag_77\n      jump\t// in\n    tag_107:\n      dup1\n      iszero\n      tag_108\n      jumpi\n      dup1\n      0x1f\n      lt\n      tag_109\n      jumpi\n      0x0100\n      dup1\n      dup4\n      sload\n      div\n      mul\n      dup4\n      mstore\n      swap2\n      0x20\n      add\n      swap2\n      jump(tag_108)\n    tag_109:\n      dup3\n      add\n      swap2\n      swap1\n      0x00\n      mstore\n      keccak256(0x00, 0x20)\n      swap1\n    tag_110:\n      dup2\n      sload\n      dup2\n      mstore\n      swap1\n      0x01\n      add\n      swap1\n      0x20\n      add\n      dup1\n      dup4\n      gt\n      tag_110\n      jumpi\n      dup3\n      swap1\n      sub\n      0x1f\n      and\n      dup3\n      add\n      swap2\n    tag_108:\n      pop\n      pop\n      pop\n      pop\n      pop\n        /* \"contracts/oracle.sol\":2347:2352  _hash */\n      dup5\n        /* \"contracts/oracle.sol\":2319:2333  compareStrings */\n      tag_97\n        /* \"contracts/oracle.sol\":2319:2353  compareStrings(nfts[i].hash,_hash) */\n      jump\t// in\n    tag_105:\n        /* \"contracts/oracle.sol\":2316:2401  if(compareStrings(nfts[i].hash,_hash)){\r... */\n      iszero\n      tag_111\n      jumpi\n        /* \"contracts/oracle.sol\":2380:2385  false */\n      0x00\n        /* \"contracts/oracle.sol\":2373:2385  return false */\n      swap2\n      pop\n      pop\n      jump(tag_101)\n        /* \"contracts/oracle.sol\":2316:2401  if(compareStrings(nfts[i].hash,_hash)){\r... */\n    tag_111:\n        /* \"contracts/oracle.sol\":2297:2300  i++ */\n      dup1\n      dup1\n      tag_112\n      swap1\n      tag_62\n      jump\t// in\n    tag_112:\n      swap2\n      pop\n      pop\n        /* \"contracts/oracle.sol\":2279:2412  for(uint i=0;i<ID;i++){\r... */\n      jump(tag_102)\n    tag_103:\n      pop\n        /* \"contracts/oracle.sol\":2429:2433  true */\n      0x01\n        /* \"contracts/oracle.sol\":2422:2433  return true */\n      swap1\n      pop\n        /* \"contracts/oracle.sol\":2198:2441  function  hashIsExists(string memory _hash) private view returns(bool){\r... */\n    tag_101:\n      swap2\n      swap1\n      pop\n      jump\t// out\n        /* \"contracts/oracle.sol\":2447:2689  function ipfsIsExists(string memory _ipfs) private view returns(bool){\r... */\n    tag_52:\n        /* \"contracts/oracle.sol\":2511:2515  bool */\n      0x00\n        /* \"contracts/oracle.sol\":2531:2537  uint i */\n      dup1\n        /* \"contracts/oracle.sol\":2538:2539  0 */\n      0x00\n        /* \"contracts/oracle.sol\":2531:2539  uint i=0 */\n      swap1\n      pop\n        /* \"contracts/oracle.sol\":2527:2660  for(uint i=0;i<ID;i++){\r... */\n    tag_114:\n        /* \"contracts/oracle.sol\":2542:2544  ID */\n      sload(0x01)\n        /* \"contracts/oracle.sol\":2540:2541  i */\n      dup2\n        /* \"contracts/oracle.sol\":2540:2544  i<ID */\n      lt\n        /* \"contracts/oracle.sol\":2527:2660  for(uint i=0;i<ID;i++){\r... */\n      iszero\n      tag_115\n      jumpi\n        /* \"contracts/oracle.sol\":2567:2601  compareStrings(nfts[i].IPFS,_ipfs) */\n      tag_117\n        /* \"contracts/oracle.sol\":2582:2586  nfts */\n      0x02\n        /* \"contracts/oracle.sol\":2582:2589  nfts[i] */\n      0x00\n        /* \"contracts/oracle.sol\":2587:2588  i */\n      dup4\n        /* \"contracts/oracle.sol\":2582:2589  nfts[i] */\n      dup2\n      mstore\n      0x20\n      add\n      swap1\n      dup2\n      mstore\n      0x20\n      add\n      0x00\n      keccak256\n        /* \"contracts/oracle.sol\":2582:2594  nfts[i].IPFS */\n      0x02\n      add\n        /* \"contracts/oracle.sol\":2567:2601  compareStrings(nfts[i].IPFS,_ipfs) */\n      dup1\n      sload\n      tag_118\n      swap1\n      tag_77\n      jump\t// in\n    tag_118:\n      dup1\n      0x1f\n      add\n      0x20\n      dup1\n      swap2\n      div\n      mul\n      0x20\n      add\n      mload(0x40)\n      swap1\n      dup2\n      add\n      0x40\n      mstore\n      dup1\n      swap3\n      swap2\n      swap1\n      dup2\n      dup2\n      mstore\n      0x20\n      add\n      dup3\n      dup1\n      sload\n      tag_119\n      swap1\n      tag_77\n      jump\t// in\n    tag_119:\n      dup1\n      iszero\n      tag_120\n      jumpi\n      dup1\n      0x1f\n      lt\n      tag_121\n      jumpi\n      0x0100\n      dup1\n      dup4\n      sload\n      div\n      mul\n      dup4\n      mstore\n      swap2\n      0x20\n      add\n      swap2\n      jump(tag_120)\n    tag_121:\n      dup3\n      add\n      swap2\n      swap1\n      0x00\n      mstore\n      keccak256(0x00, 0x20)\n      swap1\n    tag_122:\n      dup2\n      sload\n      dup2\n      mstore\n      swap1\n      0x01\n      add\n      swap1\n      0x20\n      add\n      dup1\n      dup4\n      gt\n      tag_122\n      jumpi\n      dup3\n      swap1\n      sub\n      0x1f\n      and\n      dup3\n      add\n      swap2\n    tag_120:\n      pop\n      pop\n      pop\n      pop\n      pop\n        /* \"contracts/oracle.sol\":2595:2600  _ipfs */\n      dup5\n        /* \"contracts/oracle.sol\":2567:2581  compareStrings */\n      tag_97\n        /* \"contracts/oracle.sol\":2567:2601  compareStrings(nfts[i].IPFS,_ipfs) */\n      jump\t// in\n    tag_117:\n        /* \"contracts/oracle.sol\":2564:2649  if(compareStrings(nfts[i].IPFS,_ipfs)){\r... */\n      iszero\n      tag_123\n      jumpi\n        /* \"contracts/oracle.sol\":2628:2633  false */\n      0x00\n        /* \"contracts/oracle.sol\":2621:2633  return false */\n      swap2\n      pop\n      pop\n      jump(tag_113)\n        /* \"contracts/oracle.sol\":2564:2649  if(compareStrings(nfts[i].IPFS,_ipfs)){\r... */\n    tag_123:\n        /* \"contracts/oracle.sol\":2545:2548  i++ */\n      dup1\n      dup1\n      tag_124\n      swap1\n      tag_62\n      jump\t// in\n    tag_124:\n      swap2\n      pop\n      pop\n        /* \"contracts/oracle.sol\":2527:2660  for(uint i=0;i<ID;i++){\r... */\n      jump(tag_114)\n    tag_115:\n      pop\n        /* \"contracts/oracle.sol\":2677:2681  true */\n      0x01\n        /* \"contracts/oracle.sol\":2670:2681  return true */\n      swap1\n      pop\n        /* \"contracts/oracle.sol\":2447:2689  function ipfsIsExists(string memory _ipfs) private view returns(bool){\r... */\n    tag_113:\n      swap2\n      swap1\n      pop\n      jump\t// out\n        /* \"contracts/oracle.sol\":2701:2886  function  compareStrings(string memory a, string memory b) private view returns(bool) {\r... */\n    tag_97:\n        /* \"contracts/oracle.sol\":2781:2785  bool */\n      0x00\n        /* \"contracts/oracle.sol\":2873:2874  b */\n      dup2\n        /* \"contracts/oracle.sol\":2855:2876  abi.encodePacked((b)) */\n      add(0x20, mload(0x40))\n      tag_126\n      swap2\n      swap1\n      tag_127\n      jump\t// in\n    tag_126:\n      mload(0x40)\n      0x20\n      dup2\n      dup4\n      sub\n      sub\n      dup2\n      mstore\n      swap1\n      0x40\n      mstore\n        /* \"contracts/oracle.sol\":2845:2877  keccak256(abi.encodePacked((b))) */\n      dup1\n      mload\n      swap1\n      0x20\n      add\n      keccak256\n        /* \"contracts/oracle.sol\":2837:2838  a */\n      dup4\n        /* \"contracts/oracle.sol\":2819:2840  abi.encodePacked((a)) */\n      add(0x20, mload(0x40))\n      tag_128\n      swap2\n      swap1\n      tag_127\n      jump\t// in\n    tag_128:\n      mload(0x40)\n      0x20\n      dup2\n      dup4\n      sub\n      sub\n      dup2\n      mstore\n      swap1\n      0x40\n      mstore\n        /* \"contracts/oracle.sol\":2809:2841  keccak256(abi.encodePacked((a))) */\n      dup1\n      mload\n      swap1\n      0x20\n      add\n      keccak256\n        /* \"contracts/oracle.sol\":2809:2877  keccak256(abi.encodePacked((a))) == keccak256(abi.encodePacked((b))) */\n      eq\n        /* \"contracts/oracle.sol\":2801:2878  return (keccak256(abi.encodePacked((a))) == keccak256(abi.encodePacked((b)))) */\n      swap1\n      pop\n        /* \"contracts/oracle.sol\":2701:2886  function  compareStrings(string memory a, string memory b) private view returns(bool) {\r... */\n      swap3\n      swap2\n      pop\n      pop\n      jump\t// out\n    tag_57:\n      dup3\n      dup1\n      sload\n      tag_129\n      swap1\n      tag_77\n      jump\t// in\n    tag_129:\n      swap1\n      0x00\n      mstore\n      keccak256(0x00, 0x20)\n      swap1\n      0x1f\n      add\n      0x20\n      swap1\n      div\n      dup2\n      add\n      swap3\n      dup3\n      tag_131\n      jumpi\n      0x00\n      dup6\n      sstore\n      jump(tag_130)\n    tag_131:\n      dup3\n      0x1f\n      lt\n      tag_132\n      jumpi\n      dup1\n      mload\n      not(0xff)\n      and\n      dup4\n      dup1\n      add\n      or\n      dup6\n      sstore\n      jump(tag_130)\n    tag_132:\n      dup3\n      dup1\n      add\n      0x01\n      add\n      dup6\n      sstore\n      dup3\n      iszero\n      tag_130\n      jumpi\n      swap2\n      dup3\n      add\n    tag_133:\n      dup3\n      dup2\n      gt\n      iszero\n      tag_134\n      jumpi\n      dup3\n      mload\n      dup3\n      sstore\n      swap2\n      0x20\n      add\n      swap2\n      swap1\n      0x01\n      add\n      swap1\n      jump(tag_133)\n    tag_134:\n    tag_130:\n      pop\n      swap1\n      pop\n      tag_135\n      swap2\n      swap1\n      tag_136\n      jump\t// in\n    tag_135:\n      pop\n      swap1\n      jump\t// out\n    tag_64:\n      mload(0x40)\n      dup1\n      0xc0\n      add\n      0x40\n      mstore\n      dup1\n      0x00\n      0x01\n      dup2\n      gt\n      iszero\n      tag_137\n      jumpi\n      tag_138\n      tag_39\n      jump\t// in\n    tag_138:\n    tag_137:\n      dup2\n      mstore\n      0x20\n      add\n      0x60\n      dup2\n      mstore\n      0x20\n      add\n      0x60\n      dup2\n      mstore\n      0x20\n      add\n      iszero(iszero(0x00))\n      dup2\n      mstore\n      0x20\n      add\n      iszero(iszero(0x00))\n      dup2\n      mstore\n      0x20\n      add\n      and(0xffffffffffffffffffffffffffffffffffffffff, 0x00)\n      dup2\n      mstore\n      pop\n      swap1\n      jump\t// out\n    tag_136:\n    tag_139:\n      dup1\n      dup3\n      gt\n      iszero\n      tag_140\n      jumpi\n      0x00\n      dup2\n      0x00\n      swap1\n      sstore\n      pop\n      0x01\n      add\n      jump(tag_139)\n    tag_140:\n      pop\n      swap1\n      jump\t// out\n        /* \"#utility.yul\":7:419   */\n    tag_142:\n        /* \"#utility.yul\":85:90   */\n      0x00\n        /* \"#utility.yul\":110:176   */\n      tag_144\n        /* \"#utility.yul\":126:175   */\n      tag_145\n        /* \"#utility.yul\":168:174   */\n      dup5\n        /* \"#utility.yul\":126:175   */\n      tag_146\n      jump\t// in\n    tag_145:\n        /* \"#utility.yul\":110:176   */\n      tag_147\n      jump\t// in\n    tag_144:\n        /* \"#utility.yul\":101:176   */\n      swap1\n      pop\n        /* \"#utility.yul\":199:205   */\n      dup3\n        /* \"#utility.yul\":192:197   */\n      dup2\n        /* \"#utility.yul\":185:206   */\n      mstore\n        /* \"#utility.yul\":237:241   */\n      0x20\n        /* \"#utility.yul\":230:235   */\n      dup2\n        /* \"#utility.yul\":226:242   */\n      add\n        /* \"#utility.yul\":275:278   */\n      dup5\n        /* \"#utility.yul\":266:272   */\n      dup5\n        /* \"#utility.yul\":261:264   */\n      dup5\n        /* \"#utility.yul\":257:273   */\n      add\n        /* \"#utility.yul\":254:279   */\n      gt\n        /* \"#utility.yul\":251:363   */\n      iszero\n      tag_148\n      jumpi\n        /* \"#utility.yul\":282:361   */\n      tag_149\n      tag_150\n      jump\t// in\n    tag_149:\n        /* \"#utility.yul\":251:363   */\n    tag_148:\n        /* \"#utility.yul\":372:413   */\n      tag_151\n        /* \"#utility.yul\":406:412   */\n      dup5\n        /* \"#utility.yul\":401:404   */\n      dup3\n        /* \"#utility.yul\":396:399   */\n      dup6\n        /* \"#utility.yul\":372:413   */\n      tag_152\n      jump\t// in\n    tag_151:\n        /* \"#utility.yul\":91:419   */\n      pop\n        /* \"#utility.yul\":7:419   */\n      swap4\n      swap3\n      pop\n      pop\n      pop\n      jump\t// out\n        /* \"#utility.yul\":425:558   */\n    tag_153:\n        /* \"#utility.yul\":468:473   */\n      0x00\n        /* \"#utility.yul\":506:512   */\n      dup2\n        /* \"#utility.yul\":493:513   */\n      calldataload\n        /* \"#utility.yul\":484:513   */\n      swap1\n      pop\n        /* \"#utility.yul\":522:552   */\n      tag_155\n        /* \"#utility.yul\":546:551   */\n      dup2\n        /* \"#utility.yul\":522:552   */\n      tag_156\n      jump\t// in\n    tag_155:\n        /* \"#utility.yul\":425:558   */\n      swap3\n      swap2\n      pop\n      pop\n      jump\t// out\n        /* \"#utility.yul\":578:918   */\n    tag_157:\n        /* \"#utility.yul\":634:639   */\n      0x00\n        /* \"#utility.yul\":683:686   */\n      dup3\n        /* \"#utility.yul\":676:680   */\n      0x1f\n        /* \"#utility.yul\":668:674   */\n      dup4\n        /* \"#utility.yul\":664:681   */\n      add\n        /* \"#utility.yul\":660:687   */\n      slt\n        /* \"#utility.yul\":650:772   */\n      tag_159\n      jumpi\n        /* \"#utility.yul\":691:770   */\n      tag_160\n      tag_161\n      jump\t// in\n    tag_160:\n        /* \"#utility.yul\":650:772   */\n    tag_159:\n        /* \"#utility.yul\":808:814   */\n      dup2\n        /* \"#utility.yul\":795:815   */\n      calldataload\n        /* \"#utility.yul\":833:912   */\n      tag_162\n        /* \"#utility.yul\":908:911   */\n      dup5\n        /* \"#utility.yul\":900:906   */\n      dup3\n        /* \"#utility.yul\":893:897   */\n      0x20\n        /* \"#utility.yul\":885:891   */\n      dup7\n        /* \"#utility.yul\":881:898   */\n      add\n        /* \"#utility.yul\":833:912   */\n      tag_142\n      jump\t// in\n    tag_162:\n        /* \"#utility.yul\":824:912   */\n      swap2\n      pop\n        /* \"#utility.yul\":640:918   */\n      pop\n        /* \"#utility.yul\":578:918   */\n      swap3\n      swap2\n      pop\n      pop\n      jump\t// out\n        /* \"#utility.yul\":924:1063   */\n    tag_163:\n        /* \"#utility.yul\":970:975   */\n      0x00\n        /* \"#utility.yul\":1008:1014   */\n      dup2\n        /* \"#utility.yul\":995:1015   */\n      calldataload\n        /* \"#utility.yul\":986:1015   */\n      swap1\n      pop\n        /* \"#utility.yul\":1024:1057   */\n      tag_165\n        /* \"#utility.yul\":1051:1056   */\n      dup2\n        /* \"#utility.yul\":1024:1057   */\n      tag_166\n      jump\t// in\n    tag_165:\n        /* \"#utility.yul\":924:1063   */\n      swap3\n      swap2\n      pop\n      pop\n      jump\t// out\n        /* \"#utility.yul\":1069:1578   */\n    tag_28:\n        /* \"#utility.yul\":1138:1144   */\n      0x00\n        /* \"#utility.yul\":1187:1189   */\n      0x20\n        /* \"#utility.yul\":1175:1184   */\n      dup3\n        /* \"#utility.yul\":1166:1173   */\n      dup5\n        /* \"#utility.yul\":1162:1185   */\n      sub\n        /* \"#utility.yul\":1158:1190   */\n      slt\n        /* \"#utility.yul\":1155:1274   */\n      iszero\n      tag_168\n      jumpi\n        /* \"#utility.yul\":1193:1272   */\n      tag_169\n      tag_170\n      jump\t// in\n    tag_169:\n        /* \"#utility.yul\":1155:1274   */\n    tag_168:\n        /* \"#utility.yul\":1341:1342   */\n      0x00\n        /* \"#utility.yul\":1330:1339   */\n      dup3\n        /* \"#utility.yul\":1326:1343   */\n      add\n        /* \"#utility.yul\":1313:1344   */\n      calldataload\n        /* \"#utility.yul\":1371:1389   */\n      0xffffffffffffffff\n        /* \"#utility.yul\":1363:1369   */\n      dup2\n        /* \"#utility.yul\":1360:1390   */\n      gt\n        /* \"#utility.yul\":1357:1474   */\n      iszero\n      tag_171\n      jumpi\n        /* \"#utility.yul\":1393:1472   */\n      tag_172\n      tag_173\n      jump\t// in\n    tag_172:\n        /* \"#utility.yul\":1357:1474   */\n    tag_171:\n        /* \"#utility.yul\":1498:1561   */\n      tag_174\n        /* \"#utility.yul\":1553:1560   */\n      dup5\n        /* \"#utility.yul\":1544:1550   */\n      dup3\n        /* \"#utility.yul\":1533:1542   */\n      dup6\n        /* \"#utility.yul\":1529:1551   */\n      add\n        /* \"#utility.yul\":1498:1561   */\n      tag_157\n      jump\t// in\n    tag_174:\n        /* \"#utility.yul\":1488:1561   */\n      swap2\n      pop\n        /* \"#utility.yul\":1284:1571   */\n      pop\n        /* \"#utility.yul\":1069:1578   */\n      swap3\n      swap2\n      pop\n      pop\n      jump\t// out\n        /* \"#utility.yul\":1584:2418   */\n    tag_14:\n        /* \"#utility.yul\":1672:1678   */\n      0x00\n        /* \"#utility.yul\":1680:1686   */\n      dup1\n        /* \"#utility.yul\":1729:1731   */\n      0x40\n        /* \"#utility.yul\":1717:1726   */\n      dup4\n        /* \"#utility.yul\":1708:1715   */\n      dup6\n        /* \"#utility.yul\":1704:1727   */\n      sub\n        /* \"#utility.yul\":1700:1732   */\n      slt\n        /* \"#utility.yul\":1697:1816   */\n      iszero\n      tag_176\n      jumpi\n        /* \"#utility.yul\":1735:1814   */\n      tag_177\n      tag_170\n      jump\t// in\n    tag_177:\n        /* \"#utility.yul\":1697:1816   */\n    tag_176:\n        /* \"#utility.yul\":1883:1884   */\n      0x00\n        /* \"#utility.yul\":1872:1881   */\n      dup4\n        /* \"#utility.yul\":1868:1885   */\n      add\n        /* \"#utility.yul\":1855:1886   */\n      calldataload\n        /* \"#utility.yul\":1913:1931   */\n      0xffffffffffffffff\n        /* \"#utility.yul\":1905:1911   */\n      dup2\n        /* \"#utility.yul\":1902:1932   */\n      gt\n        /* \"#utility.yul\":1899:2016   */\n      iszero\n      tag_178\n      jumpi\n        /* \"#utility.yul\":1935:2014   */\n      tag_179\n      tag_173\n      jump\t// in\n    tag_179:\n        /* \"#utility.yul\":1899:2016   */\n    tag_178:\n        /* \"#utility.yul\":2040:2103   */\n      tag_180\n        /* \"#utility.yul\":2095:2102   */\n      dup6\n        /* \"#utility.yul\":2086:2092   */\n      dup3\n        /* \"#utility.yul\":2075:2084   */\n      dup7\n        /* \"#utility.yul\":2071:2093   */\n      add\n        /* \"#utility.yul\":2040:2103   */\n      tag_157\n      jump\t// in\n    tag_180:\n        /* \"#utility.yul\":2030:2103   */\n      swap3\n      pop\n        /* \"#utility.yul\":1826:2113   */\n      pop\n        /* \"#utility.yul\":2180:2182   */\n      0x20\n        /* \"#utility.yul\":2169:2178   */\n      dup4\n        /* \"#utility.yul\":2165:2183   */\n      add\n        /* \"#utility.yul\":2152:2184   */\n      calldataload\n        /* \"#utility.yul\":2211:2229   */\n      0xffffffffffffffff\n        /* \"#utility.yul\":2203:2209   */\n      dup2\n        /* \"#utility.yul\":2200:2230   */\n      gt\n        /* \"#utility.yul\":2197:2314   */\n      iszero\n      tag_181\n      jumpi\n        /* \"#utility.yul\":2233:2312   */\n      tag_182\n      tag_173\n      jump\t// in\n    tag_182:\n        /* \"#utility.yul\":2197:2314   */\n    tag_181:\n        /* \"#utility.yul\":2338:2401   */\n      tag_183\n        /* \"#utility.yul\":2393:2400   */\n      dup6\n        /* \"#utility.yul\":2384:2390   */\n      dup3\n        /* \"#utility.yul\":2373:2382   */\n      dup7\n        /* \"#utility.yul\":2369:2391   */\n      add\n        /* \"#utility.yul\":2338:2401   */\n      tag_157\n      jump\t// in\n    tag_183:\n        /* \"#utility.yul\":2328:2401   */\n      swap2\n      pop\n        /* \"#utility.yul\":2123:2411   */\n      pop\n        /* \"#utility.yul\":1584:2418   */\n      swap3\n      pop\n      swap3\n      swap1\n      pop\n      jump\t// out\n        /* \"#utility.yul\":2424:2753   */\n    tag_22:\n        /* \"#utility.yul\":2483:2489   */\n      0x00\n        /* \"#utility.yul\":2532:2534   */\n      0x20\n        /* \"#utility.yul\":2520:2529   */\n      dup3\n        /* \"#utility.yul\":2511:2518   */\n      dup5\n        /* \"#utility.yul\":2507:2530   */\n      sub\n        /* \"#utility.yul\":2503:2535   */\n      slt\n        /* \"#utility.yul\":2500:2619   */\n      iszero\n      tag_185\n      jumpi\n        /* \"#utility.yul\":2538:2617   */\n      tag_186\n      tag_170\n      jump\t// in\n    tag_186:\n        /* \"#utility.yul\":2500:2619   */\n    tag_185:\n        /* \"#utility.yul\":2658:2659   */\n      0x00\n        /* \"#utility.yul\":2683:2736   */\n      tag_187\n        /* \"#utility.yul\":2728:2735   */\n      dup5\n        /* \"#utility.yul\":2719:2725   */\n      dup3\n        /* \"#utility.yul\":2708:2717   */\n      dup6\n        /* \"#utility.yul\":2704:2726   */\n      add\n        /* \"#utility.yul\":2683:2736   */\n      tag_163\n      jump\t// in\n    tag_187:\n        /* \"#utility.yul\":2673:2736   */\n      swap2\n      pop\n        /* \"#utility.yul\":2629:2746   */\n      pop\n        /* \"#utility.yul\":2424:2753   */\n      swap3\n      swap2\n      pop\n      pop\n      jump\t// out\n        /* \"#utility.yul\":2759:3227   */\n    tag_10:\n        /* \"#utility.yul\":2824:2830   */\n      0x00\n        /* \"#utility.yul\":2832:2838   */\n      dup1\n        /* \"#utility.yul\":2881:2883   */\n      0x40\n        /* \"#utility.yul\":2869:2878   */\n      dup4\n        /* \"#utility.yul\":2860:2867   */\n      dup6\n        /* \"#utility.yul\":2856:2879   */\n      sub\n        /* \"#utility.yul\":2852:2884   */\n      slt\n        /* \"#utility.yul\":2849:2968   */\n      iszero\n      tag_189\n      jumpi\n        /* \"#utility.yul\":2887:2966   */\n      tag_190\n      tag_170\n      jump\t// in\n    tag_190:\n        /* \"#utility.yul\":2849:2968   */\n    tag_189:\n        /* \"#utility.yul\":3007:3008   */\n      0x00\n        /* \"#utility.yul\":3032:3085   */\n      tag_191\n        /* \"#utility.yul\":3077:3084   */\n      dup6\n        /* \"#utility.yul\":3068:3074   */\n      dup3\n        /* \"#utility.yul\":3057:3066   */\n      dup7\n        /* \"#utility.yul\":3053:3075   */\n      add\n        /* \"#utility.yul\":3032:3085   */\n      tag_163\n      jump\t// in\n    tag_191:\n        /* \"#utility.yul\":3022:3085   */\n      swap3\n      pop\n        /* \"#utility.yul\":2978:3095   */\n      pop\n        /* \"#utility.yul\":3134:3136   */\n      0x20\n        /* \"#utility.yul\":3160:3210   */\n      tag_192\n        /* \"#utility.yul\":3202:3209   */\n      dup6\n        /* \"#utility.yul\":3193:3199   */\n      dup3\n        /* \"#utility.yul\":3182:3191   */\n      dup7\n        /* \"#utility.yul\":3178:3200   */\n      add\n        /* \"#utility.yul\":3160:3210   */\n      tag_153\n      jump\t// in\n    tag_192:\n        /* \"#utility.yul\":3150:3210   */\n      swap2\n      pop\n        /* \"#utility.yul\":3105:3220   */\n      pop\n        /* \"#utility.yul\":2759:3227   */\n      swap3\n      pop\n      swap3\n      swap1\n      pop\n      jump\t// out\n        /* \"#utility.yul\":3233:3341   */\n    tag_193:\n        /* \"#utility.yul\":3310:3334   */\n      tag_195\n        /* \"#utility.yul\":3328:3333   */\n      dup2\n        /* \"#utility.yul\":3310:3334   */\n      tag_196\n      jump\t// in\n    tag_195:\n        /* \"#utility.yul\":3305:3308   */\n      dup3\n        /* \"#utility.yul\":3298:3335   */\n      mstore\n        /* \"#utility.yul\":3233:3341   */\n      pop\n      pop\n      jump\t// out\n        /* \"#utility.yul\":3347:3446   */\n    tag_197:\n        /* \"#utility.yul\":3418:3439   */\n      tag_199\n        /* \"#utility.yul\":3433:3438   */\n      dup2\n        /* \"#utility.yul\":3418:3439   */\n      tag_200\n      jump\t// in\n    tag_199:\n        /* \"#utility.yul\":3413:3416   */\n      dup3\n        /* \"#utility.yul\":3406:3440   */\n      mstore\n        /* \"#utility.yul\":3347:3446   */\n      pop\n      pop\n      jump\t// out\n        /* \"#utility.yul\":3452:3561   */\n    tag_201:\n        /* \"#utility.yul\":3533:3554   */\n      tag_203\n        /* \"#utility.yul\":3548:3553   */\n      dup2\n        /* \"#utility.yul\":3533:3554   */\n      tag_200\n      jump\t// in\n    tag_203:\n        /* \"#utility.yul\":3528:3531   */\n      dup3\n        /* \"#utility.yul\":3521:3555   */\n      mstore\n        /* \"#utility.yul\":3452:3561   */\n      pop\n      pop\n      jump\t// out\n        /* \"#utility.yul\":3567:3706   */\n    tag_204:\n        /* \"#utility.yul\":3653:3699   */\n      tag_206\n        /* \"#utility.yul\":3693:3698   */\n      dup2\n        /* \"#utility.yul\":3653:3699   */\n      tag_207\n      jump\t// in\n    tag_206:\n        /* \"#utility.yul\":3648:3651   */\n      dup3\n        /* \"#utility.yul\":3641:3700   */\n      mstore\n        /* \"#utility.yul\":3567:3706   */\n      pop\n      pop\n      jump\t// out\n        /* \"#utility.yul\":3712:4056   */\n    tag_208:\n        /* \"#utility.yul\":3790:3793   */\n      0x00\n        /* \"#utility.yul\":3818:3857   */\n      tag_210\n        /* \"#utility.yul\":3851:3856   */\n      dup3\n        /* \"#utility.yul\":3818:3857   */\n      tag_211\n      jump\t// in\n    tag_210:\n        /* \"#utility.yul\":3873:3934   */\n      tag_212\n        /* \"#utility.yul\":3927:3933   */\n      dup2\n        /* \"#utility.yul\":3922:3925   */\n      dup6\n        /* \"#utility.yul\":3873:3934   */\n      tag_213\n      jump\t// in\n    tag_212:\n        /* \"#utility.yul\":3866:3934   */\n      swap4\n      pop\n        /* \"#utility.yul\":3943:3995   */\n      tag_214\n        /* \"#utility.yul\":3988:3994   */\n      dup2\n        /* \"#utility.yul\":3983:3986   */\n      dup6\n        /* \"#utility.yul\":3976:3980   */\n      0x20\n        /* \"#utility.yul\":3969:3974   */\n      dup7\n        /* \"#utility.yul\":3965:3981   */\n      add\n        /* \"#utility.yul\":3943:3995   */\n      tag_215\n      jump\t// in\n    tag_214:\n        /* \"#utility.yul\":4020:4049   */\n      tag_216\n        /* \"#utility.yul\":4042:4048   */\n      dup2\n        /* \"#utility.yul\":4020:4049   */\n      tag_217\n      jump\t// in\n    tag_216:\n        /* \"#utility.yul\":4015:4018   */\n      dup5\n        /* \"#utility.yul\":4011:4050   */\n      add\n        /* \"#utility.yul\":4004:4050   */\n      swap2\n      pop\n        /* \"#utility.yul\":3794:4056   */\n      pop\n        /* \"#utility.yul\":3712:4056   */\n      swap3\n      swap2\n      pop\n      pop\n      jump\t// out\n        /* \"#utility.yul\":4062:4439   */\n    tag_218:\n        /* \"#utility.yul\":4168:4171   */\n      0x00\n        /* \"#utility.yul\":4196:4235   */\n      tag_220\n        /* \"#utility.yul\":4229:4234   */\n      dup3\n        /* \"#utility.yul\":4196:4235   */\n      tag_211\n      jump\t// in\n    tag_220:\n        /* \"#utility.yul\":4251:4340   */\n      tag_221\n        /* \"#utility.yul\":4333:4339   */\n      dup2\n        /* \"#utility.yul\":4328:4331   */\n      dup6\n        /* \"#utility.yul\":4251:4340   */\n      tag_222\n      jump\t// in\n    tag_221:\n        /* \"#utility.yul\":4244:4340   */\n      swap4\n      pop\n        /* \"#utility.yul\":4349:4401   */\n      tag_223\n        /* \"#utility.yul\":4394:4400   */\n      dup2\n        /* \"#utility.yul\":4389:4392   */\n      dup6\n        /* \"#utility.yul\":4382:4386   */\n      0x20\n        /* \"#utility.yul\":4375:4380   */\n      dup7\n        /* \"#utility.yul\":4371:4387   */\n      add\n        /* \"#utility.yul\":4349:4401   */\n      tag_215\n      jump\t// in\n    tag_223:\n        /* \"#utility.yul\":4426:4432   */\n      dup1\n        /* \"#utility.yul\":4421:4424   */\n      dup5\n        /* \"#utility.yul\":4417:4433   */\n      add\n        /* \"#utility.yul\":4410:4433   */\n      swap2\n      pop\n        /* \"#utility.yul\":4172:4439   */\n      pop\n        /* \"#utility.yul\":4062:4439   */\n      swap3\n      swap2\n      pop\n      pop\n      jump\t// out\n        /* \"#utility.yul\":4445:4811   */\n    tag_224:\n        /* \"#utility.yul\":4587:4590   */\n      0x00\n        /* \"#utility.yul\":4608:4675   */\n      tag_226\n        /* \"#utility.yul\":4672:4674   */\n      0x1b\n        /* \"#utility.yul\":4667:4670   */\n      dup4\n        /* \"#utility.yul\":4608:4675   */\n      tag_227\n      jump\t// in\n    tag_226:\n        /* \"#utility.yul\":4601:4675   */\n      swap2\n      pop\n        /* \"#utility.yul\":4684:4777   */\n      tag_228\n        /* \"#utility.yul\":4773:4776   */\n      dup3\n        /* \"#utility.yul\":4684:4777   */\n      tag_229\n      jump\t// in\n    tag_228:\n        /* \"#utility.yul\":4802:4804   */\n      0x20\n        /* \"#utility.yul\":4797:4800   */\n      dup3\n        /* \"#utility.yul\":4793:4805   */\n      add\n        /* \"#utility.yul\":4786:4805   */\n      swap1\n      pop\n        /* \"#utility.yul\":4445:4811   */\n      swap2\n      swap1\n      pop\n      jump\t// out\n        /* \"#utility.yul\":4817:5183   */\n    tag_230:\n        /* \"#utility.yul\":4959:4962   */\n      0x00\n        /* \"#utility.yul\":4980:5047   */\n      tag_232\n        /* \"#utility.yul\":5044:5046   */\n      0x1f\n        /* \"#utility.yul\":5039:5042   */\n      dup4\n        /* \"#utility.yul\":4980:5047   */\n      tag_227\n      jump\t// in\n    tag_232:\n        /* \"#utility.yul\":4973:5047   */\n      swap2\n      pop\n        /* \"#utility.yul\":5056:5149   */\n      tag_233\n        /* \"#utility.yul\":5145:5148   */\n      dup3\n        /* \"#utility.yul\":5056:5149   */\n      tag_234\n      jump\t// in\n    tag_233:\n        /* \"#utility.yul\":5174:5176   */\n      0x20\n        /* \"#utility.yul\":5169:5172   */\n      dup3\n        /* \"#utility.yul\":5165:5177   */\n      add\n        /* \"#utility.yul\":5158:5177   */\n      swap1\n      pop\n        /* \"#utility.yul\":4817:5183   */\n      swap2\n      swap1\n      pop\n      jump\t// out\n        /* \"#utility.yul\":5189:5555   */\n    tag_235:\n        /* \"#utility.yul\":5331:5334   */\n      0x00\n        /* \"#utility.yul\":5352:5419   */\n      tag_237\n        /* \"#utility.yul\":5416:5418   */\n      0x2f\n        /* \"#utility.yul\":5411:5414   */\n      dup4\n        /* \"#utility.yul\":5352:5419   */\n      tag_227\n      jump\t// in\n    tag_237:\n        /* \"#utility.yul\":5345:5419   */\n      swap2\n      pop\n        /* \"#utility.yul\":5428:5521   */\n      tag_238\n        /* \"#utility.yul\":5517:5520   */\n      dup3\n        /* \"#utility.yul\":5428:5521   */\n      tag_239\n      jump\t// in\n    tag_238:\n        /* \"#utility.yul\":5546:5548   */\n      0x40\n        /* \"#utility.yul\":5541:5544   */\n      dup3\n        /* \"#utility.yul\":5537:5549   */\n      add\n        /* \"#utility.yul\":5530:5549   */\n      swap1\n      pop\n        /* \"#utility.yul\":5189:5555   */\n      swap2\n      swap1\n      pop\n      jump\t// out\n        /* \"#utility.yul\":5561:5927   */\n    tag_240:\n        /* \"#utility.yul\":5703:5706   */\n      0x00\n        /* \"#utility.yul\":5724:5791   */\n      tag_242\n        /* \"#utility.yul\":5788:5790   */\n      0x23\n        /* \"#utility.yul\":5783:5786   */\n      dup4\n        /* \"#utility.yul\":5724:5791   */\n      tag_227\n      jump\t// in\n    tag_242:\n        /* \"#utility.yul\":5717:5791   */\n      swap2\n      pop\n        /* \"#utility.yul\":5800:5893   */\n      tag_243\n        /* \"#utility.yul\":5889:5892   */\n      dup3\n        /* \"#utility.yul\":5800:5893   */\n      tag_244\n      jump\t// in\n    tag_243:\n        /* \"#utility.yul\":5918:5920   */\n      0x40\n        /* \"#utility.yul\":5913:5916   */\n      dup3\n        /* \"#utility.yul\":5909:5921   */\n      add\n        /* \"#utility.yul\":5902:5921   */\n      swap1\n      pop\n        /* \"#utility.yul\":5561:5927   */\n      swap2\n      swap1\n      pop\n      jump\t// out\n        /* \"#utility.yul\":5933:6299   */\n    tag_245:\n        /* \"#utility.yul\":6075:6078   */\n      0x00\n        /* \"#utility.yul\":6096:6163   */\n      tag_247\n        /* \"#utility.yul\":6160:6162   */\n      0x1e\n        /* \"#utility.yul\":6155:6158   */\n      dup4\n        /* \"#utility.yul\":6096:6163   */\n      tag_227\n      jump\t// in\n    tag_247:\n        /* \"#utility.yul\":6089:6163   */\n      swap2\n      pop\n        /* \"#utility.yul\":6172:6265   */\n      tag_248\n        /* \"#utility.yul\":6261:6264   */\n      dup3\n        /* \"#utility.yul\":6172:6265   */\n      tag_249\n      jump\t// in\n    tag_248:\n        /* \"#utility.yul\":6290:6292   */\n      0x20\n        /* \"#utility.yul\":6285:6288   */\n      dup3\n        /* \"#utility.yul\":6281:6293   */\n      add\n        /* \"#utility.yul\":6274:6293   */\n      swap1\n      pop\n        /* \"#utility.yul\":5933:6299   */\n      swap2\n      swap1\n      pop\n      jump\t// out\n        /* \"#utility.yul\":6357:7728   */\n    tag_250:\n        /* \"#utility.yul\":6464:6467   */\n      0x00\n        /* \"#utility.yul\":6500:6504   */\n      0xc0\n        /* \"#utility.yul\":6495:6498   */\n      dup4\n        /* \"#utility.yul\":6491:6505   */\n      add\n        /* \"#utility.yul\":6588:6592   */\n      0x00\n        /* \"#utility.yul\":6581:6586   */\n      dup4\n        /* \"#utility.yul\":6577:6593   */\n      add\n        /* \"#utility.yul\":6571:6594   */\n      mload\n        /* \"#utility.yul\":6607:6679   */\n      tag_252\n        /* \"#utility.yul\":6673:6677   */\n      0x00\n        /* \"#utility.yul\":6668:6671   */\n      dup7\n        /* \"#utility.yul\":6664:6678   */\n      add\n        /* \"#utility.yul\":6650:6662   */\n      dup3\n        /* \"#utility.yul\":6607:6679   */\n      tag_204\n      jump\t// in\n    tag_252:\n        /* \"#utility.yul\":6515:6689   */\n      pop\n        /* \"#utility.yul\":6771:6775   */\n      0x20\n        /* \"#utility.yul\":6764:6769   */\n      dup4\n        /* \"#utility.yul\":6760:6776   */\n      add\n        /* \"#utility.yul\":6754:6777   */\n      mload\n        /* \"#utility.yul\":6824:6827   */\n      dup5\n        /* \"#utility.yul\":6818:6822   */\n      dup3\n        /* \"#utility.yul\":6814:6828   */\n      sub\n        /* \"#utility.yul\":6807:6811   */\n      0x20\n        /* \"#utility.yul\":6802:6805   */\n      dup7\n        /* \"#utility.yul\":6798:6812   */\n      add\n        /* \"#utility.yul\":6791:6829   */\n      mstore\n        /* \"#utility.yul\":6850:6923   */\n      tag_253\n        /* \"#utility.yul\":6918:6922   */\n      dup3\n        /* \"#utility.yul\":6904:6916   */\n      dup3\n        /* \"#utility.yul\":6850:6923   */\n      tag_208\n      jump\t// in\n    tag_253:\n        /* \"#utility.yul\":6842:6923   */\n      swap2\n      pop\n        /* \"#utility.yul\":6699:6934   */\n      pop\n        /* \"#utility.yul\":7016:7020   */\n      0x40\n        /* \"#utility.yul\":7009:7014   */\n      dup4\n        /* \"#utility.yul\":7005:7021   */\n      add\n        /* \"#utility.yul\":6999:7022   */\n      mload\n        /* \"#utility.yul\":7069:7072   */\n      dup5\n        /* \"#utility.yul\":7063:7067   */\n      dup3\n        /* \"#utility.yul\":7059:7073   */\n      sub\n        /* \"#utility.yul\":7052:7056   */\n      0x40\n        /* \"#utility.yul\":7047:7050   */\n      dup7\n        /* \"#utility.yul\":7043:7057   */\n      add\n        /* \"#utility.yul\":7036:7074   */\n      mstore\n        /* \"#utility.yul\":7095:7168   */\n      tag_254\n        /* \"#utility.yul\":7163:7167   */\n      dup3\n        /* \"#utility.yul\":7149:7161   */\n      dup3\n        /* \"#utility.yul\":7095:7168   */\n      tag_208\n      jump\t// in\n    tag_254:\n        /* \"#utility.yul\":7087:7168   */\n      swap2\n      pop\n        /* \"#utility.yul\":6944:7179   */\n      pop\n        /* \"#utility.yul\":7267:7271   */\n      0x60\n        /* \"#utility.yul\":7260:7265   */\n      dup4\n        /* \"#utility.yul\":7256:7272   */\n      add\n        /* \"#utility.yul\":7250:7273   */\n      mload\n        /* \"#utility.yul\":7286:7343   */\n      tag_255\n        /* \"#utility.yul\":7337:7341   */\n      0x60\n        /* \"#utility.yul\":7332:7335   */\n      dup7\n        /* \"#utility.yul\":7328:7342   */\n      add\n        /* \"#utility.yul\":7314:7326   */\n      dup3\n        /* \"#utility.yul\":7286:7343   */\n      tag_197\n      jump\t// in\n    tag_255:\n        /* \"#utility.yul\":7189:7353   */\n      pop\n        /* \"#utility.yul\":7437:7441   */\n      0x80\n        /* \"#utility.yul\":7430:7435   */\n      dup4\n        /* \"#utility.yul\":7426:7442   */\n      add\n        /* \"#utility.yul\":7420:7443   */\n      mload\n        /* \"#utility.yul\":7456:7513   */\n      tag_256\n        /* \"#utility.yul\":7507:7511   */\n      0x80\n        /* \"#utility.yul\":7502:7505   */\n      dup7\n        /* \"#utility.yul\":7498:7512   */\n      add\n        /* \"#utility.yul\":7484:7496   */\n      dup3\n        /* \"#utility.yul\":7456:7513   */\n      tag_197\n      jump\t// in\n    tag_256:\n        /* \"#utility.yul\":7363:7523   */\n      pop\n        /* \"#utility.yul\":7609:7613   */\n      0xa0\n        /* \"#utility.yul\":7602:7607   */\n      dup4\n        /* \"#utility.yul\":7598:7614   */\n      add\n        /* \"#utility.yul\":7592:7615   */\n      mload\n        /* \"#utility.yul\":7628:7691   */\n      tag_257\n        /* \"#utility.yul\":7685:7689   */\n      0xa0\n        /* \"#utility.yul\":7680:7683   */\n      dup7\n        /* \"#utility.yul\":7676:7690   */\n      add\n        /* \"#utility.yul\":7662:7674   */\n      dup3\n        /* \"#utility.yul\":7628:7691   */\n      tag_193\n      jump\t// in\n    tag_257:\n        /* \"#utility.yul\":7533:7701   */\n      pop\n        /* \"#utility.yul\":7718:7722   */\n      dup1\n        /* \"#utility.yul\":7711:7722   */\n      swap2\n      pop\n        /* \"#utility.yul\":6469:7728   */\n      pop\n        /* \"#utility.yul\":6357:7728   */\n      swap3\n      swap2\n      pop\n      pop\n      jump\t// out\n        /* \"#utility.yul\":7734:7852   */\n    tag_258:\n        /* \"#utility.yul\":7821:7845   */\n      tag_260\n        /* \"#utility.yul\":7839:7844   */\n      dup2\n        /* \"#utility.yul\":7821:7845   */\n      tag_261\n      jump\t// in\n    tag_260:\n        /* \"#utility.yul\":7816:7819   */\n      dup3\n        /* \"#utility.yul\":7809:7846   */\n      mstore\n        /* \"#utility.yul\":7734:7852   */\n      pop\n      pop\n      jump\t// out\n        /* \"#utility.yul\":7858:8133   */\n    tag_127:\n        /* \"#utility.yul\":7990:7993   */\n      0x00\n        /* \"#utility.yul\":8012:8107   */\n      tag_263\n        /* \"#utility.yul\":8103:8106   */\n      dup3\n        /* \"#utility.yul\":8094:8100   */\n      dup5\n        /* \"#utility.yul\":8012:8107   */\n      tag_218\n      jump\t// in\n    tag_263:\n        /* \"#utility.yul\":8005:8107   */\n      swap2\n      pop\n        /* \"#utility.yul\":8124:8127   */\n      dup2\n        /* \"#utility.yul\":8117:8127   */\n      swap1\n      pop\n        /* \"#utility.yul\":7858:8133   */\n      swap3\n      swap2\n      pop\n      pop\n      jump\t// out\n        /* \"#utility.yul\":8139:8349   */\n    tag_31:\n        /* \"#utility.yul\":8226:8230   */\n      0x00\n        /* \"#utility.yul\":8264:8266   */\n      0x20\n        /* \"#utility.yul\":8253:8262   */\n      dup3\n        /* \"#utility.yul\":8249:8267   */\n      add\n        /* \"#utility.yul\":8241:8267   */\n      swap1\n      pop\n        /* \"#utility.yul\":8277:8342   */\n      tag_265\n        /* \"#utility.yul\":8339:8340   */\n      0x00\n        /* \"#utility.yul\":8328:8337   */\n      dup4\n        /* \"#utility.yul\":8324:8341   */\n      add\n        /* \"#utility.yul\":8315:8321   */\n      dup5\n        /* \"#utility.yul\":8277:8342   */\n      tag_201\n      jump\t// in\n    tag_265:\n        /* \"#utility.yul\":8139:8349   */\n      swap3\n      swap2\n      pop\n      pop\n      jump\t// out\n        /* \"#utility.yul\":8355:8774   */\n    tag_71:\n        /* \"#utility.yul\":8521:8525   */\n      0x00\n        /* \"#utility.yul\":8559:8561   */\n      0x20\n        /* \"#utility.yul\":8548:8557   */\n      dup3\n        /* \"#utility.yul\":8544:8562   */\n      add\n        /* \"#utility.yul\":8536:8562   */\n      swap1\n      pop\n        /* \"#utility.yul\":8608:8617   */\n      dup2\n        /* \"#utility.yul\":8602:8606   */\n      dup2\n        /* \"#utility.yul\":8598:8618   */\n      sub\n        /* \"#utility.yul\":8594:8595   */\n      0x00\n        /* \"#utility.yul\":8583:8592   */\n      dup4\n        /* \"#utility.yul\":8579:8596   */\n      add\n        /* \"#utility.yul\":8572:8619   */\n      mstore\n        /* \"#utility.yul\":8636:8767   */\n      tag_267\n        /* \"#utility.yul\":8762:8766   */\n      dup2\n        /* \"#utility.yul\":8636:8767   */\n      tag_224\n      jump\t// in\n    tag_267:\n        /* \"#utility.yul\":8628:8767   */\n      swap1\n      pop\n        /* \"#utility.yul\":8355:8774   */\n      swap2\n      swap1\n      pop\n      jump\t// out\n        /* \"#utility.yul\":8780:9199   */\n    tag_55:\n        /* \"#utility.yul\":8946:8950   */\n      0x00\n        /* \"#utility.yul\":8984:8986   */\n      0x20\n        /* \"#utility.yul\":8973:8982   */\n      dup3\n        /* \"#utility.yul\":8969:8987   */\n      add\n        /* \"#utility.yul\":8961:8987   */\n      swap1\n      pop\n        /* \"#utility.yul\":9033:9042   */\n      dup2\n        /* \"#utility.yul\":9027:9031   */\n      dup2\n        /* \"#utility.yul\":9023:9043   */\n      sub\n        /* \"#utility.yul\":9019:9020   */\n      0x00\n        /* \"#utility.yul\":9008:9017   */\n      dup4\n        /* \"#utility.yul\":9004:9021   */\n      add\n        /* \"#utility.yul\":8997:9044   */\n      mstore\n        /* \"#utility.yul\":9061:9192   */\n      tag_269\n        /* \"#utility.yul\":9187:9191   */\n      dup2\n        /* \"#utility.yul\":9061:9192   */\n      tag_230\n      jump\t// in\n    tag_269:\n        /* \"#utility.yul\":9053:9192   */\n      swap1\n      pop\n        /* \"#utility.yul\":8780:9199   */\n      swap2\n      swap1\n      pop\n      jump\t// out\n        /* \"#utility.yul\":9205:9624   */\n    tag_44:\n        /* \"#utility.yul\":9371:9375   */\n      0x00\n        /* \"#utility.yul\":9409:9411   */\n      0x20\n        /* \"#utility.yul\":9398:9407   */\n      dup3\n        /* \"#utility.yul\":9394:9412   */\n      add\n        /* \"#utility.yul\":9386:9412   */\n      swap1\n      pop\n        /* \"#utility.yul\":9458:9467   */\n      dup2\n        /* \"#utility.yul\":9452:9456   */\n      dup2\n        /* \"#utility.yul\":9448:9468   */\n      sub\n        /* \"#utility.yul\":9444:9445   */\n      0x00\n        /* \"#utility.yul\":9433:9442   */\n      dup4\n        /* \"#utility.yul\":9429:9446   */\n      add\n        /* \"#utility.yul\":9422:9469   */\n      mstore\n        /* \"#utility.yul\":9486:9617   */\n      tag_271\n        /* \"#utility.yul\":9612:9616   */\n      dup2\n        /* \"#utility.yul\":9486:9617   */\n      tag_235\n      jump\t// in\n    tag_271:\n        /* \"#utility.yul\":9478:9617   */\n      swap1\n      pop\n        /* \"#utility.yul\":9205:9624   */\n      swap2\n      swap1\n      pop\n      jump\t// out\n        /* \"#utility.yul\":9630:10049   */\n    tag_68:\n        /* \"#utility.yul\":9796:9800   */\n      0x00\n        /* \"#utility.yul\":9834:9836   */\n      0x20\n        /* \"#utility.yul\":9823:9832   */\n      dup3\n        /* \"#utility.yul\":9819:9837   */\n      add\n        /* \"#utility.yul\":9811:9837   */\n      swap1\n      pop\n        /* \"#utility.yul\":9883:9892   */\n      dup2\n        /* \"#utility.yul\":9877:9881   */\n      dup2\n        /* \"#utility.yul\":9873:9893   */\n      sub\n        /* \"#utility.yul\":9869:9870   */\n      0x00\n        /* \"#utility.yul\":9858:9867   */\n      dup4\n        /* \"#utility.yul\":9854:9871   */\n      add\n        /* \"#utility.yul\":9847:9894   */\n      mstore\n        /* \"#utility.yul\":9911:10042   */\n      tag_273\n        /* \"#utility.yul\":10037:10041   */\n      dup2\n        /* \"#utility.yul\":9911:10042   */\n      tag_240\n      jump\t// in\n    tag_273:\n        /* \"#utility.yul\":9903:10042   */\n      swap1\n      pop\n        /* \"#utility.yul\":9630:10049   */\n      swap2\n      swap1\n      pop\n      jump\t// out\n        /* \"#utility.yul\":10055:10474   */\n    tag_35:\n        /* \"#utility.yul\":10221:10225   */\n      0x00\n        /* \"#utility.yul\":10259:10261   */\n      0x20\n        /* \"#utility.yul\":10248:10257   */\n      dup3\n        /* \"#utility.yul\":10244:10262   */\n      add\n        /* \"#utility.yul\":10236:10262   */\n      swap1\n      pop\n        /* \"#utility.yul\":10308:10317   */\n      dup2\n        /* \"#utility.yul\":10302:10306   */\n      dup2\n        /* \"#utility.yul\":10298:10318   */\n      sub\n        /* \"#utility.yul\":10294:10295   */\n      0x00\n        /* \"#utility.yul\":10283:10292   */\n      dup4\n        /* \"#utility.yul\":10279:10296   */\n      add\n        /* \"#utility.yul\":10272:10319   */\n      mstore\n        /* \"#utility.yul\":10336:10467   */\n      tag_275\n        /* \"#utility.yul\":10462:10466   */\n      dup2\n        /* \"#utility.yul\":10336:10467   */\n      tag_245\n      jump\t// in\n    tag_275:\n        /* \"#utility.yul\":10328:10467   */\n      swap1\n      pop\n        /* \"#utility.yul\":10055:10474   */\n      swap2\n      swap1\n      pop\n      jump\t// out\n        /* \"#utility.yul\":10480:10829   */\n    tag_25:\n        /* \"#utility.yul\":10611:10615   */\n      0x00\n        /* \"#utility.yul\":10649:10651   */\n      0x20\n        /* \"#utility.yul\":10638:10647   */\n      dup3\n        /* \"#utility.yul\":10634:10652   */\n      add\n        /* \"#utility.yul\":10626:10652   */\n      swap1\n      pop\n        /* \"#utility.yul\":10698:10707   */\n      dup2\n        /* \"#utility.yul\":10692:10696   */\n      dup2\n        /* \"#utility.yul\":10688:10708   */\n      sub\n        /* \"#utility.yul\":10684:10685   */\n      0x00\n        /* \"#utility.yul\":10673:10682   */\n      dup4\n        /* \"#utility.yul\":10669:10686   */\n      add\n        /* \"#utility.yul\":10662:10709   */\n      mstore\n        /* \"#utility.yul\":10726:10822   */\n      tag_277\n        /* \"#utility.yul\":10817:10821   */\n      dup2\n        /* \"#utility.yul\":10808:10814   */\n      dup5\n        /* \"#utility.yul\":10726:10822   */\n      tag_250\n      jump\t// in\n    tag_277:\n        /* \"#utility.yul\":10718:10822   */\n      swap1\n      pop\n        /* \"#utility.yul\":10480:10829   */\n      swap3\n      swap2\n      pop\n      pop\n      jump\t// out\n        /* \"#utility.yul\":10835:11057   */\n    tag_19:\n        /* \"#utility.yul\":10928:10932   */\n      0x00\n        /* \"#utility.yul\":10966:10968   */\n      0x20\n        /* \"#utility.yul\":10955:10964   */\n      dup3\n        /* \"#utility.yul\":10951:10969   */\n      add\n        /* \"#utility.yul\":10943:10969   */\n      swap1\n      pop\n        /* \"#utility.yul\":10979:11050   */\n      tag_279\n        /* \"#utility.yul\":11047:11048   */\n      0x00\n        /* \"#utility.yul\":11036:11045   */\n      dup4\n        /* \"#utility.yul\":11032:11049   */\n      add\n        /* \"#utility.yul\":11023:11029   */\n      dup5\n        /* \"#utility.yul\":10979:11050   */\n      tag_258\n      jump\t// in\n    tag_279:\n        /* \"#utility.yul\":10835:11057   */\n      swap3\n      swap2\n      pop\n      pop\n      jump\t// out\n        /* \"#utility.yul\":11063:11192   */\n    tag_147:\n        /* \"#utility.yul\":11097:11103   */\n      0x00\n        /* \"#utility.yul\":11124:11144   */\n      tag_281\n      tag_282\n      jump\t// in\n    tag_281:\n        /* \"#utility.yul\":11114:11144   */\n      swap1\n      pop\n        /* \"#utility.yul\":11153:11186   */\n      tag_283\n        /* \"#utility.yul\":11181:11185   */\n      dup3\n        /* \"#utility.yul\":11173:11179   */\n      dup3\n        /* \"#utility.yul\":11153:11186   */\n      tag_284\n      jump\t// in\n    tag_283:\n        /* \"#utility.yul\":11063:11192   */\n      swap2\n      swap1\n      pop\n      jump\t// out\n        /* \"#utility.yul\":11198:11273   */\n    tag_282:\n        /* \"#utility.yul\":11231:11237   */\n      0x00\n        /* \"#utility.yul\":11264:11266   */\n      0x40\n        /* \"#utility.yul\":11258:11267   */\n      mload\n        /* \"#utility.yul\":11248:11267   */\n      swap1\n      pop\n        /* \"#utility.yul\":11198:11273   */\n      swap1\n      jump\t// out\n        /* \"#utility.yul\":11279:11587   */\n    tag_146:\n        /* \"#utility.yul\":11341:11345   */\n      0x00\n        /* \"#utility.yul\":11431:11449   */\n      0xffffffffffffffff\n        /* \"#utility.yul\":11423:11429   */\n      dup3\n        /* \"#utility.yul\":11420:11450   */\n      gt\n        /* \"#utility.yul\":11417:11473   */\n      iszero\n      tag_287\n      jumpi\n        /* \"#utility.yul\":11453:11471   */\n      tag_288\n      tag_289\n      jump\t// in\n    tag_288:\n        /* \"#utility.yul\":11417:11473   */\n    tag_287:\n        /* \"#utility.yul\":11491:11520   */\n      tag_290\n        /* \"#utility.yul\":11513:11519   */\n      dup3\n        /* \"#utility.yul\":11491:11520   */\n      tag_217\n      jump\t// in\n    tag_290:\n        /* \"#utility.yul\":11483:11520   */\n      swap1\n      pop\n        /* \"#utility.yul\":11575:11579   */\n      0x20\n        /* \"#utility.yul\":11569:11573   */\n      dup2\n        /* \"#utility.yul\":11565:11580   */\n      add\n        /* \"#utility.yul\":11557:11580   */\n      swap1\n      pop\n        /* \"#utility.yul\":11279:11587   */\n      swap2\n      swap1\n      pop\n      jump\t// out\n        /* \"#utility.yul\":11593:11692   */\n    tag_211:\n        /* \"#utility.yul\":11645:11651   */\n      0x00\n        /* \"#utility.yul\":11679:11684   */\n      dup2\n        /* \"#utility.yul\":11673:11685   */\n      mload\n        /* \"#utility.yul\":11663:11685   */\n      swap1\n      pop\n        /* \"#utility.yul\":11593:11692   */\n      swap2\n      swap1\n      pop\n      jump\t// out\n        /* \"#utility.yul\":11698:11857   */\n    tag_213:\n        /* \"#utility.yul\":11772:11783   */\n      0x00\n        /* \"#utility.yul\":11806:11812   */\n      dup3\n        /* \"#utility.yul\":11801:11804   */\n      dup3\n        /* \"#utility.yul\":11794:11813   */\n      mstore\n        /* \"#utility.yul\":11846:11850   */\n      0x20\n        /* \"#utility.yul\":11841:11844   */\n      dup3\n        /* \"#utility.yul\":11837:11851   */\n      add\n        /* \"#utility.yul\":11822:11851   */\n      swap1\n      pop\n        /* \"#utility.yul\":11698:11857   */\n      swap3\n      swap2\n      pop\n      pop\n      jump\t// out\n        /* \"#utility.yul\":11863:12032   */\n    tag_227:\n        /* \"#utility.yul\":11947:11958   */\n      0x00\n        /* \"#utility.yul\":11981:11987   */\n      dup3\n        /* \"#utility.yul\":11976:11979   */\n      dup3\n        /* \"#utility.yul\":11969:11988   */\n      mstore\n        /* \"#utility.yul\":12021:12025   */\n      0x20\n        /* \"#utility.yul\":12016:12019   */\n      dup3\n        /* \"#utility.yul\":12012:12026   */\n      add\n        /* \"#utility.yul\":11997:12026   */\n      swap1\n      pop\n        /* \"#utility.yul\":11863:12032   */\n      swap3\n      swap2\n      pop\n      pop\n      jump\t// out\n        /* \"#utility.yul\":12038:12186   */\n    tag_222:\n        /* \"#utility.yul\":12140:12151   */\n      0x00\n        /* \"#utility.yul\":12177:12180   */\n      dup2\n        /* \"#utility.yul\":12162:12180   */\n      swap1\n      pop\n        /* \"#utility.yul\":12038:12186   */\n      swap3\n      swap2\n      pop\n      pop\n      jump\t// out\n        /* \"#utility.yul\":12192:12288   */\n    tag_196:\n        /* \"#utility.yul\":12229:12236   */\n      0x00\n        /* \"#utility.yul\":12258:12282   */\n      tag_296\n        /* \"#utility.yul\":12276:12281   */\n      dup3\n        /* \"#utility.yul\":12258:12282   */\n      tag_297\n      jump\t// in\n    tag_296:\n        /* \"#utility.yul\":12247:12282   */\n      swap1\n      pop\n        /* \"#utility.yul\":12192:12288   */\n      swap2\n      swap1\n      pop\n      jump\t// out\n        /* \"#utility.yul\":12294:12384   */\n    tag_200:\n        /* \"#utility.yul\":12328:12335   */\n      0x00\n        /* \"#utility.yul\":12371:12376   */\n      dup2\n        /* \"#utility.yul\":12364:12377   */\n      iszero\n        /* \"#utility.yul\":12357:12378   */\n      iszero\n        /* \"#utility.yul\":12346:12378   */\n      swap1\n      pop\n        /* \"#utility.yul\":12294:12384   */\n      swap2\n      swap1\n      pop\n      jump\t// out\n        /* \"#utility.yul\":12390:12523   */\n    tag_299:\n        /* \"#utility.yul\":12438:12445   */\n      0x00\n        /* \"#utility.yul\":12467:12472   */\n      dup2\n        /* \"#utility.yul\":12456:12472   */\n      swap1\n      pop\n        /* \"#utility.yul\":12473:12517   */\n      tag_301\n        /* \"#utility.yul\":12511:12516   */\n      dup3\n        /* \"#utility.yul\":12473:12517   */\n      tag_302\n      jump\t// in\n    tag_301:\n        /* \"#utility.yul\":12390:12523   */\n      swap2\n      swap1\n      pop\n      jump\t// out\n        /* \"#utility.yul\":12529:12655   */\n    tag_297:\n        /* \"#utility.yul\":12566:12573   */\n      0x00\n        /* \"#utility.yul\":12606:12648   */\n      0xffffffffffffffffffffffffffffffffffffffff\n        /* \"#utility.yul\":12599:12604   */\n      dup3\n        /* \"#utility.yul\":12595:12649   */\n      and\n        /* \"#utility.yul\":12584:12649   */\n      swap1\n      pop\n        /* \"#utility.yul\":12529:12655   */\n      swap2\n      swap1\n      pop\n      jump\t// out\n        /* \"#utility.yul\":12661:12738   */\n    tag_261:\n        /* \"#utility.yul\":12698:12705   */\n      0x00\n        /* \"#utility.yul\":12727:12732   */\n      dup2\n        /* \"#utility.yul\":12716:12732   */\n      swap1\n      pop\n        /* \"#utility.yul\":12661:12738   */\n      swap2\n      swap1\n      pop\n      jump\t// out\n        /* \"#utility.yul\":12744:12877   */\n    tag_207:\n        /* \"#utility.yul\":12803:12812   */\n      0x00\n        /* \"#utility.yul\":12836:12871   */\n      tag_306\n        /* \"#utility.yul\":12865:12870   */\n      dup3\n        /* \"#utility.yul\":12836:12871   */\n      tag_299\n      jump\t// in\n    tag_306:\n        /* \"#utility.yul\":12823:12871   */\n      swap1\n      pop\n        /* \"#utility.yul\":12744:12877   */\n      swap2\n      swap1\n      pop\n      jump\t// out\n        /* \"#utility.yul\":12883:13037   */\n    tag_152:\n        /* \"#utility.yul\":12967:12973   */\n      dup3\n        /* \"#utility.yul\":12962:12965   */\n      dup2\n        /* \"#utility.yul\":12957:12960   */\n      dup4\n        /* \"#utility.yul\":12944:12974   */\n      calldatacopy\n        /* \"#utility.yul\":13029:13030   */\n      0x00\n        /* \"#utility.yul\":13020:13026   */\n      dup4\n        /* \"#utility.yul\":13015:13018   */\n      dup4\n        /* \"#utility.yul\":13011:13027   */\n      add\n        /* \"#utility.yul\":13004:13031   */\n      mstore\n        /* \"#utility.yul\":12883:13037   */\n      pop\n      pop\n      pop\n      jump\t// out\n        /* \"#utility.yul\":13043:13350   */\n    tag_215:\n        /* \"#utility.yul\":13111:13112   */\n      0x00\n        /* \"#utility.yul\":13121:13234   */\n    tag_309:\n        /* \"#utility.yul\":13135:13141   */\n      dup4\n        /* \"#utility.yul\":13132:13133   */\n      dup2\n        /* \"#utility.yul\":13129:13142   */\n      lt\n        /* \"#utility.yul\":13121:13234   */\n      iszero\n      tag_311\n      jumpi\n        /* \"#utility.yul\":13220:13221   */\n      dup1\n        /* \"#utility.yul\":13215:13218   */\n      dup3\n        /* \"#utility.yul\":13211:13222   */\n      add\n        /* \"#utility.yul\":13205:13223   */\n      mload\n        /* \"#utility.yul\":13201:13202   */\n      dup2\n        /* \"#utility.yul\":13196:13199   */\n      dup5\n        /* \"#utility.yul\":13192:13203   */\n      add\n        /* \"#utility.yul\":13185:13224   */\n      mstore\n        /* \"#utility.yul\":13157:13159   */\n      0x20\n        /* \"#utility.yul\":13154:13155   */\n      dup2\n        /* \"#utility.yul\":13150:13160   */\n      add\n        /* \"#utility.yul\":13145:13160   */\n      swap1\n      pop\n        /* \"#utility.yul\":13121:13234   */\n      jump(tag_309)\n    tag_311:\n        /* \"#utility.yul\":13252:13258   */\n      dup4\n        /* \"#utility.yul\":13249:13250   */\n      dup2\n        /* \"#utility.yul\":13246:13259   */\n      gt\n        /* \"#utility.yul\":13243:13344   */\n      iszero\n      tag_312\n      jumpi\n        /* \"#utility.yul\":13332:13333   */\n      0x00\n        /* \"#utility.yul\":13323:13329   */\n      dup5\n        /* \"#utility.yul\":13318:13321   */\n      dup5\n        /* \"#utility.yul\":13314:13330   */\n      add\n        /* \"#utility.yul\":13307:13334   */\n      mstore\n        /* \"#utility.yul\":13243:13344   */\n    tag_312:\n        /* \"#utility.yul\":13092:13350   */\n      pop\n        /* \"#utility.yul\":13043:13350   */\n      pop\n      pop\n      pop\n      jump\t// out\n        /* \"#utility.yul\":13356:13676   */\n    tag_77:\n        /* \"#utility.yul\":13400:13406   */\n      0x00\n        /* \"#utility.yul\":13437:13438   */\n      0x02\n        /* \"#utility.yul\":13431:13435   */\n      dup3\n        /* \"#utility.yul\":13427:13439   */\n      div\n        /* \"#utility.yul\":13417:13439   */\n      swap1\n      pop\n        /* \"#utility.yul\":13484:13485   */\n      0x01\n        /* \"#utility.yul\":13478:13482   */\n      dup3\n        /* \"#utility.yul\":13474:13486   */\n      and\n        /* \"#utility.yul\":13505:13523   */\n      dup1\n        /* \"#utility.yul\":13495:13576   */\n      tag_314\n      jumpi\n        /* \"#utility.yul\":13561:13565   */\n      0x7f\n        /* \"#utility.yul\":13553:13559   */\n      dup3\n        /* \"#utility.yul\":13549:13566   */\n      and\n        /* \"#utility.yul\":13539:13566   */\n      swap2\n      pop\n        /* \"#utility.yul\":13495:13576   */\n    tag_314:\n        /* \"#utility.yul\":13623:13625   */\n      0x20\n        /* \"#utility.yul\":13615:13621   */\n      dup3\n        /* \"#utility.yul\":13612:13626   */\n      lt\n        /* \"#utility.yul\":13592:13610   */\n      dup2\n        /* \"#utility.yul\":13589:13627   */\n      eq\n        /* \"#utility.yul\":13586:13670   */\n      iszero\n      tag_315\n      jumpi\n        /* \"#utility.yul\":13642:13660   */\n      tag_316\n      tag_317\n      jump\t// in\n    tag_316:\n        /* \"#utility.yul\":13586:13670   */\n    tag_315:\n        /* \"#utility.yul\":13407:13676   */\n      pop\n        /* \"#utility.yul\":13356:13676   */\n      swap2\n      swap1\n      pop\n      jump\t// out\n        /* \"#utility.yul\":13682:13963   */\n    tag_284:\n        /* \"#utility.yul\":13765:13792   */\n      tag_319\n        /* \"#utility.yul\":13787:13791   */\n      dup3\n        /* \"#utility.yul\":13765:13792   */\n      tag_217\n      jump\t// in\n    tag_319:\n        /* \"#utility.yul\":13757:13763   */\n      dup2\n        /* \"#utility.yul\":13753:13793   */\n      add\n        /* \"#utility.yul\":13895:13901   */\n      dup2\n        /* \"#utility.yul\":13883:13893   */\n      dup2\n        /* \"#utility.yul\":13880:13902   */\n      lt\n        /* \"#utility.yul\":13859:13877   */\n      0xffffffffffffffff\n        /* \"#utility.yul\":13847:13857   */\n      dup3\n        /* \"#utility.yul\":13844:13878   */\n      gt\n        /* \"#utility.yul\":13841:13903   */\n      or\n        /* \"#utility.yul\":13838:13926   */\n      iszero\n      tag_320\n      jumpi\n        /* \"#utility.yul\":13906:13924   */\n      tag_321\n      tag_289\n      jump\t// in\n    tag_321:\n        /* \"#utility.yul\":13838:13926   */\n    tag_320:\n        /* \"#utility.yul\":13946:13956   */\n      dup1\n        /* \"#utility.yul\":13942:13944   */\n      0x40\n        /* \"#utility.yul\":13935:13957   */\n      mstore\n        /* \"#utility.yul\":13725:13963   */\n      pop\n        /* \"#utility.yul\":13682:13963   */\n      pop\n      pop\n      jump\t// out\n        /* \"#utility.yul\":13969:14202   */\n    tag_62:\n        /* \"#utility.yul\":14008:14011   */\n      0x00\n        /* \"#utility.yul\":14031:14055   */\n      tag_323\n        /* \"#utility.yul\":14049:14054   */\n      dup3\n        /* \"#utility.yul\":14031:14055   */\n      tag_261\n      jump\t// in\n    tag_323:\n        /* \"#utility.yul\":14022:14055   */\n      swap2\n      pop\n        /* \"#utility.yul\":14077:14143   */\n      0xffffffffffffffffffffffffffffffffffffffffffffffffffffffffffffffff\n        /* \"#utility.yul\":14070:14075   */\n      dup3\n        /* \"#utility.yul\":14067:14144   */\n      eq\n        /* \"#utility.yul\":14064:14167   */\n      iszero\n      tag_324\n      jumpi\n        /* \"#utility.yul\":14147:14165   */\n      tag_325\n      tag_326\n      jump\t// in\n    tag_325:\n        /* \"#utility.yul\":14064:14167   */\n    tag_324:\n        /* \"#utility.yul\":14194:14195   */\n      0x01\n        /* \"#utility.yul\":14187:14192   */\n      dup3\n        /* \"#utility.yul\":14183:14196   */\n      add\n        /* \"#utility.yul\":14176:14196   */\n      swap1\n      pop\n        /* \"#utility.yul\":13969:14202   */\n      swap2\n      swap1\n      pop\n      jump\t// out\n        /* \"#utility.yul\":14208:14388   */\n    tag_326:\n        /* \"#utility.yul\":14256:14333   */\n      0x4e487b7100000000000000000000000000000000000000000000000000000000\n        /* \"#utility.yul\":14253:14254   */\n      0x00\n        /* \"#utility.yul\":14246:14334   */\n      mstore\n        /* \"#utility.yul\":14353:14357   */\n      0x11\n        /* \"#utility.yul\":14350:14351   */\n      0x04\n        /* \"#utility.yul\":14343:14358   */\n      mstore\n        /* \"#utility.yul\":14377:14381   */\n      0x24\n        /* \"#utility.yul\":14374:14375   */\n      0x00\n        /* \"#utility.yul\":14367:14382   */\n      revert\n        /* \"#utility.yul\":14394:14574   */\n    tag_39:\n        /* \"#utility.yul\":14442:14519   */\n      0x4e487b7100000000000000000000000000000000000000000000000000000000\n        /* \"#utility.yul\":14439:14440   */\n      0x00\n        /* \"#utility.yul\":14432:14520   */\n      mstore\n        /* \"#utility.yul\":14539:14543   */\n      0x21\n        /* \"#utility.yul\":14536:14537   */\n      0x04\n        /* \"#utility.yul\":14529:14544   */\n      mstore\n        /* \"#utility.yul\":14563:14567   */\n      0x24\n        /* \"#utility.yul\":14560:14561   */\n      0x00\n        /* \"#utility.yul\":14553:14568   */\n      revert\n        /* \"#utility.yul\":14580:14760   */\n    tag_317:\n        /* \"#utility.yul\":14628:14705   */\n      0x4e487b7100000000000000000000000000000000000000000000000000000000\n        /* \"#utility.yul\":14625:14626   */\n      0x00\n        /* \"#utility.yul\":14618:14706   */\n      mstore\n        /* \"#utility.yul\":14725:14729   */\n      0x22\n        /* \"#utility.yul\":14722:14723   */\n      0x04\n        /* \"#utility.yul\":14715:14730   */\n      mstore\n        /* \"#utility.yul\":14749:14753   */\n      0x24\n        /* \"#utility.yul\":14746:14747   */\n      0x00\n        /* \"#utility.yul\":14739:14754   */\n      revert\n        /* \"#utility.yul\":14766:14946   */\n    tag_289:\n        /* \"#utility.yul\":14814:14891   */\n      0x4e487b7100000000000000000000000000000000000000000000000000000000\n        /* \"#utility.yul\":14811:14812   */\n      0x00\n        /* \"#utility.yul\":14804:14892   */\n      mstore\n        /* \"#utility.yul\":14911:14915   */\n      0x41\n        /* \"#utility.yul\":14908:14909   */\n      0x04\n        /* \"#utility.yul\":14901:14916   */\n      mstore\n        /* \"#utility.yul\":14935:14939   */\n      0x24\n        /* \"#utility.yul\":14932:14933   */\n      0x00\n        /* \"#utility.yul\":14925:14940   */\n      revert\n        /* \"#utility.yul\":14952:15069   */\n    tag_161:\n        /* \"#utility.yul\":15061:15062   */\n      0x00\n        /* \"#utility.yul\":15058:15059   */\n      dup1\n        /* \"#utility.yul\":15051:15063   */\n      revert\n        /* \"#utility.yul\":15075:15192   */\n    tag_150:\n        /* \"#utility.yul\":15184:15185   */\n      0x00\n        /* \"#utility.yul\":15181:15182   */\n      dup1\n        /* \"#utility.yul\":15174:15186   */\n      revert\n        /* \"#utility.yul\":15198:15315   */\n    tag_173:\n        /* \"#utility.yul\":15307:15308   */\n      0x00\n        /* \"#utility.yul\":15304:15305   */\n      dup1\n        /* \"#utility.yul\":15297:15309   */\n      revert\n        /* \"#utility.yul\":15321:15438   */\n    tag_170:\n        /* \"#utility.yul\":15430:15431   */\n      0x00\n        /* \"#utility.yul\":15427:15428   */\n      dup1\n        /* \"#utility.yul\":15420:15432   */\n      revert\n        /* \"#utility.yul\":15444:15546   */\n    tag_217:\n        /* \"#utility.yul\":15485:15491   */\n      0x00\n        /* \"#utility.yul\":15536:15538   */\n      0x1f\n        /* \"#utility.yul\":15532:15539   */\n      not\n        /* \"#utility.yul\":15527:15529   */\n      0x1f\n        /* \"#utility.yul\":15520:15525   */\n      dup4\n        /* \"#utility.yul\":15516:15530   */\n      add\n        /* \"#utility.yul\":15512:15540   */\n      and\n        /* \"#utility.yul\":15502:15540   */\n      swap1\n      pop\n        /* \"#utility.yul\":15444:15546   */\n      swap2\n      swap1\n      pop\n      jump\t// out\n        /* \"#utility.yul\":15552:15729   */\n    tag_229:\n        /* \"#utility.yul\":15692:15721   */\n      0x54686973204944206f66204e465420646f6e2774206578697374730000000000\n        /* \"#utility.yul\":15688:15689   */\n      0x00\n        /* \"#utility.yul\":15680:15686   */\n      dup3\n        /* \"#utility.yul\":15676:15690   */\n      add\n        /* \"#utility.yul\":15669:15722   */\n      mstore\n        /* \"#utility.yul\":15552:15729   */\n      pop\n      jump\t// out\n        /* \"#utility.yul\":15735:15916   */\n    tag_234:\n        /* \"#utility.yul\":15875:15908   */\n      0x556e61626c6520746f207265706561742074686520646574656374696f6e2100\n        /* \"#utility.yul\":15871:15872   */\n      0x00\n        /* \"#utility.yul\":15863:15869   */\n      dup3\n        /* \"#utility.yul\":15859:15873   */\n      add\n        /* \"#utility.yul\":15852:15909   */\n      mstore\n        /* \"#utility.yul\":15735:15916   */\n      pop\n      jump\t// out\n        /* \"#utility.yul\":15922:16156   */\n    tag_239:\n        /* \"#utility.yul\":16062:16096   */\n      0x546865204e465420646f6573206e6f74206d6565742074686520646574656374\n        /* \"#utility.yul\":16058:16059   */\n      0x00\n        /* \"#utility.yul\":16050:16056   */\n      dup3\n        /* \"#utility.yul\":16046:16060   */\n      add\n        /* \"#utility.yul\":16039:16097   */\n      mstore\n        /* \"#utility.yul\":16131:16148   */\n      0x696f6e20636f6e646974696f6e73210000000000000000000000000000000000\n        /* \"#utility.yul\":16126:16128   */\n      0x20\n        /* \"#utility.yul\":16118:16124   */\n      dup3\n        /* \"#utility.yul\":16114:16129   */\n      add\n        /* \"#utility.yul\":16107:16149   */\n      mstore\n        /* \"#utility.yul\":15922:16156   */\n      pop\n      jump\t// out\n        /* \"#utility.yul\":16162:16384   */\n    tag_244:\n        /* \"#utility.yul\":16302:16336   */\n      0x4f6e6c79206f776e65722063616e20636865636b20746865204e465420627920\n        /* \"#utility.yul\":16298:16299   */\n      0x00\n        /* \"#utility.yul\":16290:16296   */\n      dup3\n        /* \"#utility.yul\":16286:16300   */\n      add\n        /* \"#utility.yul\":16279:16337   */\n      mstore\n        /* \"#utility.yul\":16371:16376   */\n      0x4944210000000000000000000000000000000000000000000000000000000000\n        /* \"#utility.yul\":16366:16368   */\n      0x20\n        /* \"#utility.yul\":16358:16364   */\n      dup3\n        /* \"#utility.yul\":16354:16369   */\n      add\n        /* \"#utility.yul\":16347:16377   */\n      mstore\n        /* \"#utility.yul\":16162:16384   */\n      pop\n      jump\t// out\n        /* \"#utility.yul\":16390:16570   */\n    tag_249:\n        /* \"#utility.yul\":16530:16562   */\n      0x4f6e6c79206f776e65722063616e2064657465637420746865204e4654210000\n        /* \"#utility.yul\":16526:16527   */\n      0x00\n        /* \"#utility.yul\":16518:16524   */\n      dup3\n        /* \"#utility.yul\":16514:16528   */\n      add\n        /* \"#utility.yul\":16507:16563   */\n      mstore\n        /* \"#utility.yul\":16390:16570   */\n      pop\n      jump\t// out\n        /* \"#utility.yul\":16576:16692   */\n    tag_302:\n        /* \"#utility.yul\":16660:16661   */\n      0x02\n        /* \"#utility.yul\":16653:16658   */\n      dup2\n        /* \"#utility.yul\":16650:16662   */\n      lt\n        /* \"#utility.yul\":16640:16686   */\n      tag_342\n      jumpi\n        /* \"#utility.yul\":16666:16684   */\n      tag_343\n      tag_39\n      jump\t// in\n    tag_343:\n        /* \"#utility.yul\":16640:16686   */\n    tag_342:\n        /* \"#utility.yul\":16576:16692   */\n      pop\n      jump\t// out\n        /* \"#utility.yul\":16698:16814   */\n    tag_156:\n        /* \"#utility.yul\":16768:16789   */\n      tag_345\n        /* \"#utility.yul\":16783:16788   */\n      dup2\n        /* \"#utility.yul\":16768:16789   */\n      tag_200\n      jump\t// in\n    tag_345:\n        /* \"#utility.yul\":16761:16766   */\n      dup2\n        /* \"#utility.yul\":16758:16790   */\n      eq\n        /* \"#utility.yul\":16748:16808   */\n      tag_346\n      jumpi\n        /* \"#utility.yul\":16804:16805   */\n      0x00\n        /* \"#utility.yul\":16801:16802   */\n      dup1\n        /* \"#utility.yul\":16794:16806   */\n      revert\n        /* \"#utility.yul\":16748:16808   */\n    tag_346:\n        /* \"#utility.yul\":16698:16814   */\n      pop\n      jump\t// out\n        /* \"#utility.yul\":16820:16942   */\n    tag_166:\n        /* \"#utility.yul\":16893:16917   */\n      tag_348\n        /* \"#utility.yul\":16911:16916   */\n      dup2\n        /* \"#utility.yul\":16893:16917   */\n      tag_261\n      jump\t// in\n    tag_348:\n        /* \"#utility.yul\":16886:16891   */\n      dup2\n        /* \"#utility.yul\":16883:16918   */\n      eq\n        /* \"#utility.yul\":16873:16936   */\n      tag_349\n      jumpi\n        /* \"#utility.yul\":16932:16933   */\n      0x00\n        /* \"#utility.yul\":16929:16930   */\n      dup1\n        /* \"#utility.yul\":16922:16934   */\n      revert\n        /* \"#utility.yul\":16873:16936   */\n    tag_349:\n        /* \"#utility.yul\":16820:16942   */\n      pop\n      jump\t// out\n\n    auxdata: 0xa2646970667358221220df0cddfa9d8cb8fc94e51e588b3be8b1839e1d2be6afd3d86d69095c2a035eb364736f6c63430008070033\n}\n",
				"bytecode": {
					"linkReferences": {},
					"object": "6080604052600060015534801561001557600080fd5b50336000806101000a81548173ffffffffffffffffffffffffffffffffffffffff021916908373ffffffffffffffffffffffffffffffffffffffff160217905550611526806100656000396000f3fe608060405234801561001057600080fd5b50600436106100575760003560e01c80631c5a3e521461005c5780633a4f2d2414610078578063b3cea21714610094578063b5e3029f146100b2578063d0aeae96146100e2575b600080fd5b61007660048036038101906100719190610d88565b610112565b005b610092600480360381019061008d9190610ce3565b610301565b005b61009c6104ca565b6040516100a991906110b0565b60405180910390f35b6100cc60048036038101906100c79190610d5b565b6104d0565b6040516100d9919061108e565b60405180910390f35b6100fc60048036038101906100f79190610c9a565b6107ba565b6040516101099190610fd3565b60405180910390f35b60008054906101000a900473ffffffffffffffffffffffffffffffffffffffff1673ffffffffffffffffffffffffffffffffffffffff163373ffffffffffffffffffffffffffffffffffffffff16146101a0576040517f08c379a00000000000000000000000000000000000000000000000000000000081526004016101979061106e565b60405180910390fd5b600015156002600084815260200190815260200160002060030160009054906101000a900460ff16151514801561021e5750600060018111156101e6576101e56112e3565b5b6002600084815260200190815260200160002060000160009054906101000a900460ff16600181111561021c5761021b6112e3565b5b145b61025d576040517f08c379a00000000000000000000000000000000000000000000000000000000081526004016102549061102e565b60405180910390fd5b806002600084815260200190815260200160002060030160016101000a81548160ff021916908315150217905550600060026000600154815260200190815260200160002060030160006101000a81548160ff021916908315150217905550600160026000600154815260200190815260200160002060000160006101000a81548160ff021916908360018111156102f8576102f76112e3565b5b02179055505050565b61030a826108d4565b801561031b575061031a816109bb565b5b61035a576040517f08c379a00000000000000000000000000000000000000000000000000000000081526004016103519061100e565b60405180910390fd5b816002600060015481526020019081526020016000206001019080519060200190610386929190610afb565b508060026000600154815260200190815260200160002060020190805190602001906103b3929190610afb565b50600060026000600154815260200190815260200160002060000160006101000a81548160ff021916908360018111156103f0576103ef6112e3565b5b0217905550600060026000600154815260200190815260200160002060030160006101000a81548160ff021916908315150217905550600060026000600154815260200190815260200160002060030160016101000a81548160ff0219169083151502179055503360026000600154815260200190815260200160002060030160026101000a81548173ffffffffffffffffffffffffffffffffffffffff021916908373ffffffffffffffffffffffffffffffffffffffff160217905550600160008154809291906104c19061126b565b91905055505050565b60015481565b6104d8610b81565b60008054906101000a900473ffffffffffffffffffffffffffffffffffffffff1673ffffffffffffffffffffffffffffffffffffffff163373ffffffffffffffffffffffffffffffffffffffff1614610566576040517f08c379a000000000000000000000000000000000000000000000000000000000815260040161055d9061104e565b60405180910390fd5b60015482106105aa576040517f08c379a00000000000000000000000000000000000000000000000000000000081526004016105a190610fee565b60405180910390fd5b600260008381526020019081526020016000206040518060c00160405290816000820160009054906101000a900460ff1660018111156105ed576105ec6112e3565b5b60018111156105ff576105fe6112e3565b5b815260200160018201805461061390611208565b80601f016020809104026020016040519081016040528092919081815260200182805461063f90611208565b801561068c5780601f106106615761010080835404028352916020019161068c565b820191906000526020600020905b81548152906001019060200180831161066f57829003601f168201915b505050505081526020016002820180546106a590611208565b80601f01602080910402602001604051908101604052809291908181526020018280546106d190611208565b801561071e5780601f106106f35761010080835404028352916020019161071e565b820191906000526020600020905b81548152906001019060200180831161070157829003601f168201915b505050505081526020016003820160009054906101000a900460ff161515151581526020016003820160019054906101000a900460ff161515151581526020016003820160029054906101000a900473ffffffffffffffffffffffffffffffffffffffff1673ffffffffffffffffffffffffffffffffffffffff1673ffffffffffffffffffffffffffffffffffffffff16815250509050919050565b600080600090505b6001548110156108c9576108746002600083815260200190815260200160002060010180546107f090611208565b80601f016020809104026020016040519081016040528092919081815260200182805461081c90611208565b80156108695780601f1061083e57610100808354040283529160200191610869565b820191906000526020600020905b81548152906001019060200180831161084c57829003601f168201915b505050505084610aa2565b80156108a75750600115156002600083815260200190815260200160002060030160019054906101000a900460ff161515145b156108b65760019150506108cf565b80806108c19061126b565b9150506107c2565b50600090505b919050565b600080600090505b6001548110156109b05761098e60026000838152602001908152602001600020600101805461090a90611208565b80601f016020809104026020016040519081016040528092919081815260200182805461093690611208565b80156109835780601f1061095857610100808354040283529160200191610983565b820191906000526020600020905b81548152906001019060200180831161096657829003601f168201915b505050505084610aa2565b1561099d5760009150506109b6565b80806109a89061126b565b9150506108dc565b50600190505b919050565b600080600090505b600154811015610a9757610a756002600083815260200190815260200160002060020180546109f190611208565b80601f0160208091040260200160405190810160405280929190818152602001828054610a1d90611208565b8015610a6a5780601f10610a3f57610100808354040283529160200191610a6a565b820191906000526020600020905b815481529060010190602001808311610a4d57829003601f168201915b505050505084610aa2565b15610a84576000915050610a9d565b8080610a8f9061126b565b9150506109c3565b50600190505b919050565b600081604051602001610ab59190610fbc565b6040516020818303038152906040528051906020012083604051602001610adc9190610fbc565b6040516020818303038152906040528051906020012014905092915050565b828054610b0790611208565b90600052602060002090601f016020900481019282610b295760008555610b70565b82601f10610b4257805160ff1916838001178555610b70565b82800160010185558215610b70579182015b82811115610b6f578251825591602001919060010190610b54565b5b509050610b7d9190610be3565b5090565b6040518060c0016040528060006001811115610ba057610b9f6112e3565b5b81526020016060815260200160608152602001600015158152602001600015158152602001600073ffffffffffffffffffffffffffffffffffffffff1681525090565b5b80821115610bfc576000816000905550600101610be4565b5090565b6000610c13610c0e846110f0565b6110cb565b905082815260208101848484011115610c2f57610c2e611375565b5b610c3a8482856111c6565b509392505050565b600081359050610c51816114c2565b92915050565b600082601f830112610c6c57610c6b611370565b5b8135610c7c848260208601610c00565b91505092915050565b600081359050610c94816114d9565b92915050565b600060208284031215610cb057610caf61137f565b5b600082013567ffffffffffffffff811115610cce57610ccd61137a565b5b610cda84828501610c57565b91505092915050565b60008060408385031215610cfa57610cf961137f565b5b600083013567ffffffffffffffff811115610d1857610d1761137a565b5b610d2485828601610c57565b925050602083013567ffffffffffffffff811115610d4557610d4461137a565b5b610d5185828601610c57565b9150509250929050565b600060208284031215610d7157610d7061137f565b5b6000610d7f84828501610c85565b91505092915050565b60008060408385031215610d9f57610d9e61137f565b5b6000610dad85828601610c85565b9250506020610dbe85828601610c42565b9150509250929050565b610dd181611159565b82525050565b610de08161116b565b82525050565b610def8161116b565b82525050565b610dfe816111b4565b82525050565b6000610e0f82611121565b610e19818561112c565b9350610e298185602086016111d5565b610e3281611384565b840191505092915050565b6000610e4882611121565b610e52818561114e565b9350610e628185602086016111d5565b80840191505092915050565b6000610e7b601b8361113d565b9150610e8682611395565b602082019050919050565b6000610e9e601f8361113d565b9150610ea9826113be565b602082019050919050565b6000610ec1602f8361113d565b9150610ecc826113e7565b604082019050919050565b6000610ee460238361113d565b9150610eef82611436565b604082019050919050565b6000610f07601e8361113d565b9150610f1282611485565b602082019050919050565b600060c083016000830151610f356000860182610df5565b5060208301518482036020860152610f4d8282610e04565b91505060408301518482036040860152610f678282610e04565b9150506060830151610f7c6060860182610dd7565b506080830151610f8f6080860182610dd7565b5060a0830151610fa260a0860182610dc8565b508091505092915050565b610fb6816111aa565b82525050565b6000610fc88284610e3d565b915081905092915050565b6000602082019050610fe86000830184610de6565b92915050565b6000602082019050818103600083015261100781610e6e565b9050919050565b6000602082019050818103600083015261102781610e91565b9050919050565b6000602082019050818103600083015261104781610eb4565b9050919050565b6000602082019050818103600083015261106781610ed7565b9050919050565b6000602082019050818103600083015261108781610efa565b9050919050565b600060208201905081810360008301526110a88184610f1d565b905092915050565b60006020820190506110c56000830184610fad565b92915050565b60006110d56110e6565b90506110e1828261123a565b919050565b6000604051905090565b600067ffffffffffffffff82111561110b5761110a611341565b5b61111482611384565b9050602081019050919050565b600081519050919050565b600082825260208201905092915050565b600082825260208201905092915050565b600081905092915050565b60006111648261118a565b9050919050565b60008115159050919050565b6000819050611185826114ae565b919050565b600073ffffffffffffffffffffffffffffffffffffffff82169050919050565b6000819050919050565b60006111bf82611177565b9050919050565b82818337600083830152505050565b60005b838110156111f35780820151818401526020810190506111d8565b83811115611202576000848401525b50505050565b6000600282049050600182168061122057607f821691505b6020821081141561123457611233611312565b5b50919050565b61124382611384565b810181811067ffffffffffffffff8211171561126257611261611341565b5b80604052505050565b6000611276826111aa565b91507fffffffffffffffffffffffffffffffffffffffffffffffffffffffffffffffff8214156112a9576112a86112b4565b5b600182019050919050565b7f4e487b7100000000000000000000000000000000000000000000000000000000600052601160045260246000fd5b7f4e487b7100000000000000000000000000000000000000000000000000000000600052602160045260246000fd5b7f4e487b7100000000000000000000000000000000000000000000000000000000600052602260045260246000fd5b7f4e487b7100000000000000000000000000000000000000000000000000000000600052604160045260246000fd5b600080fd5b600080fd5b600080fd5b600080fd5b6000601f19601f8301169050919050565b7f54686973204944206f66204e465420646f6e2774206578697374730000000000600082015250565b7f556e61626c6520746f207265706561742074686520646574656374696f6e2100600082015250565b7f546865204e465420646f6573206e6f74206d656574207468652064657465637460008201527f696f6e20636f6e646974696f6e73210000000000000000000000000000000000602082015250565b7f4f6e6c79206f776e65722063616e20636865636b20746865204e46542062792060008201527f4944210000000000000000000000000000000000000000000000000000000000602082015250565b7f4f6e6c79206f776e65722063616e2064657465637420746865204e4654210000600082015250565b600281106114bf576114be6112e3565b5b50565b6114cb8161116b565b81146114d657600080fd5b50565b6114e2816111aa565b81146114ed57600080fd5b5056fea2646970667358221220df0cddfa9d8cb8fc94e51e588b3be8b1839e1d2be6afd3d86d69095c2a035eb364736f6c63430008070033",
					"opcodes": "PUSH1 0x80 PUSH1 0x40 MSTORE PUSH1 0x0 PUSH1 0x1 SSTORE CALLVALUE DUP1 ISZERO PUSH2 0x15 JUMPI PUSH1 0x0 DUP1 REVERT JUMPDEST POP CALLER PUSH1 0x0 DUP1 PUSH2 0x100 EXP DUP2 SLOAD DUP2 PUSH20 0xFFFFFFFFFFFFFFFFFFFFFFFFFFFFFFFFFFFFFFFF MUL NOT AND SWAP1 DUP4 PUSH20 0xFFFFFFFFFFFFFFFFFFFFFFFFFFFFFFFFFFFFFFFF AND MUL OR SWAP1 SSTORE POP PUSH2 0x1526 DUP1 PUSH2 0x65 PUSH1 0x0 CODECOPY PUSH1 0x0 RETURN INVALID PUSH1 0x80 PUSH1 0x40 MSTORE CALLVALUE DUP1 ISZERO PUSH2 0x10 JUMPI PUSH1 0x0 DUP1 REVERT JUMPDEST POP PUSH1 0x4 CALLDATASIZE LT PUSH2 0x57 JUMPI PUSH1 0x0 CALLDATALOAD PUSH1 0xE0 SHR DUP1 PUSH4 0x1C5A3E52 EQ PUSH2 0x5C JUMPI DUP1 PUSH4 0x3A4F2D24 EQ PUSH2 0x78 JUMPI DUP1 PUSH4 0xB3CEA217 EQ PUSH2 0x94 JUMPI DUP1 PUSH4 0xB5E3029F EQ PUSH2 0xB2 JUMPI DUP1 PUSH4 0xD0AEAE96 EQ PUSH2 0xE2 JUMPI JUMPDEST PUSH1 0x0 DUP1 REVERT JUMPDEST PUSH2 0x76 PUSH1 0x4 DUP1 CALLDATASIZE SUB DUP2 ADD SWAP1 PUSH2 0x71 SWAP2 SWAP1 PUSH2 0xD88 JUMP JUMPDEST PUSH2 0x112 JUMP JUMPDEST STOP JUMPDEST PUSH2 0x92 PUSH1 0x4 DUP1 CALLDATASIZE SUB DUP2 ADD SWAP1 PUSH2 0x8D SWAP2 SWAP1 PUSH2 0xCE3 JUMP JUMPDEST PUSH2 0x301 JUMP JUMPDEST STOP JUMPDEST PUSH2 0x9C PUSH2 0x4CA JUMP JUMPDEST PUSH1 0x40 MLOAD PUSH2 0xA9 SWAP2 SWAP1 PUSH2 0x10B0 JUMP JUMPDEST PUSH1 0x40 MLOAD DUP1 SWAP2 SUB SWAP1 RETURN JUMPDEST PUSH2 0xCC PUSH1 0x4 DUP1 CALLDATASIZE SUB DUP2 ADD SWAP1 PUSH2 0xC7 SWAP2 SWAP1 PUSH2 0xD5B JUMP JUMPDEST PUSH2 0x4D0 JUMP JUMPDEST PUSH1 0x40 MLOAD PUSH2 0xD9 SWAP2 SWAP1 PUSH2 0x108E JUMP JUMPDEST PUSH1 0x40 MLOAD DUP1 SWAP2 SUB SWAP1 RETURN JUMPDEST PUSH2 0xFC PUSH1 0x4 DUP1 CALLDATASIZE SUB DUP2 ADD SWAP1 PUSH2 0xF7 SWAP2 SWAP1 PUSH2 0xC9A JUMP JUMPDEST PUSH2 0x7BA JUMP JUMPDEST PUSH1 0x40 MLOAD PUSH2 0x109 SWAP2 SWAP1 PUSH2 0xFD3 JUMP JUMPDEST PUSH1 0x40 MLOAD DUP1 SWAP2 SUB SWAP1 RETURN JUMPDEST PUSH1 0x0 DUP1 SLOAD SWAP1 PUSH2 0x100 EXP SWAP1 DIV PUSH20 0xFFFFFFFFFFFFFFFFFFFFFFFFFFFFFFFFFFFFFFFF AND PUSH20 0xFFFFFFFFFFFFFFFFFFFFFFFFFFFFFFFFFFFFFFFF AND CALLER PUSH20 0xFFFFFFFFFFFFFFFFFFFFFFFFFFFFFFFFFFFFFFFF AND EQ PUSH2 0x1A0 JUMPI PUSH1 0x40 MLOAD PUSH32 0x8C379A000000000000000000000000000000000000000000000000000000000 DUP2 MSTORE PUSH1 0x4 ADD PUSH2 0x197 SWAP1 PUSH2 0x106E JUMP JUMPDEST PUSH1 0x40 MLOAD DUP1 SWAP2 SUB SWAP1 REVERT JUMPDEST PUSH1 0x0 ISZERO ISZERO PUSH1 0x2 PUSH1 0x0 DUP5 DUP2 MSTORE PUSH1 0x20 ADD SWAP1 DUP2 MSTORE PUSH1 0x20 ADD PUSH1 0x0 KECCAK256 PUSH1 0x3 ADD PUSH1 0x0 SWAP1 SLOAD SWAP1 PUSH2 0x100 EXP SWAP1 DIV PUSH1 0xFF AND ISZERO ISZERO EQ DUP1 ISZERO PUSH2 0x21E JUMPI POP PUSH1 0x0 PUSH1 0x1 DUP2 GT ISZERO PUSH2 0x1E6 JUMPI PUSH2 0x1E5 PUSH2 0x12E3 JUMP JUMPDEST JUMPDEST PUSH1 0x2 PUSH1 0x0 DUP5 DUP2 MSTORE PUSH1 0x20 ADD SWAP1 DUP2 MSTORE PUSH1 0x20 ADD PUSH1 0x0 KECCAK256 PUSH1 0x0 ADD PUSH1 0x0 SWAP1 SLOAD SWAP1 PUSH2 0x100 EXP SWAP1 DIV PUSH1 0xFF AND PUSH1 0x1 DUP2 GT ISZERO PUSH2 0x21C JUMPI PUSH2 0x21B PUSH2 0x12E3 JUMP JUMPDEST JUMPDEST EQ JUMPDEST PUSH2 0x25D JUMPI PUSH1 0x40 MLOAD PUSH32 0x8C379A000000000000000000000000000000000000000000000000000000000 DUP2 MSTORE PUSH1 0x4 ADD PUSH2 0x254 SWAP1 PUSH2 0x102E JUMP JUMPDEST PUSH1 0x40 MLOAD DUP1 SWAP2 SUB SWAP1 REVERT JUMPDEST DUP1 PUSH1 0x2 PUSH1 0x0 DUP5 DUP2 MSTORE PUSH1 0x20 ADD SWAP1 DUP2 MSTORE PUSH1 0x20 ADD PUSH1 0x0 KECCAK256 PUSH1 0x3 ADD PUSH1 0x1 PUSH2 0x100 EXP DUP2 SLOAD DUP2 PUSH1 0xFF MUL NOT AND SWAP1 DUP4 ISZERO ISZERO MUL OR SWAP1 SSTORE POP PUSH1 0x0 PUSH1 0x2 PUSH1 0x0 PUSH1 0x1 SLOAD DUP2 MSTORE PUSH1 0x20 ADD SWAP1 DUP2 MSTORE PUSH1 0x20 ADD PUSH1 0x0 KECCAK256 PUSH1 0x3 ADD PUSH1 0x0 PUSH2 0x100 EXP DUP2 SLOAD DUP2 PUSH1 0xFF MUL NOT AND SWAP1 DUP4 ISZERO ISZERO MUL OR SWAP1 SSTORE POP PUSH1 0x1 PUSH1 0x2 PUSH1 0x0 PUSH1 0x1 SLOAD DUP2 MSTORE PUSH1 0x20 ADD SWAP1 DUP2 MSTORE PUSH1 0x20 ADD PUSH1 0x0 KECCAK256 PUSH1 0x0 ADD PUSH1 0x0 PUSH2 0x100 EXP DUP2 SLOAD DUP2 PUSH1 0xFF MUL NOT AND SWAP1 DUP4 PUSH1 0x1 DUP2 GT ISZERO PUSH2 0x2F8 JUMPI PUSH2 0x2F7 PUSH2 0x12E3 JUMP JUMPDEST JUMPDEST MUL OR SWAP1 SSTORE POP POP POP JUMP JUMPDEST PUSH2 0x30A DUP3 PUSH2 0x8D4 JUMP JUMPDEST DUP1 ISZERO PUSH2 0x31B JUMPI POP PUSH2 0x31A DUP2 PUSH2 0x9BB JUMP JUMPDEST JUMPDEST PUSH2 0x35A JUMPI PUSH1 0x40 MLOAD PUSH32 0x8C379A000000000000000000000000000000000000000000000000000000000 DUP2 MSTORE PUSH1 0x4 ADD PUSH2 0x351 SWAP1 PUSH2 0x100E JUMP JUMPDEST PUSH1 0x40 MLOAD DUP1 SWAP2 SUB SWAP1 REVERT JUMPDEST DUP2 PUSH1 0x2 PUSH1 0x0 PUSH1 0x1 SLOAD DUP2 MSTORE PUSH1 0x20 ADD SWAP1 DUP2 MSTORE PUSH1 0x20 ADD PUSH1 0x0 KECCAK256 PUSH1 0x1 ADD SWAP1 DUP1 MLOAD SWAP1 PUSH1 0x20 ADD SWAP1 PUSH2 0x386 SWAP3 SWAP2 SWAP1 PUSH2 0xAFB JUMP JUMPDEST POP DUP1 PUSH1 0x2 PUSH1 0x0 PUSH1 0x1 SLOAD DUP2 MSTORE PUSH1 0x20 ADD SWAP1 DUP2 MSTORE PUSH1 0x20 ADD PUSH1 0x0 KECCAK256 PUSH1 0x2 ADD SWAP1 DUP1 MLOAD SWAP1 PUSH1 0x20 ADD SWAP1 PUSH2 0x3B3 SWAP3 SWAP2 SWAP1 PUSH2 0xAFB JUMP JUMPDEST POP PUSH1 0x0 PUSH1 0x2 PUSH1 0x0 PUSH1 0x1 SLOAD DUP2 MSTORE PUSH1 0x20 ADD SWAP1 DUP2 MSTORE PUSH1 0x20 ADD PUSH1 0x0 KECCAK256 PUSH1 0x0 ADD PUSH1 0x0 PUSH2 0x100 EXP DUP2 SLOAD DUP2 PUSH1 0xFF MUL NOT AND SWAP1 DUP4 PUSH1 0x1 DUP2 GT ISZERO PUSH2 0x3F0 JUMPI PUSH2 0x3EF PUSH2 0x12E3 JUMP JUMPDEST JUMPDEST MUL OR SWAP1 SSTORE POP PUSH1 0x0 PUSH1 0x2 PUSH1 0x0 PUSH1 0x1 SLOAD DUP2 MSTORE PUSH1 0x20 ADD SWAP1 DUP2 MSTORE PUSH1 0x20 ADD PUSH1 0x0 KECCAK256 PUSH1 0x3 ADD PUSH1 0x0 PUSH2 0x100 EXP DUP2 SLOAD DUP2 PUSH1 0xFF MUL NOT AND SWAP1 DUP4 ISZERO ISZERO MUL OR SWAP1 SSTORE POP PUSH1 0x0 PUSH1 0x2 PUSH1 0x0 PUSH1 0x1 SLOAD DUP2 MSTORE PUSH1 0x20 ADD SWAP1 DUP2 MSTORE PUSH1 0x20 ADD PUSH1 0x0 KECCAK256 PUSH1 0x3 ADD PUSH1 0x1 PUSH2 0x100 EXP DUP2 SLOAD DUP2 PUSH1 0xFF MUL NOT AND SWAP1 DUP4 ISZERO ISZERO MUL OR SWAP1 SSTORE POP CALLER PUSH1 0x2 PUSH1 0x0 PUSH1 0x1 SLOAD DUP2 MSTORE PUSH1 0x20 ADD SWAP1 DUP2 MSTORE PUSH1 0x20 ADD PUSH1 0x0 KECCAK256 PUSH1 0x3 ADD PUSH1 0x2 PUSH2 0x100 EXP DUP2 SLOAD DUP2 PUSH20 0xFFFFFFFFFFFFFFFFFFFFFFFFFFFFFFFFFFFFFFFF MUL NOT AND SWAP1 DUP4 PUSH20 0xFFFFFFFFFFFFFFFFFFFFFFFFFFFFFFFFFFFFFFFF AND MUL OR SWAP1 SSTORE POP PUSH1 0x1 PUSH1 0x0 DUP2 SLOAD DUP1 SWAP3 SWAP2 SWAP1 PUSH2 0x4C1 SWAP1 PUSH2 0x126B JUMP JUMPDEST SWAP2 SWAP1 POP SSTORE POP POP POP JUMP JUMPDEST PUSH1 0x1 SLOAD DUP2 JUMP JUMPDEST PUSH2 0x4D8 PUSH2 0xB81 JUMP JUMPDEST PUSH1 0x0 DUP1 SLOAD SWAP1 PUSH2 0x100 EXP SWAP1 DIV PUSH20 0xFFFFFFFFFFFFFFFFFFFFFFFFFFFFFFFFFFFFFFFF AND PUSH20 0xFFFFFFFFFFFFFFFFFFFFFFFFFFFFFFFFFFFFFFFF AND CALLER PUSH20 0xFFFFFFFFFFFFFFFFFFFFFFFFFFFFFFFFFFFFFFFF AND EQ PUSH2 0x566 JUMPI PUSH1 0x40 MLOAD PUSH32 0x8C379A000000000000000000000000000000000000000000000000000000000 DUP2 MSTORE PUSH1 0x4 ADD PUSH2 0x55D SWAP1 PUSH2 0x104E JUMP JUMPDEST PUSH1 0x40 MLOAD DUP1 SWAP2 SUB SWAP1 REVERT JUMPDEST PUSH1 0x1 SLOAD DUP3 LT PUSH2 0x5AA JUMPI PUSH1 0x40 MLOAD PUSH32 0x8C379A000000000000000000000000000000000000000000000000000000000 DUP2 MSTORE PUSH1 0x4 ADD PUSH2 0x5A1 SWAP1 PUSH2 0xFEE JUMP JUMPDEST PUSH1 0x40 MLOAD DUP1 SWAP2 SUB SWAP1 REVERT JUMPDEST PUSH1 0x2 PUSH1 0x0 DUP4 DUP2 MSTORE PUSH1 0x20 ADD SWAP1 DUP2 MSTORE PUSH1 0x20 ADD PUSH1 0x0 KECCAK256 PUSH1 0x40 MLOAD DUP1 PUSH1 0xC0 ADD PUSH1 0x40 MSTORE SWAP1 DUP2 PUSH1 0x0 DUP3 ADD PUSH1 0x0 SWAP1 SLOAD SWAP1 PUSH2 0x100 EXP SWAP1 DIV PUSH1 0xFF AND PUSH1 0x1 DUP2 GT ISZERO PUSH2 0x5ED JUMPI PUSH2 0x5EC PUSH2 0x12E3 JUMP JUMPDEST JUMPDEST PUSH1 0x1 DUP2 GT ISZERO PUSH2 0x5FF JUMPI PUSH2 0x5FE PUSH2 0x12E3 JUMP JUMPDEST JUMPDEST DUP2 MSTORE PUSH1 0x20 ADD PUSH1 0x1 DUP3 ADD DUP1 SLOAD PUSH2 0x613 SWAP1 PUSH2 0x1208 JUMP JUMPDEST DUP1 PUSH1 0x1F ADD PUSH1 0x20 DUP1 SWAP2 DIV MUL PUSH1 0x20 ADD PUSH1 0x40 MLOAD SWAP1 DUP2 ADD PUSH1 0x40 MSTORE DUP1 SWAP3 SWAP2 SWAP1 DUP2 DUP2 MSTORE PUSH1 0x20 ADD DUP3 DUP1 SLOAD PUSH2 0x63F SWAP1 PUSH2 0x1208 JUMP JUMPDEST DUP1 ISZERO PUSH2 0x68C JUMPI DUP1 PUSH1 0x1F LT PUSH2 0x661 JUMPI PUSH2 0x100 DUP1 DUP4 SLOAD DIV MUL DUP4 MSTORE SWAP2 PUSH1 0x20 ADD SWAP2 PUSH2 0x68C JUMP JUMPDEST DUP3 ADD SWAP2 SWAP1 PUSH1 0x0 MSTORE PUSH1 0x20 PUSH1 0x0 KECCAK256 SWAP1 JUMPDEST DUP2 SLOAD DUP2 MSTORE SWAP1 PUSH1 0x1 ADD SWAP1 PUSH1 0x20 ADD DUP1 DUP4 GT PUSH2 0x66F JUMPI DUP3 SWAP1 SUB PUSH1 0x1F AND DUP3 ADD SWAP2 JUMPDEST POP POP POP POP POP DUP2 MSTORE PUSH1 0x20 ADD PUSH1 0x2 DUP3 ADD DUP1 SLOAD PUSH2 0x6A5 SWAP1 PUSH2 0x1208 JUMP JUMPDEST DUP1 PUSH1 0x1F ADD PUSH1 0x20 DUP1 SWAP2 DIV MUL PUSH1 0x20 ADD PUSH1 0x40 MLOAD SWAP1 DUP2 ADD PUSH1 0x40 MSTORE DUP1 SWAP3 SWAP2 SWAP1 DUP2 DUP2 MSTORE PUSH1 0x20 ADD DUP3 DUP1 SLOAD PUSH2 0x6D1 SWAP1 PUSH2 0x1208 JUMP JUMPDEST DUP1 ISZERO PUSH2 0x71E JUMPI DUP1 PUSH1 0x1F LT PUSH2 0x6F3 JUMPI PUSH2 0x100 DUP1 DUP4 SLOAD DIV MUL DUP4 MSTORE SWAP2 PUSH1 0x20 ADD SWAP2 PUSH2 0x71E JUMP JUMPDEST DUP3 ADD SWAP2 SWAP1 PUSH1 0x0 MSTORE PUSH1 0x20 PUSH1 0x0 KECCAK256 SWAP1 JUMPDEST DUP2 SLOAD DUP2 MSTORE SWAP1 PUSH1 0x1 ADD SWAP1 PUSH1 0x20 ADD DUP1 DUP4 GT PUSH2 0x701 JUMPI DUP3 SWAP1 SUB PUSH1 0x1F AND DUP3 ADD SWAP2 JUMPDEST POP POP POP POP POP DUP2 MSTORE PUSH1 0x20 ADD PUSH1 0x3 DUP3 ADD PUSH1 0x0 SWAP1 SLOAD SWAP1 PUSH2 0x100 EXP SWAP1 DIV PUSH1 0xFF AND ISZERO ISZERO ISZERO ISZERO DUP2 MSTORE PUSH1 0x20 ADD PUSH1 0x3 DUP3 ADD PUSH1 0x1 SWAP1 SLOAD SWAP1 PUSH2 0x100 EXP SWAP1 DIV PUSH1 0xFF AND ISZERO ISZERO ISZERO ISZERO DUP2 MSTORE PUSH1 0x20 ADD PUSH1 0x3 DUP3 ADD PUSH1 0x2 SWAP1 SLOAD SWAP1 PUSH2 0x100 EXP SWAP1 DIV PUSH20 0xFFFFFFFFFFFFFFFFFFFFFFFFFFFFFFFFFFFFFFFF AND PUSH20 0xFFFFFFFFFFFFFFFFFFFFFFFFFFFFFFFFFFFFFFFF AND PUSH20 0xFFFFFFFFFFFFFFFFFFFFFFFFFFFFFFFFFFFFFFFF AND DUP2 MSTORE POP POP SWAP1 POP SWAP2 SWAP1 POP JUMP JUMPDEST PUSH1 0x0 DUP1 PUSH1 0x0 SWAP1 POP JUMPDEST PUSH1 0x1 SLOAD DUP2 LT ISZERO PUSH2 0x8C9 JUMPI PUSH2 0x874 PUSH1 0x2 PUSH1 0x0 DUP4 DUP2 MSTORE PUSH1 0x20 ADD SWAP1 DUP2 MSTORE PUSH1 0x20 ADD PUSH1 0x0 KECCAK256 PUSH1 0x1 ADD DUP1 SLOAD PUSH2 0x7F0 SWAP1 PUSH2 0x1208 JUMP JUMPDEST DUP1 PUSH1 0x1F ADD PUSH1 0x20 DUP1 SWAP2 DIV MUL PUSH1 0x20 ADD PUSH1 0x40 MLOAD SWAP1 DUP2 ADD PUSH1 0x40 MSTORE DUP1 SWAP3 SWAP2 SWAP1 DUP2 DUP2 MSTORE PUSH1 0x20 ADD DUP3 DUP1 SLOAD PUSH2 0x81C SWAP1 PUSH2 0x1208 JUMP JUMPDEST DUP1 ISZERO PUSH2 0x869 JUMPI DUP1 PUSH1 0x1F LT PUSH2 0x83E JUMPI PUSH2 0x100 DUP1 DUP4 SLOAD DIV MUL DUP4 MSTORE SWAP2 PUSH1 0x20 ADD SWAP2 PUSH2 0x869 JUMP JUMPDEST DUP3 ADD SWAP2 SWAP1 PUSH1 0x0 MSTORE PUSH1 0x20 PUSH1 0x0 KECCAK256 SWAP1 JUMPDEST DUP2 SLOAD DUP2 MSTORE SWAP1 PUSH1 0x1 ADD SWAP1 PUSH1 0x20 ADD DUP1 DUP4 GT PUSH2 0x84C JUMPI DUP3 SWAP1 SUB PUSH1 0x1F AND DUP3 ADD SWAP2 JUMPDEST POP POP POP POP POP DUP5 PUSH2 0xAA2 JUMP JUMPDEST DUP1 ISZERO PUSH2 0x8A7 JUMPI POP PUSH1 0x1 ISZERO ISZERO PUSH1 0x2 PUSH1 0x0 DUP4 DUP2 MSTORE PUSH1 0x20 ADD SWAP1 DUP2 MSTORE PUSH1 0x20 ADD PUSH1 0x0 KECCAK256 PUSH1 0x3 ADD PUSH1 0x1 SWAP1 SLOAD SWAP1 PUSH2 0x100 EXP SWAP1 DIV PUSH1 0xFF AND ISZERO ISZERO EQ JUMPDEST ISZERO PUSH2 0x8B6 JUMPI PUSH1 0x1 SWAP2 POP POP PUSH2 0x8CF JUMP JUMPDEST DUP1 DUP1 PUSH2 0x8C1 SWAP1 PUSH2 0x126B JUMP JUMPDEST SWAP2 POP POP PUSH2 0x7C2 JUMP JUMPDEST POP PUSH1 0x0 SWAP1 POP JUMPDEST SWAP2 SWAP1 POP JUMP JUMPDEST PUSH1 0x0 DUP1 PUSH1 0x0 SWAP1 POP JUMPDEST PUSH1 0x1 SLOAD DUP2 LT ISZERO PUSH2 0x9B0 JUMPI PUSH2 0x98E PUSH1 0x2 PUSH1 0x0 DUP4 DUP2 MSTORE PUSH1 0x20 ADD SWAP1 DUP2 MSTORE PUSH1 0x20 ADD PUSH1 0x0 KECCAK256 PUSH1 0x1 ADD DUP1 SLOAD PUSH2 0x90A SWAP1 PUSH2 0x1208 JUMP JUMPDEST DUP1 PUSH1 0x1F ADD PUSH1 0x20 DUP1 SWAP2 DIV MUL PUSH1 0x20 ADD PUSH1 0x40 MLOAD SWAP1 DUP2 ADD PUSH1 0x40 MSTORE DUP1 SWAP3 SWAP2 SWAP1 DUP2 DUP2 MSTORE PUSH1 0x20 ADD DUP3 DUP1 SLOAD PUSH2 0x936 SWAP1 PUSH2 0x1208 JUMP JUMPDEST DUP1 ISZERO PUSH2 0x983 JUMPI DUP1 PUSH1 0x1F LT PUSH2 0x958 JUMPI PUSH2 0x100 DUP1 DUP4 SLOAD DIV MUL DUP4 MSTORE SWAP2 PUSH1 0x20 ADD SWAP2 PUSH2 0x983 JUMP JUMPDEST DUP3 ADD SWAP2 SWAP1 PUSH1 0x0 MSTORE PUSH1 0x20 PUSH1 0x0 KECCAK256 SWAP1 JUMPDEST DUP2 SLOAD DUP2 MSTORE SWAP1 PUSH1 0x1 ADD SWAP1 PUSH1 0x20 ADD DUP1 DUP4 GT PUSH2 0x966 JUMPI DUP3 SWAP1 SUB PUSH1 0x1F AND DUP3 ADD SWAP2 JUMPDEST POP POP POP POP POP DUP5 PUSH2 0xAA2 JUMP JUMPDEST ISZERO PUSH2 0x99D JUMPI PUSH1 0x0 SWAP2 POP POP PUSH2 0x9B6 JUMP JUMPDEST DUP1 DUP1 PUSH2 0x9A8 SWAP1 PUSH2 0x126B JUMP JUMPDEST SWAP2 POP POP PUSH2 0x8DC JUMP JUMPDEST POP PUSH1 0x1 SWAP1 POP JUMPDEST SWAP2 SWAP1 POP JUMP JUMPDEST PUSH1 0x0 DUP1 PUSH1 0x0 SWAP1 POP JUMPDEST PUSH1 0x1 SLOAD DUP2 LT ISZERO PUSH2 0xA97 JUMPI PUSH2 0xA75 PUSH1 0x2 PUSH1 0x0 DUP4 DUP2 MSTORE PUSH1 0x20 ADD SWAP1 DUP2 MSTORE PUSH1 0x20 ADD PUSH1 0x0 KECCAK256 PUSH1 0x2 ADD DUP1 SLOAD PUSH2 0x9F1 SWAP1 PUSH2 0x1208 JUMP JUMPDEST DUP1 PUSH1 0x1F ADD PUSH1 0x20 DUP1 SWAP2 DIV MUL PUSH1 0x20 ADD PUSH1 0x40 MLOAD SWAP1 DUP2 ADD PUSH1 0x40 MSTORE DUP1 SWAP3 SWAP2 SWAP1 DUP2 DUP2 MSTORE PUSH1 0x20 ADD DUP3 DUP1 SLOAD PUSH2 0xA1D SWAP1 PUSH2 0x1208 JUMP JUMPDEST DUP1 ISZERO PUSH2 0xA6A JUMPI DUP1 PUSH1 0x1F LT PUSH2 0xA3F JUMPI PUSH2 0x100 DUP1 DUP4 SLOAD DIV MUL DUP4 MSTORE SWAP2 PUSH1 0x20 ADD SWAP2 PUSH2 0xA6A JUMP JUMPDEST DUP3 ADD SWAP2 SWAP1 PUSH1 0x0 MSTORE PUSH1 0x20 PUSH1 0x0 KECCAK256 SWAP1 JUMPDEST DUP2 SLOAD DUP2 MSTORE SWAP1 PUSH1 0x1 ADD SWAP1 PUSH1 0x20 ADD DUP1 DUP4 GT PUSH2 0xA4D JUMPI DUP3 SWAP1 SUB PUSH1 0x1F AND DUP3 ADD SWAP2 JUMPDEST POP POP POP POP POP DUP5 PUSH2 0xAA2 JUMP JUMPDEST ISZERO PUSH2 0xA84 JUMPI PUSH1 0x0 SWAP2 POP POP PUSH2 0xA9D JUMP JUMPDEST DUP1 DUP1 PUSH2 0xA8F SWAP1 PUSH2 0x126B JUMP JUMPDEST SWAP2 POP POP PUSH2 0x9C3 JUMP JUMPDEST POP PUSH1 0x1 SWAP1 POP JUMPDEST SWAP2 SWAP1 POP JUMP JUMPDEST PUSH1 0x0 DUP2 PUSH1 0x40 MLOAD PUSH1 0x20 ADD PUSH2 0xAB5 SWAP2 SWAP1 PUSH2 0xFBC JUMP JUMPDEST PUSH1 0x40 MLOAD PUSH1 0x20 DUP2 DUP4 SUB SUB DUP2 MSTORE SWAP1 PUSH1 0x40 MSTORE DUP1 MLOAD SWAP1 PUSH1 0x20 ADD KECCAK256 DUP4 PUSH1 0x40 MLOAD PUSH1 0x20 ADD PUSH2 0xADC SWAP2 SWAP1 PUSH2 0xFBC JUMP JUMPDEST PUSH1 0x40 MLOAD PUSH1 0x20 DUP2 DUP4 SUB SUB DUP2 MSTORE SWAP1 PUSH1 0x40 MSTORE DUP1 MLOAD SWAP1 PUSH1 0x20 ADD KECCAK256 EQ SWAP1 POP SWAP3 SWAP2 POP POP JUMP JUMPDEST DUP3 DUP1 SLOAD PUSH2 0xB07 SWAP1 PUSH2 0x1208 JUMP JUMPDEST SWAP1 PUSH1 0x0 MSTORE PUSH1 0x20 PUSH1 0x0 KECCAK256 SWAP1 PUSH1 0x1F ADD PUSH1 0x20 SWAP1 DIV DUP2 ADD SWAP3 DUP3 PUSH2 0xB29 JUMPI PUSH1 0x0 DUP6 SSTORE PUSH2 0xB70 JUMP JUMPDEST DUP3 PUSH1 0x1F LT PUSH2 0xB42 JUMPI DUP1 MLOAD PUSH1 0xFF NOT AND DUP4 DUP1 ADD OR DUP6 SSTORE PUSH2 0xB70 JUMP JUMPDEST DUP3 DUP1 ADD PUSH1 0x1 ADD DUP6 SSTORE DUP3 ISZERO PUSH2 0xB70 JUMPI SWAP2 DUP3 ADD JUMPDEST DUP3 DUP2 GT ISZERO PUSH2 0xB6F JUMPI DUP3 MLOAD DUP3 SSTORE SWAP2 PUSH1 0x20 ADD SWAP2 SWAP1 PUSH1 0x1 ADD SWAP1 PUSH2 0xB54 JUMP JUMPDEST JUMPDEST POP SWAP1 POP PUSH2 0xB7D SWAP2 SWAP1 PUSH2 0xBE3 JUMP JUMPDEST POP SWAP1 JUMP JUMPDEST PUSH1 0x40 MLOAD DUP1 PUSH1 0xC0 ADD PUSH1 0x40 MSTORE DUP1 PUSH1 0x0 PUSH1 0x1 DUP2 GT ISZERO PUSH2 0xBA0 JUMPI PUSH2 0xB9F PUSH2 0x12E3 JUMP JUMPDEST JUMPDEST DUP2 MSTORE PUSH1 0x20 ADD PUSH1 0x60 DUP2 MSTORE PUSH1 0x20 ADD PUSH1 0x60 DUP2 MSTORE PUSH1 0x20 ADD PUSH1 0x0 ISZERO ISZERO DUP2 MSTORE PUSH1 0x20 ADD PUSH1 0x0 ISZERO ISZERO DUP2 MSTORE PUSH1 0x20 ADD PUSH1 0x0 PUSH20 0xFFFFFFFFFFFFFFFFFFFFFFFFFFFFFFFFFFFFFFFF AND DUP2 MSTORE POP SWAP1 JUMP JUMPDEST JUMPDEST DUP1 DUP3 GT ISZERO PUSH2 0xBFC JUMPI PUSH1 0x0 DUP2 PUSH1 0x0 SWAP1 SSTORE POP PUSH1 0x1 ADD PUSH2 0xBE4 JUMP JUMPDEST POP SWAP1 JUMP JUMPDEST PUSH1 0x0 PUSH2 0xC13 PUSH2 0xC0E DUP5 PUSH2 0x10F0 JUMP JUMPDEST PUSH2 0x10CB JUMP JUMPDEST SWAP1 POP DUP3 DUP2 MSTORE PUSH1 0x20 DUP2 ADD DUP5 DUP5 DUP5 ADD GT ISZERO PUSH2 0xC2F JUMPI PUSH2 0xC2E PUSH2 0x1375 JUMP JUMPDEST JUMPDEST PUSH2 0xC3A DUP5 DUP3 DUP6 PUSH2 0x11C6 JUMP JUMPDEST POP SWAP4 SWAP3 POP POP POP JUMP JUMPDEST PUSH1 0x0 DUP2 CALLDATALOAD SWAP1 POP PUSH2 0xC51 DUP2 PUSH2 0x14C2 JUMP JUMPDEST SWAP3 SWAP2 POP POP JUMP JUMPDEST PUSH1 0x0 DUP3 PUSH1 0x1F DUP4 ADD SLT PUSH2 0xC6C JUMPI PUSH2 0xC6B PUSH2 0x1370 JUMP JUMPDEST JUMPDEST DUP2 CALLDATALOAD PUSH2 0xC7C DUP5 DUP3 PUSH1 0x20 DUP7 ADD PUSH2 0xC00 JUMP JUMPDEST SWAP2 POP POP SWAP3 SWAP2 POP POP JUMP JUMPDEST PUSH1 0x0 DUP2 CALLDATALOAD SWAP1 POP PUSH2 0xC94 DUP2 PUSH2 0x14D9 JUMP JUMPDEST SWAP3 SWAP2 POP POP JUMP JUMPDEST PUSH1 0x0 PUSH1 0x20 DUP3 DUP5 SUB SLT ISZERO PUSH2 0xCB0 JUMPI PUSH2 0xCAF PUSH2 0x137F JUMP JUMPDEST JUMPDEST PUSH1 0x0 DUP3 ADD CALLDATALOAD PUSH8 0xFFFFFFFFFFFFFFFF DUP2 GT ISZERO PUSH2 0xCCE JUMPI PUSH2 0xCCD PUSH2 0x137A JUMP JUMPDEST JUMPDEST PUSH2 0xCDA DUP5 DUP3 DUP6 ADD PUSH2 0xC57 JUMP JUMPDEST SWAP2 POP POP SWAP3 SWAP2 POP POP JUMP JUMPDEST PUSH1 0x0 DUP1 PUSH1 0x40 DUP4 DUP6 SUB SLT ISZERO PUSH2 0xCFA JUMPI PUSH2 0xCF9 PUSH2 0x137F JUMP JUMPDEST JUMPDEST PUSH1 0x0 DUP4 ADD CALLDATALOAD PUSH8 0xFFFFFFFFFFFFFFFF DUP2 GT ISZERO PUSH2 0xD18 JUMPI PUSH2 0xD17 PUSH2 0x137A JUMP JUMPDEST JUMPDEST PUSH2 0xD24 DUP6 DUP3 DUP7 ADD PUSH2 0xC57 JUMP JUMPDEST SWAP3 POP POP PUSH1 0x20 DUP4 ADD CALLDATALOAD PUSH8 0xFFFFFFFFFFFFFFFF DUP2 GT ISZERO PUSH2 0xD45 JUMPI PUSH2 0xD44 PUSH2 0x137A JUMP JUMPDEST JUMPDEST PUSH2 0xD51 DUP6 DUP3 DUP7 ADD PUSH2 0xC57 JUMP JUMPDEST SWAP2 POP POP SWAP3 POP SWAP3 SWAP1 POP JUMP JUMPDEST PUSH1 0x0 PUSH1 0x20 DUP3 DUP5 SUB SLT ISZERO PUSH2 0xD71 JUMPI PUSH2 0xD70 PUSH2 0x137F JUMP JUMPDEST JUMPDEST PUSH1 0x0 PUSH2 0xD7F DUP5 DUP3 DUP6 ADD PUSH2 0xC85 JUMP JUMPDEST SWAP2 POP POP SWAP3 SWAP2 POP POP JUMP JUMPDEST PUSH1 0x0 DUP1 PUSH1 0x40 DUP4 DUP6 SUB SLT ISZERO PUSH2 0xD9F JUMPI PUSH2 0xD9E PUSH2 0x137F JUMP JUMPDEST JUMPDEST PUSH1 0x0 PUSH2 0xDAD DUP6 DUP3 DUP7 ADD PUSH2 0xC85 JUMP JUMPDEST SWAP3 POP POP PUSH1 0x20 PUSH2 0xDBE DUP6 DUP3 DUP7 ADD PUSH2 0xC42 JUMP JUMPDEST SWAP2 POP POP SWAP3 POP SWAP3 SWAP1 POP JUMP JUMPDEST PUSH2 0xDD1 DUP2 PUSH2 0x1159 JUMP JUMPDEST DUP3 MSTORE POP POP JUMP JUMPDEST PUSH2 0xDE0 DUP2 PUSH2 0x116B JUMP JUMPDEST DUP3 MSTORE POP POP JUMP JUMPDEST PUSH2 0xDEF DUP2 PUSH2 0x116B JUMP JUMPDEST DUP3 MSTORE POP POP JUMP JUMPDEST PUSH2 0xDFE DUP2 PUSH2 0x11B4 JUMP JUMPDEST DUP3 MSTORE POP POP JUMP JUMPDEST PUSH1 0x0 PUSH2 0xE0F DUP3 PUSH2 0x1121 JUMP JUMPDEST PUSH2 0xE19 DUP2 DUP6 PUSH2 0x112C JUMP JUMPDEST SWAP4 POP PUSH2 0xE29 DUP2 DUP6 PUSH1 0x20 DUP7 ADD PUSH2 0x11D5 JUMP JUMPDEST PUSH2 0xE32 DUP2 PUSH2 0x1384 JUMP JUMPDEST DUP5 ADD SWAP2 POP POP SWAP3 SWAP2 POP POP JUMP JUMPDEST PUSH1 0x0 PUSH2 0xE48 DUP3 PUSH2 0x1121 JUMP JUMPDEST PUSH2 0xE52 DUP2 DUP6 PUSH2 0x114E JUMP JUMPDEST SWAP4 POP PUSH2 0xE62 DUP2 DUP6 PUSH1 0x20 DUP7 ADD PUSH2 0x11D5 JUMP JUMPDEST DUP1 DUP5 ADD SWAP2 POP POP SWAP3 SWAP2 POP POP JUMP JUMPDEST PUSH1 0x0 PUSH2 0xE7B PUSH1 0x1B DUP4 PUSH2 0x113D JUMP JUMPDEST SWAP2 POP PUSH2 0xE86 DUP3 PUSH2 0x1395 JUMP JUMPDEST PUSH1 0x20 DUP3 ADD SWAP1 POP SWAP2 SWAP1 POP JUMP JUMPDEST PUSH1 0x0 PUSH2 0xE9E PUSH1 0x1F DUP4 PUSH2 0x113D JUMP JUMPDEST SWAP2 POP PUSH2 0xEA9 DUP3 PUSH2 0x13BE JUMP JUMPDEST PUSH1 0x20 DUP3 ADD SWAP1 POP SWAP2 SWAP1 POP JUMP JUMPDEST PUSH1 0x0 PUSH2 0xEC1 PUSH1 0x2F DUP4 PUSH2 0x113D JUMP JUMPDEST SWAP2 POP PUSH2 0xECC DUP3 PUSH2 0x13E7 JUMP JUMPDEST PUSH1 0x40 DUP3 ADD SWAP1 POP SWAP2 SWAP1 POP JUMP JUMPDEST PUSH1 0x0 PUSH2 0xEE4 PUSH1 0x23 DUP4 PUSH2 0x113D JUMP JUMPDEST SWAP2 POP PUSH2 0xEEF DUP3 PUSH2 0x1436 JUMP JUMPDEST PUSH1 0x40 DUP3 ADD SWAP1 POP SWAP2 SWAP1 POP JUMP JUMPDEST PUSH1 0x0 PUSH2 0xF07 PUSH1 0x1E DUP4 PUSH2 0x113D JUMP JUMPDEST SWAP2 POP PUSH2 0xF12 DUP3 PUSH2 0x1485 JUMP JUMPDEST PUSH1 0x20 DUP3 ADD SWAP1 POP SWAP2 SWAP1 POP JUMP JUMPDEST PUSH1 0x0 PUSH1 0xC0 DUP4 ADD PUSH1 0x0 DUP4 ADD MLOAD PUSH2 0xF35 PUSH1 0x0 DUP7 ADD DUP3 PUSH2 0xDF5 JUMP JUMPDEST POP PUSH1 0x20 DUP4 ADD MLOAD DUP5 DUP3 SUB PUSH1 0x20 DUP7 ADD MSTORE PUSH2 0xF4D DUP3 DUP3 PUSH2 0xE04 JUMP JUMPDEST SWAP2 POP POP PUSH1 0x40 DUP4 ADD MLOAD DUP5 DUP3 SUB PUSH1 0x40 DUP7 ADD MSTORE PUSH2 0xF67 DUP3 DUP3 PUSH2 0xE04 JUMP JUMPDEST SWAP2 POP POP PUSH1 0x60 DUP4 ADD MLOAD PUSH2 0xF7C PUSH1 0x60 DUP7 ADD DUP3 PUSH2 0xDD7 JUMP JUMPDEST POP PUSH1 0x80 DUP4 ADD MLOAD PUSH2 0xF8F PUSH1 0x80 DUP7 ADD DUP3 PUSH2 0xDD7 JUMP JUMPDEST POP PUSH1 0xA0 DUP4 ADD MLOAD PUSH2 0xFA2 PUSH1 0xA0 DUP7 ADD DUP3 PUSH2 0xDC8 JUMP JUMPDEST POP DUP1 SWAP2 POP POP SWAP3 SWAP2 POP POP JUMP JUMPDEST PUSH2 0xFB6 DUP2 PUSH2 0x11AA JUMP JUMPDEST DUP3 MSTORE POP POP JUMP JUMPDEST PUSH1 0x0 PUSH2 0xFC8 DUP3 DUP5 PUSH2 0xE3D JUMP JUMPDEST SWAP2 POP DUP2 SWAP1 POP SWAP3 SWAP2 POP POP JUMP JUMPDEST PUSH1 0x0 PUSH1 0x20 DUP3 ADD SWAP1 POP PUSH2 0xFE8 PUSH1 0x0 DUP4 ADD DUP5 PUSH2 0xDE6 JUMP JUMPDEST SWAP3 SWAP2 POP POP JUMP JUMPDEST PUSH1 0x0 PUSH1 0x20 DUP3 ADD SWAP1 POP DUP2 DUP2 SUB PUSH1 0x0 DUP4 ADD MSTORE PUSH2 0x1007 DUP2 PUSH2 0xE6E JUMP JUMPDEST SWAP1 POP SWAP2 SWAP1 POP JUMP JUMPDEST PUSH1 0x0 PUSH1 0x20 DUP3 ADD SWAP1 POP DUP2 DUP2 SUB PUSH1 0x0 DUP4 ADD MSTORE PUSH2 0x1027 DUP2 PUSH2 0xE91 JUMP JUMPDEST SWAP1 POP SWAP2 SWAP1 POP JUMP JUMPDEST PUSH1 0x0 PUSH1 0x20 DUP3 ADD SWAP1 POP DUP2 DUP2 SUB PUSH1 0x0 DUP4 ADD MSTORE PUSH2 0x1047 DUP2 PUSH2 0xEB4 JUMP JUMPDEST SWAP1 POP SWAP2 SWAP1 POP JUMP JUMPDEST PUSH1 0x0 PUSH1 0x20 DUP3 ADD SWAP1 POP DUP2 DUP2 SUB PUSH1 0x0 DUP4 ADD MSTORE PUSH2 0x1067 DUP2 PUSH2 0xED7 JUMP JUMPDEST SWAP1 POP SWAP2 SWAP1 POP JUMP JUMPDEST PUSH1 0x0 PUSH1 0x20 DUP3 ADD SWAP1 POP DUP2 DUP2 SUB PUSH1 0x0 DUP4 ADD MSTORE PUSH2 0x1087 DUP2 PUSH2 0xEFA JUMP JUMPDEST SWAP1 POP SWAP2 SWAP1 POP JUMP JUMPDEST PUSH1 0x0 PUSH1 0x20 DUP3 ADD SWAP1 POP DUP2 DUP2 SUB PUSH1 0x0 DUP4 ADD MSTORE PUSH2 0x10A8 DUP2 DUP5 PUSH2 0xF1D JUMP JUMPDEST SWAP1 POP SWAP3 SWAP2 POP POP JUMP JUMPDEST PUSH1 0x0 PUSH1 0x20 DUP3 ADD SWAP1 POP PUSH2 0x10C5 PUSH1 0x0 DUP4 ADD DUP5 PUSH2 0xFAD JUMP JUMPDEST SWAP3 SWAP2 POP POP JUMP JUMPDEST PUSH1 0x0 PUSH2 0x10D5 PUSH2 0x10E6 JUMP JUMPDEST SWAP1 POP PUSH2 0x10E1 DUP3 DUP3 PUSH2 0x123A JUMP JUMPDEST SWAP2 SWAP1 POP JUMP JUMPDEST PUSH1 0x0 PUSH1 0x40 MLOAD SWAP1 POP SWAP1 JUMP JUMPDEST PUSH1 0x0 PUSH8 0xFFFFFFFFFFFFFFFF DUP3 GT ISZERO PUSH2 0x110B JUMPI PUSH2 0x110A PUSH2 0x1341 JUMP JUMPDEST JUMPDEST PUSH2 0x1114 DUP3 PUSH2 0x1384 JUMP JUMPDEST SWAP1 POP PUSH1 0x20 DUP2 ADD SWAP1 POP SWAP2 SWAP1 POP JUMP JUMPDEST PUSH1 0x0 DUP2 MLOAD SWAP1 POP SWAP2 SWAP1 POP JUMP JUMPDEST PUSH1 0x0 DUP3 DUP3 MSTORE PUSH1 0x20 DUP3 ADD SWAP1 POP SWAP3 SWAP2 POP POP JUMP JUMPDEST PUSH1 0x0 DUP3 DUP3 MSTORE PUSH1 0x20 DUP3 ADD SWAP1 POP SWAP3 SWAP2 POP POP JUMP JUMPDEST PUSH1 0x0 DUP2 SWAP1 POP SWAP3 SWAP2 POP POP JUMP JUMPDEST PUSH1 0x0 PUSH2 0x1164 DUP3 PUSH2 0x118A JUMP JUMPDEST SWAP1 POP SWAP2 SWAP1 POP JUMP JUMPDEST PUSH1 0x0 DUP2 ISZERO ISZERO SWAP1 POP SWAP2 SWAP1 POP JUMP JUMPDEST PUSH1 0x0 DUP2 SWAP1 POP PUSH2 0x1185 DUP3 PUSH2 0x14AE JUMP JUMPDEST SWAP2 SWAP1 POP JUMP JUMPDEST PUSH1 0x0 PUSH20 0xFFFFFFFFFFFFFFFFFFFFFFFFFFFFFFFFFFFFFFFF DUP3 AND SWAP1 POP SWAP2 SWAP1 POP JUMP JUMPDEST PUSH1 0x0 DUP2 SWAP1 POP SWAP2 SWAP1 POP JUMP JUMPDEST PUSH1 0x0 PUSH2 0x11BF DUP3 PUSH2 0x1177 JUMP JUMPDEST SWAP1 POP SWAP2 SWAP1 POP JUMP JUMPDEST DUP3 DUP2 DUP4 CALLDATACOPY PUSH1 0x0 DUP4 DUP4 ADD MSTORE POP POP POP JUMP JUMPDEST PUSH1 0x0 JUMPDEST DUP4 DUP2 LT ISZERO PUSH2 0x11F3 JUMPI DUP1 DUP3 ADD MLOAD DUP2 DUP5 ADD MSTORE PUSH1 0x20 DUP2 ADD SWAP1 POP PUSH2 0x11D8 JUMP JUMPDEST DUP4 DUP2 GT ISZERO PUSH2 0x1202 JUMPI PUSH1 0x0 DUP5 DUP5 ADD MSTORE JUMPDEST POP POP POP POP JUMP JUMPDEST PUSH1 0x0 PUSH1 0x2 DUP3 DIV SWAP1 POP PUSH1 0x1 DUP3 AND DUP1 PUSH2 0x1220 JUMPI PUSH1 0x7F DUP3 AND SWAP2 POP JUMPDEST PUSH1 0x20 DUP3 LT DUP2 EQ ISZERO PUSH2 0x1234 JUMPI PUSH2 0x1233 PUSH2 0x1312 JUMP JUMPDEST JUMPDEST POP SWAP2 SWAP1 POP JUMP JUMPDEST PUSH2 0x1243 DUP3 PUSH2 0x1384 JUMP JUMPDEST DUP2 ADD DUP2 DUP2 LT PUSH8 0xFFFFFFFFFFFFFFFF DUP3 GT OR ISZERO PUSH2 0x1262 JUMPI PUSH2 0x1261 PUSH2 0x1341 JUMP JUMPDEST JUMPDEST DUP1 PUSH1 0x40 MSTORE POP POP POP JUMP JUMPDEST PUSH1 0x0 PUSH2 0x1276 DUP3 PUSH2 0x11AA JUMP JUMPDEST SWAP2 POP PUSH32 0xFFFFFFFFFFFFFFFFFFFFFFFFFFFFFFFFFFFFFFFFFFFFFFFFFFFFFFFFFFFFFFFF DUP3 EQ ISZERO PUSH2 0x12A9 JUMPI PUSH2 0x12A8 PUSH2 0x12B4 JUMP JUMPDEST JUMPDEST PUSH1 0x1 DUP3 ADD SWAP1 POP SWAP2 SWAP1 POP JUMP JUMPDEST PUSH32 0x4E487B7100000000000000000000000000000000000000000000000000000000 PUSH1 0x0 MSTORE PUSH1 0x11 PUSH1 0x4 MSTORE PUSH1 0x24 PUSH1 0x0 REVERT JUMPDEST PUSH32 0x4E487B7100000000000000000000000000000000000000000000000000000000 PUSH1 0x0 MSTORE PUSH1 0x21 PUSH1 0x4 MSTORE PUSH1 0x24 PUSH1 0x0 REVERT JUMPDEST PUSH32 0x4E487B7100000000000000000000000000000000000000000000000000000000 PUSH1 0x0 MSTORE PUSH1 0x22 PUSH1 0x4 MSTORE PUSH1 0x24 PUSH1 0x0 REVERT JUMPDEST PUSH32 0x4E487B7100000000000000000000000000000000000000000000000000000000 PUSH1 0x0 MSTORE PUSH1 0x41 PUSH1 0x4 MSTORE PUSH1 0x24 PUSH1 0x0 REVERT JUMPDEST PUSH1 0x0 DUP1 REVERT JUMPDEST PUSH1 0x0 DUP1 REVERT JUMPDEST PUSH1 0x0 DUP1 REVERT JUMPDEST PUSH1 0x0 DUP1 REVERT JUMPDEST PUSH1 0x0 PUSH1 0x1F NOT PUSH1 0x1F DUP4 ADD AND SWAP1 POP SWAP2 SWAP1 POP JUMP JUMPDEST PUSH32 0x54686973204944206F66204E465420646F6E2774206578697374730000000000 PUSH1 0x0 DUP3 ADD MSTORE POP JUMP JUMPDEST PUSH32 0x556E61626C6520746F207265706561742074686520646574656374696F6E2100 PUSH1 0x0 DUP3 ADD MSTORE POP JUMP JUMPDEST PUSH32 0x546865204E465420646F6573206E6F74206D6565742074686520646574656374 PUSH1 0x0 DUP3 ADD MSTORE PUSH32 0x696F6E20636F6E646974696F6E73210000000000000000000000000000000000 PUSH1 0x20 DUP3 ADD MSTORE POP JUMP JUMPDEST PUSH32 0x4F6E6C79206F776E65722063616E20636865636B20746865204E465420627920 PUSH1 0x0 DUP3 ADD MSTORE PUSH32 0x4944210000000000000000000000000000000000000000000000000000000000 PUSH1 0x20 DUP3 ADD MSTORE POP JUMP JUMPDEST PUSH32 0x4F6E6C79206F776E65722063616E2064657465637420746865204E4654210000 PUSH1 0x0 DUP3 ADD MSTORE POP JUMP JUMPDEST PUSH1 0x2 DUP2 LT PUSH2 0x14BF JUMPI PUSH2 0x14BE PUSH2 0x12E3 JUMP JUMPDEST JUMPDEST POP JUMP JUMPDEST PUSH2 0x14CB DUP2 PUSH2 0x116B JUMP JUMPDEST DUP2 EQ PUSH2 0x14D6 JUMPI PUSH1 0x0 DUP1 REVERT JUMPDEST POP JUMP JUMPDEST PUSH2 0x14E2 DUP2 PUSH2 0x11AA JUMP JUMPDEST DUP2 EQ PUSH2 0x14ED JUMPI PUSH1 0x0 DUP1 REVERT JUMPDEST POP JUMP INVALID LOG2 PUSH5 0x6970667358 0x22 SLT KECCAK256 0xDF 0xC 0xDD STATICCALL SWAP14 DUP13 0xB8 0xFC SWAP5 0xE5 0x1E PC DUP12 EXTCODESIZE 0xE8 0xB1 DUP4 SWAP15 SAR 0x2B 0xE6 0xAF 0xD3 0xD8 PUSH14 0x69095C2A035EB364736F6C634300 ADDMOD SMOD STOP CALLER "
				},
				"gasEstimates": {
					"creation": {
						"codeDepositCost": "1082800",
						"executionCost": "30399",
						"totalCost": "1113199"
					},
					"external": {
						"ID()": "2451",
						"checkNFTByHash(string)": "infinite",
						"checkNFTByID(uint256)": "infinite",
						"detectNFT(uint256,bool)": "84611",
						"uploadNFT(string,string)": "infinite"
					},
					"internal": {
						"compareStrings(string memory,string memory)": "infinite",
						"hashIsExists(string memory)": "infinite",
						"ipfsIsExists(string memory)": "infinite"
					}
				},
				"methodIdentifiers": {
					"ID()": "b3cea217",
					"checkNFTByHash(string)": "d0aeae96",
					"checkNFTByID(uint256)": "b5e3029f",
					"detectNFT(uint256,bool)": "1c5a3e52",
					"uploadNFT(string,string)": "3a4f2d24"
				}
			},
			"userdoc": {
				"kind": "user",
				"methods": {},
				"version": 1
			}
		}
	}
}